{
  "_format": "hh-sol-artifact-1",
  "contractName": "ERC721AQueryableMockUpgradeable",
  "sourceName": "contracts/ERC721A-Upgradeable/contracts/mocks/ERC721AQueryableMockUpgradeable.sol",
  "abi": [
    {
      "inputs": [],
      "name": "ApprovalCallerNotOwnerNorApproved",
      "type": "error"
    },
    {
      "inputs": [],
      "name": "ApprovalQueryForNonexistentToken",
      "type": "error"
    },
    {
      "inputs": [],
      "name": "BalanceQueryForZeroAddress",
      "type": "error"
    },
    {
      "inputs": [],
      "name": "InvalidQueryRange",
      "type": "error"
    },
    {
      "inputs": [],
      "name": "MintERC2309QuantityExceedsLimit",
      "type": "error"
    },
    {
      "inputs": [],
      "name": "MintToZeroAddress",
      "type": "error"
    },
    {
      "inputs": [],
      "name": "MintZeroQuantity",
      "type": "error"
    },
    {
      "inputs": [],
      "name": "NotCompatibleWithSpotMints",
      "type": "error"
    },
    {
      "inputs": [],
      "name": "OwnerQueryForNonexistentToken",
      "type": "error"
    },
    {
      "inputs": [],
      "name": "OwnershipNotInitializedForExtraData",
      "type": "error"
    },
    {
      "inputs": [],
      "name": "SequentialMintExceedsLimit",
      "type": "error"
    },
    {
      "inputs": [],
      "name": "SequentialUpToTooSmall",
      "type": "error"
    },
    {
      "inputs": [],
      "name": "SpotMintTokenIdTooSmall",
      "type": "error"
    },
    {
      "inputs": [],
      "name": "TokenAlreadyExists",
      "type": "error"
    },
    {
      "inputs": [],
      "name": "TransferCallerNotOwnerNorApproved",
      "type": "error"
    },
    {
      "inputs": [],
      "name": "TransferFromIncorrectOwner",
      "type": "error"
    },
    {
      "inputs": [],
      "name": "TransferToNonERC721ReceiverImplementer",
      "type": "error"
    },
    {
      "inputs": [],
      "name": "TransferToZeroAddress",
      "type": "error"
    },
    {
      "inputs": [],
      "name": "URIQueryForNonexistentToken",
      "type": "error"
    },
    {
      "anonymous": false,
      "inputs": [
        {
          "indexed": true,
          "internalType": "address",
          "name": "owner",
          "type": "address"
        },
        {
          "indexed": true,
          "internalType": "address",
          "name": "approved",
          "type": "address"
        },
        {
          "indexed": true,
          "internalType": "uint256",
          "name": "tokenId",
          "type": "uint256"
        }
      ],
      "name": "Approval",
      "type": "event"
    },
    {
      "anonymous": false,
      "inputs": [
        {
          "indexed": true,
          "internalType": "address",
          "name": "owner",
          "type": "address"
        },
        {
          "indexed": true,
          "internalType": "address",
          "name": "operator",
          "type": "address"
        },
        {
          "indexed": false,
          "internalType": "bool",
          "name": "approved",
          "type": "bool"
        }
      ],
      "name": "ApprovalForAll",
      "type": "event"
    },
    {
      "anonymous": false,
      "inputs": [
        {
          "indexed": true,
          "internalType": "uint256",
          "name": "fromTokenId",
          "type": "uint256"
        },
        {
          "indexed": false,
          "internalType": "uint256",
          "name": "toTokenId",
          "type": "uint256"
        },
        {
          "indexed": true,
          "internalType": "address",
          "name": "from",
          "type": "address"
        },
        {
          "indexed": true,
          "internalType": "address",
          "name": "to",
          "type": "address"
        }
      ],
      "name": "ConsecutiveTransfer",
      "type": "event"
    },
    {
      "anonymous": false,
      "inputs": [
        {
          "indexed": true,
          "internalType": "address",
          "name": "from",
          "type": "address"
        },
        {
          "indexed": true,
          "internalType": "address",
          "name": "to",
          "type": "address"
        },
        {
          "indexed": true,
          "internalType": "uint256",
          "name": "tokenId",
          "type": "uint256"
        }
      ],
      "name": "Transfer",
      "type": "event"
    },
    {
      "inputs": [
        {
          "internalType": "address",
          "name": "to",
          "type": "address"
        },
        {
          "internalType": "uint256",
          "name": "tokenId",
          "type": "uint256"
        }
      ],
      "name": "approve",
      "outputs": [],
      "stateMutability": "payable",
      "type": "function"
    },
    {
      "inputs": [
        {
          "internalType": "address",
          "name": "owner",
          "type": "address"
        }
      ],
      "name": "balanceOf",
      "outputs": [
        {
          "internalType": "uint256",
          "name": "",
          "type": "uint256"
        }
      ],
      "stateMutability": "view",
      "type": "function"
    },
    {
      "inputs": [
        {
          "internalType": "uint256",
          "name": "tokenId",
          "type": "uint256"
        }
      ],
      "name": "burn",
      "outputs": [],
      "stateMutability": "nonpayable",
      "type": "function"
    },
    {
      "inputs": [
        {
          "internalType": "uint256",
          "name": "index",
          "type": "uint256"
        }
      ],
      "name": "directSetBurnBit",
      "outputs": [],
      "stateMutability": "nonpayable",
      "type": "function"
    },
    {
      "inputs": [
        {
          "internalType": "uint256",
          "name": "tokenId",
          "type": "uint256"
        }
      ],
      "name": "explicitOwnershipOf",
      "outputs": [
        {
          "components": [
            {
              "internalType": "address",
              "name": "addr",
              "type": "address"
            },
            {
              "internalType": "uint64",
              "name": "startTimestamp",
              "type": "uint64"
            },
            {
              "internalType": "bool",
              "name": "burned",
              "type": "bool"
            },
            {
              "internalType": "uint24",
              "name": "extraData",
              "type": "uint24"
            }
          ],
          "internalType": "struct IERC721AUpgradeable.TokenOwnership",
          "name": "ownership",
          "type": "tuple"
        }
      ],
      "stateMutability": "view",
      "type": "function"
    },
    {
      "inputs": [
        {
          "internalType": "uint256[]",
          "name": "tokenIds",
          "type": "uint256[]"
        }
      ],
      "name": "explicitOwnershipsOf",
      "outputs": [
        {
          "components": [
            {
              "internalType": "address",
              "name": "addr",
              "type": "address"
            },
            {
              "internalType": "uint64",
              "name": "startTimestamp",
              "type": "uint64"
            },
            {
              "internalType": "bool",
              "name": "burned",
              "type": "bool"
            },
            {
              "internalType": "uint24",
              "name": "extraData",
              "type": "uint24"
            }
          ],
          "internalType": "struct IERC721AUpgradeable.TokenOwnership[]",
          "name": "",
          "type": "tuple[]"
        }
      ],
      "stateMutability": "view",
      "type": "function"
    },
    {
      "inputs": [
        {
          "internalType": "uint256",
          "name": "tokenId",
          "type": "uint256"
        }
      ],
      "name": "getApproved",
      "outputs": [
        {
          "internalType": "address",
          "name": "",
          "type": "address"
        }
      ],
      "stateMutability": "view",
      "type": "function"
    },
    {
      "inputs": [
        {
          "internalType": "address",
          "name": "owner",
          "type": "address"
        },
        {
          "internalType": "address",
          "name": "operator",
          "type": "address"
        }
      ],
      "name": "isApprovedForAll",
      "outputs": [
        {
          "internalType": "bool",
          "name": "",
          "type": "bool"
        }
      ],
      "stateMutability": "view",
      "type": "function"
    },
    {
      "inputs": [],
      "name": "name",
      "outputs": [
        {
          "internalType": "string",
          "name": "",
          "type": "string"
        }
      ],
      "stateMutability": "view",
      "type": "function"
    },
    {
      "inputs": [
        {
          "internalType": "uint256",
          "name": "tokenId",
          "type": "uint256"
        }
      ],
      "name": "ownerOf",
      "outputs": [
        {
          "internalType": "address",
          "name": "",
          "type": "address"
        }
      ],
      "stateMutability": "view",
      "type": "function"
    },
    {
      "inputs": [
        {
          "internalType": "address",
          "name": "to",
          "type": "address"
        },
        {
          "internalType": "uint256",
          "name": "quantity",
          "type": "uint256"
        }
      ],
      "name": "safeMint",
      "outputs": [],
      "stateMutability": "nonpayable",
      "type": "function"
    },
    {
      "inputs": [
        {
          "internalType": "address",
          "name": "from",
          "type": "address"
        },
        {
          "internalType": "address",
          "name": "to",
          "type": "address"
        },
        {
          "internalType": "uint256",
          "name": "tokenId",
          "type": "uint256"
        }
      ],
      "name": "safeTransferFrom",
      "outputs": [],
      "stateMutability": "payable",
      "type": "function"
    },
    {
      "inputs": [
        {
          "internalType": "address",
          "name": "from",
          "type": "address"
        },
        {
          "internalType": "address",
          "name": "to",
          "type": "address"
        },
        {
          "internalType": "uint256",
          "name": "tokenId",
          "type": "uint256"
        },
        {
          "internalType": "bytes",
          "name": "_data",
          "type": "bytes"
        }
      ],
      "name": "safeTransferFrom",
      "outputs": [],
      "stateMutability": "payable",
      "type": "function"
    },
    {
      "inputs": [
        {
          "internalType": "address",
          "name": "operator",
          "type": "address"
        },
        {
          "internalType": "bool",
          "name": "approved",
          "type": "bool"
        }
      ],
      "name": "setApprovalForAll",
      "outputs": [],
      "stateMutability": "nonpayable",
      "type": "function"
    },
    {
      "inputs": [
        {
          "internalType": "bytes4",
          "name": "interfaceId",
          "type": "bytes4"
        }
      ],
      "name": "supportsInterface",
      "outputs": [
        {
          "internalType": "bool",
          "name": "",
          "type": "bool"
        }
      ],
      "stateMutability": "view",
      "type": "function"
    },
    {
      "inputs": [],
      "name": "symbol",
      "outputs": [
        {
          "internalType": "string",
          "name": "",
          "type": "string"
        }
      ],
      "stateMutability": "view",
      "type": "function"
    },
    {
      "inputs": [
        {
          "internalType": "uint256",
          "name": "tokenId",
          "type": "uint256"
        }
      ],
      "name": "tokenURI",
      "outputs": [
        {
          "internalType": "string",
          "name": "",
          "type": "string"
        }
      ],
      "stateMutability": "view",
      "type": "function"
    },
    {
      "inputs": [
        {
          "internalType": "address",
          "name": "owner",
          "type": "address"
        }
      ],
      "name": "tokensOfOwner",
      "outputs": [
        {
          "internalType": "uint256[]",
          "name": "",
          "type": "uint256[]"
        }
      ],
      "stateMutability": "view",
      "type": "function"
    },
    {
      "inputs": [
        {
          "internalType": "address",
          "name": "owner",
          "type": "address"
        },
        {
          "internalType": "uint256",
          "name": "start",
          "type": "uint256"
        },
        {
          "internalType": "uint256",
          "name": "stop",
          "type": "uint256"
        }
      ],
      "name": "tokensOfOwnerIn",
      "outputs": [
        {
          "internalType": "uint256[]",
          "name": "",
          "type": "uint256[]"
        }
      ],
      "stateMutability": "view",
      "type": "function"
    },
    {
      "inputs": [],
      "name": "totalSupply",
      "outputs": [
        {
          "internalType": "uint256",
          "name": "result",
          "type": "uint256"
        }
      ],
      "stateMutability": "view",
      "type": "function"
    },
    {
      "inputs": [
        {
          "internalType": "address",
          "name": "from",
          "type": "address"
        },
        {
          "internalType": "address",
          "name": "to",
          "type": "address"
        },
        {
          "internalType": "uint256",
          "name": "tokenId",
          "type": "uint256"
        }
      ],
      "name": "transferFrom",
      "outputs": [],
      "stateMutability": "payable",
      "type": "function"
    }
  ],
  "bytecode": "0x608060405234801561001057600080fd5b506118d8806100206000396000f3fe60806040526004361061012a5760003560e01c80636352211e116100ab578063a14481941161006f578063a144819414610374578063a22cb46514610394578063b88d4fde146103b4578063c23dc68f146103c7578063c87b56dd146103f4578063e985e9c51461041457600080fd5b80636352211e146102d257806370a08231146102f25780638462151c1461031257806395d89b411461033f57806399a2557a1461035457600080fd5b806323b872dd116100f257806323b872dd146101f657806342842e0e1461020957806342966c681461021c5780634b6c5d8c1461023c5780635bbb2177146102a557600080fd5b806301ffc9a71461012f57806306fdde0314610164578063081812fc14610186578063095ea7b3146101be57806318160ddd146101d3575b600080fd5b34801561013b57600080fd5b5061014f61014a36600461138f565b610434565b60405190151581526020015b60405180910390f35b34801561017057600080fd5b50610179610486565b60405161015b91906113fc565b34801561019257600080fd5b506101a66101a136600461140f565b610521565b6040516001600160a01b03909116815260200161015b565b6101d16101cc36600461143f565b610565565b005b3480156101df57600080fd5b506101e8610575565b60405190815260200161015b565b6101d1610204366004611469565b6105b2565b6101d1610217366004611469565b610765565b34801561022857600080fd5b506101d161023736600461140f565b610785565b34801561024857600080fd5b506101d161025736600461140f565b60046020908152600091825260408083208054600160e01b9081179091557f2569078dfb4b0305704d3008e7403993ae9601b85f7ae5e742de3de8f8011c4490925290912080549091179055565b3480156102b157600080fd5b506102c56102c03660046114a5565b610793565b60405161015b9190611557565b3480156102de57600080fd5b506101a66102ed36600461140f565b6107df565b3480156102fe57600080fd5b506101e861030d3660046115a5565b6107ea565b34801561031e57600080fd5b5061033261032d3660046115a5565b61084a565b60405161015b91906115c0565b34801561034b57600080fd5b50610179610898565b34801561036057600080fd5b5061033261036f3660046115f8565b6108b0565b34801561038057600080fd5b506101d161038f36600461143f565b6108bd565b3480156103a057600080fd5b506101d16103af36600461162b565b6108c7565b6101d16103c236600461167d565b610944565b3480156103d357600080fd5b506103e76103e236600461140f565b610985565b60405161015b9190611759565b34801561040057600080fd5b5061017961040f36600461140f565b6109dc565b34801561042057600080fd5b5061014f61042f366004611767565b610a64565b60006301ffc9a760e01b6001600160e01b03198316148061046557506380ac58cd60e01b6001600160e01b03198316145b806104805750635b5e139f60e01b6001600160e01b03198316145b92915050565b6060610490610aa1565b600201805461049e9061179a565b80601f01602080910402602001604051908101604052809291908181526020018280546104ca9061179a565b80156105175780601f106104ec57610100808354040283529160200191610517565b820191906000526020600020905b8154815290600101906020018083116104fa57829003601f168201915b5050505050905090565b600061052c82610ac5565b610540576105406333d1c03960e21b610b4d565b610548610aa1565b60009283526006016020525060409020546001600160a01b031690565b61057182826001610b57565b5050565b600080610580610aa1565b6001015461058c610aa1565b540303905060001961059c610c08565b146105af576105a9610aa1565b60080154015b90565b60006105bd82610c0e565b6001600160a01b0394851694909150811684146105e3576105e362a1148160e81b610b4d565b6000806105ef84610cfb565b9150915061061481876105ff3390565b6001600160a01b039081169116811491141790565b610636576106228633610a64565b61063657610636632ce44b5f60e11b610b4d565b801561064157600082555b610649610aa1565b6001600160a01b0387166000908152600591909101602052604090208054600019019055610675610aa1565b6001600160a01b038616600090815260059190910160205260409020805460010190556106a685600160e11b610d23565b6106ae610aa1565b60008681526004919091016020526040812091909155600160e11b8416900361072457600184016106dd610aa1565b600082815260049190910160205260408120549003610722576106fe610aa1565b548114610722578361070e610aa1565b600083815260049190910160205260409020555b505b6001600160a01b038516848188600080516020611883833981519152600080a48060000361075c5761075c633a954ecd60e21b610b4d565b50505050505050565b61078083838360405180602001604052806000815250610944565b505050565b610790816001610d38565b50565b60408051828152600583901b8082016020019092526060915b80156107d757601f19808201918601013560006107c882610985565b84840160200152506107ac9050565b509392505050565b600061048082610c0e565b60006001600160a01b03821661080a5761080a6323d3ad8160e21b610b4d565b67ffffffffffffffff61081b610aa1565b6005016000846001600160a01b03166001600160a01b0316815260200190815260200160002054169050919050565b6060600019610857610c08565b1461086c5761086c63bdba09d760e01b610b4d565b600080610877610e96565b905060608183146108905761088d858484610ea6565b90505b949350505050565b60606108a2610aa1565b600301805461049e9061179a565b6060610890848484610ea6565b6105718282610ffc565b806108d0610aa1565b336000818152600792909201602090815260408084206001600160a01b03881680865290835293819020805460ff19169515159590951790945592518415158152919290917f17307eab39ab6107e8899845ad3d59bd9653f200f220920489ca2b5937696c31910160405180910390a35050565b61094f8484846105b2565b6001600160a01b0383163b1561097f5761096b84848484611016565b61097f5761097f6368d2bf6b60e11b610b4d565b50505050565b61098d611352565b610995610c08565b8211156109a557610480826110f8565b6109ad610e96565b8210156109d7575b6109be82611123565b6109ce57600019909101906109b5565b610480826110f8565b919050565b60606109e782610ac5565b6109fb576109fb630a14c4b560e41b610b4d565b6000610a1260408051602081019091526000815290565b90508051600003610a325760405180602001604052806000815250610a5d565b80610a3c84611143565b604051602001610a4d9291906117d4565b6040516020818303038152906040525b9392505050565b6000610a6e610aa1565b6001600160a01b039384166000908152600791909101602090815260408083209490951682529290925250205460ff1690565b7f2569078dfb4b0305704d3008e7403993ae9601b85f7ae5e742de3de8f8011c4090565b6000610acf610c08565b821115610af957610480610ae1610aa1565b60008481526004919091016020526040902054611187565b610b01610aa1565b548210156109d75760005b610b14610aa1565b600084815260049190910160205260408120549150819003610b4057610b3983611803565b9250610b0c565b600160e01b161592915050565b8060005260046000fd5b6000610b62836107df565b9050818015610b7a5750336001600160a01b03821614155b15610b9d57610b898133610a64565b610b9d57610b9d6367d9dca160e11b610b4d565b83610ba6610aa1565b6000858152600691909101602052604080822080546001600160a01b0319166001600160a01b0394851617905551859287811692908516917f8c5be1e5ebec7d5bd14f71427d1e84f3dd0314c0f7b2291e5b200ac8c7c3b9259190a450505050565b60001990565b6000610c18610aa1565b600083815260049190910160205260409020549050610c35610c08565b821115610c5f57610c4581611187565b15610c4f57919050565b610c5f636f96cda160e11b610b4d565b80600003610cd857610c6f610aa1565b548210610c8657610c86636f96cda160e11b610b4d565b610c8e610aa1565b600019909201600081815260049390930160205260409092205490508015610c8657600160e01b8116600003610cc357919050565b610cd3636f96cda160e11b610b4d565b610c86565b600160e01b8116600003610ceb57919050565b6109d7636f96cda160e11b610b4d565b6000806000610d08610aa1565b60009485526006016020525050604090912080549092909150565b4260a01b176001600160a01b03919091161790565b6000610d4383610c0e565b905080600080610d5286610cfb565b915091508415610d8957610d678184336105ff565b610d8957610d758333610a64565b610d8957610d89632ce44b5f60e11b610b4d565b8015610d9457600082555b6001600160801b03610da4610aa1565b6001600160a01b0385166000908152600591909101602052604090208054919091019055610dd683600360e01b610d23565b610dde610aa1565b60008881526004919091016020526040812091909155600160e11b85169003610e545760018601610e0d610aa1565b600082815260049190910160205260408120549003610e5257610e2e610aa1565b548114610e525784610e3e610aa1565b600083815260049190910160205260409020555b505b60405186906000906001600160a01b03861690600080516020611883833981519152908390a4610e82610aa1565b600190810180549091019055505050505050565b6000610ea0610aa1565b54919050565b6060818310610ebf57610ebf631960ccad60e11b610b4d565b6000610ec9610e96565b90506000600019610ed8610c08565b03610ee35781610ee5565b835b9050808410610ef2578093505b6000610efd876107ea565b9050848610610f0a575060005b8015610ff2578086860311610f1e57508484035b604080516001830160051b81019182905294506000610f3c88610985565b905060008160400151610f4d575080515b60005b600019610f5b610c08565b14610f8957868a03610f7557610f6f610c08565b60010199505b610f7d610c08565b8a1115610f8957600091505b610f928a6110f8565b9250604083015160008114610faa5760009250610fcf565b835115610fb657835192505b8b831860601b610fcf576001820191508a8260051b8a01525b5060018a01995083604052888a1480610fe757508481145b15610f505787525050505b5050509392505050565b61057182826040518060200160405280600081525061119d565b604051630a85bd0160e11b81526000906001600160a01b0385169063150b7a029061104b903390899088908890600401611828565b6020604051808303816000875af1925050508015611086575060408051601f3d908101601f1916820190925261108391810190611865565b60015b6110db573d8080156110b4576040519150601f19603f3d011682016040523d82523d6000602084013e6110b9565b606091505b5080516000036110d3576110d36368d2bf6b60e11b610b4d565b805181602001fd5b6001600160e01b031916630a85bd0160e11b149050949350505050565b611100611352565b61048061110b610aa1565b60008481526004919091016020526040902054611211565b600061112d610aa1565b6000928352600401602052506040902054151590565b606060a06040510180604052602081039150506000815280825b600183039250600a81066030018353600a90048061115d5750819003601f19909101908152919050565b600160e01b81166001600160a01b039091161190565b6111a78383611255565b6001600160a01b0383163b156107805760006111c1610aa1565b5490508281035b6111db6000868380600101945086611016565b6111ef576111ef6368d2bf6b60e11b610b4d565b8181106111c857816111ff610aa1565b541461120a57600080fd5b5050505050565b611219611352565b6001600160a01b038216815267ffffffffffffffff60a083901c166020820152600160e01b82161515604082015260e89190911c606082015290565b600061125f610aa1565b549050600082900361127b5761127b63b562e8dd60e01b610b4d565b61128b836001841460e11b610d23565b611293610aa1565b600083815260049190910160205260409020556801000000000000000182026112ba610aa1565b6001600160a01b03851660008181526005929092016020526040822080549093019092558190036112f4576112f4622e076360e81b610b4d565b81830182611300610c08565b60018303111561131a5761131a6340b23f1d60e11b610b4d565b5b80836000600080516020611883833981519152600080a481816001019150810361131b5781611348610aa1565b5550610780915050565b60408051608081018252600080825260208201819052918101829052606081019190915290565b6001600160e01b03198116811461079057600080fd5b6000602082840312156113a157600080fd5b8135610a5d81611379565b60005b838110156113c75781810151838201526020016113af565b50506000910152565b600081518084526113e88160208601602086016113ac565b601f01601f19169290920160200192915050565b602081526000610a5d60208301846113d0565b60006020828403121561142157600080fd5b5035919050565b80356001600160a01b03811681146109d757600080fd5b6000806040838503121561145257600080fd5b61145b83611428565b946020939093013593505050565b60008060006060848603121561147e57600080fd5b61148784611428565b925061149560208501611428565b9150604084013590509250925092565b600080602083850312156114b857600080fd5b823567ffffffffffffffff808211156114d057600080fd5b818501915085601f8301126114e457600080fd5b8135818111156114f357600080fd5b8660208260051b850101111561150857600080fd5b60209290920196919550909350505050565b80516001600160a01b0316825260208082015167ffffffffffffffff169083015260408082015115159083015260609081015162ffffff16910152565b6020808252825182820181905260009190848201906040850190845b818110156115995761158683855161151a565b9284019260809290920191600101611573565b50909695505050505050565b6000602082840312156115b757600080fd5b610a5d82611428565b6020808252825182820181905260009190848201906040850190845b81811015611599578351835292840192918401916001016115dc565b60008060006060848603121561160d57600080fd5b61161684611428565b95602085013595506040909401359392505050565b6000806040838503121561163e57600080fd5b61164783611428565b91506020830135801515811461165c57600080fd5b809150509250929050565b634e487b7160e01b600052604160045260246000fd5b6000806000806080858703121561169357600080fd5b61169c85611428565b93506116aa60208601611428565b925060408501359150606085013567ffffffffffffffff808211156116ce57600080fd5b818701915087601f8301126116e257600080fd5b8135818111156116f4576116f4611667565b604051601f8201601f19908116603f0116810190838211818310171561171c5761171c611667565b816040528281528a602084870101111561173557600080fd5b82602086016020830137600060208483010152809550505050505092959194509250565b60808101610480828461151a565b6000806040838503121561177a57600080fd5b61178383611428565b915061179160208401611428565b90509250929050565b600181811c908216806117ae57607f821691505b6020821081036117ce57634e487b7160e01b600052602260045260246000fd5b50919050565b600083516117e68184602088016113ac565b8351908301906117fa8183602088016113ac565b01949350505050565b60008161182057634e487b7160e01b600052601160045260246000fd5b506000190190565b6001600160a01b038581168252841660208201526040810183905260806060820181905260009061185b908301846113d0565b9695505050505050565b60006020828403121561187757600080fd5b8151610a5d8161137956feddf252ad1be2c89b69c2b068fc378daa952ba7f163c4a11628f55a4df523b3efa26469706673582212202d80fe52352ba6f0f998b1953aecec08f15304df83a100e9745dcf9acee6918364736f6c63430008180033",
  "linkReferences": {},
  "deployedLinkReferences": {}
}