{"contracts/CraftedCollection.sol":{"CraftedCollection":{"abi":[{"inputs":[],"name":"AccessControlBadConfirmation","type":"error"},{"inputs":[{"internalType":"address","name":"account","type":"address"},{"internalType":"bytes32","name":"neededRole","type":"bytes32"}],"name":"AccessControlUnauthorizedAccount","type":"error"},{"inputs":[{"internalType":"address","name":"target","type":"address"}],"name":"AddressEmptyCode","type":"error"},{"inputs":[],"name":"ApprovalCallerNotOwnerNorApproved","type":"error"},{"inputs":[],"name":"ApprovalQueryForNonexistentToken","type":"error"},{"inputs":[],"name":"BalanceQueryForZeroAddress","type":"error"},{"inputs":[{"internalType":"address","name":"implementation","type":"address"}],"name":"ERC1967InvalidImplementation","type":"error"},{"inputs":[],"name":"ERC1967NonPayable","type":"error"},{"inputs":[{"internalType":"uint256","name":"numerator","type":"uint256"},{"internalType":"uint256","name":"denominator","type":"uint256"}],"name":"ERC2981InvalidDefaultRoyalty","type":"error"},{"inputs":[{"internalType":"address","name":"receiver","type":"address"}],"name":"ERC2981InvalidDefaultRoyaltyReceiver","type":"error"},{"inputs":[{"internalType":"uint256","name":"tokenId","type":"uint256"},{"internalType":"uint256","name":"numerator","type":"uint256"},{"internalType":"uint256","name":"denominator","type":"uint256"}],"name":"ERC2981InvalidTokenRoyalty","type":"error"},{"inputs":[{"internalType":"uint256","name":"tokenId","type":"uint256"},{"internalType":"address","name":"receiver","type":"address"}],"name":"ERC2981InvalidTokenRoyaltyReceiver","type":"error"},{"inputs":[],"name":"EnforcedPause","type":"error"},{"inputs":[],"name":"ExpectedPause","type":"error"},{"inputs":[],"name":"FailedCall","type":"error"},{"inputs":[],"name":"FallbackNotAllowed","type":"error"},{"inputs":[{"internalType":"uint256","name":"balance","type":"uint256"},{"internalType":"uint256","name":"needed","type":"uint256"}],"name":"InsufficientBalance","type":"error"},{"inputs":[],"name":"InsufficientPayment","type":"error"},{"inputs":[],"name":"InvalidInitialization","type":"error"},{"inputs":[],"name":"InvalidQueryRange","type":"error"},{"inputs":[],"name":"InvalidToken","type":"error"},{"inputs":[],"name":"MaxSupplyReached","type":"error"},{"inputs":[],"name":"MaxWalletLimit","type":"error"},{"inputs":[],"name":"MetadataIsFrozen","type":"error"},{"inputs":[],"name":"MintERC2309QuantityExceedsLimit","type":"error"},{"inputs":[],"name":"MintToZeroAddress","type":"error"},{"inputs":[],"name":"MintZeroQuantity","type":"error"},{"inputs":[],"name":"NotAuthorized","type":"error"},{"inputs":[],"name":"NotCompatibleWithSpotMints","type":"error"},{"inputs":[],"name":"NotInitializing","type":"error"},{"inputs":[],"name":"OwnerQueryForNonexistentToken","type":"error"},{"inputs":[],"name":"OwnershipNotInitializedForExtraData","type":"error"},{"inputs":[],"name":"ReentrancyGuardReentrantCall","type":"error"},{"inputs":[],"name":"SequentialMintExceedsLimit","type":"error"},{"inputs":[],"name":"SequentialUpToTooSmall","type":"error"},{"inputs":[],"name":"SpotMintTokenIdTooSmall","type":"error"},{"inputs":[],"name":"TokenAlreadyExists","type":"error"},{"inputs":[],"name":"TransferCallerNotOwnerNorApproved","type":"error"},{"inputs":[],"name":"TransferFromIncorrectOwner","type":"error"},{"inputs":[],"name":"TransferToNonERC721ReceiverImplementer","type":"error"},{"inputs":[],"name":"TransferToZeroAddress","type":"error"},{"inputs":[],"name":"URIQueryForNonexistentToken","type":"error"},{"inputs":[],"name":"UUPSUnauthorizedCallContext","type":"error"},{"inputs":[{"internalType":"bytes32","name":"slot","type":"bytes32"}],"name":"UUPSUnsupportedProxiableUUID","type":"error"},{"inputs":[],"name":"ZeroAddress","type":"error"},{"anonymous":false,"inputs":[{"indexed":true,"internalType":"address","name":"owner","type":"address"},{"indexed":true,"internalType":"address","name":"approved","type":"address"},{"indexed":true,"internalType":"uint256","name":"tokenId","type":"uint256"}],"name":"Approval","type":"event"},{"anonymous":false,"inputs":[{"indexed":true,"internalType":"address","name":"owner","type":"address"},{"indexed":true,"internalType":"address","name":"operator","type":"address"},{"indexed":false,"internalType":"bool","name":"approved","type":"bool"}],"name":"ApprovalForAll","type":"event"},{"anonymous":false,"inputs":[{"indexed":false,"internalType":"string","name":"baseURI","type":"string"}],"name":"BaseURISet","type":"event"},{"anonymous":false,"inputs":[{"indexed":false,"internalType":"string","name":"newName","type":"string"},{"indexed":false,"internalType":"string","name":"newSymbol","type":"string"}],"name":"CollectionDetailsUpdated","type":"event"},{"anonymous":false,"inputs":[{"indexed":true,"internalType":"uint256","name":"fromTokenId","type":"uint256"},{"indexed":false,"internalType":"uint256","name":"toTokenId","type":"uint256"},{"indexed":true,"internalType":"address","name":"from","type":"address"},{"indexed":true,"internalType":"address","name":"to","type":"address"}],"name":"ConsecutiveTransfer","type":"event"},{"anonymous":false,"inputs":[],"name":"CraftingInitialized","type":"event"},{"anonymous":false,"inputs":[{"indexed":false,"internalType":"uint64","name":"version","type":"uint64"}],"name":"Initialized","type":"event"},{"anonymous":false,"inputs":[{"indexed":false,"internalType":"uint256","name":"newLimit","type":"uint256"}],"name":"MaxWalletHoldingsUpdated","type":"event"},{"anonymous":false,"inputs":[{"indexed":true,"internalType":"uint256","name":"tokenId","type":"uint256"}],"name":"MetadataFrozen","type":"event"},{"anonymous":false,"inputs":[{"indexed":true,"internalType":"uint256","name":"tokenId","type":"uint256"},{"indexed":false,"internalType":"string","name":"metadataURI","type":"string"}],"name":"MetadataUpdated","type":"event"},{"anonymous":false,"inputs":[{"indexed":false,"internalType":"uint256","name":"newPrice","type":"uint256"}],"name":"MintPriceUpdated","type":"event"},{"anonymous":false,"inputs":[{"indexed":true,"internalType":"address","name":"to","type":"address"},{"indexed":false,"internalType":"uint256","name":"quantity","type":"uint256"}],"name":"Minted","type":"event"},{"anonymous":false,"inputs":[{"indexed":false,"internalType":"address","name":"account","type":"address"}],"name":"Paused","type":"event"},{"anonymous":false,"inputs":[{"indexed":true,"internalType":"address","name":"sender","type":"address"},{"indexed":false,"internalType":"uint256","name":"amount","type":"uint256"}],"name":"Received","type":"event"},{"anonymous":false,"inputs":[{"indexed":true,"internalType":"bytes32","name":"role","type":"bytes32"},{"indexed":true,"internalType":"bytes32","name":"previousAdminRole","type":"bytes32"},{"indexed":true,"internalType":"bytes32","name":"newAdminRole","type":"bytes32"}],"name":"RoleAdminChanged","type":"event"},{"anonymous":false,"inputs":[{"indexed":true,"internalType":"bytes32","name":"role","type":"bytes32"},{"indexed":true,"internalType":"address","name":"account","type":"address"},{"indexed":true,"internalType":"address","name":"sender","type":"address"}],"name":"RoleGranted","type":"event"},{"anonymous":false,"inputs":[{"indexed":true,"internalType":"bytes32","name":"role","type":"bytes32"},{"indexed":true,"internalType":"address","name":"account","type":"address"},{"indexed":true,"internalType":"address","name":"sender","type":"address"}],"name":"RoleRevoked","type":"event"},{"anonymous":false,"inputs":[{"indexed":true,"internalType":"uint256","name":"tokenId","type":"uint256"},{"components":[{"internalType":"string","name":"code","type":"string"},{"internalType":"string","name":"artVersion","type":"string"},{"internalType":"string","name":"metadataURI","type":"string"},{"internalType":"uint256","name":"level","type":"uint256"},{"internalType":"uint256","name":"power","type":"uint256"},{"internalType":"uint256","name":"rarity","type":"uint256"}],"indexed":false,"internalType":"struct CraftedCollection.Traits","name":"traits","type":"tuple"}],"name":"TraitsUpdated","type":"event"},{"anonymous":false,"inputs":[{"indexed":true,"internalType":"address","name":"from","type":"address"},{"indexed":true,"internalType":"address","name":"to","type":"address"},{"indexed":true,"internalType":"uint256","name":"tokenId","type":"uint256"}],"name":"Transfer","type":"event"},{"anonymous":false,"inputs":[{"indexed":false,"internalType":"address","name":"account","type":"address"}],"name":"Unpaused","type":"event"},{"anonymous":false,"inputs":[{"indexed":true,"internalType":"address","name":"implementation","type":"address"}],"name":"Upgraded","type":"event"},{"anonymous":false,"inputs":[{"indexed":true,"internalType":"address","name":"recipient","type":"address"},{"indexed":false,"internalType":"uint256","name":"amount","type":"uint256"}],"name":"Withdraw","type":"event"},{"stateMutability":"payable","type":"fallback"},{"inputs":[],"name":"ADMIN_ROLE","outputs":[{"internalType":"bytes32","name":"","type":"bytes32"}],"stateMutability":"view","type":"function"},{"inputs":[],"name":"CRAFTER_ROLE","outputs":[{"internalType":"bytes32","name":"","type":"bytes32"}],"stateMutability":"view","type":"function"},{"inputs":[],"name":"DEFAULT_ADMIN_ROLE","outputs":[{"internalType":"bytes32","name":"","type":"bytes32"}],"stateMutability":"view","type":"function"},{"inputs":[],"name":"MAX_SUPPLY","outputs":[{"internalType":"uint256","name":"","type":"uint256"}],"stateMutability":"view","type":"function"},{"inputs":[],"name":"UPGRADE_INTERFACE_VERSION","outputs":[{"internalType":"string","name":"","type":"string"}],"stateMutability":"view","type":"function"},{"inputs":[{"internalType":"address","name":"to","type":"address"},{"internalType":"uint256","name":"quantity","type":"uint256"}],"name":"adminMint","outputs":[],"stateMutability":"nonpayable","type":"function"},{"inputs":[{"internalType":"address","name":"to","type":"address"},{"internalType":"uint256","name":"tokenId","type":"uint256"}],"name":"approve","outputs":[],"stateMutability":"payable","type":"function"},{"inputs":[{"internalType":"address","name":"owner","type":"address"}],"name":"balanceOf","outputs":[{"internalType":"uint256","name":"","type":"uint256"}],"stateMutability":"view","type":"function"},{"inputs":[{"internalType":"uint256","name":"tokenId","type":"uint256"}],"name":"explicitOwnershipOf","outputs":[{"components":[{"internalType":"address","name":"addr","type":"address"},{"internalType":"uint64","name":"startTimestamp","type":"uint64"},{"internalType":"bool","name":"burned","type":"bool"},{"internalType":"uint24","name":"extraData","type":"uint24"}],"internalType":"struct IERC721AUpgradeable.TokenOwnership","name":"ownership","type":"tuple"}],"stateMutability":"view","type":"function"},{"inputs":[{"internalType":"uint256[]","name":"tokenIds","type":"uint256[]"}],"name":"explicitOwnershipsOf","outputs":[{"components":[{"internalType":"address","name":"addr","type":"address"},{"internalType":"uint64","name":"startTimestamp","type":"uint64"},{"internalType":"bool","name":"burned","type":"bool"},{"internalType":"uint24","name":"extraData","type":"uint24"}],"internalType":"struct IERC721AUpgradeable.TokenOwnership[]","name":"","type":"tuple[]"}],"stateMutability":"view","type":"function"},{"inputs":[{"internalType":"uint256","name":"tokenId","type":"uint256"}],"name":"freezeMetadata","outputs":[],"stateMutability":"nonpayable","type":"function"},{"inputs":[{"internalType":"uint256","name":"tokenId","type":"uint256"}],"name":"getApproved","outputs":[{"internalType":"address","name":"","type":"address"}],"stateMutability":"view","type":"function"},{"inputs":[{"internalType":"bytes32","name":"role","type":"bytes32"}],"name":"getRoleAdmin","outputs":[{"internalType":"bytes32","name":"","type":"bytes32"}],"stateMutability":"view","type":"function"},{"inputs":[{"internalType":"uint256","name":"tokenId","type":"uint256"}],"name":"getTraits","outputs":[{"components":[{"internalType":"string","name":"code","type":"string"},{"internalType":"string","name":"artVersion","type":"string"},{"internalType":"string","name":"metadataURI","type":"string"},{"internalType":"uint256","name":"level","type":"uint256"},{"internalType":"uint256","name":"power","type":"uint256"},{"internalType":"uint256","name":"rarity","type":"uint256"}],"internalType":"struct CraftedCollection.Traits","name":"","type":"tuple"}],"stateMutability":"view","type":"function"},{"inputs":[{"internalType":"bytes32","name":"role","type":"bytes32"},{"internalType":"address","name":"account","type":"address"}],"name":"grantRole","outputs":[],"stateMutability":"nonpayable","type":"function"},{"inputs":[{"internalType":"bytes32","name":"role","type":"bytes32"},{"internalType":"address","name":"account","type":"address"}],"name":"hasRole","outputs":[{"internalType":"bool","name":"","type":"bool"}],"stateMutability":"view","type":"function"},{"inputs":[{"internalType":"string","name":"name_","type":"string"},{"internalType":"string","name":"symbol_","type":"string"}],"name":"initialize","outputs":[],"stateMutability":"nonpayable","type":"function"},{"inputs":[{"internalType":"address","name":"owner","type":"address"},{"internalType":"address","name":"operator","type":"address"}],"name":"isApprovedForAll","outputs":[{"internalType":"bool","name":"","type":"bool"}],"stateMutability":"view","type":"function"},{"inputs":[],"name":"maxWalletHoldings","outputs":[{"internalType":"uint256","name":"","type":"uint256"}],"stateMutability":"view","type":"function"},{"inputs":[],"name":"mintPrice","outputs":[{"internalType":"uint256","name":"","type":"uint256"}],"stateMutability":"view","type":"function"},{"inputs":[],"name":"name","outputs":[{"internalType":"string","name":"","type":"string"}],"stateMutability":"view","type":"function"},{"inputs":[{"internalType":"uint256","name":"tokenId","type":"uint256"}],"name":"ownerOf","outputs":[{"internalType":"address","name":"","type":"address"}],"stateMutability":"view","type":"function"},{"inputs":[],"name":"pause","outputs":[],"stateMutability":"nonpayable","type":"function"},{"inputs":[],"name":"paused","outputs":[{"internalType":"bool","name":"","type":"bool"}],"stateMutability":"view","type":"function"},{"inputs":[],"name":"proxiableUUID","outputs":[{"internalType":"bytes32","name":"","type":"bytes32"}],"stateMutability":"view","type":"function"},{"inputs":[{"internalType":"uint256","name":"quantity","type":"uint256"}],"name":"publicMint","outputs":[],"stateMutability":"payable","type":"function"},{"inputs":[{"internalType":"bytes32","name":"role","type":"bytes32"},{"internalType":"address","name":"callerConfirmation","type":"address"}],"name":"renounceRole","outputs":[],"stateMutability":"nonpayable","type":"function"},{"inputs":[{"internalType":"bytes32","name":"role","type":"bytes32"},{"internalType":"address","name":"account","type":"address"}],"name":"revokeRole","outputs":[],"stateMutability":"nonpayable","type":"function"},{"inputs":[{"internalType":"uint256","name":"tokenId","type":"uint256"},{"internalType":"uint256","name":"salePrice","type":"uint256"}],"name":"royaltyInfo","outputs":[{"internalType":"address","name":"receiver","type":"address"},{"internalType":"uint256","name":"amount","type":"uint256"}],"stateMutability":"view","type":"function"},{"inputs":[{"internalType":"address","name":"from","type":"address"},{"internalType":"address","name":"to","type":"address"},{"internalType":"uint256","name":"tokenId","type":"uint256"}],"name":"safeTransferFrom","outputs":[],"stateMutability":"payable","type":"function"},{"inputs":[{"internalType":"address","name":"from","type":"address"},{"internalType":"address","name":"to","type":"address"},{"internalType":"uint256","name":"tokenId","type":"uint256"},{"internalType":"bytes","name":"_data","type":"bytes"}],"name":"safeTransferFrom","outputs":[],"stateMutability":"payable","type":"function"},{"inputs":[{"internalType":"address","name":"operator","type":"address"},{"internalType":"bool","name":"approved","type":"bool"}],"name":"setApprovalForAll","outputs":[],"stateMutability":"nonpayable","type":"function"},{"inputs":[{"internalType":"string","name":"baseURI","type":"string"}],"name":"setBaseURI","outputs":[],"stateMutability":"nonpayable","type":"function"},{"inputs":[{"internalType":"string","name":"newName","type":"string"},{"internalType":"string","name":"newSymbol","type":"string"}],"name":"setCollectionDetails","outputs":[],"stateMutability":"nonpayable","type":"function"},{"inputs":[{"internalType":"uint256","name":"newLimit","type":"uint256"}],"name":"setMaxWalletHoldings","outputs":[],"stateMutability":"nonpayable","type":"function"},{"inputs":[{"internalType":"uint256","name":"newPrice","type":"uint256"}],"name":"setMintPrice","outputs":[],"stateMutability":"nonpayable","type":"function"},{"inputs":[{"internalType":"address","name":"receiver","type":"address"},{"internalType":"uint96","name":"feeNumerator","type":"uint96"}],"name":"setRoyaltyInfo","outputs":[],"stateMutability":"nonpayable","type":"function"},{"inputs":[{"internalType":"bytes4","name":"interfaceId","type":"bytes4"}],"name":"supportsInterface","outputs":[{"internalType":"bool","name":"","type":"bool"}],"stateMutability":"view","type":"function"},{"inputs":[],"name":"symbol","outputs":[{"internalType":"string","name":"","type":"string"}],"stateMutability":"view","type":"function"},{"inputs":[{"internalType":"uint256","name":"tokenId","type":"uint256"}],"name":"tokenURI","outputs":[{"internalType":"string","name":"","type":"string"}],"stateMutability":"view","type":"function"},{"inputs":[{"internalType":"address","name":"owner","type":"address"}],"name":"tokensOfOwner","outputs":[{"internalType":"uint256[]","name":"","type":"uint256[]"}],"stateMutability":"view","type":"function"},{"inputs":[{"internalType":"address","name":"owner","type":"address"},{"internalType":"uint256","name":"start","type":"uint256"},{"internalType":"uint256","name":"stop","type":"uint256"}],"name":"tokensOfOwnerIn","outputs":[{"internalType":"uint256[]","name":"","type":"uint256[]"}],"stateMutability":"view","type":"function"},{"inputs":[],"name":"totalSupply","outputs":[{"internalType":"uint256","name":"result","type":"uint256"}],"stateMutability":"view","type":"function"},{"inputs":[{"internalType":"address","name":"from","type":"address"},{"internalType":"address","name":"to","type":"address"},{"internalType":"uint256","name":"tokenId","type":"uint256"}],"name":"transferFrom","outputs":[],"stateMutability":"payable","type":"function"},{"inputs":[],"name":"unpause","outputs":[],"stateMutability":"nonpayable","type":"function"},{"inputs":[{"internalType":"uint256","name":"tokenId","type":"uint256"},{"internalType":"string","name":"newURI","type":"string"}],"name":"updateMetadata","outputs":[],"stateMutability":"nonpayable","type":"function"},{"inputs":[{"internalType":"uint256","name":"tokenId","type":"uint256"},{"components":[{"internalType":"string","name":"code","type":"string"},{"internalType":"string","name":"artVersion","type":"string"},{"internalType":"string","name":"metadataURI","type":"string"},{"internalType":"uint256","name":"level","type":"uint256"},{"internalType":"uint256","name":"power","type":"uint256"},{"internalType":"uint256","name":"rarity","type":"uint256"}],"internalType":"struct CraftedCollection.Traits","name":"newTraits","type":"tuple"}],"name":"updateTraits","outputs":[],"stateMutability":"nonpayable","type":"function"},{"inputs":[{"internalType":"address","name":"newImplementation","type":"address"},{"internalType":"bytes","name":"data","type":"bytes"}],"name":"upgradeToAndCall","outputs":[],"stateMutability":"payable","type":"function"},{"inputs":[{"internalType":"address payable","name":"recipient","type":"address"}],"name":"withdraw","outputs":[],"stateMutability":"nonpayable","type":"function"},{"stateMutability":"payable","type":"receive"}],"evm":{"bytecode":{"linkReferences":{},"object":"60a06040523060805234801561001457600080fd5b50608051613e2161003e600039600081816123710152818161239a01526125720152613e216000f3fe6080604052600436106102a25760003560e01c80635bbb217711610165578063a217fddf116100cc578063c23dc68f11610085578063c23dc68f14610800578063c87b56dd1461082d578063d547741f1461084d578063e1dc07611461086d578063e58306f91461089a578063e985e9c5146108ba578063f4a0a528146108da576102de565b8063a217fddf14610751578063a22cb46514610766578063ad3cb1cc14610786578063b7ea78b5146107b7578063b88d4fde146107cd578063c1380e29146107e0576102de565b80638456cb591161011e5780638456cb591461069a5780638462151c146106af57806391d14854146106dc57806395d89b41146106fc57806399061beb1461071157806399a2557a14610731576102de565b80635bbb2177146105e05780635c975abb1461060d5780636352211e146106225780636817c76c1461064257806370a082311461065857806375b238fc14610678576102de565b8063338cab93116102095780634f1ef286116101c25780634f1ef286146105385780635008d9281461054b57806351cff8d91461056b57806352d1902d1461058b57806353c8388e146105a057806355f804b3146105c0576102de565b8063338cab931461048e57806336568abe146104b05780633f4ba83a146104d057806342842e0e146104e55780634cd88b76146104f85780634dcf6ad614610518576102de565b806323b872dd1161025b57806323b872dd146103d3578063248a9ca3146103e65780632a55205a146104065780632db11544146104455780632f2ff15d1461045857806332cb6b0c14610478576102de565b806301ffc9a7146102f757806302fa7c471461032c57806306fdde031461034e578063081812fc14610370578063095ea7b31461039d57806318160ddd146103b0576102de565b366102de5760405134815233907f88a5966d370b9919b20f3e2c13ff65706f196a4e32cc2c12bf57088f885258749060200160405180910390a2005b604051630deab4c360e41b815260040160405180910390fd5b34801561030357600080fd5b50610317610312366004612f6a565b6108fa565b60405190151581526020015b60405180910390f35b34801561033857600080fd5b5061034c610347366004612f9c565b61090b565b005b34801561035a57600080fd5b50610363610959565b6040516103239190613031565b34801561037c57600080fd5b5061039061038b366004613044565b6109eb565b604051610323919061305d565b61034c6103ab366004613071565b610a2f565b3480156103bc57600080fd5b506103c5610a3f565b604051908152602001610323565b61034c6103e136600461309d565b610a7c565b3480156103f257600080fd5b506103c5610401366004613044565b610c4c565b34801561041257600080fd5b506104266104213660046130de565b610c6c565b604080516001600160a01b039093168352602083019190915201610323565b61034c610453366004613044565b610d33565b34801561046457600080fd5b5061034c610473366004613100565b610e47565b34801561048457600080fd5b506103c561037881565b34801561049a57600080fd5b506103c5600080516020613d8c83398151915281565b3480156104bc57600080fd5b5061034c6104cb366004613100565b610e69565b3480156104dc57600080fd5b5061034c610e9c565b61034c6104f336600461309d565b610ebc565b34801561050457600080fd5b5061034c6105133660046131c7565b610ed7565b34801561052457600080fd5b5061034c610533366004613044565b6111b1565b61034c61054636600461322a565b611233565b34801561055757600080fd5b5061034c6105663660046132b0565b61124e565b34801561057757600080fd5b5061034c61058636600461331b565b6112c6565b34801561059757600080fd5b506103c561136d565b3480156105ac57600080fd5b5061034c6105bb366004613338565b61138a565b3480156105cc57600080fd5b5061034c6105db366004613383565b611455565b3480156105ec57600080fd5b506106006105fb3660046133c4565b6114b9565b6040516103239190613474565b34801561061957600080fd5b50610317611505565b34801561062e57600080fd5b5061039061063d366004613044565b61151a565b34801561064e57600080fd5b506103c560005481565b34801561066457600080fd5b506103c561067336600461331b565b611525565b34801561068457600080fd5b506103c5600080516020613dcc83398151915281565b3480156106a657600080fd5b5061034c611584565b3480156106bb57600080fd5b506106cf6106ca36600461331b565b6115a4565b60405161032391906134c2565b3480156106e857600080fd5b506103176106f7366004613100565b6115f2565b34801561070857600080fd5b50610363611628565b34801561071d57600080fd5b5061034c61072c366004613044565b611637565b34801561073d57600080fd5b506106cf61074c3660046134fa565b61168c565b34801561075d57600080fd5b506103c5600081565b34801561077257600080fd5b5061034c61078136600461352f565b6116a3565b34801561079257600080fd5b50610363604051806040016040528060058152602001640352e302e360dc1b81525081565b3480156107c357600080fd5b506103c560015481565b61034c6107db366004613562565b611720565b3480156107ec57600080fd5b5061034c6107fb3660046135cd565b61175b565b34801561080c57600080fd5b5061082061081b366004613044565b611823565b604051610323919061360f565b34801561083957600080fd5b50610363610848366004613044565b61187a565b34801561085957600080fd5b5061034c610868366004613100565b6118d4565b34801561087957600080fd5b5061088d610888366004613044565b6118f0565b604051610323919061361d565b3480156108a657600080fd5b5061034c6108b5366004613071565b611b42565b3480156108c657600080fd5b506103176108d53660046136a0565b611c1c565b3480156108e657600080fd5b5061034c6108f5366004613044565b611c59565b600061090582611ca6565b92915050565b600080516020613dcc83398151915261092381611ccb565b6001600160a01b03831661094a5760405163d92e233d60e01b815260040160405180910390fd5b6109548383611cd5565b505050565b606060038054610968906136ce565b80601f0160208091040260200160405190810160405280929190818152602001828054610994906136ce565b80156109e15780601f106109b6576101008083540402835291602001916109e1565b820191906000526020600020905b8154815290600101906020018083116109c457829003601f168201915b5050505050905090565b60006109f682611d98565b610a0a57610a0a6333d1c03960e21b611e20565b610a12611e2a565b60009283526006016020525060409020546001600160a01b031690565b610a3b82826001611e4e565b5050565b600080610a4a611e2a565b60010154610a56611e2a565b5403039050600019610a66611eff565b14610a7957610a73611e2a565b60080154015b90565b6000610a8782611f05565b6001600160a01b039485169490915081168414610aad57610aad62a1148160e81b611e20565b600080610ab984611ff2565b91509150610ade8187610ac93390565b6001600160a01b039081169116811491141790565b610b0057610aec8633611c1c565b610b0057610b00632ce44b5f60e11b611e20565b610b0d868686600161201a565b8015610b1857600082555b610b20611e2a565b6001600160a01b0387166000908152600591909101602052604090208054600019019055610b4c611e2a565b6001600160a01b03861660008181526005929092016020526040909120805460010190554260a01b17600160e11b17610b83611e2a565b60008681526004919091016020526040812091909155600160e11b84169003610bf95760018401610bb2611e2a565b600082815260049190910160205260408120549003610bf757610bd3611e2a565b548114610bf75783610be3611e2a565b600083815260049190910160205260409020555b505b6001600160a01b0385168481887fddf252ad1be2c89b69c2b068fc378daa952ba7f163c4a11628f55a4df523b3ef600080a480600003610c4357610c43633a954ecd60e21b611e20565b50505050505050565b600080610c57612084565b60009384526020525050604090206001015490565b60008281527fdaedc9ab023613a7caf35e703657e986ccfad7e3eb0af93a2853f8d65dd86b0160205260408120805482917fdaedc9ab023613a7caf35e703657e986ccfad7e3eb0af93a2853f8d65dd86b00916001600160a01b03811690600160a01b90046001600160601b031681610cff57505081546001600160a01b03811690600160a01b90046001600160601b03165b6000612710610d176001600160601b0384168a61371e565b610d219190613735565b929650919450505050505b9250929050565b610d3b6120a8565b610d436120d0565b80600003610d645760405163c1ab6dc160e01b815260040160405180910390fd5b61037881610d70610a3f565b610d7a9190613757565b1115610d995760405163d05cb60960e01b815260040160405180910390fd5b80600054610da7919061371e565b341015610dc75760405163cd1c886760e01b815260040160405180910390fd5b60015481610dd433611525565b610dde9190613757565b1115610dfd57604051633349019160e01b815260040160405180910390fd5b610e07338261211a565b60405181815233907f30385c845b448a36257a6a1716e6ad2e1bc2cbe333cde1e69fe849ad6511adfe9060200160405180910390a2610e44612134565b50565b610e5082610c4c565b610e5981611ccb565b610e63838361215a565b50505050565b6001600160a01b0381163314610e925760405163334bd91960e11b815260040160405180910390fd5b61095482826121fb565b600080516020613dcc833981519152610eb481611ccb565b610e44612273565b61095483838360405180602001604052806000815250611720565b610edf6122ca565b54610100900460ff16610efe57610ef46122ca565b5460ff1615610f02565b303b155b610f735760405162461bcd60e51b815260206004820152603760248201527f455243373231415f5f496e697469616c697a61626c653a20636f6e7472616374604482015276081a5cc8185b1c9958591e481a5b9a5d1a585b1a5e9959604a1b60648201526084015b60405180910390fd5b6000610f7d6122ca565b54610100900460ff161590508015610fc9576001610f996122ca565b80549115156101000261ff00199092169190911790556001610fb96122ca565b805460ff19169115159190911790555b6000610fd36122ee565b805490915060ff600160401b82041615906001600160401b0316600081158015610ffa5750825b90506000826001600160401b031660011480156110165750303b155b905081158015611024575080155b156110425760405163f92ee8a960e01b815260040160405180910390fd5b845467ffffffffffffffff19166001178555831561106c57845460ff60401b1916600160401b1785555b6110768888612317565b61107e61234e565b61108661234e565b61108e612356565b61109661234e565b61109e61234e565b60036110aa89826137cf565b5060046110b788826137cf565b506110c360003361215a565b506110dc600080516020613dcc8339815191523361215a565b506110f5600080516020613d8c8339815191523361215a565b50666a94d74f4300006000556003600155611112336101f4611cd5565b6040517fe3d77c0c81a47993ce8e388adc64fe0dc88bd28fbf57cbdf333006b59ad82a0a90600090a1831561118157845460ff60401b19168555604051600181527fc7f505b2f371ae2175ee4913f4499e1f2633a7b5936321eed1cdaeb6115181d29060200160405180910390a15b505050505080156109545760006111966122ca565b80549115156101000261ff0019909216919091179055505050565b600080516020613dcc8339815191526111c981611ccb565b6111d282611d98565b6111ef5760405163c1ab6dc160e01b815260040160405180910390fd5b600082815260066020526040808220805460ff191660011790555183917f7c9bd91d0ccee585f666998e287e929bf935cedec1348f7afc4591eca690b90a91a25050565b61123b612366565b6112448261240b565b610a3b8282612423565b600080516020613dcc83398151915261126681611ccb565b6003611273858783613888565b506004611281838583613888565b507f34f654c72931b372326f31362be64bc58e08a0e8cd6b08e17ab5c260e0dceb1a858585856040516112b7949392919061396a565b60405180910390a15050505050565b600080516020613dcc8339815191526112de81611ccb565b6112e66120d0565b6001600160a01b03821661130d5760405163d92e233d60e01b815260040160405180910390fd5b476113216001600160a01b038416826124d7565b826001600160a01b03167f884edad9ce6fa2440d8a54cc123490eb96d2768479d49ff9c7366125a94243648260405161135c91815260200190565b60405180910390a250610a3b612134565b6000611377612567565b50600080516020613dac83398151915290565b600080516020613d8c8339815191526113a281611ccb565b6113ab84611d98565b6113c85760405163c1ab6dc160e01b815260040160405180910390fd5b60008481526006602052604090205460ff16156113f85760405163b087bbf360e01b815260040160405180910390fd5b6000848152600560205260409020600201611414838583613888565b50837f459157ba24c7ab9878b165ef465fa6ae2ab42bcd8445f576be378768b0c47309848460405161144792919061399c565b60405180910390a250505050565b600080516020613dcc83398151915261146d81611ccb565b600261147a838583613888565b507ff9c7803e94e0d3c02900d8a90893a6d5e90dd04d32a4cfe825520f82bf9f32f683836040516114ac92919061399c565b60405180910390a1505050565b60408051828152600583901b8082016020019092526060915b80156114fd57601f19808201918601013560006114ee82611823565b84840160200152506114d29050565b509392505050565b6000806115106125b0565b5460ff1692915050565b600061090582611f05565b60006001600160a01b038216611545576115456323d3ad8160e21b611e20565b6001600160401b03611555611e2a565b6005016000846001600160a01b03166001600160a01b0316815260200190815260200160002054169050919050565b600080516020613dcc83398151915261159c81611ccb565b610e446125d4565b60606000196115b1611eff565b146115c6576115c663bdba09d760e01b611e20565b6000806115d161261b565b905060608183146115ea576115e785848461262b565b90505b949350505050565b6000806115fd612084565b6000948552602090815260408086206001600160a01b03959095168652939052505090205460ff1690565b606060048054610968906136ce565b600080516020613dcc83398151915261164f81611ccb565b60018290556040518281527f5a608a926cbc5e51dd142232855af48a512e7b6c9b23bf9ba9475f58fe108b7e906020015b60405180910390a15050565b606061169984848461262b565b90505b9392505050565b806116ac611e2a565b336000818152600792909201602090815260408084206001600160a01b03881680865290835293819020805460ff19169515159590951790945592518415158152919290917f17307eab39ab6107e8899845ad3d59bd9653f200f220920489ca2b5937696c31910160405180910390a35050565b61172b848484610a7c565b6001600160a01b0383163b15610e635761174784848484612781565b610e6357610e636368d2bf6b60e11b611e20565b600080516020613d8c83398151915261177381611ccb565b61177c83611d98565b6117995760405163c1ab6dc160e01b815260040160405180910390fd5b60008381526006602052604090205460ff16156117c95760405163b087bbf360e01b815260040160405180910390fd5b600083815260056020526040902082906117e382826139f6565b905050827fcb51969318cee471d3abc5ee4d81ea83e4748e5063261189cbf68810b17066cf836040516118169190613b58565b60405180910390a2505050565b61182b612f2d565b611833611eff565b8211156118435761090582612863565b61184b61261b565b821015611875575b61185c8261288e565b61186c5760001990910190611853565b61090582612863565b919050565b606061188582611d98565b6118a25760405163c1ab6dc160e01b815260040160405180910390fd5b60026118ad836128ae565b6040516020016118be929190613bfa565b6040516020818303038152906040529050919050565b6118dd82610c4c565b6118e681611ccb565b610e6383836121fb565b6119296040518060c001604052806060815260200160608152602001606081526020016000815260200160008152602001600081525090565b61193282611d98565b61194f5760405163c1ab6dc160e01b815260040160405180910390fd5b60008281526005602052604090819020815160c08101909252805482908290611977906136ce565b80601f01602080910402602001604051908101604052809291908181526020018280546119a3906136ce565b80156119f05780601f106119c5576101008083540402835291602001916119f0565b820191906000526020600020905b8154815290600101906020018083116119d357829003601f168201915b50505050508152602001600182018054611a09906136ce565b80601f0160208091040260200160405190810160405280929190818152602001828054611a35906136ce565b8015611a825780601f10611a5757610100808354040283529160200191611a82565b820191906000526020600020905b815481529060010190602001808311611a6557829003601f168201915b50505050508152602001600282018054611a9b906136ce565b80601f0160208091040260200160405190810160405280929190818152602001828054611ac7906136ce565b8015611b145780601f10611ae957610100808354040283529160200191611b14565b820191906000526020600020905b815481529060010190602001808311611af757829003601f168201915b5050505050815260200160038201548152602001600482015481526020016005820154815250509050919050565b600080516020613dcc833981519152611b5a81611ccb565b6001600160a01b038316611b815760405163d92e233d60e01b815260040160405180910390fd5b81600003611ba25760405163c1ab6dc160e01b815260040160405180910390fd5b61037882611bae610a3f565b611bb89190613757565b1115611bd75760405163d05cb60960e01b815260040160405180910390fd5b611be1838361211a565b826001600160a01b03167f30385c845b448a36257a6a1716e6ad2e1bc2cbe333cde1e69fe849ad6511adfe8360405161181691815260200190565b6000611c26611e2a565b6001600160a01b039384166000908152600791909101602090815260408083209490951682529290925250205460ff1690565b600080516020613dcc833981519152611c7181611ccb565b60008290556040518281527f525b762709cc2a983aec5ccdfd807a061f993c91090b5bcd7da92ca254976aaa90602001611680565b60006001600160e01b0319821663152a902d60e11b1480610905575061090582612940565b610e448133612975565b7fdaedc9ab023613a7caf35e703657e986ccfad7e3eb0af93a2853f8d65dd86b006127106001600160601b038316811015611d3557604051636f483d0960e01b81526001600160601b038416600482015260248101829052604401610f6a565b6001600160a01b038416611d5f576000604051635b6cc80560e11b8152600401610f6a919061305d565b50604080518082019091526001600160a01b039093168084526001600160601b039092166020909301839052600160a01b909202179055565b6000611da2611eff565b821115611dcc57610905611db4611e2a565b600084815260049190910160205260409020546129ae565b611dd4611e2a565b548210156118755760005b611de7611e2a565b600084815260049190910160205260408120549150819003611e1357611e0c83613c91565b9250611ddf565b600160e01b161592915050565b8060005260046000fd5b7f2569078dfb4b0305704d3008e7403993ae9601b85f7ae5e742de3de8f8011c4090565b6000611e598361151a565b9050818015611e715750336001600160a01b03821614155b15611e9457611e808133611c1c565b611e9457611e946367d9dca160e11b611e20565b83611e9d611e2a565b6000858152600691909101602052604080822080546001600160a01b0319166001600160a01b0394851617905551859287811692908516917f8c5be1e5ebec7d5bd14f71427d1e84f3dd0314c0f7b2291e5b200ac8c7c3b9259190a450505050565b60001990565b6000611f0f611e2a565b600083815260049190910160205260409020549050611f2c611eff565b821115611f5657611f3c816129ae565b15611f4657919050565b611f56636f96cda160e11b611e20565b80600003611fcf57611f66611e2a565b548210611f7d57611f7d636f96cda160e11b611e20565b611f85611e2a565b600019909201600081815260049390930160205260409092205490508015611f7d57600160e01b8116600003611fba57919050565b611fca636f96cda160e11b611e20565b611f7d565b600160e01b8116600003611fe257919050565b611875636f96cda160e11b611e20565b6000806000611fff611e2a565b60009485526006016020525050604090912080549092909150565b6001600160a01b038316158015906120445750836001600160a01b0316836001600160a01b031614155b1561207f576001548161205685611525565b6120609190613757565b111561207f57604051633349019160e01b815260040160405180910390fd5b610e63565b7f02dd7bc7dec4dceedda775e58dd541e08a116c6c53815c0bd028192f7b62680090565b6120b0611505565b156120ce5760405163d93c066560e01b815260040160405180910390fd5b565b7f9b779b17422d0df92223018b32b4d1fa46e071723d6817e2486d003becc55f0080546001190161211457604051633ee5aeb560e01b815260040160405180910390fd5b60029055565b610a3b8282604051806020016040528060008152506129c4565b60017f9b779b17422d0df92223018b32b4d1fa46e071723d6817e2486d003becc55f0055565b600080612165612084565b905061217184846115f2565b6121f1576000848152602082815260408083206001600160a01b03871684529091529020805460ff191660011790556121a73390565b6001600160a01b0316836001600160a01b0316857f2f8788117e7eff1d82e926ec794901d17c78024a50270940304540a733656f0d60405160405180910390a46001915050610905565b6000915050610905565b600080612206612084565b905061221284846115f2565b156121f1576000848152602082815260408083206001600160a01b0387168085529252808320805460ff1916905551339287917ff6391f5c32d9c69d2a47ea670b442974b53935d1edc7fd64eb21e047a839171b9190a46001915050610905565b61227b612a38565b60006122856125b0565b805460ff1916815590507f5db9ee0a495bf2e6ff9c91a7834c1ba4fdd244a5e8aa4e537bd38aeae4b073aa335b6040516122bf919061305d565b60405180910390a150565b7fee151c8401928dc223602bb187aff91b9a56c7cae5476ef1b3287b085a16c85f90565b6000807ff0c57e16840df040f15088dc2f81fe391c3923bec73e23a9662efc9c229c6a00610905565b61231f6122ca565b54610100900460ff166123445760405162461bcd60e51b8152600401610f6a90613ca8565b610a3b8282612a5d565b6120ce612ae5565b61235e612ae5565b6120ce612b0a565b306001600160a01b037f00000000000000000000000000000000000000000000000000000000000000001614806123ed57507f00000000000000000000000000000000000000000000000000000000000000006001600160a01b03166123e1600080516020613dac833981519152546001600160a01b031690565b6001600160a01b031614155b156120ce5760405163703e46dd60e11b815260040160405180910390fd5b600080516020613dcc833981519152610a3b81611ccb565b816001600160a01b03166352d1902d6040518163ffffffff1660e01b8152600401602060405180830381865afa92505050801561247d575060408051601f3d908101601f1916820190925261247a91810190613cfc565b60015b61249c5781604051634c9c8ce360e01b8152600401610f6a919061305d565b600080516020613dac83398151915281146124cd57604051632a87526960e21b815260048101829052602401610f6a565b6109548383612b12565b804710156125015760405163cf47918160e01b815247600482015260248101829052604401610f6a565b600080836001600160a01b03168360405160006040518083038185875af1925050503d806000811461254f576040519150601f19603f3d011682016040523d82523d6000602084013e612554565b606091505b509150915081610e6357610e6381612b68565b306001600160a01b037f000000000000000000000000000000000000000000000000000000000000000016146120ce5760405163703e46dd60e11b815260040160405180910390fd5b7fcd5ed15c6e187e77e9aee88184c21f4f2182ab5827cb3b7e07fbedcd63f0330090565b6125dc6120a8565b60006125e66125b0565b805460ff1916600117815590507f62e78cea01bee320cd4e420270b5ea74000d11b0c9f74754ebdbfc544b05a2586122b23390565b6000612625611e2a565b54919050565b606081831061264457612644631960ccad60e11b611e20565b600061264e61261b565b9050600060001961265d611eff565b03612668578161266a565b835b9050808410612677578093505b600061268287611525565b905084861061268f575060005b80156127775780868603116126a357508484035b604080516001830160051b810191829052945060006126c188611823565b9050600081604001516126d2575080515b60005b6000196126e0611eff565b1461270e57868a036126fa576126f4611eff565b60010199505b612702611eff565b8a111561270e57600091505b6127178a612863565b925060408301516000811461272f5760009250612754565b83511561273b57835192505b8b831860601b612754576001820191508a8260051b8a01525b5060018a01995083604052888a148061276c57508481145b156126d55787525050505b5050509392505050565b604051630a85bd0160e11b81526000906001600160a01b0385169063150b7a02906127b6903390899088908890600401613d15565b6020604051808303816000875af19250505080156127f1575060408051601f3d908101601f191682019092526127ee91810190613d52565b60015b612846573d80801561281f576040519150601f19603f3d011682016040523d82523d6000602084013e612824565b606091505b50805160000361283e5761283e6368d2bf6b60e11b611e20565b805181602001fd5b6001600160e01b031916630a85bd0160e11b149050949350505050565b61286b612f2d565b610905612876611e2a565b60008481526004919091016020526040902054612b91565b6000612898611e2a565b6000928352600401602052506040902054151590565b606060006128bb83612bd4565b60010190506000816001600160401b038111156128da576128da613125565b6040519080825280601f01601f191660200182016040528015612904576020820181803683370190505b5090508181016020015b600019016f181899199a1a9b1b9c1cb0b131b232b360811b600a86061a8153600a850494508461290e57509392505050565b60006001600160e01b03198216637965db0b60e01b148061090557506301ffc9a760e01b6001600160e01b0319831614610905565b61297f82826115f2565b610a3b5760405163e2517d3f60e01b81526001600160a01b038216600482015260248101839052604401610f6a565b600160e01b81166001600160a01b039091161190565b6129ce8383612cac565b6001600160a01b0383163b156109545760006129e8611e2a565b5490508281035b612a026000868380600101945086612781565b612a1657612a166368d2bf6b60e11b611e20565b8181106129ef5781612a26611e2a565b5414612a3157600080fd5b5050505050565b612a40611505565b6120ce57604051638dfc202b60e01b815260040160405180910390fd5b612a656122ca565b54610100900460ff16612a8a5760405162461bcd60e51b8152600401610f6a90613ca8565b81612a93611e2a565b60020190612aa190826137cf565b5080612aab611e2a565b60030190612ab990826137cf565b506000612ac4611e2a565b556000612acf611eff565b1015610a3b57610a3b63fed8210f60e01b611e20565b612aed612dcf565b6120ce57604051631afcd79f60e31b815260040160405180910390fd5b612134612ae5565b612b1b82612de9565b6040516001600160a01b038316907fbc7cd75a20ee27fd9adebab32041f755214dbc6bffa90cc0225b39da2e5c2d3b90600090a2805115612b60576109548282612e45565b610a3b612ebb565b805115612b785780518082602001fd5b60405163d6bda27560e01b815260040160405180910390fd5b612b99612f2d565b6001600160a01b03821681526001600160401b0360a083901c166020820152600160e01b82161515604082015260e89190911c606082015290565b60008072184f03e93ff9f4daa797ed6e38ed64bf6a1f0160401b8310612c135772184f03e93ff9f4daa797ed6e38ed64bf6a1f0160401b830492506040015b6d04ee2d6d415b85acef81000000008310612c3f576d04ee2d6d415b85acef8100000000830492506020015b662386f26fc100008310612c5d57662386f26fc10000830492506010015b6305f5e1008310612c75576305f5e100830492506008015b6127108310612c8957612710830492506004015b60648310612c9b576064830492506002015b600a83106109055760010192915050565b6000612cb6611e2a565b5490506000829003612cd257612cd263b562e8dd60e01b611e20565b612cdf600084838561201a565b6001600160a01b0383164260a01b6001841460e11b1717612cfe611e2a565b60008381526004919091016020526040902055680100000000000000018202612d25611e2a565b6001600160a01b0385166000818152600592909201602052604082208054909301909255819003612d5f57612d5f622e076360e81b611e20565b81830182612d6b611eff565b600183031115612d8557612d856340b23f1d60e11b611e20565b5b808360007fddf252ad1be2c89b69c2b068fc378daa952ba7f163c4a11628f55a4df523b3ef600080a4818160010191508103612d865781612dc5611e2a565b5550610954915050565b6000612dd96122ee565b54600160401b900460ff16919050565b806001600160a01b03163b600003612e165780604051634c9c8ce360e01b8152600401610f6a919061305d565b600080516020613dac83398151915280546001600160a01b0319166001600160a01b0392909216919091179055565b6060600080846001600160a01b031684604051612e629190613d6f565b600060405180830381855af49150503d8060008114612e9d576040519150601f19603f3d011682016040523d82523d6000602084013e612ea2565b606091505b5091509150612eb2858383612eda565b95945050505050565b34156120ce5760405163b398979f60e01b815260040160405180910390fd5b606082612eef57612eea82612b68565b61169c565b8151158015612f0657506001600160a01b0384163b155b15612f265783604051639996b31560e01b8152600401610f6a919061305d565b508061169c565b60408051608081018252600080825260208201819052918101829052606081019190915290565b6001600160e01b031981168114610e4457600080fd5b600060208284031215612f7c57600080fd5b813561169c81612f54565b6001600160a01b0381168114610e4457600080fd5b60008060408385031215612faf57600080fd5b8235612fba81612f87565b915060208301356001600160601b0381168114612fd657600080fd5b809150509250929050565b60005b83811015612ffc578181015183820152602001612fe4565b50506000910152565b6000815180845261301d816020860160208601612fe1565b601f01601f19169290920160200192915050565b60208152600061169c6020830184613005565b60006020828403121561305657600080fd5b5035919050565b6001600160a01b0391909116815260200190565b6000806040838503121561308457600080fd5b823561308f81612f87565b946020939093013593505050565b6000806000606084860312156130b257600080fd5b83356130bd81612f87565b925060208401356130cd81612f87565b929592945050506040919091013590565b600080604083850312156130f157600080fd5b50508035926020909101359150565b6000806040838503121561311357600080fd5b823591506020830135612fd681612f87565b634e487b7160e01b600052604160045260246000fd5b600082601f83011261314c57600080fd5b81356001600160401b038082111561316657613166613125565b604051601f8301601f19908116603f0116810190828211818310171561318e5761318e613125565b816040528381528660208588010111156131a757600080fd5b836020870160208301376000602085830101528094505050505092915050565b600080604083850312156131da57600080fd5b82356001600160401b03808211156131f157600080fd5b6131fd8683870161313b565b9350602085013591508082111561321357600080fd5b506132208582860161313b565b9150509250929050565b6000806040838503121561323d57600080fd5b823561324881612f87565b915060208301356001600160401b0381111561326357600080fd5b6132208582860161313b565b60008083601f84011261328157600080fd5b5081356001600160401b0381111561329857600080fd5b602083019150836020828501011115610d2c57600080fd5b600080600080604085870312156132c657600080fd5b84356001600160401b03808211156132dd57600080fd5b6132e98883890161326f565b9096509450602087013591508082111561330257600080fd5b5061330f8782880161326f565b95989497509550505050565b60006020828403121561332d57600080fd5b813561169c81612f87565b60008060006040848603121561334d57600080fd5b8335925060208401356001600160401b0381111561336a57600080fd5b6133768682870161326f565b9497909650939450505050565b6000806020838503121561339657600080fd5b82356001600160401b038111156133ac57600080fd5b6133b88582860161326f565b90969095509350505050565b600080602083850312156133d757600080fd5b82356001600160401b03808211156133ee57600080fd5b818501915085601f83011261340257600080fd5b81358181111561341157600080fd5b8660208260051b850101111561342657600080fd5b60209290920196919550909350505050565b80516001600160a01b031682526020808201516001600160401b03169083015260408082015115159083015260609081015162ffffff16910152565b6020808252825182820181905260009190848201906040850190845b818110156134b6576134a3838551613438565b9284019260809290920191600101613490565b50909695505050505050565b6020808252825182820181905260009190848201906040850190845b818110156134b6578351835292840192918401916001016134de565b60008060006060848603121561350f57600080fd5b833561351a81612f87565b95602085013595506040909401359392505050565b6000806040838503121561354257600080fd5b823561354d81612f87565b915060208301358015158114612fd657600080fd5b6000806000806080858703121561357857600080fd5b843561358381612f87565b9350602085013561359381612f87565b92506040850135915060608501356001600160401b038111156135b557600080fd5b6135c18782880161313b565b91505092959194509250565b600080604083850312156135e057600080fd5b8235915060208301356001600160401b038111156135fd57600080fd5b830160c08186031215612fd657600080fd5b608081016109058284613438565b602081526000825160c0602084015261363960e0840182613005565b90506020840151601f19808584030160408601526136578383613005565b92506040860151915080858403016060860152506136758282613005565b91505060608401516080840152608084015160a084015260a084015160c08401528091505092915050565b600080604083850312156136b357600080fd5b82356136be81612f87565b91506020830135612fd681612f87565b600181811c908216806136e257607f821691505b60208210810361370257634e487b7160e01b600052602260045260246000fd5b50919050565b634e487b7160e01b600052601160045260246000fd5b808202811582820484141761090557610905613708565b60008261375257634e487b7160e01b600052601260045260246000fd5b500490565b8082018082111561090557610905613708565b601f821115610954576000816000526020600020601f850160051c810160208610156137935750805b601f850160051c820191505b818110156137b25782815560010161379f565b505050505050565b600019600383901b1c191660019190911b1790565b81516001600160401b038111156137e8576137e8613125565b6137fc816137f684546136ce565b8461376a565b602080601f83116001811461382b57600084156138195750858301515b61382385826137ba565b8655506137b2565b600085815260208120601f198616915b8281101561385a5788860151825594840194600190910190840161383b565b50858210156138785787850151600019600388901b60f8161c191681555b5050505050600190811b01905550565b6001600160401b0383111561389f5761389f613125565b6138b3836138ad83546136ce565b8361376a565b6000601f8411600181146138e157600085156138cf5750838201355b6138d986826137ba565b845550612a31565b600083815260209020601f19861690835b8281101561391257868501358255602094850194600190920191016138f2565b508682101561392f5760001960f88860031b161c19848701351681555b505060018560011b0183555050505050565b81835281816020850137506000828201602090810191909152601f909101601f19169091010190565b60408152600061397e604083018688613941565b8281036020840152613991818587613941565b979650505050505050565b602081526000611699602083018486613941565b6000808335601e198436030181126139c757600080fd5b8301803591506001600160401b038211156139e157600080fd5b602001915036819003821315610d2c57600080fd5b613a0082836139b0565b6001600160401b03811115613a1757613a17613125565b613a2b81613a2585546136ce565b8561376a565b6000601f821160018114613a595760008315613a475750838201355b613a5184826137ba565b865550613ab3565b600085815260209020601f19841690835b82811015613a8a5786850135825560209485019460019092019101613a6a565b5084821015613aa75760001960f88660031b161c19848701351681555b505060018360011b0185555b50505050613ac460208301836139b0565b613ad2818360018601613888565b5050613ae160408301836139b0565b613aef818360028601613888565b5050606082013560038201556080820135600482015560a082013560058201555050565b6000808335601e19843603018112613b2a57600080fd5b83016020810192503590506001600160401b03811115613b4957600080fd5b803603821315610d2c57600080fd5b602081526000613b688384613b13565b60c06020850152613b7d60e085018284613941565b915050613b8d6020850185613b13565b601f1980868503016040870152613ba5848385613941565b9350613bb46040880188613b13565b935091508086850301606087015250613bce838383613941565b9250505060608401356080840152608084013560a084015260a084013560c08401528091505092915050565b6000808454613c08816136ce565b60018281168015613c205760018114613c3557613c64565b60ff1984168752821515830287019450613c64565b8860005260208060002060005b85811015613c5b5781548a820152908401908201613c42565b50505082870194505b505050508351613c78818360208801612fe1565b64173539b7b760d91b9101908152600501949350505050565b600081613ca057613ca0613708565b506000190190565b60208082526034908201527f455243373231415f5f496e697469616c697a61626c653a20636f6e7472616374604082015273206973206e6f7420696e697469616c697a696e6760601b606082015260800190565b600060208284031215613d0e57600080fd5b5051919050565b6001600160a01b0385811682528416602082015260408101839052608060608201819052600090613d4890830184613005565b9695505050505050565b600060208284031215613d6457600080fd5b815161169c81612f54565b60008251613d81818460208701612fe1565b919091019291505056fe4ba68d394296e94ab6523d7aa99d008a89d73b64505b067e0770522ff96e2330360894a13ba1a3210667c828492db98dca3e2076cc3735a920a3ca505d382bbca49807205ce4d355092ef5a8a18f56e8913cf4a201fbe287825b095693c21775a2646970667358221220ff4e2be72a15314466f503d6f63d244d4eac5878960fbd9f3023f516f94ce50064736f6c63430008180033","opcodes":"PUSH1 0xA0 PUSH1 0x40 MSTORE ADDRESS PUSH1 0x80 MSTORE CALLVALUE DUP1 ISZERO PUSH2 0x14 JUMPI PUSH1 0x0 DUP1 REVERT JUMPDEST POP PUSH1 0x80 MLOAD PUSH2 0x3E21 PUSH2 0x3E PUSH1 0x0 CODECOPY PUSH1 0x0 DUP2 DUP2 PUSH2 0x2371 ADD MSTORE DUP2 DUP2 PUSH2 0x239A ADD MSTORE PUSH2 0x2572 ADD MSTORE PUSH2 0x3E21 PUSH1 0x0 RETURN INVALID PUSH1 0x80 PUSH1 0x40 MSTORE PUSH1 0x4 CALLDATASIZE LT PUSH2 0x2A2 JUMPI PUSH1 0x0 CALLDATALOAD PUSH1 0xE0 SHR DUP1 PUSH4 0x5BBB2177 GT PUSH2 0x165 JUMPI DUP1 PUSH4 0xA217FDDF GT PUSH2 0xCC JUMPI DUP1 PUSH4 0xC23DC68F GT PUSH2 0x85 JUMPI DUP1 PUSH4 0xC23DC68F EQ PUSH2 0x800 JUMPI DUP1 PUSH4 0xC87B56DD EQ PUSH2 0x82D JUMPI DUP1 PUSH4 0xD547741F EQ PUSH2 0x84D JUMPI DUP1 PUSH4 0xE1DC0761 EQ PUSH2 0x86D JUMPI DUP1 PUSH4 0xE58306F9 EQ PUSH2 0x89A JUMPI DUP1 PUSH4 0xE985E9C5 EQ PUSH2 0x8BA JUMPI DUP1 PUSH4 0xF4A0A528 EQ PUSH2 0x8DA JUMPI PUSH2 0x2DE JUMP JUMPDEST DUP1 PUSH4 0xA217FDDF EQ PUSH2 0x751 JUMPI DUP1 PUSH4 0xA22CB465 EQ PUSH2 0x766 JUMPI DUP1 PUSH4 0xAD3CB1CC EQ PUSH2 0x786 JUMPI DUP1 PUSH4 0xB7EA78B5 EQ PUSH2 0x7B7 JUMPI DUP1 PUSH4 0xB88D4FDE EQ PUSH2 0x7CD JUMPI DUP1 PUSH4 0xC1380E29 EQ PUSH2 0x7E0 JUMPI PUSH2 0x2DE JUMP JUMPDEST DUP1 PUSH4 0x8456CB59 GT PUSH2 0x11E JUMPI DUP1 PUSH4 0x8456CB59 EQ PUSH2 0x69A JUMPI DUP1 PUSH4 0x8462151C EQ PUSH2 0x6AF JUMPI DUP1 PUSH4 0x91D14854 EQ PUSH2 0x6DC JUMPI DUP1 PUSH4 0x95D89B41 EQ PUSH2 0x6FC JUMPI DUP1 PUSH4 0x99061BEB EQ PUSH2 0x711 JUMPI DUP1 PUSH4 0x99A2557A EQ PUSH2 0x731 JUMPI PUSH2 0x2DE JUMP JUMPDEST DUP1 PUSH4 0x5BBB2177 EQ PUSH2 0x5E0 JUMPI DUP1 PUSH4 0x5C975ABB EQ PUSH2 0x60D JUMPI DUP1 PUSH4 0x6352211E EQ PUSH2 0x622 JUMPI DUP1 PUSH4 0x6817C76C EQ PUSH2 0x642 JUMPI DUP1 PUSH4 0x70A08231 EQ PUSH2 0x658 JUMPI DUP1 PUSH4 0x75B238FC EQ PUSH2 0x678 JUMPI PUSH2 0x2DE JUMP JUMPDEST DUP1 PUSH4 0x338CAB93 GT PUSH2 0x209 JUMPI DUP1 PUSH4 0x4F1EF286 GT PUSH2 0x1C2 JUMPI DUP1 PUSH4 0x4F1EF286 EQ PUSH2 0x538 JUMPI DUP1 PUSH4 0x5008D928 EQ PUSH2 0x54B JUMPI DUP1 PUSH4 0x51CFF8D9 EQ PUSH2 0x56B JUMPI DUP1 PUSH4 0x52D1902D EQ PUSH2 0x58B JUMPI DUP1 PUSH4 0x53C8388E EQ PUSH2 0x5A0 JUMPI DUP1 PUSH4 0x55F804B3 EQ PUSH2 0x5C0 JUMPI PUSH2 0x2DE JUMP JUMPDEST DUP1 PUSH4 0x338CAB93 EQ PUSH2 0x48E JUMPI DUP1 PUSH4 0x36568ABE EQ PUSH2 0x4B0 JUMPI DUP1 PUSH4 0x3F4BA83A EQ PUSH2 0x4D0 JUMPI DUP1 PUSH4 0x42842E0E EQ PUSH2 0x4E5 JUMPI DUP1 PUSH4 0x4CD88B76 EQ PUSH2 0x4F8 JUMPI DUP1 PUSH4 0x4DCF6AD6 EQ PUSH2 0x518 JUMPI PUSH2 0x2DE JUMP JUMPDEST DUP1 PUSH4 0x23B872DD GT PUSH2 0x25B JUMPI DUP1 PUSH4 0x23B872DD EQ PUSH2 0x3D3 JUMPI DUP1 PUSH4 0x248A9CA3 EQ PUSH2 0x3E6 JUMPI DUP1 PUSH4 0x2A55205A EQ PUSH2 0x406 JUMPI DUP1 PUSH4 0x2DB11544 EQ PUSH2 0x445 JUMPI DUP1 PUSH4 0x2F2FF15D EQ PUSH2 0x458 JUMPI DUP1 PUSH4 0x32CB6B0C EQ PUSH2 0x478 JUMPI PUSH2 0x2DE JUMP JUMPDEST DUP1 PUSH4 0x1FFC9A7 EQ PUSH2 0x2F7 JUMPI DUP1 PUSH4 0x2FA7C47 EQ PUSH2 0x32C JUMPI DUP1 PUSH4 0x6FDDE03 EQ PUSH2 0x34E JUMPI DUP1 PUSH4 0x81812FC EQ PUSH2 0x370 JUMPI DUP1 PUSH4 0x95EA7B3 EQ PUSH2 0x39D JUMPI DUP1 PUSH4 0x18160DDD EQ PUSH2 0x3B0 JUMPI PUSH2 0x2DE JUMP JUMPDEST CALLDATASIZE PUSH2 0x2DE JUMPI PUSH1 0x40 MLOAD CALLVALUE DUP2 MSTORE CALLER SWAP1 PUSH32 0x88A5966D370B9919B20F3E2C13FF65706F196A4E32CC2C12BF57088F88525874 SWAP1 PUSH1 0x20 ADD PUSH1 0x40 MLOAD DUP1 SWAP2 SUB SWAP1 LOG2 STOP JUMPDEST PUSH1 0x40 MLOAD PUSH4 0xDEAB4C3 PUSH1 0xE4 SHL DUP2 MSTORE PUSH1 0x4 ADD PUSH1 0x40 MLOAD DUP1 SWAP2 SUB SWAP1 REVERT JUMPDEST CALLVALUE DUP1 ISZERO PUSH2 0x303 JUMPI PUSH1 0x0 DUP1 REVERT JUMPDEST POP PUSH2 0x317 PUSH2 0x312 CALLDATASIZE PUSH1 0x4 PUSH2 0x2F6A JUMP JUMPDEST PUSH2 0x8FA JUMP JUMPDEST PUSH1 0x40 MLOAD SWAP1 ISZERO ISZERO DUP2 MSTORE PUSH1 0x20 ADD JUMPDEST PUSH1 0x40 MLOAD DUP1 SWAP2 SUB SWAP1 RETURN JUMPDEST CALLVALUE DUP1 ISZERO PUSH2 0x338 JUMPI PUSH1 0x0 DUP1 REVERT JUMPDEST POP PUSH2 0x34C PUSH2 0x347 CALLDATASIZE PUSH1 0x4 PUSH2 0x2F9C JUMP JUMPDEST PUSH2 0x90B JUMP JUMPDEST STOP JUMPDEST CALLVALUE DUP1 ISZERO PUSH2 0x35A JUMPI PUSH1 0x0 DUP1 REVERT JUMPDEST POP PUSH2 0x363 PUSH2 0x959 JUMP JUMPDEST PUSH1 0x40 MLOAD PUSH2 0x323 SWAP2 SWAP1 PUSH2 0x3031 JUMP JUMPDEST CALLVALUE DUP1 ISZERO PUSH2 0x37C JUMPI PUSH1 0x0 DUP1 REVERT JUMPDEST POP PUSH2 0x390 PUSH2 0x38B CALLDATASIZE PUSH1 0x4 PUSH2 0x3044 JUMP JUMPDEST PUSH2 0x9EB JUMP JUMPDEST PUSH1 0x40 MLOAD PUSH2 0x323 SWAP2 SWAP1 PUSH2 0x305D JUMP JUMPDEST PUSH2 0x34C PUSH2 0x3AB CALLDATASIZE PUSH1 0x4 PUSH2 0x3071 JUMP JUMPDEST PUSH2 0xA2F JUMP JUMPDEST CALLVALUE DUP1 ISZERO PUSH2 0x3BC JUMPI PUSH1 0x0 DUP1 REVERT JUMPDEST POP PUSH2 0x3C5 PUSH2 0xA3F JUMP JUMPDEST PUSH1 0x40 MLOAD SWAP1 DUP2 MSTORE PUSH1 0x20 ADD PUSH2 0x323 JUMP JUMPDEST PUSH2 0x34C PUSH2 0x3E1 CALLDATASIZE PUSH1 0x4 PUSH2 0x309D JUMP JUMPDEST PUSH2 0xA7C JUMP JUMPDEST CALLVALUE DUP1 ISZERO PUSH2 0x3F2 JUMPI PUSH1 0x0 DUP1 REVERT JUMPDEST POP PUSH2 0x3C5 PUSH2 0x401 CALLDATASIZE PUSH1 0x4 PUSH2 0x3044 JUMP JUMPDEST PUSH2 0xC4C JUMP JUMPDEST CALLVALUE DUP1 ISZERO PUSH2 0x412 JUMPI PUSH1 0x0 DUP1 REVERT JUMPDEST POP PUSH2 0x426 PUSH2 0x421 CALLDATASIZE PUSH1 0x4 PUSH2 0x30DE JUMP JUMPDEST PUSH2 0xC6C JUMP JUMPDEST PUSH1 0x40 DUP1 MLOAD PUSH1 0x1 PUSH1 0x1 PUSH1 0xA0 SHL SUB SWAP1 SWAP4 AND DUP4 MSTORE PUSH1 0x20 DUP4 ADD SWAP2 SWAP1 SWAP2 MSTORE ADD PUSH2 0x323 JUMP JUMPDEST PUSH2 0x34C PUSH2 0x453 CALLDATASIZE PUSH1 0x4 PUSH2 0x3044 JUMP JUMPDEST PUSH2 0xD33 JUMP JUMPDEST CALLVALUE DUP1 ISZERO PUSH2 0x464 JUMPI PUSH1 0x0 DUP1 REVERT JUMPDEST POP PUSH2 0x34C PUSH2 0x473 CALLDATASIZE PUSH1 0x4 PUSH2 0x3100 JUMP JUMPDEST PUSH2 0xE47 JUMP JUMPDEST CALLVALUE DUP1 ISZERO PUSH2 0x484 JUMPI PUSH1 0x0 DUP1 REVERT JUMPDEST POP PUSH2 0x3C5 PUSH2 0x378 DUP2 JUMP JUMPDEST CALLVALUE DUP1 ISZERO PUSH2 0x49A JUMPI PUSH1 0x0 DUP1 REVERT JUMPDEST POP PUSH2 0x3C5 PUSH1 0x0 DUP1 MLOAD PUSH1 0x20 PUSH2 0x3D8C DUP4 CODECOPY DUP2 MLOAD SWAP2 MSTORE DUP2 JUMP JUMPDEST CALLVALUE DUP1 ISZERO PUSH2 0x4BC JUMPI PUSH1 0x0 DUP1 REVERT JUMPDEST POP PUSH2 0x34C PUSH2 0x4CB CALLDATASIZE PUSH1 0x4 PUSH2 0x3100 JUMP JUMPDEST PUSH2 0xE69 JUMP JUMPDEST CALLVALUE DUP1 ISZERO PUSH2 0x4DC JUMPI PUSH1 0x0 DUP1 REVERT JUMPDEST POP PUSH2 0x34C PUSH2 0xE9C JUMP JUMPDEST PUSH2 0x34C PUSH2 0x4F3 CALLDATASIZE PUSH1 0x4 PUSH2 0x309D JUMP JUMPDEST PUSH2 0xEBC JUMP JUMPDEST CALLVALUE DUP1 ISZERO PUSH2 0x504 JUMPI PUSH1 0x0 DUP1 REVERT JUMPDEST POP PUSH2 0x34C PUSH2 0x513 CALLDATASIZE PUSH1 0x4 PUSH2 0x31C7 JUMP JUMPDEST PUSH2 0xED7 JUMP JUMPDEST CALLVALUE DUP1 ISZERO PUSH2 0x524 JUMPI PUSH1 0x0 DUP1 REVERT JUMPDEST POP PUSH2 0x34C PUSH2 0x533 CALLDATASIZE PUSH1 0x4 PUSH2 0x3044 JUMP JUMPDEST PUSH2 0x11B1 JUMP JUMPDEST PUSH2 0x34C PUSH2 0x546 CALLDATASIZE PUSH1 0x4 PUSH2 0x322A JUMP JUMPDEST PUSH2 0x1233 JUMP JUMPDEST CALLVALUE DUP1 ISZERO PUSH2 0x557 JUMPI PUSH1 0x0 DUP1 REVERT JUMPDEST POP PUSH2 0x34C PUSH2 0x566 CALLDATASIZE PUSH1 0x4 PUSH2 0x32B0 JUMP JUMPDEST PUSH2 0x124E JUMP JUMPDEST CALLVALUE DUP1 ISZERO PUSH2 0x577 JUMPI PUSH1 0x0 DUP1 REVERT JUMPDEST POP PUSH2 0x34C PUSH2 0x586 CALLDATASIZE PUSH1 0x4 PUSH2 0x331B JUMP JUMPDEST PUSH2 0x12C6 JUMP JUMPDEST CALLVALUE DUP1 ISZERO PUSH2 0x597 JUMPI PUSH1 0x0 DUP1 REVERT JUMPDEST POP PUSH2 0x3C5 PUSH2 0x136D JUMP JUMPDEST CALLVALUE DUP1 ISZERO PUSH2 0x5AC JUMPI PUSH1 0x0 DUP1 REVERT JUMPDEST POP PUSH2 0x34C PUSH2 0x5BB CALLDATASIZE PUSH1 0x4 PUSH2 0x3338 JUMP JUMPDEST PUSH2 0x138A JUMP JUMPDEST CALLVALUE DUP1 ISZERO PUSH2 0x5CC JUMPI PUSH1 0x0 DUP1 REVERT JUMPDEST POP PUSH2 0x34C PUSH2 0x5DB CALLDATASIZE PUSH1 0x4 PUSH2 0x3383 JUMP JUMPDEST PUSH2 0x1455 JUMP JUMPDEST CALLVALUE DUP1 ISZERO PUSH2 0x5EC JUMPI PUSH1 0x0 DUP1 REVERT JUMPDEST POP PUSH2 0x600 PUSH2 0x5FB CALLDATASIZE PUSH1 0x4 PUSH2 0x33C4 JUMP JUMPDEST PUSH2 0x14B9 JUMP JUMPDEST PUSH1 0x40 MLOAD PUSH2 0x323 SWAP2 SWAP1 PUSH2 0x3474 JUMP JUMPDEST CALLVALUE DUP1 ISZERO PUSH2 0x619 JUMPI PUSH1 0x0 DUP1 REVERT JUMPDEST POP PUSH2 0x317 PUSH2 0x1505 JUMP JUMPDEST CALLVALUE DUP1 ISZERO PUSH2 0x62E JUMPI PUSH1 0x0 DUP1 REVERT JUMPDEST POP PUSH2 0x390 PUSH2 0x63D CALLDATASIZE PUSH1 0x4 PUSH2 0x3044 JUMP JUMPDEST PUSH2 0x151A JUMP JUMPDEST CALLVALUE DUP1 ISZERO PUSH2 0x64E JUMPI PUSH1 0x0 DUP1 REVERT JUMPDEST POP PUSH2 0x3C5 PUSH1 0x0 SLOAD DUP2 JUMP JUMPDEST CALLVALUE DUP1 ISZERO PUSH2 0x664 JUMPI PUSH1 0x0 DUP1 REVERT JUMPDEST POP PUSH2 0x3C5 PUSH2 0x673 CALLDATASIZE PUSH1 0x4 PUSH2 0x331B JUMP JUMPDEST PUSH2 0x1525 JUMP JUMPDEST CALLVALUE DUP1 ISZERO PUSH2 0x684 JUMPI PUSH1 0x0 DUP1 REVERT JUMPDEST POP PUSH2 0x3C5 PUSH1 0x0 DUP1 MLOAD PUSH1 0x20 PUSH2 0x3DCC DUP4 CODECOPY DUP2 MLOAD SWAP2 MSTORE DUP2 JUMP JUMPDEST CALLVALUE DUP1 ISZERO PUSH2 0x6A6 JUMPI PUSH1 0x0 DUP1 REVERT JUMPDEST POP PUSH2 0x34C PUSH2 0x1584 JUMP JUMPDEST CALLVALUE DUP1 ISZERO PUSH2 0x6BB JUMPI PUSH1 0x0 DUP1 REVERT JUMPDEST POP PUSH2 0x6CF PUSH2 0x6CA CALLDATASIZE PUSH1 0x4 PUSH2 0x331B JUMP JUMPDEST PUSH2 0x15A4 JUMP JUMPDEST PUSH1 0x40 MLOAD PUSH2 0x323 SWAP2 SWAP1 PUSH2 0x34C2 JUMP JUMPDEST CALLVALUE DUP1 ISZERO PUSH2 0x6E8 JUMPI PUSH1 0x0 DUP1 REVERT JUMPDEST POP PUSH2 0x317 PUSH2 0x6F7 CALLDATASIZE PUSH1 0x4 PUSH2 0x3100 JUMP JUMPDEST PUSH2 0x15F2 JUMP JUMPDEST CALLVALUE DUP1 ISZERO PUSH2 0x708 JUMPI PUSH1 0x0 DUP1 REVERT JUMPDEST POP PUSH2 0x363 PUSH2 0x1628 JUMP JUMPDEST CALLVALUE DUP1 ISZERO PUSH2 0x71D JUMPI PUSH1 0x0 DUP1 REVERT JUMPDEST POP PUSH2 0x34C PUSH2 0x72C CALLDATASIZE PUSH1 0x4 PUSH2 0x3044 JUMP JUMPDEST PUSH2 0x1637 JUMP JUMPDEST CALLVALUE DUP1 ISZERO PUSH2 0x73D JUMPI PUSH1 0x0 DUP1 REVERT JUMPDEST POP PUSH2 0x6CF PUSH2 0x74C CALLDATASIZE PUSH1 0x4 PUSH2 0x34FA JUMP JUMPDEST PUSH2 0x168C JUMP JUMPDEST CALLVALUE DUP1 ISZERO PUSH2 0x75D JUMPI PUSH1 0x0 DUP1 REVERT JUMPDEST POP PUSH2 0x3C5 PUSH1 0x0 DUP2 JUMP JUMPDEST CALLVALUE DUP1 ISZERO PUSH2 0x772 JUMPI PUSH1 0x0 DUP1 REVERT JUMPDEST POP PUSH2 0x34C PUSH2 0x781 CALLDATASIZE PUSH1 0x4 PUSH2 0x352F JUMP JUMPDEST PUSH2 0x16A3 JUMP JUMPDEST CALLVALUE DUP1 ISZERO PUSH2 0x792 JUMPI PUSH1 0x0 DUP1 REVERT JUMPDEST POP PUSH2 0x363 PUSH1 0x40 MLOAD DUP1 PUSH1 0x40 ADD PUSH1 0x40 MSTORE DUP1 PUSH1 0x5 DUP2 MSTORE PUSH1 0x20 ADD PUSH5 0x352E302E3 PUSH1 0xDC SHL DUP2 MSTORE POP DUP2 JUMP JUMPDEST CALLVALUE DUP1 ISZERO PUSH2 0x7C3 JUMPI PUSH1 0x0 DUP1 REVERT JUMPDEST POP PUSH2 0x3C5 PUSH1 0x1 SLOAD DUP2 JUMP JUMPDEST PUSH2 0x34C PUSH2 0x7DB CALLDATASIZE PUSH1 0x4 PUSH2 0x3562 JUMP JUMPDEST PUSH2 0x1720 JUMP JUMPDEST CALLVALUE DUP1 ISZERO PUSH2 0x7EC JUMPI PUSH1 0x0 DUP1 REVERT JUMPDEST POP PUSH2 0x34C PUSH2 0x7FB CALLDATASIZE PUSH1 0x4 PUSH2 0x35CD JUMP JUMPDEST PUSH2 0x175B JUMP JUMPDEST CALLVALUE DUP1 ISZERO PUSH2 0x80C JUMPI PUSH1 0x0 DUP1 REVERT JUMPDEST POP PUSH2 0x820 PUSH2 0x81B CALLDATASIZE PUSH1 0x4 PUSH2 0x3044 JUMP JUMPDEST PUSH2 0x1823 JUMP JUMPDEST PUSH1 0x40 MLOAD PUSH2 0x323 SWAP2 SWAP1 PUSH2 0x360F JUMP JUMPDEST CALLVALUE DUP1 ISZERO PUSH2 0x839 JUMPI PUSH1 0x0 DUP1 REVERT JUMPDEST POP PUSH2 0x363 PUSH2 0x848 CALLDATASIZE PUSH1 0x4 PUSH2 0x3044 JUMP JUMPDEST PUSH2 0x187A JUMP JUMPDEST CALLVALUE DUP1 ISZERO PUSH2 0x859 JUMPI PUSH1 0x0 DUP1 REVERT JUMPDEST POP PUSH2 0x34C PUSH2 0x868 CALLDATASIZE PUSH1 0x4 PUSH2 0x3100 JUMP JUMPDEST PUSH2 0x18D4 JUMP JUMPDEST CALLVALUE DUP1 ISZERO PUSH2 0x879 JUMPI PUSH1 0x0 DUP1 REVERT JUMPDEST POP PUSH2 0x88D PUSH2 0x888 CALLDATASIZE PUSH1 0x4 PUSH2 0x3044 JUMP JUMPDEST PUSH2 0x18F0 JUMP JUMPDEST PUSH1 0x40 MLOAD PUSH2 0x323 SWAP2 SWAP1 PUSH2 0x361D JUMP JUMPDEST CALLVALUE DUP1 ISZERO PUSH2 0x8A6 JUMPI PUSH1 0x0 DUP1 REVERT JUMPDEST POP PUSH2 0x34C PUSH2 0x8B5 CALLDATASIZE PUSH1 0x4 PUSH2 0x3071 JUMP JUMPDEST PUSH2 0x1B42 JUMP JUMPDEST CALLVALUE DUP1 ISZERO PUSH2 0x8C6 JUMPI PUSH1 0x0 DUP1 REVERT JUMPDEST POP PUSH2 0x317 PUSH2 0x8D5 CALLDATASIZE PUSH1 0x4 PUSH2 0x36A0 JUMP JUMPDEST PUSH2 0x1C1C JUMP JUMPDEST CALLVALUE DUP1 ISZERO PUSH2 0x8E6 JUMPI PUSH1 0x0 DUP1 REVERT JUMPDEST POP PUSH2 0x34C PUSH2 0x8F5 CALLDATASIZE PUSH1 0x4 PUSH2 0x3044 JUMP JUMPDEST PUSH2 0x1C59 JUMP JUMPDEST PUSH1 0x0 PUSH2 0x905 DUP3 PUSH2 0x1CA6 JUMP JUMPDEST SWAP3 SWAP2 POP POP JUMP JUMPDEST PUSH1 0x0 DUP1 MLOAD PUSH1 0x20 PUSH2 0x3DCC DUP4 CODECOPY DUP2 MLOAD SWAP2 MSTORE PUSH2 0x923 DUP2 PUSH2 0x1CCB JUMP JUMPDEST PUSH1 0x1 PUSH1 0x1 PUSH1 0xA0 SHL SUB DUP4 AND PUSH2 0x94A JUMPI PUSH1 0x40 MLOAD PUSH4 0xD92E233D PUSH1 0xE0 SHL DUP2 MSTORE PUSH1 0x4 ADD PUSH1 0x40 MLOAD DUP1 SWAP2 SUB SWAP1 REVERT JUMPDEST PUSH2 0x954 DUP4 DUP4 PUSH2 0x1CD5 JUMP JUMPDEST POP POP POP JUMP JUMPDEST PUSH1 0x60 PUSH1 0x3 DUP1 SLOAD PUSH2 0x968 SWAP1 PUSH2 0x36CE JUMP JUMPDEST DUP1 PUSH1 0x1F ADD PUSH1 0x20 DUP1 SWAP2 DIV MUL PUSH1 0x20 ADD PUSH1 0x40 MLOAD SWAP1 DUP2 ADD PUSH1 0x40 MSTORE DUP1 SWAP3 SWAP2 SWAP1 DUP2 DUP2 MSTORE PUSH1 0x20 ADD DUP3 DUP1 SLOAD PUSH2 0x994 SWAP1 PUSH2 0x36CE JUMP JUMPDEST DUP1 ISZERO PUSH2 0x9E1 JUMPI DUP1 PUSH1 0x1F LT PUSH2 0x9B6 JUMPI PUSH2 0x100 DUP1 DUP4 SLOAD DIV MUL DUP4 MSTORE SWAP2 PUSH1 0x20 ADD SWAP2 PUSH2 0x9E1 JUMP JUMPDEST DUP3 ADD SWAP2 SWAP1 PUSH1 0x0 MSTORE PUSH1 0x20 PUSH1 0x0 KECCAK256 SWAP1 JUMPDEST DUP2 SLOAD DUP2 MSTORE SWAP1 PUSH1 0x1 ADD SWAP1 PUSH1 0x20 ADD DUP1 DUP4 GT PUSH2 0x9C4 JUMPI DUP3 SWAP1 SUB PUSH1 0x1F AND DUP3 ADD SWAP2 JUMPDEST POP POP POP POP POP SWAP1 POP SWAP1 JUMP JUMPDEST PUSH1 0x0 PUSH2 0x9F6 DUP3 PUSH2 0x1D98 JUMP JUMPDEST PUSH2 0xA0A JUMPI PUSH2 0xA0A PUSH4 0x33D1C039 PUSH1 0xE2 SHL PUSH2 0x1E20 JUMP JUMPDEST PUSH2 0xA12 PUSH2 0x1E2A JUMP JUMPDEST PUSH1 0x0 SWAP3 DUP4 MSTORE PUSH1 0x6 ADD PUSH1 0x20 MSTORE POP PUSH1 0x40 SWAP1 KECCAK256 SLOAD PUSH1 0x1 PUSH1 0x1 PUSH1 0xA0 SHL SUB AND SWAP1 JUMP JUMPDEST PUSH2 0xA3B DUP3 DUP3 PUSH1 0x1 PUSH2 0x1E4E JUMP JUMPDEST POP POP JUMP JUMPDEST PUSH1 0x0 DUP1 PUSH2 0xA4A PUSH2 0x1E2A JUMP JUMPDEST PUSH1 0x1 ADD SLOAD PUSH2 0xA56 PUSH2 0x1E2A JUMP JUMPDEST SLOAD SUB SUB SWAP1 POP PUSH1 0x0 NOT PUSH2 0xA66 PUSH2 0x1EFF JUMP JUMPDEST EQ PUSH2 0xA79 JUMPI PUSH2 0xA73 PUSH2 0x1E2A JUMP JUMPDEST PUSH1 0x8 ADD SLOAD ADD JUMPDEST SWAP1 JUMP JUMPDEST PUSH1 0x0 PUSH2 0xA87 DUP3 PUSH2 0x1F05 JUMP JUMPDEST PUSH1 0x1 PUSH1 0x1 PUSH1 0xA0 SHL SUB SWAP5 DUP6 AND SWAP5 SWAP1 SWAP2 POP DUP2 AND DUP5 EQ PUSH2 0xAAD JUMPI PUSH2 0xAAD PUSH3 0xA11481 PUSH1 0xE8 SHL PUSH2 0x1E20 JUMP JUMPDEST PUSH1 0x0 DUP1 PUSH2 0xAB9 DUP5 PUSH2 0x1FF2 JUMP JUMPDEST SWAP2 POP SWAP2 POP PUSH2 0xADE DUP2 DUP8 PUSH2 0xAC9 CALLER SWAP1 JUMP JUMPDEST PUSH1 0x1 PUSH1 0x1 PUSH1 0xA0 SHL SUB SWAP1 DUP2 AND SWAP2 AND DUP2 EQ SWAP2 EQ OR SWAP1 JUMP JUMPDEST PUSH2 0xB00 JUMPI PUSH2 0xAEC DUP7 CALLER PUSH2 0x1C1C JUMP JUMPDEST PUSH2 0xB00 JUMPI PUSH2 0xB00 PUSH4 0x2CE44B5F PUSH1 0xE1 SHL PUSH2 0x1E20 JUMP JUMPDEST PUSH2 0xB0D DUP7 DUP7 DUP7 PUSH1 0x1 PUSH2 0x201A JUMP JUMPDEST DUP1 ISZERO PUSH2 0xB18 JUMPI PUSH1 0x0 DUP3 SSTORE JUMPDEST PUSH2 0xB20 PUSH2 0x1E2A JUMP JUMPDEST PUSH1 0x1 PUSH1 0x1 PUSH1 0xA0 SHL SUB DUP8 AND PUSH1 0x0 SWAP1 DUP2 MSTORE PUSH1 0x5 SWAP2 SWAP1 SWAP2 ADD PUSH1 0x20 MSTORE PUSH1 0x40 SWAP1 KECCAK256 DUP1 SLOAD PUSH1 0x0 NOT ADD SWAP1 SSTORE PUSH2 0xB4C PUSH2 0x1E2A JUMP JUMPDEST PUSH1 0x1 PUSH1 0x1 PUSH1 0xA0 SHL SUB DUP7 AND PUSH1 0x0 DUP2 DUP2 MSTORE PUSH1 0x5 SWAP3 SWAP1 SWAP3 ADD PUSH1 0x20 MSTORE PUSH1 0x40 SWAP1 SWAP2 KECCAK256 DUP1 SLOAD PUSH1 0x1 ADD SWAP1 SSTORE TIMESTAMP PUSH1 0xA0 SHL OR PUSH1 0x1 PUSH1 0xE1 SHL OR PUSH2 0xB83 PUSH2 0x1E2A JUMP JUMPDEST PUSH1 0x0 DUP7 DUP2 MSTORE PUSH1 0x4 SWAP2 SWAP1 SWAP2 ADD PUSH1 0x20 MSTORE PUSH1 0x40 DUP2 KECCAK256 SWAP2 SWAP1 SWAP2 SSTORE PUSH1 0x1 PUSH1 0xE1 SHL DUP5 AND SWAP1 SUB PUSH2 0xBF9 JUMPI PUSH1 0x1 DUP5 ADD PUSH2 0xBB2 PUSH2 0x1E2A JUMP JUMPDEST PUSH1 0x0 DUP3 DUP2 MSTORE PUSH1 0x4 SWAP2 SWAP1 SWAP2 ADD PUSH1 0x20 MSTORE PUSH1 0x40 DUP2 KECCAK256 SLOAD SWAP1 SUB PUSH2 0xBF7 JUMPI PUSH2 0xBD3 PUSH2 0x1E2A JUMP JUMPDEST SLOAD DUP2 EQ PUSH2 0xBF7 JUMPI DUP4 PUSH2 0xBE3 PUSH2 0x1E2A JUMP JUMPDEST PUSH1 0x0 DUP4 DUP2 MSTORE PUSH1 0x4 SWAP2 SWAP1 SWAP2 ADD PUSH1 0x20 MSTORE PUSH1 0x40 SWAP1 KECCAK256 SSTORE JUMPDEST POP JUMPDEST PUSH1 0x1 PUSH1 0x1 PUSH1 0xA0 SHL SUB DUP6 AND DUP5 DUP2 DUP9 PUSH32 0xDDF252AD1BE2C89B69C2B068FC378DAA952BA7F163C4A11628F55A4DF523B3EF PUSH1 0x0 DUP1 LOG4 DUP1 PUSH1 0x0 SUB PUSH2 0xC43 JUMPI PUSH2 0xC43 PUSH4 0x3A954ECD PUSH1 0xE2 SHL PUSH2 0x1E20 JUMP JUMPDEST POP POP POP POP POP POP POP JUMP JUMPDEST PUSH1 0x0 DUP1 PUSH2 0xC57 PUSH2 0x2084 JUMP JUMPDEST PUSH1 0x0 SWAP4 DUP5 MSTORE PUSH1 0x20 MSTORE POP POP PUSH1 0x40 SWAP1 KECCAK256 PUSH1 0x1 ADD SLOAD SWAP1 JUMP JUMPDEST PUSH1 0x0 DUP3 DUP2 MSTORE PUSH32 0xDAEDC9AB023613A7CAF35E703657E986CCFAD7E3EB0AF93A2853F8D65DD86B01 PUSH1 0x20 MSTORE PUSH1 0x40 DUP2 KECCAK256 DUP1 SLOAD DUP3 SWAP2 PUSH32 0xDAEDC9AB023613A7CAF35E703657E986CCFAD7E3EB0AF93A2853F8D65DD86B00 SWAP2 PUSH1 0x1 PUSH1 0x1 PUSH1 0xA0 SHL SUB DUP2 AND SWAP1 PUSH1 0x1 PUSH1 0xA0 SHL SWAP1 DIV PUSH1 0x1 PUSH1 0x1 PUSH1 0x60 SHL SUB AND DUP2 PUSH2 0xCFF JUMPI POP POP DUP2 SLOAD PUSH1 0x1 PUSH1 0x1 PUSH1 0xA0 SHL SUB DUP2 AND SWAP1 PUSH1 0x1 PUSH1 0xA0 SHL SWAP1 DIV PUSH1 0x1 PUSH1 0x1 PUSH1 0x60 SHL SUB AND JUMPDEST PUSH1 0x0 PUSH2 0x2710 PUSH2 0xD17 PUSH1 0x1 PUSH1 0x1 PUSH1 0x60 SHL SUB DUP5 AND DUP11 PUSH2 0x371E JUMP JUMPDEST PUSH2 0xD21 SWAP2 SWAP1 PUSH2 0x3735 JUMP JUMPDEST SWAP3 SWAP7 POP SWAP2 SWAP5 POP POP POP POP POP JUMPDEST SWAP3 POP SWAP3 SWAP1 POP JUMP JUMPDEST PUSH2 0xD3B PUSH2 0x20A8 JUMP JUMPDEST PUSH2 0xD43 PUSH2 0x20D0 JUMP JUMPDEST DUP1 PUSH1 0x0 SUB PUSH2 0xD64 JUMPI PUSH1 0x40 MLOAD PUSH4 0xC1AB6DC1 PUSH1 0xE0 SHL DUP2 MSTORE PUSH1 0x4 ADD PUSH1 0x40 MLOAD DUP1 SWAP2 SUB SWAP1 REVERT JUMPDEST PUSH2 0x378 DUP2 PUSH2 0xD70 PUSH2 0xA3F JUMP JUMPDEST PUSH2 0xD7A SWAP2 SWAP1 PUSH2 0x3757 JUMP JUMPDEST GT ISZERO PUSH2 0xD99 JUMPI PUSH1 0x40 MLOAD PUSH4 0xD05CB609 PUSH1 0xE0 SHL DUP2 MSTORE PUSH1 0x4 ADD PUSH1 0x40 MLOAD DUP1 SWAP2 SUB SWAP1 REVERT JUMPDEST DUP1 PUSH1 0x0 SLOAD PUSH2 0xDA7 SWAP2 SWAP1 PUSH2 0x371E JUMP JUMPDEST CALLVALUE LT ISZERO PUSH2 0xDC7 JUMPI PUSH1 0x40 MLOAD PUSH4 0xCD1C8867 PUSH1 0xE0 SHL DUP2 MSTORE PUSH1 0x4 ADD PUSH1 0x40 MLOAD DUP1 SWAP2 SUB SWAP1 REVERT JUMPDEST PUSH1 0x1 SLOAD DUP2 PUSH2 0xDD4 CALLER PUSH2 0x1525 JUMP JUMPDEST PUSH2 0xDDE SWAP2 SWAP1 PUSH2 0x3757 JUMP JUMPDEST GT ISZERO PUSH2 0xDFD JUMPI PUSH1 0x40 MLOAD PUSH4 0x33490191 PUSH1 0xE0 SHL DUP2 MSTORE PUSH1 0x4 ADD PUSH1 0x40 MLOAD DUP1 SWAP2 SUB SWAP1 REVERT JUMPDEST PUSH2 0xE07 CALLER DUP3 PUSH2 0x211A JUMP JUMPDEST PUSH1 0x40 MLOAD DUP2 DUP2 MSTORE CALLER SWAP1 PUSH32 0x30385C845B448A36257A6A1716E6AD2E1BC2CBE333CDE1E69FE849AD6511ADFE SWAP1 PUSH1 0x20 ADD PUSH1 0x40 MLOAD DUP1 SWAP2 SUB SWAP1 LOG2 PUSH2 0xE44 PUSH2 0x2134 JUMP JUMPDEST POP JUMP JUMPDEST PUSH2 0xE50 DUP3 PUSH2 0xC4C JUMP JUMPDEST PUSH2 0xE59 DUP2 PUSH2 0x1CCB JUMP JUMPDEST PUSH2 0xE63 DUP4 DUP4 PUSH2 0x215A JUMP JUMPDEST POP POP POP POP JUMP JUMPDEST PUSH1 0x1 PUSH1 0x1 PUSH1 0xA0 SHL SUB DUP2 AND CALLER EQ PUSH2 0xE92 JUMPI PUSH1 0x40 MLOAD PUSH4 0x334BD919 PUSH1 0xE1 SHL DUP2 MSTORE PUSH1 0x4 ADD PUSH1 0x40 MLOAD DUP1 SWAP2 SUB SWAP1 REVERT JUMPDEST PUSH2 0x954 DUP3 DUP3 PUSH2 0x21FB JUMP JUMPDEST PUSH1 0x0 DUP1 MLOAD PUSH1 0x20 PUSH2 0x3DCC DUP4 CODECOPY DUP2 MLOAD SWAP2 MSTORE PUSH2 0xEB4 DUP2 PUSH2 0x1CCB JUMP JUMPDEST PUSH2 0xE44 PUSH2 0x2273 JUMP JUMPDEST PUSH2 0x954 DUP4 DUP4 DUP4 PUSH1 0x40 MLOAD DUP1 PUSH1 0x20 ADD PUSH1 0x40 MSTORE DUP1 PUSH1 0x0 DUP2 MSTORE POP PUSH2 0x1720 JUMP JUMPDEST PUSH2 0xEDF PUSH2 0x22CA JUMP JUMPDEST SLOAD PUSH2 0x100 SWAP1 DIV PUSH1 0xFF AND PUSH2 0xEFE JUMPI PUSH2 0xEF4 PUSH2 0x22CA JUMP JUMPDEST SLOAD PUSH1 0xFF AND ISZERO PUSH2 0xF02 JUMP JUMPDEST ADDRESS EXTCODESIZE ISZERO JUMPDEST PUSH2 0xF73 JUMPI PUSH1 0x40 MLOAD PUSH3 0x461BCD PUSH1 0xE5 SHL DUP2 MSTORE PUSH1 0x20 PUSH1 0x4 DUP3 ADD MSTORE PUSH1 0x37 PUSH1 0x24 DUP3 ADD MSTORE PUSH32 0x455243373231415F5F496E697469616C697A61626C653A20636F6E7472616374 PUSH1 0x44 DUP3 ADD MSTORE PUSH23 0x81A5CC8185B1C9958591E481A5B9A5D1A585B1A5E9959 PUSH1 0x4A SHL PUSH1 0x64 DUP3 ADD MSTORE PUSH1 0x84 ADD JUMPDEST PUSH1 0x40 MLOAD DUP1 SWAP2 SUB SWAP1 REVERT JUMPDEST PUSH1 0x0 PUSH2 0xF7D PUSH2 0x22CA JUMP JUMPDEST SLOAD PUSH2 0x100 SWAP1 DIV PUSH1 0xFF AND ISZERO SWAP1 POP DUP1 ISZERO PUSH2 0xFC9 JUMPI PUSH1 0x1 PUSH2 0xF99 PUSH2 0x22CA JUMP JUMPDEST DUP1 SLOAD SWAP2 ISZERO ISZERO PUSH2 0x100 MUL PUSH2 0xFF00 NOT SWAP1 SWAP3 AND SWAP2 SWAP1 SWAP2 OR SWAP1 SSTORE PUSH1 0x1 PUSH2 0xFB9 PUSH2 0x22CA JUMP JUMPDEST DUP1 SLOAD PUSH1 0xFF NOT AND SWAP2 ISZERO ISZERO SWAP2 SWAP1 SWAP2 OR SWAP1 SSTORE JUMPDEST PUSH1 0x0 PUSH2 0xFD3 PUSH2 0x22EE JUMP JUMPDEST DUP1 SLOAD SWAP1 SWAP2 POP PUSH1 0xFF PUSH1 0x1 PUSH1 0x40 SHL DUP3 DIV AND ISZERO SWAP1 PUSH1 0x1 PUSH1 0x1 PUSH1 0x40 SHL SUB AND PUSH1 0x0 DUP2 ISZERO DUP1 ISZERO PUSH2 0xFFA JUMPI POP DUP3 JUMPDEST SWAP1 POP PUSH1 0x0 DUP3 PUSH1 0x1 PUSH1 0x1 PUSH1 0x40 SHL SUB AND PUSH1 0x1 EQ DUP1 ISZERO PUSH2 0x1016 JUMPI POP ADDRESS EXTCODESIZE ISZERO JUMPDEST SWAP1 POP DUP2 ISZERO DUP1 ISZERO PUSH2 0x1024 JUMPI POP DUP1 ISZERO JUMPDEST ISZERO PUSH2 0x1042 JUMPI PUSH1 0x40 MLOAD PUSH4 0xF92EE8A9 PUSH1 0xE0 SHL DUP2 MSTORE PUSH1 0x4 ADD PUSH1 0x40 MLOAD DUP1 SWAP2 SUB SWAP1 REVERT JUMPDEST DUP5 SLOAD PUSH8 0xFFFFFFFFFFFFFFFF NOT AND PUSH1 0x1 OR DUP6 SSTORE DUP4 ISZERO PUSH2 0x106C JUMPI DUP5 SLOAD PUSH1 0xFF PUSH1 0x40 SHL NOT AND PUSH1 0x1 PUSH1 0x40 SHL OR DUP6 SSTORE JUMPDEST PUSH2 0x1076 DUP9 DUP9 PUSH2 0x2317 JUMP JUMPDEST PUSH2 0x107E PUSH2 0x234E JUMP JUMPDEST PUSH2 0x1086 PUSH2 0x234E JUMP JUMPDEST PUSH2 0x108E PUSH2 0x2356 JUMP JUMPDEST PUSH2 0x1096 PUSH2 0x234E JUMP JUMPDEST PUSH2 0x109E PUSH2 0x234E JUMP JUMPDEST PUSH1 0x3 PUSH2 0x10AA DUP10 DUP3 PUSH2 0x37CF JUMP JUMPDEST POP PUSH1 0x4 PUSH2 0x10B7 DUP9 DUP3 PUSH2 0x37CF JUMP JUMPDEST POP PUSH2 0x10C3 PUSH1 0x0 CALLER PUSH2 0x215A JUMP JUMPDEST POP PUSH2 0x10DC PUSH1 0x0 DUP1 MLOAD PUSH1 0x20 PUSH2 0x3DCC DUP4 CODECOPY DUP2 MLOAD SWAP2 MSTORE CALLER PUSH2 0x215A JUMP JUMPDEST POP PUSH2 0x10F5 PUSH1 0x0 DUP1 MLOAD PUSH1 0x20 PUSH2 0x3D8C DUP4 CODECOPY DUP2 MLOAD SWAP2 MSTORE CALLER PUSH2 0x215A JUMP JUMPDEST POP PUSH7 0x6A94D74F430000 PUSH1 0x0 SSTORE PUSH1 0x3 PUSH1 0x1 SSTORE PUSH2 0x1112 CALLER PUSH2 0x1F4 PUSH2 0x1CD5 JUMP JUMPDEST PUSH1 0x40 MLOAD PUSH32 0xE3D77C0C81A47993CE8E388ADC64FE0DC88BD28FBF57CBDF333006B59AD82A0A SWAP1 PUSH1 0x0 SWAP1 LOG1 DUP4 ISZERO PUSH2 0x1181 JUMPI DUP5 SLOAD PUSH1 0xFF PUSH1 0x40 SHL NOT AND DUP6 SSTORE PUSH1 0x40 MLOAD PUSH1 0x1 DUP2 MSTORE PUSH32 0xC7F505B2F371AE2175EE4913F4499E1F2633A7B5936321EED1CDAEB6115181D2 SWAP1 PUSH1 0x20 ADD PUSH1 0x40 MLOAD DUP1 SWAP2 SUB SWAP1 LOG1 JUMPDEST POP POP POP POP POP DUP1 ISZERO PUSH2 0x954 JUMPI PUSH1 0x0 PUSH2 0x1196 PUSH2 0x22CA JUMP JUMPDEST DUP1 SLOAD SWAP2 ISZERO ISZERO PUSH2 0x100 MUL PUSH2 0xFF00 NOT SWAP1 SWAP3 AND SWAP2 SWAP1 SWAP2 OR SWAP1 SSTORE POP POP POP JUMP JUMPDEST PUSH1 0x0 DUP1 MLOAD PUSH1 0x20 PUSH2 0x3DCC DUP4 CODECOPY DUP2 MLOAD SWAP2 MSTORE PUSH2 0x11C9 DUP2 PUSH2 0x1CCB JUMP JUMPDEST PUSH2 0x11D2 DUP3 PUSH2 0x1D98 JUMP JUMPDEST PUSH2 0x11EF JUMPI PUSH1 0x40 MLOAD PUSH4 0xC1AB6DC1 PUSH1 0xE0 SHL DUP2 MSTORE PUSH1 0x4 ADD PUSH1 0x40 MLOAD DUP1 SWAP2 SUB SWAP1 REVERT JUMPDEST PUSH1 0x0 DUP3 DUP2 MSTORE PUSH1 0x6 PUSH1 0x20 MSTORE PUSH1 0x40 DUP1 DUP3 KECCAK256 DUP1 SLOAD PUSH1 0xFF NOT AND PUSH1 0x1 OR SWAP1 SSTORE MLOAD DUP4 SWAP2 PUSH32 0x7C9BD91D0CCEE585F666998E287E929BF935CEDEC1348F7AFC4591ECA690B90A SWAP2 LOG2 POP POP JUMP JUMPDEST PUSH2 0x123B PUSH2 0x2366 JUMP JUMPDEST PUSH2 0x1244 DUP3 PUSH2 0x240B JUMP JUMPDEST PUSH2 0xA3B DUP3 DUP3 PUSH2 0x2423 JUMP JUMPDEST PUSH1 0x0 DUP1 MLOAD PUSH1 0x20 PUSH2 0x3DCC DUP4 CODECOPY DUP2 MLOAD SWAP2 MSTORE PUSH2 0x1266 DUP2 PUSH2 0x1CCB JUMP JUMPDEST PUSH1 0x3 PUSH2 0x1273 DUP6 DUP8 DUP4 PUSH2 0x3888 JUMP JUMPDEST POP PUSH1 0x4 PUSH2 0x1281 DUP4 DUP6 DUP4 PUSH2 0x3888 JUMP JUMPDEST POP PUSH32 0x34F654C72931B372326F31362BE64BC58E08A0E8CD6B08E17AB5C260E0DCEB1A DUP6 DUP6 DUP6 DUP6 PUSH1 0x40 MLOAD PUSH2 0x12B7 SWAP5 SWAP4 SWAP3 SWAP2 SWAP1 PUSH2 0x396A JUMP JUMPDEST PUSH1 0x40 MLOAD DUP1 SWAP2 SUB SWAP1 LOG1 POP POP POP POP POP JUMP JUMPDEST PUSH1 0x0 DUP1 MLOAD PUSH1 0x20 PUSH2 0x3DCC DUP4 CODECOPY DUP2 MLOAD SWAP2 MSTORE PUSH2 0x12DE DUP2 PUSH2 0x1CCB JUMP JUMPDEST PUSH2 0x12E6 PUSH2 0x20D0 JUMP JUMPDEST PUSH1 0x1 PUSH1 0x1 PUSH1 0xA0 SHL SUB DUP3 AND PUSH2 0x130D JUMPI PUSH1 0x40 MLOAD PUSH4 0xD92E233D PUSH1 0xE0 SHL DUP2 MSTORE PUSH1 0x4 ADD PUSH1 0x40 MLOAD DUP1 SWAP2 SUB SWAP1 REVERT JUMPDEST SELFBALANCE PUSH2 0x1321 PUSH1 0x1 PUSH1 0x1 PUSH1 0xA0 SHL SUB DUP5 AND DUP3 PUSH2 0x24D7 JUMP JUMPDEST DUP3 PUSH1 0x1 PUSH1 0x1 PUSH1 0xA0 SHL SUB AND PUSH32 0x884EDAD9CE6FA2440D8A54CC123490EB96D2768479D49FF9C7366125A9424364 DUP3 PUSH1 0x40 MLOAD PUSH2 0x135C SWAP2 DUP2 MSTORE PUSH1 0x20 ADD SWAP1 JUMP JUMPDEST PUSH1 0x40 MLOAD DUP1 SWAP2 SUB SWAP1 LOG2 POP PUSH2 0xA3B PUSH2 0x2134 JUMP JUMPDEST PUSH1 0x0 PUSH2 0x1377 PUSH2 0x2567 JUMP JUMPDEST POP PUSH1 0x0 DUP1 MLOAD PUSH1 0x20 PUSH2 0x3DAC DUP4 CODECOPY DUP2 MLOAD SWAP2 MSTORE SWAP1 JUMP JUMPDEST PUSH1 0x0 DUP1 MLOAD PUSH1 0x20 PUSH2 0x3D8C DUP4 CODECOPY DUP2 MLOAD SWAP2 MSTORE PUSH2 0x13A2 DUP2 PUSH2 0x1CCB JUMP JUMPDEST PUSH2 0x13AB DUP5 PUSH2 0x1D98 JUMP JUMPDEST PUSH2 0x13C8 JUMPI PUSH1 0x40 MLOAD PUSH4 0xC1AB6DC1 PUSH1 0xE0 SHL DUP2 MSTORE PUSH1 0x4 ADD PUSH1 0x40 MLOAD DUP1 SWAP2 SUB SWAP1 REVERT JUMPDEST PUSH1 0x0 DUP5 DUP2 MSTORE PUSH1 0x6 PUSH1 0x20 MSTORE PUSH1 0x40 SWAP1 KECCAK256 SLOAD PUSH1 0xFF AND ISZERO PUSH2 0x13F8 JUMPI PUSH1 0x40 MLOAD PUSH4 0xB087BBF3 PUSH1 0xE0 SHL DUP2 MSTORE PUSH1 0x4 ADD PUSH1 0x40 MLOAD DUP1 SWAP2 SUB SWAP1 REVERT JUMPDEST PUSH1 0x0 DUP5 DUP2 MSTORE PUSH1 0x5 PUSH1 0x20 MSTORE PUSH1 0x40 SWAP1 KECCAK256 PUSH1 0x2 ADD PUSH2 0x1414 DUP4 DUP6 DUP4 PUSH2 0x3888 JUMP JUMPDEST POP DUP4 PUSH32 0x459157BA24C7AB9878B165EF465FA6AE2AB42BCD8445F576BE378768B0C47309 DUP5 DUP5 PUSH1 0x40 MLOAD PUSH2 0x1447 SWAP3 SWAP2 SWAP1 PUSH2 0x399C JUMP JUMPDEST PUSH1 0x40 MLOAD DUP1 SWAP2 SUB SWAP1 LOG2 POP POP POP POP JUMP JUMPDEST PUSH1 0x0 DUP1 MLOAD PUSH1 0x20 PUSH2 0x3DCC DUP4 CODECOPY DUP2 MLOAD SWAP2 MSTORE PUSH2 0x146D DUP2 PUSH2 0x1CCB JUMP JUMPDEST PUSH1 0x2 PUSH2 0x147A DUP4 DUP6 DUP4 PUSH2 0x3888 JUMP JUMPDEST POP PUSH32 0xF9C7803E94E0D3C02900D8A90893A6D5E90DD04D32A4CFE825520F82BF9F32F6 DUP4 DUP4 PUSH1 0x40 MLOAD PUSH2 0x14AC SWAP3 SWAP2 SWAP1 PUSH2 0x399C JUMP JUMPDEST PUSH1 0x40 MLOAD DUP1 SWAP2 SUB SWAP1 LOG1 POP POP POP JUMP JUMPDEST PUSH1 0x40 DUP1 MLOAD DUP3 DUP2 MSTORE PUSH1 0x5 DUP4 SWAP1 SHL DUP1 DUP3 ADD PUSH1 0x20 ADD SWAP1 SWAP3 MSTORE PUSH1 0x60 SWAP2 JUMPDEST DUP1 ISZERO PUSH2 0x14FD JUMPI PUSH1 0x1F NOT DUP1 DUP3 ADD SWAP2 DUP7 ADD ADD CALLDATALOAD PUSH1 0x0 PUSH2 0x14EE DUP3 PUSH2 0x1823 JUMP JUMPDEST DUP5 DUP5 ADD PUSH1 0x20 ADD MSTORE POP PUSH2 0x14D2 SWAP1 POP JUMP JUMPDEST POP SWAP4 SWAP3 POP POP POP JUMP JUMPDEST PUSH1 0x0 DUP1 PUSH2 0x1510 PUSH2 0x25B0 JUMP JUMPDEST SLOAD PUSH1 0xFF AND SWAP3 SWAP2 POP POP JUMP JUMPDEST PUSH1 0x0 PUSH2 0x905 DUP3 PUSH2 0x1F05 JUMP JUMPDEST PUSH1 0x0 PUSH1 0x1 PUSH1 0x1 PUSH1 0xA0 SHL SUB DUP3 AND PUSH2 0x1545 JUMPI PUSH2 0x1545 PUSH4 0x23D3AD81 PUSH1 0xE2 SHL PUSH2 0x1E20 JUMP JUMPDEST PUSH1 0x1 PUSH1 0x1 PUSH1 0x40 SHL SUB PUSH2 0x1555 PUSH2 0x1E2A JUMP JUMPDEST PUSH1 0x5 ADD PUSH1 0x0 DUP5 PUSH1 0x1 PUSH1 0x1 PUSH1 0xA0 SHL SUB AND PUSH1 0x1 PUSH1 0x1 PUSH1 0xA0 SHL SUB AND DUP2 MSTORE PUSH1 0x20 ADD SWAP1 DUP2 MSTORE PUSH1 0x20 ADD PUSH1 0x0 KECCAK256 SLOAD AND SWAP1 POP SWAP2 SWAP1 POP JUMP JUMPDEST PUSH1 0x0 DUP1 MLOAD PUSH1 0x20 PUSH2 0x3DCC DUP4 CODECOPY DUP2 MLOAD SWAP2 MSTORE PUSH2 0x159C DUP2 PUSH2 0x1CCB JUMP JUMPDEST PUSH2 0xE44 PUSH2 0x25D4 JUMP JUMPDEST PUSH1 0x60 PUSH1 0x0 NOT PUSH2 0x15B1 PUSH2 0x1EFF JUMP JUMPDEST EQ PUSH2 0x15C6 JUMPI PUSH2 0x15C6 PUSH4 0xBDBA09D7 PUSH1 0xE0 SHL PUSH2 0x1E20 JUMP JUMPDEST PUSH1 0x0 DUP1 PUSH2 0x15D1 PUSH2 0x261B JUMP JUMPDEST SWAP1 POP PUSH1 0x60 DUP2 DUP4 EQ PUSH2 0x15EA JUMPI PUSH2 0x15E7 DUP6 DUP5 DUP5 PUSH2 0x262B JUMP JUMPDEST SWAP1 POP JUMPDEST SWAP5 SWAP4 POP POP POP POP JUMP JUMPDEST PUSH1 0x0 DUP1 PUSH2 0x15FD PUSH2 0x2084 JUMP JUMPDEST PUSH1 0x0 SWAP5 DUP6 MSTORE PUSH1 0x20 SWAP1 DUP2 MSTORE PUSH1 0x40 DUP1 DUP7 KECCAK256 PUSH1 0x1 PUSH1 0x1 PUSH1 0xA0 SHL SUB SWAP6 SWAP1 SWAP6 AND DUP7 MSTORE SWAP4 SWAP1 MSTORE POP POP SWAP1 KECCAK256 SLOAD PUSH1 0xFF AND SWAP1 JUMP JUMPDEST PUSH1 0x60 PUSH1 0x4 DUP1 SLOAD PUSH2 0x968 SWAP1 PUSH2 0x36CE JUMP JUMPDEST PUSH1 0x0 DUP1 MLOAD PUSH1 0x20 PUSH2 0x3DCC DUP4 CODECOPY DUP2 MLOAD SWAP2 MSTORE PUSH2 0x164F DUP2 PUSH2 0x1CCB JUMP JUMPDEST PUSH1 0x1 DUP3 SWAP1 SSTORE PUSH1 0x40 MLOAD DUP3 DUP2 MSTORE PUSH32 0x5A608A926CBC5E51DD142232855AF48A512E7B6C9B23BF9BA9475F58FE108B7E SWAP1 PUSH1 0x20 ADD JUMPDEST PUSH1 0x40 MLOAD DUP1 SWAP2 SUB SWAP1 LOG1 POP POP JUMP JUMPDEST PUSH1 0x60 PUSH2 0x1699 DUP5 DUP5 DUP5 PUSH2 0x262B JUMP JUMPDEST SWAP1 POP JUMPDEST SWAP4 SWAP3 POP POP POP JUMP JUMPDEST DUP1 PUSH2 0x16AC PUSH2 0x1E2A JUMP JUMPDEST CALLER PUSH1 0x0 DUP2 DUP2 MSTORE PUSH1 0x7 SWAP3 SWAP1 SWAP3 ADD PUSH1 0x20 SWAP1 DUP2 MSTORE PUSH1 0x40 DUP1 DUP5 KECCAK256 PUSH1 0x1 PUSH1 0x1 PUSH1 0xA0 SHL SUB DUP9 AND DUP1 DUP7 MSTORE SWAP1 DUP4 MSTORE SWAP4 DUP2 SWAP1 KECCAK256 DUP1 SLOAD PUSH1 0xFF NOT AND SWAP6 ISZERO ISZERO SWAP6 SWAP1 SWAP6 OR SWAP1 SWAP5 SSTORE SWAP3 MLOAD DUP5 ISZERO ISZERO DUP2 MSTORE SWAP2 SWAP3 SWAP1 SWAP2 PUSH32 0x17307EAB39AB6107E8899845AD3D59BD9653F200F220920489CA2B5937696C31 SWAP2 ADD PUSH1 0x40 MLOAD DUP1 SWAP2 SUB SWAP1 LOG3 POP POP JUMP JUMPDEST PUSH2 0x172B DUP5 DUP5 DUP5 PUSH2 0xA7C JUMP JUMPDEST PUSH1 0x1 PUSH1 0x1 PUSH1 0xA0 SHL SUB DUP4 AND EXTCODESIZE ISZERO PUSH2 0xE63 JUMPI PUSH2 0x1747 DUP5 DUP5 DUP5 DUP5 PUSH2 0x2781 JUMP JUMPDEST PUSH2 0xE63 JUMPI PUSH2 0xE63 PUSH4 0x68D2BF6B PUSH1 0xE1 SHL PUSH2 0x1E20 JUMP JUMPDEST PUSH1 0x0 DUP1 MLOAD PUSH1 0x20 PUSH2 0x3D8C DUP4 CODECOPY DUP2 MLOAD SWAP2 MSTORE PUSH2 0x1773 DUP2 PUSH2 0x1CCB JUMP JUMPDEST PUSH2 0x177C DUP4 PUSH2 0x1D98 JUMP JUMPDEST PUSH2 0x1799 JUMPI PUSH1 0x40 MLOAD PUSH4 0xC1AB6DC1 PUSH1 0xE0 SHL DUP2 MSTORE PUSH1 0x4 ADD PUSH1 0x40 MLOAD DUP1 SWAP2 SUB SWAP1 REVERT JUMPDEST PUSH1 0x0 DUP4 DUP2 MSTORE PUSH1 0x6 PUSH1 0x20 MSTORE PUSH1 0x40 SWAP1 KECCAK256 SLOAD PUSH1 0xFF AND ISZERO PUSH2 0x17C9 JUMPI PUSH1 0x40 MLOAD PUSH4 0xB087BBF3 PUSH1 0xE0 SHL DUP2 MSTORE PUSH1 0x4 ADD PUSH1 0x40 MLOAD DUP1 SWAP2 SUB SWAP1 REVERT JUMPDEST PUSH1 0x0 DUP4 DUP2 MSTORE PUSH1 0x5 PUSH1 0x20 MSTORE PUSH1 0x40 SWAP1 KECCAK256 DUP3 SWAP1 PUSH2 0x17E3 DUP3 DUP3 PUSH2 0x39F6 JUMP JUMPDEST SWAP1 POP POP DUP3 PUSH32 0xCB51969318CEE471D3ABC5EE4D81EA83E4748E5063261189CBF68810B17066CF DUP4 PUSH1 0x40 MLOAD PUSH2 0x1816 SWAP2 SWAP1 PUSH2 0x3B58 JUMP JUMPDEST PUSH1 0x40 MLOAD DUP1 SWAP2 SUB SWAP1 LOG2 POP POP POP JUMP JUMPDEST PUSH2 0x182B PUSH2 0x2F2D JUMP JUMPDEST PUSH2 0x1833 PUSH2 0x1EFF JUMP JUMPDEST DUP3 GT ISZERO PUSH2 0x1843 JUMPI PUSH2 0x905 DUP3 PUSH2 0x2863 JUMP JUMPDEST PUSH2 0x184B PUSH2 0x261B JUMP JUMPDEST DUP3 LT ISZERO PUSH2 0x1875 JUMPI JUMPDEST PUSH2 0x185C DUP3 PUSH2 0x288E JUMP JUMPDEST PUSH2 0x186C JUMPI PUSH1 0x0 NOT SWAP1 SWAP2 ADD SWAP1 PUSH2 0x1853 JUMP JUMPDEST PUSH2 0x905 DUP3 PUSH2 0x2863 JUMP JUMPDEST SWAP2 SWAP1 POP JUMP JUMPDEST PUSH1 0x60 PUSH2 0x1885 DUP3 PUSH2 0x1D98 JUMP JUMPDEST PUSH2 0x18A2 JUMPI PUSH1 0x40 MLOAD PUSH4 0xC1AB6DC1 PUSH1 0xE0 SHL DUP2 MSTORE PUSH1 0x4 ADD PUSH1 0x40 MLOAD DUP1 SWAP2 SUB SWAP1 REVERT JUMPDEST PUSH1 0x2 PUSH2 0x18AD DUP4 PUSH2 0x28AE JUMP JUMPDEST PUSH1 0x40 MLOAD PUSH1 0x20 ADD PUSH2 0x18BE SWAP3 SWAP2 SWAP1 PUSH2 0x3BFA JUMP JUMPDEST PUSH1 0x40 MLOAD PUSH1 0x20 DUP2 DUP4 SUB SUB DUP2 MSTORE SWAP1 PUSH1 0x40 MSTORE SWAP1 POP SWAP2 SWAP1 POP JUMP JUMPDEST PUSH2 0x18DD DUP3 PUSH2 0xC4C JUMP JUMPDEST PUSH2 0x18E6 DUP2 PUSH2 0x1CCB JUMP JUMPDEST PUSH2 0xE63 DUP4 DUP4 PUSH2 0x21FB JUMP JUMPDEST PUSH2 0x1929 PUSH1 0x40 MLOAD DUP1 PUSH1 0xC0 ADD PUSH1 0x40 MSTORE DUP1 PUSH1 0x60 DUP2 MSTORE PUSH1 0x20 ADD PUSH1 0x60 DUP2 MSTORE PUSH1 0x20 ADD PUSH1 0x60 DUP2 MSTORE PUSH1 0x20 ADD PUSH1 0x0 DUP2 MSTORE PUSH1 0x20 ADD PUSH1 0x0 DUP2 MSTORE PUSH1 0x20 ADD PUSH1 0x0 DUP2 MSTORE POP SWAP1 JUMP JUMPDEST PUSH2 0x1932 DUP3 PUSH2 0x1D98 JUMP JUMPDEST PUSH2 0x194F JUMPI PUSH1 0x40 MLOAD PUSH4 0xC1AB6DC1 PUSH1 0xE0 SHL DUP2 MSTORE PUSH1 0x4 ADD PUSH1 0x40 MLOAD DUP1 SWAP2 SUB SWAP1 REVERT JUMPDEST PUSH1 0x0 DUP3 DUP2 MSTORE PUSH1 0x5 PUSH1 0x20 MSTORE PUSH1 0x40 SWAP1 DUP2 SWAP1 KECCAK256 DUP2 MLOAD PUSH1 0xC0 DUP2 ADD SWAP1 SWAP3 MSTORE DUP1 SLOAD DUP3 SWAP1 DUP3 SWAP1 PUSH2 0x1977 SWAP1 PUSH2 0x36CE JUMP JUMPDEST DUP1 PUSH1 0x1F ADD PUSH1 0x20 DUP1 SWAP2 DIV MUL PUSH1 0x20 ADD PUSH1 0x40 MLOAD SWAP1 DUP2 ADD PUSH1 0x40 MSTORE DUP1 SWAP3 SWAP2 SWAP1 DUP2 DUP2 MSTORE PUSH1 0x20 ADD DUP3 DUP1 SLOAD PUSH2 0x19A3 SWAP1 PUSH2 0x36CE JUMP JUMPDEST DUP1 ISZERO PUSH2 0x19F0 JUMPI DUP1 PUSH1 0x1F LT PUSH2 0x19C5 JUMPI PUSH2 0x100 DUP1 DUP4 SLOAD DIV MUL DUP4 MSTORE SWAP2 PUSH1 0x20 ADD SWAP2 PUSH2 0x19F0 JUMP JUMPDEST DUP3 ADD SWAP2 SWAP1 PUSH1 0x0 MSTORE PUSH1 0x20 PUSH1 0x0 KECCAK256 SWAP1 JUMPDEST DUP2 SLOAD DUP2 MSTORE SWAP1 PUSH1 0x1 ADD SWAP1 PUSH1 0x20 ADD DUP1 DUP4 GT PUSH2 0x19D3 JUMPI DUP3 SWAP1 SUB PUSH1 0x1F AND DUP3 ADD SWAP2 JUMPDEST POP POP POP POP POP DUP2 MSTORE PUSH1 0x20 ADD PUSH1 0x1 DUP3 ADD DUP1 SLOAD PUSH2 0x1A09 SWAP1 PUSH2 0x36CE JUMP JUMPDEST DUP1 PUSH1 0x1F ADD PUSH1 0x20 DUP1 SWAP2 DIV MUL PUSH1 0x20 ADD PUSH1 0x40 MLOAD SWAP1 DUP2 ADD PUSH1 0x40 MSTORE DUP1 SWAP3 SWAP2 SWAP1 DUP2 DUP2 MSTORE PUSH1 0x20 ADD DUP3 DUP1 SLOAD PUSH2 0x1A35 SWAP1 PUSH2 0x36CE JUMP JUMPDEST DUP1 ISZERO PUSH2 0x1A82 JUMPI DUP1 PUSH1 0x1F LT PUSH2 0x1A57 JUMPI PUSH2 0x100 DUP1 DUP4 SLOAD DIV MUL DUP4 MSTORE SWAP2 PUSH1 0x20 ADD SWAP2 PUSH2 0x1A82 JUMP JUMPDEST DUP3 ADD SWAP2 SWAP1 PUSH1 0x0 MSTORE PUSH1 0x20 PUSH1 0x0 KECCAK256 SWAP1 JUMPDEST DUP2 SLOAD DUP2 MSTORE SWAP1 PUSH1 0x1 ADD SWAP1 PUSH1 0x20 ADD DUP1 DUP4 GT PUSH2 0x1A65 JUMPI DUP3 SWAP1 SUB PUSH1 0x1F AND DUP3 ADD SWAP2 JUMPDEST POP POP POP POP POP DUP2 MSTORE PUSH1 0x20 ADD PUSH1 0x2 DUP3 ADD DUP1 SLOAD PUSH2 0x1A9B SWAP1 PUSH2 0x36CE JUMP JUMPDEST DUP1 PUSH1 0x1F ADD PUSH1 0x20 DUP1 SWAP2 DIV MUL PUSH1 0x20 ADD PUSH1 0x40 MLOAD SWAP1 DUP2 ADD PUSH1 0x40 MSTORE DUP1 SWAP3 SWAP2 SWAP1 DUP2 DUP2 MSTORE PUSH1 0x20 ADD DUP3 DUP1 SLOAD PUSH2 0x1AC7 SWAP1 PUSH2 0x36CE JUMP JUMPDEST DUP1 ISZERO PUSH2 0x1B14 JUMPI DUP1 PUSH1 0x1F LT PUSH2 0x1AE9 JUMPI PUSH2 0x100 DUP1 DUP4 SLOAD DIV MUL DUP4 MSTORE SWAP2 PUSH1 0x20 ADD SWAP2 PUSH2 0x1B14 JUMP JUMPDEST DUP3 ADD SWAP2 SWAP1 PUSH1 0x0 MSTORE PUSH1 0x20 PUSH1 0x0 KECCAK256 SWAP1 JUMPDEST DUP2 SLOAD DUP2 MSTORE SWAP1 PUSH1 0x1 ADD SWAP1 PUSH1 0x20 ADD DUP1 DUP4 GT PUSH2 0x1AF7 JUMPI DUP3 SWAP1 SUB PUSH1 0x1F AND DUP3 ADD SWAP2 JUMPDEST POP POP POP POP POP DUP2 MSTORE PUSH1 0x20 ADD PUSH1 0x3 DUP3 ADD SLOAD DUP2 MSTORE PUSH1 0x20 ADD PUSH1 0x4 DUP3 ADD SLOAD DUP2 MSTORE PUSH1 0x20 ADD PUSH1 0x5 DUP3 ADD SLOAD DUP2 MSTORE POP POP SWAP1 POP SWAP2 SWAP1 POP JUMP JUMPDEST PUSH1 0x0 DUP1 MLOAD PUSH1 0x20 PUSH2 0x3DCC DUP4 CODECOPY DUP2 MLOAD SWAP2 MSTORE PUSH2 0x1B5A DUP2 PUSH2 0x1CCB JUMP JUMPDEST PUSH1 0x1 PUSH1 0x1 PUSH1 0xA0 SHL SUB DUP4 AND PUSH2 0x1B81 JUMPI PUSH1 0x40 MLOAD PUSH4 0xD92E233D PUSH1 0xE0 SHL DUP2 MSTORE PUSH1 0x4 ADD PUSH1 0x40 MLOAD DUP1 SWAP2 SUB SWAP1 REVERT JUMPDEST DUP2 PUSH1 0x0 SUB PUSH2 0x1BA2 JUMPI PUSH1 0x40 MLOAD PUSH4 0xC1AB6DC1 PUSH1 0xE0 SHL DUP2 MSTORE PUSH1 0x4 ADD PUSH1 0x40 MLOAD DUP1 SWAP2 SUB SWAP1 REVERT JUMPDEST PUSH2 0x378 DUP3 PUSH2 0x1BAE PUSH2 0xA3F JUMP JUMPDEST PUSH2 0x1BB8 SWAP2 SWAP1 PUSH2 0x3757 JUMP JUMPDEST GT ISZERO PUSH2 0x1BD7 JUMPI PUSH1 0x40 MLOAD PUSH4 0xD05CB609 PUSH1 0xE0 SHL DUP2 MSTORE PUSH1 0x4 ADD PUSH1 0x40 MLOAD DUP1 SWAP2 SUB SWAP1 REVERT JUMPDEST PUSH2 0x1BE1 DUP4 DUP4 PUSH2 0x211A JUMP JUMPDEST DUP3 PUSH1 0x1 PUSH1 0x1 PUSH1 0xA0 SHL SUB AND PUSH32 0x30385C845B448A36257A6A1716E6AD2E1BC2CBE333CDE1E69FE849AD6511ADFE DUP4 PUSH1 0x40 MLOAD PUSH2 0x1816 SWAP2 DUP2 MSTORE PUSH1 0x20 ADD SWAP1 JUMP JUMPDEST PUSH1 0x0 PUSH2 0x1C26 PUSH2 0x1E2A JUMP JUMPDEST PUSH1 0x1 PUSH1 0x1 PUSH1 0xA0 SHL SUB SWAP4 DUP5 AND PUSH1 0x0 SWAP1 DUP2 MSTORE PUSH1 0x7 SWAP2 SWAP1 SWAP2 ADD PUSH1 0x20 SWAP1 DUP2 MSTORE PUSH1 0x40 DUP1 DUP4 KECCAK256 SWAP5 SWAP1 SWAP6 AND DUP3 MSTORE SWAP3 SWAP1 SWAP3 MSTORE POP KECCAK256 SLOAD PUSH1 0xFF AND SWAP1 JUMP JUMPDEST PUSH1 0x0 DUP1 MLOAD PUSH1 0x20 PUSH2 0x3DCC DUP4 CODECOPY DUP2 MLOAD SWAP2 MSTORE PUSH2 0x1C71 DUP2 PUSH2 0x1CCB JUMP JUMPDEST PUSH1 0x0 DUP3 SWAP1 SSTORE PUSH1 0x40 MLOAD DUP3 DUP2 MSTORE PUSH32 0x525B762709CC2A983AEC5CCDFD807A061F993C91090B5BCD7DA92CA254976AAA SWAP1 PUSH1 0x20 ADD PUSH2 0x1680 JUMP JUMPDEST PUSH1 0x0 PUSH1 0x1 PUSH1 0x1 PUSH1 0xE0 SHL SUB NOT DUP3 AND PUSH4 0x152A902D PUSH1 0xE1 SHL EQ DUP1 PUSH2 0x905 JUMPI POP PUSH2 0x905 DUP3 PUSH2 0x2940 JUMP JUMPDEST PUSH2 0xE44 DUP2 CALLER PUSH2 0x2975 JUMP JUMPDEST PUSH32 0xDAEDC9AB023613A7CAF35E703657E986CCFAD7E3EB0AF93A2853F8D65DD86B00 PUSH2 0x2710 PUSH1 0x1 PUSH1 0x1 PUSH1 0x60 SHL SUB DUP4 AND DUP2 LT ISZERO PUSH2 0x1D35 JUMPI PUSH1 0x40 MLOAD PUSH4 0x6F483D09 PUSH1 0xE0 SHL DUP2 MSTORE PUSH1 0x1 PUSH1 0x1 PUSH1 0x60 SHL SUB DUP5 AND PUSH1 0x4 DUP3 ADD MSTORE PUSH1 0x24 DUP2 ADD DUP3 SWAP1 MSTORE PUSH1 0x44 ADD PUSH2 0xF6A JUMP JUMPDEST PUSH1 0x1 PUSH1 0x1 PUSH1 0xA0 SHL SUB DUP5 AND PUSH2 0x1D5F JUMPI PUSH1 0x0 PUSH1 0x40 MLOAD PUSH4 0x5B6CC805 PUSH1 0xE1 SHL DUP2 MSTORE PUSH1 0x4 ADD PUSH2 0xF6A SWAP2 SWAP1 PUSH2 0x305D JUMP JUMPDEST POP PUSH1 0x40 DUP1 MLOAD DUP1 DUP3 ADD SWAP1 SWAP2 MSTORE PUSH1 0x1 PUSH1 0x1 PUSH1 0xA0 SHL SUB SWAP1 SWAP4 AND DUP1 DUP5 MSTORE PUSH1 0x1 PUSH1 0x1 PUSH1 0x60 SHL SUB SWAP1 SWAP3 AND PUSH1 0x20 SWAP1 SWAP4 ADD DUP4 SWAP1 MSTORE PUSH1 0x1 PUSH1 0xA0 SHL SWAP1 SWAP3 MUL OR SWAP1 SSTORE JUMP JUMPDEST PUSH1 0x0 PUSH2 0x1DA2 PUSH2 0x1EFF JUMP JUMPDEST DUP3 GT ISZERO PUSH2 0x1DCC JUMPI PUSH2 0x905 PUSH2 0x1DB4 PUSH2 0x1E2A JUMP JUMPDEST PUSH1 0x0 DUP5 DUP2 MSTORE PUSH1 0x4 SWAP2 SWAP1 SWAP2 ADD PUSH1 0x20 MSTORE PUSH1 0x40 SWAP1 KECCAK256 SLOAD PUSH2 0x29AE JUMP JUMPDEST PUSH2 0x1DD4 PUSH2 0x1E2A JUMP JUMPDEST SLOAD DUP3 LT ISZERO PUSH2 0x1875 JUMPI PUSH1 0x0 JUMPDEST PUSH2 0x1DE7 PUSH2 0x1E2A JUMP JUMPDEST PUSH1 0x0 DUP5 DUP2 MSTORE PUSH1 0x4 SWAP2 SWAP1 SWAP2 ADD PUSH1 0x20 MSTORE PUSH1 0x40 DUP2 KECCAK256 SLOAD SWAP2 POP DUP2 SWAP1 SUB PUSH2 0x1E13 JUMPI PUSH2 0x1E0C DUP4 PUSH2 0x3C91 JUMP JUMPDEST SWAP3 POP PUSH2 0x1DDF JUMP JUMPDEST PUSH1 0x1 PUSH1 0xE0 SHL AND ISZERO SWAP3 SWAP2 POP POP JUMP JUMPDEST DUP1 PUSH1 0x0 MSTORE PUSH1 0x4 PUSH1 0x0 REVERT JUMPDEST PUSH32 0x2569078DFB4B0305704D3008E7403993AE9601B85F7AE5E742DE3DE8F8011C40 SWAP1 JUMP JUMPDEST PUSH1 0x0 PUSH2 0x1E59 DUP4 PUSH2 0x151A JUMP JUMPDEST SWAP1 POP DUP2 DUP1 ISZERO PUSH2 0x1E71 JUMPI POP CALLER PUSH1 0x1 PUSH1 0x1 PUSH1 0xA0 SHL SUB DUP3 AND EQ ISZERO JUMPDEST ISZERO PUSH2 0x1E94 JUMPI PUSH2 0x1E80 DUP2 CALLER PUSH2 0x1C1C JUMP JUMPDEST PUSH2 0x1E94 JUMPI PUSH2 0x1E94 PUSH4 0x67D9DCA1 PUSH1 0xE1 SHL PUSH2 0x1E20 JUMP JUMPDEST DUP4 PUSH2 0x1E9D PUSH2 0x1E2A JUMP JUMPDEST PUSH1 0x0 DUP6 DUP2 MSTORE PUSH1 0x6 SWAP2 SWAP1 SWAP2 ADD PUSH1 0x20 MSTORE PUSH1 0x40 DUP1 DUP3 KECCAK256 DUP1 SLOAD PUSH1 0x1 PUSH1 0x1 PUSH1 0xA0 SHL SUB NOT AND PUSH1 0x1 PUSH1 0x1 PUSH1 0xA0 SHL SUB SWAP5 DUP6 AND OR SWAP1 SSTORE MLOAD DUP6 SWAP3 DUP8 DUP2 AND SWAP3 SWAP1 DUP6 AND SWAP2 PUSH32 0x8C5BE1E5EBEC7D5BD14F71427D1E84F3DD0314C0F7B2291E5B200AC8C7C3B925 SWAP2 SWAP1 LOG4 POP POP POP POP JUMP JUMPDEST PUSH1 0x0 NOT SWAP1 JUMP JUMPDEST PUSH1 0x0 PUSH2 0x1F0F PUSH2 0x1E2A JUMP JUMPDEST PUSH1 0x0 DUP4 DUP2 MSTORE PUSH1 0x4 SWAP2 SWAP1 SWAP2 ADD PUSH1 0x20 MSTORE PUSH1 0x40 SWAP1 KECCAK256 SLOAD SWAP1 POP PUSH2 0x1F2C PUSH2 0x1EFF JUMP JUMPDEST DUP3 GT ISZERO PUSH2 0x1F56 JUMPI PUSH2 0x1F3C DUP2 PUSH2 0x29AE JUMP JUMPDEST ISZERO PUSH2 0x1F46 JUMPI SWAP2 SWAP1 POP JUMP JUMPDEST PUSH2 0x1F56 PUSH4 0x6F96CDA1 PUSH1 0xE1 SHL PUSH2 0x1E20 JUMP JUMPDEST DUP1 PUSH1 0x0 SUB PUSH2 0x1FCF JUMPI PUSH2 0x1F66 PUSH2 0x1E2A JUMP JUMPDEST SLOAD DUP3 LT PUSH2 0x1F7D JUMPI PUSH2 0x1F7D PUSH4 0x6F96CDA1 PUSH1 0xE1 SHL PUSH2 0x1E20 JUMP JUMPDEST PUSH2 0x1F85 PUSH2 0x1E2A JUMP JUMPDEST PUSH1 0x0 NOT SWAP1 SWAP3 ADD PUSH1 0x0 DUP2 DUP2 MSTORE PUSH1 0x4 SWAP4 SWAP1 SWAP4 ADD PUSH1 0x20 MSTORE PUSH1 0x40 SWAP1 SWAP3 KECCAK256 SLOAD SWAP1 POP DUP1 ISZERO PUSH2 0x1F7D JUMPI PUSH1 0x1 PUSH1 0xE0 SHL DUP2 AND PUSH1 0x0 SUB PUSH2 0x1FBA JUMPI SWAP2 SWAP1 POP JUMP JUMPDEST PUSH2 0x1FCA PUSH4 0x6F96CDA1 PUSH1 0xE1 SHL PUSH2 0x1E20 JUMP JUMPDEST PUSH2 0x1F7D JUMP JUMPDEST PUSH1 0x1 PUSH1 0xE0 SHL DUP2 AND PUSH1 0x0 SUB PUSH2 0x1FE2 JUMPI SWAP2 SWAP1 POP JUMP JUMPDEST PUSH2 0x1875 PUSH4 0x6F96CDA1 PUSH1 0xE1 SHL PUSH2 0x1E20 JUMP JUMPDEST PUSH1 0x0 DUP1 PUSH1 0x0 PUSH2 0x1FFF PUSH2 0x1E2A JUMP JUMPDEST PUSH1 0x0 SWAP5 DUP6 MSTORE PUSH1 0x6 ADD PUSH1 0x20 MSTORE POP POP PUSH1 0x40 SWAP1 SWAP2 KECCAK256 DUP1 SLOAD SWAP1 SWAP3 SWAP1 SWAP2 POP JUMP JUMPDEST PUSH1 0x1 PUSH1 0x1 PUSH1 0xA0 SHL SUB DUP4 AND ISZERO DUP1 ISZERO SWAP1 PUSH2 0x2044 JUMPI POP DUP4 PUSH1 0x1 PUSH1 0x1 PUSH1 0xA0 SHL SUB AND DUP4 PUSH1 0x1 PUSH1 0x1 PUSH1 0xA0 SHL SUB AND EQ ISZERO JUMPDEST ISZERO PUSH2 0x207F JUMPI PUSH1 0x1 SLOAD DUP2 PUSH2 0x2056 DUP6 PUSH2 0x1525 JUMP JUMPDEST PUSH2 0x2060 SWAP2 SWAP1 PUSH2 0x3757 JUMP JUMPDEST GT ISZERO PUSH2 0x207F JUMPI PUSH1 0x40 MLOAD PUSH4 0x33490191 PUSH1 0xE0 SHL DUP2 MSTORE PUSH1 0x4 ADD PUSH1 0x40 MLOAD DUP1 SWAP2 SUB SWAP1 REVERT JUMPDEST PUSH2 0xE63 JUMP JUMPDEST PUSH32 0x2DD7BC7DEC4DCEEDDA775E58DD541E08A116C6C53815C0BD028192F7B626800 SWAP1 JUMP JUMPDEST PUSH2 0x20B0 PUSH2 0x1505 JUMP JUMPDEST ISZERO PUSH2 0x20CE JUMPI PUSH1 0x40 MLOAD PUSH4 0xD93C0665 PUSH1 0xE0 SHL DUP2 MSTORE PUSH1 0x4 ADD PUSH1 0x40 MLOAD DUP1 SWAP2 SUB SWAP1 REVERT JUMPDEST JUMP JUMPDEST PUSH32 0x9B779B17422D0DF92223018B32B4D1FA46E071723D6817E2486D003BECC55F00 DUP1 SLOAD PUSH1 0x1 NOT ADD PUSH2 0x2114 JUMPI PUSH1 0x40 MLOAD PUSH4 0x3EE5AEB5 PUSH1 0xE0 SHL DUP2 MSTORE PUSH1 0x4 ADD PUSH1 0x40 MLOAD DUP1 SWAP2 SUB SWAP1 REVERT JUMPDEST PUSH1 0x2 SWAP1 SSTORE JUMP JUMPDEST PUSH2 0xA3B DUP3 DUP3 PUSH1 0x40 MLOAD DUP1 PUSH1 0x20 ADD PUSH1 0x40 MSTORE DUP1 PUSH1 0x0 DUP2 MSTORE POP PUSH2 0x29C4 JUMP JUMPDEST PUSH1 0x1 PUSH32 0x9B779B17422D0DF92223018B32B4D1FA46E071723D6817E2486D003BECC55F00 SSTORE JUMP JUMPDEST PUSH1 0x0 DUP1 PUSH2 0x2165 PUSH2 0x2084 JUMP JUMPDEST SWAP1 POP PUSH2 0x2171 DUP5 DUP5 PUSH2 0x15F2 JUMP JUMPDEST PUSH2 0x21F1 JUMPI PUSH1 0x0 DUP5 DUP2 MSTORE PUSH1 0x20 DUP3 DUP2 MSTORE PUSH1 0x40 DUP1 DUP4 KECCAK256 PUSH1 0x1 PUSH1 0x1 PUSH1 0xA0 SHL SUB DUP8 AND DUP5 MSTORE SWAP1 SWAP2 MSTORE SWAP1 KECCAK256 DUP1 SLOAD PUSH1 0xFF NOT AND PUSH1 0x1 OR SWAP1 SSTORE PUSH2 0x21A7 CALLER SWAP1 JUMP JUMPDEST PUSH1 0x1 PUSH1 0x1 PUSH1 0xA0 SHL SUB AND DUP4 PUSH1 0x1 PUSH1 0x1 PUSH1 0xA0 SHL SUB AND DUP6 PUSH32 0x2F8788117E7EFF1D82E926EC794901D17C78024A50270940304540A733656F0D PUSH1 0x40 MLOAD PUSH1 0x40 MLOAD DUP1 SWAP2 SUB SWAP1 LOG4 PUSH1 0x1 SWAP2 POP POP PUSH2 0x905 JUMP JUMPDEST PUSH1 0x0 SWAP2 POP POP PUSH2 0x905 JUMP JUMPDEST PUSH1 0x0 DUP1 PUSH2 0x2206 PUSH2 0x2084 JUMP JUMPDEST SWAP1 POP PUSH2 0x2212 DUP5 DUP5 PUSH2 0x15F2 JUMP JUMPDEST ISZERO PUSH2 0x21F1 JUMPI PUSH1 0x0 DUP5 DUP2 MSTORE PUSH1 0x20 DUP3 DUP2 MSTORE PUSH1 0x40 DUP1 DUP4 KECCAK256 PUSH1 0x1 PUSH1 0x1 PUSH1 0xA0 SHL SUB DUP8 AND DUP1 DUP6 MSTORE SWAP3 MSTORE DUP1 DUP4 KECCAK256 DUP1 SLOAD PUSH1 0xFF NOT AND SWAP1 SSTORE MLOAD CALLER SWAP3 DUP8 SWAP2 PUSH32 0xF6391F5C32D9C69D2A47EA670B442974B53935D1EDC7FD64EB21E047A839171B SWAP2 SWAP1 LOG4 PUSH1 0x1 SWAP2 POP POP PUSH2 0x905 JUMP JUMPDEST PUSH2 0x227B PUSH2 0x2A38 JUMP JUMPDEST PUSH1 0x0 PUSH2 0x2285 PUSH2 0x25B0 JUMP JUMPDEST DUP1 SLOAD PUSH1 0xFF NOT AND DUP2 SSTORE SWAP1 POP PUSH32 0x5DB9EE0A495BF2E6FF9C91A7834C1BA4FDD244A5E8AA4E537BD38AEAE4B073AA CALLER JUMPDEST PUSH1 0x40 MLOAD PUSH2 0x22BF SWAP2 SWAP1 PUSH2 0x305D JUMP JUMPDEST PUSH1 0x40 MLOAD DUP1 SWAP2 SUB SWAP1 LOG1 POP JUMP JUMPDEST PUSH32 0xEE151C8401928DC223602BB187AFF91B9A56C7CAE5476EF1B3287B085A16C85F SWAP1 JUMP JUMPDEST PUSH1 0x0 DUP1 PUSH32 0xF0C57E16840DF040F15088DC2F81FE391C3923BEC73E23A9662EFC9C229C6A00 PUSH2 0x905 JUMP JUMPDEST PUSH2 0x231F PUSH2 0x22CA JUMP JUMPDEST SLOAD PUSH2 0x100 SWAP1 DIV PUSH1 0xFF AND PUSH2 0x2344 JUMPI PUSH1 0x40 MLOAD PUSH3 0x461BCD PUSH1 0xE5 SHL DUP2 MSTORE PUSH1 0x4 ADD PUSH2 0xF6A SWAP1 PUSH2 0x3CA8 JUMP JUMPDEST PUSH2 0xA3B DUP3 DUP3 PUSH2 0x2A5D JUMP JUMPDEST PUSH2 0x20CE PUSH2 0x2AE5 JUMP JUMPDEST PUSH2 0x235E PUSH2 0x2AE5 JUMP JUMPDEST PUSH2 0x20CE PUSH2 0x2B0A JUMP JUMPDEST ADDRESS PUSH1 0x1 PUSH1 0x1 PUSH1 0xA0 SHL SUB PUSH32 0x0 AND EQ DUP1 PUSH2 0x23ED JUMPI POP PUSH32 0x0 PUSH1 0x1 PUSH1 0x1 PUSH1 0xA0 SHL SUB AND PUSH2 0x23E1 PUSH1 0x0 DUP1 MLOAD PUSH1 0x20 PUSH2 0x3DAC DUP4 CODECOPY DUP2 MLOAD SWAP2 MSTORE SLOAD PUSH1 0x1 PUSH1 0x1 PUSH1 0xA0 SHL SUB AND SWAP1 JUMP JUMPDEST PUSH1 0x1 PUSH1 0x1 PUSH1 0xA0 SHL SUB AND EQ ISZERO JUMPDEST ISZERO PUSH2 0x20CE JUMPI PUSH1 0x40 MLOAD PUSH4 0x703E46DD PUSH1 0xE1 SHL DUP2 MSTORE PUSH1 0x4 ADD PUSH1 0x40 MLOAD DUP1 SWAP2 SUB SWAP1 REVERT JUMPDEST PUSH1 0x0 DUP1 MLOAD PUSH1 0x20 PUSH2 0x3DCC DUP4 CODECOPY DUP2 MLOAD SWAP2 MSTORE PUSH2 0xA3B DUP2 PUSH2 0x1CCB JUMP JUMPDEST DUP2 PUSH1 0x1 PUSH1 0x1 PUSH1 0xA0 SHL SUB AND PUSH4 0x52D1902D PUSH1 0x40 MLOAD DUP2 PUSH4 0xFFFFFFFF AND PUSH1 0xE0 SHL DUP2 MSTORE PUSH1 0x4 ADD PUSH1 0x20 PUSH1 0x40 MLOAD DUP1 DUP4 SUB DUP2 DUP7 GAS STATICCALL SWAP3 POP POP POP DUP1 ISZERO PUSH2 0x247D JUMPI POP PUSH1 0x40 DUP1 MLOAD PUSH1 0x1F RETURNDATASIZE SWAP1 DUP2 ADD PUSH1 0x1F NOT AND DUP3 ADD SWAP1 SWAP3 MSTORE PUSH2 0x247A SWAP2 DUP2 ADD SWAP1 PUSH2 0x3CFC JUMP JUMPDEST PUSH1 0x1 JUMPDEST PUSH2 0x249C JUMPI DUP2 PUSH1 0x40 MLOAD PUSH4 0x4C9C8CE3 PUSH1 0xE0 SHL DUP2 MSTORE PUSH1 0x4 ADD PUSH2 0xF6A SWAP2 SWAP1 PUSH2 0x305D JUMP JUMPDEST PUSH1 0x0 DUP1 MLOAD PUSH1 0x20 PUSH2 0x3DAC DUP4 CODECOPY DUP2 MLOAD SWAP2 MSTORE DUP2 EQ PUSH2 0x24CD JUMPI PUSH1 0x40 MLOAD PUSH4 0x2A875269 PUSH1 0xE2 SHL DUP2 MSTORE PUSH1 0x4 DUP2 ADD DUP3 SWAP1 MSTORE PUSH1 0x24 ADD PUSH2 0xF6A JUMP JUMPDEST PUSH2 0x954 DUP4 DUP4 PUSH2 0x2B12 JUMP JUMPDEST DUP1 SELFBALANCE LT ISZERO PUSH2 0x2501 JUMPI PUSH1 0x40 MLOAD PUSH4 0xCF479181 PUSH1 0xE0 SHL DUP2 MSTORE SELFBALANCE PUSH1 0x4 DUP3 ADD MSTORE PUSH1 0x24 DUP2 ADD DUP3 SWAP1 MSTORE PUSH1 0x44 ADD PUSH2 0xF6A JUMP JUMPDEST PUSH1 0x0 DUP1 DUP4 PUSH1 0x1 PUSH1 0x1 PUSH1 0xA0 SHL SUB AND DUP4 PUSH1 0x40 MLOAD PUSH1 0x0 PUSH1 0x40 MLOAD DUP1 DUP4 SUB DUP2 DUP6 DUP8 GAS CALL SWAP3 POP POP POP RETURNDATASIZE DUP1 PUSH1 0x0 DUP2 EQ PUSH2 0x254F JUMPI PUSH1 0x40 MLOAD SWAP2 POP PUSH1 0x1F NOT PUSH1 0x3F RETURNDATASIZE ADD AND DUP3 ADD PUSH1 0x40 MSTORE RETURNDATASIZE DUP3 MSTORE RETURNDATASIZE PUSH1 0x0 PUSH1 0x20 DUP5 ADD RETURNDATACOPY PUSH2 0x2554 JUMP JUMPDEST PUSH1 0x60 SWAP2 POP JUMPDEST POP SWAP2 POP SWAP2 POP DUP2 PUSH2 0xE63 JUMPI PUSH2 0xE63 DUP2 PUSH2 0x2B68 JUMP JUMPDEST ADDRESS PUSH1 0x1 PUSH1 0x1 PUSH1 0xA0 SHL SUB PUSH32 0x0 AND EQ PUSH2 0x20CE JUMPI PUSH1 0x40 MLOAD PUSH4 0x703E46DD PUSH1 0xE1 SHL DUP2 MSTORE PUSH1 0x4 ADD PUSH1 0x40 MLOAD DUP1 SWAP2 SUB SWAP1 REVERT JUMPDEST PUSH32 0xCD5ED15C6E187E77E9AEE88184C21F4F2182AB5827CB3B7E07FBEDCD63F03300 SWAP1 JUMP JUMPDEST PUSH2 0x25DC PUSH2 0x20A8 JUMP JUMPDEST PUSH1 0x0 PUSH2 0x25E6 PUSH2 0x25B0 JUMP JUMPDEST DUP1 SLOAD PUSH1 0xFF NOT AND PUSH1 0x1 OR DUP2 SSTORE SWAP1 POP PUSH32 0x62E78CEA01BEE320CD4E420270B5EA74000D11B0C9F74754EBDBFC544B05A258 PUSH2 0x22B2 CALLER SWAP1 JUMP JUMPDEST PUSH1 0x0 PUSH2 0x2625 PUSH2 0x1E2A JUMP JUMPDEST SLOAD SWAP2 SWAP1 POP JUMP JUMPDEST PUSH1 0x60 DUP2 DUP4 LT PUSH2 0x2644 JUMPI PUSH2 0x2644 PUSH4 0x1960CCAD PUSH1 0xE1 SHL PUSH2 0x1E20 JUMP JUMPDEST PUSH1 0x0 PUSH2 0x264E PUSH2 0x261B JUMP JUMPDEST SWAP1 POP PUSH1 0x0 PUSH1 0x0 NOT PUSH2 0x265D PUSH2 0x1EFF JUMP JUMPDEST SUB PUSH2 0x2668 JUMPI DUP2 PUSH2 0x266A JUMP JUMPDEST DUP4 JUMPDEST SWAP1 POP DUP1 DUP5 LT PUSH2 0x2677 JUMPI DUP1 SWAP4 POP JUMPDEST PUSH1 0x0 PUSH2 0x2682 DUP8 PUSH2 0x1525 JUMP JUMPDEST SWAP1 POP DUP5 DUP7 LT PUSH2 0x268F JUMPI POP PUSH1 0x0 JUMPDEST DUP1 ISZERO PUSH2 0x2777 JUMPI DUP1 DUP7 DUP7 SUB GT PUSH2 0x26A3 JUMPI POP DUP5 DUP5 SUB JUMPDEST PUSH1 0x40 DUP1 MLOAD PUSH1 0x1 DUP4 ADD PUSH1 0x5 SHL DUP2 ADD SWAP2 DUP3 SWAP1 MSTORE SWAP5 POP PUSH1 0x0 PUSH2 0x26C1 DUP9 PUSH2 0x1823 JUMP JUMPDEST SWAP1 POP PUSH1 0x0 DUP2 PUSH1 0x40 ADD MLOAD PUSH2 0x26D2 JUMPI POP DUP1 MLOAD JUMPDEST PUSH1 0x0 JUMPDEST PUSH1 0x0 NOT PUSH2 0x26E0 PUSH2 0x1EFF JUMP JUMPDEST EQ PUSH2 0x270E JUMPI DUP7 DUP11 SUB PUSH2 0x26FA JUMPI PUSH2 0x26F4 PUSH2 0x1EFF JUMP JUMPDEST PUSH1 0x1 ADD SWAP10 POP JUMPDEST PUSH2 0x2702 PUSH2 0x1EFF JUMP JUMPDEST DUP11 GT ISZERO PUSH2 0x270E JUMPI PUSH1 0x0 SWAP2 POP JUMPDEST PUSH2 0x2717 DUP11 PUSH2 0x2863 JUMP JUMPDEST SWAP3 POP PUSH1 0x40 DUP4 ADD MLOAD PUSH1 0x0 DUP2 EQ PUSH2 0x272F JUMPI PUSH1 0x0 SWAP3 POP PUSH2 0x2754 JUMP JUMPDEST DUP4 MLOAD ISZERO PUSH2 0x273B JUMPI DUP4 MLOAD SWAP3 POP JUMPDEST DUP12 DUP4 XOR PUSH1 0x60 SHL PUSH2 0x2754 JUMPI PUSH1 0x1 DUP3 ADD SWAP2 POP DUP11 DUP3 PUSH1 0x5 SHL DUP11 ADD MSTORE JUMPDEST POP PUSH1 0x1 DUP11 ADD SWAP10 POP DUP4 PUSH1 0x40 MSTORE DUP9 DUP11 EQ DUP1 PUSH2 0x276C JUMPI POP DUP5 DUP2 EQ JUMPDEST ISZERO PUSH2 0x26D5 JUMPI DUP8 MSTORE POP POP POP JUMPDEST POP POP POP SWAP4 SWAP3 POP POP POP JUMP JUMPDEST PUSH1 0x40 MLOAD PUSH4 0xA85BD01 PUSH1 0xE1 SHL DUP2 MSTORE PUSH1 0x0 SWAP1 PUSH1 0x1 PUSH1 0x1 PUSH1 0xA0 SHL SUB DUP6 AND SWAP1 PUSH4 0x150B7A02 SWAP1 PUSH2 0x27B6 SWAP1 CALLER SWAP1 DUP10 SWAP1 DUP9 SWAP1 DUP9 SWAP1 PUSH1 0x4 ADD PUSH2 0x3D15 JUMP JUMPDEST PUSH1 0x20 PUSH1 0x40 MLOAD DUP1 DUP4 SUB DUP2 PUSH1 0x0 DUP8 GAS CALL SWAP3 POP POP POP DUP1 ISZERO PUSH2 0x27F1 JUMPI POP PUSH1 0x40 DUP1 MLOAD PUSH1 0x1F RETURNDATASIZE SWAP1 DUP2 ADD PUSH1 0x1F NOT AND DUP3 ADD SWAP1 SWAP3 MSTORE PUSH2 0x27EE SWAP2 DUP2 ADD SWAP1 PUSH2 0x3D52 JUMP JUMPDEST PUSH1 0x1 JUMPDEST PUSH2 0x2846 JUMPI RETURNDATASIZE DUP1 DUP1 ISZERO PUSH2 0x281F JUMPI PUSH1 0x40 MLOAD SWAP2 POP PUSH1 0x1F NOT PUSH1 0x3F RETURNDATASIZE ADD AND DUP3 ADD PUSH1 0x40 MSTORE RETURNDATASIZE DUP3 MSTORE RETURNDATASIZE PUSH1 0x0 PUSH1 0x20 DUP5 ADD RETURNDATACOPY PUSH2 0x2824 JUMP JUMPDEST PUSH1 0x60 SWAP2 POP JUMPDEST POP DUP1 MLOAD PUSH1 0x0 SUB PUSH2 0x283E JUMPI PUSH2 0x283E PUSH4 0x68D2BF6B PUSH1 0xE1 SHL PUSH2 0x1E20 JUMP JUMPDEST DUP1 MLOAD DUP2 PUSH1 0x20 ADD REVERT JUMPDEST PUSH1 0x1 PUSH1 0x1 PUSH1 0xE0 SHL SUB NOT AND PUSH4 0xA85BD01 PUSH1 0xE1 SHL EQ SWAP1 POP SWAP5 SWAP4 POP POP POP POP JUMP JUMPDEST PUSH2 0x286B PUSH2 0x2F2D JUMP JUMPDEST PUSH2 0x905 PUSH2 0x2876 PUSH2 0x1E2A JUMP JUMPDEST PUSH1 0x0 DUP5 DUP2 MSTORE PUSH1 0x4 SWAP2 SWAP1 SWAP2 ADD PUSH1 0x20 MSTORE PUSH1 0x40 SWAP1 KECCAK256 SLOAD PUSH2 0x2B91 JUMP JUMPDEST PUSH1 0x0 PUSH2 0x2898 PUSH2 0x1E2A JUMP JUMPDEST PUSH1 0x0 SWAP3 DUP4 MSTORE PUSH1 0x4 ADD PUSH1 0x20 MSTORE POP PUSH1 0x40 SWAP1 KECCAK256 SLOAD ISZERO ISZERO SWAP1 JUMP JUMPDEST PUSH1 0x60 PUSH1 0x0 PUSH2 0x28BB DUP4 PUSH2 0x2BD4 JUMP JUMPDEST PUSH1 0x1 ADD SWAP1 POP PUSH1 0x0 DUP2 PUSH1 0x1 PUSH1 0x1 PUSH1 0x40 SHL SUB DUP2 GT ISZERO PUSH2 0x28DA JUMPI PUSH2 0x28DA PUSH2 0x3125 JUMP JUMPDEST PUSH1 0x40 MLOAD SWAP1 DUP1 DUP3 MSTORE DUP1 PUSH1 0x1F ADD PUSH1 0x1F NOT AND PUSH1 0x20 ADD DUP3 ADD PUSH1 0x40 MSTORE DUP1 ISZERO PUSH2 0x2904 JUMPI PUSH1 0x20 DUP3 ADD DUP2 DUP1 CALLDATASIZE DUP4 CALLDATACOPY ADD SWAP1 POP JUMPDEST POP SWAP1 POP DUP2 DUP2 ADD PUSH1 0x20 ADD JUMPDEST PUSH1 0x0 NOT ADD PUSH16 0x181899199A1A9B1B9C1CB0B131B232B3 PUSH1 0x81 SHL PUSH1 0xA DUP7 MOD BYTE DUP2 MSTORE8 PUSH1 0xA DUP6 DIV SWAP5 POP DUP5 PUSH2 0x290E JUMPI POP SWAP4 SWAP3 POP POP POP JUMP JUMPDEST PUSH1 0x0 PUSH1 0x1 PUSH1 0x1 PUSH1 0xE0 SHL SUB NOT DUP3 AND PUSH4 0x7965DB0B PUSH1 0xE0 SHL EQ DUP1 PUSH2 0x905 JUMPI POP PUSH4 0x1FFC9A7 PUSH1 0xE0 SHL PUSH1 0x1 PUSH1 0x1 PUSH1 0xE0 SHL SUB NOT DUP4 AND EQ PUSH2 0x905 JUMP JUMPDEST PUSH2 0x297F DUP3 DUP3 PUSH2 0x15F2 JUMP JUMPDEST PUSH2 0xA3B JUMPI PUSH1 0x40 MLOAD PUSH4 0xE2517D3F PUSH1 0xE0 SHL DUP2 MSTORE PUSH1 0x1 PUSH1 0x1 PUSH1 0xA0 SHL SUB DUP3 AND PUSH1 0x4 DUP3 ADD MSTORE PUSH1 0x24 DUP2 ADD DUP4 SWAP1 MSTORE PUSH1 0x44 ADD PUSH2 0xF6A JUMP JUMPDEST PUSH1 0x1 PUSH1 0xE0 SHL DUP2 AND PUSH1 0x1 PUSH1 0x1 PUSH1 0xA0 SHL SUB SWAP1 SWAP2 AND GT SWAP1 JUMP JUMPDEST PUSH2 0x29CE DUP4 DUP4 PUSH2 0x2CAC JUMP JUMPDEST PUSH1 0x1 PUSH1 0x1 PUSH1 0xA0 SHL SUB DUP4 AND EXTCODESIZE ISZERO PUSH2 0x954 JUMPI PUSH1 0x0 PUSH2 0x29E8 PUSH2 0x1E2A JUMP JUMPDEST SLOAD SWAP1 POP DUP3 DUP2 SUB JUMPDEST PUSH2 0x2A02 PUSH1 0x0 DUP7 DUP4 DUP1 PUSH1 0x1 ADD SWAP5 POP DUP7 PUSH2 0x2781 JUMP JUMPDEST PUSH2 0x2A16 JUMPI PUSH2 0x2A16 PUSH4 0x68D2BF6B PUSH1 0xE1 SHL PUSH2 0x1E20 JUMP JUMPDEST DUP2 DUP2 LT PUSH2 0x29EF JUMPI DUP2 PUSH2 0x2A26 PUSH2 0x1E2A JUMP JUMPDEST SLOAD EQ PUSH2 0x2A31 JUMPI PUSH1 0x0 DUP1 REVERT JUMPDEST POP POP POP POP POP JUMP JUMPDEST PUSH2 0x2A40 PUSH2 0x1505 JUMP JUMPDEST PUSH2 0x20CE JUMPI PUSH1 0x40 MLOAD PUSH4 0x8DFC202B PUSH1 0xE0 SHL DUP2 MSTORE PUSH1 0x4 ADD PUSH1 0x40 MLOAD DUP1 SWAP2 SUB SWAP1 REVERT JUMPDEST PUSH2 0x2A65 PUSH2 0x22CA JUMP JUMPDEST SLOAD PUSH2 0x100 SWAP1 DIV PUSH1 0xFF AND PUSH2 0x2A8A JUMPI PUSH1 0x40 MLOAD PUSH3 0x461BCD PUSH1 0xE5 SHL DUP2 MSTORE PUSH1 0x4 ADD PUSH2 0xF6A SWAP1 PUSH2 0x3CA8 JUMP JUMPDEST DUP2 PUSH2 0x2A93 PUSH2 0x1E2A JUMP JUMPDEST PUSH1 0x2 ADD SWAP1 PUSH2 0x2AA1 SWAP1 DUP3 PUSH2 0x37CF JUMP JUMPDEST POP DUP1 PUSH2 0x2AAB PUSH2 0x1E2A JUMP JUMPDEST PUSH1 0x3 ADD SWAP1 PUSH2 0x2AB9 SWAP1 DUP3 PUSH2 0x37CF JUMP JUMPDEST POP PUSH1 0x0 PUSH2 0x2AC4 PUSH2 0x1E2A JUMP JUMPDEST SSTORE PUSH1 0x0 PUSH2 0x2ACF PUSH2 0x1EFF JUMP JUMPDEST LT ISZERO PUSH2 0xA3B JUMPI PUSH2 0xA3B PUSH4 0xFED8210F PUSH1 0xE0 SHL PUSH2 0x1E20 JUMP JUMPDEST PUSH2 0x2AED PUSH2 0x2DCF JUMP JUMPDEST PUSH2 0x20CE JUMPI PUSH1 0x40 MLOAD PUSH4 0x1AFCD79F PUSH1 0xE3 SHL DUP2 MSTORE PUSH1 0x4 ADD PUSH1 0x40 MLOAD DUP1 SWAP2 SUB SWAP1 REVERT JUMPDEST PUSH2 0x2134 PUSH2 0x2AE5 JUMP JUMPDEST PUSH2 0x2B1B DUP3 PUSH2 0x2DE9 JUMP JUMPDEST PUSH1 0x40 MLOAD PUSH1 0x1 PUSH1 0x1 PUSH1 0xA0 SHL SUB DUP4 AND SWAP1 PUSH32 0xBC7CD75A20EE27FD9ADEBAB32041F755214DBC6BFFA90CC0225B39DA2E5C2D3B SWAP1 PUSH1 0x0 SWAP1 LOG2 DUP1 MLOAD ISZERO PUSH2 0x2B60 JUMPI PUSH2 0x954 DUP3 DUP3 PUSH2 0x2E45 JUMP JUMPDEST PUSH2 0xA3B PUSH2 0x2EBB JUMP JUMPDEST DUP1 MLOAD ISZERO PUSH2 0x2B78 JUMPI DUP1 MLOAD DUP1 DUP3 PUSH1 0x20 ADD REVERT JUMPDEST PUSH1 0x40 MLOAD PUSH4 0xD6BDA275 PUSH1 0xE0 SHL DUP2 MSTORE PUSH1 0x4 ADD PUSH1 0x40 MLOAD DUP1 SWAP2 SUB SWAP1 REVERT JUMPDEST PUSH2 0x2B99 PUSH2 0x2F2D JUMP JUMPDEST PUSH1 0x1 PUSH1 0x1 PUSH1 0xA0 SHL SUB DUP3 AND DUP2 MSTORE PUSH1 0x1 PUSH1 0x1 PUSH1 0x40 SHL SUB PUSH1 0xA0 DUP4 SWAP1 SHR AND PUSH1 0x20 DUP3 ADD MSTORE PUSH1 0x1 PUSH1 0xE0 SHL DUP3 AND ISZERO ISZERO PUSH1 0x40 DUP3 ADD MSTORE PUSH1 0xE8 SWAP2 SWAP1 SWAP2 SHR PUSH1 0x60 DUP3 ADD MSTORE SWAP1 JUMP JUMPDEST PUSH1 0x0 DUP1 PUSH19 0x184F03E93FF9F4DAA797ED6E38ED64BF6A1F01 PUSH1 0x40 SHL DUP4 LT PUSH2 0x2C13 JUMPI PUSH19 0x184F03E93FF9F4DAA797ED6E38ED64BF6A1F01 PUSH1 0x40 SHL DUP4 DIV SWAP3 POP PUSH1 0x40 ADD JUMPDEST PUSH14 0x4EE2D6D415B85ACEF8100000000 DUP4 LT PUSH2 0x2C3F JUMPI PUSH14 0x4EE2D6D415B85ACEF8100000000 DUP4 DIV SWAP3 POP PUSH1 0x20 ADD JUMPDEST PUSH7 0x2386F26FC10000 DUP4 LT PUSH2 0x2C5D JUMPI PUSH7 0x2386F26FC10000 DUP4 DIV SWAP3 POP PUSH1 0x10 ADD JUMPDEST PUSH4 0x5F5E100 DUP4 LT PUSH2 0x2C75 JUMPI PUSH4 0x5F5E100 DUP4 DIV SWAP3 POP PUSH1 0x8 ADD JUMPDEST PUSH2 0x2710 DUP4 LT PUSH2 0x2C89 JUMPI PUSH2 0x2710 DUP4 DIV SWAP3 POP PUSH1 0x4 ADD JUMPDEST PUSH1 0x64 DUP4 LT PUSH2 0x2C9B JUMPI PUSH1 0x64 DUP4 DIV SWAP3 POP PUSH1 0x2 ADD JUMPDEST PUSH1 0xA DUP4 LT PUSH2 0x905 JUMPI PUSH1 0x1 ADD SWAP3 SWAP2 POP POP JUMP JUMPDEST PUSH1 0x0 PUSH2 0x2CB6 PUSH2 0x1E2A JUMP JUMPDEST SLOAD SWAP1 POP PUSH1 0x0 DUP3 SWAP1 SUB PUSH2 0x2CD2 JUMPI PUSH2 0x2CD2 PUSH4 0xB562E8DD PUSH1 0xE0 SHL PUSH2 0x1E20 JUMP JUMPDEST PUSH2 0x2CDF PUSH1 0x0 DUP5 DUP4 DUP6 PUSH2 0x201A JUMP JUMPDEST PUSH1 0x1 PUSH1 0x1 PUSH1 0xA0 SHL SUB DUP4 AND TIMESTAMP PUSH1 0xA0 SHL PUSH1 0x1 DUP5 EQ PUSH1 0xE1 SHL OR OR PUSH2 0x2CFE PUSH2 0x1E2A JUMP JUMPDEST PUSH1 0x0 DUP4 DUP2 MSTORE PUSH1 0x4 SWAP2 SWAP1 SWAP2 ADD PUSH1 0x20 MSTORE PUSH1 0x40 SWAP1 KECCAK256 SSTORE PUSH9 0x10000000000000001 DUP3 MUL PUSH2 0x2D25 PUSH2 0x1E2A JUMP JUMPDEST PUSH1 0x1 PUSH1 0x1 PUSH1 0xA0 SHL SUB DUP6 AND PUSH1 0x0 DUP2 DUP2 MSTORE PUSH1 0x5 SWAP3 SWAP1 SWAP3 ADD PUSH1 0x20 MSTORE PUSH1 0x40 DUP3 KECCAK256 DUP1 SLOAD SWAP1 SWAP4 ADD SWAP1 SWAP3 SSTORE DUP2 SWAP1 SUB PUSH2 0x2D5F JUMPI PUSH2 0x2D5F PUSH3 0x2E0763 PUSH1 0xE8 SHL PUSH2 0x1E20 JUMP JUMPDEST DUP2 DUP4 ADD DUP3 PUSH2 0x2D6B PUSH2 0x1EFF JUMP JUMPDEST PUSH1 0x1 DUP4 SUB GT ISZERO PUSH2 0x2D85 JUMPI PUSH2 0x2D85 PUSH4 0x40B23F1D PUSH1 0xE1 SHL PUSH2 0x1E20 JUMP JUMPDEST JUMPDEST DUP1 DUP4 PUSH1 0x0 PUSH32 0xDDF252AD1BE2C89B69C2B068FC378DAA952BA7F163C4A11628F55A4DF523B3EF PUSH1 0x0 DUP1 LOG4 DUP2 DUP2 PUSH1 0x1 ADD SWAP2 POP DUP2 SUB PUSH2 0x2D86 JUMPI DUP2 PUSH2 0x2DC5 PUSH2 0x1E2A JUMP JUMPDEST SSTORE POP PUSH2 0x954 SWAP2 POP POP JUMP JUMPDEST PUSH1 0x0 PUSH2 0x2DD9 PUSH2 0x22EE JUMP JUMPDEST SLOAD PUSH1 0x1 PUSH1 0x40 SHL SWAP1 DIV PUSH1 0xFF AND SWAP2 SWAP1 POP JUMP JUMPDEST DUP1 PUSH1 0x1 PUSH1 0x1 PUSH1 0xA0 SHL SUB AND EXTCODESIZE PUSH1 0x0 SUB PUSH2 0x2E16 JUMPI DUP1 PUSH1 0x40 MLOAD PUSH4 0x4C9C8CE3 PUSH1 0xE0 SHL DUP2 MSTORE PUSH1 0x4 ADD PUSH2 0xF6A SWAP2 SWAP1 PUSH2 0x305D JUMP JUMPDEST PUSH1 0x0 DUP1 MLOAD PUSH1 0x20 PUSH2 0x3DAC DUP4 CODECOPY DUP2 MLOAD SWAP2 MSTORE DUP1 SLOAD PUSH1 0x1 PUSH1 0x1 PUSH1 0xA0 SHL SUB NOT AND PUSH1 0x1 PUSH1 0x1 PUSH1 0xA0 SHL SUB SWAP3 SWAP1 SWAP3 AND SWAP2 SWAP1 SWAP2 OR SWAP1 SSTORE JUMP JUMPDEST PUSH1 0x60 PUSH1 0x0 DUP1 DUP5 PUSH1 0x1 PUSH1 0x1 PUSH1 0xA0 SHL SUB AND DUP5 PUSH1 0x40 MLOAD PUSH2 0x2E62 SWAP2 SWAP1 PUSH2 0x3D6F JUMP JUMPDEST PUSH1 0x0 PUSH1 0x40 MLOAD DUP1 DUP4 SUB DUP2 DUP6 GAS DELEGATECALL SWAP2 POP POP RETURNDATASIZE DUP1 PUSH1 0x0 DUP2 EQ PUSH2 0x2E9D JUMPI PUSH1 0x40 MLOAD SWAP2 POP PUSH1 0x1F NOT PUSH1 0x3F RETURNDATASIZE ADD AND DUP3 ADD PUSH1 0x40 MSTORE RETURNDATASIZE DUP3 MSTORE RETURNDATASIZE PUSH1 0x0 PUSH1 0x20 DUP5 ADD RETURNDATACOPY PUSH2 0x2EA2 JUMP JUMPDEST PUSH1 0x60 SWAP2 POP JUMPDEST POP SWAP2 POP SWAP2 POP PUSH2 0x2EB2 DUP6 DUP4 DUP4 PUSH2 0x2EDA JUMP JUMPDEST SWAP6 SWAP5 POP POP POP POP POP JUMP JUMPDEST CALLVALUE ISZERO PUSH2 0x20CE JUMPI PUSH1 0x40 MLOAD PUSH4 0xB398979F PUSH1 0xE0 SHL DUP2 MSTORE PUSH1 0x4 ADD PUSH1 0x40 MLOAD DUP1 SWAP2 SUB SWAP1 REVERT JUMPDEST PUSH1 0x60 DUP3 PUSH2 0x2EEF JUMPI PUSH2 0x2EEA DUP3 PUSH2 0x2B68 JUMP JUMPDEST PUSH2 0x169C JUMP JUMPDEST DUP2 MLOAD ISZERO DUP1 ISZERO PUSH2 0x2F06 JUMPI POP PUSH1 0x1 PUSH1 0x1 PUSH1 0xA0 SHL SUB DUP5 AND EXTCODESIZE ISZERO JUMPDEST ISZERO PUSH2 0x2F26 JUMPI DUP4 PUSH1 0x40 MLOAD PUSH4 0x9996B315 PUSH1 0xE0 SHL DUP2 MSTORE PUSH1 0x4 ADD PUSH2 0xF6A SWAP2 SWAP1 PUSH2 0x305D JUMP JUMPDEST POP DUP1 PUSH2 0x169C JUMP JUMPDEST PUSH1 0x40 DUP1 MLOAD PUSH1 0x80 DUP2 ADD DUP3 MSTORE PUSH1 0x0 DUP1 DUP3 MSTORE PUSH1 0x20 DUP3 ADD DUP2 SWAP1 MSTORE SWAP2 DUP2 ADD DUP3 SWAP1 MSTORE PUSH1 0x60 DUP2 ADD SWAP2 SWAP1 SWAP2 MSTORE SWAP1 JUMP JUMPDEST PUSH1 0x1 PUSH1 0x1 PUSH1 0xE0 SHL SUB NOT DUP2 AND DUP2 EQ PUSH2 0xE44 JUMPI PUSH1 0x0 DUP1 REVERT JUMPDEST PUSH1 0x0 PUSH1 0x20 DUP3 DUP5 SUB SLT ISZERO PUSH2 0x2F7C JUMPI PUSH1 0x0 DUP1 REVERT JUMPDEST DUP2 CALLDATALOAD PUSH2 0x169C DUP2 PUSH2 0x2F54 JUMP JUMPDEST PUSH1 0x1 PUSH1 0x1 PUSH1 0xA0 SHL SUB DUP2 AND DUP2 EQ PUSH2 0xE44 JUMPI PUSH1 0x0 DUP1 REVERT JUMPDEST PUSH1 0x0 DUP1 PUSH1 0x40 DUP4 DUP6 SUB SLT ISZERO PUSH2 0x2FAF JUMPI PUSH1 0x0 DUP1 REVERT JUMPDEST DUP3 CALLDATALOAD PUSH2 0x2FBA DUP2 PUSH2 0x2F87 JUMP JUMPDEST SWAP2 POP PUSH1 0x20 DUP4 ADD CALLDATALOAD PUSH1 0x1 PUSH1 0x1 PUSH1 0x60 SHL SUB DUP2 AND DUP2 EQ PUSH2 0x2FD6 JUMPI PUSH1 0x0 DUP1 REVERT JUMPDEST DUP1 SWAP2 POP POP SWAP3 POP SWAP3 SWAP1 POP JUMP JUMPDEST PUSH1 0x0 JUMPDEST DUP4 DUP2 LT ISZERO PUSH2 0x2FFC JUMPI DUP2 DUP2 ADD MLOAD DUP4 DUP3 ADD MSTORE PUSH1 0x20 ADD PUSH2 0x2FE4 JUMP JUMPDEST POP POP PUSH1 0x0 SWAP2 ADD MSTORE JUMP JUMPDEST PUSH1 0x0 DUP2 MLOAD DUP1 DUP5 MSTORE PUSH2 0x301D DUP2 PUSH1 0x20 DUP7 ADD PUSH1 0x20 DUP7 ADD PUSH2 0x2FE1 JUMP JUMPDEST PUSH1 0x1F ADD PUSH1 0x1F NOT AND SWAP3 SWAP1 SWAP3 ADD PUSH1 0x20 ADD SWAP3 SWAP2 POP POP JUMP JUMPDEST PUSH1 0x20 DUP2 MSTORE PUSH1 0x0 PUSH2 0x169C PUSH1 0x20 DUP4 ADD DUP5 PUSH2 0x3005 JUMP JUMPDEST PUSH1 0x0 PUSH1 0x20 DUP3 DUP5 SUB SLT ISZERO PUSH2 0x3056 JUMPI PUSH1 0x0 DUP1 REVERT JUMPDEST POP CALLDATALOAD SWAP2 SWAP1 POP JUMP JUMPDEST PUSH1 0x1 PUSH1 0x1 PUSH1 0xA0 SHL SUB SWAP2 SWAP1 SWAP2 AND DUP2 MSTORE PUSH1 0x20 ADD SWAP1 JUMP JUMPDEST PUSH1 0x0 DUP1 PUSH1 0x40 DUP4 DUP6 SUB SLT ISZERO PUSH2 0x3084 JUMPI PUSH1 0x0 DUP1 REVERT JUMPDEST DUP3 CALLDATALOAD PUSH2 0x308F DUP2 PUSH2 0x2F87 JUMP JUMPDEST SWAP5 PUSH1 0x20 SWAP4 SWAP1 SWAP4 ADD CALLDATALOAD SWAP4 POP POP POP JUMP JUMPDEST PUSH1 0x0 DUP1 PUSH1 0x0 PUSH1 0x60 DUP5 DUP7 SUB SLT ISZERO PUSH2 0x30B2 JUMPI PUSH1 0x0 DUP1 REVERT JUMPDEST DUP4 CALLDATALOAD PUSH2 0x30BD DUP2 PUSH2 0x2F87 JUMP JUMPDEST SWAP3 POP PUSH1 0x20 DUP5 ADD CALLDATALOAD PUSH2 0x30CD DUP2 PUSH2 0x2F87 JUMP JUMPDEST SWAP3 SWAP6 SWAP3 SWAP5 POP POP POP PUSH1 0x40 SWAP2 SWAP1 SWAP2 ADD CALLDATALOAD SWAP1 JUMP JUMPDEST PUSH1 0x0 DUP1 PUSH1 0x40 DUP4 DUP6 SUB SLT ISZERO PUSH2 0x30F1 JUMPI PUSH1 0x0 DUP1 REVERT JUMPDEST POP POP DUP1 CALLDATALOAD SWAP3 PUSH1 0x20 SWAP1 SWAP2 ADD CALLDATALOAD SWAP2 POP JUMP JUMPDEST PUSH1 0x0 DUP1 PUSH1 0x40 DUP4 DUP6 SUB SLT ISZERO PUSH2 0x3113 JUMPI PUSH1 0x0 DUP1 REVERT JUMPDEST DUP3 CALLDATALOAD SWAP2 POP PUSH1 0x20 DUP4 ADD CALLDATALOAD PUSH2 0x2FD6 DUP2 PUSH2 0x2F87 JUMP JUMPDEST PUSH4 0x4E487B71 PUSH1 0xE0 SHL PUSH1 0x0 MSTORE PUSH1 0x41 PUSH1 0x4 MSTORE PUSH1 0x24 PUSH1 0x0 REVERT JUMPDEST PUSH1 0x0 DUP3 PUSH1 0x1F DUP4 ADD SLT PUSH2 0x314C JUMPI PUSH1 0x0 DUP1 REVERT JUMPDEST DUP2 CALLDATALOAD PUSH1 0x1 PUSH1 0x1 PUSH1 0x40 SHL SUB DUP1 DUP3 GT ISZERO PUSH2 0x3166 JUMPI PUSH2 0x3166 PUSH2 0x3125 JUMP JUMPDEST PUSH1 0x40 MLOAD PUSH1 0x1F DUP4 ADD PUSH1 0x1F NOT SWAP1 DUP2 AND PUSH1 0x3F ADD AND DUP2 ADD SWAP1 DUP3 DUP3 GT DUP2 DUP4 LT OR ISZERO PUSH2 0x318E JUMPI PUSH2 0x318E PUSH2 0x3125 JUMP JUMPDEST DUP2 PUSH1 0x40 MSTORE DUP4 DUP2 MSTORE DUP7 PUSH1 0x20 DUP6 DUP9 ADD ADD GT ISZERO PUSH2 0x31A7 JUMPI PUSH1 0x0 DUP1 REVERT JUMPDEST DUP4 PUSH1 0x20 DUP8 ADD PUSH1 0x20 DUP4 ADD CALLDATACOPY PUSH1 0x0 PUSH1 0x20 DUP6 DUP4 ADD ADD MSTORE DUP1 SWAP5 POP POP POP POP POP SWAP3 SWAP2 POP POP JUMP JUMPDEST PUSH1 0x0 DUP1 PUSH1 0x40 DUP4 DUP6 SUB SLT ISZERO PUSH2 0x31DA JUMPI PUSH1 0x0 DUP1 REVERT JUMPDEST DUP3 CALLDATALOAD PUSH1 0x1 PUSH1 0x1 PUSH1 0x40 SHL SUB DUP1 DUP3 GT ISZERO PUSH2 0x31F1 JUMPI PUSH1 0x0 DUP1 REVERT JUMPDEST PUSH2 0x31FD DUP7 DUP4 DUP8 ADD PUSH2 0x313B JUMP JUMPDEST SWAP4 POP PUSH1 0x20 DUP6 ADD CALLDATALOAD SWAP2 POP DUP1 DUP3 GT ISZERO PUSH2 0x3213 JUMPI PUSH1 0x0 DUP1 REVERT JUMPDEST POP PUSH2 0x3220 DUP6 DUP3 DUP7 ADD PUSH2 0x313B JUMP JUMPDEST SWAP2 POP POP SWAP3 POP SWAP3 SWAP1 POP JUMP JUMPDEST PUSH1 0x0 DUP1 PUSH1 0x40 DUP4 DUP6 SUB SLT ISZERO PUSH2 0x323D JUMPI PUSH1 0x0 DUP1 REVERT JUMPDEST DUP3 CALLDATALOAD PUSH2 0x3248 DUP2 PUSH2 0x2F87 JUMP JUMPDEST SWAP2 POP PUSH1 0x20 DUP4 ADD CALLDATALOAD PUSH1 0x1 PUSH1 0x1 PUSH1 0x40 SHL SUB DUP2 GT ISZERO PUSH2 0x3263 JUMPI PUSH1 0x0 DUP1 REVERT JUMPDEST PUSH2 0x3220 DUP6 DUP3 DUP7 ADD PUSH2 0x313B JUMP JUMPDEST PUSH1 0x0 DUP1 DUP4 PUSH1 0x1F DUP5 ADD SLT PUSH2 0x3281 JUMPI PUSH1 0x0 DUP1 REVERT JUMPDEST POP DUP2 CALLDATALOAD PUSH1 0x1 PUSH1 0x1 PUSH1 0x40 SHL SUB DUP2 GT ISZERO PUSH2 0x3298 JUMPI PUSH1 0x0 DUP1 REVERT JUMPDEST PUSH1 0x20 DUP4 ADD SWAP2 POP DUP4 PUSH1 0x20 DUP3 DUP6 ADD ADD GT ISZERO PUSH2 0xD2C JUMPI PUSH1 0x0 DUP1 REVERT JUMPDEST PUSH1 0x0 DUP1 PUSH1 0x0 DUP1 PUSH1 0x40 DUP6 DUP8 SUB SLT ISZERO PUSH2 0x32C6 JUMPI PUSH1 0x0 DUP1 REVERT JUMPDEST DUP5 CALLDATALOAD PUSH1 0x1 PUSH1 0x1 PUSH1 0x40 SHL SUB DUP1 DUP3 GT ISZERO PUSH2 0x32DD JUMPI PUSH1 0x0 DUP1 REVERT JUMPDEST PUSH2 0x32E9 DUP9 DUP4 DUP10 ADD PUSH2 0x326F JUMP JUMPDEST SWAP1 SWAP7 POP SWAP5 POP PUSH1 0x20 DUP8 ADD CALLDATALOAD SWAP2 POP DUP1 DUP3 GT ISZERO PUSH2 0x3302 JUMPI PUSH1 0x0 DUP1 REVERT JUMPDEST POP PUSH2 0x330F DUP8 DUP3 DUP9 ADD PUSH2 0x326F JUMP JUMPDEST SWAP6 SWAP9 SWAP5 SWAP8 POP SWAP6 POP POP POP POP JUMP JUMPDEST PUSH1 0x0 PUSH1 0x20 DUP3 DUP5 SUB SLT ISZERO PUSH2 0x332D JUMPI PUSH1 0x0 DUP1 REVERT JUMPDEST DUP2 CALLDATALOAD PUSH2 0x169C DUP2 PUSH2 0x2F87 JUMP JUMPDEST PUSH1 0x0 DUP1 PUSH1 0x0 PUSH1 0x40 DUP5 DUP7 SUB SLT ISZERO PUSH2 0x334D JUMPI PUSH1 0x0 DUP1 REVERT JUMPDEST DUP4 CALLDATALOAD SWAP3 POP PUSH1 0x20 DUP5 ADD CALLDATALOAD PUSH1 0x1 PUSH1 0x1 PUSH1 0x40 SHL SUB DUP2 GT ISZERO PUSH2 0x336A JUMPI PUSH1 0x0 DUP1 REVERT JUMPDEST PUSH2 0x3376 DUP7 DUP3 DUP8 ADD PUSH2 0x326F JUMP JUMPDEST SWAP5 SWAP8 SWAP1 SWAP7 POP SWAP4 SWAP5 POP POP POP POP JUMP JUMPDEST PUSH1 0x0 DUP1 PUSH1 0x20 DUP4 DUP6 SUB SLT ISZERO PUSH2 0x3396 JUMPI PUSH1 0x0 DUP1 REVERT JUMPDEST DUP3 CALLDATALOAD PUSH1 0x1 PUSH1 0x1 PUSH1 0x40 SHL SUB DUP2 GT ISZERO PUSH2 0x33AC JUMPI PUSH1 0x0 DUP1 REVERT JUMPDEST PUSH2 0x33B8 DUP6 DUP3 DUP7 ADD PUSH2 0x326F JUMP JUMPDEST SWAP1 SWAP7 SWAP1 SWAP6 POP SWAP4 POP POP POP POP JUMP JUMPDEST PUSH1 0x0 DUP1 PUSH1 0x20 DUP4 DUP6 SUB SLT ISZERO PUSH2 0x33D7 JUMPI PUSH1 0x0 DUP1 REVERT JUMPDEST DUP3 CALLDATALOAD PUSH1 0x1 PUSH1 0x1 PUSH1 0x40 SHL SUB DUP1 DUP3 GT ISZERO PUSH2 0x33EE JUMPI PUSH1 0x0 DUP1 REVERT JUMPDEST DUP2 DUP6 ADD SWAP2 POP DUP6 PUSH1 0x1F DUP4 ADD SLT PUSH2 0x3402 JUMPI PUSH1 0x0 DUP1 REVERT JUMPDEST DUP2 CALLDATALOAD DUP2 DUP2 GT ISZERO PUSH2 0x3411 JUMPI PUSH1 0x0 DUP1 REVERT JUMPDEST DUP7 PUSH1 0x20 DUP3 PUSH1 0x5 SHL DUP6 ADD ADD GT ISZERO PUSH2 0x3426 JUMPI PUSH1 0x0 DUP1 REVERT JUMPDEST PUSH1 0x20 SWAP3 SWAP1 SWAP3 ADD SWAP7 SWAP2 SWAP6 POP SWAP1 SWAP4 POP POP POP POP JUMP JUMPDEST DUP1 MLOAD PUSH1 0x1 PUSH1 0x1 PUSH1 0xA0 SHL SUB AND DUP3 MSTORE PUSH1 0x20 DUP1 DUP3 ADD MLOAD PUSH1 0x1 PUSH1 0x1 PUSH1 0x40 SHL SUB AND SWAP1 DUP4 ADD MSTORE PUSH1 0x40 DUP1 DUP3 ADD MLOAD ISZERO ISZERO SWAP1 DUP4 ADD MSTORE PUSH1 0x60 SWAP1 DUP2 ADD MLOAD PUSH3 0xFFFFFF AND SWAP2 ADD MSTORE JUMP JUMPDEST PUSH1 0x20 DUP1 DUP3 MSTORE DUP3 MLOAD DUP3 DUP3 ADD DUP2 SWAP1 MSTORE PUSH1 0x0 SWAP2 SWAP1 DUP5 DUP3 ADD SWAP1 PUSH1 0x40 DUP6 ADD SWAP1 DUP5 JUMPDEST DUP2 DUP2 LT ISZERO PUSH2 0x34B6 JUMPI PUSH2 0x34A3 DUP4 DUP6 MLOAD PUSH2 0x3438 JUMP JUMPDEST SWAP3 DUP5 ADD SWAP3 PUSH1 0x80 SWAP3 SWAP1 SWAP3 ADD SWAP2 PUSH1 0x1 ADD PUSH2 0x3490 JUMP JUMPDEST POP SWAP1 SWAP7 SWAP6 POP POP POP POP POP POP JUMP JUMPDEST PUSH1 0x20 DUP1 DUP3 MSTORE DUP3 MLOAD DUP3 DUP3 ADD DUP2 SWAP1 MSTORE PUSH1 0x0 SWAP2 SWAP1 DUP5 DUP3 ADD SWAP1 PUSH1 0x40 DUP6 ADD SWAP1 DUP5 JUMPDEST DUP2 DUP2 LT ISZERO PUSH2 0x34B6 JUMPI DUP4 MLOAD DUP4 MSTORE SWAP3 DUP5 ADD SWAP3 SWAP2 DUP5 ADD SWAP2 PUSH1 0x1 ADD PUSH2 0x34DE JUMP JUMPDEST PUSH1 0x0 DUP1 PUSH1 0x0 PUSH1 0x60 DUP5 DUP7 SUB SLT ISZERO PUSH2 0x350F JUMPI PUSH1 0x0 DUP1 REVERT JUMPDEST DUP4 CALLDATALOAD PUSH2 0x351A DUP2 PUSH2 0x2F87 JUMP JUMPDEST SWAP6 PUSH1 0x20 DUP6 ADD CALLDATALOAD SWAP6 POP PUSH1 0x40 SWAP1 SWAP5 ADD CALLDATALOAD SWAP4 SWAP3 POP POP POP JUMP JUMPDEST PUSH1 0x0 DUP1 PUSH1 0x40 DUP4 DUP6 SUB SLT ISZERO PUSH2 0x3542 JUMPI PUSH1 0x0 DUP1 REVERT JUMPDEST DUP3 CALLDATALOAD PUSH2 0x354D DUP2 PUSH2 0x2F87 JUMP JUMPDEST SWAP2 POP PUSH1 0x20 DUP4 ADD CALLDATALOAD DUP1 ISZERO ISZERO DUP2 EQ PUSH2 0x2FD6 JUMPI PUSH1 0x0 DUP1 REVERT JUMPDEST PUSH1 0x0 DUP1 PUSH1 0x0 DUP1 PUSH1 0x80 DUP6 DUP8 SUB SLT ISZERO PUSH2 0x3578 JUMPI PUSH1 0x0 DUP1 REVERT JUMPDEST DUP5 CALLDATALOAD PUSH2 0x3583 DUP2 PUSH2 0x2F87 JUMP JUMPDEST SWAP4 POP PUSH1 0x20 DUP6 ADD CALLDATALOAD PUSH2 0x3593 DUP2 PUSH2 0x2F87 JUMP JUMPDEST SWAP3 POP PUSH1 0x40 DUP6 ADD CALLDATALOAD SWAP2 POP PUSH1 0x60 DUP6 ADD CALLDATALOAD PUSH1 0x1 PUSH1 0x1 PUSH1 0x40 SHL SUB DUP2 GT ISZERO PUSH2 0x35B5 JUMPI PUSH1 0x0 DUP1 REVERT JUMPDEST PUSH2 0x35C1 DUP8 DUP3 DUP9 ADD PUSH2 0x313B JUMP JUMPDEST SWAP2 POP POP SWAP3 SWAP6 SWAP2 SWAP5 POP SWAP3 POP JUMP JUMPDEST PUSH1 0x0 DUP1 PUSH1 0x40 DUP4 DUP6 SUB SLT ISZERO PUSH2 0x35E0 JUMPI PUSH1 0x0 DUP1 REVERT JUMPDEST DUP3 CALLDATALOAD SWAP2 POP PUSH1 0x20 DUP4 ADD CALLDATALOAD PUSH1 0x1 PUSH1 0x1 PUSH1 0x40 SHL SUB DUP2 GT ISZERO PUSH2 0x35FD JUMPI PUSH1 0x0 DUP1 REVERT JUMPDEST DUP4 ADD PUSH1 0xC0 DUP2 DUP7 SUB SLT ISZERO PUSH2 0x2FD6 JUMPI PUSH1 0x0 DUP1 REVERT JUMPDEST PUSH1 0x80 DUP2 ADD PUSH2 0x905 DUP3 DUP5 PUSH2 0x3438 JUMP JUMPDEST PUSH1 0x20 DUP2 MSTORE PUSH1 0x0 DUP3 MLOAD PUSH1 0xC0 PUSH1 0x20 DUP5 ADD MSTORE PUSH2 0x3639 PUSH1 0xE0 DUP5 ADD DUP3 PUSH2 0x3005 JUMP JUMPDEST SWAP1 POP PUSH1 0x20 DUP5 ADD MLOAD PUSH1 0x1F NOT DUP1 DUP6 DUP5 SUB ADD PUSH1 0x40 DUP7 ADD MSTORE PUSH2 0x3657 DUP4 DUP4 PUSH2 0x3005 JUMP JUMPDEST SWAP3 POP PUSH1 0x40 DUP7 ADD MLOAD SWAP2 POP DUP1 DUP6 DUP5 SUB ADD PUSH1 0x60 DUP7 ADD MSTORE POP PUSH2 0x3675 DUP3 DUP3 PUSH2 0x3005 JUMP JUMPDEST SWAP2 POP POP PUSH1 0x60 DUP5 ADD MLOAD PUSH1 0x80 DUP5 ADD MSTORE PUSH1 0x80 DUP5 ADD MLOAD PUSH1 0xA0 DUP5 ADD MSTORE PUSH1 0xA0 DUP5 ADD MLOAD PUSH1 0xC0 DUP5 ADD MSTORE DUP1 SWAP2 POP POP SWAP3 SWAP2 POP POP JUMP JUMPDEST PUSH1 0x0 DUP1 PUSH1 0x40 DUP4 DUP6 SUB SLT ISZERO PUSH2 0x36B3 JUMPI PUSH1 0x0 DUP1 REVERT JUMPDEST DUP3 CALLDATALOAD PUSH2 0x36BE DUP2 PUSH2 0x2F87 JUMP JUMPDEST SWAP2 POP PUSH1 0x20 DUP4 ADD CALLDATALOAD PUSH2 0x2FD6 DUP2 PUSH2 0x2F87 JUMP JUMPDEST PUSH1 0x1 DUP2 DUP2 SHR SWAP1 DUP3 AND DUP1 PUSH2 0x36E2 JUMPI PUSH1 0x7F DUP3 AND SWAP2 POP JUMPDEST PUSH1 0x20 DUP3 LT DUP2 SUB PUSH2 0x3702 JUMPI PUSH4 0x4E487B71 PUSH1 0xE0 SHL PUSH1 0x0 MSTORE PUSH1 0x22 PUSH1 0x4 MSTORE PUSH1 0x24 PUSH1 0x0 REVERT JUMPDEST POP SWAP2 SWAP1 POP JUMP JUMPDEST PUSH4 0x4E487B71 PUSH1 0xE0 SHL PUSH1 0x0 MSTORE PUSH1 0x11 PUSH1 0x4 MSTORE PUSH1 0x24 PUSH1 0x0 REVERT JUMPDEST DUP1 DUP3 MUL DUP2 ISZERO DUP3 DUP3 DIV DUP5 EQ OR PUSH2 0x905 JUMPI PUSH2 0x905 PUSH2 0x3708 JUMP JUMPDEST PUSH1 0x0 DUP3 PUSH2 0x3752 JUMPI PUSH4 0x4E487B71 PUSH1 0xE0 SHL PUSH1 0x0 MSTORE PUSH1 0x12 PUSH1 0x4 MSTORE PUSH1 0x24 PUSH1 0x0 REVERT JUMPDEST POP DIV SWAP1 JUMP JUMPDEST DUP1 DUP3 ADD DUP1 DUP3 GT ISZERO PUSH2 0x905 JUMPI PUSH2 0x905 PUSH2 0x3708 JUMP JUMPDEST PUSH1 0x1F DUP3 GT ISZERO PUSH2 0x954 JUMPI PUSH1 0x0 DUP2 PUSH1 0x0 MSTORE PUSH1 0x20 PUSH1 0x0 KECCAK256 PUSH1 0x1F DUP6 ADD PUSH1 0x5 SHR DUP2 ADD PUSH1 0x20 DUP7 LT ISZERO PUSH2 0x3793 JUMPI POP DUP1 JUMPDEST PUSH1 0x1F DUP6 ADD PUSH1 0x5 SHR DUP3 ADD SWAP2 POP JUMPDEST DUP2 DUP2 LT ISZERO PUSH2 0x37B2 JUMPI DUP3 DUP2 SSTORE PUSH1 0x1 ADD PUSH2 0x379F JUMP JUMPDEST POP POP POP POP POP POP JUMP JUMPDEST PUSH1 0x0 NOT PUSH1 0x3 DUP4 SWAP1 SHL SHR NOT AND PUSH1 0x1 SWAP2 SWAP1 SWAP2 SHL OR SWAP1 JUMP JUMPDEST DUP2 MLOAD PUSH1 0x1 PUSH1 0x1 PUSH1 0x40 SHL SUB DUP2 GT ISZERO PUSH2 0x37E8 JUMPI PUSH2 0x37E8 PUSH2 0x3125 JUMP JUMPDEST PUSH2 0x37FC DUP2 PUSH2 0x37F6 DUP5 SLOAD PUSH2 0x36CE JUMP JUMPDEST DUP5 PUSH2 0x376A JUMP JUMPDEST PUSH1 0x20 DUP1 PUSH1 0x1F DUP4 GT PUSH1 0x1 DUP2 EQ PUSH2 0x382B JUMPI PUSH1 0x0 DUP5 ISZERO PUSH2 0x3819 JUMPI POP DUP6 DUP4 ADD MLOAD JUMPDEST PUSH2 0x3823 DUP6 DUP3 PUSH2 0x37BA JUMP JUMPDEST DUP7 SSTORE POP PUSH2 0x37B2 JUMP JUMPDEST PUSH1 0x0 DUP6 DUP2 MSTORE PUSH1 0x20 DUP2 KECCAK256 PUSH1 0x1F NOT DUP7 AND SWAP2 JUMPDEST DUP3 DUP2 LT ISZERO PUSH2 0x385A JUMPI DUP9 DUP7 ADD MLOAD DUP3 SSTORE SWAP5 DUP5 ADD SWAP5 PUSH1 0x1 SWAP1 SWAP2 ADD SWAP1 DUP5 ADD PUSH2 0x383B JUMP JUMPDEST POP DUP6 DUP3 LT ISZERO PUSH2 0x3878 JUMPI DUP8 DUP6 ADD MLOAD PUSH1 0x0 NOT PUSH1 0x3 DUP9 SWAP1 SHL PUSH1 0xF8 AND SHR NOT AND DUP2 SSTORE JUMPDEST POP POP POP POP POP PUSH1 0x1 SWAP1 DUP2 SHL ADD SWAP1 SSTORE POP JUMP JUMPDEST PUSH1 0x1 PUSH1 0x1 PUSH1 0x40 SHL SUB DUP4 GT ISZERO PUSH2 0x389F JUMPI PUSH2 0x389F PUSH2 0x3125 JUMP JUMPDEST PUSH2 0x38B3 DUP4 PUSH2 0x38AD DUP4 SLOAD PUSH2 0x36CE JUMP JUMPDEST DUP4 PUSH2 0x376A JUMP JUMPDEST PUSH1 0x0 PUSH1 0x1F DUP5 GT PUSH1 0x1 DUP2 EQ PUSH2 0x38E1 JUMPI PUSH1 0x0 DUP6 ISZERO PUSH2 0x38CF JUMPI POP DUP4 DUP3 ADD CALLDATALOAD JUMPDEST PUSH2 0x38D9 DUP7 DUP3 PUSH2 0x37BA JUMP JUMPDEST DUP5 SSTORE POP PUSH2 0x2A31 JUMP JUMPDEST PUSH1 0x0 DUP4 DUP2 MSTORE PUSH1 0x20 SWAP1 KECCAK256 PUSH1 0x1F NOT DUP7 AND SWAP1 DUP4 JUMPDEST DUP3 DUP2 LT ISZERO PUSH2 0x3912 JUMPI DUP7 DUP6 ADD CALLDATALOAD DUP3 SSTORE PUSH1 0x20 SWAP5 DUP6 ADD SWAP5 PUSH1 0x1 SWAP1 SWAP3 ADD SWAP2 ADD PUSH2 0x38F2 JUMP JUMPDEST POP DUP7 DUP3 LT ISZERO PUSH2 0x392F JUMPI PUSH1 0x0 NOT PUSH1 0xF8 DUP9 PUSH1 0x3 SHL AND SHR NOT DUP5 DUP8 ADD CALLDATALOAD AND DUP2 SSTORE JUMPDEST POP POP PUSH1 0x1 DUP6 PUSH1 0x1 SHL ADD DUP4 SSTORE POP POP POP POP POP JUMP JUMPDEST DUP2 DUP4 MSTORE DUP2 DUP2 PUSH1 0x20 DUP6 ADD CALLDATACOPY POP PUSH1 0x0 DUP3 DUP3 ADD PUSH1 0x20 SWAP1 DUP2 ADD SWAP2 SWAP1 SWAP2 MSTORE PUSH1 0x1F SWAP1 SWAP2 ADD PUSH1 0x1F NOT AND SWAP1 SWAP2 ADD ADD SWAP1 JUMP JUMPDEST PUSH1 0x40 DUP2 MSTORE PUSH1 0x0 PUSH2 0x397E PUSH1 0x40 DUP4 ADD DUP7 DUP9 PUSH2 0x3941 JUMP JUMPDEST DUP3 DUP2 SUB PUSH1 0x20 DUP5 ADD MSTORE PUSH2 0x3991 DUP2 DUP6 DUP8 PUSH2 0x3941 JUMP JUMPDEST SWAP8 SWAP7 POP POP POP POP POP POP POP JUMP JUMPDEST PUSH1 0x20 DUP2 MSTORE PUSH1 0x0 PUSH2 0x1699 PUSH1 0x20 DUP4 ADD DUP5 DUP7 PUSH2 0x3941 JUMP JUMPDEST PUSH1 0x0 DUP1 DUP4 CALLDATALOAD PUSH1 0x1E NOT DUP5 CALLDATASIZE SUB ADD DUP2 SLT PUSH2 0x39C7 JUMPI PUSH1 0x0 DUP1 REVERT JUMPDEST DUP4 ADD DUP1 CALLDATALOAD SWAP2 POP PUSH1 0x1 PUSH1 0x1 PUSH1 0x40 SHL SUB DUP3 GT ISZERO PUSH2 0x39E1 JUMPI PUSH1 0x0 DUP1 REVERT JUMPDEST PUSH1 0x20 ADD SWAP2 POP CALLDATASIZE DUP2 SWAP1 SUB DUP3 SGT ISZERO PUSH2 0xD2C JUMPI PUSH1 0x0 DUP1 REVERT JUMPDEST PUSH2 0x3A00 DUP3 DUP4 PUSH2 0x39B0 JUMP JUMPDEST PUSH1 0x1 PUSH1 0x1 PUSH1 0x40 SHL SUB DUP2 GT ISZERO PUSH2 0x3A17 JUMPI PUSH2 0x3A17 PUSH2 0x3125 JUMP JUMPDEST PUSH2 0x3A2B DUP2 PUSH2 0x3A25 DUP6 SLOAD PUSH2 0x36CE JUMP JUMPDEST DUP6 PUSH2 0x376A JUMP JUMPDEST PUSH1 0x0 PUSH1 0x1F DUP3 GT PUSH1 0x1 DUP2 EQ PUSH2 0x3A59 JUMPI PUSH1 0x0 DUP4 ISZERO PUSH2 0x3A47 JUMPI POP DUP4 DUP3 ADD CALLDATALOAD JUMPDEST PUSH2 0x3A51 DUP5 DUP3 PUSH2 0x37BA JUMP JUMPDEST DUP7 SSTORE POP PUSH2 0x3AB3 JUMP JUMPDEST PUSH1 0x0 DUP6 DUP2 MSTORE PUSH1 0x20 SWAP1 KECCAK256 PUSH1 0x1F NOT DUP5 AND SWAP1 DUP4 JUMPDEST DUP3 DUP2 LT ISZERO PUSH2 0x3A8A JUMPI DUP7 DUP6 ADD CALLDATALOAD DUP3 SSTORE PUSH1 0x20 SWAP5 DUP6 ADD SWAP5 PUSH1 0x1 SWAP1 SWAP3 ADD SWAP2 ADD PUSH2 0x3A6A JUMP JUMPDEST POP DUP5 DUP3 LT ISZERO PUSH2 0x3AA7 JUMPI PUSH1 0x0 NOT PUSH1 0xF8 DUP7 PUSH1 0x3 SHL AND SHR NOT DUP5 DUP8 ADD CALLDATALOAD AND DUP2 SSTORE JUMPDEST POP POP PUSH1 0x1 DUP4 PUSH1 0x1 SHL ADD DUP6 SSTORE JUMPDEST POP POP POP POP PUSH2 0x3AC4 PUSH1 0x20 DUP4 ADD DUP4 PUSH2 0x39B0 JUMP JUMPDEST PUSH2 0x3AD2 DUP2 DUP4 PUSH1 0x1 DUP7 ADD PUSH2 0x3888 JUMP JUMPDEST POP POP PUSH2 0x3AE1 PUSH1 0x40 DUP4 ADD DUP4 PUSH2 0x39B0 JUMP JUMPDEST PUSH2 0x3AEF DUP2 DUP4 PUSH1 0x2 DUP7 ADD PUSH2 0x3888 JUMP JUMPDEST POP POP PUSH1 0x60 DUP3 ADD CALLDATALOAD PUSH1 0x3 DUP3 ADD SSTORE PUSH1 0x80 DUP3 ADD CALLDATALOAD PUSH1 0x4 DUP3 ADD SSTORE PUSH1 0xA0 DUP3 ADD CALLDATALOAD PUSH1 0x5 DUP3 ADD SSTORE POP POP JUMP JUMPDEST PUSH1 0x0 DUP1 DUP4 CALLDATALOAD PUSH1 0x1E NOT DUP5 CALLDATASIZE SUB ADD DUP2 SLT PUSH2 0x3B2A JUMPI PUSH1 0x0 DUP1 REVERT JUMPDEST DUP4 ADD PUSH1 0x20 DUP2 ADD SWAP3 POP CALLDATALOAD SWAP1 POP PUSH1 0x1 PUSH1 0x1 PUSH1 0x40 SHL SUB DUP2 GT ISZERO PUSH2 0x3B49 JUMPI PUSH1 0x0 DUP1 REVERT JUMPDEST DUP1 CALLDATASIZE SUB DUP3 SGT ISZERO PUSH2 0xD2C JUMPI PUSH1 0x0 DUP1 REVERT JUMPDEST PUSH1 0x20 DUP2 MSTORE PUSH1 0x0 PUSH2 0x3B68 DUP4 DUP5 PUSH2 0x3B13 JUMP JUMPDEST PUSH1 0xC0 PUSH1 0x20 DUP6 ADD MSTORE PUSH2 0x3B7D PUSH1 0xE0 DUP6 ADD DUP3 DUP5 PUSH2 0x3941 JUMP JUMPDEST SWAP2 POP POP PUSH2 0x3B8D PUSH1 0x20 DUP6 ADD DUP6 PUSH2 0x3B13 JUMP JUMPDEST PUSH1 0x1F NOT DUP1 DUP7 DUP6 SUB ADD PUSH1 0x40 DUP8 ADD MSTORE PUSH2 0x3BA5 DUP5 DUP4 DUP6 PUSH2 0x3941 JUMP JUMPDEST SWAP4 POP PUSH2 0x3BB4 PUSH1 0x40 DUP9 ADD DUP9 PUSH2 0x3B13 JUMP JUMPDEST SWAP4 POP SWAP2 POP DUP1 DUP7 DUP6 SUB ADD PUSH1 0x60 DUP8 ADD MSTORE POP PUSH2 0x3BCE DUP4 DUP4 DUP4 PUSH2 0x3941 JUMP JUMPDEST SWAP3 POP POP POP PUSH1 0x60 DUP5 ADD CALLDATALOAD PUSH1 0x80 DUP5 ADD MSTORE PUSH1 0x80 DUP5 ADD CALLDATALOAD PUSH1 0xA0 DUP5 ADD MSTORE PUSH1 0xA0 DUP5 ADD CALLDATALOAD PUSH1 0xC0 DUP5 ADD MSTORE DUP1 SWAP2 POP POP SWAP3 SWAP2 POP POP JUMP JUMPDEST PUSH1 0x0 DUP1 DUP5 SLOAD PUSH2 0x3C08 DUP2 PUSH2 0x36CE JUMP JUMPDEST PUSH1 0x1 DUP3 DUP2 AND DUP1 ISZERO PUSH2 0x3C20 JUMPI PUSH1 0x1 DUP2 EQ PUSH2 0x3C35 JUMPI PUSH2 0x3C64 JUMP JUMPDEST PUSH1 0xFF NOT DUP5 AND DUP8 MSTORE DUP3 ISZERO ISZERO DUP4 MUL DUP8 ADD SWAP5 POP PUSH2 0x3C64 JUMP JUMPDEST DUP9 PUSH1 0x0 MSTORE PUSH1 0x20 DUP1 PUSH1 0x0 KECCAK256 PUSH1 0x0 JUMPDEST DUP6 DUP2 LT ISZERO PUSH2 0x3C5B JUMPI DUP2 SLOAD DUP11 DUP3 ADD MSTORE SWAP1 DUP5 ADD SWAP1 DUP3 ADD PUSH2 0x3C42 JUMP JUMPDEST POP POP POP DUP3 DUP8 ADD SWAP5 POP JUMPDEST POP POP POP POP DUP4 MLOAD PUSH2 0x3C78 DUP2 DUP4 PUSH1 0x20 DUP9 ADD PUSH2 0x2FE1 JUMP JUMPDEST PUSH5 0x173539B7B7 PUSH1 0xD9 SHL SWAP2 ADD SWAP1 DUP2 MSTORE PUSH1 0x5 ADD SWAP5 SWAP4 POP POP POP POP JUMP JUMPDEST PUSH1 0x0 DUP2 PUSH2 0x3CA0 JUMPI PUSH2 0x3CA0 PUSH2 0x3708 JUMP JUMPDEST POP PUSH1 0x0 NOT ADD SWAP1 JUMP JUMPDEST PUSH1 0x20 DUP1 DUP3 MSTORE PUSH1 0x34 SWAP1 DUP3 ADD MSTORE PUSH32 0x455243373231415F5F496E697469616C697A61626C653A20636F6E7472616374 PUSH1 0x40 DUP3 ADD MSTORE PUSH20 0x206973206E6F7420696E697469616C697A696E67 PUSH1 0x60 SHL PUSH1 0x60 DUP3 ADD MSTORE PUSH1 0x80 ADD SWAP1 JUMP JUMPDEST PUSH1 0x0 PUSH1 0x20 DUP3 DUP5 SUB SLT ISZERO PUSH2 0x3D0E JUMPI PUSH1 0x0 DUP1 REVERT JUMPDEST POP MLOAD SWAP2 SWAP1 POP JUMP JUMPDEST PUSH1 0x1 PUSH1 0x1 PUSH1 0xA0 SHL SUB DUP6 DUP2 AND DUP3 MSTORE DUP5 AND PUSH1 0x20 DUP3 ADD MSTORE PUSH1 0x40 DUP2 ADD DUP4 SWAP1 MSTORE PUSH1 0x80 PUSH1 0x60 DUP3 ADD DUP2 SWAP1 MSTORE PUSH1 0x0 SWAP1 PUSH2 0x3D48 SWAP1 DUP4 ADD DUP5 PUSH2 0x3005 JUMP JUMPDEST SWAP7 SWAP6 POP POP POP POP POP POP JUMP JUMPDEST PUSH1 0x0 PUSH1 0x20 DUP3 DUP5 SUB SLT ISZERO PUSH2 0x3D64 JUMPI PUSH1 0x0 DUP1 REVERT JUMPDEST DUP2 MLOAD PUSH2 0x169C DUP2 PUSH2 0x2F54 JUMP JUMPDEST PUSH1 0x0 DUP3 MLOAD PUSH2 0x3D81 DUP2 DUP5 PUSH1 0x20 DUP8 ADD PUSH2 0x2FE1 JUMP JUMPDEST SWAP2 SWAP1 SWAP2 ADD SWAP3 SWAP2 POP POP JUMP INVALID 0x4B 0xA6 DUP14 CODECOPY TIMESTAMP SWAP7 0xE9 BLOBBASEFEE 0xB6 MSTORE RETURNDATASIZE PUSH27 0xA99D008A89D73B64505B067E0770522FF96E2330360894A13BA1A3 0x21 MOD PUSH8 0xC828492DB98DCA3E KECCAK256 PUSH23 0xCC3735A920A3CA505D382BBCA49807205CE4D355092EF5 0xA8 LOG1 DUP16 JUMP 0xE8 SWAP2 EXTCODECOPY DELEGATECALL LOG2 ADD 0xFB 0xE2 DUP8 DUP3 JUMPDEST MULMOD JUMP SWAP4 0xC2 OR PUSH22 0xA2646970667358221220FF4E2BE72A15314466F503D6 0xF6 RETURNDATASIZE 0x24 0x4D 0x4E 0xAC PC PUSH25 0x960FBD9F3023F516F94CE50064736F6C634300081800330000 "},"methodIdentifiers":{"ADMIN_ROLE()":"75b238fc","CRAFTER_ROLE()":"338cab93","DEFAULT_ADMIN_ROLE()":"a217fddf","MAX_SUPPLY()":"32cb6b0c","UPGRADE_INTERFACE_VERSION()":"ad3cb1cc","adminMint(address,uint256)":"e58306f9","approve(address,uint256)":"095ea7b3","balanceOf(address)":"70a08231","explicitOwnershipOf(uint256)":"c23dc68f","explicitOwnershipsOf(uint256[])":"5bbb2177","freezeMetadata(uint256)":"4dcf6ad6","getApproved(uint256)":"081812fc","getRoleAdmin(bytes32)":"248a9ca3","getTraits(uint256)":"e1dc0761","grantRole(bytes32,address)":"2f2ff15d","hasRole(bytes32,address)":"91d14854","initialize(string,string)":"4cd88b76","isApprovedForAll(address,address)":"e985e9c5","maxWalletHoldings()":"b7ea78b5","mintPrice()":"6817c76c","name()":"06fdde03","ownerOf(uint256)":"6352211e","pause()":"8456cb59","paused()":"5c975abb","proxiableUUID()":"52d1902d","publicMint(uint256)":"2db11544","renounceRole(bytes32,address)":"36568abe","revokeRole(bytes32,address)":"d547741f","royaltyInfo(uint256,uint256)":"2a55205a","safeTransferFrom(address,address,uint256)":"42842e0e","safeTransferFrom(address,address,uint256,bytes)":"b88d4fde","setApprovalForAll(address,bool)":"a22cb465","setBaseURI(string)":"55f804b3","setCollectionDetails(string,string)":"5008d928","setMaxWalletHoldings(uint256)":"99061beb","setMintPrice(uint256)":"f4a0a528","setRoyaltyInfo(address,uint96)":"02fa7c47","supportsInterface(bytes4)":"01ffc9a7","symbol()":"95d89b41","tokenURI(uint256)":"c87b56dd","tokensOfOwner(address)":"8462151c","tokensOfOwnerIn(address,uint256,uint256)":"99a2557a","totalSupply()":"18160ddd","transferFrom(address,address,uint256)":"23b872dd","unpause()":"3f4ba83a","updateMetadata(uint256,string)":"53c8388e","updateTraits(uint256,(string,string,string,uint256,uint256,uint256))":"c1380e29","upgradeToAndCall(address,bytes)":"4f1ef286","withdraw(address)":"51cff8d9"}},"storageLayout":{"storage":[{"astId":7406,"contract":"contracts/CraftedCollection.sol:CraftedCollection","label":"mintPrice","offset":0,"slot":"0","type":"t_uint256"},{"astId":7408,"contract":"contracts/CraftedCollection.sol:CraftedCollection","label":"maxWalletHoldings","offset":0,"slot":"1","type":"t_uint256"},{"astId":7410,"contract":"contracts/CraftedCollection.sol:CraftedCollection","label":"_baseTokenURI","offset":0,"slot":"2","type":"t_string_storage"},{"astId":7412,"contract":"contracts/CraftedCollection.sol:CraftedCollection","label":"_collectionName","offset":0,"slot":"3","type":"t_string_storage"},{"astId":7414,"contract":"contracts/CraftedCollection.sol:CraftedCollection","label":"_collectionSymbol","offset":0,"slot":"4","type":"t_string_storage"},{"astId":7432,"contract":"contracts/CraftedCollection.sol:CraftedCollection","label":"tokenTraits","offset":0,"slot":"5","type":"t_mapping(t_uint256,t_struct(Traits)7427_storage)"},{"astId":7436,"contract":"contracts/CraftedCollection.sol:CraftedCollection","label":"_metadataFrozen","offset":0,"slot":"6","type":"t_mapping(t_uint256,t_bool)"}],"types":{"t_bool":{"encoding":"inplace","label":"bool","numberOfBytes":"1"},"t_mapping(t_uint256,t_bool)":{"encoding":"mapping","key":"t_uint256","label":"mapping(uint256 => bool)","numberOfBytes":"32","value":"t_bool"},"t_mapping(t_uint256,t_struct(Traits)7427_storage)":{"encoding":"mapping","key":"t_uint256","label":"mapping(uint256 => struct CraftedCollection.Traits)","numberOfBytes":"32","value":"t_struct(Traits)7427_storage"},"t_string_storage":{"encoding":"bytes","label":"string","numberOfBytes":"32"},"t_struct(Traits)7427_storage":{"encoding":"inplace","label":"struct CraftedCollection.Traits","members":[{"astId":7416,"contract":"contracts/CraftedCollection.sol:CraftedCollection","label":"code","offset":0,"slot":"0","type":"t_string_storage"},{"astId":7418,"contract":"contracts/CraftedCollection.sol:CraftedCollection","label":"artVersion","offset":0,"slot":"1","type":"t_string_storage"},{"astId":7420,"contract":"contracts/CraftedCollection.sol:CraftedCollection","label":"metadataURI","offset":0,"slot":"2","type":"t_string_storage"},{"astId":7422,"contract":"contracts/CraftedCollection.sol:CraftedCollection","label":"level","offset":0,"slot":"3","type":"t_uint256"},{"astId":7424,"contract":"contracts/CraftedCollection.sol:CraftedCollection","label":"power","offset":0,"slot":"4","type":"t_uint256"},{"astId":7426,"contract":"contracts/CraftedCollection.sol:CraftedCollection","label":"rarity","offset":0,"slot":"5","type":"t_uint256"}],"numberOfBytes":"192"},"t_uint256":{"encoding":"inplace","label":"uint256","numberOfBytes":"32"}}}}}}