{"contracts/CraftedCollection.sol":{"CraftedCollection":{"abi":[{"inputs":[],"name":"AccessControlBadConfirmation","type":"error"},{"inputs":[{"internalType":"address","name":"account","type":"address"},{"internalType":"bytes32","name":"neededRole","type":"bytes32"}],"name":"AccessControlUnauthorizedAccount","type":"error"},{"inputs":[{"internalType":"address","name":"target","type":"address"}],"name":"AddressEmptyCode","type":"error"},{"inputs":[],"name":"ApprovalCallerNotOwnerNorApproved","type":"error"},{"inputs":[],"name":"ApprovalQueryForNonexistentToken","type":"error"},{"inputs":[],"name":"BalanceQueryForZeroAddress","type":"error"},{"inputs":[{"internalType":"address","name":"implementation","type":"address"}],"name":"ERC1967InvalidImplementation","type":"error"},{"inputs":[],"name":"ERC1967NonPayable","type":"error"},{"inputs":[{"internalType":"uint256","name":"numerator","type":"uint256"},{"internalType":"uint256","name":"denominator","type":"uint256"}],"name":"ERC2981InvalidDefaultRoyalty","type":"error"},{"inputs":[{"internalType":"address","name":"receiver","type":"address"}],"name":"ERC2981InvalidDefaultRoyaltyReceiver","type":"error"},{"inputs":[{"internalType":"uint256","name":"tokenId","type":"uint256"},{"internalType":"uint256","name":"numerator","type":"uint256"},{"internalType":"uint256","name":"denominator","type":"uint256"}],"name":"ERC2981InvalidTokenRoyalty","type":"error"},{"inputs":[{"internalType":"uint256","name":"tokenId","type":"uint256"},{"internalType":"address","name":"receiver","type":"address"}],"name":"ERC2981InvalidTokenRoyaltyReceiver","type":"error"},{"inputs":[],"name":"EnforcedPause","type":"error"},{"inputs":[],"name":"ExpectedPause","type":"error"},{"inputs":[],"name":"FailedCall","type":"error"},{"inputs":[],"name":"FallbackNotAllowed","type":"error"},{"inputs":[{"internalType":"uint256","name":"balance","type":"uint256"},{"internalType":"uint256","name":"needed","type":"uint256"}],"name":"InsufficientBalance","type":"error"},{"inputs":[],"name":"InsufficientPayment","type":"error"},{"inputs":[],"name":"InvalidInitialization","type":"error"},{"inputs":[],"name":"InvalidQueryRange","type":"error"},{"inputs":[],"name":"InvalidToken","type":"error"},{"inputs":[],"name":"MaxSupplyReached","type":"error"},{"inputs":[],"name":"MaxWalletLimit","type":"error"},{"inputs":[],"name":"MetadataIsFrozen","type":"error"},{"inputs":[],"name":"MintERC2309QuantityExceedsLimit","type":"error"},{"inputs":[],"name":"MintToZeroAddress","type":"error"},{"inputs":[],"name":"MintZeroQuantity","type":"error"},{"inputs":[],"name":"NotAuthorized","type":"error"},{"inputs":[],"name":"NotCompatibleWithSpotMints","type":"error"},{"inputs":[],"name":"NotInitializing","type":"error"},{"inputs":[],"name":"OwnerQueryForNonexistentToken","type":"error"},{"inputs":[],"name":"OwnershipNotInitializedForExtraData","type":"error"},{"inputs":[],"name":"ReentrancyGuardReentrantCall","type":"error"},{"inputs":[],"name":"SequentialMintExceedsLimit","type":"error"},{"inputs":[],"name":"SequentialUpToTooSmall","type":"error"},{"inputs":[],"name":"SpotMintTokenIdTooSmall","type":"error"},{"inputs":[],"name":"TokenAlreadyExists","type":"error"},{"inputs":[],"name":"TransferCallerNotOwnerNorApproved","type":"error"},{"inputs":[],"name":"TransferFromIncorrectOwner","type":"error"},{"inputs":[],"name":"TransferToNonERC721ReceiverImplementer","type":"error"},{"inputs":[],"name":"TransferToZeroAddress","type":"error"},{"inputs":[],"name":"URIQueryForNonexistentToken","type":"error"},{"inputs":[],"name":"UUPSUnauthorizedCallContext","type":"error"},{"inputs":[{"internalType":"bytes32","name":"slot","type":"bytes32"}],"name":"UUPSUnsupportedProxiableUUID","type":"error"},{"inputs":[],"name":"ZeroAddress","type":"error"},{"anonymous":false,"inputs":[{"indexed":true,"internalType":"address","name":"owner","type":"address"},{"indexed":true,"internalType":"address","name":"approved","type":"address"},{"indexed":true,"internalType":"uint256","name":"tokenId","type":"uint256"}],"name":"Approval","type":"event"},{"anonymous":false,"inputs":[{"indexed":true,"internalType":"address","name":"owner","type":"address"},{"indexed":true,"internalType":"address","name":"operator","type":"address"},{"indexed":false,"internalType":"bool","name":"approved","type":"bool"}],"name":"ApprovalForAll","type":"event"},{"anonymous":false,"inputs":[{"indexed":false,"internalType":"string","name":"baseURI","type":"string"}],"name":"BaseURISet","type":"event"},{"anonymous":false,"inputs":[{"indexed":true,"internalType":"uint256","name":"fromTokenId","type":"uint256"},{"indexed":false,"internalType":"uint256","name":"toTokenId","type":"uint256"},{"indexed":true,"internalType":"address","name":"from","type":"address"},{"indexed":true,"internalType":"address","name":"to","type":"address"}],"name":"ConsecutiveTransfer","type":"event"},{"anonymous":false,"inputs":[],"name":"CraftingInitialized","type":"event"},{"anonymous":false,"inputs":[{"indexed":false,"internalType":"uint64","name":"version","type":"uint64"}],"name":"Initialized","type":"event"},{"anonymous":false,"inputs":[{"indexed":false,"internalType":"uint256","name":"newLimit","type":"uint256"}],"name":"MaxWalletHoldingsUpdated","type":"event"},{"anonymous":false,"inputs":[{"indexed":true,"internalType":"uint256","name":"tokenId","type":"uint256"}],"name":"MetadataFrozen","type":"event"},{"anonymous":false,"inputs":[{"indexed":true,"internalType":"uint256","name":"tokenId","type":"uint256"},{"indexed":false,"internalType":"string","name":"metadataURI","type":"string"}],"name":"MetadataUpdated","type":"event"},{"anonymous":false,"inputs":[{"indexed":false,"internalType":"uint256","name":"newPrice","type":"uint256"}],"name":"MintPriceUpdated","type":"event"},{"anonymous":false,"inputs":[{"indexed":true,"internalType":"address","name":"to","type":"address"},{"indexed":false,"internalType":"uint256","name":"quantity","type":"uint256"}],"name":"Minted","type":"event"},{"anonymous":false,"inputs":[{"indexed":false,"internalType":"address","name":"account","type":"address"}],"name":"Paused","type":"event"},{"anonymous":false,"inputs":[{"indexed":true,"internalType":"address","name":"sender","type":"address"},{"indexed":false,"internalType":"uint256","name":"amount","type":"uint256"}],"name":"Received","type":"event"},{"anonymous":false,"inputs":[{"indexed":true,"internalType":"bytes32","name":"role","type":"bytes32"},{"indexed":true,"internalType":"bytes32","name":"previousAdminRole","type":"bytes32"},{"indexed":true,"internalType":"bytes32","name":"newAdminRole","type":"bytes32"}],"name":"RoleAdminChanged","type":"event"},{"anonymous":false,"inputs":[{"indexed":true,"internalType":"bytes32","name":"role","type":"bytes32"},{"indexed":true,"internalType":"address","name":"account","type":"address"},{"indexed":true,"internalType":"address","name":"sender","type":"address"}],"name":"RoleGranted","type":"event"},{"anonymous":false,"inputs":[{"indexed":true,"internalType":"bytes32","name":"role","type":"bytes32"},{"indexed":true,"internalType":"address","name":"account","type":"address"},{"indexed":true,"internalType":"address","name":"sender","type":"address"}],"name":"RoleRevoked","type":"event"},{"anonymous":false,"inputs":[{"indexed":true,"internalType":"uint256","name":"tokenId","type":"uint256"},{"components":[{"internalType":"string","name":"code","type":"string"},{"internalType":"string","name":"artVersion","type":"string"},{"internalType":"string","name":"metadataURI","type":"string"},{"internalType":"uint256","name":"level","type":"uint256"},{"internalType":"uint256","name":"power","type":"uint256"},{"internalType":"uint256","name":"rarity","type":"uint256"}],"indexed":false,"internalType":"struct CraftedCollection.Traits","name":"traits","type":"tuple"}],"name":"TraitsUpdated","type":"event"},{"anonymous":false,"inputs":[{"indexed":true,"internalType":"address","name":"from","type":"address"},{"indexed":true,"internalType":"address","name":"to","type":"address"},{"indexed":true,"internalType":"uint256","name":"tokenId","type":"uint256"}],"name":"Transfer","type":"event"},{"anonymous":false,"inputs":[{"indexed":false,"internalType":"address","name":"account","type":"address"}],"name":"Unpaused","type":"event"},{"anonymous":false,"inputs":[{"indexed":true,"internalType":"address","name":"implementation","type":"address"}],"name":"Upgraded","type":"event"},{"anonymous":false,"inputs":[{"indexed":true,"internalType":"address","name":"recipient","type":"address"},{"indexed":false,"internalType":"uint256","name":"amount","type":"uint256"}],"name":"Withdraw","type":"event"},{"stateMutability":"payable","type":"fallback"},{"inputs":[],"name":"ADMIN_ROLE","outputs":[{"internalType":"bytes32","name":"","type":"bytes32"}],"stateMutability":"view","type":"function"},{"inputs":[],"name":"CRAFTER_ROLE","outputs":[{"internalType":"bytes32","name":"","type":"bytes32"}],"stateMutability":"view","type":"function"},{"inputs":[],"name":"DEFAULT_ADMIN_ROLE","outputs":[{"internalType":"bytes32","name":"","type":"bytes32"}],"stateMutability":"view","type":"function"},{"inputs":[],"name":"MAX_SUPPLY","outputs":[{"internalType":"uint256","name":"","type":"uint256"}],"stateMutability":"view","type":"function"},{"inputs":[],"name":"UPGRADE_INTERFACE_VERSION","outputs":[{"internalType":"string","name":"","type":"string"}],"stateMutability":"view","type":"function"},{"inputs":[{"internalType":"address","name":"to","type":"address"},{"internalType":"uint256","name":"quantity","type":"uint256"}],"name":"adminMint","outputs":[],"stateMutability":"nonpayable","type":"function"},{"inputs":[{"internalType":"address","name":"to","type":"address"},{"internalType":"uint256","name":"tokenId","type":"uint256"}],"name":"approve","outputs":[],"stateMutability":"payable","type":"function"},{"inputs":[{"internalType":"address","name":"owner","type":"address"}],"name":"balanceOf","outputs":[{"internalType":"uint256","name":"","type":"uint256"}],"stateMutability":"view","type":"function"},{"inputs":[{"internalType":"uint256","name":"tokenId","type":"uint256"}],"name":"explicitOwnershipOf","outputs":[{"components":[{"internalType":"address","name":"addr","type":"address"},{"internalType":"uint64","name":"startTimestamp","type":"uint64"},{"internalType":"bool","name":"burned","type":"bool"},{"internalType":"uint24","name":"extraData","type":"uint24"}],"internalType":"struct IERC721AUpgradeable.TokenOwnership","name":"ownership","type":"tuple"}],"stateMutability":"view","type":"function"},{"inputs":[{"internalType":"uint256[]","name":"tokenIds","type":"uint256[]"}],"name":"explicitOwnershipsOf","outputs":[{"components":[{"internalType":"address","name":"addr","type":"address"},{"internalType":"uint64","name":"startTimestamp","type":"uint64"},{"internalType":"bool","name":"burned","type":"bool"},{"internalType":"uint24","name":"extraData","type":"uint24"}],"internalType":"struct IERC721AUpgradeable.TokenOwnership[]","name":"","type":"tuple[]"}],"stateMutability":"view","type":"function"},{"inputs":[{"internalType":"uint256","name":"tokenId","type":"uint256"}],"name":"freezeMetadata","outputs":[],"stateMutability":"nonpayable","type":"function"},{"inputs":[{"internalType":"uint256","name":"tokenId","type":"uint256"}],"name":"getApproved","outputs":[{"internalType":"address","name":"","type":"address"}],"stateMutability":"view","type":"function"},{"inputs":[{"internalType":"bytes32","name":"role","type":"bytes32"}],"name":"getRoleAdmin","outputs":[{"internalType":"bytes32","name":"","type":"bytes32"}],"stateMutability":"view","type":"function"},{"inputs":[{"internalType":"uint256","name":"tokenId","type":"uint256"}],"name":"getTraits","outputs":[{"components":[{"internalType":"string","name":"code","type":"string"},{"internalType":"string","name":"artVersion","type":"string"},{"internalType":"string","name":"metadataURI","type":"string"},{"internalType":"uint256","name":"level","type":"uint256"},{"internalType":"uint256","name":"power","type":"uint256"},{"internalType":"uint256","name":"rarity","type":"uint256"}],"internalType":"struct CraftedCollection.Traits","name":"","type":"tuple"}],"stateMutability":"view","type":"function"},{"inputs":[{"internalType":"bytes32","name":"role","type":"bytes32"},{"internalType":"address","name":"account","type":"address"}],"name":"grantRole","outputs":[],"stateMutability":"nonpayable","type":"function"},{"inputs":[{"internalType":"bytes32","name":"role","type":"bytes32"},{"internalType":"address","name":"account","type":"address"}],"name":"hasRole","outputs":[{"internalType":"bool","name":"","type":"bool"}],"stateMutability":"view","type":"function"},{"inputs":[{"internalType":"string","name":"name_","type":"string"},{"internalType":"string","name":"symbol_","type":"string"}],"name":"initialize","outputs":[],"stateMutability":"nonpayable","type":"function"},{"inputs":[{"internalType":"address","name":"owner","type":"address"},{"internalType":"address","name":"operator","type":"address"}],"name":"isApprovedForAll","outputs":[{"internalType":"bool","name":"","type":"bool"}],"stateMutability":"view","type":"function"},{"inputs":[],"name":"maxWalletHoldings","outputs":[{"internalType":"uint256","name":"","type":"uint256"}],"stateMutability":"view","type":"function"},{"inputs":[],"name":"mintPrice","outputs":[{"internalType":"uint256","name":"","type":"uint256"}],"stateMutability":"view","type":"function"},{"inputs":[],"name":"name","outputs":[{"internalType":"string","name":"","type":"string"}],"stateMutability":"view","type":"function"},{"inputs":[{"internalType":"uint256","name":"tokenId","type":"uint256"}],"name":"ownerOf","outputs":[{"internalType":"address","name":"","type":"address"}],"stateMutability":"view","type":"function"},{"inputs":[],"name":"pause","outputs":[],"stateMutability":"nonpayable","type":"function"},{"inputs":[],"name":"paused","outputs":[{"internalType":"bool","name":"","type":"bool"}],"stateMutability":"view","type":"function"},{"inputs":[],"name":"proxiableUUID","outputs":[{"internalType":"bytes32","name":"","type":"bytes32"}],"stateMutability":"view","type":"function"},{"inputs":[{"internalType":"uint256","name":"quantity","type":"uint256"}],"name":"publicMint","outputs":[],"stateMutability":"payable","type":"function"},{"inputs":[{"internalType":"bytes32","name":"role","type":"bytes32"},{"internalType":"address","name":"callerConfirmation","type":"address"}],"name":"renounceRole","outputs":[],"stateMutability":"nonpayable","type":"function"},{"inputs":[{"internalType":"bytes32","name":"role","type":"bytes32"},{"internalType":"address","name":"account","type":"address"}],"name":"revokeRole","outputs":[],"stateMutability":"nonpayable","type":"function"},{"inputs":[{"internalType":"uint256","name":"tokenId","type":"uint256"},{"internalType":"uint256","name":"salePrice","type":"uint256"}],"name":"royaltyInfo","outputs":[{"internalType":"address","name":"receiver","type":"address"},{"internalType":"uint256","name":"amount","type":"uint256"}],"stateMutability":"view","type":"function"},{"inputs":[{"internalType":"address","name":"from","type":"address"},{"internalType":"address","name":"to","type":"address"},{"internalType":"uint256","name":"tokenId","type":"uint256"}],"name":"safeTransferFrom","outputs":[],"stateMutability":"payable","type":"function"},{"inputs":[{"internalType":"address","name":"from","type":"address"},{"internalType":"address","name":"to","type":"address"},{"internalType":"uint256","name":"tokenId","type":"uint256"},{"internalType":"bytes","name":"_data","type":"bytes"}],"name":"safeTransferFrom","outputs":[],"stateMutability":"payable","type":"function"},{"inputs":[{"internalType":"address","name":"operator","type":"address"},{"internalType":"bool","name":"approved","type":"bool"}],"name":"setApprovalForAll","outputs":[],"stateMutability":"nonpayable","type":"function"},{"inputs":[{"internalType":"string","name":"baseURI","type":"string"}],"name":"setBaseURI","outputs":[],"stateMutability":"nonpayable","type":"function"},{"inputs":[{"internalType":"uint256","name":"newLimit","type":"uint256"}],"name":"setMaxWalletHoldings","outputs":[],"stateMutability":"nonpayable","type":"function"},{"inputs":[{"internalType":"uint256","name":"newPrice","type":"uint256"}],"name":"setMintPrice","outputs":[],"stateMutability":"nonpayable","type":"function"},{"inputs":[{"internalType":"address","name":"receiver","type":"address"},{"internalType":"uint96","name":"feeNumerator","type":"uint96"}],"name":"setRoyaltyInfo","outputs":[],"stateMutability":"nonpayable","type":"function"},{"inputs":[{"internalType":"bytes4","name":"interfaceId","type":"bytes4"}],"name":"supportsInterface","outputs":[{"internalType":"bool","name":"","type":"bool"}],"stateMutability":"view","type":"function"},{"inputs":[],"name":"symbol","outputs":[{"internalType":"string","name":"","type":"string"}],"stateMutability":"view","type":"function"},{"inputs":[{"internalType":"uint256","name":"tokenId","type":"uint256"}],"name":"tokenURI","outputs":[{"internalType":"string","name":"","type":"string"}],"stateMutability":"view","type":"function"},{"inputs":[{"internalType":"address","name":"owner","type":"address"}],"name":"tokensOfOwner","outputs":[{"internalType":"uint256[]","name":"","type":"uint256[]"}],"stateMutability":"view","type":"function"},{"inputs":[{"internalType":"address","name":"owner","type":"address"},{"internalType":"uint256","name":"start","type":"uint256"},{"internalType":"uint256","name":"stop","type":"uint256"}],"name":"tokensOfOwnerIn","outputs":[{"internalType":"uint256[]","name":"","type":"uint256[]"}],"stateMutability":"view","type":"function"},{"inputs":[],"name":"totalSupply","outputs":[{"internalType":"uint256","name":"result","type":"uint256"}],"stateMutability":"view","type":"function"},{"inputs":[{"internalType":"address","name":"from","type":"address"},{"internalType":"address","name":"to","type":"address"},{"internalType":"uint256","name":"tokenId","type":"uint256"}],"name":"transferFrom","outputs":[],"stateMutability":"payable","type":"function"},{"inputs":[],"name":"unpause","outputs":[],"stateMutability":"nonpayable","type":"function"},{"inputs":[{"internalType":"uint256","name":"tokenId","type":"uint256"},{"internalType":"string","name":"newURI","type":"string"}],"name":"updateMetadata","outputs":[],"stateMutability":"nonpayable","type":"function"},{"inputs":[{"internalType":"uint256","name":"tokenId","type":"uint256"},{"components":[{"internalType":"string","name":"code","type":"string"},{"internalType":"string","name":"artVersion","type":"string"},{"internalType":"string","name":"metadataURI","type":"string"},{"internalType":"uint256","name":"level","type":"uint256"},{"internalType":"uint256","name":"power","type":"uint256"},{"internalType":"uint256","name":"rarity","type":"uint256"}],"internalType":"struct CraftedCollection.Traits","name":"newTraits","type":"tuple"}],"name":"updateTraits","outputs":[],"stateMutability":"nonpayable","type":"function"},{"inputs":[{"internalType":"address","name":"newImplementation","type":"address"},{"internalType":"bytes","name":"data","type":"bytes"}],"name":"upgradeToAndCall","outputs":[],"stateMutability":"payable","type":"function"},{"inputs":[{"internalType":"address payable","name":"recipient","type":"address"}],"name":"withdraw","outputs":[],"stateMutability":"nonpayable","type":"function"},{"stateMutability":"payable","type":"receive"}],"evm":{"bytecode":{"linkReferences":{},"object":"60a06040523060805234801561001457600080fd5b50608051613cd961003e600039600081816122c6015281816122ef01526124c70152613cd96000f3fe6080604052600436106102975760003560e01c80635c975abb1161015a578063a22cb465116100c1578063c87b56dd1161007a578063c87b56dd14610802578063d547741f14610822578063e1dc076114610842578063e58306f91461086f578063e985e9c51461088f578063f4a0a528146108af576102d3565b8063a22cb4651461073b578063ad3cb1cc1461075b578063b7ea78b51461078c578063b88d4fde146107a2578063c1380e29146107b5578063c23dc68f146107d5576102d3565b80638462151c116101135780638462151c1461068457806391d14854146106b157806395d89b41146106d157806399061beb146106e657806399a2557a14610706578063a217fddf14610726576102d3565b80635c975abb146105e25780636352211e146105f75780636817c76c1461061757806370a082311461062d57806375b238fc1461064d5780638456cb591461066f576102d3565b8063338cab93116101fe5780634f1ef286116101b75780634f1ef2861461052d57806351cff8d91461054057806352d1902d1461056057806353c8388e1461057557806355f804b3146105955780635bbb2177146105b5576102d3565b8063338cab931461048357806336568abe146104a55780633f4ba83a146104c557806342842e0e146104da5780634cd88b76146104ed5780634dcf6ad61461050d576102d3565b806323b872dd1161025057806323b872dd146103c8578063248a9ca3146103db5780632a55205a146103fb5780632db115441461043a5780632f2ff15d1461044d57806332cb6b0c1461046d576102d3565b806301ffc9a7146102ec57806302fa7c471461032157806306fdde0314610343578063081812fc14610365578063095ea7b31461039257806318160ddd146103a5576102d3565b366102d35760405134815233907f88a5966d370b9919b20f3e2c13ff65706f196a4e32cc2c12bf57088f885258749060200160405180910390a2005b604051630deab4c360e41b815260040160405180910390fd5b3480156102f857600080fd5b5061030c610307366004612ebf565b6108cf565b60405190151581526020015b60405180910390f35b34801561032d57600080fd5b5061034161033c366004612ef1565b6108e0565b005b34801561034f57600080fd5b5061035861092e565b6040516103189190612f86565b34801561037157600080fd5b50610385610380366004612f99565b6109c9565b6040516103189190612fb2565b6103416103a0366004612fc6565b610a0d565b3480156103b157600080fd5b506103ba610a1d565b604051908152602001610318565b6103416103d6366004612ff2565b610a5a565b3480156103e757600080fd5b506103ba6103f6366004612f99565b610c2a565b34801561040757600080fd5b5061041b610416366004613033565b610c4a565b604080516001600160a01b039093168352602083019190915201610318565b610341610448366004612f99565b610d11565b34801561045957600080fd5b50610341610468366004613055565b610e25565b34801561047957600080fd5b506103ba61037881565b34801561048f57600080fd5b506103ba600080516020613c4483398151915281565b3480156104b157600080fd5b506103416104c0366004613055565b610e47565b3480156104d157600080fd5b50610341610e7a565b6103416104e8366004612ff2565b610e9a565b3480156104f957600080fd5b5061034161050836600461311c565b610eb5565b34801561051957600080fd5b50610341610528366004612f99565b611175565b61034161053b36600461317f565b6111f7565b34801561054c57600080fd5b5061034161055b3660046131c4565b611212565b34801561056c57600080fd5b506103ba6112b9565b34801561058157600080fd5b50610341610590366004613222565b6112d6565b3480156105a157600080fd5b506103416105b036600461326d565b6113a1565b3480156105c157600080fd5b506105d56105d03660046132ae565b611405565b604051610318919061335e565b3480156105ee57600080fd5b5061030c611451565b34801561060357600080fd5b50610385610612366004612f99565b611466565b34801561062357600080fd5b506103ba60005481565b34801561063957600080fd5b506103ba6106483660046131c4565b611471565b34801561065957600080fd5b506103ba600080516020613c8483398151915281565b34801561067b57600080fd5b506103416114d0565b34801561069057600080fd5b506106a461069f3660046131c4565b6114f0565b60405161031891906133ac565b3480156106bd57600080fd5b5061030c6106cc366004613055565b61153e565b3480156106dd57600080fd5b50610358611574565b3480156106f257600080fd5b50610341610701366004612f99565b61158c565b34801561071257600080fd5b506106a46107213660046133e4565b6115e1565b34801561073257600080fd5b506103ba600081565b34801561074757600080fd5b50610341610756366004613419565b6115f8565b34801561076757600080fd5b50610358604051806040016040528060058152602001640352e302e360dc1b81525081565b34801561079857600080fd5b506103ba60015481565b6103416107b036600461344c565b611675565b3480156107c157600080fd5b506103416107d03660046134b7565b6116b0565b3480156107e157600080fd5b506107f56107f0366004612f99565b611778565b60405161031891906134f9565b34801561080e57600080fd5b5061035861081d366004612f99565b6117cf565b34801561082e57600080fd5b5061034161083d366004613055565b611829565b34801561084e57600080fd5b5061086261085d366004612f99565b611845565b6040516103189190613507565b34801561087b57600080fd5b5061034161088a366004612fc6565b611a97565b34801561089b57600080fd5b5061030c6108aa36600461358a565b611b71565b3480156108bb57600080fd5b506103416108ca366004612f99565b611bae565b60006108da82611bfb565b92915050565b600080516020613c848339815191526108f881611c20565b6001600160a01b03831661091f5760405163d92e233d60e01b815260040160405180910390fd5b6109298383611c2a565b505050565b6060610938611ced565b6002018054610946906135b8565b80601f0160208091040260200160405190810160405280929190818152602001828054610972906135b8565b80156109bf5780601f10610994576101008083540402835291602001916109bf565b820191906000526020600020905b8154815290600101906020018083116109a257829003601f168201915b5050505050905090565b60006109d482611d11565b6109e8576109e86333d1c03960e21b611d99565b6109f0611ced565b60009283526006016020525060409020546001600160a01b031690565b610a1982826001611da3565b5050565b600080610a28611ced565b60010154610a34611ced565b5403039050600019610a44611e54565b14610a5757610a51611ced565b60080154015b90565b6000610a6582611e5a565b6001600160a01b039485169490915081168414610a8b57610a8b62a1148160e81b611d99565b600080610a9784611f47565b91509150610abc8187610aa73390565b6001600160a01b039081169116811491141790565b610ade57610aca8633611b71565b610ade57610ade632ce44b5f60e11b611d99565b610aeb8686866001611f6f565b8015610af657600082555b610afe611ced565b6001600160a01b0387166000908152600591909101602052604090208054600019019055610b2a611ced565b6001600160a01b03861660008181526005929092016020526040909120805460010190554260a01b17600160e11b17610b61611ced565b60008681526004919091016020526040812091909155600160e11b84169003610bd75760018401610b90611ced565b600082815260049190910160205260408120549003610bd557610bb1611ced565b548114610bd55783610bc1611ced565b600083815260049190910160205260409020555b505b6001600160a01b0385168481887fddf252ad1be2c89b69c2b068fc378daa952ba7f163c4a11628f55a4df523b3ef600080a480600003610c2157610c21633a954ecd60e21b611d99565b50505050505050565b600080610c35611fd9565b60009384526020525050604090206001015490565b60008281527fdaedc9ab023613a7caf35e703657e986ccfad7e3eb0af93a2853f8d65dd86b0160205260408120805482917fdaedc9ab023613a7caf35e703657e986ccfad7e3eb0af93a2853f8d65dd86b00916001600160a01b03811690600160a01b90046001600160601b031681610cdd57505081546001600160a01b03811690600160a01b90046001600160601b03165b6000612710610cf56001600160601b0384168a613608565b610cff919061361f565b929650919450505050505b9250929050565b610d19611ffd565b610d21612025565b80600003610d425760405163c1ab6dc160e01b815260040160405180910390fd5b61037881610d4e610a1d565b610d589190613641565b1115610d775760405163d05cb60960e01b815260040160405180910390fd5b80600054610d859190613608565b341015610da55760405163cd1c886760e01b815260040160405180910390fd5b60015481610db233611471565b610dbc9190613641565b1115610ddb57604051633349019160e01b815260040160405180910390fd5b610de5338261206f565b60405181815233907f30385c845b448a36257a6a1716e6ad2e1bc2cbe333cde1e69fe849ad6511adfe9060200160405180910390a2610e22612089565b50565b610e2e82610c2a565b610e3781611c20565b610e4183836120af565b50505050565b6001600160a01b0381163314610e705760405163334bd91960e11b815260040160405180910390fd5b6109298282612150565b600080516020613c84833981519152610e9281611c20565b610e226121c8565b61092983838360405180602001604052806000815250611675565b610ebd61221f565b54610100900460ff16610edc57610ed261221f565b5460ff1615610ee0565b303b155b610f515760405162461bcd60e51b815260206004820152603760248201527f455243373231415f5f496e697469616c697a61626c653a20636f6e7472616374604482015276081a5cc8185b1c9958591e481a5b9a5d1a585b1a5e9959604a1b60648201526084015b60405180910390fd5b6000610f5b61221f565b54610100900460ff161590508015610fa7576001610f7761221f565b80549115156101000261ff00199092169190911790556001610f9761221f565b805460ff19169115159190911790555b6000610fb1612243565b805490915060ff600160401b82041615906001600160401b0316600081158015610fd85750825b90506000826001600160401b03166001148015610ff45750303b155b905081158015611002575080155b156110205760405163f92ee8a960e01b815260040160405180910390fd5b845467ffffffffffffffff19166001178555831561104a57845460ff60401b1916600160401b1785555b611054888861226c565b61105c6122a3565b6110646122a3565b61106c6122ab565b6110746122a3565b61107c6122a3565b6110876000336120af565b506110a0600080516020613c84833981519152336120af565b506110b9600080516020613c44833981519152336120af565b50666a94d74f43000060005560036001556110d6336101f4611c2a565b6040517fe3d77c0c81a47993ce8e388adc64fe0dc88bd28fbf57cbdf333006b59ad82a0a90600090a1831561114557845460ff60401b19168555604051600181527fc7f505b2f371ae2175ee4913f4499e1f2633a7b5936321eed1cdaeb6115181d29060200160405180910390a15b5050505050801561092957600061115a61221f565b80549115156101000261ff0019909216919091179055505050565b600080516020613c8483398151915261118d81611c20565b61119682611d11565b6111b35760405163c1ab6dc160e01b815260040160405180910390fd5b600082815260046020526040808220805460ff191660011790555183917f7c9bd91d0ccee585f666998e287e929bf935cedec1348f7afc4591eca690b90a91a25050565b6111ff6122bb565b61120882612360565b610a198282612378565b600080516020613c8483398151915261122a81611c20565b611232612025565b6001600160a01b0382166112595760405163d92e233d60e01b815260040160405180910390fd5b4761126d6001600160a01b0384168261242c565b826001600160a01b03167f884edad9ce6fa2440d8a54cc123490eb96d2768479d49ff9c7366125a9424364826040516112a891815260200190565b60405180910390a250610a19612089565b60006112c36124bc565b50600080516020613c6483398151915290565b600080516020613c448339815191526112ee81611c20565b6112f784611d11565b6113145760405163c1ab6dc160e01b815260040160405180910390fd5b60008481526004602052604090205460ff16156113445760405163b087bbf360e01b815260040160405180910390fd5b60008481526003602052604090206002016113608385836136b9565b50837f459157ba24c7ab9878b165ef465fa6ae2ab42bcd8445f576be378768b0c47309848460405161139392919061379b565b60405180910390a250505050565b600080516020613c848339815191526113b981611c20565b60026113c68385836136b9565b507ff9c7803e94e0d3c02900d8a90893a6d5e90dd04d32a4cfe825520f82bf9f32f683836040516113f892919061379b565b60405180910390a1505050565b60408051828152600583901b8082016020019092526060915b801561144957601f198082019186010135600061143a82611778565b848401602001525061141e9050565b509392505050565b60008061145c612505565b5460ff1692915050565b60006108da82611e5a565b60006001600160a01b038216611491576114916323d3ad8160e21b611d99565b6001600160401b036114a1611ced565b6005016000846001600160a01b03166001600160a01b0316815260200190815260200160002054169050919050565b600080516020613c848339815191526114e881611c20565b610e22612529565b60606000196114fd611e54565b146115125761151263bdba09d760e01b611d99565b60008061151d612570565b9050606081831461153657611533858484612580565b90505b949350505050565b600080611549611fd9565b6000948552602090815260408086206001600160a01b03959095168652939052505090205460ff1690565b606061157e611ced565b6003018054610946906135b8565b600080516020613c848339815191526115a481611c20565b60018290556040518281527f5a608a926cbc5e51dd142232855af48a512e7b6c9b23bf9ba9475f58fe108b7e906020015b60405180910390a15050565b60606115ee848484612580565b90505b9392505050565b80611601611ced565b336000818152600792909201602090815260408084206001600160a01b03881680865290835293819020805460ff19169515159590951790945592518415158152919290917f17307eab39ab6107e8899845ad3d59bd9653f200f220920489ca2b5937696c31910160405180910390a35050565b611680848484610a5a565b6001600160a01b0383163b15610e415761169c848484846126d6565b610e4157610e416368d2bf6b60e11b611d99565b600080516020613c448339815191526116c881611c20565b6116d183611d11565b6116ee5760405163c1ab6dc160e01b815260040160405180910390fd5b60008381526004602052604090205460ff161561171e5760405163b087bbf360e01b815260040160405180910390fd5b6000838152600360205260409020829061173882826137f5565b905050827fcb51969318cee471d3abc5ee4d81ea83e4748e5063261189cbf68810b17066cf8360405161176b9190613957565b60405180910390a2505050565b611780612e82565b611788611e54565b821115611798576108da826127b8565b6117a0612570565b8210156117ca575b6117b1826127e3565b6117c157600019909101906117a8565b6108da826127b8565b919050565b60606117da82611d11565b6117f75760405163c1ab6dc160e01b815260040160405180910390fd5b600261180283612803565b6040516020016118139291906139f9565b6040516020818303038152906040529050919050565b61183282610c2a565b61183b81611c20565b610e418383612150565b61187e6040518060c001604052806060815260200160608152602001606081526020016000815260200160008152602001600081525090565b61188782611d11565b6118a45760405163c1ab6dc160e01b815260040160405180910390fd5b60008281526003602052604090819020815160c081019092528054829082906118cc906135b8565b80601f01602080910402602001604051908101604052809291908181526020018280546118f8906135b8565b80156119455780601f1061191a57610100808354040283529160200191611945565b820191906000526020600020905b81548152906001019060200180831161192857829003601f168201915b5050505050815260200160018201805461195e906135b8565b80601f016020809104026020016040519081016040528092919081815260200182805461198a906135b8565b80156119d75780601f106119ac576101008083540402835291602001916119d7565b820191906000526020600020905b8154815290600101906020018083116119ba57829003601f168201915b505050505081526020016002820180546119f0906135b8565b80601f0160208091040260200160405190810160405280929190818152602001828054611a1c906135b8565b8015611a695780601f10611a3e57610100808354040283529160200191611a69565b820191906000526020600020905b815481529060010190602001808311611a4c57829003601f168201915b5050505050815260200160038201548152602001600482015481526020016005820154815250509050919050565b600080516020613c84833981519152611aaf81611c20565b6001600160a01b038316611ad65760405163d92e233d60e01b815260040160405180910390fd5b81600003611af75760405163c1ab6dc160e01b815260040160405180910390fd5b61037882611b03610a1d565b611b0d9190613641565b1115611b2c5760405163d05cb60960e01b815260040160405180910390fd5b611b36838361206f565b826001600160a01b03167f30385c845b448a36257a6a1716e6ad2e1bc2cbe333cde1e69fe849ad6511adfe8360405161176b91815260200190565b6000611b7b611ced565b6001600160a01b039384166000908152600791909101602090815260408083209490951682529290925250205460ff1690565b600080516020613c84833981519152611bc681611c20565b60008290556040518281527f525b762709cc2a983aec5ccdfd807a061f993c91090b5bcd7da92ca254976aaa906020016115d5565b60006001600160e01b0319821663152a902d60e11b14806108da57506108da82612895565b610e2281336128ca565b7fdaedc9ab023613a7caf35e703657e986ccfad7e3eb0af93a2853f8d65dd86b006127106001600160601b038316811015611c8a57604051636f483d0960e01b81526001600160601b038416600482015260248101829052604401610f48565b6001600160a01b038416611cb4576000604051635b6cc80560e11b8152600401610f489190612fb2565b50604080518082019091526001600160a01b039093168084526001600160601b039092166020909301839052600160a01b909202179055565b7f2569078dfb4b0305704d3008e7403993ae9601b85f7ae5e742de3de8f8011c4090565b6000611d1b611e54565b821115611d45576108da611d2d611ced565b60008481526004919091016020526040902054612903565b611d4d611ced565b548210156117ca5760005b611d60611ced565b600084815260049190910160205260408120549150819003611d8c57611d8583613a90565b9250611d58565b600160e01b161592915050565b8060005260046000fd5b6000611dae83611466565b9050818015611dc65750336001600160a01b03821614155b15611de957611dd58133611b71565b611de957611de96367d9dca160e11b611d99565b83611df2611ced565b6000858152600691909101602052604080822080546001600160a01b0319166001600160a01b0394851617905551859287811692908516917f8c5be1e5ebec7d5bd14f71427d1e84f3dd0314c0f7b2291e5b200ac8c7c3b9259190a450505050565b60001990565b6000611e64611ced565b600083815260049190910160205260409020549050611e81611e54565b821115611eab57611e9181612903565b15611e9b57919050565b611eab636f96cda160e11b611d99565b80600003611f2457611ebb611ced565b548210611ed257611ed2636f96cda160e11b611d99565b611eda611ced565b600019909201600081815260049390930160205260409092205490508015611ed257600160e01b8116600003611f0f57919050565b611f1f636f96cda160e11b611d99565b611ed2565b600160e01b8116600003611f3757919050565b6117ca636f96cda160e11b611d99565b6000806000611f54611ced565b60009485526006016020525050604090912080549092909150565b6001600160a01b03831615801590611f995750836001600160a01b0316836001600160a01b031614155b15611fd45760015481611fab85611471565b611fb59190613641565b1115611fd457604051633349019160e01b815260040160405180910390fd5b610e41565b7f02dd7bc7dec4dceedda775e58dd541e08a116c6c53815c0bd028192f7b62680090565b612005611451565b156120235760405163d93c066560e01b815260040160405180910390fd5b565b7f9b779b17422d0df92223018b32b4d1fa46e071723d6817e2486d003becc55f0080546001190161206957604051633ee5aeb560e01b815260040160405180910390fd5b60029055565b610a19828260405180602001604052806000815250612919565b60017f9b779b17422d0df92223018b32b4d1fa46e071723d6817e2486d003becc55f0055565b6000806120ba611fd9565b90506120c6848461153e565b612146576000848152602082815260408083206001600160a01b03871684529091529020805460ff191660011790556120fc3390565b6001600160a01b0316836001600160a01b0316857f2f8788117e7eff1d82e926ec794901d17c78024a50270940304540a733656f0d60405160405180910390a460019150506108da565b60009150506108da565b60008061215b611fd9565b9050612167848461153e565b15612146576000848152602082815260408083206001600160a01b0387168085529252808320805460ff1916905551339287917ff6391f5c32d9c69d2a47ea670b442974b53935d1edc7fd64eb21e047a839171b9190a460019150506108da565b6121d061298d565b60006121da612505565b805460ff1916815590507f5db9ee0a495bf2e6ff9c91a7834c1ba4fdd244a5e8aa4e537bd38aeae4b073aa335b6040516122149190612fb2565b60405180910390a150565b7fee151c8401928dc223602bb187aff91b9a56c7cae5476ef1b3287b085a16c85f90565b6000807ff0c57e16840df040f15088dc2f81fe391c3923bec73e23a9662efc9c229c6a006108da565b61227461221f565b54610100900460ff166122995760405162461bcd60e51b8152600401610f4890613aa7565b610a1982826129b2565b612023612a3a565b6122b3612a3a565b612023612a5f565b306001600160a01b037f000000000000000000000000000000000000000000000000000000000000000016148061234257507f00000000000000000000000000000000000000000000000000000000000000006001600160a01b0316612336600080516020613c64833981519152546001600160a01b031690565b6001600160a01b031614155b156120235760405163703e46dd60e11b815260040160405180910390fd5b600080516020613c84833981519152610a1981611c20565b816001600160a01b03166352d1902d6040518163ffffffff1660e01b8152600401602060405180830381865afa9250505080156123d2575060408051601f3d908101601f191682019092526123cf91810190613afb565b60015b6123f15781604051634c9c8ce360e01b8152600401610f489190612fb2565b600080516020613c64833981519152811461242257604051632a87526960e21b815260048101829052602401610f48565b6109298383612a67565b804710156124565760405163cf47918160e01b815247600482015260248101829052604401610f48565b600080836001600160a01b03168360405160006040518083038185875af1925050503d80600081146124a4576040519150601f19603f3d011682016040523d82523d6000602084013e6124a9565b606091505b509150915081610e4157610e4181612abd565b306001600160a01b037f000000000000000000000000000000000000000000000000000000000000000016146120235760405163703e46dd60e11b815260040160405180910390fd5b7fcd5ed15c6e187e77e9aee88184c21f4f2182ab5827cb3b7e07fbedcd63f0330090565b612531611ffd565b600061253b612505565b805460ff1916600117815590507f62e78cea01bee320cd4e420270b5ea74000d11b0c9f74754ebdbfc544b05a2586122073390565b600061257a611ced565b54919050565b606081831061259957612599631960ccad60e11b611d99565b60006125a3612570565b905060006000196125b2611e54565b036125bd57816125bf565b835b90508084106125cc578093505b60006125d787611471565b90508486106125e4575060005b80156126cc5780868603116125f857508484035b604080516001830160051b8101918290529450600061261688611778565b905060008160400151612627575080515b60005b600019612635611e54565b1461266357868a0361264f57612649611e54565b60010199505b612657611e54565b8a111561266357600091505b61266c8a6127b8565b925060408301516000811461268457600092506126a9565b83511561269057835192505b8b831860601b6126a9576001820191508a8260051b8a01525b5060018a01995083604052888a14806126c157508481145b1561262a5787525050505b5050509392505050565b604051630a85bd0160e11b81526000906001600160a01b0385169063150b7a029061270b903390899088908890600401613b14565b6020604051808303816000875af1925050508015612746575060408051601f3d908101601f1916820190925261274391810190613b51565b60015b61279b573d808015612774576040519150601f19603f3d011682016040523d82523d6000602084013e612779565b606091505b508051600003612793576127936368d2bf6b60e11b611d99565b805181602001fd5b6001600160e01b031916630a85bd0160e11b149050949350505050565b6127c0612e82565b6108da6127cb611ced565b60008481526004919091016020526040902054612ae6565b60006127ed611ced565b6000928352600401602052506040902054151590565b6060600061281083612b29565b60010190506000816001600160401b0381111561282f5761282f61307a565b6040519080825280601f01601f191660200182016040528015612859576020820181803683370190505b5090508181016020015b600019016f181899199a1a9b1b9c1cb0b131b232b360811b600a86061a8153600a850494508461286357509392505050565b60006001600160e01b03198216637965db0b60e01b14806108da57506301ffc9a760e01b6001600160e01b03198316146108da565b6128d4828261153e565b610a195760405163e2517d3f60e01b81526001600160a01b038216600482015260248101839052604401610f48565b600160e01b81166001600160a01b039091161190565b6129238383612c01565b6001600160a01b0383163b1561092957600061293d611ced565b5490508281035b61295760008683806001019450866126d6565b61296b5761296b6368d2bf6b60e11b611d99565b818110612944578161297b611ced565b541461298657600080fd5b5050505050565b612995611451565b61202357604051638dfc202b60e01b815260040160405180910390fd5b6129ba61221f565b54610100900460ff166129df5760405162461bcd60e51b8152600401610f4890613aa7565b816129e8611ced565b600201906129f69082613b6e565b5080612a00611ced565b60030190612a0e9082613b6e565b506000612a19611ced565b556000612a24611e54565b1015610a1957610a1963fed8210f60e01b611d99565b612a42612d24565b61202357604051631afcd79f60e31b815260040160405180910390fd5b612089612a3a565b612a7082612d3e565b6040516001600160a01b038316907fbc7cd75a20ee27fd9adebab32041f755214dbc6bffa90cc0225b39da2e5c2d3b90600090a2805115612ab5576109298282612d9a565b610a19612e10565b805115612acd5780518082602001fd5b60405163d6bda27560e01b815260040160405180910390fd5b612aee612e82565b6001600160a01b03821681526001600160401b0360a083901c166020820152600160e01b82161515604082015260e89190911c606082015290565b60008072184f03e93ff9f4daa797ed6e38ed64bf6a1f0160401b8310612b685772184f03e93ff9f4daa797ed6e38ed64bf6a1f0160401b830492506040015b6d04ee2d6d415b85acef81000000008310612b94576d04ee2d6d415b85acef8100000000830492506020015b662386f26fc100008310612bb257662386f26fc10000830492506010015b6305f5e1008310612bca576305f5e100830492506008015b6127108310612bde57612710830492506004015b60648310612bf0576064830492506002015b600a83106108da5760010192915050565b6000612c0b611ced565b5490506000829003612c2757612c2763b562e8dd60e01b611d99565b612c346000848385611f6f565b6001600160a01b0383164260a01b6001841460e11b1717612c53611ced565b60008381526004919091016020526040902055680100000000000000018202612c7a611ced565b6001600160a01b0385166000818152600592909201602052604082208054909301909255819003612cb457612cb4622e076360e81b611d99565b81830182612cc0611e54565b600183031115612cda57612cda6340b23f1d60e11b611d99565b5b808360007fddf252ad1be2c89b69c2b068fc378daa952ba7f163c4a11628f55a4df523b3ef600080a4818160010191508103612cdb5781612d1a611ced565b5550610929915050565b6000612d2e612243565b54600160401b900460ff16919050565b806001600160a01b03163b600003612d6b5780604051634c9c8ce360e01b8152600401610f489190612fb2565b600080516020613c6483398151915280546001600160a01b0319166001600160a01b0392909216919091179055565b6060600080846001600160a01b031684604051612db79190613c27565b600060405180830381855af49150503d8060008114612df2576040519150601f19603f3d011682016040523d82523d6000602084013e612df7565b606091505b5091509150612e07858383612e2f565b95945050505050565b34156120235760405163b398979f60e01b815260040160405180910390fd5b606082612e4457612e3f82612abd565b6115f1565b8151158015612e5b57506001600160a01b0384163b155b15612e7b5783604051639996b31560e01b8152600401610f489190612fb2565b50806115f1565b60408051608081018252600080825260208201819052918101829052606081019190915290565b6001600160e01b031981168114610e2257600080fd5b600060208284031215612ed157600080fd5b81356115f181612ea9565b6001600160a01b0381168114610e2257600080fd5b60008060408385031215612f0457600080fd5b8235612f0f81612edc565b915060208301356001600160601b0381168114612f2b57600080fd5b809150509250929050565b60005b83811015612f51578181015183820152602001612f39565b50506000910152565b60008151808452612f72816020860160208601612f36565b601f01601f19169290920160200192915050565b6020815260006115f16020830184612f5a565b600060208284031215612fab57600080fd5b5035919050565b6001600160a01b0391909116815260200190565b60008060408385031215612fd957600080fd5b8235612fe481612edc565b946020939093013593505050565b60008060006060848603121561300757600080fd5b833561301281612edc565b9250602084013561302281612edc565b929592945050506040919091013590565b6000806040838503121561304657600080fd5b50508035926020909101359150565b6000806040838503121561306857600080fd5b823591506020830135612f2b81612edc565b634e487b7160e01b600052604160045260246000fd5b600082601f8301126130a157600080fd5b81356001600160401b03808211156130bb576130bb61307a565b604051601f8301601f19908116603f011681019082821181831017156130e3576130e361307a565b816040528381528660208588010111156130fc57600080fd5b836020870160208301376000602085830101528094505050505092915050565b6000806040838503121561312f57600080fd5b82356001600160401b038082111561314657600080fd5b61315286838701613090565b9350602085013591508082111561316857600080fd5b5061317585828601613090565b9150509250929050565b6000806040838503121561319257600080fd5b823561319d81612edc565b915060208301356001600160401b038111156131b857600080fd5b61317585828601613090565b6000602082840312156131d657600080fd5b81356115f181612edc565b60008083601f8401126131f357600080fd5b5081356001600160401b0381111561320a57600080fd5b602083019150836020828501011115610d0a57600080fd5b60008060006040848603121561323757600080fd5b8335925060208401356001600160401b0381111561325457600080fd5b613260868287016131e1565b9497909650939450505050565b6000806020838503121561328057600080fd5b82356001600160401b0381111561329657600080fd5b6132a2858286016131e1565b90969095509350505050565b600080602083850312156132c157600080fd5b82356001600160401b03808211156132d857600080fd5b818501915085601f8301126132ec57600080fd5b8135818111156132fb57600080fd5b8660208260051b850101111561331057600080fd5b60209290920196919550909350505050565b80516001600160a01b031682526020808201516001600160401b03169083015260408082015115159083015260609081015162ffffff16910152565b6020808252825182820181905260009190848201906040850190845b818110156133a05761338d838551613322565b928401926080929092019160010161337a565b50909695505050505050565b6020808252825182820181905260009190848201906040850190845b818110156133a0578351835292840192918401916001016133c8565b6000806000606084860312156133f957600080fd5b833561340481612edc565b95602085013595506040909401359392505050565b6000806040838503121561342c57600080fd5b823561343781612edc565b915060208301358015158114612f2b57600080fd5b6000806000806080858703121561346257600080fd5b843561346d81612edc565b9350602085013561347d81612edc565b92506040850135915060608501356001600160401b0381111561349f57600080fd5b6134ab87828801613090565b91505092959194509250565b600080604083850312156134ca57600080fd5b8235915060208301356001600160401b038111156134e757600080fd5b830160c08186031215612f2b57600080fd5b608081016108da8284613322565b602081526000825160c0602084015261352360e0840182612f5a565b90506020840151601f19808584030160408601526135418383612f5a565b925060408601519150808584030160608601525061355f8282612f5a565b91505060608401516080840152608084015160a084015260a084015160c08401528091505092915050565b6000806040838503121561359d57600080fd5b82356135a881612edc565b91506020830135612f2b81612edc565b600181811c908216806135cc57607f821691505b6020821081036135ec57634e487b7160e01b600052602260045260246000fd5b50919050565b634e487b7160e01b600052601160045260246000fd5b80820281158282048414176108da576108da6135f2565b60008261363c57634e487b7160e01b600052601260045260246000fd5b500490565b808201808211156108da576108da6135f2565b601f821115610929576000816000526020600020601f850160051c8101602086101561367d5750805b601f850160051c820191505b8181101561369c57828155600101613689565b505050505050565b600019600383901b1c191660019190911b1790565b6001600160401b038311156136d0576136d061307a565b6136e4836136de83546135b8565b83613654565b6000601f84116001811461371257600085156137005750838201355b61370a86826136a4565b845550612986565b600083815260209020601f19861690835b828110156137435786850135825560209485019460019092019101613723565b50868210156137605760001960f88860031b161c19848701351681555b505060018560011b0183555050505050565b81835281816020850137506000828201602090810191909152601f909101601f19169091010190565b6020815260006115ee602083018486613772565b6000808335601e198436030181126137c657600080fd5b8301803591506001600160401b038211156137e057600080fd5b602001915036819003821315610d0a57600080fd5b6137ff82836137af565b6001600160401b038111156138165761381661307a565b61382a8161382485546135b8565b85613654565b6000601f82116001811461385857600083156138465750838201355b61385084826136a4565b8655506138b2565b600085815260209020601f19841690835b828110156138895786850135825560209485019460019092019101613869565b50848210156138a65760001960f88660031b161c19848701351681555b505060018360011b0185555b505050506138c360208301836137af565b6138d18183600186016136b9565b50506138e060408301836137af565b6138ee8183600286016136b9565b5050606082013560038201556080820135600482015560a082013560058201555050565b6000808335601e1984360301811261392957600080fd5b83016020810192503590506001600160401b0381111561394857600080fd5b803603821315610d0a57600080fd5b6020815260006139678384613912565b60c0602085015261397c60e085018284613772565b91505061398c6020850185613912565b601f19808685030160408701526139a4848385613772565b93506139b36040880188613912565b9350915080868503016060870152506139cd838383613772565b9250505060608401356080840152608084013560a084015260a084013560c08401528091505092915050565b6000808454613a07816135b8565b60018281168015613a1f5760018114613a3457613a63565b60ff1984168752821515830287019450613a63565b8860005260208060002060005b85811015613a5a5781548a820152908401908201613a41565b50505082870194505b505050508351613a77818360208801612f36565b64173539b7b760d91b9101908152600501949350505050565b600081613a9f57613a9f6135f2565b506000190190565b60208082526034908201527f455243373231415f5f496e697469616c697a61626c653a20636f6e7472616374604082015273206973206e6f7420696e697469616c697a696e6760601b606082015260800190565b600060208284031215613b0d57600080fd5b5051919050565b6001600160a01b0385811682528416602082015260408101839052608060608201819052600090613b4790830184612f5a565b9695505050505050565b600060208284031215613b6357600080fd5b81516115f181612ea9565b81516001600160401b03811115613b8757613b8761307a565b613b9b81613b9584546135b8565b84613654565b602080601f831160018114613bca5760008415613bb85750858301515b613bc285826136a4565b86555061369c565b600085815260208120601f198616915b82811015613bf957888601518255948401946001909101908401613bda565b5085821015613c175787850151600019600388901b60f8161c191681555b5050505050600190811b01905550565b60008251613c39818460208701612f36565b919091019291505056fe4ba68d394296e94ab6523d7aa99d008a89d73b64505b067e0770522ff96e2330360894a13ba1a3210667c828492db98dca3e2076cc3735a920a3ca505d382bbca49807205ce4d355092ef5a8a18f56e8913cf4a201fbe287825b095693c21775a26469706673582212209d682fc6de6befdf7892697817afa1f22858d544aaeb8f317e8fe24544d050ce64736f6c63430008180033","opcodes":"PUSH1 0xA0 PUSH1 0x40 MSTORE ADDRESS PUSH1 0x80 MSTORE CALLVALUE DUP1 ISZERO PUSH2 0x14 JUMPI PUSH1 0x0 DUP1 REVERT JUMPDEST POP PUSH1 0x80 MLOAD PUSH2 0x3CD9 PUSH2 0x3E PUSH1 0x0 CODECOPY PUSH1 0x0 DUP2 DUP2 PUSH2 0x22C6 ADD MSTORE DUP2 DUP2 PUSH2 0x22EF ADD MSTORE PUSH2 0x24C7 ADD MSTORE PUSH2 0x3CD9 PUSH1 0x0 RETURN INVALID PUSH1 0x80 PUSH1 0x40 MSTORE PUSH1 0x4 CALLDATASIZE LT PUSH2 0x297 JUMPI PUSH1 0x0 CALLDATALOAD PUSH1 0xE0 SHR DUP1 PUSH4 0x5C975ABB GT PUSH2 0x15A JUMPI DUP1 PUSH4 0xA22CB465 GT PUSH2 0xC1 JUMPI DUP1 PUSH4 0xC87B56DD GT PUSH2 0x7A JUMPI DUP1 PUSH4 0xC87B56DD EQ PUSH2 0x802 JUMPI DUP1 PUSH4 0xD547741F EQ PUSH2 0x822 JUMPI DUP1 PUSH4 0xE1DC0761 EQ PUSH2 0x842 JUMPI DUP1 PUSH4 0xE58306F9 EQ PUSH2 0x86F JUMPI DUP1 PUSH4 0xE985E9C5 EQ PUSH2 0x88F JUMPI DUP1 PUSH4 0xF4A0A528 EQ PUSH2 0x8AF JUMPI PUSH2 0x2D3 JUMP JUMPDEST DUP1 PUSH4 0xA22CB465 EQ PUSH2 0x73B JUMPI DUP1 PUSH4 0xAD3CB1CC EQ PUSH2 0x75B JUMPI DUP1 PUSH4 0xB7EA78B5 EQ PUSH2 0x78C JUMPI DUP1 PUSH4 0xB88D4FDE EQ PUSH2 0x7A2 JUMPI DUP1 PUSH4 0xC1380E29 EQ PUSH2 0x7B5 JUMPI DUP1 PUSH4 0xC23DC68F EQ PUSH2 0x7D5 JUMPI PUSH2 0x2D3 JUMP JUMPDEST DUP1 PUSH4 0x8462151C GT PUSH2 0x113 JUMPI DUP1 PUSH4 0x8462151C EQ PUSH2 0x684 JUMPI DUP1 PUSH4 0x91D14854 EQ PUSH2 0x6B1 JUMPI DUP1 PUSH4 0x95D89B41 EQ PUSH2 0x6D1 JUMPI DUP1 PUSH4 0x99061BEB EQ PUSH2 0x6E6 JUMPI DUP1 PUSH4 0x99A2557A EQ PUSH2 0x706 JUMPI DUP1 PUSH4 0xA217FDDF EQ PUSH2 0x726 JUMPI PUSH2 0x2D3 JUMP JUMPDEST DUP1 PUSH4 0x5C975ABB EQ PUSH2 0x5E2 JUMPI DUP1 PUSH4 0x6352211E EQ PUSH2 0x5F7 JUMPI DUP1 PUSH4 0x6817C76C EQ PUSH2 0x617 JUMPI DUP1 PUSH4 0x70A08231 EQ PUSH2 0x62D JUMPI DUP1 PUSH4 0x75B238FC EQ PUSH2 0x64D JUMPI DUP1 PUSH4 0x8456CB59 EQ PUSH2 0x66F JUMPI PUSH2 0x2D3 JUMP JUMPDEST DUP1 PUSH4 0x338CAB93 GT PUSH2 0x1FE JUMPI DUP1 PUSH4 0x4F1EF286 GT PUSH2 0x1B7 JUMPI DUP1 PUSH4 0x4F1EF286 EQ PUSH2 0x52D JUMPI DUP1 PUSH4 0x51CFF8D9 EQ PUSH2 0x540 JUMPI DUP1 PUSH4 0x52D1902D EQ PUSH2 0x560 JUMPI DUP1 PUSH4 0x53C8388E EQ PUSH2 0x575 JUMPI DUP1 PUSH4 0x55F804B3 EQ PUSH2 0x595 JUMPI DUP1 PUSH4 0x5BBB2177 EQ PUSH2 0x5B5 JUMPI PUSH2 0x2D3 JUMP JUMPDEST DUP1 PUSH4 0x338CAB93 EQ PUSH2 0x483 JUMPI DUP1 PUSH4 0x36568ABE EQ PUSH2 0x4A5 JUMPI DUP1 PUSH4 0x3F4BA83A EQ PUSH2 0x4C5 JUMPI DUP1 PUSH4 0x42842E0E EQ PUSH2 0x4DA JUMPI DUP1 PUSH4 0x4CD88B76 EQ PUSH2 0x4ED JUMPI DUP1 PUSH4 0x4DCF6AD6 EQ PUSH2 0x50D JUMPI PUSH2 0x2D3 JUMP JUMPDEST DUP1 PUSH4 0x23B872DD GT PUSH2 0x250 JUMPI DUP1 PUSH4 0x23B872DD EQ PUSH2 0x3C8 JUMPI DUP1 PUSH4 0x248A9CA3 EQ PUSH2 0x3DB JUMPI DUP1 PUSH4 0x2A55205A EQ PUSH2 0x3FB JUMPI DUP1 PUSH4 0x2DB11544 EQ PUSH2 0x43A JUMPI DUP1 PUSH4 0x2F2FF15D EQ PUSH2 0x44D JUMPI DUP1 PUSH4 0x32CB6B0C EQ PUSH2 0x46D JUMPI PUSH2 0x2D3 JUMP JUMPDEST DUP1 PUSH4 0x1FFC9A7 EQ PUSH2 0x2EC JUMPI DUP1 PUSH4 0x2FA7C47 EQ PUSH2 0x321 JUMPI DUP1 PUSH4 0x6FDDE03 EQ PUSH2 0x343 JUMPI DUP1 PUSH4 0x81812FC EQ PUSH2 0x365 JUMPI DUP1 PUSH4 0x95EA7B3 EQ PUSH2 0x392 JUMPI DUP1 PUSH4 0x18160DDD EQ PUSH2 0x3A5 JUMPI PUSH2 0x2D3 JUMP JUMPDEST CALLDATASIZE PUSH2 0x2D3 JUMPI PUSH1 0x40 MLOAD CALLVALUE DUP2 MSTORE CALLER SWAP1 PUSH32 0x88A5966D370B9919B20F3E2C13FF65706F196A4E32CC2C12BF57088F88525874 SWAP1 PUSH1 0x20 ADD PUSH1 0x40 MLOAD DUP1 SWAP2 SUB SWAP1 LOG2 STOP JUMPDEST PUSH1 0x40 MLOAD PUSH4 0xDEAB4C3 PUSH1 0xE4 SHL DUP2 MSTORE PUSH1 0x4 ADD PUSH1 0x40 MLOAD DUP1 SWAP2 SUB SWAP1 REVERT JUMPDEST CALLVALUE DUP1 ISZERO PUSH2 0x2F8 JUMPI PUSH1 0x0 DUP1 REVERT JUMPDEST POP PUSH2 0x30C PUSH2 0x307 CALLDATASIZE PUSH1 0x4 PUSH2 0x2EBF JUMP JUMPDEST PUSH2 0x8CF JUMP JUMPDEST PUSH1 0x40 MLOAD SWAP1 ISZERO ISZERO DUP2 MSTORE PUSH1 0x20 ADD JUMPDEST PUSH1 0x40 MLOAD DUP1 SWAP2 SUB SWAP1 RETURN JUMPDEST CALLVALUE DUP1 ISZERO PUSH2 0x32D JUMPI PUSH1 0x0 DUP1 REVERT JUMPDEST POP PUSH2 0x341 PUSH2 0x33C CALLDATASIZE PUSH1 0x4 PUSH2 0x2EF1 JUMP JUMPDEST PUSH2 0x8E0 JUMP JUMPDEST STOP JUMPDEST CALLVALUE DUP1 ISZERO PUSH2 0x34F JUMPI PUSH1 0x0 DUP1 REVERT JUMPDEST POP PUSH2 0x358 PUSH2 0x92E JUMP JUMPDEST PUSH1 0x40 MLOAD PUSH2 0x318 SWAP2 SWAP1 PUSH2 0x2F86 JUMP JUMPDEST CALLVALUE DUP1 ISZERO PUSH2 0x371 JUMPI PUSH1 0x0 DUP1 REVERT JUMPDEST POP PUSH2 0x385 PUSH2 0x380 CALLDATASIZE PUSH1 0x4 PUSH2 0x2F99 JUMP JUMPDEST PUSH2 0x9C9 JUMP JUMPDEST PUSH1 0x40 MLOAD PUSH2 0x318 SWAP2 SWAP1 PUSH2 0x2FB2 JUMP JUMPDEST PUSH2 0x341 PUSH2 0x3A0 CALLDATASIZE PUSH1 0x4 PUSH2 0x2FC6 JUMP JUMPDEST PUSH2 0xA0D JUMP JUMPDEST CALLVALUE DUP1 ISZERO PUSH2 0x3B1 JUMPI PUSH1 0x0 DUP1 REVERT JUMPDEST POP PUSH2 0x3BA PUSH2 0xA1D JUMP JUMPDEST PUSH1 0x40 MLOAD SWAP1 DUP2 MSTORE PUSH1 0x20 ADD PUSH2 0x318 JUMP JUMPDEST PUSH2 0x341 PUSH2 0x3D6 CALLDATASIZE PUSH1 0x4 PUSH2 0x2FF2 JUMP JUMPDEST PUSH2 0xA5A JUMP JUMPDEST CALLVALUE DUP1 ISZERO PUSH2 0x3E7 JUMPI PUSH1 0x0 DUP1 REVERT JUMPDEST POP PUSH2 0x3BA PUSH2 0x3F6 CALLDATASIZE PUSH1 0x4 PUSH2 0x2F99 JUMP JUMPDEST PUSH2 0xC2A JUMP JUMPDEST CALLVALUE DUP1 ISZERO PUSH2 0x407 JUMPI PUSH1 0x0 DUP1 REVERT JUMPDEST POP PUSH2 0x41B PUSH2 0x416 CALLDATASIZE PUSH1 0x4 PUSH2 0x3033 JUMP JUMPDEST PUSH2 0xC4A JUMP JUMPDEST PUSH1 0x40 DUP1 MLOAD PUSH1 0x1 PUSH1 0x1 PUSH1 0xA0 SHL SUB SWAP1 SWAP4 AND DUP4 MSTORE PUSH1 0x20 DUP4 ADD SWAP2 SWAP1 SWAP2 MSTORE ADD PUSH2 0x318 JUMP JUMPDEST PUSH2 0x341 PUSH2 0x448 CALLDATASIZE PUSH1 0x4 PUSH2 0x2F99 JUMP JUMPDEST PUSH2 0xD11 JUMP JUMPDEST CALLVALUE DUP1 ISZERO PUSH2 0x459 JUMPI PUSH1 0x0 DUP1 REVERT JUMPDEST POP PUSH2 0x341 PUSH2 0x468 CALLDATASIZE PUSH1 0x4 PUSH2 0x3055 JUMP JUMPDEST PUSH2 0xE25 JUMP JUMPDEST CALLVALUE DUP1 ISZERO PUSH2 0x479 JUMPI PUSH1 0x0 DUP1 REVERT JUMPDEST POP PUSH2 0x3BA PUSH2 0x378 DUP2 JUMP JUMPDEST CALLVALUE DUP1 ISZERO PUSH2 0x48F JUMPI PUSH1 0x0 DUP1 REVERT JUMPDEST POP PUSH2 0x3BA PUSH1 0x0 DUP1 MLOAD PUSH1 0x20 PUSH2 0x3C44 DUP4 CODECOPY DUP2 MLOAD SWAP2 MSTORE DUP2 JUMP JUMPDEST CALLVALUE DUP1 ISZERO PUSH2 0x4B1 JUMPI PUSH1 0x0 DUP1 REVERT JUMPDEST POP PUSH2 0x341 PUSH2 0x4C0 CALLDATASIZE PUSH1 0x4 PUSH2 0x3055 JUMP JUMPDEST PUSH2 0xE47 JUMP JUMPDEST CALLVALUE DUP1 ISZERO PUSH2 0x4D1 JUMPI PUSH1 0x0 DUP1 REVERT JUMPDEST POP PUSH2 0x341 PUSH2 0xE7A JUMP JUMPDEST PUSH2 0x341 PUSH2 0x4E8 CALLDATASIZE PUSH1 0x4 PUSH2 0x2FF2 JUMP JUMPDEST PUSH2 0xE9A JUMP JUMPDEST CALLVALUE DUP1 ISZERO PUSH2 0x4F9 JUMPI PUSH1 0x0 DUP1 REVERT JUMPDEST POP PUSH2 0x341 PUSH2 0x508 CALLDATASIZE PUSH1 0x4 PUSH2 0x311C JUMP JUMPDEST PUSH2 0xEB5 JUMP JUMPDEST CALLVALUE DUP1 ISZERO PUSH2 0x519 JUMPI PUSH1 0x0 DUP1 REVERT JUMPDEST POP PUSH2 0x341 PUSH2 0x528 CALLDATASIZE PUSH1 0x4 PUSH2 0x2F99 JUMP JUMPDEST PUSH2 0x1175 JUMP JUMPDEST PUSH2 0x341 PUSH2 0x53B CALLDATASIZE PUSH1 0x4 PUSH2 0x317F JUMP JUMPDEST PUSH2 0x11F7 JUMP JUMPDEST CALLVALUE DUP1 ISZERO PUSH2 0x54C JUMPI PUSH1 0x0 DUP1 REVERT JUMPDEST POP PUSH2 0x341 PUSH2 0x55B CALLDATASIZE PUSH1 0x4 PUSH2 0x31C4 JUMP JUMPDEST PUSH2 0x1212 JUMP JUMPDEST CALLVALUE DUP1 ISZERO PUSH2 0x56C JUMPI PUSH1 0x0 DUP1 REVERT JUMPDEST POP PUSH2 0x3BA PUSH2 0x12B9 JUMP JUMPDEST CALLVALUE DUP1 ISZERO PUSH2 0x581 JUMPI PUSH1 0x0 DUP1 REVERT JUMPDEST POP PUSH2 0x341 PUSH2 0x590 CALLDATASIZE PUSH1 0x4 PUSH2 0x3222 JUMP JUMPDEST PUSH2 0x12D6 JUMP JUMPDEST CALLVALUE DUP1 ISZERO PUSH2 0x5A1 JUMPI PUSH1 0x0 DUP1 REVERT JUMPDEST POP PUSH2 0x341 PUSH2 0x5B0 CALLDATASIZE PUSH1 0x4 PUSH2 0x326D JUMP JUMPDEST PUSH2 0x13A1 JUMP JUMPDEST CALLVALUE DUP1 ISZERO PUSH2 0x5C1 JUMPI PUSH1 0x0 DUP1 REVERT JUMPDEST POP PUSH2 0x5D5 PUSH2 0x5D0 CALLDATASIZE PUSH1 0x4 PUSH2 0x32AE JUMP JUMPDEST PUSH2 0x1405 JUMP JUMPDEST PUSH1 0x40 MLOAD PUSH2 0x318 SWAP2 SWAP1 PUSH2 0x335E JUMP JUMPDEST CALLVALUE DUP1 ISZERO PUSH2 0x5EE JUMPI PUSH1 0x0 DUP1 REVERT JUMPDEST POP PUSH2 0x30C PUSH2 0x1451 JUMP JUMPDEST CALLVALUE DUP1 ISZERO PUSH2 0x603 JUMPI PUSH1 0x0 DUP1 REVERT JUMPDEST POP PUSH2 0x385 PUSH2 0x612 CALLDATASIZE PUSH1 0x4 PUSH2 0x2F99 JUMP JUMPDEST PUSH2 0x1466 JUMP JUMPDEST CALLVALUE DUP1 ISZERO PUSH2 0x623 JUMPI PUSH1 0x0 DUP1 REVERT JUMPDEST POP PUSH2 0x3BA PUSH1 0x0 SLOAD DUP2 JUMP JUMPDEST CALLVALUE DUP1 ISZERO PUSH2 0x639 JUMPI PUSH1 0x0 DUP1 REVERT JUMPDEST POP PUSH2 0x3BA PUSH2 0x648 CALLDATASIZE PUSH1 0x4 PUSH2 0x31C4 JUMP JUMPDEST PUSH2 0x1471 JUMP JUMPDEST CALLVALUE DUP1 ISZERO PUSH2 0x659 JUMPI PUSH1 0x0 DUP1 REVERT JUMPDEST POP PUSH2 0x3BA PUSH1 0x0 DUP1 MLOAD PUSH1 0x20 PUSH2 0x3C84 DUP4 CODECOPY DUP2 MLOAD SWAP2 MSTORE DUP2 JUMP JUMPDEST CALLVALUE DUP1 ISZERO PUSH2 0x67B JUMPI PUSH1 0x0 DUP1 REVERT JUMPDEST POP PUSH2 0x341 PUSH2 0x14D0 JUMP JUMPDEST CALLVALUE DUP1 ISZERO PUSH2 0x690 JUMPI PUSH1 0x0 DUP1 REVERT JUMPDEST POP PUSH2 0x6A4 PUSH2 0x69F CALLDATASIZE PUSH1 0x4 PUSH2 0x31C4 JUMP JUMPDEST PUSH2 0x14F0 JUMP JUMPDEST PUSH1 0x40 MLOAD PUSH2 0x318 SWAP2 SWAP1 PUSH2 0x33AC JUMP JUMPDEST CALLVALUE DUP1 ISZERO PUSH2 0x6BD JUMPI PUSH1 0x0 DUP1 REVERT JUMPDEST POP PUSH2 0x30C PUSH2 0x6CC CALLDATASIZE PUSH1 0x4 PUSH2 0x3055 JUMP JUMPDEST PUSH2 0x153E JUMP JUMPDEST CALLVALUE DUP1 ISZERO PUSH2 0x6DD JUMPI PUSH1 0x0 DUP1 REVERT JUMPDEST POP PUSH2 0x358 PUSH2 0x1574 JUMP JUMPDEST CALLVALUE DUP1 ISZERO PUSH2 0x6F2 JUMPI PUSH1 0x0 DUP1 REVERT JUMPDEST POP PUSH2 0x341 PUSH2 0x701 CALLDATASIZE PUSH1 0x4 PUSH2 0x2F99 JUMP JUMPDEST PUSH2 0x158C JUMP JUMPDEST CALLVALUE DUP1 ISZERO PUSH2 0x712 JUMPI PUSH1 0x0 DUP1 REVERT JUMPDEST POP PUSH2 0x6A4 PUSH2 0x721 CALLDATASIZE PUSH1 0x4 PUSH2 0x33E4 JUMP JUMPDEST PUSH2 0x15E1 JUMP JUMPDEST CALLVALUE DUP1 ISZERO PUSH2 0x732 JUMPI PUSH1 0x0 DUP1 REVERT JUMPDEST POP PUSH2 0x3BA PUSH1 0x0 DUP2 JUMP JUMPDEST CALLVALUE DUP1 ISZERO PUSH2 0x747 JUMPI PUSH1 0x0 DUP1 REVERT JUMPDEST POP PUSH2 0x341 PUSH2 0x756 CALLDATASIZE PUSH1 0x4 PUSH2 0x3419 JUMP JUMPDEST PUSH2 0x15F8 JUMP JUMPDEST CALLVALUE DUP1 ISZERO PUSH2 0x767 JUMPI PUSH1 0x0 DUP1 REVERT JUMPDEST POP PUSH2 0x358 PUSH1 0x40 MLOAD DUP1 PUSH1 0x40 ADD PUSH1 0x40 MSTORE DUP1 PUSH1 0x5 DUP2 MSTORE PUSH1 0x20 ADD PUSH5 0x352E302E3 PUSH1 0xDC SHL DUP2 MSTORE POP DUP2 JUMP JUMPDEST CALLVALUE DUP1 ISZERO PUSH2 0x798 JUMPI PUSH1 0x0 DUP1 REVERT JUMPDEST POP PUSH2 0x3BA PUSH1 0x1 SLOAD DUP2 JUMP JUMPDEST PUSH2 0x341 PUSH2 0x7B0 CALLDATASIZE PUSH1 0x4 PUSH2 0x344C JUMP JUMPDEST PUSH2 0x1675 JUMP JUMPDEST CALLVALUE DUP1 ISZERO PUSH2 0x7C1 JUMPI PUSH1 0x0 DUP1 REVERT JUMPDEST POP PUSH2 0x341 PUSH2 0x7D0 CALLDATASIZE PUSH1 0x4 PUSH2 0x34B7 JUMP JUMPDEST PUSH2 0x16B0 JUMP JUMPDEST CALLVALUE DUP1 ISZERO PUSH2 0x7E1 JUMPI PUSH1 0x0 DUP1 REVERT JUMPDEST POP PUSH2 0x7F5 PUSH2 0x7F0 CALLDATASIZE PUSH1 0x4 PUSH2 0x2F99 JUMP JUMPDEST PUSH2 0x1778 JUMP JUMPDEST PUSH1 0x40 MLOAD PUSH2 0x318 SWAP2 SWAP1 PUSH2 0x34F9 JUMP JUMPDEST CALLVALUE DUP1 ISZERO PUSH2 0x80E JUMPI PUSH1 0x0 DUP1 REVERT JUMPDEST POP PUSH2 0x358 PUSH2 0x81D CALLDATASIZE PUSH1 0x4 PUSH2 0x2F99 JUMP JUMPDEST PUSH2 0x17CF JUMP JUMPDEST CALLVALUE DUP1 ISZERO PUSH2 0x82E JUMPI PUSH1 0x0 DUP1 REVERT JUMPDEST POP PUSH2 0x341 PUSH2 0x83D CALLDATASIZE PUSH1 0x4 PUSH2 0x3055 JUMP JUMPDEST PUSH2 0x1829 JUMP JUMPDEST CALLVALUE DUP1 ISZERO PUSH2 0x84E JUMPI PUSH1 0x0 DUP1 REVERT JUMPDEST POP PUSH2 0x862 PUSH2 0x85D CALLDATASIZE PUSH1 0x4 PUSH2 0x2F99 JUMP JUMPDEST PUSH2 0x1845 JUMP JUMPDEST PUSH1 0x40 MLOAD PUSH2 0x318 SWAP2 SWAP1 PUSH2 0x3507 JUMP JUMPDEST CALLVALUE DUP1 ISZERO PUSH2 0x87B JUMPI PUSH1 0x0 DUP1 REVERT JUMPDEST POP PUSH2 0x341 PUSH2 0x88A CALLDATASIZE PUSH1 0x4 PUSH2 0x2FC6 JUMP JUMPDEST PUSH2 0x1A97 JUMP JUMPDEST CALLVALUE DUP1 ISZERO PUSH2 0x89B JUMPI PUSH1 0x0 DUP1 REVERT JUMPDEST POP PUSH2 0x30C PUSH2 0x8AA CALLDATASIZE PUSH1 0x4 PUSH2 0x358A JUMP JUMPDEST PUSH2 0x1B71 JUMP JUMPDEST CALLVALUE DUP1 ISZERO PUSH2 0x8BB JUMPI PUSH1 0x0 DUP1 REVERT JUMPDEST POP PUSH2 0x341 PUSH2 0x8CA CALLDATASIZE PUSH1 0x4 PUSH2 0x2F99 JUMP JUMPDEST PUSH2 0x1BAE JUMP JUMPDEST PUSH1 0x0 PUSH2 0x8DA DUP3 PUSH2 0x1BFB JUMP JUMPDEST SWAP3 SWAP2 POP POP JUMP JUMPDEST PUSH1 0x0 DUP1 MLOAD PUSH1 0x20 PUSH2 0x3C84 DUP4 CODECOPY DUP2 MLOAD SWAP2 MSTORE PUSH2 0x8F8 DUP2 PUSH2 0x1C20 JUMP JUMPDEST PUSH1 0x1 PUSH1 0x1 PUSH1 0xA0 SHL SUB DUP4 AND PUSH2 0x91F JUMPI PUSH1 0x40 MLOAD PUSH4 0xD92E233D PUSH1 0xE0 SHL DUP2 MSTORE PUSH1 0x4 ADD PUSH1 0x40 MLOAD DUP1 SWAP2 SUB SWAP1 REVERT JUMPDEST PUSH2 0x929 DUP4 DUP4 PUSH2 0x1C2A JUMP JUMPDEST POP POP POP JUMP JUMPDEST PUSH1 0x60 PUSH2 0x938 PUSH2 0x1CED JUMP JUMPDEST PUSH1 0x2 ADD DUP1 SLOAD PUSH2 0x946 SWAP1 PUSH2 0x35B8 JUMP JUMPDEST DUP1 PUSH1 0x1F ADD PUSH1 0x20 DUP1 SWAP2 DIV MUL PUSH1 0x20 ADD PUSH1 0x40 MLOAD SWAP1 DUP2 ADD PUSH1 0x40 MSTORE DUP1 SWAP3 SWAP2 SWAP1 DUP2 DUP2 MSTORE PUSH1 0x20 ADD DUP3 DUP1 SLOAD PUSH2 0x972 SWAP1 PUSH2 0x35B8 JUMP JUMPDEST DUP1 ISZERO PUSH2 0x9BF JUMPI DUP1 PUSH1 0x1F LT PUSH2 0x994 JUMPI PUSH2 0x100 DUP1 DUP4 SLOAD DIV MUL DUP4 MSTORE SWAP2 PUSH1 0x20 ADD SWAP2 PUSH2 0x9BF JUMP JUMPDEST DUP3 ADD SWAP2 SWAP1 PUSH1 0x0 MSTORE PUSH1 0x20 PUSH1 0x0 KECCAK256 SWAP1 JUMPDEST DUP2 SLOAD DUP2 MSTORE SWAP1 PUSH1 0x1 ADD SWAP1 PUSH1 0x20 ADD DUP1 DUP4 GT PUSH2 0x9A2 JUMPI DUP3 SWAP1 SUB PUSH1 0x1F AND DUP3 ADD SWAP2 JUMPDEST POP POP POP POP POP SWAP1 POP SWAP1 JUMP JUMPDEST PUSH1 0x0 PUSH2 0x9D4 DUP3 PUSH2 0x1D11 JUMP JUMPDEST PUSH2 0x9E8 JUMPI PUSH2 0x9E8 PUSH4 0x33D1C039 PUSH1 0xE2 SHL PUSH2 0x1D99 JUMP JUMPDEST PUSH2 0x9F0 PUSH2 0x1CED JUMP JUMPDEST PUSH1 0x0 SWAP3 DUP4 MSTORE PUSH1 0x6 ADD PUSH1 0x20 MSTORE POP PUSH1 0x40 SWAP1 KECCAK256 SLOAD PUSH1 0x1 PUSH1 0x1 PUSH1 0xA0 SHL SUB AND SWAP1 JUMP JUMPDEST PUSH2 0xA19 DUP3 DUP3 PUSH1 0x1 PUSH2 0x1DA3 JUMP JUMPDEST POP POP JUMP JUMPDEST PUSH1 0x0 DUP1 PUSH2 0xA28 PUSH2 0x1CED JUMP JUMPDEST PUSH1 0x1 ADD SLOAD PUSH2 0xA34 PUSH2 0x1CED JUMP JUMPDEST SLOAD SUB SUB SWAP1 POP PUSH1 0x0 NOT PUSH2 0xA44 PUSH2 0x1E54 JUMP JUMPDEST EQ PUSH2 0xA57 JUMPI PUSH2 0xA51 PUSH2 0x1CED JUMP JUMPDEST PUSH1 0x8 ADD SLOAD ADD JUMPDEST SWAP1 JUMP JUMPDEST PUSH1 0x0 PUSH2 0xA65 DUP3 PUSH2 0x1E5A JUMP JUMPDEST PUSH1 0x1 PUSH1 0x1 PUSH1 0xA0 SHL SUB SWAP5 DUP6 AND SWAP5 SWAP1 SWAP2 POP DUP2 AND DUP5 EQ PUSH2 0xA8B JUMPI PUSH2 0xA8B PUSH3 0xA11481 PUSH1 0xE8 SHL PUSH2 0x1D99 JUMP JUMPDEST PUSH1 0x0 DUP1 PUSH2 0xA97 DUP5 PUSH2 0x1F47 JUMP JUMPDEST SWAP2 POP SWAP2 POP PUSH2 0xABC DUP2 DUP8 PUSH2 0xAA7 CALLER SWAP1 JUMP JUMPDEST PUSH1 0x1 PUSH1 0x1 PUSH1 0xA0 SHL SUB SWAP1 DUP2 AND SWAP2 AND DUP2 EQ SWAP2 EQ OR SWAP1 JUMP JUMPDEST PUSH2 0xADE JUMPI PUSH2 0xACA DUP7 CALLER PUSH2 0x1B71 JUMP JUMPDEST PUSH2 0xADE JUMPI PUSH2 0xADE PUSH4 0x2CE44B5F PUSH1 0xE1 SHL PUSH2 0x1D99 JUMP JUMPDEST PUSH2 0xAEB DUP7 DUP7 DUP7 PUSH1 0x1 PUSH2 0x1F6F JUMP JUMPDEST DUP1 ISZERO PUSH2 0xAF6 JUMPI PUSH1 0x0 DUP3 SSTORE JUMPDEST PUSH2 0xAFE PUSH2 0x1CED JUMP JUMPDEST PUSH1 0x1 PUSH1 0x1 PUSH1 0xA0 SHL SUB DUP8 AND PUSH1 0x0 SWAP1 DUP2 MSTORE PUSH1 0x5 SWAP2 SWAP1 SWAP2 ADD PUSH1 0x20 MSTORE PUSH1 0x40 SWAP1 KECCAK256 DUP1 SLOAD PUSH1 0x0 NOT ADD SWAP1 SSTORE PUSH2 0xB2A PUSH2 0x1CED JUMP JUMPDEST PUSH1 0x1 PUSH1 0x1 PUSH1 0xA0 SHL SUB DUP7 AND PUSH1 0x0 DUP2 DUP2 MSTORE PUSH1 0x5 SWAP3 SWAP1 SWAP3 ADD PUSH1 0x20 MSTORE PUSH1 0x40 SWAP1 SWAP2 KECCAK256 DUP1 SLOAD PUSH1 0x1 ADD SWAP1 SSTORE TIMESTAMP PUSH1 0xA0 SHL OR PUSH1 0x1 PUSH1 0xE1 SHL OR PUSH2 0xB61 PUSH2 0x1CED JUMP JUMPDEST PUSH1 0x0 DUP7 DUP2 MSTORE PUSH1 0x4 SWAP2 SWAP1 SWAP2 ADD PUSH1 0x20 MSTORE PUSH1 0x40 DUP2 KECCAK256 SWAP2 SWAP1 SWAP2 SSTORE PUSH1 0x1 PUSH1 0xE1 SHL DUP5 AND SWAP1 SUB PUSH2 0xBD7 JUMPI PUSH1 0x1 DUP5 ADD PUSH2 0xB90 PUSH2 0x1CED JUMP JUMPDEST PUSH1 0x0 DUP3 DUP2 MSTORE PUSH1 0x4 SWAP2 SWAP1 SWAP2 ADD PUSH1 0x20 MSTORE PUSH1 0x40 DUP2 KECCAK256 SLOAD SWAP1 SUB PUSH2 0xBD5 JUMPI PUSH2 0xBB1 PUSH2 0x1CED JUMP JUMPDEST SLOAD DUP2 EQ PUSH2 0xBD5 JUMPI DUP4 PUSH2 0xBC1 PUSH2 0x1CED JUMP JUMPDEST PUSH1 0x0 DUP4 DUP2 MSTORE PUSH1 0x4 SWAP2 SWAP1 SWAP2 ADD PUSH1 0x20 MSTORE PUSH1 0x40 SWAP1 KECCAK256 SSTORE JUMPDEST POP JUMPDEST PUSH1 0x1 PUSH1 0x1 PUSH1 0xA0 SHL SUB DUP6 AND DUP5 DUP2 DUP9 PUSH32 0xDDF252AD1BE2C89B69C2B068FC378DAA952BA7F163C4A11628F55A4DF523B3EF PUSH1 0x0 DUP1 LOG4 DUP1 PUSH1 0x0 SUB PUSH2 0xC21 JUMPI PUSH2 0xC21 PUSH4 0x3A954ECD PUSH1 0xE2 SHL PUSH2 0x1D99 JUMP JUMPDEST POP POP POP POP POP POP POP JUMP JUMPDEST PUSH1 0x0 DUP1 PUSH2 0xC35 PUSH2 0x1FD9 JUMP JUMPDEST PUSH1 0x0 SWAP4 DUP5 MSTORE PUSH1 0x20 MSTORE POP POP PUSH1 0x40 SWAP1 KECCAK256 PUSH1 0x1 ADD SLOAD SWAP1 JUMP JUMPDEST PUSH1 0x0 DUP3 DUP2 MSTORE PUSH32 0xDAEDC9AB023613A7CAF35E703657E986CCFAD7E3EB0AF93A2853F8D65DD86B01 PUSH1 0x20 MSTORE PUSH1 0x40 DUP2 KECCAK256 DUP1 SLOAD DUP3 SWAP2 PUSH32 0xDAEDC9AB023613A7CAF35E703657E986CCFAD7E3EB0AF93A2853F8D65DD86B00 SWAP2 PUSH1 0x1 PUSH1 0x1 PUSH1 0xA0 SHL SUB DUP2 AND SWAP1 PUSH1 0x1 PUSH1 0xA0 SHL SWAP1 DIV PUSH1 0x1 PUSH1 0x1 PUSH1 0x60 SHL SUB AND DUP2 PUSH2 0xCDD JUMPI POP POP DUP2 SLOAD PUSH1 0x1 PUSH1 0x1 PUSH1 0xA0 SHL SUB DUP2 AND SWAP1 PUSH1 0x1 PUSH1 0xA0 SHL SWAP1 DIV PUSH1 0x1 PUSH1 0x1 PUSH1 0x60 SHL SUB AND JUMPDEST PUSH1 0x0 PUSH2 0x2710 PUSH2 0xCF5 PUSH1 0x1 PUSH1 0x1 PUSH1 0x60 SHL SUB DUP5 AND DUP11 PUSH2 0x3608 JUMP JUMPDEST PUSH2 0xCFF SWAP2 SWAP1 PUSH2 0x361F JUMP JUMPDEST SWAP3 SWAP7 POP SWAP2 SWAP5 POP POP POP POP POP JUMPDEST SWAP3 POP SWAP3 SWAP1 POP JUMP JUMPDEST PUSH2 0xD19 PUSH2 0x1FFD JUMP JUMPDEST PUSH2 0xD21 PUSH2 0x2025 JUMP JUMPDEST DUP1 PUSH1 0x0 SUB PUSH2 0xD42 JUMPI PUSH1 0x40 MLOAD PUSH4 0xC1AB6DC1 PUSH1 0xE0 SHL DUP2 MSTORE PUSH1 0x4 ADD PUSH1 0x40 MLOAD DUP1 SWAP2 SUB SWAP1 REVERT JUMPDEST PUSH2 0x378 DUP2 PUSH2 0xD4E PUSH2 0xA1D JUMP JUMPDEST PUSH2 0xD58 SWAP2 SWAP1 PUSH2 0x3641 JUMP JUMPDEST GT ISZERO PUSH2 0xD77 JUMPI PUSH1 0x40 MLOAD PUSH4 0xD05CB609 PUSH1 0xE0 SHL DUP2 MSTORE PUSH1 0x4 ADD PUSH1 0x40 MLOAD DUP1 SWAP2 SUB SWAP1 REVERT JUMPDEST DUP1 PUSH1 0x0 SLOAD PUSH2 0xD85 SWAP2 SWAP1 PUSH2 0x3608 JUMP JUMPDEST CALLVALUE LT ISZERO PUSH2 0xDA5 JUMPI PUSH1 0x40 MLOAD PUSH4 0xCD1C8867 PUSH1 0xE0 SHL DUP2 MSTORE PUSH1 0x4 ADD PUSH1 0x40 MLOAD DUP1 SWAP2 SUB SWAP1 REVERT JUMPDEST PUSH1 0x1 SLOAD DUP2 PUSH2 0xDB2 CALLER PUSH2 0x1471 JUMP JUMPDEST PUSH2 0xDBC SWAP2 SWAP1 PUSH2 0x3641 JUMP JUMPDEST GT ISZERO PUSH2 0xDDB JUMPI PUSH1 0x40 MLOAD PUSH4 0x33490191 PUSH1 0xE0 SHL DUP2 MSTORE PUSH1 0x4 ADD PUSH1 0x40 MLOAD DUP1 SWAP2 SUB SWAP1 REVERT JUMPDEST PUSH2 0xDE5 CALLER DUP3 PUSH2 0x206F JUMP JUMPDEST PUSH1 0x40 MLOAD DUP2 DUP2 MSTORE CALLER SWAP1 PUSH32 0x30385C845B448A36257A6A1716E6AD2E1BC2CBE333CDE1E69FE849AD6511ADFE SWAP1 PUSH1 0x20 ADD PUSH1 0x40 MLOAD DUP1 SWAP2 SUB SWAP1 LOG2 PUSH2 0xE22 PUSH2 0x2089 JUMP JUMPDEST POP JUMP JUMPDEST PUSH2 0xE2E DUP3 PUSH2 0xC2A JUMP JUMPDEST PUSH2 0xE37 DUP2 PUSH2 0x1C20 JUMP JUMPDEST PUSH2 0xE41 DUP4 DUP4 PUSH2 0x20AF JUMP JUMPDEST POP POP POP POP JUMP JUMPDEST PUSH1 0x1 PUSH1 0x1 PUSH1 0xA0 SHL SUB DUP2 AND CALLER EQ PUSH2 0xE70 JUMPI PUSH1 0x40 MLOAD PUSH4 0x334BD919 PUSH1 0xE1 SHL DUP2 MSTORE PUSH1 0x4 ADD PUSH1 0x40 MLOAD DUP1 SWAP2 SUB SWAP1 REVERT JUMPDEST PUSH2 0x929 DUP3 DUP3 PUSH2 0x2150 JUMP JUMPDEST PUSH1 0x0 DUP1 MLOAD PUSH1 0x20 PUSH2 0x3C84 DUP4 CODECOPY DUP2 MLOAD SWAP2 MSTORE PUSH2 0xE92 DUP2 PUSH2 0x1C20 JUMP JUMPDEST PUSH2 0xE22 PUSH2 0x21C8 JUMP JUMPDEST PUSH2 0x929 DUP4 DUP4 DUP4 PUSH1 0x40 MLOAD DUP1 PUSH1 0x20 ADD PUSH1 0x40 MSTORE DUP1 PUSH1 0x0 DUP2 MSTORE POP PUSH2 0x1675 JUMP JUMPDEST PUSH2 0xEBD PUSH2 0x221F JUMP JUMPDEST SLOAD PUSH2 0x100 SWAP1 DIV PUSH1 0xFF AND PUSH2 0xEDC JUMPI PUSH2 0xED2 PUSH2 0x221F JUMP JUMPDEST SLOAD PUSH1 0xFF AND ISZERO PUSH2 0xEE0 JUMP JUMPDEST ADDRESS EXTCODESIZE ISZERO JUMPDEST PUSH2 0xF51 JUMPI PUSH1 0x40 MLOAD PUSH3 0x461BCD PUSH1 0xE5 SHL DUP2 MSTORE PUSH1 0x20 PUSH1 0x4 DUP3 ADD MSTORE PUSH1 0x37 PUSH1 0x24 DUP3 ADD MSTORE PUSH32 0x455243373231415F5F496E697469616C697A61626C653A20636F6E7472616374 PUSH1 0x44 DUP3 ADD MSTORE PUSH23 0x81A5CC8185B1C9958591E481A5B9A5D1A585B1A5E9959 PUSH1 0x4A SHL PUSH1 0x64 DUP3 ADD MSTORE PUSH1 0x84 ADD JUMPDEST PUSH1 0x40 MLOAD DUP1 SWAP2 SUB SWAP1 REVERT JUMPDEST PUSH1 0x0 PUSH2 0xF5B PUSH2 0x221F JUMP JUMPDEST SLOAD PUSH2 0x100 SWAP1 DIV PUSH1 0xFF AND ISZERO SWAP1 POP DUP1 ISZERO PUSH2 0xFA7 JUMPI PUSH1 0x1 PUSH2 0xF77 PUSH2 0x221F JUMP JUMPDEST DUP1 SLOAD SWAP2 ISZERO ISZERO PUSH2 0x100 MUL PUSH2 0xFF00 NOT SWAP1 SWAP3 AND SWAP2 SWAP1 SWAP2 OR SWAP1 SSTORE PUSH1 0x1 PUSH2 0xF97 PUSH2 0x221F JUMP JUMPDEST DUP1 SLOAD PUSH1 0xFF NOT AND SWAP2 ISZERO ISZERO SWAP2 SWAP1 SWAP2 OR SWAP1 SSTORE JUMPDEST PUSH1 0x0 PUSH2 0xFB1 PUSH2 0x2243 JUMP JUMPDEST DUP1 SLOAD SWAP1 SWAP2 POP PUSH1 0xFF PUSH1 0x1 PUSH1 0x40 SHL DUP3 DIV AND ISZERO SWAP1 PUSH1 0x1 PUSH1 0x1 PUSH1 0x40 SHL SUB AND PUSH1 0x0 DUP2 ISZERO DUP1 ISZERO PUSH2 0xFD8 JUMPI POP DUP3 JUMPDEST SWAP1 POP PUSH1 0x0 DUP3 PUSH1 0x1 PUSH1 0x1 PUSH1 0x40 SHL SUB AND PUSH1 0x1 EQ DUP1 ISZERO PUSH2 0xFF4 JUMPI POP ADDRESS EXTCODESIZE ISZERO JUMPDEST SWAP1 POP DUP2 ISZERO DUP1 ISZERO PUSH2 0x1002 JUMPI POP DUP1 ISZERO JUMPDEST ISZERO PUSH2 0x1020 JUMPI PUSH1 0x40 MLOAD PUSH4 0xF92EE8A9 PUSH1 0xE0 SHL DUP2 MSTORE PUSH1 0x4 ADD PUSH1 0x40 MLOAD DUP1 SWAP2 SUB SWAP1 REVERT JUMPDEST DUP5 SLOAD PUSH8 0xFFFFFFFFFFFFFFFF NOT AND PUSH1 0x1 OR DUP6 SSTORE DUP4 ISZERO PUSH2 0x104A JUMPI DUP5 SLOAD PUSH1 0xFF PUSH1 0x40 SHL NOT AND PUSH1 0x1 PUSH1 0x40 SHL OR DUP6 SSTORE JUMPDEST PUSH2 0x1054 DUP9 DUP9 PUSH2 0x226C JUMP JUMPDEST PUSH2 0x105C PUSH2 0x22A3 JUMP JUMPDEST PUSH2 0x1064 PUSH2 0x22A3 JUMP JUMPDEST PUSH2 0x106C PUSH2 0x22AB JUMP JUMPDEST PUSH2 0x1074 PUSH2 0x22A3 JUMP JUMPDEST PUSH2 0x107C PUSH2 0x22A3 JUMP JUMPDEST PUSH2 0x1087 PUSH1 0x0 CALLER PUSH2 0x20AF JUMP JUMPDEST POP PUSH2 0x10A0 PUSH1 0x0 DUP1 MLOAD PUSH1 0x20 PUSH2 0x3C84 DUP4 CODECOPY DUP2 MLOAD SWAP2 MSTORE CALLER PUSH2 0x20AF JUMP JUMPDEST POP PUSH2 0x10B9 PUSH1 0x0 DUP1 MLOAD PUSH1 0x20 PUSH2 0x3C44 DUP4 CODECOPY DUP2 MLOAD SWAP2 MSTORE CALLER PUSH2 0x20AF JUMP JUMPDEST POP PUSH7 0x6A94D74F430000 PUSH1 0x0 SSTORE PUSH1 0x3 PUSH1 0x1 SSTORE PUSH2 0x10D6 CALLER PUSH2 0x1F4 PUSH2 0x1C2A JUMP JUMPDEST PUSH1 0x40 MLOAD PUSH32 0xE3D77C0C81A47993CE8E388ADC64FE0DC88BD28FBF57CBDF333006B59AD82A0A SWAP1 PUSH1 0x0 SWAP1 LOG1 DUP4 ISZERO PUSH2 0x1145 JUMPI DUP5 SLOAD PUSH1 0xFF PUSH1 0x40 SHL NOT AND DUP6 SSTORE PUSH1 0x40 MLOAD PUSH1 0x1 DUP2 MSTORE PUSH32 0xC7F505B2F371AE2175EE4913F4499E1F2633A7B5936321EED1CDAEB6115181D2 SWAP1 PUSH1 0x20 ADD PUSH1 0x40 MLOAD DUP1 SWAP2 SUB SWAP1 LOG1 JUMPDEST POP POP POP POP POP DUP1 ISZERO PUSH2 0x929 JUMPI PUSH1 0x0 PUSH2 0x115A PUSH2 0x221F JUMP JUMPDEST DUP1 SLOAD SWAP2 ISZERO ISZERO PUSH2 0x100 MUL PUSH2 0xFF00 NOT SWAP1 SWAP3 AND SWAP2 SWAP1 SWAP2 OR SWAP1 SSTORE POP POP POP JUMP JUMPDEST PUSH1 0x0 DUP1 MLOAD PUSH1 0x20 PUSH2 0x3C84 DUP4 CODECOPY DUP2 MLOAD SWAP2 MSTORE PUSH2 0x118D DUP2 PUSH2 0x1C20 JUMP JUMPDEST PUSH2 0x1196 DUP3 PUSH2 0x1D11 JUMP JUMPDEST PUSH2 0x11B3 JUMPI PUSH1 0x40 MLOAD PUSH4 0xC1AB6DC1 PUSH1 0xE0 SHL DUP2 MSTORE PUSH1 0x4 ADD PUSH1 0x40 MLOAD DUP1 SWAP2 SUB SWAP1 REVERT JUMPDEST PUSH1 0x0 DUP3 DUP2 MSTORE PUSH1 0x4 PUSH1 0x20 MSTORE PUSH1 0x40 DUP1 DUP3 KECCAK256 DUP1 SLOAD PUSH1 0xFF NOT AND PUSH1 0x1 OR SWAP1 SSTORE MLOAD DUP4 SWAP2 PUSH32 0x7C9BD91D0CCEE585F666998E287E929BF935CEDEC1348F7AFC4591ECA690B90A SWAP2 LOG2 POP POP JUMP JUMPDEST PUSH2 0x11FF PUSH2 0x22BB JUMP JUMPDEST PUSH2 0x1208 DUP3 PUSH2 0x2360 JUMP JUMPDEST PUSH2 0xA19 DUP3 DUP3 PUSH2 0x2378 JUMP JUMPDEST PUSH1 0x0 DUP1 MLOAD PUSH1 0x20 PUSH2 0x3C84 DUP4 CODECOPY DUP2 MLOAD SWAP2 MSTORE PUSH2 0x122A DUP2 PUSH2 0x1C20 JUMP JUMPDEST PUSH2 0x1232 PUSH2 0x2025 JUMP JUMPDEST PUSH1 0x1 PUSH1 0x1 PUSH1 0xA0 SHL SUB DUP3 AND PUSH2 0x1259 JUMPI PUSH1 0x40 MLOAD PUSH4 0xD92E233D PUSH1 0xE0 SHL DUP2 MSTORE PUSH1 0x4 ADD PUSH1 0x40 MLOAD DUP1 SWAP2 SUB SWAP1 REVERT JUMPDEST SELFBALANCE PUSH2 0x126D PUSH1 0x1 PUSH1 0x1 PUSH1 0xA0 SHL SUB DUP5 AND DUP3 PUSH2 0x242C JUMP JUMPDEST DUP3 PUSH1 0x1 PUSH1 0x1 PUSH1 0xA0 SHL SUB AND PUSH32 0x884EDAD9CE6FA2440D8A54CC123490EB96D2768479D49FF9C7366125A9424364 DUP3 PUSH1 0x40 MLOAD PUSH2 0x12A8 SWAP2 DUP2 MSTORE PUSH1 0x20 ADD SWAP1 JUMP JUMPDEST PUSH1 0x40 MLOAD DUP1 SWAP2 SUB SWAP1 LOG2 POP PUSH2 0xA19 PUSH2 0x2089 JUMP JUMPDEST PUSH1 0x0 PUSH2 0x12C3 PUSH2 0x24BC JUMP JUMPDEST POP PUSH1 0x0 DUP1 MLOAD PUSH1 0x20 PUSH2 0x3C64 DUP4 CODECOPY DUP2 MLOAD SWAP2 MSTORE SWAP1 JUMP JUMPDEST PUSH1 0x0 DUP1 MLOAD PUSH1 0x20 PUSH2 0x3C44 DUP4 CODECOPY DUP2 MLOAD SWAP2 MSTORE PUSH2 0x12EE DUP2 PUSH2 0x1C20 JUMP JUMPDEST PUSH2 0x12F7 DUP5 PUSH2 0x1D11 JUMP JUMPDEST PUSH2 0x1314 JUMPI PUSH1 0x40 MLOAD PUSH4 0xC1AB6DC1 PUSH1 0xE0 SHL DUP2 MSTORE PUSH1 0x4 ADD PUSH1 0x40 MLOAD DUP1 SWAP2 SUB SWAP1 REVERT JUMPDEST PUSH1 0x0 DUP5 DUP2 MSTORE PUSH1 0x4 PUSH1 0x20 MSTORE PUSH1 0x40 SWAP1 KECCAK256 SLOAD PUSH1 0xFF AND ISZERO PUSH2 0x1344 JUMPI PUSH1 0x40 MLOAD PUSH4 0xB087BBF3 PUSH1 0xE0 SHL DUP2 MSTORE PUSH1 0x4 ADD PUSH1 0x40 MLOAD DUP1 SWAP2 SUB SWAP1 REVERT JUMPDEST PUSH1 0x0 DUP5 DUP2 MSTORE PUSH1 0x3 PUSH1 0x20 MSTORE PUSH1 0x40 SWAP1 KECCAK256 PUSH1 0x2 ADD PUSH2 0x1360 DUP4 DUP6 DUP4 PUSH2 0x36B9 JUMP JUMPDEST POP DUP4 PUSH32 0x459157BA24C7AB9878B165EF465FA6AE2AB42BCD8445F576BE378768B0C47309 DUP5 DUP5 PUSH1 0x40 MLOAD PUSH2 0x1393 SWAP3 SWAP2 SWAP1 PUSH2 0x379B JUMP JUMPDEST PUSH1 0x40 MLOAD DUP1 SWAP2 SUB SWAP1 LOG2 POP POP POP POP JUMP JUMPDEST PUSH1 0x0 DUP1 MLOAD PUSH1 0x20 PUSH2 0x3C84 DUP4 CODECOPY DUP2 MLOAD SWAP2 MSTORE PUSH2 0x13B9 DUP2 PUSH2 0x1C20 JUMP JUMPDEST PUSH1 0x2 PUSH2 0x13C6 DUP4 DUP6 DUP4 PUSH2 0x36B9 JUMP JUMPDEST POP PUSH32 0xF9C7803E94E0D3C02900D8A90893A6D5E90DD04D32A4CFE825520F82BF9F32F6 DUP4 DUP4 PUSH1 0x40 MLOAD PUSH2 0x13F8 SWAP3 SWAP2 SWAP1 PUSH2 0x379B JUMP JUMPDEST PUSH1 0x40 MLOAD DUP1 SWAP2 SUB SWAP1 LOG1 POP POP POP JUMP JUMPDEST PUSH1 0x40 DUP1 MLOAD DUP3 DUP2 MSTORE PUSH1 0x5 DUP4 SWAP1 SHL DUP1 DUP3 ADD PUSH1 0x20 ADD SWAP1 SWAP3 MSTORE PUSH1 0x60 SWAP2 JUMPDEST DUP1 ISZERO PUSH2 0x1449 JUMPI PUSH1 0x1F NOT DUP1 DUP3 ADD SWAP2 DUP7 ADD ADD CALLDATALOAD PUSH1 0x0 PUSH2 0x143A DUP3 PUSH2 0x1778 JUMP JUMPDEST DUP5 DUP5 ADD PUSH1 0x20 ADD MSTORE POP PUSH2 0x141E SWAP1 POP JUMP JUMPDEST POP SWAP4 SWAP3 POP POP POP JUMP JUMPDEST PUSH1 0x0 DUP1 PUSH2 0x145C PUSH2 0x2505 JUMP JUMPDEST SLOAD PUSH1 0xFF AND SWAP3 SWAP2 POP POP JUMP JUMPDEST PUSH1 0x0 PUSH2 0x8DA DUP3 PUSH2 0x1E5A JUMP JUMPDEST PUSH1 0x0 PUSH1 0x1 PUSH1 0x1 PUSH1 0xA0 SHL SUB DUP3 AND PUSH2 0x1491 JUMPI PUSH2 0x1491 PUSH4 0x23D3AD81 PUSH1 0xE2 SHL PUSH2 0x1D99 JUMP JUMPDEST PUSH1 0x1 PUSH1 0x1 PUSH1 0x40 SHL SUB PUSH2 0x14A1 PUSH2 0x1CED JUMP JUMPDEST PUSH1 0x5 ADD PUSH1 0x0 DUP5 PUSH1 0x1 PUSH1 0x1 PUSH1 0xA0 SHL SUB AND PUSH1 0x1 PUSH1 0x1 PUSH1 0xA0 SHL SUB AND DUP2 MSTORE PUSH1 0x20 ADD SWAP1 DUP2 MSTORE PUSH1 0x20 ADD PUSH1 0x0 KECCAK256 SLOAD AND SWAP1 POP SWAP2 SWAP1 POP JUMP JUMPDEST PUSH1 0x0 DUP1 MLOAD PUSH1 0x20 PUSH2 0x3C84 DUP4 CODECOPY DUP2 MLOAD SWAP2 MSTORE PUSH2 0x14E8 DUP2 PUSH2 0x1C20 JUMP JUMPDEST PUSH2 0xE22 PUSH2 0x2529 JUMP JUMPDEST PUSH1 0x60 PUSH1 0x0 NOT PUSH2 0x14FD PUSH2 0x1E54 JUMP JUMPDEST EQ PUSH2 0x1512 JUMPI PUSH2 0x1512 PUSH4 0xBDBA09D7 PUSH1 0xE0 SHL PUSH2 0x1D99 JUMP JUMPDEST PUSH1 0x0 DUP1 PUSH2 0x151D PUSH2 0x2570 JUMP JUMPDEST SWAP1 POP PUSH1 0x60 DUP2 DUP4 EQ PUSH2 0x1536 JUMPI PUSH2 0x1533 DUP6 DUP5 DUP5 PUSH2 0x2580 JUMP JUMPDEST SWAP1 POP JUMPDEST SWAP5 SWAP4 POP POP POP POP JUMP JUMPDEST PUSH1 0x0 DUP1 PUSH2 0x1549 PUSH2 0x1FD9 JUMP JUMPDEST PUSH1 0x0 SWAP5 DUP6 MSTORE PUSH1 0x20 SWAP1 DUP2 MSTORE PUSH1 0x40 DUP1 DUP7 KECCAK256 PUSH1 0x1 PUSH1 0x1 PUSH1 0xA0 SHL SUB SWAP6 SWAP1 SWAP6 AND DUP7 MSTORE SWAP4 SWAP1 MSTORE POP POP SWAP1 KECCAK256 SLOAD PUSH1 0xFF AND SWAP1 JUMP JUMPDEST PUSH1 0x60 PUSH2 0x157E PUSH2 0x1CED JUMP JUMPDEST PUSH1 0x3 ADD DUP1 SLOAD PUSH2 0x946 SWAP1 PUSH2 0x35B8 JUMP JUMPDEST PUSH1 0x0 DUP1 MLOAD PUSH1 0x20 PUSH2 0x3C84 DUP4 CODECOPY DUP2 MLOAD SWAP2 MSTORE PUSH2 0x15A4 DUP2 PUSH2 0x1C20 JUMP JUMPDEST PUSH1 0x1 DUP3 SWAP1 SSTORE PUSH1 0x40 MLOAD DUP3 DUP2 MSTORE PUSH32 0x5A608A926CBC5E51DD142232855AF48A512E7B6C9B23BF9BA9475F58FE108B7E SWAP1 PUSH1 0x20 ADD JUMPDEST PUSH1 0x40 MLOAD DUP1 SWAP2 SUB SWAP1 LOG1 POP POP JUMP JUMPDEST PUSH1 0x60 PUSH2 0x15EE DUP5 DUP5 DUP5 PUSH2 0x2580 JUMP JUMPDEST SWAP1 POP JUMPDEST SWAP4 SWAP3 POP POP POP JUMP JUMPDEST DUP1 PUSH2 0x1601 PUSH2 0x1CED JUMP JUMPDEST CALLER PUSH1 0x0 DUP2 DUP2 MSTORE PUSH1 0x7 SWAP3 SWAP1 SWAP3 ADD PUSH1 0x20 SWAP1 DUP2 MSTORE PUSH1 0x40 DUP1 DUP5 KECCAK256 PUSH1 0x1 PUSH1 0x1 PUSH1 0xA0 SHL SUB DUP9 AND DUP1 DUP7 MSTORE SWAP1 DUP4 MSTORE SWAP4 DUP2 SWAP1 KECCAK256 DUP1 SLOAD PUSH1 0xFF NOT AND SWAP6 ISZERO ISZERO SWAP6 SWAP1 SWAP6 OR SWAP1 SWAP5 SSTORE SWAP3 MLOAD DUP5 ISZERO ISZERO DUP2 MSTORE SWAP2 SWAP3 SWAP1 SWAP2 PUSH32 0x17307EAB39AB6107E8899845AD3D59BD9653F200F220920489CA2B5937696C31 SWAP2 ADD PUSH1 0x40 MLOAD DUP1 SWAP2 SUB SWAP1 LOG3 POP POP JUMP JUMPDEST PUSH2 0x1680 DUP5 DUP5 DUP5 PUSH2 0xA5A JUMP JUMPDEST PUSH1 0x1 PUSH1 0x1 PUSH1 0xA0 SHL SUB DUP4 AND EXTCODESIZE ISZERO PUSH2 0xE41 JUMPI PUSH2 0x169C DUP5 DUP5 DUP5 DUP5 PUSH2 0x26D6 JUMP JUMPDEST PUSH2 0xE41 JUMPI PUSH2 0xE41 PUSH4 0x68D2BF6B PUSH1 0xE1 SHL PUSH2 0x1D99 JUMP JUMPDEST PUSH1 0x0 DUP1 MLOAD PUSH1 0x20 PUSH2 0x3C44 DUP4 CODECOPY DUP2 MLOAD SWAP2 MSTORE PUSH2 0x16C8 DUP2 PUSH2 0x1C20 JUMP JUMPDEST PUSH2 0x16D1 DUP4 PUSH2 0x1D11 JUMP JUMPDEST PUSH2 0x16EE JUMPI PUSH1 0x40 MLOAD PUSH4 0xC1AB6DC1 PUSH1 0xE0 SHL DUP2 MSTORE PUSH1 0x4 ADD PUSH1 0x40 MLOAD DUP1 SWAP2 SUB SWAP1 REVERT JUMPDEST PUSH1 0x0 DUP4 DUP2 MSTORE PUSH1 0x4 PUSH1 0x20 MSTORE PUSH1 0x40 SWAP1 KECCAK256 SLOAD PUSH1 0xFF AND ISZERO PUSH2 0x171E JUMPI PUSH1 0x40 MLOAD PUSH4 0xB087BBF3 PUSH1 0xE0 SHL DUP2 MSTORE PUSH1 0x4 ADD PUSH1 0x40 MLOAD DUP1 SWAP2 SUB SWAP1 REVERT JUMPDEST PUSH1 0x0 DUP4 DUP2 MSTORE PUSH1 0x3 PUSH1 0x20 MSTORE PUSH1 0x40 SWAP1 KECCAK256 DUP3 SWAP1 PUSH2 0x1738 DUP3 DUP3 PUSH2 0x37F5 JUMP JUMPDEST SWAP1 POP POP DUP3 PUSH32 0xCB51969318CEE471D3ABC5EE4D81EA83E4748E5063261189CBF68810B17066CF DUP4 PUSH1 0x40 MLOAD PUSH2 0x176B SWAP2 SWAP1 PUSH2 0x3957 JUMP JUMPDEST PUSH1 0x40 MLOAD DUP1 SWAP2 SUB SWAP1 LOG2 POP POP POP JUMP JUMPDEST PUSH2 0x1780 PUSH2 0x2E82 JUMP JUMPDEST PUSH2 0x1788 PUSH2 0x1E54 JUMP JUMPDEST DUP3 GT ISZERO PUSH2 0x1798 JUMPI PUSH2 0x8DA DUP3 PUSH2 0x27B8 JUMP JUMPDEST PUSH2 0x17A0 PUSH2 0x2570 JUMP JUMPDEST DUP3 LT ISZERO PUSH2 0x17CA JUMPI JUMPDEST PUSH2 0x17B1 DUP3 PUSH2 0x27E3 JUMP JUMPDEST PUSH2 0x17C1 JUMPI PUSH1 0x0 NOT SWAP1 SWAP2 ADD SWAP1 PUSH2 0x17A8 JUMP JUMPDEST PUSH2 0x8DA DUP3 PUSH2 0x27B8 JUMP JUMPDEST SWAP2 SWAP1 POP JUMP JUMPDEST PUSH1 0x60 PUSH2 0x17DA DUP3 PUSH2 0x1D11 JUMP JUMPDEST PUSH2 0x17F7 JUMPI PUSH1 0x40 MLOAD PUSH4 0xC1AB6DC1 PUSH1 0xE0 SHL DUP2 MSTORE PUSH1 0x4 ADD PUSH1 0x40 MLOAD DUP1 SWAP2 SUB SWAP1 REVERT JUMPDEST PUSH1 0x2 PUSH2 0x1802 DUP4 PUSH2 0x2803 JUMP JUMPDEST PUSH1 0x40 MLOAD PUSH1 0x20 ADD PUSH2 0x1813 SWAP3 SWAP2 SWAP1 PUSH2 0x39F9 JUMP JUMPDEST PUSH1 0x40 MLOAD PUSH1 0x20 DUP2 DUP4 SUB SUB DUP2 MSTORE SWAP1 PUSH1 0x40 MSTORE SWAP1 POP SWAP2 SWAP1 POP JUMP JUMPDEST PUSH2 0x1832 DUP3 PUSH2 0xC2A JUMP JUMPDEST PUSH2 0x183B DUP2 PUSH2 0x1C20 JUMP JUMPDEST PUSH2 0xE41 DUP4 DUP4 PUSH2 0x2150 JUMP JUMPDEST PUSH2 0x187E PUSH1 0x40 MLOAD DUP1 PUSH1 0xC0 ADD PUSH1 0x40 MSTORE DUP1 PUSH1 0x60 DUP2 MSTORE PUSH1 0x20 ADD PUSH1 0x60 DUP2 MSTORE PUSH1 0x20 ADD PUSH1 0x60 DUP2 MSTORE PUSH1 0x20 ADD PUSH1 0x0 DUP2 MSTORE PUSH1 0x20 ADD PUSH1 0x0 DUP2 MSTORE PUSH1 0x20 ADD PUSH1 0x0 DUP2 MSTORE POP SWAP1 JUMP JUMPDEST PUSH2 0x1887 DUP3 PUSH2 0x1D11 JUMP JUMPDEST PUSH2 0x18A4 JUMPI PUSH1 0x40 MLOAD PUSH4 0xC1AB6DC1 PUSH1 0xE0 SHL DUP2 MSTORE PUSH1 0x4 ADD PUSH1 0x40 MLOAD DUP1 SWAP2 SUB SWAP1 REVERT JUMPDEST PUSH1 0x0 DUP3 DUP2 MSTORE PUSH1 0x3 PUSH1 0x20 MSTORE PUSH1 0x40 SWAP1 DUP2 SWAP1 KECCAK256 DUP2 MLOAD PUSH1 0xC0 DUP2 ADD SWAP1 SWAP3 MSTORE DUP1 SLOAD DUP3 SWAP1 DUP3 SWAP1 PUSH2 0x18CC SWAP1 PUSH2 0x35B8 JUMP JUMPDEST DUP1 PUSH1 0x1F ADD PUSH1 0x20 DUP1 SWAP2 DIV MUL PUSH1 0x20 ADD PUSH1 0x40 MLOAD SWAP1 DUP2 ADD PUSH1 0x40 MSTORE DUP1 SWAP3 SWAP2 SWAP1 DUP2 DUP2 MSTORE PUSH1 0x20 ADD DUP3 DUP1 SLOAD PUSH2 0x18F8 SWAP1 PUSH2 0x35B8 JUMP JUMPDEST DUP1 ISZERO PUSH2 0x1945 JUMPI DUP1 PUSH1 0x1F LT PUSH2 0x191A JUMPI PUSH2 0x100 DUP1 DUP4 SLOAD DIV MUL DUP4 MSTORE SWAP2 PUSH1 0x20 ADD SWAP2 PUSH2 0x1945 JUMP JUMPDEST DUP3 ADD SWAP2 SWAP1 PUSH1 0x0 MSTORE PUSH1 0x20 PUSH1 0x0 KECCAK256 SWAP1 JUMPDEST DUP2 SLOAD DUP2 MSTORE SWAP1 PUSH1 0x1 ADD SWAP1 PUSH1 0x20 ADD DUP1 DUP4 GT PUSH2 0x1928 JUMPI DUP3 SWAP1 SUB PUSH1 0x1F AND DUP3 ADD SWAP2 JUMPDEST POP POP POP POP POP DUP2 MSTORE PUSH1 0x20 ADD PUSH1 0x1 DUP3 ADD DUP1 SLOAD PUSH2 0x195E SWAP1 PUSH2 0x35B8 JUMP JUMPDEST DUP1 PUSH1 0x1F ADD PUSH1 0x20 DUP1 SWAP2 DIV MUL PUSH1 0x20 ADD PUSH1 0x40 MLOAD SWAP1 DUP2 ADD PUSH1 0x40 MSTORE DUP1 SWAP3 SWAP2 SWAP1 DUP2 DUP2 MSTORE PUSH1 0x20 ADD DUP3 DUP1 SLOAD PUSH2 0x198A SWAP1 PUSH2 0x35B8 JUMP JUMPDEST DUP1 ISZERO PUSH2 0x19D7 JUMPI DUP1 PUSH1 0x1F LT PUSH2 0x19AC JUMPI PUSH2 0x100 DUP1 DUP4 SLOAD DIV MUL DUP4 MSTORE SWAP2 PUSH1 0x20 ADD SWAP2 PUSH2 0x19D7 JUMP JUMPDEST DUP3 ADD SWAP2 SWAP1 PUSH1 0x0 MSTORE PUSH1 0x20 PUSH1 0x0 KECCAK256 SWAP1 JUMPDEST DUP2 SLOAD DUP2 MSTORE SWAP1 PUSH1 0x1 ADD SWAP1 PUSH1 0x20 ADD DUP1 DUP4 GT PUSH2 0x19BA JUMPI DUP3 SWAP1 SUB PUSH1 0x1F AND DUP3 ADD SWAP2 JUMPDEST POP POP POP POP POP DUP2 MSTORE PUSH1 0x20 ADD PUSH1 0x2 DUP3 ADD DUP1 SLOAD PUSH2 0x19F0 SWAP1 PUSH2 0x35B8 JUMP JUMPDEST DUP1 PUSH1 0x1F ADD PUSH1 0x20 DUP1 SWAP2 DIV MUL PUSH1 0x20 ADD PUSH1 0x40 MLOAD SWAP1 DUP2 ADD PUSH1 0x40 MSTORE DUP1 SWAP3 SWAP2 SWAP1 DUP2 DUP2 MSTORE PUSH1 0x20 ADD DUP3 DUP1 SLOAD PUSH2 0x1A1C SWAP1 PUSH2 0x35B8 JUMP JUMPDEST DUP1 ISZERO PUSH2 0x1A69 JUMPI DUP1 PUSH1 0x1F LT PUSH2 0x1A3E JUMPI PUSH2 0x100 DUP1 DUP4 SLOAD DIV MUL DUP4 MSTORE SWAP2 PUSH1 0x20 ADD SWAP2 PUSH2 0x1A69 JUMP JUMPDEST DUP3 ADD SWAP2 SWAP1 PUSH1 0x0 MSTORE PUSH1 0x20 PUSH1 0x0 KECCAK256 SWAP1 JUMPDEST DUP2 SLOAD DUP2 MSTORE SWAP1 PUSH1 0x1 ADD SWAP1 PUSH1 0x20 ADD DUP1 DUP4 GT PUSH2 0x1A4C JUMPI DUP3 SWAP1 SUB PUSH1 0x1F AND DUP3 ADD SWAP2 JUMPDEST POP POP POP POP POP DUP2 MSTORE PUSH1 0x20 ADD PUSH1 0x3 DUP3 ADD SLOAD DUP2 MSTORE PUSH1 0x20 ADD PUSH1 0x4 DUP3 ADD SLOAD DUP2 MSTORE PUSH1 0x20 ADD PUSH1 0x5 DUP3 ADD SLOAD DUP2 MSTORE POP POP SWAP1 POP SWAP2 SWAP1 POP JUMP JUMPDEST PUSH1 0x0 DUP1 MLOAD PUSH1 0x20 PUSH2 0x3C84 DUP4 CODECOPY DUP2 MLOAD SWAP2 MSTORE PUSH2 0x1AAF DUP2 PUSH2 0x1C20 JUMP JUMPDEST PUSH1 0x1 PUSH1 0x1 PUSH1 0xA0 SHL SUB DUP4 AND PUSH2 0x1AD6 JUMPI PUSH1 0x40 MLOAD PUSH4 0xD92E233D PUSH1 0xE0 SHL DUP2 MSTORE PUSH1 0x4 ADD PUSH1 0x40 MLOAD DUP1 SWAP2 SUB SWAP1 REVERT JUMPDEST DUP2 PUSH1 0x0 SUB PUSH2 0x1AF7 JUMPI PUSH1 0x40 MLOAD PUSH4 0xC1AB6DC1 PUSH1 0xE0 SHL DUP2 MSTORE PUSH1 0x4 ADD PUSH1 0x40 MLOAD DUP1 SWAP2 SUB SWAP1 REVERT JUMPDEST PUSH2 0x378 DUP3 PUSH2 0x1B03 PUSH2 0xA1D JUMP JUMPDEST PUSH2 0x1B0D SWAP2 SWAP1 PUSH2 0x3641 JUMP JUMPDEST GT ISZERO PUSH2 0x1B2C JUMPI PUSH1 0x40 MLOAD PUSH4 0xD05CB609 PUSH1 0xE0 SHL DUP2 MSTORE PUSH1 0x4 ADD PUSH1 0x40 MLOAD DUP1 SWAP2 SUB SWAP1 REVERT JUMPDEST PUSH2 0x1B36 DUP4 DUP4 PUSH2 0x206F JUMP JUMPDEST DUP3 PUSH1 0x1 PUSH1 0x1 PUSH1 0xA0 SHL SUB AND PUSH32 0x30385C845B448A36257A6A1716E6AD2E1BC2CBE333CDE1E69FE849AD6511ADFE DUP4 PUSH1 0x40 MLOAD PUSH2 0x176B SWAP2 DUP2 MSTORE PUSH1 0x20 ADD SWAP1 JUMP JUMPDEST PUSH1 0x0 PUSH2 0x1B7B PUSH2 0x1CED JUMP JUMPDEST PUSH1 0x1 PUSH1 0x1 PUSH1 0xA0 SHL SUB SWAP4 DUP5 AND PUSH1 0x0 SWAP1 DUP2 MSTORE PUSH1 0x7 SWAP2 SWAP1 SWAP2 ADD PUSH1 0x20 SWAP1 DUP2 MSTORE PUSH1 0x40 DUP1 DUP4 KECCAK256 SWAP5 SWAP1 SWAP6 AND DUP3 MSTORE SWAP3 SWAP1 SWAP3 MSTORE POP KECCAK256 SLOAD PUSH1 0xFF AND SWAP1 JUMP JUMPDEST PUSH1 0x0 DUP1 MLOAD PUSH1 0x20 PUSH2 0x3C84 DUP4 CODECOPY DUP2 MLOAD SWAP2 MSTORE PUSH2 0x1BC6 DUP2 PUSH2 0x1C20 JUMP JUMPDEST PUSH1 0x0 DUP3 SWAP1 SSTORE PUSH1 0x40 MLOAD DUP3 DUP2 MSTORE PUSH32 0x525B762709CC2A983AEC5CCDFD807A061F993C91090B5BCD7DA92CA254976AAA SWAP1 PUSH1 0x20 ADD PUSH2 0x15D5 JUMP JUMPDEST PUSH1 0x0 PUSH1 0x1 PUSH1 0x1 PUSH1 0xE0 SHL SUB NOT DUP3 AND PUSH4 0x152A902D PUSH1 0xE1 SHL EQ DUP1 PUSH2 0x8DA JUMPI POP PUSH2 0x8DA DUP3 PUSH2 0x2895 JUMP JUMPDEST PUSH2 0xE22 DUP2 CALLER PUSH2 0x28CA JUMP JUMPDEST PUSH32 0xDAEDC9AB023613A7CAF35E703657E986CCFAD7E3EB0AF93A2853F8D65DD86B00 PUSH2 0x2710 PUSH1 0x1 PUSH1 0x1 PUSH1 0x60 SHL SUB DUP4 AND DUP2 LT ISZERO PUSH2 0x1C8A JUMPI PUSH1 0x40 MLOAD PUSH4 0x6F483D09 PUSH1 0xE0 SHL DUP2 MSTORE PUSH1 0x1 PUSH1 0x1 PUSH1 0x60 SHL SUB DUP5 AND PUSH1 0x4 DUP3 ADD MSTORE PUSH1 0x24 DUP2 ADD DUP3 SWAP1 MSTORE PUSH1 0x44 ADD PUSH2 0xF48 JUMP JUMPDEST PUSH1 0x1 PUSH1 0x1 PUSH1 0xA0 SHL SUB DUP5 AND PUSH2 0x1CB4 JUMPI PUSH1 0x0 PUSH1 0x40 MLOAD PUSH4 0x5B6CC805 PUSH1 0xE1 SHL DUP2 MSTORE PUSH1 0x4 ADD PUSH2 0xF48 SWAP2 SWAP1 PUSH2 0x2FB2 JUMP JUMPDEST POP PUSH1 0x40 DUP1 MLOAD DUP1 DUP3 ADD SWAP1 SWAP2 MSTORE PUSH1 0x1 PUSH1 0x1 PUSH1 0xA0 SHL SUB SWAP1 SWAP4 AND DUP1 DUP5 MSTORE PUSH1 0x1 PUSH1 0x1 PUSH1 0x60 SHL SUB SWAP1 SWAP3 AND PUSH1 0x20 SWAP1 SWAP4 ADD DUP4 SWAP1 MSTORE PUSH1 0x1 PUSH1 0xA0 SHL SWAP1 SWAP3 MUL OR SWAP1 SSTORE JUMP JUMPDEST PUSH32 0x2569078DFB4B0305704D3008E7403993AE9601B85F7AE5E742DE3DE8F8011C40 SWAP1 JUMP JUMPDEST PUSH1 0x0 PUSH2 0x1D1B PUSH2 0x1E54 JUMP JUMPDEST DUP3 GT ISZERO PUSH2 0x1D45 JUMPI PUSH2 0x8DA PUSH2 0x1D2D PUSH2 0x1CED JUMP JUMPDEST PUSH1 0x0 DUP5 DUP2 MSTORE PUSH1 0x4 SWAP2 SWAP1 SWAP2 ADD PUSH1 0x20 MSTORE PUSH1 0x40 SWAP1 KECCAK256 SLOAD PUSH2 0x2903 JUMP JUMPDEST PUSH2 0x1D4D PUSH2 0x1CED JUMP JUMPDEST SLOAD DUP3 LT ISZERO PUSH2 0x17CA JUMPI PUSH1 0x0 JUMPDEST PUSH2 0x1D60 PUSH2 0x1CED JUMP JUMPDEST PUSH1 0x0 DUP5 DUP2 MSTORE PUSH1 0x4 SWAP2 SWAP1 SWAP2 ADD PUSH1 0x20 MSTORE PUSH1 0x40 DUP2 KECCAK256 SLOAD SWAP2 POP DUP2 SWAP1 SUB PUSH2 0x1D8C JUMPI PUSH2 0x1D85 DUP4 PUSH2 0x3A90 JUMP JUMPDEST SWAP3 POP PUSH2 0x1D58 JUMP JUMPDEST PUSH1 0x1 PUSH1 0xE0 SHL AND ISZERO SWAP3 SWAP2 POP POP JUMP JUMPDEST DUP1 PUSH1 0x0 MSTORE PUSH1 0x4 PUSH1 0x0 REVERT JUMPDEST PUSH1 0x0 PUSH2 0x1DAE DUP4 PUSH2 0x1466 JUMP JUMPDEST SWAP1 POP DUP2 DUP1 ISZERO PUSH2 0x1DC6 JUMPI POP CALLER PUSH1 0x1 PUSH1 0x1 PUSH1 0xA0 SHL SUB DUP3 AND EQ ISZERO JUMPDEST ISZERO PUSH2 0x1DE9 JUMPI PUSH2 0x1DD5 DUP2 CALLER PUSH2 0x1B71 JUMP JUMPDEST PUSH2 0x1DE9 JUMPI PUSH2 0x1DE9 PUSH4 0x67D9DCA1 PUSH1 0xE1 SHL PUSH2 0x1D99 JUMP JUMPDEST DUP4 PUSH2 0x1DF2 PUSH2 0x1CED JUMP JUMPDEST PUSH1 0x0 DUP6 DUP2 MSTORE PUSH1 0x6 SWAP2 SWAP1 SWAP2 ADD PUSH1 0x20 MSTORE PUSH1 0x40 DUP1 DUP3 KECCAK256 DUP1 SLOAD PUSH1 0x1 PUSH1 0x1 PUSH1 0xA0 SHL SUB NOT AND PUSH1 0x1 PUSH1 0x1 PUSH1 0xA0 SHL SUB SWAP5 DUP6 AND OR SWAP1 SSTORE MLOAD DUP6 SWAP3 DUP8 DUP2 AND SWAP3 SWAP1 DUP6 AND SWAP2 PUSH32 0x8C5BE1E5EBEC7D5BD14F71427D1E84F3DD0314C0F7B2291E5B200AC8C7C3B925 SWAP2 SWAP1 LOG4 POP POP POP POP JUMP JUMPDEST PUSH1 0x0 NOT SWAP1 JUMP JUMPDEST PUSH1 0x0 PUSH2 0x1E64 PUSH2 0x1CED JUMP JUMPDEST PUSH1 0x0 DUP4 DUP2 MSTORE PUSH1 0x4 SWAP2 SWAP1 SWAP2 ADD PUSH1 0x20 MSTORE PUSH1 0x40 SWAP1 KECCAK256 SLOAD SWAP1 POP PUSH2 0x1E81 PUSH2 0x1E54 JUMP JUMPDEST DUP3 GT ISZERO PUSH2 0x1EAB JUMPI PUSH2 0x1E91 DUP2 PUSH2 0x2903 JUMP JUMPDEST ISZERO PUSH2 0x1E9B JUMPI SWAP2 SWAP1 POP JUMP JUMPDEST PUSH2 0x1EAB PUSH4 0x6F96CDA1 PUSH1 0xE1 SHL PUSH2 0x1D99 JUMP JUMPDEST DUP1 PUSH1 0x0 SUB PUSH2 0x1F24 JUMPI PUSH2 0x1EBB PUSH2 0x1CED JUMP JUMPDEST SLOAD DUP3 LT PUSH2 0x1ED2 JUMPI PUSH2 0x1ED2 PUSH4 0x6F96CDA1 PUSH1 0xE1 SHL PUSH2 0x1D99 JUMP JUMPDEST PUSH2 0x1EDA PUSH2 0x1CED JUMP JUMPDEST PUSH1 0x0 NOT SWAP1 SWAP3 ADD PUSH1 0x0 DUP2 DUP2 MSTORE PUSH1 0x4 SWAP4 SWAP1 SWAP4 ADD PUSH1 0x20 MSTORE PUSH1 0x40 SWAP1 SWAP3 KECCAK256 SLOAD SWAP1 POP DUP1 ISZERO PUSH2 0x1ED2 JUMPI PUSH1 0x1 PUSH1 0xE0 SHL DUP2 AND PUSH1 0x0 SUB PUSH2 0x1F0F JUMPI SWAP2 SWAP1 POP JUMP JUMPDEST PUSH2 0x1F1F PUSH4 0x6F96CDA1 PUSH1 0xE1 SHL PUSH2 0x1D99 JUMP JUMPDEST PUSH2 0x1ED2 JUMP JUMPDEST PUSH1 0x1 PUSH1 0xE0 SHL DUP2 AND PUSH1 0x0 SUB PUSH2 0x1F37 JUMPI SWAP2 SWAP1 POP JUMP JUMPDEST PUSH2 0x17CA PUSH4 0x6F96CDA1 PUSH1 0xE1 SHL PUSH2 0x1D99 JUMP JUMPDEST PUSH1 0x0 DUP1 PUSH1 0x0 PUSH2 0x1F54 PUSH2 0x1CED JUMP JUMPDEST PUSH1 0x0 SWAP5 DUP6 MSTORE PUSH1 0x6 ADD PUSH1 0x20 MSTORE POP POP PUSH1 0x40 SWAP1 SWAP2 KECCAK256 DUP1 SLOAD SWAP1 SWAP3 SWAP1 SWAP2 POP JUMP JUMPDEST PUSH1 0x1 PUSH1 0x1 PUSH1 0xA0 SHL SUB DUP4 AND ISZERO DUP1 ISZERO SWAP1 PUSH2 0x1F99 JUMPI POP DUP4 PUSH1 0x1 PUSH1 0x1 PUSH1 0xA0 SHL SUB AND DUP4 PUSH1 0x1 PUSH1 0x1 PUSH1 0xA0 SHL SUB AND EQ ISZERO JUMPDEST ISZERO PUSH2 0x1FD4 JUMPI PUSH1 0x1 SLOAD DUP2 PUSH2 0x1FAB DUP6 PUSH2 0x1471 JUMP JUMPDEST PUSH2 0x1FB5 SWAP2 SWAP1 PUSH2 0x3641 JUMP JUMPDEST GT ISZERO PUSH2 0x1FD4 JUMPI PUSH1 0x40 MLOAD PUSH4 0x33490191 PUSH1 0xE0 SHL DUP2 MSTORE PUSH1 0x4 ADD PUSH1 0x40 MLOAD DUP1 SWAP2 SUB SWAP1 REVERT JUMPDEST PUSH2 0xE41 JUMP JUMPDEST PUSH32 0x2DD7BC7DEC4DCEEDDA775E58DD541E08A116C6C53815C0BD028192F7B626800 SWAP1 JUMP JUMPDEST PUSH2 0x2005 PUSH2 0x1451 JUMP JUMPDEST ISZERO PUSH2 0x2023 JUMPI PUSH1 0x40 MLOAD PUSH4 0xD93C0665 PUSH1 0xE0 SHL DUP2 MSTORE PUSH1 0x4 ADD PUSH1 0x40 MLOAD DUP1 SWAP2 SUB SWAP1 REVERT JUMPDEST JUMP JUMPDEST PUSH32 0x9B779B17422D0DF92223018B32B4D1FA46E071723D6817E2486D003BECC55F00 DUP1 SLOAD PUSH1 0x1 NOT ADD PUSH2 0x2069 JUMPI PUSH1 0x40 MLOAD PUSH4 0x3EE5AEB5 PUSH1 0xE0 SHL DUP2 MSTORE PUSH1 0x4 ADD PUSH1 0x40 MLOAD DUP1 SWAP2 SUB SWAP1 REVERT JUMPDEST PUSH1 0x2 SWAP1 SSTORE JUMP JUMPDEST PUSH2 0xA19 DUP3 DUP3 PUSH1 0x40 MLOAD DUP1 PUSH1 0x20 ADD PUSH1 0x40 MSTORE DUP1 PUSH1 0x0 DUP2 MSTORE POP PUSH2 0x2919 JUMP JUMPDEST PUSH1 0x1 PUSH32 0x9B779B17422D0DF92223018B32B4D1FA46E071723D6817E2486D003BECC55F00 SSTORE JUMP JUMPDEST PUSH1 0x0 DUP1 PUSH2 0x20BA PUSH2 0x1FD9 JUMP JUMPDEST SWAP1 POP PUSH2 0x20C6 DUP5 DUP5 PUSH2 0x153E JUMP JUMPDEST PUSH2 0x2146 JUMPI PUSH1 0x0 DUP5 DUP2 MSTORE PUSH1 0x20 DUP3 DUP2 MSTORE PUSH1 0x40 DUP1 DUP4 KECCAK256 PUSH1 0x1 PUSH1 0x1 PUSH1 0xA0 SHL SUB DUP8 AND DUP5 MSTORE SWAP1 SWAP2 MSTORE SWAP1 KECCAK256 DUP1 SLOAD PUSH1 0xFF NOT AND PUSH1 0x1 OR SWAP1 SSTORE PUSH2 0x20FC CALLER SWAP1 JUMP JUMPDEST PUSH1 0x1 PUSH1 0x1 PUSH1 0xA0 SHL SUB AND DUP4 PUSH1 0x1 PUSH1 0x1 PUSH1 0xA0 SHL SUB AND DUP6 PUSH32 0x2F8788117E7EFF1D82E926EC794901D17C78024A50270940304540A733656F0D PUSH1 0x40 MLOAD PUSH1 0x40 MLOAD DUP1 SWAP2 SUB SWAP1 LOG4 PUSH1 0x1 SWAP2 POP POP PUSH2 0x8DA JUMP JUMPDEST PUSH1 0x0 SWAP2 POP POP PUSH2 0x8DA JUMP JUMPDEST PUSH1 0x0 DUP1 PUSH2 0x215B PUSH2 0x1FD9 JUMP JUMPDEST SWAP1 POP PUSH2 0x2167 DUP5 DUP5 PUSH2 0x153E JUMP JUMPDEST ISZERO PUSH2 0x2146 JUMPI PUSH1 0x0 DUP5 DUP2 MSTORE PUSH1 0x20 DUP3 DUP2 MSTORE PUSH1 0x40 DUP1 DUP4 KECCAK256 PUSH1 0x1 PUSH1 0x1 PUSH1 0xA0 SHL SUB DUP8 AND DUP1 DUP6 MSTORE SWAP3 MSTORE DUP1 DUP4 KECCAK256 DUP1 SLOAD PUSH1 0xFF NOT AND SWAP1 SSTORE MLOAD CALLER SWAP3 DUP8 SWAP2 PUSH32 0xF6391F5C32D9C69D2A47EA670B442974B53935D1EDC7FD64EB21E047A839171B SWAP2 SWAP1 LOG4 PUSH1 0x1 SWAP2 POP POP PUSH2 0x8DA JUMP JUMPDEST PUSH2 0x21D0 PUSH2 0x298D JUMP JUMPDEST PUSH1 0x0 PUSH2 0x21DA PUSH2 0x2505 JUMP JUMPDEST DUP1 SLOAD PUSH1 0xFF NOT AND DUP2 SSTORE SWAP1 POP PUSH32 0x5DB9EE0A495BF2E6FF9C91A7834C1BA4FDD244A5E8AA4E537BD38AEAE4B073AA CALLER JUMPDEST PUSH1 0x40 MLOAD PUSH2 0x2214 SWAP2 SWAP1 PUSH2 0x2FB2 JUMP JUMPDEST PUSH1 0x40 MLOAD DUP1 SWAP2 SUB SWAP1 LOG1 POP JUMP JUMPDEST PUSH32 0xEE151C8401928DC223602BB187AFF91B9A56C7CAE5476EF1B3287B085A16C85F SWAP1 JUMP JUMPDEST PUSH1 0x0 DUP1 PUSH32 0xF0C57E16840DF040F15088DC2F81FE391C3923BEC73E23A9662EFC9C229C6A00 PUSH2 0x8DA JUMP JUMPDEST PUSH2 0x2274 PUSH2 0x221F JUMP JUMPDEST SLOAD PUSH2 0x100 SWAP1 DIV PUSH1 0xFF AND PUSH2 0x2299 JUMPI PUSH1 0x40 MLOAD PUSH3 0x461BCD PUSH1 0xE5 SHL DUP2 MSTORE PUSH1 0x4 ADD PUSH2 0xF48 SWAP1 PUSH2 0x3AA7 JUMP JUMPDEST PUSH2 0xA19 DUP3 DUP3 PUSH2 0x29B2 JUMP JUMPDEST PUSH2 0x2023 PUSH2 0x2A3A JUMP JUMPDEST PUSH2 0x22B3 PUSH2 0x2A3A JUMP JUMPDEST PUSH2 0x2023 PUSH2 0x2A5F JUMP JUMPDEST ADDRESS PUSH1 0x1 PUSH1 0x1 PUSH1 0xA0 SHL SUB PUSH32 0x0 AND EQ DUP1 PUSH2 0x2342 JUMPI POP PUSH32 0x0 PUSH1 0x1 PUSH1 0x1 PUSH1 0xA0 SHL SUB AND PUSH2 0x2336 PUSH1 0x0 DUP1 MLOAD PUSH1 0x20 PUSH2 0x3C64 DUP4 CODECOPY DUP2 MLOAD SWAP2 MSTORE SLOAD PUSH1 0x1 PUSH1 0x1 PUSH1 0xA0 SHL SUB AND SWAP1 JUMP JUMPDEST PUSH1 0x1 PUSH1 0x1 PUSH1 0xA0 SHL SUB AND EQ ISZERO JUMPDEST ISZERO PUSH2 0x2023 JUMPI PUSH1 0x40 MLOAD PUSH4 0x703E46DD PUSH1 0xE1 SHL DUP2 MSTORE PUSH1 0x4 ADD PUSH1 0x40 MLOAD DUP1 SWAP2 SUB SWAP1 REVERT JUMPDEST PUSH1 0x0 DUP1 MLOAD PUSH1 0x20 PUSH2 0x3C84 DUP4 CODECOPY DUP2 MLOAD SWAP2 MSTORE PUSH2 0xA19 DUP2 PUSH2 0x1C20 JUMP JUMPDEST DUP2 PUSH1 0x1 PUSH1 0x1 PUSH1 0xA0 SHL SUB AND PUSH4 0x52D1902D PUSH1 0x40 MLOAD DUP2 PUSH4 0xFFFFFFFF AND PUSH1 0xE0 SHL DUP2 MSTORE PUSH1 0x4 ADD PUSH1 0x20 PUSH1 0x40 MLOAD DUP1 DUP4 SUB DUP2 DUP7 GAS STATICCALL SWAP3 POP POP POP DUP1 ISZERO PUSH2 0x23D2 JUMPI POP PUSH1 0x40 DUP1 MLOAD PUSH1 0x1F RETURNDATASIZE SWAP1 DUP2 ADD PUSH1 0x1F NOT AND DUP3 ADD SWAP1 SWAP3 MSTORE PUSH2 0x23CF SWAP2 DUP2 ADD SWAP1 PUSH2 0x3AFB JUMP JUMPDEST PUSH1 0x1 JUMPDEST PUSH2 0x23F1 JUMPI DUP2 PUSH1 0x40 MLOAD PUSH4 0x4C9C8CE3 PUSH1 0xE0 SHL DUP2 MSTORE PUSH1 0x4 ADD PUSH2 0xF48 SWAP2 SWAP1 PUSH2 0x2FB2 JUMP JUMPDEST PUSH1 0x0 DUP1 MLOAD PUSH1 0x20 PUSH2 0x3C64 DUP4 CODECOPY DUP2 MLOAD SWAP2 MSTORE DUP2 EQ PUSH2 0x2422 JUMPI PUSH1 0x40 MLOAD PUSH4 0x2A875269 PUSH1 0xE2 SHL DUP2 MSTORE PUSH1 0x4 DUP2 ADD DUP3 SWAP1 MSTORE PUSH1 0x24 ADD PUSH2 0xF48 JUMP JUMPDEST PUSH2 0x929 DUP4 DUP4 PUSH2 0x2A67 JUMP JUMPDEST DUP1 SELFBALANCE LT ISZERO PUSH2 0x2456 JUMPI PUSH1 0x40 MLOAD PUSH4 0xCF479181 PUSH1 0xE0 SHL DUP2 MSTORE SELFBALANCE PUSH1 0x4 DUP3 ADD MSTORE PUSH1 0x24 DUP2 ADD DUP3 SWAP1 MSTORE PUSH1 0x44 ADD PUSH2 0xF48 JUMP JUMPDEST PUSH1 0x0 DUP1 DUP4 PUSH1 0x1 PUSH1 0x1 PUSH1 0xA0 SHL SUB AND DUP4 PUSH1 0x40 MLOAD PUSH1 0x0 PUSH1 0x40 MLOAD DUP1 DUP4 SUB DUP2 DUP6 DUP8 GAS CALL SWAP3 POP POP POP RETURNDATASIZE DUP1 PUSH1 0x0 DUP2 EQ PUSH2 0x24A4 JUMPI PUSH1 0x40 MLOAD SWAP2 POP PUSH1 0x1F NOT PUSH1 0x3F RETURNDATASIZE ADD AND DUP3 ADD PUSH1 0x40 MSTORE RETURNDATASIZE DUP3 MSTORE RETURNDATASIZE PUSH1 0x0 PUSH1 0x20 DUP5 ADD RETURNDATACOPY PUSH2 0x24A9 JUMP JUMPDEST PUSH1 0x60 SWAP2 POP JUMPDEST POP SWAP2 POP SWAP2 POP DUP2 PUSH2 0xE41 JUMPI PUSH2 0xE41 DUP2 PUSH2 0x2ABD JUMP JUMPDEST ADDRESS PUSH1 0x1 PUSH1 0x1 PUSH1 0xA0 SHL SUB PUSH32 0x0 AND EQ PUSH2 0x2023 JUMPI PUSH1 0x40 MLOAD PUSH4 0x703E46DD PUSH1 0xE1 SHL DUP2 MSTORE PUSH1 0x4 ADD PUSH1 0x40 MLOAD DUP1 SWAP2 SUB SWAP1 REVERT JUMPDEST PUSH32 0xCD5ED15C6E187E77E9AEE88184C21F4F2182AB5827CB3B7E07FBEDCD63F03300 SWAP1 JUMP JUMPDEST PUSH2 0x2531 PUSH2 0x1FFD JUMP JUMPDEST PUSH1 0x0 PUSH2 0x253B PUSH2 0x2505 JUMP JUMPDEST DUP1 SLOAD PUSH1 0xFF NOT AND PUSH1 0x1 OR DUP2 SSTORE SWAP1 POP PUSH32 0x62E78CEA01BEE320CD4E420270B5EA74000D11B0C9F74754EBDBFC544B05A258 PUSH2 0x2207 CALLER SWAP1 JUMP JUMPDEST PUSH1 0x0 PUSH2 0x257A PUSH2 0x1CED JUMP JUMPDEST SLOAD SWAP2 SWAP1 POP JUMP JUMPDEST PUSH1 0x60 DUP2 DUP4 LT PUSH2 0x2599 JUMPI PUSH2 0x2599 PUSH4 0x1960CCAD PUSH1 0xE1 SHL PUSH2 0x1D99 JUMP JUMPDEST PUSH1 0x0 PUSH2 0x25A3 PUSH2 0x2570 JUMP JUMPDEST SWAP1 POP PUSH1 0x0 PUSH1 0x0 NOT PUSH2 0x25B2 PUSH2 0x1E54 JUMP JUMPDEST SUB PUSH2 0x25BD JUMPI DUP2 PUSH2 0x25BF JUMP JUMPDEST DUP4 JUMPDEST SWAP1 POP DUP1 DUP5 LT PUSH2 0x25CC JUMPI DUP1 SWAP4 POP JUMPDEST PUSH1 0x0 PUSH2 0x25D7 DUP8 PUSH2 0x1471 JUMP JUMPDEST SWAP1 POP DUP5 DUP7 LT PUSH2 0x25E4 JUMPI POP PUSH1 0x0 JUMPDEST DUP1 ISZERO PUSH2 0x26CC JUMPI DUP1 DUP7 DUP7 SUB GT PUSH2 0x25F8 JUMPI POP DUP5 DUP5 SUB JUMPDEST PUSH1 0x40 DUP1 MLOAD PUSH1 0x1 DUP4 ADD PUSH1 0x5 SHL DUP2 ADD SWAP2 DUP3 SWAP1 MSTORE SWAP5 POP PUSH1 0x0 PUSH2 0x2616 DUP9 PUSH2 0x1778 JUMP JUMPDEST SWAP1 POP PUSH1 0x0 DUP2 PUSH1 0x40 ADD MLOAD PUSH2 0x2627 JUMPI POP DUP1 MLOAD JUMPDEST PUSH1 0x0 JUMPDEST PUSH1 0x0 NOT PUSH2 0x2635 PUSH2 0x1E54 JUMP JUMPDEST EQ PUSH2 0x2663 JUMPI DUP7 DUP11 SUB PUSH2 0x264F JUMPI PUSH2 0x2649 PUSH2 0x1E54 JUMP JUMPDEST PUSH1 0x1 ADD SWAP10 POP JUMPDEST PUSH2 0x2657 PUSH2 0x1E54 JUMP JUMPDEST DUP11 GT ISZERO PUSH2 0x2663 JUMPI PUSH1 0x0 SWAP2 POP JUMPDEST PUSH2 0x266C DUP11 PUSH2 0x27B8 JUMP JUMPDEST SWAP3 POP PUSH1 0x40 DUP4 ADD MLOAD PUSH1 0x0 DUP2 EQ PUSH2 0x2684 JUMPI PUSH1 0x0 SWAP3 POP PUSH2 0x26A9 JUMP JUMPDEST DUP4 MLOAD ISZERO PUSH2 0x2690 JUMPI DUP4 MLOAD SWAP3 POP JUMPDEST DUP12 DUP4 XOR PUSH1 0x60 SHL PUSH2 0x26A9 JUMPI PUSH1 0x1 DUP3 ADD SWAP2 POP DUP11 DUP3 PUSH1 0x5 SHL DUP11 ADD MSTORE JUMPDEST POP PUSH1 0x1 DUP11 ADD SWAP10 POP DUP4 PUSH1 0x40 MSTORE DUP9 DUP11 EQ DUP1 PUSH2 0x26C1 JUMPI POP DUP5 DUP2 EQ JUMPDEST ISZERO PUSH2 0x262A JUMPI DUP8 MSTORE POP POP POP JUMPDEST POP POP POP SWAP4 SWAP3 POP POP POP JUMP JUMPDEST PUSH1 0x40 MLOAD PUSH4 0xA85BD01 PUSH1 0xE1 SHL DUP2 MSTORE PUSH1 0x0 SWAP1 PUSH1 0x1 PUSH1 0x1 PUSH1 0xA0 SHL SUB DUP6 AND SWAP1 PUSH4 0x150B7A02 SWAP1 PUSH2 0x270B SWAP1 CALLER SWAP1 DUP10 SWAP1 DUP9 SWAP1 DUP9 SWAP1 PUSH1 0x4 ADD PUSH2 0x3B14 JUMP JUMPDEST PUSH1 0x20 PUSH1 0x40 MLOAD DUP1 DUP4 SUB DUP2 PUSH1 0x0 DUP8 GAS CALL SWAP3 POP POP POP DUP1 ISZERO PUSH2 0x2746 JUMPI POP PUSH1 0x40 DUP1 MLOAD PUSH1 0x1F RETURNDATASIZE SWAP1 DUP2 ADD PUSH1 0x1F NOT AND DUP3 ADD SWAP1 SWAP3 MSTORE PUSH2 0x2743 SWAP2 DUP2 ADD SWAP1 PUSH2 0x3B51 JUMP JUMPDEST PUSH1 0x1 JUMPDEST PUSH2 0x279B JUMPI RETURNDATASIZE DUP1 DUP1 ISZERO PUSH2 0x2774 JUMPI PUSH1 0x40 MLOAD SWAP2 POP PUSH1 0x1F NOT PUSH1 0x3F RETURNDATASIZE ADD AND DUP3 ADD PUSH1 0x40 MSTORE RETURNDATASIZE DUP3 MSTORE RETURNDATASIZE PUSH1 0x0 PUSH1 0x20 DUP5 ADD RETURNDATACOPY PUSH2 0x2779 JUMP JUMPDEST PUSH1 0x60 SWAP2 POP JUMPDEST POP DUP1 MLOAD PUSH1 0x0 SUB PUSH2 0x2793 JUMPI PUSH2 0x2793 PUSH4 0x68D2BF6B PUSH1 0xE1 SHL PUSH2 0x1D99 JUMP JUMPDEST DUP1 MLOAD DUP2 PUSH1 0x20 ADD REVERT JUMPDEST PUSH1 0x1 PUSH1 0x1 PUSH1 0xE0 SHL SUB NOT AND PUSH4 0xA85BD01 PUSH1 0xE1 SHL EQ SWAP1 POP SWAP5 SWAP4 POP POP POP POP JUMP JUMPDEST PUSH2 0x27C0 PUSH2 0x2E82 JUMP JUMPDEST PUSH2 0x8DA PUSH2 0x27CB PUSH2 0x1CED JUMP JUMPDEST PUSH1 0x0 DUP5 DUP2 MSTORE PUSH1 0x4 SWAP2 SWAP1 SWAP2 ADD PUSH1 0x20 MSTORE PUSH1 0x40 SWAP1 KECCAK256 SLOAD PUSH2 0x2AE6 JUMP JUMPDEST PUSH1 0x0 PUSH2 0x27ED PUSH2 0x1CED JUMP JUMPDEST PUSH1 0x0 SWAP3 DUP4 MSTORE PUSH1 0x4 ADD PUSH1 0x20 MSTORE POP PUSH1 0x40 SWAP1 KECCAK256 SLOAD ISZERO ISZERO SWAP1 JUMP JUMPDEST PUSH1 0x60 PUSH1 0x0 PUSH2 0x2810 DUP4 PUSH2 0x2B29 JUMP JUMPDEST PUSH1 0x1 ADD SWAP1 POP PUSH1 0x0 DUP2 PUSH1 0x1 PUSH1 0x1 PUSH1 0x40 SHL SUB DUP2 GT ISZERO PUSH2 0x282F JUMPI PUSH2 0x282F PUSH2 0x307A JUMP JUMPDEST PUSH1 0x40 MLOAD SWAP1 DUP1 DUP3 MSTORE DUP1 PUSH1 0x1F ADD PUSH1 0x1F NOT AND PUSH1 0x20 ADD DUP3 ADD PUSH1 0x40 MSTORE DUP1 ISZERO PUSH2 0x2859 JUMPI PUSH1 0x20 DUP3 ADD DUP2 DUP1 CALLDATASIZE DUP4 CALLDATACOPY ADD SWAP1 POP JUMPDEST POP SWAP1 POP DUP2 DUP2 ADD PUSH1 0x20 ADD JUMPDEST PUSH1 0x0 NOT ADD PUSH16 0x181899199A1A9B1B9C1CB0B131B232B3 PUSH1 0x81 SHL PUSH1 0xA DUP7 MOD BYTE DUP2 MSTORE8 PUSH1 0xA DUP6 DIV SWAP5 POP DUP5 PUSH2 0x2863 JUMPI POP SWAP4 SWAP3 POP POP POP JUMP JUMPDEST PUSH1 0x0 PUSH1 0x1 PUSH1 0x1 PUSH1 0xE0 SHL SUB NOT DUP3 AND PUSH4 0x7965DB0B PUSH1 0xE0 SHL EQ DUP1 PUSH2 0x8DA JUMPI POP PUSH4 0x1FFC9A7 PUSH1 0xE0 SHL PUSH1 0x1 PUSH1 0x1 PUSH1 0xE0 SHL SUB NOT DUP4 AND EQ PUSH2 0x8DA JUMP JUMPDEST PUSH2 0x28D4 DUP3 DUP3 PUSH2 0x153E JUMP JUMPDEST PUSH2 0xA19 JUMPI PUSH1 0x40 MLOAD PUSH4 0xE2517D3F PUSH1 0xE0 SHL DUP2 MSTORE PUSH1 0x1 PUSH1 0x1 PUSH1 0xA0 SHL SUB DUP3 AND PUSH1 0x4 DUP3 ADD MSTORE PUSH1 0x24 DUP2 ADD DUP4 SWAP1 MSTORE PUSH1 0x44 ADD PUSH2 0xF48 JUMP JUMPDEST PUSH1 0x1 PUSH1 0xE0 SHL DUP2 AND PUSH1 0x1 PUSH1 0x1 PUSH1 0xA0 SHL SUB SWAP1 SWAP2 AND GT SWAP1 JUMP JUMPDEST PUSH2 0x2923 DUP4 DUP4 PUSH2 0x2C01 JUMP JUMPDEST PUSH1 0x1 PUSH1 0x1 PUSH1 0xA0 SHL SUB DUP4 AND EXTCODESIZE ISZERO PUSH2 0x929 JUMPI PUSH1 0x0 PUSH2 0x293D PUSH2 0x1CED JUMP JUMPDEST SLOAD SWAP1 POP DUP3 DUP2 SUB JUMPDEST PUSH2 0x2957 PUSH1 0x0 DUP7 DUP4 DUP1 PUSH1 0x1 ADD SWAP5 POP DUP7 PUSH2 0x26D6 JUMP JUMPDEST PUSH2 0x296B JUMPI PUSH2 0x296B PUSH4 0x68D2BF6B PUSH1 0xE1 SHL PUSH2 0x1D99 JUMP JUMPDEST DUP2 DUP2 LT PUSH2 0x2944 JUMPI DUP2 PUSH2 0x297B PUSH2 0x1CED JUMP JUMPDEST SLOAD EQ PUSH2 0x2986 JUMPI PUSH1 0x0 DUP1 REVERT JUMPDEST POP POP POP POP POP JUMP JUMPDEST PUSH2 0x2995 PUSH2 0x1451 JUMP JUMPDEST PUSH2 0x2023 JUMPI PUSH1 0x40 MLOAD PUSH4 0x8DFC202B PUSH1 0xE0 SHL DUP2 MSTORE PUSH1 0x4 ADD PUSH1 0x40 MLOAD DUP1 SWAP2 SUB SWAP1 REVERT JUMPDEST PUSH2 0x29BA PUSH2 0x221F JUMP JUMPDEST SLOAD PUSH2 0x100 SWAP1 DIV PUSH1 0xFF AND PUSH2 0x29DF JUMPI PUSH1 0x40 MLOAD PUSH3 0x461BCD PUSH1 0xE5 SHL DUP2 MSTORE PUSH1 0x4 ADD PUSH2 0xF48 SWAP1 PUSH2 0x3AA7 JUMP JUMPDEST DUP2 PUSH2 0x29E8 PUSH2 0x1CED JUMP JUMPDEST PUSH1 0x2 ADD SWAP1 PUSH2 0x29F6 SWAP1 DUP3 PUSH2 0x3B6E JUMP JUMPDEST POP DUP1 PUSH2 0x2A00 PUSH2 0x1CED JUMP JUMPDEST PUSH1 0x3 ADD SWAP1 PUSH2 0x2A0E SWAP1 DUP3 PUSH2 0x3B6E JUMP JUMPDEST POP PUSH1 0x0 PUSH2 0x2A19 PUSH2 0x1CED JUMP JUMPDEST SSTORE PUSH1 0x0 PUSH2 0x2A24 PUSH2 0x1E54 JUMP JUMPDEST LT ISZERO PUSH2 0xA19 JUMPI PUSH2 0xA19 PUSH4 0xFED8210F PUSH1 0xE0 SHL PUSH2 0x1D99 JUMP JUMPDEST PUSH2 0x2A42 PUSH2 0x2D24 JUMP JUMPDEST PUSH2 0x2023 JUMPI PUSH1 0x40 MLOAD PUSH4 0x1AFCD79F PUSH1 0xE3 SHL DUP2 MSTORE PUSH1 0x4 ADD PUSH1 0x40 MLOAD DUP1 SWAP2 SUB SWAP1 REVERT JUMPDEST PUSH2 0x2089 PUSH2 0x2A3A JUMP JUMPDEST PUSH2 0x2A70 DUP3 PUSH2 0x2D3E JUMP JUMPDEST PUSH1 0x40 MLOAD PUSH1 0x1 PUSH1 0x1 PUSH1 0xA0 SHL SUB DUP4 AND SWAP1 PUSH32 0xBC7CD75A20EE27FD9ADEBAB32041F755214DBC6BFFA90CC0225B39DA2E5C2D3B SWAP1 PUSH1 0x0 SWAP1 LOG2 DUP1 MLOAD ISZERO PUSH2 0x2AB5 JUMPI PUSH2 0x929 DUP3 DUP3 PUSH2 0x2D9A JUMP JUMPDEST PUSH2 0xA19 PUSH2 0x2E10 JUMP JUMPDEST DUP1 MLOAD ISZERO PUSH2 0x2ACD JUMPI DUP1 MLOAD DUP1 DUP3 PUSH1 0x20 ADD REVERT JUMPDEST PUSH1 0x40 MLOAD PUSH4 0xD6BDA275 PUSH1 0xE0 SHL DUP2 MSTORE PUSH1 0x4 ADD PUSH1 0x40 MLOAD DUP1 SWAP2 SUB SWAP1 REVERT JUMPDEST PUSH2 0x2AEE PUSH2 0x2E82 JUMP JUMPDEST PUSH1 0x1 PUSH1 0x1 PUSH1 0xA0 SHL SUB DUP3 AND DUP2 MSTORE PUSH1 0x1 PUSH1 0x1 PUSH1 0x40 SHL SUB PUSH1 0xA0 DUP4 SWAP1 SHR AND PUSH1 0x20 DUP3 ADD MSTORE PUSH1 0x1 PUSH1 0xE0 SHL DUP3 AND ISZERO ISZERO PUSH1 0x40 DUP3 ADD MSTORE PUSH1 0xE8 SWAP2 SWAP1 SWAP2 SHR PUSH1 0x60 DUP3 ADD MSTORE SWAP1 JUMP JUMPDEST PUSH1 0x0 DUP1 PUSH19 0x184F03E93FF9F4DAA797ED6E38ED64BF6A1F01 PUSH1 0x40 SHL DUP4 LT PUSH2 0x2B68 JUMPI PUSH19 0x184F03E93FF9F4DAA797ED6E38ED64BF6A1F01 PUSH1 0x40 SHL DUP4 DIV SWAP3 POP PUSH1 0x40 ADD JUMPDEST PUSH14 0x4EE2D6D415B85ACEF8100000000 DUP4 LT PUSH2 0x2B94 JUMPI PUSH14 0x4EE2D6D415B85ACEF8100000000 DUP4 DIV SWAP3 POP PUSH1 0x20 ADD JUMPDEST PUSH7 0x2386F26FC10000 DUP4 LT PUSH2 0x2BB2 JUMPI PUSH7 0x2386F26FC10000 DUP4 DIV SWAP3 POP PUSH1 0x10 ADD JUMPDEST PUSH4 0x5F5E100 DUP4 LT PUSH2 0x2BCA JUMPI PUSH4 0x5F5E100 DUP4 DIV SWAP3 POP PUSH1 0x8 ADD JUMPDEST PUSH2 0x2710 DUP4 LT PUSH2 0x2BDE JUMPI PUSH2 0x2710 DUP4 DIV SWAP3 POP PUSH1 0x4 ADD JUMPDEST PUSH1 0x64 DUP4 LT PUSH2 0x2BF0 JUMPI PUSH1 0x64 DUP4 DIV SWAP3 POP PUSH1 0x2 ADD JUMPDEST PUSH1 0xA DUP4 LT PUSH2 0x8DA JUMPI PUSH1 0x1 ADD SWAP3 SWAP2 POP POP JUMP JUMPDEST PUSH1 0x0 PUSH2 0x2C0B PUSH2 0x1CED JUMP JUMPDEST SLOAD SWAP1 POP PUSH1 0x0 DUP3 SWAP1 SUB PUSH2 0x2C27 JUMPI PUSH2 0x2C27 PUSH4 0xB562E8DD PUSH1 0xE0 SHL PUSH2 0x1D99 JUMP JUMPDEST PUSH2 0x2C34 PUSH1 0x0 DUP5 DUP4 DUP6 PUSH2 0x1F6F JUMP JUMPDEST PUSH1 0x1 PUSH1 0x1 PUSH1 0xA0 SHL SUB DUP4 AND TIMESTAMP PUSH1 0xA0 SHL PUSH1 0x1 DUP5 EQ PUSH1 0xE1 SHL OR OR PUSH2 0x2C53 PUSH2 0x1CED JUMP JUMPDEST PUSH1 0x0 DUP4 DUP2 MSTORE PUSH1 0x4 SWAP2 SWAP1 SWAP2 ADD PUSH1 0x20 MSTORE PUSH1 0x40 SWAP1 KECCAK256 SSTORE PUSH9 0x10000000000000001 DUP3 MUL PUSH2 0x2C7A PUSH2 0x1CED JUMP JUMPDEST PUSH1 0x1 PUSH1 0x1 PUSH1 0xA0 SHL SUB DUP6 AND PUSH1 0x0 DUP2 DUP2 MSTORE PUSH1 0x5 SWAP3 SWAP1 SWAP3 ADD PUSH1 0x20 MSTORE PUSH1 0x40 DUP3 KECCAK256 DUP1 SLOAD SWAP1 SWAP4 ADD SWAP1 SWAP3 SSTORE DUP2 SWAP1 SUB PUSH2 0x2CB4 JUMPI PUSH2 0x2CB4 PUSH3 0x2E0763 PUSH1 0xE8 SHL PUSH2 0x1D99 JUMP JUMPDEST DUP2 DUP4 ADD DUP3 PUSH2 0x2CC0 PUSH2 0x1E54 JUMP JUMPDEST PUSH1 0x1 DUP4 SUB GT ISZERO PUSH2 0x2CDA JUMPI PUSH2 0x2CDA PUSH4 0x40B23F1D PUSH1 0xE1 SHL PUSH2 0x1D99 JUMP JUMPDEST JUMPDEST DUP1 DUP4 PUSH1 0x0 PUSH32 0xDDF252AD1BE2C89B69C2B068FC378DAA952BA7F163C4A11628F55A4DF523B3EF PUSH1 0x0 DUP1 LOG4 DUP2 DUP2 PUSH1 0x1 ADD SWAP2 POP DUP2 SUB PUSH2 0x2CDB JUMPI DUP2 PUSH2 0x2D1A PUSH2 0x1CED JUMP JUMPDEST SSTORE POP PUSH2 0x929 SWAP2 POP POP JUMP JUMPDEST PUSH1 0x0 PUSH2 0x2D2E PUSH2 0x2243 JUMP JUMPDEST SLOAD PUSH1 0x1 PUSH1 0x40 SHL SWAP1 DIV PUSH1 0xFF AND SWAP2 SWAP1 POP JUMP JUMPDEST DUP1 PUSH1 0x1 PUSH1 0x1 PUSH1 0xA0 SHL SUB AND EXTCODESIZE PUSH1 0x0 SUB PUSH2 0x2D6B JUMPI DUP1 PUSH1 0x40 MLOAD PUSH4 0x4C9C8CE3 PUSH1 0xE0 SHL DUP2 MSTORE PUSH1 0x4 ADD PUSH2 0xF48 SWAP2 SWAP1 PUSH2 0x2FB2 JUMP JUMPDEST PUSH1 0x0 DUP1 MLOAD PUSH1 0x20 PUSH2 0x3C64 DUP4 CODECOPY DUP2 MLOAD SWAP2 MSTORE DUP1 SLOAD PUSH1 0x1 PUSH1 0x1 PUSH1 0xA0 SHL SUB NOT AND PUSH1 0x1 PUSH1 0x1 PUSH1 0xA0 SHL SUB SWAP3 SWAP1 SWAP3 AND SWAP2 SWAP1 SWAP2 OR SWAP1 SSTORE JUMP JUMPDEST PUSH1 0x60 PUSH1 0x0 DUP1 DUP5 PUSH1 0x1 PUSH1 0x1 PUSH1 0xA0 SHL SUB AND DUP5 PUSH1 0x40 MLOAD PUSH2 0x2DB7 SWAP2 SWAP1 PUSH2 0x3C27 JUMP JUMPDEST PUSH1 0x0 PUSH1 0x40 MLOAD DUP1 DUP4 SUB DUP2 DUP6 GAS DELEGATECALL SWAP2 POP POP RETURNDATASIZE DUP1 PUSH1 0x0 DUP2 EQ PUSH2 0x2DF2 JUMPI PUSH1 0x40 MLOAD SWAP2 POP PUSH1 0x1F NOT PUSH1 0x3F RETURNDATASIZE ADD AND DUP3 ADD PUSH1 0x40 MSTORE RETURNDATASIZE DUP3 MSTORE RETURNDATASIZE PUSH1 0x0 PUSH1 0x20 DUP5 ADD RETURNDATACOPY PUSH2 0x2DF7 JUMP JUMPDEST PUSH1 0x60 SWAP2 POP JUMPDEST POP SWAP2 POP SWAP2 POP PUSH2 0x2E07 DUP6 DUP4 DUP4 PUSH2 0x2E2F JUMP JUMPDEST SWAP6 SWAP5 POP POP POP POP POP JUMP JUMPDEST CALLVALUE ISZERO PUSH2 0x2023 JUMPI PUSH1 0x40 MLOAD PUSH4 0xB398979F PUSH1 0xE0 SHL DUP2 MSTORE PUSH1 0x4 ADD PUSH1 0x40 MLOAD DUP1 SWAP2 SUB SWAP1 REVERT JUMPDEST PUSH1 0x60 DUP3 PUSH2 0x2E44 JUMPI PUSH2 0x2E3F DUP3 PUSH2 0x2ABD JUMP JUMPDEST PUSH2 0x15F1 JUMP JUMPDEST DUP2 MLOAD ISZERO DUP1 ISZERO PUSH2 0x2E5B JUMPI POP PUSH1 0x1 PUSH1 0x1 PUSH1 0xA0 SHL SUB DUP5 AND EXTCODESIZE ISZERO JUMPDEST ISZERO PUSH2 0x2E7B JUMPI DUP4 PUSH1 0x40 MLOAD PUSH4 0x9996B315 PUSH1 0xE0 SHL DUP2 MSTORE PUSH1 0x4 ADD PUSH2 0xF48 SWAP2 SWAP1 PUSH2 0x2FB2 JUMP JUMPDEST POP DUP1 PUSH2 0x15F1 JUMP JUMPDEST PUSH1 0x40 DUP1 MLOAD PUSH1 0x80 DUP2 ADD DUP3 MSTORE PUSH1 0x0 DUP1 DUP3 MSTORE PUSH1 0x20 DUP3 ADD DUP2 SWAP1 MSTORE SWAP2 DUP2 ADD DUP3 SWAP1 MSTORE PUSH1 0x60 DUP2 ADD SWAP2 SWAP1 SWAP2 MSTORE SWAP1 JUMP JUMPDEST PUSH1 0x1 PUSH1 0x1 PUSH1 0xE0 SHL SUB NOT DUP2 AND DUP2 EQ PUSH2 0xE22 JUMPI PUSH1 0x0 DUP1 REVERT JUMPDEST PUSH1 0x0 PUSH1 0x20 DUP3 DUP5 SUB SLT ISZERO PUSH2 0x2ED1 JUMPI PUSH1 0x0 DUP1 REVERT JUMPDEST DUP2 CALLDATALOAD PUSH2 0x15F1 DUP2 PUSH2 0x2EA9 JUMP JUMPDEST PUSH1 0x1 PUSH1 0x1 PUSH1 0xA0 SHL SUB DUP2 AND DUP2 EQ PUSH2 0xE22 JUMPI PUSH1 0x0 DUP1 REVERT JUMPDEST PUSH1 0x0 DUP1 PUSH1 0x40 DUP4 DUP6 SUB SLT ISZERO PUSH2 0x2F04 JUMPI PUSH1 0x0 DUP1 REVERT JUMPDEST DUP3 CALLDATALOAD PUSH2 0x2F0F DUP2 PUSH2 0x2EDC JUMP JUMPDEST SWAP2 POP PUSH1 0x20 DUP4 ADD CALLDATALOAD PUSH1 0x1 PUSH1 0x1 PUSH1 0x60 SHL SUB DUP2 AND DUP2 EQ PUSH2 0x2F2B JUMPI PUSH1 0x0 DUP1 REVERT JUMPDEST DUP1 SWAP2 POP POP SWAP3 POP SWAP3 SWAP1 POP JUMP JUMPDEST PUSH1 0x0 JUMPDEST DUP4 DUP2 LT ISZERO PUSH2 0x2F51 JUMPI DUP2 DUP2 ADD MLOAD DUP4 DUP3 ADD MSTORE PUSH1 0x20 ADD PUSH2 0x2F39 JUMP JUMPDEST POP POP PUSH1 0x0 SWAP2 ADD MSTORE JUMP JUMPDEST PUSH1 0x0 DUP2 MLOAD DUP1 DUP5 MSTORE PUSH2 0x2F72 DUP2 PUSH1 0x20 DUP7 ADD PUSH1 0x20 DUP7 ADD PUSH2 0x2F36 JUMP JUMPDEST PUSH1 0x1F ADD PUSH1 0x1F NOT AND SWAP3 SWAP1 SWAP3 ADD PUSH1 0x20 ADD SWAP3 SWAP2 POP POP JUMP JUMPDEST PUSH1 0x20 DUP2 MSTORE PUSH1 0x0 PUSH2 0x15F1 PUSH1 0x20 DUP4 ADD DUP5 PUSH2 0x2F5A JUMP JUMPDEST PUSH1 0x0 PUSH1 0x20 DUP3 DUP5 SUB SLT ISZERO PUSH2 0x2FAB JUMPI PUSH1 0x0 DUP1 REVERT JUMPDEST POP CALLDATALOAD SWAP2 SWAP1 POP JUMP JUMPDEST PUSH1 0x1 PUSH1 0x1 PUSH1 0xA0 SHL SUB SWAP2 SWAP1 SWAP2 AND DUP2 MSTORE PUSH1 0x20 ADD SWAP1 JUMP JUMPDEST PUSH1 0x0 DUP1 PUSH1 0x40 DUP4 DUP6 SUB SLT ISZERO PUSH2 0x2FD9 JUMPI PUSH1 0x0 DUP1 REVERT JUMPDEST DUP3 CALLDATALOAD PUSH2 0x2FE4 DUP2 PUSH2 0x2EDC JUMP JUMPDEST SWAP5 PUSH1 0x20 SWAP4 SWAP1 SWAP4 ADD CALLDATALOAD SWAP4 POP POP POP JUMP JUMPDEST PUSH1 0x0 DUP1 PUSH1 0x0 PUSH1 0x60 DUP5 DUP7 SUB SLT ISZERO PUSH2 0x3007 JUMPI PUSH1 0x0 DUP1 REVERT JUMPDEST DUP4 CALLDATALOAD PUSH2 0x3012 DUP2 PUSH2 0x2EDC JUMP JUMPDEST SWAP3 POP PUSH1 0x20 DUP5 ADD CALLDATALOAD PUSH2 0x3022 DUP2 PUSH2 0x2EDC JUMP JUMPDEST SWAP3 SWAP6 SWAP3 SWAP5 POP POP POP PUSH1 0x40 SWAP2 SWAP1 SWAP2 ADD CALLDATALOAD SWAP1 JUMP JUMPDEST PUSH1 0x0 DUP1 PUSH1 0x40 DUP4 DUP6 SUB SLT ISZERO PUSH2 0x3046 JUMPI PUSH1 0x0 DUP1 REVERT JUMPDEST POP POP DUP1 CALLDATALOAD SWAP3 PUSH1 0x20 SWAP1 SWAP2 ADD CALLDATALOAD SWAP2 POP JUMP JUMPDEST PUSH1 0x0 DUP1 PUSH1 0x40 DUP4 DUP6 SUB SLT ISZERO PUSH2 0x3068 JUMPI PUSH1 0x0 DUP1 REVERT JUMPDEST DUP3 CALLDATALOAD SWAP2 POP PUSH1 0x20 DUP4 ADD CALLDATALOAD PUSH2 0x2F2B DUP2 PUSH2 0x2EDC JUMP JUMPDEST PUSH4 0x4E487B71 PUSH1 0xE0 SHL PUSH1 0x0 MSTORE PUSH1 0x41 PUSH1 0x4 MSTORE PUSH1 0x24 PUSH1 0x0 REVERT JUMPDEST PUSH1 0x0 DUP3 PUSH1 0x1F DUP4 ADD SLT PUSH2 0x30A1 JUMPI PUSH1 0x0 DUP1 REVERT JUMPDEST DUP2 CALLDATALOAD PUSH1 0x1 PUSH1 0x1 PUSH1 0x40 SHL SUB DUP1 DUP3 GT ISZERO PUSH2 0x30BB JUMPI PUSH2 0x30BB PUSH2 0x307A JUMP JUMPDEST PUSH1 0x40 MLOAD PUSH1 0x1F DUP4 ADD PUSH1 0x1F NOT SWAP1 DUP2 AND PUSH1 0x3F ADD AND DUP2 ADD SWAP1 DUP3 DUP3 GT DUP2 DUP4 LT OR ISZERO PUSH2 0x30E3 JUMPI PUSH2 0x30E3 PUSH2 0x307A JUMP JUMPDEST DUP2 PUSH1 0x40 MSTORE DUP4 DUP2 MSTORE DUP7 PUSH1 0x20 DUP6 DUP9 ADD ADD GT ISZERO PUSH2 0x30FC JUMPI PUSH1 0x0 DUP1 REVERT JUMPDEST DUP4 PUSH1 0x20 DUP8 ADD PUSH1 0x20 DUP4 ADD CALLDATACOPY PUSH1 0x0 PUSH1 0x20 DUP6 DUP4 ADD ADD MSTORE DUP1 SWAP5 POP POP POP POP POP SWAP3 SWAP2 POP POP JUMP JUMPDEST PUSH1 0x0 DUP1 PUSH1 0x40 DUP4 DUP6 SUB SLT ISZERO PUSH2 0x312F JUMPI PUSH1 0x0 DUP1 REVERT JUMPDEST DUP3 CALLDATALOAD PUSH1 0x1 PUSH1 0x1 PUSH1 0x40 SHL SUB DUP1 DUP3 GT ISZERO PUSH2 0x3146 JUMPI PUSH1 0x0 DUP1 REVERT JUMPDEST PUSH2 0x3152 DUP7 DUP4 DUP8 ADD PUSH2 0x3090 JUMP JUMPDEST SWAP4 POP PUSH1 0x20 DUP6 ADD CALLDATALOAD SWAP2 POP DUP1 DUP3 GT ISZERO PUSH2 0x3168 JUMPI PUSH1 0x0 DUP1 REVERT JUMPDEST POP PUSH2 0x3175 DUP6 DUP3 DUP7 ADD PUSH2 0x3090 JUMP JUMPDEST SWAP2 POP POP SWAP3 POP SWAP3 SWAP1 POP JUMP JUMPDEST PUSH1 0x0 DUP1 PUSH1 0x40 DUP4 DUP6 SUB SLT ISZERO PUSH2 0x3192 JUMPI PUSH1 0x0 DUP1 REVERT JUMPDEST DUP3 CALLDATALOAD PUSH2 0x319D DUP2 PUSH2 0x2EDC JUMP JUMPDEST SWAP2 POP PUSH1 0x20 DUP4 ADD CALLDATALOAD PUSH1 0x1 PUSH1 0x1 PUSH1 0x40 SHL SUB DUP2 GT ISZERO PUSH2 0x31B8 JUMPI PUSH1 0x0 DUP1 REVERT JUMPDEST PUSH2 0x3175 DUP6 DUP3 DUP7 ADD PUSH2 0x3090 JUMP JUMPDEST PUSH1 0x0 PUSH1 0x20 DUP3 DUP5 SUB SLT ISZERO PUSH2 0x31D6 JUMPI PUSH1 0x0 DUP1 REVERT JUMPDEST DUP2 CALLDATALOAD PUSH2 0x15F1 DUP2 PUSH2 0x2EDC JUMP JUMPDEST PUSH1 0x0 DUP1 DUP4 PUSH1 0x1F DUP5 ADD SLT PUSH2 0x31F3 JUMPI PUSH1 0x0 DUP1 REVERT JUMPDEST POP DUP2 CALLDATALOAD PUSH1 0x1 PUSH1 0x1 PUSH1 0x40 SHL SUB DUP2 GT ISZERO PUSH2 0x320A JUMPI PUSH1 0x0 DUP1 REVERT JUMPDEST PUSH1 0x20 DUP4 ADD SWAP2 POP DUP4 PUSH1 0x20 DUP3 DUP6 ADD ADD GT ISZERO PUSH2 0xD0A JUMPI PUSH1 0x0 DUP1 REVERT JUMPDEST PUSH1 0x0 DUP1 PUSH1 0x0 PUSH1 0x40 DUP5 DUP7 SUB SLT ISZERO PUSH2 0x3237 JUMPI PUSH1 0x0 DUP1 REVERT JUMPDEST DUP4 CALLDATALOAD SWAP3 POP PUSH1 0x20 DUP5 ADD CALLDATALOAD PUSH1 0x1 PUSH1 0x1 PUSH1 0x40 SHL SUB DUP2 GT ISZERO PUSH2 0x3254 JUMPI PUSH1 0x0 DUP1 REVERT JUMPDEST PUSH2 0x3260 DUP7 DUP3 DUP8 ADD PUSH2 0x31E1 JUMP JUMPDEST SWAP5 SWAP8 SWAP1 SWAP7 POP SWAP4 SWAP5 POP POP POP POP JUMP JUMPDEST PUSH1 0x0 DUP1 PUSH1 0x20 DUP4 DUP6 SUB SLT ISZERO PUSH2 0x3280 JUMPI PUSH1 0x0 DUP1 REVERT JUMPDEST DUP3 CALLDATALOAD PUSH1 0x1 PUSH1 0x1 PUSH1 0x40 SHL SUB DUP2 GT ISZERO PUSH2 0x3296 JUMPI PUSH1 0x0 DUP1 REVERT JUMPDEST PUSH2 0x32A2 DUP6 DUP3 DUP7 ADD PUSH2 0x31E1 JUMP JUMPDEST SWAP1 SWAP7 SWAP1 SWAP6 POP SWAP4 POP POP POP POP JUMP JUMPDEST PUSH1 0x0 DUP1 PUSH1 0x20 DUP4 DUP6 SUB SLT ISZERO PUSH2 0x32C1 JUMPI PUSH1 0x0 DUP1 REVERT JUMPDEST DUP3 CALLDATALOAD PUSH1 0x1 PUSH1 0x1 PUSH1 0x40 SHL SUB DUP1 DUP3 GT ISZERO PUSH2 0x32D8 JUMPI PUSH1 0x0 DUP1 REVERT JUMPDEST DUP2 DUP6 ADD SWAP2 POP DUP6 PUSH1 0x1F DUP4 ADD SLT PUSH2 0x32EC JUMPI PUSH1 0x0 DUP1 REVERT JUMPDEST DUP2 CALLDATALOAD DUP2 DUP2 GT ISZERO PUSH2 0x32FB JUMPI PUSH1 0x0 DUP1 REVERT JUMPDEST DUP7 PUSH1 0x20 DUP3 PUSH1 0x5 SHL DUP6 ADD ADD GT ISZERO PUSH2 0x3310 JUMPI PUSH1 0x0 DUP1 REVERT JUMPDEST PUSH1 0x20 SWAP3 SWAP1 SWAP3 ADD SWAP7 SWAP2 SWAP6 POP SWAP1 SWAP4 POP POP POP POP JUMP JUMPDEST DUP1 MLOAD PUSH1 0x1 PUSH1 0x1 PUSH1 0xA0 SHL SUB AND DUP3 MSTORE PUSH1 0x20 DUP1 DUP3 ADD MLOAD PUSH1 0x1 PUSH1 0x1 PUSH1 0x40 SHL SUB AND SWAP1 DUP4 ADD MSTORE PUSH1 0x40 DUP1 DUP3 ADD MLOAD ISZERO ISZERO SWAP1 DUP4 ADD MSTORE PUSH1 0x60 SWAP1 DUP2 ADD MLOAD PUSH3 0xFFFFFF AND SWAP2 ADD MSTORE JUMP JUMPDEST PUSH1 0x20 DUP1 DUP3 MSTORE DUP3 MLOAD DUP3 DUP3 ADD DUP2 SWAP1 MSTORE PUSH1 0x0 SWAP2 SWAP1 DUP5 DUP3 ADD SWAP1 PUSH1 0x40 DUP6 ADD SWAP1 DUP5 JUMPDEST DUP2 DUP2 LT ISZERO PUSH2 0x33A0 JUMPI PUSH2 0x338D DUP4 DUP6 MLOAD PUSH2 0x3322 JUMP JUMPDEST SWAP3 DUP5 ADD SWAP3 PUSH1 0x80 SWAP3 SWAP1 SWAP3 ADD SWAP2 PUSH1 0x1 ADD PUSH2 0x337A JUMP JUMPDEST POP SWAP1 SWAP7 SWAP6 POP POP POP POP POP POP JUMP JUMPDEST PUSH1 0x20 DUP1 DUP3 MSTORE DUP3 MLOAD DUP3 DUP3 ADD DUP2 SWAP1 MSTORE PUSH1 0x0 SWAP2 SWAP1 DUP5 DUP3 ADD SWAP1 PUSH1 0x40 DUP6 ADD SWAP1 DUP5 JUMPDEST DUP2 DUP2 LT ISZERO PUSH2 0x33A0 JUMPI DUP4 MLOAD DUP4 MSTORE SWAP3 DUP5 ADD SWAP3 SWAP2 DUP5 ADD SWAP2 PUSH1 0x1 ADD PUSH2 0x33C8 JUMP JUMPDEST PUSH1 0x0 DUP1 PUSH1 0x0 PUSH1 0x60 DUP5 DUP7 SUB SLT ISZERO PUSH2 0x33F9 JUMPI PUSH1 0x0 DUP1 REVERT JUMPDEST DUP4 CALLDATALOAD PUSH2 0x3404 DUP2 PUSH2 0x2EDC JUMP JUMPDEST SWAP6 PUSH1 0x20 DUP6 ADD CALLDATALOAD SWAP6 POP PUSH1 0x40 SWAP1 SWAP5 ADD CALLDATALOAD SWAP4 SWAP3 POP POP POP JUMP JUMPDEST PUSH1 0x0 DUP1 PUSH1 0x40 DUP4 DUP6 SUB SLT ISZERO PUSH2 0x342C JUMPI PUSH1 0x0 DUP1 REVERT JUMPDEST DUP3 CALLDATALOAD PUSH2 0x3437 DUP2 PUSH2 0x2EDC JUMP JUMPDEST SWAP2 POP PUSH1 0x20 DUP4 ADD CALLDATALOAD DUP1 ISZERO ISZERO DUP2 EQ PUSH2 0x2F2B JUMPI PUSH1 0x0 DUP1 REVERT JUMPDEST PUSH1 0x0 DUP1 PUSH1 0x0 DUP1 PUSH1 0x80 DUP6 DUP8 SUB SLT ISZERO PUSH2 0x3462 JUMPI PUSH1 0x0 DUP1 REVERT JUMPDEST DUP5 CALLDATALOAD PUSH2 0x346D DUP2 PUSH2 0x2EDC JUMP JUMPDEST SWAP4 POP PUSH1 0x20 DUP6 ADD CALLDATALOAD PUSH2 0x347D DUP2 PUSH2 0x2EDC JUMP JUMPDEST SWAP3 POP PUSH1 0x40 DUP6 ADD CALLDATALOAD SWAP2 POP PUSH1 0x60 DUP6 ADD CALLDATALOAD PUSH1 0x1 PUSH1 0x1 PUSH1 0x40 SHL SUB DUP2 GT ISZERO PUSH2 0x349F JUMPI PUSH1 0x0 DUP1 REVERT JUMPDEST PUSH2 0x34AB DUP8 DUP3 DUP9 ADD PUSH2 0x3090 JUMP JUMPDEST SWAP2 POP POP SWAP3 SWAP6 SWAP2 SWAP5 POP SWAP3 POP JUMP JUMPDEST PUSH1 0x0 DUP1 PUSH1 0x40 DUP4 DUP6 SUB SLT ISZERO PUSH2 0x34CA JUMPI PUSH1 0x0 DUP1 REVERT JUMPDEST DUP3 CALLDATALOAD SWAP2 POP PUSH1 0x20 DUP4 ADD CALLDATALOAD PUSH1 0x1 PUSH1 0x1 PUSH1 0x40 SHL SUB DUP2 GT ISZERO PUSH2 0x34E7 JUMPI PUSH1 0x0 DUP1 REVERT JUMPDEST DUP4 ADD PUSH1 0xC0 DUP2 DUP7 SUB SLT ISZERO PUSH2 0x2F2B JUMPI PUSH1 0x0 DUP1 REVERT JUMPDEST PUSH1 0x80 DUP2 ADD PUSH2 0x8DA DUP3 DUP5 PUSH2 0x3322 JUMP JUMPDEST PUSH1 0x20 DUP2 MSTORE PUSH1 0x0 DUP3 MLOAD PUSH1 0xC0 PUSH1 0x20 DUP5 ADD MSTORE PUSH2 0x3523 PUSH1 0xE0 DUP5 ADD DUP3 PUSH2 0x2F5A JUMP JUMPDEST SWAP1 POP PUSH1 0x20 DUP5 ADD MLOAD PUSH1 0x1F NOT DUP1 DUP6 DUP5 SUB ADD PUSH1 0x40 DUP7 ADD MSTORE PUSH2 0x3541 DUP4 DUP4 PUSH2 0x2F5A JUMP JUMPDEST SWAP3 POP PUSH1 0x40 DUP7 ADD MLOAD SWAP2 POP DUP1 DUP6 DUP5 SUB ADD PUSH1 0x60 DUP7 ADD MSTORE POP PUSH2 0x355F DUP3 DUP3 PUSH2 0x2F5A JUMP JUMPDEST SWAP2 POP POP PUSH1 0x60 DUP5 ADD MLOAD PUSH1 0x80 DUP5 ADD MSTORE PUSH1 0x80 DUP5 ADD MLOAD PUSH1 0xA0 DUP5 ADD MSTORE PUSH1 0xA0 DUP5 ADD MLOAD PUSH1 0xC0 DUP5 ADD MSTORE DUP1 SWAP2 POP POP SWAP3 SWAP2 POP POP JUMP JUMPDEST PUSH1 0x0 DUP1 PUSH1 0x40 DUP4 DUP6 SUB SLT ISZERO PUSH2 0x359D JUMPI PUSH1 0x0 DUP1 REVERT JUMPDEST DUP3 CALLDATALOAD PUSH2 0x35A8 DUP2 PUSH2 0x2EDC JUMP JUMPDEST SWAP2 POP PUSH1 0x20 DUP4 ADD CALLDATALOAD PUSH2 0x2F2B DUP2 PUSH2 0x2EDC JUMP JUMPDEST PUSH1 0x1 DUP2 DUP2 SHR SWAP1 DUP3 AND DUP1 PUSH2 0x35CC JUMPI PUSH1 0x7F DUP3 AND SWAP2 POP JUMPDEST PUSH1 0x20 DUP3 LT DUP2 SUB PUSH2 0x35EC JUMPI PUSH4 0x4E487B71 PUSH1 0xE0 SHL PUSH1 0x0 MSTORE PUSH1 0x22 PUSH1 0x4 MSTORE PUSH1 0x24 PUSH1 0x0 REVERT JUMPDEST POP SWAP2 SWAP1 POP JUMP JUMPDEST PUSH4 0x4E487B71 PUSH1 0xE0 SHL PUSH1 0x0 MSTORE PUSH1 0x11 PUSH1 0x4 MSTORE PUSH1 0x24 PUSH1 0x0 REVERT JUMPDEST DUP1 DUP3 MUL DUP2 ISZERO DUP3 DUP3 DIV DUP5 EQ OR PUSH2 0x8DA JUMPI PUSH2 0x8DA PUSH2 0x35F2 JUMP JUMPDEST PUSH1 0x0 DUP3 PUSH2 0x363C JUMPI PUSH4 0x4E487B71 PUSH1 0xE0 SHL PUSH1 0x0 MSTORE PUSH1 0x12 PUSH1 0x4 MSTORE PUSH1 0x24 PUSH1 0x0 REVERT JUMPDEST POP DIV SWAP1 JUMP JUMPDEST DUP1 DUP3 ADD DUP1 DUP3 GT ISZERO PUSH2 0x8DA JUMPI PUSH2 0x8DA PUSH2 0x35F2 JUMP JUMPDEST PUSH1 0x1F DUP3 GT ISZERO PUSH2 0x929 JUMPI PUSH1 0x0 DUP2 PUSH1 0x0 MSTORE PUSH1 0x20 PUSH1 0x0 KECCAK256 PUSH1 0x1F DUP6 ADD PUSH1 0x5 SHR DUP2 ADD PUSH1 0x20 DUP7 LT ISZERO PUSH2 0x367D JUMPI POP DUP1 JUMPDEST PUSH1 0x1F DUP6 ADD PUSH1 0x5 SHR DUP3 ADD SWAP2 POP JUMPDEST DUP2 DUP2 LT ISZERO PUSH2 0x369C JUMPI DUP3 DUP2 SSTORE PUSH1 0x1 ADD PUSH2 0x3689 JUMP JUMPDEST POP POP POP POP POP POP JUMP JUMPDEST PUSH1 0x0 NOT PUSH1 0x3 DUP4 SWAP1 SHL SHR NOT AND PUSH1 0x1 SWAP2 SWAP1 SWAP2 SHL OR SWAP1 JUMP JUMPDEST PUSH1 0x1 PUSH1 0x1 PUSH1 0x40 SHL SUB DUP4 GT ISZERO PUSH2 0x36D0 JUMPI PUSH2 0x36D0 PUSH2 0x307A JUMP JUMPDEST PUSH2 0x36E4 DUP4 PUSH2 0x36DE DUP4 SLOAD PUSH2 0x35B8 JUMP JUMPDEST DUP4 PUSH2 0x3654 JUMP JUMPDEST PUSH1 0x0 PUSH1 0x1F DUP5 GT PUSH1 0x1 DUP2 EQ PUSH2 0x3712 JUMPI PUSH1 0x0 DUP6 ISZERO PUSH2 0x3700 JUMPI POP DUP4 DUP3 ADD CALLDATALOAD JUMPDEST PUSH2 0x370A DUP7 DUP3 PUSH2 0x36A4 JUMP JUMPDEST DUP5 SSTORE POP PUSH2 0x2986 JUMP JUMPDEST PUSH1 0x0 DUP4 DUP2 MSTORE PUSH1 0x20 SWAP1 KECCAK256 PUSH1 0x1F NOT DUP7 AND SWAP1 DUP4 JUMPDEST DUP3 DUP2 LT ISZERO PUSH2 0x3743 JUMPI DUP7 DUP6 ADD CALLDATALOAD DUP3 SSTORE PUSH1 0x20 SWAP5 DUP6 ADD SWAP5 PUSH1 0x1 SWAP1 SWAP3 ADD SWAP2 ADD PUSH2 0x3723 JUMP JUMPDEST POP DUP7 DUP3 LT ISZERO PUSH2 0x3760 JUMPI PUSH1 0x0 NOT PUSH1 0xF8 DUP9 PUSH1 0x3 SHL AND SHR NOT DUP5 DUP8 ADD CALLDATALOAD AND DUP2 SSTORE JUMPDEST POP POP PUSH1 0x1 DUP6 PUSH1 0x1 SHL ADD DUP4 SSTORE POP POP POP POP POP JUMP JUMPDEST DUP2 DUP4 MSTORE DUP2 DUP2 PUSH1 0x20 DUP6 ADD CALLDATACOPY POP PUSH1 0x0 DUP3 DUP3 ADD PUSH1 0x20 SWAP1 DUP2 ADD SWAP2 SWAP1 SWAP2 MSTORE PUSH1 0x1F SWAP1 SWAP2 ADD PUSH1 0x1F NOT AND SWAP1 SWAP2 ADD ADD SWAP1 JUMP JUMPDEST PUSH1 0x20 DUP2 MSTORE PUSH1 0x0 PUSH2 0x15EE PUSH1 0x20 DUP4 ADD DUP5 DUP7 PUSH2 0x3772 JUMP JUMPDEST PUSH1 0x0 DUP1 DUP4 CALLDATALOAD PUSH1 0x1E NOT DUP5 CALLDATASIZE SUB ADD DUP2 SLT PUSH2 0x37C6 JUMPI PUSH1 0x0 DUP1 REVERT JUMPDEST DUP4 ADD DUP1 CALLDATALOAD SWAP2 POP PUSH1 0x1 PUSH1 0x1 PUSH1 0x40 SHL SUB DUP3 GT ISZERO PUSH2 0x37E0 JUMPI PUSH1 0x0 DUP1 REVERT JUMPDEST PUSH1 0x20 ADD SWAP2 POP CALLDATASIZE DUP2 SWAP1 SUB DUP3 SGT ISZERO PUSH2 0xD0A JUMPI PUSH1 0x0 DUP1 REVERT JUMPDEST PUSH2 0x37FF DUP3 DUP4 PUSH2 0x37AF JUMP JUMPDEST PUSH1 0x1 PUSH1 0x1 PUSH1 0x40 SHL SUB DUP2 GT ISZERO PUSH2 0x3816 JUMPI PUSH2 0x3816 PUSH2 0x307A JUMP JUMPDEST PUSH2 0x382A DUP2 PUSH2 0x3824 DUP6 SLOAD PUSH2 0x35B8 JUMP JUMPDEST DUP6 PUSH2 0x3654 JUMP JUMPDEST PUSH1 0x0 PUSH1 0x1F DUP3 GT PUSH1 0x1 DUP2 EQ PUSH2 0x3858 JUMPI PUSH1 0x0 DUP4 ISZERO PUSH2 0x3846 JUMPI POP DUP4 DUP3 ADD CALLDATALOAD JUMPDEST PUSH2 0x3850 DUP5 DUP3 PUSH2 0x36A4 JUMP JUMPDEST DUP7 SSTORE POP PUSH2 0x38B2 JUMP JUMPDEST PUSH1 0x0 DUP6 DUP2 MSTORE PUSH1 0x20 SWAP1 KECCAK256 PUSH1 0x1F NOT DUP5 AND SWAP1 DUP4 JUMPDEST DUP3 DUP2 LT ISZERO PUSH2 0x3889 JUMPI DUP7 DUP6 ADD CALLDATALOAD DUP3 SSTORE PUSH1 0x20 SWAP5 DUP6 ADD SWAP5 PUSH1 0x1 SWAP1 SWAP3 ADD SWAP2 ADD PUSH2 0x3869 JUMP JUMPDEST POP DUP5 DUP3 LT ISZERO PUSH2 0x38A6 JUMPI PUSH1 0x0 NOT PUSH1 0xF8 DUP7 PUSH1 0x3 SHL AND SHR NOT DUP5 DUP8 ADD CALLDATALOAD AND DUP2 SSTORE JUMPDEST POP POP PUSH1 0x1 DUP4 PUSH1 0x1 SHL ADD DUP6 SSTORE JUMPDEST POP POP POP POP PUSH2 0x38C3 PUSH1 0x20 DUP4 ADD DUP4 PUSH2 0x37AF JUMP JUMPDEST PUSH2 0x38D1 DUP2 DUP4 PUSH1 0x1 DUP7 ADD PUSH2 0x36B9 JUMP JUMPDEST POP POP PUSH2 0x38E0 PUSH1 0x40 DUP4 ADD DUP4 PUSH2 0x37AF JUMP JUMPDEST PUSH2 0x38EE DUP2 DUP4 PUSH1 0x2 DUP7 ADD PUSH2 0x36B9 JUMP JUMPDEST POP POP PUSH1 0x60 DUP3 ADD CALLDATALOAD PUSH1 0x3 DUP3 ADD SSTORE PUSH1 0x80 DUP3 ADD CALLDATALOAD PUSH1 0x4 DUP3 ADD SSTORE PUSH1 0xA0 DUP3 ADD CALLDATALOAD PUSH1 0x5 DUP3 ADD SSTORE POP POP JUMP JUMPDEST PUSH1 0x0 DUP1 DUP4 CALLDATALOAD PUSH1 0x1E NOT DUP5 CALLDATASIZE SUB ADD DUP2 SLT PUSH2 0x3929 JUMPI PUSH1 0x0 DUP1 REVERT JUMPDEST DUP4 ADD PUSH1 0x20 DUP2 ADD SWAP3 POP CALLDATALOAD SWAP1 POP PUSH1 0x1 PUSH1 0x1 PUSH1 0x40 SHL SUB DUP2 GT ISZERO PUSH2 0x3948 JUMPI PUSH1 0x0 DUP1 REVERT JUMPDEST DUP1 CALLDATASIZE SUB DUP3 SGT ISZERO PUSH2 0xD0A JUMPI PUSH1 0x0 DUP1 REVERT JUMPDEST PUSH1 0x20 DUP2 MSTORE PUSH1 0x0 PUSH2 0x3967 DUP4 DUP5 PUSH2 0x3912 JUMP JUMPDEST PUSH1 0xC0 PUSH1 0x20 DUP6 ADD MSTORE PUSH2 0x397C PUSH1 0xE0 DUP6 ADD DUP3 DUP5 PUSH2 0x3772 JUMP JUMPDEST SWAP2 POP POP PUSH2 0x398C PUSH1 0x20 DUP6 ADD DUP6 PUSH2 0x3912 JUMP JUMPDEST PUSH1 0x1F NOT DUP1 DUP7 DUP6 SUB ADD PUSH1 0x40 DUP8 ADD MSTORE PUSH2 0x39A4 DUP5 DUP4 DUP6 PUSH2 0x3772 JUMP JUMPDEST SWAP4 POP PUSH2 0x39B3 PUSH1 0x40 DUP9 ADD DUP9 PUSH2 0x3912 JUMP JUMPDEST SWAP4 POP SWAP2 POP DUP1 DUP7 DUP6 SUB ADD PUSH1 0x60 DUP8 ADD MSTORE POP PUSH2 0x39CD DUP4 DUP4 DUP4 PUSH2 0x3772 JUMP JUMPDEST SWAP3 POP POP POP PUSH1 0x60 DUP5 ADD CALLDATALOAD PUSH1 0x80 DUP5 ADD MSTORE PUSH1 0x80 DUP5 ADD CALLDATALOAD PUSH1 0xA0 DUP5 ADD MSTORE PUSH1 0xA0 DUP5 ADD CALLDATALOAD PUSH1 0xC0 DUP5 ADD MSTORE DUP1 SWAP2 POP POP SWAP3 SWAP2 POP POP JUMP JUMPDEST PUSH1 0x0 DUP1 DUP5 SLOAD PUSH2 0x3A07 DUP2 PUSH2 0x35B8 JUMP JUMPDEST PUSH1 0x1 DUP3 DUP2 AND DUP1 ISZERO PUSH2 0x3A1F JUMPI PUSH1 0x1 DUP2 EQ PUSH2 0x3A34 JUMPI PUSH2 0x3A63 JUMP JUMPDEST PUSH1 0xFF NOT DUP5 AND DUP8 MSTORE DUP3 ISZERO ISZERO DUP4 MUL DUP8 ADD SWAP5 POP PUSH2 0x3A63 JUMP JUMPDEST DUP9 PUSH1 0x0 MSTORE PUSH1 0x20 DUP1 PUSH1 0x0 KECCAK256 PUSH1 0x0 JUMPDEST DUP6 DUP2 LT ISZERO PUSH2 0x3A5A JUMPI DUP2 SLOAD DUP11 DUP3 ADD MSTORE SWAP1 DUP5 ADD SWAP1 DUP3 ADD PUSH2 0x3A41 JUMP JUMPDEST POP POP POP DUP3 DUP8 ADD SWAP5 POP JUMPDEST POP POP POP POP DUP4 MLOAD PUSH2 0x3A77 DUP2 DUP4 PUSH1 0x20 DUP9 ADD PUSH2 0x2F36 JUMP JUMPDEST PUSH5 0x173539B7B7 PUSH1 0xD9 SHL SWAP2 ADD SWAP1 DUP2 MSTORE PUSH1 0x5 ADD SWAP5 SWAP4 POP POP POP POP JUMP JUMPDEST PUSH1 0x0 DUP2 PUSH2 0x3A9F JUMPI PUSH2 0x3A9F PUSH2 0x35F2 JUMP JUMPDEST POP PUSH1 0x0 NOT ADD SWAP1 JUMP JUMPDEST PUSH1 0x20 DUP1 DUP3 MSTORE PUSH1 0x34 SWAP1 DUP3 ADD MSTORE PUSH32 0x455243373231415F5F496E697469616C697A61626C653A20636F6E7472616374 PUSH1 0x40 DUP3 ADD MSTORE PUSH20 0x206973206E6F7420696E697469616C697A696E67 PUSH1 0x60 SHL PUSH1 0x60 DUP3 ADD MSTORE PUSH1 0x80 ADD SWAP1 JUMP JUMPDEST PUSH1 0x0 PUSH1 0x20 DUP3 DUP5 SUB SLT ISZERO PUSH2 0x3B0D JUMPI PUSH1 0x0 DUP1 REVERT JUMPDEST POP MLOAD SWAP2 SWAP1 POP JUMP JUMPDEST PUSH1 0x1 PUSH1 0x1 PUSH1 0xA0 SHL SUB DUP6 DUP2 AND DUP3 MSTORE DUP5 AND PUSH1 0x20 DUP3 ADD MSTORE PUSH1 0x40 DUP2 ADD DUP4 SWAP1 MSTORE PUSH1 0x80 PUSH1 0x60 DUP3 ADD DUP2 SWAP1 MSTORE PUSH1 0x0 SWAP1 PUSH2 0x3B47 SWAP1 DUP4 ADD DUP5 PUSH2 0x2F5A JUMP JUMPDEST SWAP7 SWAP6 POP POP POP POP POP POP JUMP JUMPDEST PUSH1 0x0 PUSH1 0x20 DUP3 DUP5 SUB SLT ISZERO PUSH2 0x3B63 JUMPI PUSH1 0x0 DUP1 REVERT JUMPDEST DUP2 MLOAD PUSH2 0x15F1 DUP2 PUSH2 0x2EA9 JUMP JUMPDEST DUP2 MLOAD PUSH1 0x1 PUSH1 0x1 PUSH1 0x40 SHL SUB DUP2 GT ISZERO PUSH2 0x3B87 JUMPI PUSH2 0x3B87 PUSH2 0x307A JUMP JUMPDEST PUSH2 0x3B9B DUP2 PUSH2 0x3B95 DUP5 SLOAD PUSH2 0x35B8 JUMP JUMPDEST DUP5 PUSH2 0x3654 JUMP JUMPDEST PUSH1 0x20 DUP1 PUSH1 0x1F DUP4 GT PUSH1 0x1 DUP2 EQ PUSH2 0x3BCA JUMPI PUSH1 0x0 DUP5 ISZERO PUSH2 0x3BB8 JUMPI POP DUP6 DUP4 ADD MLOAD JUMPDEST PUSH2 0x3BC2 DUP6 DUP3 PUSH2 0x36A4 JUMP JUMPDEST DUP7 SSTORE POP PUSH2 0x369C JUMP JUMPDEST PUSH1 0x0 DUP6 DUP2 MSTORE PUSH1 0x20 DUP2 KECCAK256 PUSH1 0x1F NOT DUP7 AND SWAP2 JUMPDEST DUP3 DUP2 LT ISZERO PUSH2 0x3BF9 JUMPI DUP9 DUP7 ADD MLOAD DUP3 SSTORE SWAP5 DUP5 ADD SWAP5 PUSH1 0x1 SWAP1 SWAP2 ADD SWAP1 DUP5 ADD PUSH2 0x3BDA JUMP JUMPDEST POP DUP6 DUP3 LT ISZERO PUSH2 0x3C17 JUMPI DUP8 DUP6 ADD MLOAD PUSH1 0x0 NOT PUSH1 0x3 DUP9 SWAP1 SHL PUSH1 0xF8 AND SHR NOT AND DUP2 SSTORE JUMPDEST POP POP POP POP POP PUSH1 0x1 SWAP1 DUP2 SHL ADD SWAP1 SSTORE POP JUMP JUMPDEST PUSH1 0x0 DUP3 MLOAD PUSH2 0x3C39 DUP2 DUP5 PUSH1 0x20 DUP8 ADD PUSH2 0x2F36 JUMP JUMPDEST SWAP2 SWAP1 SWAP2 ADD SWAP3 SWAP2 POP POP JUMP INVALID 0x4B 0xA6 DUP14 CODECOPY TIMESTAMP SWAP7 0xE9 BLOBBASEFEE 0xB6 MSTORE RETURNDATASIZE PUSH27 0xA99D008A89D73B64505B067E0770522FF96E2330360894A13BA1A3 0x21 MOD PUSH8 0xC828492DB98DCA3E KECCAK256 PUSH23 0xCC3735A920A3CA505D382BBCA49807205CE4D355092EF5 0xA8 LOG1 DUP16 JUMP 0xE8 SWAP2 EXTCODECOPY DELEGATECALL LOG2 ADD 0xFB 0xE2 DUP8 DUP3 JUMPDEST MULMOD JUMP SWAP4 0xC2 OR PUSH22 0xA26469706673582212209D682FC6DE6BEFDF78926978 OR 0xAF LOG1 CALLCODE 0x28 PC 0xD5 PREVRANDAO 0xAA 0xEB DUP16 BALANCE PUSH31 0x8FE24544D050CE64736F6C6343000818003300000000000000000000000000 "},"methodIdentifiers":{"ADMIN_ROLE()":"75b238fc","CRAFTER_ROLE()":"338cab93","DEFAULT_ADMIN_ROLE()":"a217fddf","MAX_SUPPLY()":"32cb6b0c","UPGRADE_INTERFACE_VERSION()":"ad3cb1cc","adminMint(address,uint256)":"e58306f9","approve(address,uint256)":"095ea7b3","balanceOf(address)":"70a08231","explicitOwnershipOf(uint256)":"c23dc68f","explicitOwnershipsOf(uint256[])":"5bbb2177","freezeMetadata(uint256)":"4dcf6ad6","getApproved(uint256)":"081812fc","getRoleAdmin(bytes32)":"248a9ca3","getTraits(uint256)":"e1dc0761","grantRole(bytes32,address)":"2f2ff15d","hasRole(bytes32,address)":"91d14854","initialize(string,string)":"4cd88b76","isApprovedForAll(address,address)":"e985e9c5","maxWalletHoldings()":"b7ea78b5","mintPrice()":"6817c76c","name()":"06fdde03","ownerOf(uint256)":"6352211e","pause()":"8456cb59","paused()":"5c975abb","proxiableUUID()":"52d1902d","publicMint(uint256)":"2db11544","renounceRole(bytes32,address)":"36568abe","revokeRole(bytes32,address)":"d547741f","royaltyInfo(uint256,uint256)":"2a55205a","safeTransferFrom(address,address,uint256)":"42842e0e","safeTransferFrom(address,address,uint256,bytes)":"b88d4fde","setApprovalForAll(address,bool)":"a22cb465","setBaseURI(string)":"55f804b3","setMaxWalletHoldings(uint256)":"99061beb","setMintPrice(uint256)":"f4a0a528","setRoyaltyInfo(address,uint96)":"02fa7c47","supportsInterface(bytes4)":"01ffc9a7","symbol()":"95d89b41","tokenURI(uint256)":"c87b56dd","tokensOfOwner(address)":"8462151c","tokensOfOwnerIn(address,uint256,uint256)":"99a2557a","totalSupply()":"18160ddd","transferFrom(address,address,uint256)":"23b872dd","unpause()":"3f4ba83a","updateMetadata(uint256,string)":"53c8388e","updateTraits(uint256,(string,string,string,uint256,uint256,uint256))":"c1380e29","upgradeToAndCall(address,bytes)":"4f1ef286","withdraw(address)":"51cff8d9"}},"storageLayout":{"storage":[{"astId":7406,"contract":"contracts/CraftedCollection.sol:CraftedCollection","label":"mintPrice","offset":0,"slot":"0","type":"t_uint256"},{"astId":7408,"contract":"contracts/CraftedCollection.sol:CraftedCollection","label":"maxWalletHoldings","offset":0,"slot":"1","type":"t_uint256"},{"astId":7410,"contract":"contracts/CraftedCollection.sol:CraftedCollection","label":"_baseTokenURI","offset":0,"slot":"2","type":"t_string_storage"},{"astId":7428,"contract":"contracts/CraftedCollection.sol:CraftedCollection","label":"tokenTraits","offset":0,"slot":"3","type":"t_mapping(t_uint256,t_struct(Traits)7423_storage)"},{"astId":7432,"contract":"contracts/CraftedCollection.sol:CraftedCollection","label":"_metadataFrozen","offset":0,"slot":"4","type":"t_mapping(t_uint256,t_bool)"}],"types":{"t_bool":{"encoding":"inplace","label":"bool","numberOfBytes":"1"},"t_mapping(t_uint256,t_bool)":{"encoding":"mapping","key":"t_uint256","label":"mapping(uint256 => bool)","numberOfBytes":"32","value":"t_bool"},"t_mapping(t_uint256,t_struct(Traits)7423_storage)":{"encoding":"mapping","key":"t_uint256","label":"mapping(uint256 => struct CraftedCollection.Traits)","numberOfBytes":"32","value":"t_struct(Traits)7423_storage"},"t_string_storage":{"encoding":"bytes","label":"string","numberOfBytes":"32"},"t_struct(Traits)7423_storage":{"encoding":"inplace","label":"struct CraftedCollection.Traits","members":[{"astId":7412,"contract":"contracts/CraftedCollection.sol:CraftedCollection","label":"code","offset":0,"slot":"0","type":"t_string_storage"},{"astId":7414,"contract":"contracts/CraftedCollection.sol:CraftedCollection","label":"artVersion","offset":0,"slot":"1","type":"t_string_storage"},{"astId":7416,"contract":"contracts/CraftedCollection.sol:CraftedCollection","label":"metadataURI","offset":0,"slot":"2","type":"t_string_storage"},{"astId":7418,"contract":"contracts/CraftedCollection.sol:CraftedCollection","label":"level","offset":0,"slot":"3","type":"t_uint256"},{"astId":7420,"contract":"contracts/CraftedCollection.sol:CraftedCollection","label":"power","offset":0,"slot":"4","type":"t_uint256"},{"astId":7422,"contract":"contracts/CraftedCollection.sol:CraftedCollection","label":"rarity","offset":0,"slot":"5","type":"t_uint256"}],"numberOfBytes":"192"},"t_uint256":{"encoding":"inplace","label":"uint256","numberOfBytes":"32"}}}}}}