{
  "_format": "hh-sol-artifact-1",
  "contractName": "ERC721AQueryableStartTokenIdMockUpgradeable",
  "sourceName": "contracts/ERC721A-Upgradeable/contracts/mocks/ERC721AQueryableStartTokenIdMockUpgradeable.sol",
  "abi": [
    {
      "inputs": [],
      "name": "ApprovalCallerNotOwnerNorApproved",
      "type": "error"
    },
    {
      "inputs": [],
      "name": "ApprovalQueryForNonexistentToken",
      "type": "error"
    },
    {
      "inputs": [],
      "name": "BalanceQueryForZeroAddress",
      "type": "error"
    },
    {
      "inputs": [],
      "name": "InvalidQueryRange",
      "type": "error"
    },
    {
      "inputs": [],
      "name": "MintERC2309QuantityExceedsLimit",
      "type": "error"
    },
    {
      "inputs": [],
      "name": "MintToZeroAddress",
      "type": "error"
    },
    {
      "inputs": [],
      "name": "MintZeroQuantity",
      "type": "error"
    },
    {
      "inputs": [],
      "name": "NotCompatibleWithSpotMints",
      "type": "error"
    },
    {
      "inputs": [],
      "name": "OwnerQueryForNonexistentToken",
      "type": "error"
    },
    {
      "inputs": [],
      "name": "OwnershipNotInitializedForExtraData",
      "type": "error"
    },
    {
      "inputs": [],
      "name": "SequentialMintExceedsLimit",
      "type": "error"
    },
    {
      "inputs": [],
      "name": "SequentialUpToTooSmall",
      "type": "error"
    },
    {
      "inputs": [],
      "name": "SpotMintTokenIdTooSmall",
      "type": "error"
    },
    {
      "inputs": [],
      "name": "TokenAlreadyExists",
      "type": "error"
    },
    {
      "inputs": [],
      "name": "TransferCallerNotOwnerNorApproved",
      "type": "error"
    },
    {
      "inputs": [],
      "name": "TransferFromIncorrectOwner",
      "type": "error"
    },
    {
      "inputs": [],
      "name": "TransferToNonERC721ReceiverImplementer",
      "type": "error"
    },
    {
      "inputs": [],
      "name": "TransferToZeroAddress",
      "type": "error"
    },
    {
      "inputs": [],
      "name": "URIQueryForNonexistentToken",
      "type": "error"
    },
    {
      "anonymous": false,
      "inputs": [
        {
          "indexed": true,
          "internalType": "address",
          "name": "owner",
          "type": "address"
        },
        {
          "indexed": true,
          "internalType": "address",
          "name": "approved",
          "type": "address"
        },
        {
          "indexed": true,
          "internalType": "uint256",
          "name": "tokenId",
          "type": "uint256"
        }
      ],
      "name": "Approval",
      "type": "event"
    },
    {
      "anonymous": false,
      "inputs": [
        {
          "indexed": true,
          "internalType": "address",
          "name": "owner",
          "type": "address"
        },
        {
          "indexed": true,
          "internalType": "address",
          "name": "operator",
          "type": "address"
        },
        {
          "indexed": false,
          "internalType": "bool",
          "name": "approved",
          "type": "bool"
        }
      ],
      "name": "ApprovalForAll",
      "type": "event"
    },
    {
      "anonymous": false,
      "inputs": [
        {
          "indexed": true,
          "internalType": "uint256",
          "name": "fromTokenId",
          "type": "uint256"
        },
        {
          "indexed": false,
          "internalType": "uint256",
          "name": "toTokenId",
          "type": "uint256"
        },
        {
          "indexed": true,
          "internalType": "address",
          "name": "from",
          "type": "address"
        },
        {
          "indexed": true,
          "internalType": "address",
          "name": "to",
          "type": "address"
        }
      ],
      "name": "ConsecutiveTransfer",
      "type": "event"
    },
    {
      "anonymous": false,
      "inputs": [
        {
          "indexed": true,
          "internalType": "address",
          "name": "from",
          "type": "address"
        },
        {
          "indexed": true,
          "internalType": "address",
          "name": "to",
          "type": "address"
        },
        {
          "indexed": true,
          "internalType": "uint256",
          "name": "tokenId",
          "type": "uint256"
        }
      ],
      "name": "Transfer",
      "type": "event"
    },
    {
      "inputs": [
        {
          "internalType": "address",
          "name": "to",
          "type": "address"
        },
        {
          "internalType": "uint256",
          "name": "tokenId",
          "type": "uint256"
        }
      ],
      "name": "approve",
      "outputs": [],
      "stateMutability": "payable",
      "type": "function"
    },
    {
      "inputs": [
        {
          "internalType": "address",
          "name": "owner",
          "type": "address"
        }
      ],
      "name": "balanceOf",
      "outputs": [
        {
          "internalType": "uint256",
          "name": "",
          "type": "uint256"
        }
      ],
      "stateMutability": "view",
      "type": "function"
    },
    {
      "inputs": [
        {
          "internalType": "uint256",
          "name": "tokenId",
          "type": "uint256"
        }
      ],
      "name": "burn",
      "outputs": [],
      "stateMutability": "nonpayable",
      "type": "function"
    },
    {
      "inputs": [
        {
          "internalType": "uint256",
          "name": "index",
          "type": "uint256"
        }
      ],
      "name": "directSetBurnBit",
      "outputs": [],
      "stateMutability": "nonpayable",
      "type": "function"
    },
    {
      "inputs": [
        {
          "internalType": "uint256",
          "name": "tokenId",
          "type": "uint256"
        }
      ],
      "name": "explicitOwnershipOf",
      "outputs": [
        {
          "components": [
            {
              "internalType": "address",
              "name": "addr",
              "type": "address"
            },
            {
              "internalType": "uint64",
              "name": "startTimestamp",
              "type": "uint64"
            },
            {
              "internalType": "bool",
              "name": "burned",
              "type": "bool"
            },
            {
              "internalType": "uint24",
              "name": "extraData",
              "type": "uint24"
            }
          ],
          "internalType": "struct IERC721AUpgradeable.TokenOwnership",
          "name": "ownership",
          "type": "tuple"
        }
      ],
      "stateMutability": "view",
      "type": "function"
    },
    {
      "inputs": [
        {
          "internalType": "uint256[]",
          "name": "tokenIds",
          "type": "uint256[]"
        }
      ],
      "name": "explicitOwnershipsOf",
      "outputs": [
        {
          "components": [
            {
              "internalType": "address",
              "name": "addr",
              "type": "address"
            },
            {
              "internalType": "uint64",
              "name": "startTimestamp",
              "type": "uint64"
            },
            {
              "internalType": "bool",
              "name": "burned",
              "type": "bool"
            },
            {
              "internalType": "uint24",
              "name": "extraData",
              "type": "uint24"
            }
          ],
          "internalType": "struct IERC721AUpgradeable.TokenOwnership[]",
          "name": "",
          "type": "tuple[]"
        }
      ],
      "stateMutability": "view",
      "type": "function"
    },
    {
      "inputs": [
        {
          "internalType": "uint256",
          "name": "tokenId",
          "type": "uint256"
        }
      ],
      "name": "getApproved",
      "outputs": [
        {
          "internalType": "address",
          "name": "",
          "type": "address"
        }
      ],
      "stateMutability": "view",
      "type": "function"
    },
    {
      "inputs": [
        {
          "internalType": "address",
          "name": "owner",
          "type": "address"
        },
        {
          "internalType": "address",
          "name": "operator",
          "type": "address"
        }
      ],
      "name": "isApprovedForAll",
      "outputs": [
        {
          "internalType": "bool",
          "name": "",
          "type": "bool"
        }
      ],
      "stateMutability": "view",
      "type": "function"
    },
    {
      "inputs": [],
      "name": "name",
      "outputs": [
        {
          "internalType": "string",
          "name": "",
          "type": "string"
        }
      ],
      "stateMutability": "view",
      "type": "function"
    },
    {
      "inputs": [
        {
          "internalType": "uint256",
          "name": "tokenId",
          "type": "uint256"
        }
      ],
      "name": "ownerOf",
      "outputs": [
        {
          "internalType": "address",
          "name": "",
          "type": "address"
        }
      ],
      "stateMutability": "view",
      "type": "function"
    },
    {
      "inputs": [
        {
          "internalType": "address",
          "name": "to",
          "type": "address"
        },
        {
          "internalType": "uint256",
          "name": "quantity",
          "type": "uint256"
        }
      ],
      "name": "safeMint",
      "outputs": [],
      "stateMutability": "nonpayable",
      "type": "function"
    },
    {
      "inputs": [
        {
          "internalType": "address",
          "name": "from",
          "type": "address"
        },
        {
          "internalType": "address",
          "name": "to",
          "type": "address"
        },
        {
          "internalType": "uint256",
          "name": "tokenId",
          "type": "uint256"
        }
      ],
      "name": "safeTransferFrom",
      "outputs": [],
      "stateMutability": "payable",
      "type": "function"
    },
    {
      "inputs": [
        {
          "internalType": "address",
          "name": "from",
          "type": "address"
        },
        {
          "internalType": "address",
          "name": "to",
          "type": "address"
        },
        {
          "internalType": "uint256",
          "name": "tokenId",
          "type": "uint256"
        },
        {
          "internalType": "bytes",
          "name": "_data",
          "type": "bytes"
        }
      ],
      "name": "safeTransferFrom",
      "outputs": [],
      "stateMutability": "payable",
      "type": "function"
    },
    {
      "inputs": [
        {
          "internalType": "address",
          "name": "operator",
          "type": "address"
        },
        {
          "internalType": "bool",
          "name": "approved",
          "type": "bool"
        }
      ],
      "name": "setApprovalForAll",
      "outputs": [],
      "stateMutability": "nonpayable",
      "type": "function"
    },
    {
      "inputs": [],
      "name": "startTokenId",
      "outputs": [
        {
          "internalType": "uint256",
          "name": "result",
          "type": "uint256"
        }
      ],
      "stateMutability": "view",
      "type": "function"
    },
    {
      "inputs": [
        {
          "internalType": "bytes4",
          "name": "interfaceId",
          "type": "bytes4"
        }
      ],
      "name": "supportsInterface",
      "outputs": [
        {
          "internalType": "bool",
          "name": "",
          "type": "bool"
        }
      ],
      "stateMutability": "view",
      "type": "function"
    },
    {
      "inputs": [],
      "name": "symbol",
      "outputs": [
        {
          "internalType": "string",
          "name": "",
          "type": "string"
        }
      ],
      "stateMutability": "view",
      "type": "function"
    },
    {
      "inputs": [
        {
          "internalType": "uint256",
          "name": "tokenId",
          "type": "uint256"
        }
      ],
      "name": "tokenURI",
      "outputs": [
        {
          "internalType": "string",
          "name": "",
          "type": "string"
        }
      ],
      "stateMutability": "view",
      "type": "function"
    },
    {
      "inputs": [
        {
          "internalType": "address",
          "name": "owner",
          "type": "address"
        }
      ],
      "name": "tokensOfOwner",
      "outputs": [
        {
          "internalType": "uint256[]",
          "name": "",
          "type": "uint256[]"
        }
      ],
      "stateMutability": "view",
      "type": "function"
    },
    {
      "inputs": [
        {
          "internalType": "address",
          "name": "owner",
          "type": "address"
        },
        {
          "internalType": "uint256",
          "name": "start",
          "type": "uint256"
        },
        {
          "internalType": "uint256",
          "name": "stop",
          "type": "uint256"
        }
      ],
      "name": "tokensOfOwnerIn",
      "outputs": [
        {
          "internalType": "uint256[]",
          "name": "",
          "type": "uint256[]"
        }
      ],
      "stateMutability": "view",
      "type": "function"
    },
    {
      "inputs": [],
      "name": "totalSupply",
      "outputs": [
        {
          "internalType": "uint256",
          "name": "result",
          "type": "uint256"
        }
      ],
      "stateMutability": "view",
      "type": "function"
    },
    {
      "inputs": [
        {
          "internalType": "address",
          "name": "from",
          "type": "address"
        },
        {
          "internalType": "address",
          "name": "to",
          "type": "address"
        },
        {
          "internalType": "uint256",
          "name": "tokenId",
          "type": "uint256"
        }
      ],
      "name": "transferFrom",
      "outputs": [],
      "stateMutability": "payable",
      "type": "function"
    }
  ],
  "bytecode": "0x608060405234801561001057600080fd5b50612a70806100206000396000f3fe6080604052600436106101355760003560e01c806370a08231116100ab578063a22cb4651161006f578063a22cb46514610435578063b88d4fde1461045e578063c23dc68f1461047a578063c87b56dd146104b7578063e6798baa146104f4578063e985e9c51461051f57610135565b806370a082311461032a5780638462151c1461036757806395d89b41146103a457806399a2557a146103cf578063a14481941461040c57610135565b806323b872dd116100fd57806323b872dd1461022657806342842e0e1461024257806342966c681461025e5780634b6c5d8c146102875780635bbb2177146102b05780636352211e146102ed57610135565b806301ffc9a71461013a57806306fdde0314610177578063081812fc146101a2578063095ea7b3146101df57806318160ddd146101fb575b600080fd5b34801561014657600080fd5b50610161600480360381019061015c9190611f1c565b61055c565b60405161016e9190611f64565b60405180910390f35b34801561018357600080fd5b5061018c6105ee565b604051610199919061200f565b60405180910390f35b3480156101ae57600080fd5b506101c960048036038101906101c49190612067565b610689565b6040516101d691906120d5565b60405180910390f35b6101f960048036038101906101f4919061211c565b6106f0565b005b34801561020757600080fd5b50610210610700565b60405161021d919061216b565b60405180910390f35b610240600480360381019061023b9190612186565b610768565b005b61025c60048036038101906102579190612186565b610a5f565b005b34801561026a57600080fd5b5061028560048036038101906102809190612067565b610a7f565b005b34801561029357600080fd5b506102ae60048036038101906102a99190612067565b610a8d565b005b3480156102bc57600080fd5b506102d760048036038101906102d2919061223e565b610b06565b6040516102e491906123ee565b60405180910390f35b3480156102f957600080fd5b50610314600480360381019061030f9190612067565b610b66565b60405161032191906120d5565b60405180910390f35b34801561033657600080fd5b50610351600480360381019061034c9190612410565b610b78565b60405161035e919061216b565b60405180910390f35b34801561037357600080fd5b5061038e60048036038101906103899190612410565b610c18565b60405161039b91906124fb565b60405180910390f35b3480156103b057600080fd5b506103b9610c93565b6040516103c6919061200f565b60405180910390f35b3480156103db57600080fd5b506103f660048036038101906103f1919061251d565b610d2e565b60405161040391906124fb565b60405180910390f35b34801561041857600080fd5b50610433600480360381019061042e919061211c565b610d44565b005b34801561044157600080fd5b5061045c6004803603810190610457919061259c565b610d52565b005b6104786004803603810190610473919061270c565b610e66565b005b34801561048657600080fd5b506104a1600480360381019061049c9190612067565b610eb8565b6040516104ae91906127e4565b60405180910390f35b3480156104c357600080fd5b506104de60048036038101906104d99190612067565b610f2d565b6040516104eb919061200f565b60405180910390f35b34801561050057600080fd5b50610509610faa565b604051610516919061216b565b60405180910390f35b34801561052b57600080fd5b50610546600480360381019061054191906127ff565b610fb7565b6040516105539190611f64565b60405180910390f35b60006301ffc9a760e01b827bffffffffffffffffffffffffffffffffffffffffffffffffffffffff191614806105b757506380ac58cd60e01b827bffffffffffffffffffffffffffffffffffffffffffffffffffffffff1916145b806105e75750635b5e139f60e01b827bffffffffffffffffffffffffffffffffffffffffffffffffffffffff1916145b9050919050565b60606105f8611054565b60020180546106069061286e565b80601f01602080910402602001604051908101604052809291908181526020018280546106329061286e565b801561067f5780601f106106545761010080835404028352916020019161067f565b820191906000526020600020905b81548152906001019060200180831161066257829003601f168201915b5050505050905090565b600061069482611081565b6106a9576106a863cf4700e460e01b611148565b5b6106b1611054565b600601600083815260200190815260200160002060000160009054906101000a900473ffffffffffffffffffffffffffffffffffffffff169050919050565b6106fc82826001611152565b5050565b600061070a61128a565b610712611054565b6001015461071e611054565b60000154030390507fffffffffffffffffffffffffffffffffffffffffffffffffffffffffffffffff61074f611299565b146107655761075c611054565b60080154810190505b90565b6000610773826112c1565b905073ffffffffffffffffffffffffffffffffffffffff8473ffffffffffffffffffffffffffffffffffffffff161693508373ffffffffffffffffffffffffffffffffffffffff168173ffffffffffffffffffffffffffffffffffffffff16146107e8576107e763a114810060e01b611148565b5b6000806107f4846113f5565b9150915061080a8187610805611425565b61142d565b6108355761081f8661081a611425565b610fb7565b610834576108336359c896be60e01b611148565b5b5b6108428686866001611471565b801561084d57600082555b610855611054565b60050160008773ffffffffffffffffffffffffffffffffffffffff1673ffffffffffffffffffffffffffffffffffffffff1681526020019081526020016000206000815460019003919050819055506108ac611054565b60050160008673ffffffffffffffffffffffffffffffffffffffff1673ffffffffffffffffffffffffffffffffffffffff168152602001908152602001600020600081546001019190508190555061092d85610909888887611477565b7c02000000000000000000000000000000000000000000000000000000001761149f565b610935611054565b60040160008681526020019081526020016000208190555060007c02000000000000000000000000000000000000000000000000000000008416036109d75760006001850190506000610986611054565b600401600083815260200190815260200160002054036109d5576109a8611054565b6000015481146109d457836109bb611054565b6004016000838152602001908152602001600020819055505b5b505b600073ffffffffffffffffffffffffffffffffffffffff8673ffffffffffffffffffffffffffffffffffffffff161690508481887fddf252ad1be2c89b69c2b068fc378daa952ba7f163c4a11628f55a4df523b3ef600080a460008103610a4957610a4863ea553b3460e01b611148565b5b610a5687878760016114ca565b50505050505050565b610a7a83838360405180602001604052806000815250610e66565b505050565b610a8a8160016114d0565b50565b60007f2569078dfb4b0305704d3008e7403993ae9601b85f7ae5e742de3de8f8011c40905060007c01000000000000000000000000000000000000000000000000000000009050600460205282600052604060002081815417815560048301602052836000526040600020905081815417815550505050565b606080600084849050905060405191508082528060051b90508060208301016040525b60008114610b5b5760006020820391508186013590506000610b4a82610eb8565b905080836020860101525050610b29565b819250505092915050565b6000610b71826112c1565b9050919050565b60008073ffffffffffffffffffffffffffffffffffffffff168273ffffffffffffffffffffffffffffffffffffffff1603610bbe57610bbd638f4eb60460e01b611148565b5b67ffffffffffffffff610bcf611054565b60050160008473ffffffffffffffffffffffffffffffffffffffff1673ffffffffffffffffffffffffffffffffffffffff16815260200190815260200160002054169050919050565b60607fffffffffffffffffffffffffffffffffffffffffffffffffffffffffffffffff610c43611299565b14610c5957610c5863bdba09d760e01b611148565b5b6000610c6361128a565b90506000610c6f611737565b90506060818314610c8857610c8585848461174a565b90505b809350505050919050565b6060610c9d611054565b6003018054610cab9061286e565b80601f0160208091040260200160405190810160405280929190818152602001828054610cd79061286e565b8015610d245780601f10610cf957610100808354040283529160200191610d24565b820191906000526020600020905b815481529060010190602001808311610d0757829003601f168201915b5050505050905090565b6060610d3b84848461174a565b90509392505050565b610d4e8282611906565b5050565b80610d5b611054565b6007016000610d68611425565b73ffffffffffffffffffffffffffffffffffffffff1673ffffffffffffffffffffffffffffffffffffffff16815260200190815260200160002060008473ffffffffffffffffffffffffffffffffffffffff1673ffffffffffffffffffffffffffffffffffffffff16815260200190815260200160002060006101000a81548160ff0219169083151502179055508173ffffffffffffffffffffffffffffffffffffffff16610e15611425565b73ffffffffffffffffffffffffffffffffffffffff167f17307eab39ab6107e8899845ad3d59bd9653f200f220920489ca2b5937696c3183604051610e5a9190611f64565b60405180910390a35050565b610e71848484610768565b60008373ffffffffffffffffffffffffffffffffffffffff163b14610eb257610e9c84848484611924565b610eb157610eb063d1a57ed660e01b611148565b5b5b50505050565b610ec0611e61565b610ec861128a565b8210610f2757610ed6611299565b821115610eed57610ee682611a53565b9050610f28565b610ef5611737565b821015610f26575b610f0682611a87565b610f165781600190039150610efd565b610f1f82611a53565b9050610f28565b5b5b919050565b6060610f3882611081565b610f4d57610f4c63a14c4b5060e01b611148565b5b6000610f57611ab0565b90506000815103610f775760405180602001604052806000815250610fa2565b80610f8184611ac7565b604051602001610f929291906128db565b6040516020818303038152906040525b915050919050565b60006328f7503254905090565b6000610fc1611054565b60070160008473ffffffffffffffffffffffffffffffffffffffff1673ffffffffffffffffffffffffffffffffffffffff16815260200190815260200160002060008373ffffffffffffffffffffffffffffffffffffffff1673ffffffffffffffffffffffffffffffffffffffff16815260200190815260200160002060009054906101000a900460ff16905092915050565b6000807f2569078dfb4b0305704d3008e7403993ae9601b85f7ae5e742de3de8f8011c4090508091505090565b60008161108c61128a565b1161114257611099611299565b8211156110cc576110c56110ab611054565b600401600084815260200190815260200160002054611b17565b9050611143565b6110d4611054565b600001548210156111415760005b60006110ec611054565b6004016000858152602001908152602001600020549150810361111a57826111139061292e565b92506110e2565b60007c01000000000000000000000000000000000000000000000000000000008216149150505b5b5b919050565b8060005260046000fd5b600061115d83610b66565b905081801561119f57508073ffffffffffffffffffffffffffffffffffffffff16611186611425565b73ffffffffffffffffffffffffffffffffffffffff1614155b156111cb576111b5816111b0611425565b610fb7565b6111ca576111c963cfb3b94260e01b611148565b5b5b836111d4611054565b600601600085815260200190815260200160002060000160006101000a81548173ffffffffffffffffffffffffffffffffffffffff021916908373ffffffffffffffffffffffffffffffffffffffff160217905550828473ffffffffffffffffffffffffffffffffffffffff168273ffffffffffffffffffffffffffffffffffffffff167f8c5be1e5ebec7d5bd14f71427d1e84f3dd0314c0f7b2291e5b200ac8c7c3b92560405160405180910390a450505050565b6000611294610faa565b905090565b60007fffffffffffffffffffffffffffffffffffffffffffffffffffffffffffffffff905090565b6000816112cc61128a565b116113df576112d9611054565b60040160008381526020019081526020016000205490506112f8611299565b82111561131d5761130881611b17565b6113f05761131c63df2d9b4260e01b611148565b5b600081036113b65761132d611054565b6000015482106113485761134763df2d9b4260e01b611148565b5b5b611351611054565b60040160008360019003935083815260200190815260200160002054905060008103156113b15760007c0100000000000000000000000000000000000000000000000000000000821603156113f0576113b063df2d9b4260e01b611148565b5b611349565b60007c0100000000000000000000000000000000000000000000000000000000821603156113f0575b6113ef63df2d9b4260e01b611148565b5b919050565b6000806000611402611054565b600601600085815260200190815260200160002090508092508254915050915091565b600033905090565b600073ffffffffffffffffffffffffffffffffffffffff8316925073ffffffffffffffffffffffffffffffffffffffff821691508382148383141790509392505050565b50505050565b60008060e883901c905060e861148e868684611b58565b62ffffff16901b9150509392505050565b600073ffffffffffffffffffffffffffffffffffffffff83169250814260a01b178317905092915050565b50505050565b60006114db836112c1565b905060008190506000806114ee866113f5565b9150915084156115365761150a8184611505611425565b61142d565b6115355761151f8361151a611425565b610fb7565b611534576115336359c896be60e01b611148565b5b5b5b611544836000886001611471565b801561154f57600082555b600160806001901b03611560611054565b60050160008573ffffffffffffffffffffffffffffffffffffffff1673ffffffffffffffffffffffffffffffffffffffff16815260200190815260200160002060008282540192505081905550611600836115bd85600088611477565b7c02000000000000000000000000000000000000000000000000000000007c0100000000000000000000000000000000000000000000000000000000171761149f565b611608611054565b60040160008881526020019081526020016000208190555060007c02000000000000000000000000000000000000000000000000000000008516036116aa5760006001870190506000611659611054565b600401600083815260200190815260200160002054036116a85761167b611054565b6000015481146116a7578461168e611054565b6004016000838152602001908152602001600020819055505b5b505b85600073ffffffffffffffffffffffffffffffffffffffff168473ffffffffffffffffffffffffffffffffffffffff167fddf252ad1be2c89b69c2b068fc378daa952ba7f163c4a11628f55a4df523b3ef60405160405180910390a46117148360008860016114ca565b61171c611054565b60010160008154809291906001019190505550505050505050565b6000611741611054565b60000154905090565b6060818310611764576117636332c1995a60e01b611148565b5b61176c61128a565b83101561177e5761177b61128a565b92505b6000611788611737565b905060007fffffffffffffffffffffffffffffffffffffffffffffffffffffffffffffffff6117b5611299565b036117c057816117c2565b835b90508084106117cf578093505b60006117da87610b78565b90508486106117e857600090505b600081146118fc5780868603116117ff5785850390505b600060405194506001820160051b8501905080604052600061182088610eb8565b90506000816040015161183557816000015190505b60005b7fffffffffffffffffffffffffffffffffffffffffffffffffffffffffffffffff611861611299565b1461189057868a0361187b576001611877611299565b0199505b611883611299565b8a111561188f57600091505b5b6118998a611a53565b92506040830151600081146118b157600092506118d7565b8351156118bd57835192505b8b831860601b6118d6576001820191508a8260051b8a01525b5b5060018a01995083604052888a14806118ef57508481145b1561183857808852505050505b5050509392505050565b611920828260405180602001604052806000815250611b61565b5050565b60008373ffffffffffffffffffffffffffffffffffffffff1663150b7a0261194a611425565b8786866040518563ffffffff1660e01b815260040161196c94939291906129ac565b6020604051808303816000875af19250505080156119a857506040513d601f19601f820116820180604052508101906119a59190612a0d565b60015b611a00573d80600081146119d8576040519150601f19603f3d011682016040523d82523d6000602084013e6119dd565b606091505b5060008151036119f8576119f763d1a57ed660e01b611148565b5b805181602001fd5b63150b7a0260e01b7bffffffffffffffffffffffffffffffffffffffffffffffffffffffff1916817bffffffffffffffffffffffffffffffffffffffffffffffffffffffff191614915050949350505050565b611a5b611e61565b611a80611a66611054565b600401600084815260200190815260200160002054611bf0565b9050919050565b600080611a92611054565b60040160008481526020019081526020016000205414159050919050565b606060405180602001604052806000815250905090565b606060a060405101806040526020810391506000825281835b600115611b0257600184039350600a81066030018453600a8104905080611ae0575b50828103602084039350808452505050919050565b60007c0100000000000000000000000000000000000000000000000000000000821673ffffffffffffffffffffffffffffffffffffffff8316119050919050565b60009392505050565b611b6b8383611ca6565b60008373ffffffffffffffffffffffffffffffffffffffff163b14611beb576000611b94611054565b600001549050600083820390505b611bb56000868380600101945086611924565b611bca57611bc963d1a57ed660e01b611148565b5b818110611ba25781611bda611054565b6000015414611be857600080fd5b50505b505050565b611bf8611e61565b81816000019073ffffffffffffffffffffffffffffffffffffffff16908173ffffffffffffffffffffffffffffffffffffffff168152505060a082901c816020019067ffffffffffffffff16908167ffffffffffffffff168152505060007c01000000000000000000000000000000000000000000000000000000008316141581604001901515908115158152505060e882901c816060019062ffffff16908162ffffff1681525050919050565b6000611cb0611054565b60000154905060008203611ccf57611cce63b562e8dd60e01b611148565b5b611cdc6000848385611471565b611cfc83611ced6000866000611477565b611cf685611e51565b1761149f565b611d04611054565b600401600083815260200190815260200160002081905550600160406001901b178202611d2f611054565b60050160008573ffffffffffffffffffffffffffffffffffffffff1673ffffffffffffffffffffffffffffffffffffffff16815260200190815260200160002060008282540192505081905550600073ffffffffffffffffffffffffffffffffffffffff8473ffffffffffffffffffffffffffffffffffffffff1616905060008103611dc657611dc5632e07630060e01b611148565b5b600083830190506000839050611dda611299565b600183031115611df557611df46381647e3a60e01b611148565b5b5b808360007fddf252ad1be2c89b69c2b068fc378daa952ba7f163c4a11628f55a4df523b3ef600080a4818160010191508103611df65781611e35611054565b60000181905550505050611e4c60008483856114ca565b505050565b60006001821460e11b9050919050565b6040518060800160405280600073ffffffffffffffffffffffffffffffffffffffff168152602001600067ffffffffffffffff168152602001600015158152602001600062ffffff1681525090565b6000604051905090565b600080fd5b600080fd5b60007fffffffff0000000000000000000000000000000000000000000000000000000082169050919050565b611ef981611ec4565b8114611f0457600080fd5b50565b600081359050611f1681611ef0565b92915050565b600060208284031215611f3257611f31611eba565b5b6000611f4084828501611f07565b91505092915050565b60008115159050919050565b611f5e81611f49565b82525050565b6000602082019050611f796000830184611f55565b92915050565b600081519050919050565b600082825260208201905092915050565b60005b83811015611fb9578082015181840152602081019050611f9e565b60008484015250505050565b6000601f19601f8301169050919050565b6000611fe182611f7f565b611feb8185611f8a565b9350611ffb818560208601611f9b565b61200481611fc5565b840191505092915050565b600060208201905081810360008301526120298184611fd6565b905092915050565b6000819050919050565b61204481612031565b811461204f57600080fd5b50565b6000813590506120618161203b565b92915050565b60006020828403121561207d5761207c611eba565b5b600061208b84828501612052565b91505092915050565b600073ffffffffffffffffffffffffffffffffffffffff82169050919050565b60006120bf82612094565b9050919050565b6120cf816120b4565b82525050565b60006020820190506120ea60008301846120c6565b92915050565b6120f9816120b4565b811461210457600080fd5b50565b600081359050612116816120f0565b92915050565b6000806040838503121561213357612132611eba565b5b600061214185828601612107565b925050602061215285828601612052565b9150509250929050565b61216581612031565b82525050565b6000602082019050612180600083018461215c565b92915050565b60008060006060848603121561219f5761219e611eba565b5b60006121ad86828701612107565b93505060206121be86828701612107565b92505060406121cf86828701612052565b9150509250925092565b600080fd5b600080fd5b600080fd5b60008083601f8401126121fe576121fd6121d9565b5b8235905067ffffffffffffffff81111561221b5761221a6121de565b5b602083019150836020820283011115612237576122366121e3565b5b9250929050565b6000806020838503121561225557612254611eba565b5b600083013567ffffffffffffffff81111561227357612272611ebf565b5b61227f858286016121e8565b92509250509250929050565b600081519050919050565b600082825260208201905092915050565b6000819050602082019050919050565b6122c0816120b4565b82525050565b600067ffffffffffffffff82169050919050565b6122e3816122c6565b82525050565b6122f281611f49565b82525050565b600062ffffff82169050919050565b612310816122f8565b82525050565b60808201600082015161232c60008501826122b7565b50602082015161233f60208501826122da565b50604082015161235260408501826122e9565b5060608201516123656060850182612307565b50505050565b60006123778383612316565b60808301905092915050565b6000602082019050919050565b600061239b8261228b565b6123a58185612296565b93506123b0836122a7565b8060005b838110156123e15781516123c8888261236b565b97506123d383612383565b9250506001810190506123b4565b5085935050505092915050565b600060208201905081810360008301526124088184612390565b905092915050565b60006020828403121561242657612425611eba565b5b600061243484828501612107565b91505092915050565b600081519050919050565b600082825260208201905092915050565b6000819050602082019050919050565b61247281612031565b82525050565b60006124848383612469565b60208301905092915050565b6000602082019050919050565b60006124a88261243d565b6124b28185612448565b93506124bd83612459565b8060005b838110156124ee5781516124d58882612478565b97506124e083612490565b9250506001810190506124c1565b5085935050505092915050565b60006020820190508181036000830152612515818461249d565b905092915050565b60008060006060848603121561253657612535611eba565b5b600061254486828701612107565b935050602061255586828701612052565b925050604061256686828701612052565b9150509250925092565b61257981611f49565b811461258457600080fd5b50565b60008135905061259681612570565b92915050565b600080604083850312156125b3576125b2611eba565b5b60006125c185828601612107565b92505060206125d285828601612587565b9150509250929050565b600080fd5b7f4e487b7100000000000000000000000000000000000000000000000000000000600052604160045260246000fd5b61261982611fc5565b810181811067ffffffffffffffff82111715612638576126376125e1565b5b80604052505050565b600061264b611eb0565b90506126578282612610565b919050565b600067ffffffffffffffff821115612677576126766125e1565b5b61268082611fc5565b9050602081019050919050565b82818337600083830152505050565b60006126af6126aa8461265c565b612641565b9050828152602081018484840111156126cb576126ca6125dc565b5b6126d684828561268d565b509392505050565b600082601f8301126126f3576126f26121d9565b5b813561270384826020860161269c565b91505092915050565b6000806000806080858703121561272657612725611eba565b5b600061273487828801612107565b945050602061274587828801612107565b935050604061275687828801612052565b925050606085013567ffffffffffffffff81111561277757612776611ebf565b5b612783878288016126de565b91505092959194509250565b6080820160008201516127a560008501826122b7565b5060208201516127b860208501826122da565b5060408201516127cb60408501826122e9565b5060608201516127de6060850182612307565b50505050565b60006080820190506127f9600083018461278f565b92915050565b6000806040838503121561281657612815611eba565b5b600061282485828601612107565b925050602061283585828601612107565b9150509250929050565b7f4e487b7100000000000000000000000000000000000000000000000000000000600052602260045260246000fd5b6000600282049050600182168061288657607f821691505b6020821081036128995761289861283f565b5b50919050565b600081905092915050565b60006128b582611f7f565b6128bf818561289f565b93506128cf818560208601611f9b565b80840191505092915050565b60006128e782856128aa565b91506128f382846128aa565b91508190509392505050565b7f4e487b7100000000000000000000000000000000000000000000000000000000600052601160045260246000fd5b600061293982612031565b91506000820361294c5761294b6128ff565b5b600182039050919050565b600081519050919050565b600082825260208201905092915050565b600061297e82612957565b6129888185612962565b9350612998818560208601611f9b565b6129a181611fc5565b840191505092915050565b60006080820190506129c160008301876120c6565b6129ce60208301866120c6565b6129db604083018561215c565b81810360608301526129ed8184612973565b905095945050505050565b600081519050612a0781611ef0565b92915050565b600060208284031215612a2357612a22611eba565b5b6000612a31848285016129f8565b9150509291505056fea2646970667358221220aaa3306fa4439733259d8b58cd961843b7c6a59f67bf3396a2d910a6ad0e63e764736f6c63430008180033",
  "linkReferences": {},
  "deployedLinkReferences": {}
}