{
  "_format": "hh-sol-artifact-1",
  "contractName": "ERC721AQueryableStartTokenIdMockUpgradeable",
  "sourceName": "contracts/ERC721A-Upgradeable/contracts/mocks/ERC721AQueryableStartTokenIdMockUpgradeable.sol",
  "abi": [
    {
      "inputs": [],
      "name": "ApprovalCallerNotOwnerNorApproved",
      "type": "error"
    },
    {
      "inputs": [],
      "name": "ApprovalQueryForNonexistentToken",
      "type": "error"
    },
    {
      "inputs": [],
      "name": "BalanceQueryForZeroAddress",
      "type": "error"
    },
    {
      "inputs": [],
      "name": "InvalidQueryRange",
      "type": "error"
    },
    {
      "inputs": [],
      "name": "MintERC2309QuantityExceedsLimit",
      "type": "error"
    },
    {
      "inputs": [],
      "name": "MintToZeroAddress",
      "type": "error"
    },
    {
      "inputs": [],
      "name": "MintZeroQuantity",
      "type": "error"
    },
    {
      "inputs": [],
      "name": "NotCompatibleWithSpotMints",
      "type": "error"
    },
    {
      "inputs": [],
      "name": "OwnerQueryForNonexistentToken",
      "type": "error"
    },
    {
      "inputs": [],
      "name": "OwnershipNotInitializedForExtraData",
      "type": "error"
    },
    {
      "inputs": [],
      "name": "SequentialMintExceedsLimit",
      "type": "error"
    },
    {
      "inputs": [],
      "name": "SequentialUpToTooSmall",
      "type": "error"
    },
    {
      "inputs": [],
      "name": "SpotMintTokenIdTooSmall",
      "type": "error"
    },
    {
      "inputs": [],
      "name": "TokenAlreadyExists",
      "type": "error"
    },
    {
      "inputs": [],
      "name": "TransferCallerNotOwnerNorApproved",
      "type": "error"
    },
    {
      "inputs": [],
      "name": "TransferFromIncorrectOwner",
      "type": "error"
    },
    {
      "inputs": [],
      "name": "TransferToNonERC721ReceiverImplementer",
      "type": "error"
    },
    {
      "inputs": [],
      "name": "TransferToZeroAddress",
      "type": "error"
    },
    {
      "inputs": [],
      "name": "URIQueryForNonexistentToken",
      "type": "error"
    },
    {
      "anonymous": false,
      "inputs": [
        {
          "indexed": true,
          "internalType": "address",
          "name": "owner",
          "type": "address"
        },
        {
          "indexed": true,
          "internalType": "address",
          "name": "approved",
          "type": "address"
        },
        {
          "indexed": true,
          "internalType": "uint256",
          "name": "tokenId",
          "type": "uint256"
        }
      ],
      "name": "Approval",
      "type": "event"
    },
    {
      "anonymous": false,
      "inputs": [
        {
          "indexed": true,
          "internalType": "address",
          "name": "owner",
          "type": "address"
        },
        {
          "indexed": true,
          "internalType": "address",
          "name": "operator",
          "type": "address"
        },
        {
          "indexed": false,
          "internalType": "bool",
          "name": "approved",
          "type": "bool"
        }
      ],
      "name": "ApprovalForAll",
      "type": "event"
    },
    {
      "anonymous": false,
      "inputs": [
        {
          "indexed": true,
          "internalType": "uint256",
          "name": "fromTokenId",
          "type": "uint256"
        },
        {
          "indexed": false,
          "internalType": "uint256",
          "name": "toTokenId",
          "type": "uint256"
        },
        {
          "indexed": true,
          "internalType": "address",
          "name": "from",
          "type": "address"
        },
        {
          "indexed": true,
          "internalType": "address",
          "name": "to",
          "type": "address"
        }
      ],
      "name": "ConsecutiveTransfer",
      "type": "event"
    },
    {
      "anonymous": false,
      "inputs": [
        {
          "indexed": true,
          "internalType": "address",
          "name": "from",
          "type": "address"
        },
        {
          "indexed": true,
          "internalType": "address",
          "name": "to",
          "type": "address"
        },
        {
          "indexed": true,
          "internalType": "uint256",
          "name": "tokenId",
          "type": "uint256"
        }
      ],
      "name": "Transfer",
      "type": "event"
    },
    {
      "inputs": [
        {
          "internalType": "address",
          "name": "to",
          "type": "address"
        },
        {
          "internalType": "uint256",
          "name": "tokenId",
          "type": "uint256"
        }
      ],
      "name": "approve",
      "outputs": [],
      "stateMutability": "payable",
      "type": "function"
    },
    {
      "inputs": [
        {
          "internalType": "address",
          "name": "owner",
          "type": "address"
        }
      ],
      "name": "balanceOf",
      "outputs": [
        {
          "internalType": "uint256",
          "name": "",
          "type": "uint256"
        }
      ],
      "stateMutability": "view",
      "type": "function"
    },
    {
      "inputs": [
        {
          "internalType": "uint256",
          "name": "tokenId",
          "type": "uint256"
        }
      ],
      "name": "burn",
      "outputs": [],
      "stateMutability": "nonpayable",
      "type": "function"
    },
    {
      "inputs": [
        {
          "internalType": "uint256",
          "name": "index",
          "type": "uint256"
        }
      ],
      "name": "directSetBurnBit",
      "outputs": [],
      "stateMutability": "nonpayable",
      "type": "function"
    },
    {
      "inputs": [
        {
          "internalType": "uint256",
          "name": "tokenId",
          "type": "uint256"
        }
      ],
      "name": "explicitOwnershipOf",
      "outputs": [
        {
          "components": [
            {
              "internalType": "address",
              "name": "addr",
              "type": "address"
            },
            {
              "internalType": "uint64",
              "name": "startTimestamp",
              "type": "uint64"
            },
            {
              "internalType": "bool",
              "name": "burned",
              "type": "bool"
            },
            {
              "internalType": "uint24",
              "name": "extraData",
              "type": "uint24"
            }
          ],
          "internalType": "struct IERC721AUpgradeable.TokenOwnership",
          "name": "ownership",
          "type": "tuple"
        }
      ],
      "stateMutability": "view",
      "type": "function"
    },
    {
      "inputs": [
        {
          "internalType": "uint256[]",
          "name": "tokenIds",
          "type": "uint256[]"
        }
      ],
      "name": "explicitOwnershipsOf",
      "outputs": [
        {
          "components": [
            {
              "internalType": "address",
              "name": "addr",
              "type": "address"
            },
            {
              "internalType": "uint64",
              "name": "startTimestamp",
              "type": "uint64"
            },
            {
              "internalType": "bool",
              "name": "burned",
              "type": "bool"
            },
            {
              "internalType": "uint24",
              "name": "extraData",
              "type": "uint24"
            }
          ],
          "internalType": "struct IERC721AUpgradeable.TokenOwnership[]",
          "name": "",
          "type": "tuple[]"
        }
      ],
      "stateMutability": "view",
      "type": "function"
    },
    {
      "inputs": [
        {
          "internalType": "uint256",
          "name": "tokenId",
          "type": "uint256"
        }
      ],
      "name": "getApproved",
      "outputs": [
        {
          "internalType": "address",
          "name": "",
          "type": "address"
        }
      ],
      "stateMutability": "view",
      "type": "function"
    },
    {
      "inputs": [
        {
          "internalType": "address",
          "name": "owner",
          "type": "address"
        },
        {
          "internalType": "address",
          "name": "operator",
          "type": "address"
        }
      ],
      "name": "isApprovedForAll",
      "outputs": [
        {
          "internalType": "bool",
          "name": "",
          "type": "bool"
        }
      ],
      "stateMutability": "view",
      "type": "function"
    },
    {
      "inputs": [],
      "name": "name",
      "outputs": [
        {
          "internalType": "string",
          "name": "",
          "type": "string"
        }
      ],
      "stateMutability": "view",
      "type": "function"
    },
    {
      "inputs": [
        {
          "internalType": "uint256",
          "name": "tokenId",
          "type": "uint256"
        }
      ],
      "name": "ownerOf",
      "outputs": [
        {
          "internalType": "address",
          "name": "",
          "type": "address"
        }
      ],
      "stateMutability": "view",
      "type": "function"
    },
    {
      "inputs": [
        {
          "internalType": "address",
          "name": "to",
          "type": "address"
        },
        {
          "internalType": "uint256",
          "name": "quantity",
          "type": "uint256"
        }
      ],
      "name": "safeMint",
      "outputs": [],
      "stateMutability": "nonpayable",
      "type": "function"
    },
    {
      "inputs": [
        {
          "internalType": "address",
          "name": "from",
          "type": "address"
        },
        {
          "internalType": "address",
          "name": "to",
          "type": "address"
        },
        {
          "internalType": "uint256",
          "name": "tokenId",
          "type": "uint256"
        }
      ],
      "name": "safeTransferFrom",
      "outputs": [],
      "stateMutability": "payable",
      "type": "function"
    },
    {
      "inputs": [
        {
          "internalType": "address",
          "name": "from",
          "type": "address"
        },
        {
          "internalType": "address",
          "name": "to",
          "type": "address"
        },
        {
          "internalType": "uint256",
          "name": "tokenId",
          "type": "uint256"
        },
        {
          "internalType": "bytes",
          "name": "_data",
          "type": "bytes"
        }
      ],
      "name": "safeTransferFrom",
      "outputs": [],
      "stateMutability": "payable",
      "type": "function"
    },
    {
      "inputs": [
        {
          "internalType": "address",
          "name": "operator",
          "type": "address"
        },
        {
          "internalType": "bool",
          "name": "approved",
          "type": "bool"
        }
      ],
      "name": "setApprovalForAll",
      "outputs": [],
      "stateMutability": "nonpayable",
      "type": "function"
    },
    {
      "inputs": [],
      "name": "startTokenId",
      "outputs": [
        {
          "internalType": "uint256",
          "name": "result",
          "type": "uint256"
        }
      ],
      "stateMutability": "view",
      "type": "function"
    },
    {
      "inputs": [
        {
          "internalType": "bytes4",
          "name": "interfaceId",
          "type": "bytes4"
        }
      ],
      "name": "supportsInterface",
      "outputs": [
        {
          "internalType": "bool",
          "name": "",
          "type": "bool"
        }
      ],
      "stateMutability": "view",
      "type": "function"
    },
    {
      "inputs": [],
      "name": "symbol",
      "outputs": [
        {
          "internalType": "string",
          "name": "",
          "type": "string"
        }
      ],
      "stateMutability": "view",
      "type": "function"
    },
    {
      "inputs": [
        {
          "internalType": "uint256",
          "name": "tokenId",
          "type": "uint256"
        }
      ],
      "name": "tokenURI",
      "outputs": [
        {
          "internalType": "string",
          "name": "",
          "type": "string"
        }
      ],
      "stateMutability": "view",
      "type": "function"
    },
    {
      "inputs": [
        {
          "internalType": "address",
          "name": "owner",
          "type": "address"
        }
      ],
      "name": "tokensOfOwner",
      "outputs": [
        {
          "internalType": "uint256[]",
          "name": "",
          "type": "uint256[]"
        }
      ],
      "stateMutability": "view",
      "type": "function"
    },
    {
      "inputs": [
        {
          "internalType": "address",
          "name": "owner",
          "type": "address"
        },
        {
          "internalType": "uint256",
          "name": "start",
          "type": "uint256"
        },
        {
          "internalType": "uint256",
          "name": "stop",
          "type": "uint256"
        }
      ],
      "name": "tokensOfOwnerIn",
      "outputs": [
        {
          "internalType": "uint256[]",
          "name": "",
          "type": "uint256[]"
        }
      ],
      "stateMutability": "view",
      "type": "function"
    },
    {
      "inputs": [],
      "name": "totalSupply",
      "outputs": [
        {
          "internalType": "uint256",
          "name": "result",
          "type": "uint256"
        }
      ],
      "stateMutability": "view",
      "type": "function"
    },
    {
      "inputs": [
        {
          "internalType": "address",
          "name": "from",
          "type": "address"
        },
        {
          "internalType": "address",
          "name": "to",
          "type": "address"
        },
        {
          "internalType": "uint256",
          "name": "tokenId",
          "type": "uint256"
        }
      ],
      "name": "transferFrom",
      "outputs": [],
      "stateMutability": "payable",
      "type": "function"
    }
  ],
  "bytecode": "0x608060405234801561001057600080fd5b50611964806100206000396000f3fe6080604052600436106101355760003560e01c806370a08231116100ab578063a22cb4651161006f578063a22cb4651461039f578063b88d4fde146103bf578063c23dc68f146103d2578063c87b56dd146103ff578063e6798baa1461041f578063e985e9c51461043757600080fd5b806370a08231146102fd5780638462151c1461031d57806395d89b411461034a57806399a2557a1461035f578063a14481941461037f57600080fd5b806323b872dd116100fd57806323b872dd1461020157806342842e0e1461021457806342966c68146102275780634b6c5d8c146102475780635bbb2177146102b05780636352211e146102dd57600080fd5b806301ffc9a71461013a57806306fdde031461016f578063081812fc14610191578063095ea7b3146101c957806318160ddd146101de575b600080fd5b34801561014657600080fd5b5061015a61015536600461141b565b610457565b60405190151581526020015b60405180910390f35b34801561017b57600080fd5b506101846104a9565b6040516101669190611488565b34801561019d57600080fd5b506101b16101ac36600461149b565b610544565b6040516001600160a01b039091168152602001610166565b6101dc6101d73660046114cb565b610588565b005b3480156101ea57600080fd5b506101f3610598565b604051908152602001610166565b6101dc61020f3660046114f5565b6105dc565b6101dc6102223660046114f5565b61078f565b34801561023357600080fd5b506101dc61024236600461149b565b6107af565b34801561025357600080fd5b506101dc61026236600461149b565b60046020908152600091825260408083208054600160e01b9081179091557f2569078dfb4b0305704d3008e7403993ae9601b85f7ae5e742de3de8f8011c4490925290912080549091179055565b3480156102bc57600080fd5b506102d06102cb366004611531565b6107bd565b60405161016691906115e3565b3480156102e957600080fd5b506101b16102f836600461149b565b610809565b34801561030957600080fd5b506101f3610318366004611631565b610814565b34801561032957600080fd5b5061033d610338366004611631565b610874565b604051610166919061164c565b34801561035657600080fd5b506101846108cd565b34801561036b57600080fd5b5061033d61037a366004611684565b6108e5565b34801561038b57600080fd5b506101dc61039a3660046114cb565b6108f2565b3480156103ab57600080fd5b506101dc6103ba3660046116b7565b6108fc565b6101dc6103cd366004611709565b610979565b3480156103de57600080fd5b506103f26103ed36600461149b565b6109ba565b60405161016691906117e5565b34801561040b57600080fd5b5061018461041a36600461149b565b610a1f565b34801561042b57600080fd5b506328f75032546101f3565b34801561044357600080fd5b5061015a6104523660046117f3565b610aa7565b60006301ffc9a760e01b6001600160e01b03198316148061048857506380ac58cd60e01b6001600160e01b03198316145b806104a35750635b5e139f60e01b6001600160e01b03198316145b92915050565b60606104b3610ae4565b60020180546104c190611826565b80601f01602080910402602001604051908101604052809291908181526020018280546104ed90611826565b801561053a5780601f1061050f5761010080835404028352916020019161053a565b820191906000526020600020905b81548152906001019060200180831161051d57829003601f168201915b5050505050905090565b600061054f82610b08565b610563576105636333d1c03960e21b610b9e565b61056b610ae4565b60009283526006016020525060409020546001600160a01b031690565b61059482826001610ba8565b5050565b60006105a2610c59565b6105aa610ae4565b600101546105b6610ae4565b54030390506000196105c6610c6c565b146105d9576105d3610ae4565b60080154015b90565b60006105e782610c72565b6001600160a01b03948516949091508116841461060d5761060d62a1148160e81b610b9e565b60008061061984610d6d565b9150915061063e81876106293390565b6001600160a01b039081169116811491141790565b6106605761064c8633610aa7565b61066057610660632ce44b5f60e11b610b9e565b801561066b57600082555b610673610ae4565b6001600160a01b038716600090815260059190910160205260409020805460001901905561069f610ae4565b6001600160a01b038616600090815260059190910160205260409020805460010190556106d085600160e11b610d95565b6106d8610ae4565b60008681526004919091016020526040812091909155600160e11b8416900361074e5760018401610707610ae4565b60008281526004919091016020526040812054900361074c57610728610ae4565b54811461074c5783610738610ae4565b600083815260049190910160205260409020555b505b6001600160a01b03851684818860008051602061190f833981519152600080a48060000361078657610786633a954ecd60e21b610b9e565b50505050505050565b6107aa83838360405180602001604052806000815250610979565b505050565b6107ba816001610daa565b50565b60408051828152600583901b8082016020019092526060915b801561080157601f19808201918601013560006107f2826109ba565b84840160200152506107d69050565b509392505050565b60006104a382610c72565b60006001600160a01b038216610834576108346323d3ad8160e21b610b9e565b67ffffffffffffffff610845610ae4565b6005016000846001600160a01b03166001600160a01b0316815260200190815260200160002054169050919050565b6060600019610881610c6c565b146108965761089663bdba09d760e01b610b9e565b60006108a0610c59565b905060006108ac610f08565b905060608183146108c5576108c2858484610f18565b90505b949350505050565b60606108d7610ae4565b60030180546104c190611826565b60606108c5848484610f18565b6105948282611088565b80610905610ae4565b336000818152600792909201602090815260408084206001600160a01b03881680865290835293819020805460ff19169515159590951790945592518415158152919290917f17307eab39ab6107e8899845ad3d59bd9653f200f220920489ca2b5937696c31910160405180910390a35050565b6109848484846105dc565b6001600160a01b0383163b156109b4576109a0848484846110a2565b6109b4576109b46368d2bf6b60e11b610b9e565b50505050565b6109c26113de565b6109ca610c59565b8210610a1a576109d8610c6c565b8211156109e8576104a382611184565b6109f0610f08565b821015610a1a575b610a01826111af565b610a1157600019909101906109f8565b6104a382611184565b919050565b6060610a2a82610b08565b610a3e57610a3e630a14c4b560e41b610b9e565b6000610a5560408051602081019091526000815290565b90508051600003610a755760405180602001604052806000815250610aa0565b80610a7f846111cf565b604051602001610a90929190611860565b6040516020818303038152906040525b9392505050565b6000610ab1610ae4565b6001600160a01b039384166000908152600791909101602090815260408083209490951682529290925250205460ff1690565b7f2569078dfb4b0305704d3008e7403993ae9601b85f7ae5e742de3de8f8011c4090565b600081610b13610c59565b11610a1a57610b20610c6c565b821115610b4a576104a3610b32610ae4565b60008481526004919091016020526040902054611213565b610b52610ae4565b54821015610a1a5760005b610b65610ae4565b600084815260049190910160205260408120549150819003610b9157610b8a8361188f565b9250610b5d565b600160e01b161592915050565b8060005260046000fd5b6000610bb383610809565b9050818015610bcb5750336001600160a01b03821614155b15610bee57610bda8133610aa7565b610bee57610bee6367d9dca160e11b610b9e565b83610bf7610ae4565b6000858152600691909101602052604080822080546001600160a01b0319166001600160a01b0394851617905551859287811692908516917f8c5be1e5ebec7d5bd14f71427d1e84f3dd0314c0f7b2291e5b200ac8c7c3b9259190a450505050565b6000610c676328f750325490565b905090565b60001990565b600081610c7d610c59565b11610d5d57610c8a610ae4565b600083815260049190910160205260409020549050610ca7610c6c565b821115610cd157610cb781611213565b15610cc157919050565b610cd1636f96cda160e11b610b9e565b80600003610d4a57610ce1610ae4565b548210610cf857610cf8636f96cda160e11b610b9e565b610d00610ae4565b600019909201600081815260049390930160205260409092205490508015610cf857600160e01b8116600003610d3557919050565b610d45636f96cda160e11b610b9e565b610cf8565b600160e01b8116600003610d5d57919050565b610a1a636f96cda160e11b610b9e565b6000806000610d7a610ae4565b60009485526006016020525050604090912080549092909150565b4260a01b176001600160a01b03919091161790565b6000610db583610c72565b905080600080610dc486610d6d565b915091508415610dfb57610dd9818433610629565b610dfb57610de78333610aa7565b610dfb57610dfb632ce44b5f60e11b610b9e565b8015610e0657600082555b6001600160801b03610e16610ae4565b6001600160a01b0385166000908152600591909101602052604090208054919091019055610e4883600360e01b610d95565b610e50610ae4565b60008881526004919091016020526040812091909155600160e11b85169003610ec65760018601610e7f610ae4565b600082815260049190910160205260408120549003610ec457610ea0610ae4565b548114610ec45784610eb0610ae4565b600083815260049190910160205260409020555b505b60405186906000906001600160a01b0386169060008051602061190f833981519152908390a4610ef4610ae4565b600190810180549091019055505050505050565b6000610f12610ae4565b54919050565b6060818310610f3157610f31631960ccad60e11b610b9e565b610f39610c59565b831015610f4b57610f48610c59565b92505b6000610f55610f08565b90506000600019610f64610c6c565b03610f6f5781610f71565b835b9050808410610f7e578093505b6000610f8987610814565b9050848610610f96575060005b801561107e578086860311610faa57508484035b604080516001830160051b81019182905294506000610fc8886109ba565b905060008160400151610fd9575080515b60005b600019610fe7610c6c565b1461101557868a0361100157610ffb610c6c565b60010199505b611009610c6c565b8a111561101557600091505b61101e8a611184565b9250604083015160008114611036576000925061105b565b83511561104257835192505b8b831860601b61105b576001820191508a8260051b8a01525b5060018a01995083604052888a148061107357508481145b15610fdc5787525050505b5050509392505050565b610594828260405180602001604052806000815250611229565b604051630a85bd0160e11b81526000906001600160a01b0385169063150b7a02906110d79033908990889088906004016118b4565b6020604051808303816000875af1925050508015611112575060408051601f3d908101601f1916820190925261110f918101906118f1565b60015b611167573d808015611140576040519150601f19603f3d011682016040523d82523d6000602084013e611145565b606091505b50805160000361115f5761115f6368d2bf6b60e11b610b9e565b805181602001fd5b6001600160e01b031916630a85bd0160e11b149050949350505050565b61118c6113de565b6104a3611197610ae4565b6000848152600491909101602052604090205461129d565b60006111b9610ae4565b6000928352600401602052506040902054151590565b606060a06040510180604052602081039150506000815280825b600183039250600a81066030018353600a9004806111e95750819003601f19909101908152919050565b600160e01b81166001600160a01b039091161190565b61123383836112e1565b6001600160a01b0383163b156107aa57600061124d610ae4565b5490508281035b61126760008683806001019450866110a2565b61127b5761127b6368d2bf6b60e11b610b9e565b818110611254578161128b610ae4565b541461129657600080fd5b5050505050565b6112a56113de565b6001600160a01b038216815267ffffffffffffffff60a083901c166020820152600160e01b82161515604082015260e89190911c606082015290565b60006112eb610ae4565b54905060008290036113075761130763b562e8dd60e01b610b9e565b611317836001841460e11b610d95565b61131f610ae4565b60008381526004919091016020526040902055680100000000000000018202611346610ae4565b6001600160a01b038516600081815260059290920160205260408220805490930190925581900361138057611380622e076360e81b610b9e565b8183018261138c610c6c565b6001830311156113a6576113a66340b23f1d60e11b610b9e565b5b8083600060008051602061190f833981519152600080a48181600101915081036113a757816113d4610ae4565b55506107aa915050565b60408051608081018252600080825260208201819052918101829052606081019190915290565b6001600160e01b0319811681146107ba57600080fd5b60006020828403121561142d57600080fd5b8135610aa081611405565b60005b8381101561145357818101518382015260200161143b565b50506000910152565b60008151808452611474816020860160208601611438565b601f01601f19169290920160200192915050565b602081526000610aa0602083018461145c565b6000602082840312156114ad57600080fd5b5035919050565b80356001600160a01b0381168114610a1a57600080fd5b600080604083850312156114de57600080fd5b6114e7836114b4565b946020939093013593505050565b60008060006060848603121561150a57600080fd5b611513846114b4565b9250611521602085016114b4565b9150604084013590509250925092565b6000806020838503121561154457600080fd5b823567ffffffffffffffff8082111561155c57600080fd5b818501915085601f83011261157057600080fd5b81358181111561157f57600080fd5b8660208260051b850101111561159457600080fd5b60209290920196919550909350505050565b80516001600160a01b0316825260208082015167ffffffffffffffff169083015260408082015115159083015260609081015162ffffff16910152565b6020808252825182820181905260009190848201906040850190845b81811015611625576116128385516115a6565b92840192608092909201916001016115ff565b50909695505050505050565b60006020828403121561164357600080fd5b610aa0826114b4565b6020808252825182820181905260009190848201906040850190845b8181101561162557835183529284019291840191600101611668565b60008060006060848603121561169957600080fd5b6116a2846114b4565b95602085013595506040909401359392505050565b600080604083850312156116ca57600080fd5b6116d3836114b4565b9150602083013580151581146116e857600080fd5b809150509250929050565b634e487b7160e01b600052604160045260246000fd5b6000806000806080858703121561171f57600080fd5b611728856114b4565b9350611736602086016114b4565b925060408501359150606085013567ffffffffffffffff8082111561175a57600080fd5b818701915087601f83011261176e57600080fd5b813581811115611780576117806116f3565b604051601f8201601f19908116603f011681019083821181831017156117a8576117a86116f3565b816040528281528a60208487010111156117c157600080fd5b82602086016020830137600060208483010152809550505050505092959194509250565b608081016104a382846115a6565b6000806040838503121561180657600080fd5b61180f836114b4565b915061181d602084016114b4565b90509250929050565b600181811c9082168061183a57607f821691505b60208210810361185a57634e487b7160e01b600052602260045260246000fd5b50919050565b60008351611872818460208801611438565b835190830190611886818360208801611438565b01949350505050565b6000816118ac57634e487b7160e01b600052601160045260246000fd5b506000190190565b6001600160a01b03858116825284166020820152604081018390526080606082018190526000906118e79083018461145c565b9695505050505050565b60006020828403121561190357600080fd5b8151610aa08161140556feddf252ad1be2c89b69c2b068fc378daa952ba7f163c4a11628f55a4df523b3efa2646970667358221220bacf46f3bb3e63e0d3d0ada59e3d91ea04f1a383d1f8d8ac65d35c50b76df68864736f6c63430008180033",
  "linkReferences": {},
  "deployedLinkReferences": {}
}