{
  "_format": "hh-sol-artifact-1",
  "contractName": "ERC721ReceiverMockUpgradeable",
  "sourceName": "contracts/ERC721A-Upgradeable/contracts/mocks/ERC721ReceiverMockUpgradeable.sol",
  "abi": [
    {
      "anonymous": false,
      "inputs": [
        {
          "indexed": false,
          "internalType": "address",
          "name": "operator",
          "type": "address"
        },
        {
          "indexed": false,
          "internalType": "address",
          "name": "from",
          "type": "address"
        },
        {
          "indexed": false,
          "internalType": "uint256",
          "name": "tokenId",
          "type": "uint256"
        },
        {
          "indexed": false,
          "internalType": "bytes",
          "name": "data",
          "type": "bytes"
        },
        {
          "indexed": false,
          "internalType": "uint256",
          "name": "gas",
          "type": "uint256"
        }
      ],
      "name": "Received",
      "type": "event"
    },
    {
      "inputs": [
        {
          "internalType": "address",
          "name": "operator",
          "type": "address"
        },
        {
          "internalType": "address",
          "name": "from",
          "type": "address"
        },
        {
          "internalType": "uint256",
          "name": "tokenId",
          "type": "uint256"
        },
        {
          "internalType": "bytes",
          "name": "data",
          "type": "bytes"
        }
      ],
      "name": "onERC721Received",
      "outputs": [
        {
          "internalType": "bytes4",
          "name": "",
          "type": "bytes4"
        }
      ],
      "stateMutability": "nonpayable",
      "type": "function"
    }
  ],
  "bytecode": "0x608060405234801561001057600080fd5b506103d9806100206000396000f3fe608060405234801561001057600080fd5b506004361061002b5760003560e01c8063150b7a0214610030575b600080fd5b61004361003e366004610238565b610060565b6040516001600160e01b0319909116815260200160405180910390f35b600080825160001461008c578260008151811061007f5761007f610314565b016020015160f81c61008f565b60005b9050806001036100f05760405162461bcd60e51b815260206004820152602260248201527f726576657274656420696e2074686520726563656976657220636f6e74726163604482015261742160f01b606482015260840160405180910390fd5b806002036101025750600090506101fe565b80600303610195577f2f0450cd6310b57da03c504c04ee2d58cd4c0b7951930b52833455f30e0e828654604051632851206560e21b8152306004820152600160248201526401000000009091046001600160a01b03169063a144819490604401600060405180830381600087803b15801561017c57600080fd5b505af1158015610190573d6000803e3d6000fd5b505050505b7f28fa6e16458f9c24aa59ddd4085264573006dbe30304837873c7deafc702b03886868686614e206040516101ce95949392919061032a565b60405180910390a150507f2f0450cd6310b57da03c504c04ee2d58cd4c0b7951930b52833455f30e0e82865460e01b5b949350505050565b80356001600160a01b038116811461021d57600080fd5b919050565b634e487b7160e01b600052604160045260246000fd5b6000806000806080858703121561024e57600080fd5b61025785610206565b935061026560208601610206565b925060408501359150606085013567ffffffffffffffff8082111561028957600080fd5b818701915087601f83011261029d57600080fd5b8135818111156102af576102af610222565b604051601f8201601f19908116603f011681019083821181831017156102d7576102d7610222565b816040528281528a60208487010111156102f057600080fd5b82602086016020830137600060208483010152809550505050505092959194509250565b634e487b7160e01b600052603260045260246000fd5b600060018060a01b0380881683526020818816602085015286604085015260a06060850152855191508160a085015260005b828110156103785786810182015185820160c00152810161035c565b5050600060c0828501015260c0601f19601f830116840101915050826080830152969550505050505056fea2646970667358221220ab40d8583261a05934b02cd54be0604e79dfcc7b492ff870e6cc934b8a3caee164736f6c63430008180033",
  "linkReferences": {},
  "deployedLinkReferences": {}
}