{
  "_format": "hh-sol-artifact-1",
  "contractName": "DirectBurnBitSetterHelperUpgradeableWithInit",
  "sourceName": "contracts/ERC721A-Upgradeable/contracts/mocks/WithInit.sol",
  "abi": [
    {
      "inputs": [],
      "stateMutability": "payable",
      "type": "constructor"
    },
    {
      "inputs": [
        {
          "internalType": "uint256",
          "name": "index",
          "type": "uint256"
        }
      ],
      "name": "directSetBurnBit",
      "outputs": [],
      "stateMutability": "nonpayable",
      "type": "function"
    }
  ],
  "bytecode": "0x608060405261001261015e60201b60201c565b60000160019054906101000a900460ff1661004c5761003561015e60201b60201c565b60000160009054906101000a900460ff161561005b565b61005a61018b60201b60201c565b5b61009a576040517f08c379a0000000000000000000000000000000000000000000000000000000008152600401610091906102f3565b60405180910390fd5b60006100aa61015e60201b60201c565b60000160019054906101000a900460ff1615905080156101195760016100d461015e60201b60201c565b60000160016101000a81548160ff02191690831515021790555060016100fe61015e60201b60201c565b60000160006101000a81548160ff0219169083151502179055505b6101276101a260201b60201c565b801561015857600061013d61015e60201b60201c565b60000160016101000a81548160ff0219169083151502179055505b506103a5565b6000807fee151c8401928dc223602bb187aff91b9a56c7cae5476ef1b3287b085a16c85f90508091505090565b6000803090506000813b9050600081149250505090565b6101b061015e60201b60201c565b60000160019054906101000a900460ff16610200576040517f08c379a00000000000000000000000000000000000000000000000000000000081526004016101f790610385565b60405180910390fd5b61020e61021060201b60201c565b565b61021e61015e60201b60201c565b60000160019054906101000a900460ff1661026e576040517f08c379a000000000000000000000000000000000000000000000000000000000815260040161026590610385565b60405180910390fd5b565b600082825260208201905092915050565b7f455243373231415f5f496e697469616c697a61626c653a20636f6e747261637460008201527f20697320616c726561647920696e697469616c697a6564000000000000000000602082015250565b60006102dd603783610270565b91506102e882610281565b604082019050919050565b6000602082019050818103600083015261030c816102d0565b9050919050565b7f455243373231415f5f496e697469616c697a61626c653a20636f6e747261637460008201527f206973206e6f7420696e697469616c697a696e67000000000000000000000000602082015250565b600061036f603483610270565b915061037a82610313565b604082019050919050565b6000602082019050818103600083015261039e81610362565b9050919050565b610163806103b46000396000f3fe608060405234801561001057600080fd5b506004361061002b5760003560e01c80634b6c5d8c14610030575b600080fd5b61004a60048036038101906100459190610100565b61004c565b005b60007f2569078dfb4b0305704d3008e7403993ae9601b85f7ae5e742de3de8f8011c40905060007c01000000000000000000000000000000000000000000000000000000009050600460205282600052604060002081815417815560048301602052836000526040600020905081815417815550505050565b600080fd5b6000819050919050565b6100dd816100ca565b81146100e857600080fd5b50565b6000813590506100fa816100d4565b92915050565b600060208284031215610116576101156100c5565b5b6000610124848285016100eb565b9150509291505056fea2646970667358221220325f4bc4ce102a97243189dc343b0b460a5a481dcbadbcba36a6e61f6e86466264736f6c63430008180033",
  "linkReferences": {},
  "deployedLinkReferences": {}
}