{
  "_format": "hh-sol-artifact-1",
  "contractName": "ERC721AStartTokenIdMockUpgradeableWithInit",
  "sourceName": "contracts/ERC721A-Upgradeable/contracts/mocks/WithInit.sol",
  "abi": [
    {
      "inputs": [
        {
          "internalType": "string",
          "name": "name_",
          "type": "string"
        },
        {
          "internalType": "string",
          "name": "symbol_",
          "type": "string"
        },
        {
          "internalType": "uint256",
          "name": "startTokenId_",
          "type": "uint256"
        }
      ],
      "stateMutability": "payable",
      "type": "constructor"
    },
    {
      "inputs": [],
      "name": "ApprovalCallerNotOwnerNorApproved",
      "type": "error"
    },
    {
      "inputs": [],
      "name": "ApprovalQueryForNonexistentToken",
      "type": "error"
    },
    {
      "inputs": [],
      "name": "BalanceQueryForZeroAddress",
      "type": "error"
    },
    {
      "inputs": [],
      "name": "MintERC2309QuantityExceedsLimit",
      "type": "error"
    },
    {
      "inputs": [],
      "name": "MintToZeroAddress",
      "type": "error"
    },
    {
      "inputs": [],
      "name": "MintZeroQuantity",
      "type": "error"
    },
    {
      "inputs": [],
      "name": "NotCompatibleWithSpotMints",
      "type": "error"
    },
    {
      "inputs": [],
      "name": "OwnerQueryForNonexistentToken",
      "type": "error"
    },
    {
      "inputs": [],
      "name": "OwnershipNotInitializedForExtraData",
      "type": "error"
    },
    {
      "inputs": [],
      "name": "SequentialMintExceedsLimit",
      "type": "error"
    },
    {
      "inputs": [],
      "name": "SequentialUpToTooSmall",
      "type": "error"
    },
    {
      "inputs": [],
      "name": "SpotMintTokenIdTooSmall",
      "type": "error"
    },
    {
      "inputs": [],
      "name": "TokenAlreadyExists",
      "type": "error"
    },
    {
      "inputs": [],
      "name": "TransferCallerNotOwnerNorApproved",
      "type": "error"
    },
    {
      "inputs": [],
      "name": "TransferFromIncorrectOwner",
      "type": "error"
    },
    {
      "inputs": [],
      "name": "TransferToNonERC721ReceiverImplementer",
      "type": "error"
    },
    {
      "inputs": [],
      "name": "TransferToZeroAddress",
      "type": "error"
    },
    {
      "inputs": [],
      "name": "URIQueryForNonexistentToken",
      "type": "error"
    },
    {
      "anonymous": false,
      "inputs": [
        {
          "indexed": true,
          "internalType": "address",
          "name": "owner",
          "type": "address"
        },
        {
          "indexed": true,
          "internalType": "address",
          "name": "approved",
          "type": "address"
        },
        {
          "indexed": true,
          "internalType": "uint256",
          "name": "tokenId",
          "type": "uint256"
        }
      ],
      "name": "Approval",
      "type": "event"
    },
    {
      "anonymous": false,
      "inputs": [
        {
          "indexed": true,
          "internalType": "address",
          "name": "owner",
          "type": "address"
        },
        {
          "indexed": true,
          "internalType": "address",
          "name": "operator",
          "type": "address"
        },
        {
          "indexed": false,
          "internalType": "bool",
          "name": "approved",
          "type": "bool"
        }
      ],
      "name": "ApprovalForAll",
      "type": "event"
    },
    {
      "anonymous": false,
      "inputs": [
        {
          "indexed": true,
          "internalType": "uint256",
          "name": "fromTokenId",
          "type": "uint256"
        },
        {
          "indexed": false,
          "internalType": "uint256",
          "name": "toTokenId",
          "type": "uint256"
        },
        {
          "indexed": true,
          "internalType": "address",
          "name": "from",
          "type": "address"
        },
        {
          "indexed": true,
          "internalType": "address",
          "name": "to",
          "type": "address"
        }
      ],
      "name": "ConsecutiveTransfer",
      "type": "event"
    },
    {
      "anonymous": false,
      "inputs": [
        {
          "indexed": true,
          "internalType": "address",
          "name": "from",
          "type": "address"
        },
        {
          "indexed": true,
          "internalType": "address",
          "name": "to",
          "type": "address"
        },
        {
          "indexed": true,
          "internalType": "uint256",
          "name": "tokenId",
          "type": "uint256"
        }
      ],
      "name": "Transfer",
      "type": "event"
    },
    {
      "inputs": [
        {
          "internalType": "address",
          "name": "to",
          "type": "address"
        },
        {
          "internalType": "uint256",
          "name": "tokenId",
          "type": "uint256"
        }
      ],
      "name": "approve",
      "outputs": [],
      "stateMutability": "payable",
      "type": "function"
    },
    {
      "inputs": [
        {
          "internalType": "address",
          "name": "owner",
          "type": "address"
        }
      ],
      "name": "balanceOf",
      "outputs": [
        {
          "internalType": "uint256",
          "name": "",
          "type": "uint256"
        }
      ],
      "stateMutability": "view",
      "type": "function"
    },
    {
      "inputs": [],
      "name": "baseURI",
      "outputs": [
        {
          "internalType": "string",
          "name": "",
          "type": "string"
        }
      ],
      "stateMutability": "view",
      "type": "function"
    },
    {
      "inputs": [
        {
          "internalType": "uint256",
          "name": "tokenId",
          "type": "uint256"
        }
      ],
      "name": "burn",
      "outputs": [],
      "stateMutability": "nonpayable",
      "type": "function"
    },
    {
      "inputs": [
        {
          "internalType": "uint256",
          "name": "tokenId",
          "type": "uint256"
        },
        {
          "internalType": "bool",
          "name": "approvalCheck",
          "type": "bool"
        }
      ],
      "name": "burn",
      "outputs": [],
      "stateMutability": "nonpayable",
      "type": "function"
    },
    {
      "inputs": [
        {
          "internalType": "address",
          "name": "to",
          "type": "address"
        },
        {
          "internalType": "uint256",
          "name": "tokenId",
          "type": "uint256"
        }
      ],
      "name": "directApprove",
      "outputs": [],
      "stateMutability": "nonpayable",
      "type": "function"
    },
    {
      "inputs": [
        {
          "internalType": "uint256",
          "name": "index",
          "type": "uint256"
        }
      ],
      "name": "directSetBurnBit",
      "outputs": [],
      "stateMutability": "nonpayable",
      "type": "function"
    },
    {
      "inputs": [
        {
          "internalType": "uint256",
          "name": "tokenId",
          "type": "uint256"
        }
      ],
      "name": "exists",
      "outputs": [
        {
          "internalType": "bool",
          "name": "",
          "type": "bool"
        }
      ],
      "stateMutability": "view",
      "type": "function"
    },
    {
      "inputs": [
        {
          "internalType": "uint256",
          "name": "tokenId",
          "type": "uint256"
        }
      ],
      "name": "getApproved",
      "outputs": [
        {
          "internalType": "address",
          "name": "",
          "type": "address"
        }
      ],
      "stateMutability": "view",
      "type": "function"
    },
    {
      "inputs": [
        {
          "internalType": "address",
          "name": "owner",
          "type": "address"
        }
      ],
      "name": "getAux",
      "outputs": [
        {
          "internalType": "uint64",
          "name": "",
          "type": "uint64"
        }
      ],
      "stateMutability": "view",
      "type": "function"
    },
    {
      "inputs": [
        {
          "internalType": "uint256",
          "name": "index",
          "type": "uint256"
        }
      ],
      "name": "getOwnershipAt",
      "outputs": [
        {
          "components": [
            {
              "internalType": "address",
              "name": "addr",
              "type": "address"
            },
            {
              "internalType": "uint64",
              "name": "startTimestamp",
              "type": "uint64"
            },
            {
              "internalType": "bool",
              "name": "burned",
              "type": "bool"
            },
            {
              "internalType": "uint24",
              "name": "extraData",
              "type": "uint24"
            }
          ],
          "internalType": "struct IERC721AUpgradeable.TokenOwnership",
          "name": "",
          "type": "tuple"
        }
      ],
      "stateMutability": "view",
      "type": "function"
    },
    {
      "inputs": [
        {
          "internalType": "uint256",
          "name": "index",
          "type": "uint256"
        }
      ],
      "name": "getOwnershipOf",
      "outputs": [
        {
          "components": [
            {
              "internalType": "address",
              "name": "addr",
              "type": "address"
            },
            {
              "internalType": "uint64",
              "name": "startTimestamp",
              "type": "uint64"
            },
            {
              "internalType": "bool",
              "name": "burned",
              "type": "bool"
            },
            {
              "internalType": "uint24",
              "name": "extraData",
              "type": "uint24"
            }
          ],
          "internalType": "struct IERC721AUpgradeable.TokenOwnership",
          "name": "",
          "type": "tuple"
        }
      ],
      "stateMutability": "view",
      "type": "function"
    },
    {
      "inputs": [
        {
          "internalType": "uint256",
          "name": "index",
          "type": "uint256"
        }
      ],
      "name": "initializeOwnershipAt",
      "outputs": [],
      "stateMutability": "nonpayable",
      "type": "function"
    },
    {
      "inputs": [
        {
          "internalType": "address",
          "name": "owner",
          "type": "address"
        },
        {
          "internalType": "address",
          "name": "operator",
          "type": "address"
        }
      ],
      "name": "isApprovedForAll",
      "outputs": [
        {
          "internalType": "bool",
          "name": "",
          "type": "bool"
        }
      ],
      "stateMutability": "view",
      "type": "function"
    },
    {
      "inputs": [
        {
          "internalType": "address",
          "name": "to",
          "type": "address"
        },
        {
          "internalType": "uint256",
          "name": "quantity",
          "type": "uint256"
        }
      ],
      "name": "mint",
      "outputs": [],
      "stateMutability": "nonpayable",
      "type": "function"
    },
    {
      "inputs": [],
      "name": "name",
      "outputs": [
        {
          "internalType": "string",
          "name": "",
          "type": "string"
        }
      ],
      "stateMutability": "view",
      "type": "function"
    },
    {
      "inputs": [],
      "name": "nextTokenId",
      "outputs": [
        {
          "internalType": "uint256",
          "name": "",
          "type": "uint256"
        }
      ],
      "stateMutability": "view",
      "type": "function"
    },
    {
      "inputs": [
        {
          "internalType": "address",
          "name": "owner",
          "type": "address"
        }
      ],
      "name": "numberMinted",
      "outputs": [
        {
          "internalType": "uint256",
          "name": "",
          "type": "uint256"
        }
      ],
      "stateMutability": "view",
      "type": "function"
    },
    {
      "inputs": [
        {
          "internalType": "uint256",
          "name": "tokenId",
          "type": "uint256"
        }
      ],
      "name": "ownerOf",
      "outputs": [
        {
          "internalType": "address",
          "name": "",
          "type": "address"
        }
      ],
      "stateMutability": "view",
      "type": "function"
    },
    {
      "inputs": [
        {
          "internalType": "address",
          "name": "to",
          "type": "address"
        },
        {
          "internalType": "uint256",
          "name": "quantity",
          "type": "uint256"
        },
        {
          "internalType": "bytes",
          "name": "_data",
          "type": "bytes"
        }
      ],
      "name": "safeMint",
      "outputs": [],
      "stateMutability": "nonpayable",
      "type": "function"
    },
    {
      "inputs": [
        {
          "internalType": "address",
          "name": "to",
          "type": "address"
        },
        {
          "internalType": "uint256",
          "name": "quantity",
          "type": "uint256"
        }
      ],
      "name": "safeMint",
      "outputs": [],
      "stateMutability": "nonpayable",
      "type": "function"
    },
    {
      "inputs": [
        {
          "internalType": "address",
          "name": "from",
          "type": "address"
        },
        {
          "internalType": "address",
          "name": "to",
          "type": "address"
        },
        {
          "internalType": "uint256",
          "name": "tokenId",
          "type": "uint256"
        }
      ],
      "name": "safeTransferFrom",
      "outputs": [],
      "stateMutability": "payable",
      "type": "function"
    },
    {
      "inputs": [
        {
          "internalType": "address",
          "name": "from",
          "type": "address"
        },
        {
          "internalType": "address",
          "name": "to",
          "type": "address"
        },
        {
          "internalType": "uint256",
          "name": "tokenId",
          "type": "uint256"
        },
        {
          "internalType": "bytes",
          "name": "_data",
          "type": "bytes"
        }
      ],
      "name": "safeTransferFrom",
      "outputs": [],
      "stateMutability": "payable",
      "type": "function"
    },
    {
      "inputs": [
        {
          "internalType": "address",
          "name": "operator",
          "type": "address"
        },
        {
          "internalType": "bool",
          "name": "approved",
          "type": "bool"
        }
      ],
      "name": "setApprovalForAll",
      "outputs": [],
      "stateMutability": "nonpayable",
      "type": "function"
    },
    {
      "inputs": [
        {
          "internalType": "address",
          "name": "owner",
          "type": "address"
        },
        {
          "internalType": "uint64",
          "name": "aux",
          "type": "uint64"
        }
      ],
      "name": "setAux",
      "outputs": [],
      "stateMutability": "nonpayable",
      "type": "function"
    },
    {
      "inputs": [],
      "name": "startTokenId",
      "outputs": [
        {
          "internalType": "uint256",
          "name": "result",
          "type": "uint256"
        }
      ],
      "stateMutability": "view",
      "type": "function"
    },
    {
      "inputs": [
        {
          "internalType": "bytes4",
          "name": "interfaceId",
          "type": "bytes4"
        }
      ],
      "name": "supportsInterface",
      "outputs": [
        {
          "internalType": "bool",
          "name": "",
          "type": "bool"
        }
      ],
      "stateMutability": "view",
      "type": "function"
    },
    {
      "inputs": [],
      "name": "symbol",
      "outputs": [
        {
          "internalType": "string",
          "name": "",
          "type": "string"
        }
      ],
      "stateMutability": "view",
      "type": "function"
    },
    {
      "inputs": [
        {
          "internalType": "uint256",
          "name": "x",
          "type": "uint256"
        }
      ],
      "name": "toString",
      "outputs": [
        {
          "internalType": "string",
          "name": "",
          "type": "string"
        }
      ],
      "stateMutability": "pure",
      "type": "function"
    },
    {
      "inputs": [
        {
          "internalType": "uint256",
          "name": "tokenId",
          "type": "uint256"
        }
      ],
      "name": "tokenURI",
      "outputs": [
        {
          "internalType": "string",
          "name": "",
          "type": "string"
        }
      ],
      "stateMutability": "view",
      "type": "function"
    },
    {
      "inputs": [],
      "name": "totalBurned",
      "outputs": [
        {
          "internalType": "uint256",
          "name": "",
          "type": "uint256"
        }
      ],
      "stateMutability": "view",
      "type": "function"
    },
    {
      "inputs": [],
      "name": "totalMinted",
      "outputs": [
        {
          "internalType": "uint256",
          "name": "",
          "type": "uint256"
        }
      ],
      "stateMutability": "view",
      "type": "function"
    },
    {
      "inputs": [],
      "name": "totalSupply",
      "outputs": [
        {
          "internalType": "uint256",
          "name": "result",
          "type": "uint256"
        }
      ],
      "stateMutability": "view",
      "type": "function"
    },
    {
      "inputs": [
        {
          "internalType": "address",
          "name": "from",
          "type": "address"
        },
        {
          "internalType": "address",
          "name": "to",
          "type": "address"
        },
        {
          "internalType": "uint256",
          "name": "tokenId",
          "type": "uint256"
        }
      ],
      "name": "transferFrom",
      "outputs": [],
      "stateMutability": "payable",
      "type": "function"
    }
  ],
  "bytecode": "0x60806040526040516200223638038062002236833981016040819052620000269162000586565b6000805160206200221683398151915254610100900460ff166200005f57600080516020620022168339815191525460ff161562000063565b303b155b620000ca5760405162461bcd60e51b81526020600482015260376024820152600080516020620021d683398151915260448201527f20697320616c726561647920696e697469616c697a656400000000000000000060648201526084015b60405180910390fd5b6000805160206200221683398151915254610100900460ff16158015620001095760008051602062002216833981519152805461ffff19166101011790555b6200011684848462000141565b8015620001375760008051602062002216833981519152805461ff00191690555b5050505062000755565b6000805160206200221683398151915254610100900460ff16620001ac5760405162461bcd60e51b81526020600482015260346024820152600080516020620021d68339815191526044820152600080516020620021f68339815191526064820152608401620000c1565b620001b781620001eb565b620001c3838362000266565b620001cd62000367565b620001d98383620003d4565b620001e68383836200043f565b505050565b6000805160206200221683398151915254610100900460ff16620002565760405162461bcd60e51b81526020600482015260346024820152600080516020620021d68339815191526044820152600080516020620021f68339815191526064820152608401620000c1565b62000263816328f7503255565b50565b6000805160206200221683398151915254610100900460ff16620002d15760405162461bcd60e51b81526020600482015260346024820152600080516020620021d68339815191526044820152600080516020620021f68339815191526064820152608401620000c1565b7f2569078dfb4b0305704d3008e7403993ae9601b85f7ae5e742de3de8f8011c42620002fe838262000689565b507f2569078dfb4b0305704d3008e7403993ae9601b85f7ae5e742de3de8f8011c436200032c828262000689565b5062000337620004aa565b7f2569078dfb4b0305704d3008e7403993ae9601b85f7ae5e742de3de8f8011c4055620001e6620004aa565b5050565b6000805160206200221683398151915254610100900460ff16620003d25760405162461bcd60e51b81526020600482015260346024820152600080516020620021d68339815191526044820152600080516020620021f68339815191526064820152608401620000c1565b565b6000805160206200221683398151915254610100900460ff16620003635760405162461bcd60e51b81526020600482015260346024820152600080516020620021d68339815191526044820152600080516020620021f68339815191526064820152608401620000c1565b6000805160206200221683398151915254610100900460ff16620001e65760405162461bcd60e51b81526020600482015260346024820152600080516020620021d68339815191526044820152600080516020620021f68339815191526064820152608401620000c1565b6000620004b96328f750325490565b905090565b634e487b7160e01b600052604160045260246000fd5b600082601f830112620004e657600080fd5b81516001600160401b0380821115620005035762000503620004be565b604051601f8301601f19908116603f011681019082821181831017156200052e576200052e620004be565b81604052838152602092508660208588010111156200054c57600080fd5b600091505b8382101562000570578582018301518183018401529082019062000551565b6000602085830101528094505050505092915050565b6000806000606084860312156200059c57600080fd5b83516001600160401b0380821115620005b457600080fd5b620005c287838801620004d4565b94506020860151915080821115620005d957600080fd5b50620005e886828701620004d4565b925050604084015190509250925092565b600181811c908216806200060e57607f821691505b6020821081036200062f57634e487b7160e01b600052602260045260246000fd5b50919050565b601f821115620001e6576000816000526020600020601f850160051c81016020861015620006605750805b601f850160051c820191505b8181101562000681578281556001016200066c565b505050505050565b81516001600160401b03811115620006a557620006a5620004be565b620006bd81620006b68454620005f9565b8462000635565b602080601f831160018114620006f55760008415620006dc5750858301515b600019600386901b1c1916600185901b17855562000681565b600085815260208120601f198616915b82811015620007265788860151825594840194600190910190840162000705565b5085821015620007455787850151600019600388901b60f8161c191681555b5050505050600190811b01905550565b611a7180620007656000396000f3fe6080604052600436106101b95760003560e01c806370a08231116100ed578063a2309ff811610090578063a2309ff81461055f578063b88d4fde14610574578063bf0b175e14610587578063c87b56dd146105bf578063d89135cd146105df578063dc33e681146105f4578063e6798baa14610614578063e985e9c51461062c578063f25236331461064c57600080fd5b806370a082311461047557806375794a3c146104955780638529eea6146104aa5780638832e6e3146104ca57806395d89b41146104ea5780639fac68cb146104ff578063a14481941461051f578063a22cb4651461053f57600080fd5b806342966c681161016057806342966c68146102cb578063453ab141146102eb5780634b6c5d8c1461030b5780634f558e791461037457806352d8a4d11461039457806353b1233d146104005780636352211e146104205780636900a3ae146104405780636c0360eb1461046057600080fd5b806301ffc9a7146101be57806306fdde03146101f3578063081812fc14610215578063095ea7b31461024d57806318160ddd1461026257806323b872dd1461028557806340c10f191461029857806342842e0e146102b8575b600080fd5b3480156101ca57600080fd5b506101de6101d93660046115d0565b61066c565b60405190151581526020015b60405180910390f35b3480156101ff57600080fd5b506102086106be565b6040516101ea919061163d565b34801561022157600080fd5b50610235610230366004611650565b610759565b6040516001600160a01b0390911681526020016101ea565b61026061025b366004611680565b61079d565b005b34801561026e57600080fd5b506102776107ad565b6040519081526020016101ea565b6102606102933660046116aa565b6107f1565b3480156102a457600080fd5b506102606102b3366004611680565b6109a4565b6102606102c63660046116aa565b6109ae565b3480156102d757600080fd5b506102606102e6366004611650565b6109ce565b3480156102f757600080fd5b506102606103063660046116e6565b6109da565b34801561031757600080fd5b50610260610326366004611650565b60046020908152600091825260408083208054600160e01b9081179091557f2569078dfb4b0305704d3008e7403993ae9601b85f7ae5e742de3de8f8011c4490925290912080549091179055565b34801561038057600080fd5b506101de61038f366004611650565b6109e4565b3480156103a057600080fd5b506103b46103af366004611650565b6109ef565b6040516101ea919081516001600160a01b031681526020808301516001600160401b03169082015260408083015115159082015260609182015162ffffff169181019190915260800190565b34801561040c57600080fd5b5061026061041b366004611650565b610a00565b34801561042c57600080fd5b5061023561043b366004611650565b610a09565b34801561044c57600080fd5b5061020861045b366004611650565b610a14565b34801561046c57600080fd5b50610208610a1f565b34801561048157600080fd5b50610277610490366004611729565b610a3b565b3480156104a157600080fd5b50610277610a9a565b3480156104b657600080fd5b506102606104c5366004611680565b610aa4565b3480156104d657600080fd5b506102606104e53660046117e6565b610aae565b3480156104f657600080fd5b50610208610ab9565b34801561050b57600080fd5b5061026061051a36600461184c565b610ad1565b34801561052b57600080fd5b5061026061053a366004611680565b610adb565b34801561054b57600080fd5b5061026061055a366004611878565b610ae5565b34801561056b57600080fd5b50610277610b62565b6102606105823660046118a2565b610b6c565b34801561059357600080fd5b506105a76105a2366004611729565b610bad565b6040516001600160401b0390911681526020016101ea565b3480156105cb57600080fd5b506102086105da366004611650565b610bb8565b3480156105eb57600080fd5b50610277610c40565b34801561060057600080fd5b5061027761060f366004611729565b610c4a565b34801561062057600080fd5b506328f7503254610277565b34801561063857600080fd5b506101de610647366004611909565b610c55565b34801561065857600080fd5b506103b4610667366004611650565b610c92565b60006301ffc9a760e01b6001600160e01b03198316148061069d57506380ac58cd60e01b6001600160e01b03198316145b806106b85750635b5e139f60e01b6001600160e01b03198316145b92915050565b60606106c8610ca3565b60020180546106d690611933565b80601f016020809104026020016040519081016040528092919081815260200182805461070290611933565b801561074f5780601f106107245761010080835404028352916020019161074f565b820191906000526020600020905b81548152906001019060200180831161073257829003601f168201915b5050505050905090565b600061076482610cc7565b610778576107786333d1c03960e21b610d5f565b610780610ca3565b60009283526006016020525060409020546001600160a01b031690565b6107a982826001610d69565b5050565b60006107b7610e1a565b6107bf610ca3565b600101546107cb610ca3565b54030390506000196107db610e28565b146107ee576107e8610ca3565b60080154015b90565b60006107fc82610e2e565b6001600160a01b0394851694909150811684146108225761082262a1148160e81b610d5f565b60008061082e84610f29565b91509150610853818761083e3390565b6001600160a01b039081169116811491141790565b610875576108618633610c55565b61087557610875632ce44b5f60e11b610d5f565b801561088057600082555b610888610ca3565b6001600160a01b03871660009081526005919091016020526040902080546000190190556108b4610ca3565b6001600160a01b038616600090815260059190910160205260409020805460010190556108e585600160e11b610f51565b6108ed610ca3565b60008681526004919091016020526040812091909155600160e11b84169003610963576001840161091c610ca3565b6000828152600491909101602052604081205490036109615761093d610ca3565b548114610961578361094d610ca3565b600083815260049190910160205260409020555b505b6001600160a01b038516848188600080516020611a1c833981519152600080a48060000361099b5761099b633a954ecd60e21b610d5f565b50505050505050565b6107a98282610f66565b6109c983838360405180602001604052806000815250610b6c565b505050565b6109d781611063565b50565b6107a9828261106e565b60006106b882610cc7565b6109f7611593565b6106b8826110d7565b6109d7816110f0565b60006106b882610e2e565b60606106b882611135565b6060610a3660408051602081019091526000815290565b905090565b60006001600160a01b038216610a5b57610a5b6323d3ad8160e21b610d5f565b6001600160401b03610a6b610ca3565b6005016000846001600160a01b03166001600160a01b0316815260200190815260200160002054169050919050565b6000610a36611179565b6107a98282611189565b6109c9838383611195565b6060610ac3610ca3565b60030180546106d690611933565b6107a98282611209565b6107a98282611367565b80610aee610ca3565b336000818152600792909201602090815260408084206001600160a01b03881680865290835293819020805460ff19169515159590951790945592518415158152919290917f17307eab39ab6107e8899845ad3d59bd9653f200f220920489ca2b5937696c31910160405180910390a35050565b6000610a36611381565b610b778484846107f1565b6001600160a01b0383163b15610ba757610b93848484846113a2565b610ba757610ba76368d2bf6b60e11b610d5f565b50505050565b60006106b882611484565b6060610bc382610cc7565b610bd757610bd7630a14c4b560e41b610d5f565b6000610bee60408051602081019091526000815290565b90508051600003610c0e5760405180602001604052806000815250610c39565b80610c1884611135565b604051602001610c2992919061196d565b6040516020818303038152906040525b9392505050565b6000610a366114b7565b60006106b8826114ca565b6000610c5f610ca3565b6001600160a01b039384166000908152600791909101602090815260408083209490951682529290925250205460ff1690565b610c9a611593565b6106b88261150f565b7f2569078dfb4b0305704d3008e7403993ae9601b85f7ae5e742de3de8f8011c4090565b600081610cd2610e1a565b11610d5a57610cdf610e28565b821115610d09576106b8610cf1610ca3565b6000848152600491909101602052604090205461153a565b610d11610ca3565b54821015610d5a5760005b610d24610ca3565b600084815260049190910160205260408120549150819003610d5057610d498361199c565b9250610d1c565b600160e01b161590505b919050565b8060005260046000fd5b6000610d7483610a09565b9050818015610d8c5750336001600160a01b03821614155b15610daf57610d9b8133610c55565b610daf57610daf6367d9dca160e11b610d5f565b83610db8610ca3565b6000858152600691909101602052604080822080546001600160a01b0319166001600160a01b0394851617905551859287811692908516917f8c5be1e5ebec7d5bd14f71427d1e84f3dd0314c0f7b2291e5b200ac8c7c3b9259190a450505050565b6000610a366328f750325490565b60001990565b600081610e39610e1a565b11610f1957610e46610ca3565b600083815260049190910160205260409020549050610e63610e28565b821115610e8d57610e738161153a565b15610e7d57919050565b610e8d636f96cda160e11b610d5f565b80600003610f0657610e9d610ca3565b548210610eb457610eb4636f96cda160e11b610d5f565b610ebc610ca3565b600019909201600081815260049390930160205260409092205490508015610eb457600160e01b8116600003610ef157919050565b610f01636f96cda160e11b610d5f565b610eb4565b600160e01b8116600003610f1957919050565b610d5a636f96cda160e11b610d5f565b6000806000610f36610ca3565b60009485526006016020525050604090912080549092909150565b4260a01b176001600160a01b03919091161790565b6000610f70610ca3565b5490506000829003610f8c57610f8c63b562e8dd60e01b610d5f565b610f9c836001841460e11b610f51565b610fa4610ca3565b60008381526004919091016020526040902055680100000000000000018202610fcb610ca3565b6001600160a01b038516600081815260059290920160205260408220805490930190925581900361100557611005622e076360e81b610d5f565b81830182611011610e28565b60018303111561102b5761102b6340b23f1d60e11b610d5f565b5b80836000600080516020611a1c833981519152600080a481816001019150810361102c5781611059610ca3565b55506109c9915050565b6109d7816000611209565b6000611078610ca3565b6001600160a01b038416600090815260059190910160205260409020546001600160c01b031660c083901b17905081816110b0610ca3565b6001600160a01b039095166000908152600595909501602052604090942093909355505050565b6110df611593565b6106b86110eb83610e2e565b611550565b6110f8610ca3565b6000828152600491909101602052604081205490036109d75761111a81610e2e565b611122610ca3565b6000928352600401602052604090912055565b606060a06040510180604052602081039150506000815280825b600183039250600a81066030018353600a90048061114f5750819003601f19909101908152919050565b6000611183610ca3565b54919050565b6107a982826000610d69565b61119f8383610f66565b6001600160a01b0383163b156109c95760006111b9610ca3565b5490508281035b6111d360008683806001019450866113a2565b6111e7576111e76368d2bf6b60e11b610d5f565b8181106111c057816111f7610ca3565b541461120257600080fd5b5050505050565b600061121483610e2e565b90508060008061122386610f29565b91509150841561125a5761123881843361083e565b61125a576112468333610c55565b61125a5761125a632ce44b5f60e11b610d5f565b801561126557600082555b6001600160801b03611275610ca3565b6001600160a01b03851660009081526005919091016020526040902080549190910190556112a783600360e01b610f51565b6112af610ca3565b60008881526004919091016020526040812091909155600160e11b8516900361132557600186016112de610ca3565b600082815260049190910160205260408120549003611323576112ff610ca3565b548114611323578461130f610ca3565b600083815260049190910160205260409020555b505b60405186906000906001600160a01b03861690600080516020611a1c833981519152908390a4611353610ca3565b600190810180549091019055505050505050565b6107a9828260405180602001604052806000815250611195565b600061138b610e1a565b611393610ca3565b540390506000196107db610e28565b604051630a85bd0160e11b81526000906001600160a01b0385169063150b7a02906113d79033908990889088906004016119c1565b6020604051808303816000875af1925050508015611412575060408051601f3d908101601f1916820190925261140f918101906119fe565b60015b611467573d808015611440576040519150601f19603f3d011682016040523d82523d6000602084013e611445565b606091505b50805160000361145f5761145f6368d2bf6b60e11b610d5f565b805181602001fd5b6001600160e01b031916630a85bd0160e11b149050949350505050565b600060c0611490610ca3565b6001600160a01b03909316600090815260059390930160205260409092205490911c919050565b60006114c1610ca3565b60010154905090565b60006001600160401b0360406114de610ca3565b6005016000856001600160a01b03166001600160a01b0316815260200190815260200160002054901c169050919050565b611517611593565b6106b8611522610ca3565b60008481526004919091016020526040902054611550565b600160e01b81166001600160a01b039091161190565b611558611593565b6001600160a01b03821681526001600160401b0360a083901c166020820152600160e01b82161515604082015260e89190911c606082015290565b60408051608081018252600080825260208201819052918101829052606081019190915290565b6001600160e01b0319811681146109d757600080fd5b6000602082840312156115e257600080fd5b8135610c39816115ba565b60005b838110156116085781810151838201526020016115f0565b50506000910152565b600081518084526116298160208601602086016115ed565b601f01601f19169290920160200192915050565b602081526000610c396020830184611611565b60006020828403121561166257600080fd5b5035919050565b80356001600160a01b0381168114610d5a57600080fd5b6000806040838503121561169357600080fd5b61169c83611669565b946020939093013593505050565b6000806000606084860312156116bf57600080fd5b6116c884611669565b92506116d660208501611669565b9150604084013590509250925092565b600080604083850312156116f957600080fd5b61170283611669565b915060208301356001600160401b038116811461171e57600080fd5b809150509250929050565b60006020828403121561173b57600080fd5b610c3982611669565b634e487b7160e01b600052604160045260246000fd5b600082601f83011261176b57600080fd5b81356001600160401b038082111561178557611785611744565b604051601f8301601f19908116603f011681019082821181831017156117ad576117ad611744565b816040528381528660208588010111156117c657600080fd5b836020870160208301376000602085830101528094505050505092915050565b6000806000606084860312156117fb57600080fd5b61180484611669565b92506020840135915060408401356001600160401b0381111561182657600080fd5b6118328682870161175a565b9150509250925092565b80358015158114610d5a57600080fd5b6000806040838503121561185f57600080fd5b8235915061186f6020840161183c565b90509250929050565b6000806040838503121561188b57600080fd5b61189483611669565b915061186f6020840161183c565b600080600080608085870312156118b857600080fd5b6118c185611669565b93506118cf60208601611669565b92506040850135915060608501356001600160401b038111156118f157600080fd5b6118fd8782880161175a565b91505092959194509250565b6000806040838503121561191c57600080fd5b61192583611669565b915061186f60208401611669565b600181811c9082168061194757607f821691505b60208210810361196757634e487b7160e01b600052602260045260246000fd5b50919050565b6000835161197f8184602088016115ed565b8351908301906119938183602088016115ed565b01949350505050565b6000816119b957634e487b7160e01b600052601160045260246000fd5b506000190190565b6001600160a01b03858116825284166020820152604081018390526080606082018190526000906119f490830184611611565b9695505050505050565b600060208284031215611a1057600080fd5b8151610c39816115ba56feddf252ad1be2c89b69c2b068fc378daa952ba7f163c4a11628f55a4df523b3efa26469706673582212207c7c1f9a8d285a13088efacca9c12a218af17a8c9a92d5789761550daaf650b264736f6c63430008180033455243373231415f5f496e697469616c697a61626c653a20636f6e7472616374206973206e6f7420696e697469616c697a696e67000000000000000000000000ee151c8401928dc223602bb187aff91b9a56c7cae5476ef1b3287b085a16c85f",
  "linkReferences": {},
  "deployedLinkReferences": {}
}