{
  "_format": "hh-sol-artifact-1",
  "contractName": "ERC721AMockUpgradeableWithInit",
  "sourceName": "contracts/ERC721A-Upgradeable/contracts/mocks/WithInit.sol",
  "abi": [
    {
      "inputs": [
        {
          "internalType": "string",
          "name": "name_",
          "type": "string"
        },
        {
          "internalType": "string",
          "name": "symbol_",
          "type": "string"
        }
      ],
      "stateMutability": "payable",
      "type": "constructor"
    },
    {
      "inputs": [],
      "name": "ApprovalCallerNotOwnerNorApproved",
      "type": "error"
    },
    {
      "inputs": [],
      "name": "ApprovalQueryForNonexistentToken",
      "type": "error"
    },
    {
      "inputs": [],
      "name": "BalanceQueryForZeroAddress",
      "type": "error"
    },
    {
      "inputs": [],
      "name": "MintERC2309QuantityExceedsLimit",
      "type": "error"
    },
    {
      "inputs": [],
      "name": "MintToZeroAddress",
      "type": "error"
    },
    {
      "inputs": [],
      "name": "MintZeroQuantity",
      "type": "error"
    },
    {
      "inputs": [],
      "name": "NotCompatibleWithSpotMints",
      "type": "error"
    },
    {
      "inputs": [],
      "name": "OwnerQueryForNonexistentToken",
      "type": "error"
    },
    {
      "inputs": [],
      "name": "OwnershipNotInitializedForExtraData",
      "type": "error"
    },
    {
      "inputs": [],
      "name": "SequentialMintExceedsLimit",
      "type": "error"
    },
    {
      "inputs": [],
      "name": "SequentialUpToTooSmall",
      "type": "error"
    },
    {
      "inputs": [],
      "name": "SpotMintTokenIdTooSmall",
      "type": "error"
    },
    {
      "inputs": [],
      "name": "TokenAlreadyExists",
      "type": "error"
    },
    {
      "inputs": [],
      "name": "TransferCallerNotOwnerNorApproved",
      "type": "error"
    },
    {
      "inputs": [],
      "name": "TransferFromIncorrectOwner",
      "type": "error"
    },
    {
      "inputs": [],
      "name": "TransferToNonERC721ReceiverImplementer",
      "type": "error"
    },
    {
      "inputs": [],
      "name": "TransferToZeroAddress",
      "type": "error"
    },
    {
      "inputs": [],
      "name": "URIQueryForNonexistentToken",
      "type": "error"
    },
    {
      "anonymous": false,
      "inputs": [
        {
          "indexed": true,
          "internalType": "address",
          "name": "owner",
          "type": "address"
        },
        {
          "indexed": true,
          "internalType": "address",
          "name": "approved",
          "type": "address"
        },
        {
          "indexed": true,
          "internalType": "uint256",
          "name": "tokenId",
          "type": "uint256"
        }
      ],
      "name": "Approval",
      "type": "event"
    },
    {
      "anonymous": false,
      "inputs": [
        {
          "indexed": true,
          "internalType": "address",
          "name": "owner",
          "type": "address"
        },
        {
          "indexed": true,
          "internalType": "address",
          "name": "operator",
          "type": "address"
        },
        {
          "indexed": false,
          "internalType": "bool",
          "name": "approved",
          "type": "bool"
        }
      ],
      "name": "ApprovalForAll",
      "type": "event"
    },
    {
      "anonymous": false,
      "inputs": [
        {
          "indexed": true,
          "internalType": "uint256",
          "name": "fromTokenId",
          "type": "uint256"
        },
        {
          "indexed": false,
          "internalType": "uint256",
          "name": "toTokenId",
          "type": "uint256"
        },
        {
          "indexed": true,
          "internalType": "address",
          "name": "from",
          "type": "address"
        },
        {
          "indexed": true,
          "internalType": "address",
          "name": "to",
          "type": "address"
        }
      ],
      "name": "ConsecutiveTransfer",
      "type": "event"
    },
    {
      "anonymous": false,
      "inputs": [
        {
          "indexed": true,
          "internalType": "address",
          "name": "from",
          "type": "address"
        },
        {
          "indexed": true,
          "internalType": "address",
          "name": "to",
          "type": "address"
        },
        {
          "indexed": true,
          "internalType": "uint256",
          "name": "tokenId",
          "type": "uint256"
        }
      ],
      "name": "Transfer",
      "type": "event"
    },
    {
      "inputs": [
        {
          "internalType": "address",
          "name": "to",
          "type": "address"
        },
        {
          "internalType": "uint256",
          "name": "tokenId",
          "type": "uint256"
        }
      ],
      "name": "approve",
      "outputs": [],
      "stateMutability": "payable",
      "type": "function"
    },
    {
      "inputs": [
        {
          "internalType": "address",
          "name": "owner",
          "type": "address"
        }
      ],
      "name": "balanceOf",
      "outputs": [
        {
          "internalType": "uint256",
          "name": "",
          "type": "uint256"
        }
      ],
      "stateMutability": "view",
      "type": "function"
    },
    {
      "inputs": [],
      "name": "baseURI",
      "outputs": [
        {
          "internalType": "string",
          "name": "",
          "type": "string"
        }
      ],
      "stateMutability": "view",
      "type": "function"
    },
    {
      "inputs": [
        {
          "internalType": "uint256",
          "name": "tokenId",
          "type": "uint256"
        }
      ],
      "name": "burn",
      "outputs": [],
      "stateMutability": "nonpayable",
      "type": "function"
    },
    {
      "inputs": [
        {
          "internalType": "uint256",
          "name": "tokenId",
          "type": "uint256"
        },
        {
          "internalType": "bool",
          "name": "approvalCheck",
          "type": "bool"
        }
      ],
      "name": "burn",
      "outputs": [],
      "stateMutability": "nonpayable",
      "type": "function"
    },
    {
      "inputs": [
        {
          "internalType": "address",
          "name": "to",
          "type": "address"
        },
        {
          "internalType": "uint256",
          "name": "tokenId",
          "type": "uint256"
        }
      ],
      "name": "directApprove",
      "outputs": [],
      "stateMutability": "nonpayable",
      "type": "function"
    },
    {
      "inputs": [
        {
          "internalType": "uint256",
          "name": "index",
          "type": "uint256"
        }
      ],
      "name": "directSetBurnBit",
      "outputs": [],
      "stateMutability": "nonpayable",
      "type": "function"
    },
    {
      "inputs": [
        {
          "internalType": "uint256",
          "name": "tokenId",
          "type": "uint256"
        }
      ],
      "name": "exists",
      "outputs": [
        {
          "internalType": "bool",
          "name": "",
          "type": "bool"
        }
      ],
      "stateMutability": "view",
      "type": "function"
    },
    {
      "inputs": [
        {
          "internalType": "uint256",
          "name": "tokenId",
          "type": "uint256"
        }
      ],
      "name": "getApproved",
      "outputs": [
        {
          "internalType": "address",
          "name": "",
          "type": "address"
        }
      ],
      "stateMutability": "view",
      "type": "function"
    },
    {
      "inputs": [
        {
          "internalType": "address",
          "name": "owner",
          "type": "address"
        }
      ],
      "name": "getAux",
      "outputs": [
        {
          "internalType": "uint64",
          "name": "",
          "type": "uint64"
        }
      ],
      "stateMutability": "view",
      "type": "function"
    },
    {
      "inputs": [
        {
          "internalType": "uint256",
          "name": "index",
          "type": "uint256"
        }
      ],
      "name": "getOwnershipAt",
      "outputs": [
        {
          "components": [
            {
              "internalType": "address",
              "name": "addr",
              "type": "address"
            },
            {
              "internalType": "uint64",
              "name": "startTimestamp",
              "type": "uint64"
            },
            {
              "internalType": "bool",
              "name": "burned",
              "type": "bool"
            },
            {
              "internalType": "uint24",
              "name": "extraData",
              "type": "uint24"
            }
          ],
          "internalType": "struct IERC721AUpgradeable.TokenOwnership",
          "name": "",
          "type": "tuple"
        }
      ],
      "stateMutability": "view",
      "type": "function"
    },
    {
      "inputs": [
        {
          "internalType": "uint256",
          "name": "index",
          "type": "uint256"
        }
      ],
      "name": "getOwnershipOf",
      "outputs": [
        {
          "components": [
            {
              "internalType": "address",
              "name": "addr",
              "type": "address"
            },
            {
              "internalType": "uint64",
              "name": "startTimestamp",
              "type": "uint64"
            },
            {
              "internalType": "bool",
              "name": "burned",
              "type": "bool"
            },
            {
              "internalType": "uint24",
              "name": "extraData",
              "type": "uint24"
            }
          ],
          "internalType": "struct IERC721AUpgradeable.TokenOwnership",
          "name": "",
          "type": "tuple"
        }
      ],
      "stateMutability": "view",
      "type": "function"
    },
    {
      "inputs": [
        {
          "internalType": "uint256",
          "name": "index",
          "type": "uint256"
        }
      ],
      "name": "initializeOwnershipAt",
      "outputs": [],
      "stateMutability": "nonpayable",
      "type": "function"
    },
    {
      "inputs": [
        {
          "internalType": "address",
          "name": "owner",
          "type": "address"
        },
        {
          "internalType": "address",
          "name": "operator",
          "type": "address"
        }
      ],
      "name": "isApprovedForAll",
      "outputs": [
        {
          "internalType": "bool",
          "name": "",
          "type": "bool"
        }
      ],
      "stateMutability": "view",
      "type": "function"
    },
    {
      "inputs": [
        {
          "internalType": "address",
          "name": "to",
          "type": "address"
        },
        {
          "internalType": "uint256",
          "name": "quantity",
          "type": "uint256"
        }
      ],
      "name": "mint",
      "outputs": [],
      "stateMutability": "nonpayable",
      "type": "function"
    },
    {
      "inputs": [],
      "name": "name",
      "outputs": [
        {
          "internalType": "string",
          "name": "",
          "type": "string"
        }
      ],
      "stateMutability": "view",
      "type": "function"
    },
    {
      "inputs": [],
      "name": "nextTokenId",
      "outputs": [
        {
          "internalType": "uint256",
          "name": "",
          "type": "uint256"
        }
      ],
      "stateMutability": "view",
      "type": "function"
    },
    {
      "inputs": [
        {
          "internalType": "address",
          "name": "owner",
          "type": "address"
        }
      ],
      "name": "numberMinted",
      "outputs": [
        {
          "internalType": "uint256",
          "name": "",
          "type": "uint256"
        }
      ],
      "stateMutability": "view",
      "type": "function"
    },
    {
      "inputs": [
        {
          "internalType": "uint256",
          "name": "tokenId",
          "type": "uint256"
        }
      ],
      "name": "ownerOf",
      "outputs": [
        {
          "internalType": "address",
          "name": "",
          "type": "address"
        }
      ],
      "stateMutability": "view",
      "type": "function"
    },
    {
      "inputs": [
        {
          "internalType": "address",
          "name": "to",
          "type": "address"
        },
        {
          "internalType": "uint256",
          "name": "quantity",
          "type": "uint256"
        },
        {
          "internalType": "bytes",
          "name": "_data",
          "type": "bytes"
        }
      ],
      "name": "safeMint",
      "outputs": [],
      "stateMutability": "nonpayable",
      "type": "function"
    },
    {
      "inputs": [
        {
          "internalType": "address",
          "name": "to",
          "type": "address"
        },
        {
          "internalType": "uint256",
          "name": "quantity",
          "type": "uint256"
        }
      ],
      "name": "safeMint",
      "outputs": [],
      "stateMutability": "nonpayable",
      "type": "function"
    },
    {
      "inputs": [
        {
          "internalType": "address",
          "name": "from",
          "type": "address"
        },
        {
          "internalType": "address",
          "name": "to",
          "type": "address"
        },
        {
          "internalType": "uint256",
          "name": "tokenId",
          "type": "uint256"
        }
      ],
      "name": "safeTransferFrom",
      "outputs": [],
      "stateMutability": "payable",
      "type": "function"
    },
    {
      "inputs": [
        {
          "internalType": "address",
          "name": "from",
          "type": "address"
        },
        {
          "internalType": "address",
          "name": "to",
          "type": "address"
        },
        {
          "internalType": "uint256",
          "name": "tokenId",
          "type": "uint256"
        },
        {
          "internalType": "bytes",
          "name": "_data",
          "type": "bytes"
        }
      ],
      "name": "safeTransferFrom",
      "outputs": [],
      "stateMutability": "payable",
      "type": "function"
    },
    {
      "inputs": [
        {
          "internalType": "address",
          "name": "operator",
          "type": "address"
        },
        {
          "internalType": "bool",
          "name": "approved",
          "type": "bool"
        }
      ],
      "name": "setApprovalForAll",
      "outputs": [],
      "stateMutability": "nonpayable",
      "type": "function"
    },
    {
      "inputs": [
        {
          "internalType": "address",
          "name": "owner",
          "type": "address"
        },
        {
          "internalType": "uint64",
          "name": "aux",
          "type": "uint64"
        }
      ],
      "name": "setAux",
      "outputs": [],
      "stateMutability": "nonpayable",
      "type": "function"
    },
    {
      "inputs": [
        {
          "internalType": "bytes4",
          "name": "interfaceId",
          "type": "bytes4"
        }
      ],
      "name": "supportsInterface",
      "outputs": [
        {
          "internalType": "bool",
          "name": "",
          "type": "bool"
        }
      ],
      "stateMutability": "view",
      "type": "function"
    },
    {
      "inputs": [],
      "name": "symbol",
      "outputs": [
        {
          "internalType": "string",
          "name": "",
          "type": "string"
        }
      ],
      "stateMutability": "view",
      "type": "function"
    },
    {
      "inputs": [
        {
          "internalType": "uint256",
          "name": "x",
          "type": "uint256"
        }
      ],
      "name": "toString",
      "outputs": [
        {
          "internalType": "string",
          "name": "",
          "type": "string"
        }
      ],
      "stateMutability": "pure",
      "type": "function"
    },
    {
      "inputs": [
        {
          "internalType": "uint256",
          "name": "tokenId",
          "type": "uint256"
        }
      ],
      "name": "tokenURI",
      "outputs": [
        {
          "internalType": "string",
          "name": "",
          "type": "string"
        }
      ],
      "stateMutability": "view",
      "type": "function"
    },
    {
      "inputs": [],
      "name": "totalBurned",
      "outputs": [
        {
          "internalType": "uint256",
          "name": "",
          "type": "uint256"
        }
      ],
      "stateMutability": "view",
      "type": "function"
    },
    {
      "inputs": [],
      "name": "totalMinted",
      "outputs": [
        {
          "internalType": "uint256",
          "name": "",
          "type": "uint256"
        }
      ],
      "stateMutability": "view",
      "type": "function"
    },
    {
      "inputs": [],
      "name": "totalSupply",
      "outputs": [
        {
          "internalType": "uint256",
          "name": "result",
          "type": "uint256"
        }
      ],
      "stateMutability": "view",
      "type": "function"
    },
    {
      "inputs": [
        {
          "internalType": "address",
          "name": "from",
          "type": "address"
        },
        {
          "internalType": "address",
          "name": "to",
          "type": "address"
        },
        {
          "internalType": "uint256",
          "name": "tokenId",
          "type": "uint256"
        }
      ],
      "name": "transferFrom",
      "outputs": [],
      "stateMutability": "payable",
      "type": "function"
    }
  ],
  "bytecode": "0x6080604052604051620020ac380380620020ac83398101604081905262000026916200045f565b6000805160206200208c83398151915254610100900460ff166200005f576000805160206200208c8339815191525460ff161562000063565b303b155b620000ca5760405162461bcd60e51b815260206004820152603760248201526000805160206200204c83398151915260448201527f20697320616c726561647920696e697469616c697a656400000000000000000060648201526084015b60405180910390fd5b6000805160206200208c83398151915254610100900460ff1615801562000109576000805160206200208c833981519152805461ffff19166101011790555b6200011583836200013f565b801562000136576000805160206200208c833981519152805461ff00191690555b50505062000626565b6000805160206200208c83398151915254610100900460ff16620001aa5760405162461bcd60e51b815260206004820152603460248201526000805160206200204c83398151915260448201526000805160206200206c8339815191526064820152608401620000c1565b620001b68282620001d0565b620001c0620002bf565b620001cc82826200032c565b5050565b6000805160206200208c83398151915254610100900460ff166200023b5760405162461bcd60e51b815260206004820152603460248201526000805160206200204c83398151915260448201526000805160206200206c8339815191526064820152608401620000c1565b7f2569078dfb4b0305704d3008e7403993ae9601b85f7ae5e742de3de8f8011c426200026883826200055a565b507f2569078dfb4b0305704d3008e7403993ae9601b85f7ae5e742de3de8f8011c436200029682826200055a565b5060007f2569078dfb4b0305704d3008e7403993ae9601b85f7ae5e742de3de8f8011c40555050565b6000805160206200208c83398151915254610100900460ff166200032a5760405162461bcd60e51b815260206004820152603460248201526000805160206200204c83398151915260448201526000805160206200206c8339815191526064820152608401620000c1565b565b6000805160206200208c83398151915254610100900460ff16620001cc5760405162461bcd60e51b815260206004820152603460248201526000805160206200204c83398151915260448201526000805160206200206c8339815191526064820152608401620000c1565b634e487b7160e01b600052604160045260246000fd5b600082601f830112620003bf57600080fd5b81516001600160401b0380821115620003dc57620003dc62000397565b604051601f8301601f19908116603f0116810190828211818310171562000407576200040762000397565b81604052838152602092508660208588010111156200042557600080fd5b600091505b838210156200044957858201830151818301840152908201906200042a565b6000602085830101528094505050505092915050565b600080604083850312156200047357600080fd5b82516001600160401b03808211156200048b57600080fd5b6200049986838701620003ad565b93506020850151915080821115620004b057600080fd5b50620004bf85828601620003ad565b9150509250929050565b600181811c90821680620004de57607f821691505b602082108103620004ff57634e487b7160e01b600052602260045260246000fd5b50919050565b601f82111562000555576000816000526020600020601f850160051c81016020861015620005305750805b601f850160051c820191505b8181101562000551578281556001016200053c565b5050505b505050565b81516001600160401b0381111562000576576200057662000397565b6200058e81620005878454620004c9565b8462000505565b602080601f831160018114620005c65760008415620005ad5750858301515b600019600386901b1c1916600185901b17855562000551565b600085815260208120601f198616915b82811015620005f757888601518255948401946001909101908401620005d6565b5085821015620006165787850151600019600388901b60f8161c191681555b5050505050600190811b01905550565b611a1680620006366000396000f3fe6080604052600436106101ae5760003560e01c80636c0360eb116100ed578063a22cb46511610090578063a22cb46514610534578063a2309ff814610554578063b88d4fde14610569578063bf0b175e1461057c578063c87b56dd146105b4578063d89135cd146105d4578063dc33e681146105e9578063e985e9c514610609578063f25236331461062957600080fd5b80636c0360eb1461045557806370a082311461046a57806375794a3c1461048a5780638529eea61461049f5780638832e6e3146104bf57806395d89b41146104df5780639fac68cb146104f4578063a14481941461051457600080fd5b806342966c681161015557806342966c68146102c0578063453ab141146102e05780634b6c5d8c146103005780634f558e791461036957806352d8a4d11461038957806353b1233d146103f55780636352211e146104155780636900a3ae1461043557600080fd5b806301ffc9a7146101b357806306fdde03146101e8578063081812fc1461020a578063095ea7b31461024257806318160ddd1461025757806323b872dd1461027a57806340c10f191461028d57806342842e0e146102ad575b600080fd5b3480156101bf57600080fd5b506101d36101ce366004611575565b610649565b60405190151581526020015b60405180910390f35b3480156101f457600080fd5b506101fd61069b565b6040516101df91906115e2565b34801561021657600080fd5b5061022a6102253660046115f5565b610736565b6040516001600160a01b0390911681526020016101df565b610255610250366004611625565b61077a565b005b34801561026357600080fd5b5061026c61078a565b6040519081526020016101df565b61025561028836600461164f565b6107c7565b34801561029957600080fd5b506102556102a8366004611625565b61097a565b6102556102bb36600461164f565b610984565b3480156102cc57600080fd5b506102556102db3660046115f5565b6109a4565b3480156102ec57600080fd5b506102556102fb36600461168b565b6109b0565b34801561030c57600080fd5b5061025561031b3660046115f5565b60046020908152600091825260408083208054600160e01b9081179091557f2569078dfb4b0305704d3008e7403993ae9601b85f7ae5e742de3de8f8011c4490925290912080549091179055565b34801561037557600080fd5b506101d36103843660046115f5565b6109ba565b34801561039557600080fd5b506103a96103a43660046115f5565b6109c5565b6040516101df919081516001600160a01b031681526020808301516001600160401b03169082015260408083015115159082015260609182015162ffffff169181019190915260800190565b34801561040157600080fd5b506102556104103660046115f5565b6109d6565b34801561042157600080fd5b5061022a6104303660046115f5565b6109df565b34801561044157600080fd5b506101fd6104503660046115f5565b6109ea565b34801561046157600080fd5b506101fd6109f5565b34801561047657600080fd5b5061026c6104853660046116ce565b610a11565b34801561049657600080fd5b5061026c610a70565b3480156104ab57600080fd5b506102556104ba366004611625565b610a7a565b3480156104cb57600080fd5b506102556104da36600461178b565b610a84565b3480156104eb57600080fd5b506101fd610a8f565b34801561050057600080fd5b5061025561050f3660046117f1565b610aa7565b34801561052057600080fd5b5061025561052f366004611625565b610ab1565b34801561054057600080fd5b5061025561054f36600461181d565b610abb565b34801561056057600080fd5b5061026c610b38565b610255610577366004611847565b610b42565b34801561058857600080fd5b5061059c6105973660046116ce565b610b83565b6040516001600160401b0390911681526020016101df565b3480156105c057600080fd5b506101fd6105cf3660046115f5565b610b8e565b3480156105e057600080fd5b5061026c610c16565b3480156105f557600080fd5b5061026c6106043660046116ce565b610c20565b34801561061557600080fd5b506101d36106243660046118ae565b610c2b565b34801561063557600080fd5b506103a96106443660046115f5565b610c68565b60006301ffc9a760e01b6001600160e01b03198316148061067a57506380ac58cd60e01b6001600160e01b03198316145b806106955750635b5e139f60e01b6001600160e01b03198316145b92915050565b60606106a5610c79565b60020180546106b3906118d8565b80601f01602080910402602001604051908101604052809291908181526020018280546106df906118d8565b801561072c5780601f106107015761010080835404028352916020019161072c565b820191906000526020600020905b81548152906001019060200180831161070f57829003601f168201915b5050505050905090565b600061074182610c9d565b610755576107556333d1c03960e21b610d27565b61075d610c79565b60009283526006016020525060409020546001600160a01b031690565b61078682826001610d31565b5050565b600080610795610c79565b600101546107a1610c79565b54030390506000196107b1610de2565b146107c4576107be610c79565b60080154015b90565b60006107d282610de8565b6001600160a01b0394851694909150811684146107f8576107f862a1148160e81b610d27565b60008061080484610ed5565b9150915061082981876108143390565b6001600160a01b039081169116811491141790565b61084b576108378633610c2b565b61084b5761084b632ce44b5f60e11b610d27565b801561085657600082555b61085e610c79565b6001600160a01b038716600090815260059190910160205260409020805460001901905561088a610c79565b6001600160a01b038616600090815260059190910160205260409020805460010190556108bb85600160e11b610efd565b6108c3610c79565b60008681526004919091016020526040812091909155600160e11b8416900361093957600184016108f2610c79565b60008281526004919091016020526040812054900361093757610913610c79565b5481146109375783610923610c79565b600083815260049190910160205260409020555b505b6001600160a01b0385168481886000805160206119c1833981519152600080a48060000361097157610971633a954ecd60e21b610d27565b50505050505050565b6107868282610f12565b61099f83838360405180602001604052806000815250610b42565b505050565b6109ad8161100f565b50565b610786828261101a565b600061069582610c9d565b6109cd611538565b61069582611083565b6109ad8161109c565b600061069582610de8565b6060610695826110e1565b6060610a0c60408051602081019091526000815290565b905090565b60006001600160a01b038216610a3157610a316323d3ad8160e21b610d27565b6001600160401b03610a41610c79565b6005016000846001600160a01b03166001600160a01b0316815260200190815260200160002054169050919050565b6000610a0c611125565b6107868282611135565b61099f838383611141565b6060610a99610c79565b60030180546106b3906118d8565b61078682826111b5565b6107868282611313565b80610ac4610c79565b336000818152600792909201602090815260408084206001600160a01b03881680865290835293819020805460ff19169515159590951790945592518415158152919290917f17307eab39ab6107e8899845ad3d59bd9653f200f220920489ca2b5937696c31910160405180910390a35050565b6000610a0c61132d565b610b4d8484846107c7565b6001600160a01b0383163b15610b7d57610b6984848484611347565b610b7d57610b7d6368d2bf6b60e11b610d27565b50505050565b600061069582611429565b6060610b9982610c9d565b610bad57610bad630a14c4b560e41b610d27565b6000610bc460408051602081019091526000815290565b90508051600003610be45760405180602001604052806000815250610c0f565b80610bee846110e1565b604051602001610bff929190611912565b6040516020818303038152906040525b9392505050565b6000610a0c61145c565b60006106958261146f565b6000610c35610c79565b6001600160a01b039384166000908152600791909101602090815260408083209490951682529290925250205460ff1690565b610c70611538565b610695826114b4565b7f2569078dfb4b0305704d3008e7403993ae9601b85f7ae5e742de3de8f8011c4090565b6000610ca7610de2565b821115610cd157610695610cb9610c79565b600084815260049190910160205260409020546114df565b610cd9610c79565b54821015610d225760005b610cec610c79565b600084815260049190910160205260408120549150819003610d1857610d1183611941565b9250610ce4565b600160e01b161590505b919050565b8060005260046000fd5b6000610d3c836109df565b9050818015610d545750336001600160a01b03821614155b15610d7757610d638133610c2b565b610d7757610d776367d9dca160e11b610d27565b83610d80610c79565b6000858152600691909101602052604080822080546001600160a01b0319166001600160a01b0394851617905551859287811692908516917f8c5be1e5ebec7d5bd14f71427d1e84f3dd0314c0f7b2291e5b200ac8c7c3b9259190a450505050565b60001990565b6000610df2610c79565b600083815260049190910160205260409020549050610e0f610de2565b821115610e3957610e1f816114df565b15610e2957919050565b610e39636f96cda160e11b610d27565b80600003610eb257610e49610c79565b548210610e6057610e60636f96cda160e11b610d27565b610e68610c79565b600019909201600081815260049390930160205260409092205490508015610e6057600160e01b8116600003610e9d57919050565b610ead636f96cda160e11b610d27565b610e60565b600160e01b8116600003610ec557919050565b610d22636f96cda160e11b610d27565b6000806000610ee2610c79565b60009485526006016020525050604090912080549092909150565b4260a01b176001600160a01b03919091161790565b6000610f1c610c79565b5490506000829003610f3857610f3863b562e8dd60e01b610d27565b610f48836001841460e11b610efd565b610f50610c79565b60008381526004919091016020526040902055680100000000000000018202610f77610c79565b6001600160a01b0385166000818152600592909201602052604082208054909301909255819003610fb157610fb1622e076360e81b610d27565b81830182610fbd610de2565b600183031115610fd757610fd76340b23f1d60e11b610d27565b5b808360006000805160206119c1833981519152600080a4818160010191508103610fd85781611005610c79565b555061099f915050565b6109ad8160006111b5565b6000611024610c79565b6001600160a01b038416600090815260059190910160205260409020546001600160c01b031660c083901b179050818161105c610c79565b6001600160a01b039095166000908152600595909501602052604090942093909355505050565b61108b611538565b61069561109783610de8565b6114f5565b6110a4610c79565b6000828152600491909101602052604081205490036109ad576110c681610de8565b6110ce610c79565b6000928352600401602052604090912055565b606060a06040510180604052602081039150506000815280825b600183039250600a81066030018353600a9004806110fb5750819003601f19909101908152919050565b600061112f610c79565b54919050565b61078682826000610d31565b61114b8383610f12565b6001600160a01b0383163b1561099f576000611165610c79565b5490508281035b61117f6000868380600101945086611347565b611193576111936368d2bf6b60e11b610d27565b81811061116c57816111a3610c79565b54146111ae57600080fd5b5050505050565b60006111c083610de8565b9050806000806111cf86610ed5565b915091508415611206576111e4818433610814565b611206576111f28333610c2b565b61120657611206632ce44b5f60e11b610d27565b801561121157600082555b6001600160801b03611221610c79565b6001600160a01b038516600090815260059190910160205260409020805491909101905561125383600360e01b610efd565b61125b610c79565b60008881526004919091016020526040812091909155600160e11b851690036112d1576001860161128a610c79565b6000828152600491909101602052604081205490036112cf576112ab610c79565b5481146112cf57846112bb610c79565b600083815260049190910160205260409020555b505b60405186906000906001600160a01b038616906000805160206119c1833981519152908390a46112ff610c79565b600190810180549091019055505050505050565b610786828260405180602001604052806000815250611141565b600080611338610c79565b540390506000196107b1610de2565b604051630a85bd0160e11b81526000906001600160a01b0385169063150b7a029061137c903390899088908890600401611966565b6020604051808303816000875af19250505080156113b7575060408051601f3d908101601f191682019092526113b4918101906119a3565b60015b61140c573d8080156113e5576040519150601f19603f3d011682016040523d82523d6000602084013e6113ea565b606091505b508051600003611404576114046368d2bf6b60e11b610d27565b805181602001fd5b6001600160e01b031916630a85bd0160e11b149050949350505050565b600060c0611435610c79565b6001600160a01b03909316600090815260059390930160205260409092205490911c919050565b6000611466610c79565b60010154905090565b60006001600160401b036040611483610c79565b6005016000856001600160a01b03166001600160a01b0316815260200190815260200160002054901c169050919050565b6114bc611538565b6106956114c7610c79565b600084815260049190910160205260409020546114f5565b600160e01b81166001600160a01b039091161190565b6114fd611538565b6001600160a01b03821681526001600160401b0360a083901c166020820152600160e01b82161515604082015260e89190911c606082015290565b60408051608081018252600080825260208201819052918101829052606081019190915290565b6001600160e01b0319811681146109ad57600080fd5b60006020828403121561158757600080fd5b8135610c0f8161155f565b60005b838110156115ad578181015183820152602001611595565b50506000910152565b600081518084526115ce816020860160208601611592565b601f01601f19169290920160200192915050565b602081526000610c0f60208301846115b6565b60006020828403121561160757600080fd5b5035919050565b80356001600160a01b0381168114610d2257600080fd5b6000806040838503121561163857600080fd5b6116418361160e565b946020939093013593505050565b60008060006060848603121561166457600080fd5b61166d8461160e565b925061167b6020850161160e565b9150604084013590509250925092565b6000806040838503121561169e57600080fd5b6116a78361160e565b915060208301356001600160401b03811681146116c357600080fd5b809150509250929050565b6000602082840312156116e057600080fd5b610c0f8261160e565b634e487b7160e01b600052604160045260246000fd5b600082601f83011261171057600080fd5b81356001600160401b038082111561172a5761172a6116e9565b604051601f8301601f19908116603f01168101908282118183101715611752576117526116e9565b8160405283815286602085880101111561176b57600080fd5b836020870160208301376000602085830101528094505050505092915050565b6000806000606084860312156117a057600080fd5b6117a98461160e565b92506020840135915060408401356001600160401b038111156117cb57600080fd5b6117d7868287016116ff565b9150509250925092565b80358015158114610d2257600080fd5b6000806040838503121561180457600080fd5b82359150611814602084016117e1565b90509250929050565b6000806040838503121561183057600080fd5b6118398361160e565b9150611814602084016117e1565b6000806000806080858703121561185d57600080fd5b6118668561160e565b93506118746020860161160e565b92506040850135915060608501356001600160401b0381111561189657600080fd5b6118a2878288016116ff565b91505092959194509250565b600080604083850312156118c157600080fd5b6118ca8361160e565b91506118146020840161160e565b600181811c908216806118ec57607f821691505b60208210810361190c57634e487b7160e01b600052602260045260246000fd5b50919050565b60008351611924818460208801611592565b835190830190611938818360208801611592565b01949350505050565b60008161195e57634e487b7160e01b600052601160045260246000fd5b506000190190565b6001600160a01b0385811682528416602082015260408101839052608060608201819052600090611999908301846115b6565b9695505050505050565b6000602082840312156119b557600080fd5b8151610c0f8161155f56feddf252ad1be2c89b69c2b068fc378daa952ba7f163c4a11628f55a4df523b3efa2646970667358221220e13dece18d939009e17598ce2f8eeeacdb837ca86b2683fa40f0e3ae71ca90c264736f6c63430008180033455243373231415f5f496e697469616c697a61626c653a20636f6e7472616374206973206e6f7420696e697469616c697a696e67000000000000000000000000ee151c8401928dc223602bb187aff91b9a56c7cae5476ef1b3287b085a16c85f",
  "linkReferences": {},
  "deployedLinkReferences": {}
}