{
  "_format": "hh-sol-artifact-1",
  "contractName": "ERC721AWithERC2309MockUpgradeableWithInit",
  "sourceName": "contracts/ERC721A-Upgradeable/contracts/mocks/WithInit.sol",
  "abi": [
    {
      "inputs": [
        {
          "internalType": "string",
          "name": "name_",
          "type": "string"
        },
        {
          "internalType": "string",
          "name": "symbol_",
          "type": "string"
        },
        {
          "internalType": "address",
          "name": "to",
          "type": "address"
        },
        {
          "internalType": "uint256",
          "name": "quantity",
          "type": "uint256"
        },
        {
          "internalType": "bool",
          "name": "mintInConstructor",
          "type": "bool"
        }
      ],
      "stateMutability": "payable",
      "type": "constructor"
    },
    {
      "inputs": [],
      "name": "ApprovalCallerNotOwnerNorApproved",
      "type": "error"
    },
    {
      "inputs": [],
      "name": "ApprovalQueryForNonexistentToken",
      "type": "error"
    },
    {
      "inputs": [],
      "name": "BalanceQueryForZeroAddress",
      "type": "error"
    },
    {
      "inputs": [],
      "name": "MintERC2309QuantityExceedsLimit",
      "type": "error"
    },
    {
      "inputs": [],
      "name": "MintToZeroAddress",
      "type": "error"
    },
    {
      "inputs": [],
      "name": "MintZeroQuantity",
      "type": "error"
    },
    {
      "inputs": [],
      "name": "NotCompatibleWithSpotMints",
      "type": "error"
    },
    {
      "inputs": [],
      "name": "OwnerQueryForNonexistentToken",
      "type": "error"
    },
    {
      "inputs": [],
      "name": "OwnershipNotInitializedForExtraData",
      "type": "error"
    },
    {
      "inputs": [],
      "name": "SequentialMintExceedsLimit",
      "type": "error"
    },
    {
      "inputs": [],
      "name": "SequentialUpToTooSmall",
      "type": "error"
    },
    {
      "inputs": [],
      "name": "SpotMintTokenIdTooSmall",
      "type": "error"
    },
    {
      "inputs": [],
      "name": "TokenAlreadyExists",
      "type": "error"
    },
    {
      "inputs": [],
      "name": "TransferCallerNotOwnerNorApproved",
      "type": "error"
    },
    {
      "inputs": [],
      "name": "TransferFromIncorrectOwner",
      "type": "error"
    },
    {
      "inputs": [],
      "name": "TransferToNonERC721ReceiverImplementer",
      "type": "error"
    },
    {
      "inputs": [],
      "name": "TransferToZeroAddress",
      "type": "error"
    },
    {
      "inputs": [],
      "name": "URIQueryForNonexistentToken",
      "type": "error"
    },
    {
      "anonymous": false,
      "inputs": [
        {
          "indexed": true,
          "internalType": "address",
          "name": "owner",
          "type": "address"
        },
        {
          "indexed": true,
          "internalType": "address",
          "name": "approved",
          "type": "address"
        },
        {
          "indexed": true,
          "internalType": "uint256",
          "name": "tokenId",
          "type": "uint256"
        }
      ],
      "name": "Approval",
      "type": "event"
    },
    {
      "anonymous": false,
      "inputs": [
        {
          "indexed": true,
          "internalType": "address",
          "name": "owner",
          "type": "address"
        },
        {
          "indexed": true,
          "internalType": "address",
          "name": "operator",
          "type": "address"
        },
        {
          "indexed": false,
          "internalType": "bool",
          "name": "approved",
          "type": "bool"
        }
      ],
      "name": "ApprovalForAll",
      "type": "event"
    },
    {
      "anonymous": false,
      "inputs": [
        {
          "indexed": true,
          "internalType": "uint256",
          "name": "fromTokenId",
          "type": "uint256"
        },
        {
          "indexed": false,
          "internalType": "uint256",
          "name": "toTokenId",
          "type": "uint256"
        },
        {
          "indexed": true,
          "internalType": "address",
          "name": "from",
          "type": "address"
        },
        {
          "indexed": true,
          "internalType": "address",
          "name": "to",
          "type": "address"
        }
      ],
      "name": "ConsecutiveTransfer",
      "type": "event"
    },
    {
      "anonymous": false,
      "inputs": [
        {
          "indexed": true,
          "internalType": "address",
          "name": "from",
          "type": "address"
        },
        {
          "indexed": true,
          "internalType": "address",
          "name": "to",
          "type": "address"
        },
        {
          "indexed": true,
          "internalType": "uint256",
          "name": "tokenId",
          "type": "uint256"
        }
      ],
      "name": "Transfer",
      "type": "event"
    },
    {
      "inputs": [
        {
          "internalType": "address",
          "name": "to",
          "type": "address"
        },
        {
          "internalType": "uint256",
          "name": "tokenId",
          "type": "uint256"
        }
      ],
      "name": "approve",
      "outputs": [],
      "stateMutability": "payable",
      "type": "function"
    },
    {
      "inputs": [
        {
          "internalType": "address",
          "name": "owner",
          "type": "address"
        }
      ],
      "name": "balanceOf",
      "outputs": [
        {
          "internalType": "uint256",
          "name": "",
          "type": "uint256"
        }
      ],
      "stateMutability": "view",
      "type": "function"
    },
    {
      "inputs": [
        {
          "internalType": "uint256",
          "name": "tokenId",
          "type": "uint256"
        }
      ],
      "name": "getApproved",
      "outputs": [
        {
          "internalType": "address",
          "name": "",
          "type": "address"
        }
      ],
      "stateMutability": "view",
      "type": "function"
    },
    {
      "inputs": [
        {
          "internalType": "address",
          "name": "owner",
          "type": "address"
        },
        {
          "internalType": "address",
          "name": "operator",
          "type": "address"
        }
      ],
      "name": "isApprovedForAll",
      "outputs": [
        {
          "internalType": "bool",
          "name": "",
          "type": "bool"
        }
      ],
      "stateMutability": "view",
      "type": "function"
    },
    {
      "inputs": [
        {
          "internalType": "address",
          "name": "to",
          "type": "address"
        }
      ],
      "name": "mintOneERC2309",
      "outputs": [],
      "stateMutability": "nonpayable",
      "type": "function"
    },
    {
      "inputs": [
        {
          "internalType": "address",
          "name": "to",
          "type": "address"
        }
      ],
      "name": "mintTenERC2309",
      "outputs": [],
      "stateMutability": "nonpayable",
      "type": "function"
    },
    {
      "inputs": [],
      "name": "name",
      "outputs": [
        {
          "internalType": "string",
          "name": "",
          "type": "string"
        }
      ],
      "stateMutability": "view",
      "type": "function"
    },
    {
      "inputs": [
        {
          "internalType": "uint256",
          "name": "tokenId",
          "type": "uint256"
        }
      ],
      "name": "ownerOf",
      "outputs": [
        {
          "internalType": "address",
          "name": "",
          "type": "address"
        }
      ],
      "stateMutability": "view",
      "type": "function"
    },
    {
      "inputs": [
        {
          "internalType": "address",
          "name": "from",
          "type": "address"
        },
        {
          "internalType": "address",
          "name": "to",
          "type": "address"
        },
        {
          "internalType": "uint256",
          "name": "tokenId",
          "type": "uint256"
        }
      ],
      "name": "safeTransferFrom",
      "outputs": [],
      "stateMutability": "payable",
      "type": "function"
    },
    {
      "inputs": [
        {
          "internalType": "address",
          "name": "from",
          "type": "address"
        },
        {
          "internalType": "address",
          "name": "to",
          "type": "address"
        },
        {
          "internalType": "uint256",
          "name": "tokenId",
          "type": "uint256"
        },
        {
          "internalType": "bytes",
          "name": "_data",
          "type": "bytes"
        }
      ],
      "name": "safeTransferFrom",
      "outputs": [],
      "stateMutability": "payable",
      "type": "function"
    },
    {
      "inputs": [
        {
          "internalType": "address",
          "name": "operator",
          "type": "address"
        },
        {
          "internalType": "bool",
          "name": "approved",
          "type": "bool"
        }
      ],
      "name": "setApprovalForAll",
      "outputs": [],
      "stateMutability": "nonpayable",
      "type": "function"
    },
    {
      "inputs": [
        {
          "internalType": "bytes4",
          "name": "interfaceId",
          "type": "bytes4"
        }
      ],
      "name": "supportsInterface",
      "outputs": [
        {
          "internalType": "bool",
          "name": "",
          "type": "bool"
        }
      ],
      "stateMutability": "view",
      "type": "function"
    },
    {
      "inputs": [],
      "name": "symbol",
      "outputs": [
        {
          "internalType": "string",
          "name": "",
          "type": "string"
        }
      ],
      "stateMutability": "view",
      "type": "function"
    },
    {
      "inputs": [
        {
          "internalType": "uint256",
          "name": "tokenId",
          "type": "uint256"
        }
      ],
      "name": "tokenURI",
      "outputs": [
        {
          "internalType": "string",
          "name": "",
          "type": "string"
        }
      ],
      "stateMutability": "view",
      "type": "function"
    },
    {
      "inputs": [],
      "name": "totalSupply",
      "outputs": [
        {
          "internalType": "uint256",
          "name": "result",
          "type": "uint256"
        }
      ],
      "stateMutability": "view",
      "type": "function"
    },
    {
      "inputs": [
        {
          "internalType": "address",
          "name": "from",
          "type": "address"
        },
        {
          "internalType": "address",
          "name": "to",
          "type": "address"
        },
        {
          "internalType": "uint256",
          "name": "tokenId",
          "type": "uint256"
        }
      ],
      "name": "transferFrom",
      "outputs": [],
      "stateMutability": "payable",
      "type": "function"
    }
  ],
  "bytecode": "0x60806040526040516200190838038062001908833981016040819052620000269162000571565b600080516020620018e883398151915254610100900460ff166200005f57600080516020620018e88339815191525460ff161562000063565b303b155b620000ca5760405162461bcd60e51b81526020600482015260376024820152600080516020620018a883398151915260448201527f20697320616c726561647920696e697469616c697a656400000000000000000060648201526084015b60405180910390fd5b600080516020620018e883398151915254610100900460ff161580156200010957600080516020620018e8833981519152805461ffff19166101011790555b62000118868686868662000145565b80156200013957600080516020620018e8833981519152805461ff00191690555b5050505050506200077e565b600080516020620018e883398151915254610100900460ff16620001c15760405162461bcd60e51b81526020600482015260346024820152600080516020620018a883398151915260448201527f206973206e6f7420696e697469616c697a696e670000000000000000000000006064820152608401620000c1565b620001cd8585620001e3565b620001dc8585858585620002d2565b5050505050565b600080516020620018e883398151915254610100900460ff166200025f5760405162461bcd60e51b81526020600482015260346024820152600080516020620018a883398151915260448201527f206973206e6f7420696e697469616c697a696e670000000000000000000000006064820152608401620000c1565b7f2569078dfb4b0305704d3008e7403993ae9601b85f7ae5e742de3de8f8011c426200028c8382620006b2565b507f2569078dfb4b0305704d3008e7403993ae9601b85f7ae5e742de3de8f8011c43620002ba8282620006b2565b506000600080516020620018c8833981519152555050565b600080516020620018e883398151915254610100900460ff166200034e5760405162461bcd60e51b81526020600482015260346024820152600080516020620018a883398151915260448201527f206973206e6f7420696e697469616c697a696e670000000000000000000000006064820152608401620000c1565b8015620001dc57620001dc83836200036b565b8060005260046000fd5b600080516020620018c8833981519152546001600160a01b0383166200039c576200039c622e076360e81b62000361565b81600003620003b757620003b763b562e8dd60e01b62000361565b611388821115620003d457620003d4633db1f9af60e01b62000361565b6001600160a01b03831660008181527f2569078dfb4b0305704d3008e7403993ae9601b85f7ae5e742de3de8f8011c456020908152604080832080546801000000000000000188020190558483527f2569078dfb4b0305704d3008e7403993ae9601b85f7ae5e742de3de8f8011c4482528083206001871460e11b4260a01b17851790555160001985870101815284917fdeaa91b6123d068f5821d0fb0678463d1a8a6079fe8af5de3ce5e896dcf9133d910160405180910390a4818101600080516020620018c8833981519152555b505050565b634e487b7160e01b600052604160045260246000fd5b600082601f830112620004d157600080fd5b81516001600160401b0380821115620004ee57620004ee620004a9565b604051601f8301601f19908116603f01168101908282118183101715620005195762000519620004a9565b81604052838152602092508660208588010111156200053757600080fd5b600091505b838210156200055b57858201830151818301840152908201906200053c565b6000602085830101528094505050505092915050565b600080600080600060a086880312156200058a57600080fd5b85516001600160401b0380821115620005a257600080fd5b620005b089838a01620004bf565b96506020880151915080821115620005c757600080fd5b50620005d688828901620004bf565b604088015190955090506001600160a01b0381168114620005f657600080fd5b60608701516080880151919450925080151581146200061457600080fd5b809150509295509295909350565b600181811c908216806200063757607f821691505b6020821081036200065857634e487b7160e01b600052602260045260246000fd5b50919050565b601f821115620004a4576000816000526020600020601f850160051c81016020861015620006895750805b601f850160051c820191505b81811015620006aa5782815560010162000695565b505050505050565b81516001600160401b03811115620006ce57620006ce620004a9565b620006e681620006df845462000622565b846200065e565b602080601f8311600181146200071e5760008415620007055750858301515b600019600386901b1c1916600185901b178555620006aa565b600085815260208120601f198616915b828110156200074f578886015182559484019460019091019084016200072e565b50858210156200076e5787850151600019600388901b60f8161c191681555b5050505050600190811b01905550565b61111a806200078e6000396000f3fe6080604052600436106100d35760003560e01c806370a082311161007a57806370a08231146101e557806394cfadd71461020557806395d89b4114610225578063a22cb4651461023a578063ad46468f1461025a578063b88d4fde1461027a578063c87b56dd1461028d578063e985e9c5146102ad57600080fd5b806301ffc9a7146100d857806306fdde031461010d578063081812fc1461012f578063095ea7b31461016757806318160ddd1461017c57806323b872dd1461019f57806342842e0e146101b25780636352211e146101c5575b600080fd5b3480156100e457600080fd5b506100f86100f3366004610d6a565b6102cd565b60405190151581526020015b60405180910390f35b34801561011957600080fd5b5061012261031f565b6040516101049190610dd7565b34801561013b57600080fd5b5061014f61014a366004610dea565b6103ba565b6040516001600160a01b039091168152602001610104565b61017a610175366004610e1a565b6103fe565b005b34801561018857600080fd5b5061019161040e565b604051908152602001610104565b61017a6101ad366004610e44565b61044b565b61017a6101c0366004610e44565b61060e565b3480156101d157600080fd5b5061014f6101e0366004610dea565b61062e565b3480156101f157600080fd5b50610191610200366004610e80565b610639565b34801561021157600080fd5b5061017a610220366004610e80565b610699565b34801561023157600080fd5b506101226106a7565b34801561024657600080fd5b5061017a610255366004610e9b565b6106bf565b34801561026657600080fd5b5061017a610275366004610e80565b61073c565b61017a610288366004610eed565b610747565b34801561029957600080fd5b506101226102a8366004610dea565b610788565b3480156102b957600080fd5b506100f86102c8366004610fc9565b610810565b60006301ffc9a760e01b6001600160e01b0319831614806102fe57506380ac58cd60e01b6001600160e01b03198316145b806103195750635b5e139f60e01b6001600160e01b03198316145b92915050565b606061032961084d565b600201805461033790610ffc565b80601f016020809104026020016040519081016040528092919081815260200182805461036390610ffc565b80156103b05780601f10610385576101008083540402835291602001916103b0565b820191906000526020600020905b81548152906001019060200180831161039357829003601f168201915b5050505050905090565b60006103c582610871565b6103d9576103d96333d1c03960e21b6108fb565b6103e161084d565b60009283526006016020525060409020546001600160a01b031690565b61040a82826001610905565b5050565b60008061041961084d565b6001015461042561084d565b54030390506000196104356109b6565b146104485761044261084d565b60080154015b90565b6000610456826109bc565b6001600160a01b03948516949091508116841461047c5761047c62a1148160e81b6108fb565b60008061048884610aa9565b915091506104ad81876104983390565b6001600160a01b039081169116811491141790565b6104cf576104bb8633610810565b6104cf576104cf632ce44b5f60e11b6108fb565b80156104da57600082555b6104e261084d565b6001600160a01b038716600090815260059190910160205260409020805460001901905561050e61084d565b6001600160a01b03861660008181526005929092016020526040909120805460010190554260a01b17600160e11b1761054561084d565b60008681526004919091016020526040812091909155600160e11b841690036105bb576001840161057461084d565b6000828152600491909101602052604081205490036105b95761059561084d565b5481146105b957836105a561084d565b600083815260049190910160205260409020555b505b6001600160a01b0385168481887fddf252ad1be2c89b69c2b068fc378daa952ba7f163c4a11628f55a4df523b3ef600080a48060000361060557610605633a954ecd60e21b6108fb565b50505050505050565b61062983838360405180602001604052806000815250610747565b505050565b6000610319826109bc565b60006001600160a01b038216610659576106596323d3ad8160e21b6108fb565b67ffffffffffffffff61066a61084d565b6005016000846001600160a01b03166001600160a01b0316815260200190815260200160002054169050919050565b6106a4816001610ad1565b50565b60606106b161084d565b600301805461033790610ffc565b806106c861084d565b336000818152600792909201602090815260408084206001600160a01b03881680865290835293819020805460ff19169515159590951790945592518415158152919290917f17307eab39ab6107e8899845ad3d59bd9653f200f220920489ca2b5937696c31910160405180910390a35050565b6106a481600a610ad1565b61075284848461044b565b6001600160a01b0383163b156107825761076e84848484610c18565b610782576107826368d2bf6b60e11b6108fb565b50505050565b606061079382610871565b6107a7576107a7630a14c4b560e41b6108fb565b60006107be60408051602081019091526000815290565b905080516000036107de5760405180602001604052806000815250610809565b806107e884610cfa565b6040516020016107f9929190611036565b6040516020818303038152906040525b9392505050565b600061081a61084d565b6001600160a01b039384166000908152600791909101602090815260408083209490951682529290925250205460ff1690565b7f2569078dfb4b0305704d3008e7403993ae9601b85f7ae5e742de3de8f8011c4090565b600061087b6109b6565b8211156108a55761031961088d61084d565b60008481526004919091016020526040902054610d3e565b6108ad61084d565b548210156108f65760005b6108c061084d565b6000848152600491909101602052604081205491508190036108ec576108e583611065565b92506108b8565b600160e01b161590505b919050565b8060005260046000fd5b60006109108361062e565b90508180156109285750336001600160a01b03821614155b1561094b576109378133610810565b61094b5761094b6367d9dca160e11b6108fb565b8361095461084d565b6000858152600691909101602052604080822080546001600160a01b0319166001600160a01b0394851617905551859287811692908516917f8c5be1e5ebec7d5bd14f71427d1e84f3dd0314c0f7b2291e5b200ac8c7c3b9259190a450505050565b60001990565b60006109c661084d565b6000838152600491909101602052604090205490506109e36109b6565b821115610a0d576109f381610d3e565b156109fd57919050565b610a0d636f96cda160e11b6108fb565b80600003610a8657610a1d61084d565b548210610a3457610a34636f96cda160e11b6108fb565b610a3c61084d565b600019909201600081815260049390930160205260409092205490508015610a3457600160e01b8116600003610a7157919050565b610a81636f96cda160e11b6108fb565b610a34565b600160e01b8116600003610a9957919050565b6108f6636f96cda160e11b6108fb565b6000806000610ab661084d565b60009485526006016020525050604090912080549092909150565b6000610adb61084d565b5490506001600160a01b038316610afb57610afb622e076360e81b6108fb565b81600003610b1357610b1363b562e8dd60e01b6108fb565b611388821115610b2d57610b2d633db1f9af60e01b6108fb565b680100000000000000018202610b4161084d565b6001600160a01b038516600081815260059290920160205260409091208054929092019091554260a01b6001841460e11b1717610b7c61084d565b60008381526004919091016020526040902055610b976109b6565b6001838301031115610bb357610bb36340b23f1d60e11b6108fb565b826001600160a01b031660006001600160a01b0316827fdeaa91b6123d068f5821d0fb0678463d1a8a6079fe8af5de3ce5e896dcf9133d600186860103604051610bff91815260200190565b60405180910390a4818101610c1261084d565b55505050565b604051630a85bd0160e11b81526000906001600160a01b0385169063150b7a0290610c4d90339089908890889060040161108a565b6020604051808303816000875af1925050508015610c88575060408051601f3d908101601f19168201909252610c85918101906110c7565b60015b610cdd573d808015610cb6576040519150601f19603f3d011682016040523d82523d6000602084013e610cbb565b606091505b508051600003610cd557610cd56368d2bf6b60e11b6108fb565b805181602001fd5b6001600160e01b031916630a85bd0160e11b149050949350505050565b606060a06040510180604052602081039150506000815280825b600183039250600a81066030018353600a900480610d145750819003601f19909101908152919050565b600160e01b81166001600160a01b039091161190565b6001600160e01b0319811681146106a457600080fd5b600060208284031215610d7c57600080fd5b813561080981610d54565b60005b83811015610da2578181015183820152602001610d8a565b50506000910152565b60008151808452610dc3816020860160208601610d87565b601f01601f19169290920160200192915050565b6020815260006108096020830184610dab565b600060208284031215610dfc57600080fd5b5035919050565b80356001600160a01b03811681146108f657600080fd5b60008060408385031215610e2d57600080fd5b610e3683610e03565b946020939093013593505050565b600080600060608486031215610e5957600080fd5b610e6284610e03565b9250610e7060208501610e03565b9150604084013590509250925092565b600060208284031215610e9257600080fd5b61080982610e03565b60008060408385031215610eae57600080fd5b610eb783610e03565b915060208301358015158114610ecc57600080fd5b809150509250929050565b634e487b7160e01b600052604160045260246000fd5b60008060008060808587031215610f0357600080fd5b610f0c85610e03565b9350610f1a60208601610e03565b925060408501359150606085013567ffffffffffffffff80821115610f3e57600080fd5b818701915087601f830112610f5257600080fd5b813581811115610f6457610f64610ed7565b604051601f8201601f19908116603f01168101908382118183101715610f8c57610f8c610ed7565b816040528281528a6020848701011115610fa557600080fd5b82602086016020830137600060208483010152809550505050505092959194509250565b60008060408385031215610fdc57600080fd5b610fe583610e03565b9150610ff360208401610e03565b90509250929050565b600181811c9082168061101057607f821691505b60208210810361103057634e487b7160e01b600052602260045260246000fd5b50919050565b60008351611048818460208801610d87565b83519083019061105c818360208801610d87565b01949350505050565b60008161108257634e487b7160e01b600052601160045260246000fd5b506000190190565b6001600160a01b03858116825284166020820152604081018390526080606082018190526000906110bd90830184610dab565b9695505050505050565b6000602082840312156110d957600080fd5b815161080981610d5456fea2646970667358221220ecbedc1f9a2c97d83ca2f573c0a2c3a10e5148f61876d03f8ae2bc4e6fad861364736f6c63430008180033455243373231415f5f496e697469616c697a61626c653a20636f6e74726163742569078dfb4b0305704d3008e7403993ae9601b85f7ae5e742de3de8f8011c40ee151c8401928dc223602bb187aff91b9a56c7cae5476ef1b3287b085a16c85f",
  "linkReferences": {},
  "deployedLinkReferences": {}
}