{
  "_format": "hh-sol-artifact-1",
  "contractName": "ERC721ABurnableMockUpgradeableWithInit",
  "sourceName": "contracts/ERC721A-Upgradeable/contracts/mocks/WithInit.sol",
  "abi": [
    {
      "inputs": [
        {
          "internalType": "string",
          "name": "name_",
          "type": "string"
        },
        {
          "internalType": "string",
          "name": "symbol_",
          "type": "string"
        }
      ],
      "stateMutability": "payable",
      "type": "constructor"
    },
    {
      "inputs": [],
      "name": "ApprovalCallerNotOwnerNorApproved",
      "type": "error"
    },
    {
      "inputs": [],
      "name": "ApprovalQueryForNonexistentToken",
      "type": "error"
    },
    {
      "inputs": [],
      "name": "BalanceQueryForZeroAddress",
      "type": "error"
    },
    {
      "inputs": [],
      "name": "MintERC2309QuantityExceedsLimit",
      "type": "error"
    },
    {
      "inputs": [],
      "name": "MintToZeroAddress",
      "type": "error"
    },
    {
      "inputs": [],
      "name": "MintZeroQuantity",
      "type": "error"
    },
    {
      "inputs": [],
      "name": "NotCompatibleWithSpotMints",
      "type": "error"
    },
    {
      "inputs": [],
      "name": "OwnerQueryForNonexistentToken",
      "type": "error"
    },
    {
      "inputs": [],
      "name": "OwnershipNotInitializedForExtraData",
      "type": "error"
    },
    {
      "inputs": [],
      "name": "SequentialMintExceedsLimit",
      "type": "error"
    },
    {
      "inputs": [],
      "name": "SequentialUpToTooSmall",
      "type": "error"
    },
    {
      "inputs": [],
      "name": "SpotMintTokenIdTooSmall",
      "type": "error"
    },
    {
      "inputs": [],
      "name": "TokenAlreadyExists",
      "type": "error"
    },
    {
      "inputs": [],
      "name": "TransferCallerNotOwnerNorApproved",
      "type": "error"
    },
    {
      "inputs": [],
      "name": "TransferFromIncorrectOwner",
      "type": "error"
    },
    {
      "inputs": [],
      "name": "TransferToNonERC721ReceiverImplementer",
      "type": "error"
    },
    {
      "inputs": [],
      "name": "TransferToZeroAddress",
      "type": "error"
    },
    {
      "inputs": [],
      "name": "URIQueryForNonexistentToken",
      "type": "error"
    },
    {
      "anonymous": false,
      "inputs": [
        {
          "indexed": true,
          "internalType": "address",
          "name": "owner",
          "type": "address"
        },
        {
          "indexed": true,
          "internalType": "address",
          "name": "approved",
          "type": "address"
        },
        {
          "indexed": true,
          "internalType": "uint256",
          "name": "tokenId",
          "type": "uint256"
        }
      ],
      "name": "Approval",
      "type": "event"
    },
    {
      "anonymous": false,
      "inputs": [
        {
          "indexed": true,
          "internalType": "address",
          "name": "owner",
          "type": "address"
        },
        {
          "indexed": true,
          "internalType": "address",
          "name": "operator",
          "type": "address"
        },
        {
          "indexed": false,
          "internalType": "bool",
          "name": "approved",
          "type": "bool"
        }
      ],
      "name": "ApprovalForAll",
      "type": "event"
    },
    {
      "anonymous": false,
      "inputs": [
        {
          "indexed": true,
          "internalType": "uint256",
          "name": "fromTokenId",
          "type": "uint256"
        },
        {
          "indexed": false,
          "internalType": "uint256",
          "name": "toTokenId",
          "type": "uint256"
        },
        {
          "indexed": true,
          "internalType": "address",
          "name": "from",
          "type": "address"
        },
        {
          "indexed": true,
          "internalType": "address",
          "name": "to",
          "type": "address"
        }
      ],
      "name": "ConsecutiveTransfer",
      "type": "event"
    },
    {
      "anonymous": false,
      "inputs": [
        {
          "indexed": true,
          "internalType": "address",
          "name": "from",
          "type": "address"
        },
        {
          "indexed": true,
          "internalType": "address",
          "name": "to",
          "type": "address"
        },
        {
          "indexed": true,
          "internalType": "uint256",
          "name": "tokenId",
          "type": "uint256"
        }
      ],
      "name": "Transfer",
      "type": "event"
    },
    {
      "inputs": [
        {
          "internalType": "address",
          "name": "to",
          "type": "address"
        },
        {
          "internalType": "uint256",
          "name": "tokenId",
          "type": "uint256"
        }
      ],
      "name": "approve",
      "outputs": [],
      "stateMutability": "payable",
      "type": "function"
    },
    {
      "inputs": [
        {
          "internalType": "address",
          "name": "owner",
          "type": "address"
        }
      ],
      "name": "balanceOf",
      "outputs": [
        {
          "internalType": "uint256",
          "name": "",
          "type": "uint256"
        }
      ],
      "stateMutability": "view",
      "type": "function"
    },
    {
      "inputs": [
        {
          "internalType": "uint256",
          "name": "tokenId",
          "type": "uint256"
        }
      ],
      "name": "burn",
      "outputs": [],
      "stateMutability": "nonpayable",
      "type": "function"
    },
    {
      "inputs": [
        {
          "internalType": "uint256",
          "name": "tokenId",
          "type": "uint256"
        }
      ],
      "name": "exists",
      "outputs": [
        {
          "internalType": "bool",
          "name": "",
          "type": "bool"
        }
      ],
      "stateMutability": "view",
      "type": "function"
    },
    {
      "inputs": [
        {
          "internalType": "uint256",
          "name": "tokenId",
          "type": "uint256"
        }
      ],
      "name": "getApproved",
      "outputs": [
        {
          "internalType": "address",
          "name": "",
          "type": "address"
        }
      ],
      "stateMutability": "view",
      "type": "function"
    },
    {
      "inputs": [
        {
          "internalType": "uint256",
          "name": "index",
          "type": "uint256"
        }
      ],
      "name": "getOwnershipAt",
      "outputs": [
        {
          "components": [
            {
              "internalType": "address",
              "name": "addr",
              "type": "address"
            },
            {
              "internalType": "uint64",
              "name": "startTimestamp",
              "type": "uint64"
            },
            {
              "internalType": "bool",
              "name": "burned",
              "type": "bool"
            },
            {
              "internalType": "uint24",
              "name": "extraData",
              "type": "uint24"
            }
          ],
          "internalType": "struct IERC721AUpgradeable.TokenOwnership",
          "name": "",
          "type": "tuple"
        }
      ],
      "stateMutability": "view",
      "type": "function"
    },
    {
      "inputs": [
        {
          "internalType": "address",
          "name": "owner",
          "type": "address"
        },
        {
          "internalType": "address",
          "name": "operator",
          "type": "address"
        }
      ],
      "name": "isApprovedForAll",
      "outputs": [
        {
          "internalType": "bool",
          "name": "",
          "type": "bool"
        }
      ],
      "stateMutability": "view",
      "type": "function"
    },
    {
      "inputs": [],
      "name": "name",
      "outputs": [
        {
          "internalType": "string",
          "name": "",
          "type": "string"
        }
      ],
      "stateMutability": "view",
      "type": "function"
    },
    {
      "inputs": [
        {
          "internalType": "address",
          "name": "owner",
          "type": "address"
        }
      ],
      "name": "numberBurned",
      "outputs": [
        {
          "internalType": "uint256",
          "name": "",
          "type": "uint256"
        }
      ],
      "stateMutability": "view",
      "type": "function"
    },
    {
      "inputs": [
        {
          "internalType": "uint256",
          "name": "tokenId",
          "type": "uint256"
        }
      ],
      "name": "ownerOf",
      "outputs": [
        {
          "internalType": "address",
          "name": "",
          "type": "address"
        }
      ],
      "stateMutability": "view",
      "type": "function"
    },
    {
      "inputs": [
        {
          "internalType": "address",
          "name": "to",
          "type": "address"
        },
        {
          "internalType": "uint256",
          "name": "quantity",
          "type": "uint256"
        }
      ],
      "name": "safeMint",
      "outputs": [],
      "stateMutability": "nonpayable",
      "type": "function"
    },
    {
      "inputs": [
        {
          "internalType": "address",
          "name": "from",
          "type": "address"
        },
        {
          "internalType": "address",
          "name": "to",
          "type": "address"
        },
        {
          "internalType": "uint256",
          "name": "tokenId",
          "type": "uint256"
        }
      ],
      "name": "safeTransferFrom",
      "outputs": [],
      "stateMutability": "payable",
      "type": "function"
    },
    {
      "inputs": [
        {
          "internalType": "address",
          "name": "from",
          "type": "address"
        },
        {
          "internalType": "address",
          "name": "to",
          "type": "address"
        },
        {
          "internalType": "uint256",
          "name": "tokenId",
          "type": "uint256"
        },
        {
          "internalType": "bytes",
          "name": "_data",
          "type": "bytes"
        }
      ],
      "name": "safeTransferFrom",
      "outputs": [],
      "stateMutability": "payable",
      "type": "function"
    },
    {
      "inputs": [
        {
          "internalType": "address",
          "name": "operator",
          "type": "address"
        },
        {
          "internalType": "bool",
          "name": "approved",
          "type": "bool"
        }
      ],
      "name": "setApprovalForAll",
      "outputs": [],
      "stateMutability": "nonpayable",
      "type": "function"
    },
    {
      "inputs": [
        {
          "internalType": "bytes4",
          "name": "interfaceId",
          "type": "bytes4"
        }
      ],
      "name": "supportsInterface",
      "outputs": [
        {
          "internalType": "bool",
          "name": "",
          "type": "bool"
        }
      ],
      "stateMutability": "view",
      "type": "function"
    },
    {
      "inputs": [],
      "name": "symbol",
      "outputs": [
        {
          "internalType": "string",
          "name": "",
          "type": "string"
        }
      ],
      "stateMutability": "view",
      "type": "function"
    },
    {
      "inputs": [
        {
          "internalType": "uint256",
          "name": "tokenId",
          "type": "uint256"
        }
      ],
      "name": "tokenURI",
      "outputs": [
        {
          "internalType": "string",
          "name": "",
          "type": "string"
        }
      ],
      "stateMutability": "view",
      "type": "function"
    },
    {
      "inputs": [],
      "name": "totalBurned",
      "outputs": [
        {
          "internalType": "uint256",
          "name": "",
          "type": "uint256"
        }
      ],
      "stateMutability": "view",
      "type": "function"
    },
    {
      "inputs": [],
      "name": "totalMinted",
      "outputs": [
        {
          "internalType": "uint256",
          "name": "",
          "type": "uint256"
        }
      ],
      "stateMutability": "view",
      "type": "function"
    },
    {
      "inputs": [],
      "name": "totalSupply",
      "outputs": [
        {
          "internalType": "uint256",
          "name": "result",
          "type": "uint256"
        }
      ],
      "stateMutability": "view",
      "type": "function"
    },
    {
      "inputs": [
        {
          "internalType": "address",
          "name": "from",
          "type": "address"
        },
        {
          "internalType": "address",
          "name": "to",
          "type": "address"
        },
        {
          "internalType": "uint256",
          "name": "tokenId",
          "type": "uint256"
        }
      ],
      "name": "transferFrom",
      "outputs": [],
      "stateMutability": "payable",
      "type": "function"
    }
  ],
  "bytecode": "0x608060405260405162001bed38038062001bed83398101604081905262000026916200045f565b60008051602062001bcd83398151915254610100900460ff166200005f5760008051602062001bcd8339815191525460ff161562000063565b303b155b620000ca5760405162461bcd60e51b8152602060048201526037602482015260008051602062001b8d83398151915260448201527f20697320616c726561647920696e697469616c697a656400000000000000000060648201526084015b60405180910390fd5b60008051602062001bcd83398151915254610100900460ff16158015620001095760008051602062001bcd833981519152805461ffff19166101011790555b6200011583836200013f565b8015620001365760008051602062001bcd833981519152805461ff00191690555b50505062000626565b60008051602062001bcd83398151915254610100900460ff16620001aa5760405162461bcd60e51b8152602060048201526034602482015260008051602062001b8d833981519152604482015260008051602062001bad8339815191526064820152608401620000c1565b620001b68282620001d0565b620001c0620002bf565b620001cc82826200032c565b5050565b60008051602062001bcd83398151915254610100900460ff166200023b5760405162461bcd60e51b8152602060048201526034602482015260008051602062001b8d833981519152604482015260008051602062001bad8339815191526064820152608401620000c1565b7f2569078dfb4b0305704d3008e7403993ae9601b85f7ae5e742de3de8f8011c426200026883826200055a565b507f2569078dfb4b0305704d3008e7403993ae9601b85f7ae5e742de3de8f8011c436200029682826200055a565b5060007f2569078dfb4b0305704d3008e7403993ae9601b85f7ae5e742de3de8f8011c40555050565b60008051602062001bcd83398151915254610100900460ff166200032a5760405162461bcd60e51b8152602060048201526034602482015260008051602062001b8d833981519152604482015260008051602062001bad8339815191526064820152608401620000c1565b565b60008051602062001bcd83398151915254610100900460ff16620001cc5760405162461bcd60e51b8152602060048201526034602482015260008051602062001b8d833981519152604482015260008051602062001bad8339815191526064820152608401620000c1565b634e487b7160e01b600052604160045260246000fd5b600082601f830112620003bf57600080fd5b81516001600160401b0380821115620003dc57620003dc62000397565b604051601f8301601f19908116603f0116810190828211818310171562000407576200040762000397565b81604052838152602092508660208588010111156200042557600080fd5b600091505b838210156200044957858201830151818301840152908201906200042a565b6000602085830101528094505050505092915050565b600080604083850312156200047357600080fd5b82516001600160401b03808211156200048b57600080fd5b6200049986838701620003ad565b93506020850151915080821115620004b057600080fd5b50620004bf85828601620003ad565b9150509250929050565b600181811c90821680620004de57607f821691505b602082108103620004ff57634e487b7160e01b600052602260045260246000fd5b50919050565b601f82111562000555576000816000526020600020601f850160051c81016020861015620005305750805b601f850160051c820191505b8181101562000551578281556001016200053c565b5050505b505050565b81516001600160401b0381111562000576576200057662000397565b6200058e81620005878454620004c9565b8462000505565b602080601f831160018114620005c65760008415620005ad5750858301515b600019600386901b1c1916600185901b17855562000551565b600085815260208120601f198616915b82811015620005f757888601518255948401946001909101908401620005d6565b5085821015620006165787850151600019600388901b60f8161c191681555b5050505050600190811b01905550565b61155780620006366000396000f3fe60806040526004361061012a5760003560e01c80636352211e116100ab578063a2309ff81161006f578063a2309ff814610311578063b88d4fde14610326578063c87b56dd14610339578063d89135cd14610359578063e985e9c51461036e578063f25236331461038e57600080fd5b80636352211e1461027c57806370a082311461029c57806395d89b41146102bc578063a1448194146102d1578063a22cb465146102f157600080fd5b806323b872dd116100f257806323b872dd146101f65780632478d6391461020957806342842e0e1461022957806342966c681461023c5780634f558e791461025c57600080fd5b806301ffc9a71461012f57806306fdde0314610164578063081812fc14610186578063095ea7b3146101be57806318160ddd146101d3575b600080fd5b34801561013b57600080fd5b5061014f61014a366004611187565b6103fb565b60405190151581526020015b60405180910390f35b34801561017057600080fd5b5061017961044d565b60405161015b91906111f4565b34801561019257600080fd5b506101a66101a1366004611207565b6104e8565b6040516001600160a01b03909116815260200161015b565b6101d16101cc366004611237565b61052c565b005b3480156101df57600080fd5b506101e861053c565b60405190815260200161015b565b6101d1610204366004611261565b610579565b34801561021557600080fd5b506101e861022436600461129d565b61072c565b6101d1610237366004611261565b610737565b34801561024857600080fd5b506101d1610257366004611207565b610757565b34801561026857600080fd5b5061014f610277366004611207565b610765565b34801561028857600080fd5b506101a6610297366004611207565b610770565b3480156102a857600080fd5b506101e86102b736600461129d565b61077b565b3480156102c857600080fd5b506101796107db565b3480156102dd57600080fd5b506101d16102ec366004611237565b6107f3565b3480156102fd57600080fd5b506101d161030c3660046112b8565b6107fd565b34801561031d57600080fd5b506101e861087a565b6101d161033436600461130a565b610889565b34801561034557600080fd5b50610179610354366004611207565b6108ca565b34801561036557600080fd5b506101e8610952565b34801561037a57600080fd5b5061014f6103893660046113e6565b61095c565b34801561039a57600080fd5b506103ae6103a9366004611207565b610999565b60405161015b919081516001600160a01b0316815260208083015167ffffffffffffffff169082015260408083015115159082015260609182015162ffffff169181019190915260800190565b60006301ffc9a760e01b6001600160e01b03198316148061042c57506380ac58cd60e01b6001600160e01b03198316145b806104475750635b5e139f60e01b6001600160e01b03198316145b92915050565b60606104576109aa565b600201805461046590611419565b80601f016020809104026020016040519081016040528092919081815260200182805461049190611419565b80156104de5780601f106104b3576101008083540402835291602001916104de565b820191906000526020600020905b8154815290600101906020018083116104c157829003601f168201915b5050505050905090565b60006104f3826109ce565b610507576105076333d1c03960e21b610a58565b61050f6109aa565b60009283526006016020525060409020546001600160a01b031690565b61053882826001610a62565b5050565b6000806105476109aa565b600101546105536109aa565b5403039050600019610563610b13565b14610576576105706109aa565b60080154015b90565b600061058482610b19565b6001600160a01b0394851694909150811684146105aa576105aa62a1148160e81b610a58565b6000806105b684610c06565b915091506105db81876105c63390565b6001600160a01b039081169116811491141790565b6105fd576105e9863361095c565b6105fd576105fd632ce44b5f60e11b610a58565b801561060857600082555b6106106109aa565b6001600160a01b038716600090815260059190910160205260409020805460001901905561063c6109aa565b6001600160a01b0386166000908152600591909101602052604090208054600101905561066d85600160e11b610c2e565b6106756109aa565b60008681526004919091016020526040812091909155600160e11b841690036106eb57600184016106a46109aa565b6000828152600491909101602052604081205490036106e9576106c56109aa565b5481146106e957836106d56109aa565b600083815260049190910160205260409020555b505b6001600160a01b038516848188600080516020611502833981519152600080a48060000361072357610723633a954ecd60e21b610a58565b50505050505050565b600061044782610c43565b61075283838360405180602001604052806000815250610889565b505050565b610762816001610c89565b50565b6000610447826109ce565b600061044782610b19565b60006001600160a01b03821661079b5761079b6323d3ad8160e21b610a58565b67ffffffffffffffff6107ac6109aa565b6005016000846001600160a01b03166001600160a01b0316815260200190815260200160002054169050919050565b60606107e56109aa565b600301805461046590611419565b6105388282610de7565b806108066109aa565b336000818152600792909201602090815260408084206001600160a01b03881680865290835293819020805460ff19169515159590951790945592518415158152919290917f17307eab39ab6107e8899845ad3d59bd9653f200f220920489ca2b5937696c31910160405180910390a35050565b6000610884610e01565b905090565b610894848484610579565b6001600160a01b0383163b156108c4576108b084848484610e1b565b6108c4576108c46368d2bf6b60e11b610a58565b50505050565b60606108d5826109ce565b6108e9576108e9630a14c4b560e41b610a58565b600061090060408051602081019091526000815290565b90508051600003610920576040518060200160405280600081525061094b565b8061092a84610efd565b60405160200161093b929190611453565b6040516020818303038152906040525b9392505050565b6000610884610f41565b60006109666109aa565b6001600160a01b039384166000908152600791909101602090815260408083209490951682529290925250205460ff1690565b6109a161114a565b61044782610f54565b7f2569078dfb4b0305704d3008e7403993ae9601b85f7ae5e742de3de8f8011c4090565b60006109d8610b13565b821115610a02576104476109ea6109aa565b60008481526004919091016020526040902054610f7f565b610a0a6109aa565b54821015610a535760005b610a1d6109aa565b600084815260049190910160205260408120549150819003610a4957610a4283611482565b9250610a15565b600160e01b161590505b919050565b8060005260046000fd5b6000610a6d83610770565b9050818015610a855750336001600160a01b03821614155b15610aa857610a94813361095c565b610aa857610aa86367d9dca160e11b610a58565b83610ab16109aa565b6000858152600691909101602052604080822080546001600160a01b0319166001600160a01b0394851617905551859287811692908516917f8c5be1e5ebec7d5bd14f71427d1e84f3dd0314c0f7b2291e5b200ac8c7c3b9259190a450505050565b60001990565b6000610b236109aa565b600083815260049190910160205260409020549050610b40610b13565b821115610b6a57610b5081610f7f565b15610b5a57919050565b610b6a636f96cda160e11b610a58565b80600003610be357610b7a6109aa565b548210610b9157610b91636f96cda160e11b610a58565b610b996109aa565b600019909201600081815260049390930160205260409092205490508015610b9157600160e01b8116600003610bce57919050565b610bde636f96cda160e11b610a58565b610b91565b600160e01b8116600003610bf657919050565b610a53636f96cda160e11b610a58565b6000806000610c136109aa565b60009485526006016020525050604090912080549092909150565b4260a01b176001600160a01b03919091161790565b600067ffffffffffffffff6080610c586109aa565b6005016000856001600160a01b03166001600160a01b0316815260200190815260200160002054901c169050919050565b6000610c9483610b19565b905080600080610ca386610c06565b915091508415610cda57610cb88184336105c6565b610cda57610cc6833361095c565b610cda57610cda632ce44b5f60e11b610a58565b8015610ce557600082555b6001600160801b03610cf56109aa565b6001600160a01b0385166000908152600591909101602052604090208054919091019055610d2783600360e01b610c2e565b610d2f6109aa565b60008881526004919091016020526040812091909155600160e11b85169003610da55760018601610d5e6109aa565b600082815260049190910160205260408120549003610da357610d7f6109aa565b548114610da35784610d8f6109aa565b600083815260049190910160205260409020555b505b60405186906000906001600160a01b03861690600080516020611502833981519152908390a4610dd36109aa565b600190810180549091019055505050505050565b610538828260405180602001604052806000815250610f95565b600080610e0c6109aa565b54039050600019610563610b13565b604051630a85bd0160e11b81526000906001600160a01b0385169063150b7a0290610e509033908990889088906004016114a7565b6020604051808303816000875af1925050508015610e8b575060408051601f3d908101601f19168201909252610e88918101906114e4565b60015b610ee0573d808015610eb9576040519150601f19603f3d011682016040523d82523d6000602084013e610ebe565b606091505b508051600003610ed857610ed86368d2bf6b60e11b610a58565b805181602001fd5b6001600160e01b031916630a85bd0160e11b149050949350505050565b606060a06040510180604052602081039150506000815280825b600183039250600a81066030018353600a900480610f175750819003601f19909101908152919050565b6000610f4b6109aa565b60010154905090565b610f5c61114a565b610447610f676109aa565b60008481526004919091016020526040902054611009565b600160e01b81166001600160a01b039091161190565b610f9f838361104d565b6001600160a01b0383163b15610752576000610fb96109aa565b5490508281035b610fd36000868380600101945086610e1b565b610fe757610fe76368d2bf6b60e11b610a58565b818110610fc05781610ff76109aa565b541461100257600080fd5b5050505050565b61101161114a565b6001600160a01b038216815267ffffffffffffffff60a083901c166020820152600160e01b82161515604082015260e89190911c606082015290565b60006110576109aa565b54905060008290036110735761107363b562e8dd60e01b610a58565b611083836001841460e11b610c2e565b61108b6109aa565b600083815260049190910160205260409020556801000000000000000182026110b26109aa565b6001600160a01b03851660008181526005929092016020526040822080549093019092558190036110ec576110ec622e076360e81b610a58565b818301826110f8610b13565b600183031115611112576111126340b23f1d60e11b610a58565b5b80836000600080516020611502833981519152600080a481816001019150810361111357816111406109aa565b5550610752915050565b60408051608081018252600080825260208201819052918101829052606081019190915290565b6001600160e01b03198116811461076257600080fd5b60006020828403121561119957600080fd5b813561094b81611171565b60005b838110156111bf5781810151838201526020016111a7565b50506000910152565b600081518084526111e08160208601602086016111a4565b601f01601f19169290920160200192915050565b60208152600061094b60208301846111c8565b60006020828403121561121957600080fd5b5035919050565b80356001600160a01b0381168114610a5357600080fd5b6000806040838503121561124a57600080fd5b61125383611220565b946020939093013593505050565b60008060006060848603121561127657600080fd5b61127f84611220565b925061128d60208501611220565b9150604084013590509250925092565b6000602082840312156112af57600080fd5b61094b82611220565b600080604083850312156112cb57600080fd5b6112d483611220565b9150602083013580151581146112e957600080fd5b809150509250929050565b634e487b7160e01b600052604160045260246000fd5b6000806000806080858703121561132057600080fd5b61132985611220565b935061133760208601611220565b925060408501359150606085013567ffffffffffffffff8082111561135b57600080fd5b818701915087601f83011261136f57600080fd5b813581811115611381576113816112f4565b604051601f8201601f19908116603f011681019083821181831017156113a9576113a96112f4565b816040528281528a60208487010111156113c257600080fd5b82602086016020830137600060208483010152809550505050505092959194509250565b600080604083850312156113f957600080fd5b61140283611220565b915061141060208401611220565b90509250929050565b600181811c9082168061142d57607f821691505b60208210810361144d57634e487b7160e01b600052602260045260246000fd5b50919050565b600083516114658184602088016111a4565b8351908301906114798183602088016111a4565b01949350505050565b60008161149f57634e487b7160e01b600052601160045260246000fd5b506000190190565b6001600160a01b03858116825284166020820152604081018390526080606082018190526000906114da908301846111c8565b9695505050505050565b6000602082840312156114f657600080fd5b815161094b8161117156feddf252ad1be2c89b69c2b068fc378daa952ba7f163c4a11628f55a4df523b3efa26469706673582212201e15fc4210ccd47cff18bc89c7096494ac5f1e1e7e4afc4a292d819b31e7248d64736f6c63430008180033455243373231415f5f496e697469616c697a61626c653a20636f6e7472616374206973206e6f7420696e697469616c697a696e67000000000000000000000000ee151c8401928dc223602bb187aff91b9a56c7cae5476ef1b3287b085a16c85f",
  "linkReferences": {},
  "deployedLinkReferences": {}
}