{
  "_format": "hh-sol-artifact-1",
  "contractName": "ERC721ABurnableMockUpgradeableWithInit",
  "sourceName": "contracts/ERC721A-Upgradeable/contracts/mocks/WithInit.sol",
  "abi": [
    {
      "inputs": [
        {
          "internalType": "string",
          "name": "name_",
          "type": "string"
        },
        {
          "internalType": "string",
          "name": "symbol_",
          "type": "string"
        }
      ],
      "stateMutability": "payable",
      "type": "constructor"
    },
    {
      "inputs": [],
      "name": "ApprovalCallerNotOwnerNorApproved",
      "type": "error"
    },
    {
      "inputs": [],
      "name": "ApprovalQueryForNonexistentToken",
      "type": "error"
    },
    {
      "inputs": [],
      "name": "BalanceQueryForZeroAddress",
      "type": "error"
    },
    {
      "inputs": [],
      "name": "MintERC2309QuantityExceedsLimit",
      "type": "error"
    },
    {
      "inputs": [],
      "name": "MintToZeroAddress",
      "type": "error"
    },
    {
      "inputs": [],
      "name": "MintZeroQuantity",
      "type": "error"
    },
    {
      "inputs": [],
      "name": "NotCompatibleWithSpotMints",
      "type": "error"
    },
    {
      "inputs": [],
      "name": "OwnerQueryForNonexistentToken",
      "type": "error"
    },
    {
      "inputs": [],
      "name": "OwnershipNotInitializedForExtraData",
      "type": "error"
    },
    {
      "inputs": [],
      "name": "SequentialMintExceedsLimit",
      "type": "error"
    },
    {
      "inputs": [],
      "name": "SequentialUpToTooSmall",
      "type": "error"
    },
    {
      "inputs": [],
      "name": "SpotMintTokenIdTooSmall",
      "type": "error"
    },
    {
      "inputs": [],
      "name": "TokenAlreadyExists",
      "type": "error"
    },
    {
      "inputs": [],
      "name": "TransferCallerNotOwnerNorApproved",
      "type": "error"
    },
    {
      "inputs": [],
      "name": "TransferFromIncorrectOwner",
      "type": "error"
    },
    {
      "inputs": [],
      "name": "TransferToNonERC721ReceiverImplementer",
      "type": "error"
    },
    {
      "inputs": [],
      "name": "TransferToZeroAddress",
      "type": "error"
    },
    {
      "inputs": [],
      "name": "URIQueryForNonexistentToken",
      "type": "error"
    },
    {
      "anonymous": false,
      "inputs": [
        {
          "indexed": true,
          "internalType": "address",
          "name": "owner",
          "type": "address"
        },
        {
          "indexed": true,
          "internalType": "address",
          "name": "approved",
          "type": "address"
        },
        {
          "indexed": true,
          "internalType": "uint256",
          "name": "tokenId",
          "type": "uint256"
        }
      ],
      "name": "Approval",
      "type": "event"
    },
    {
      "anonymous": false,
      "inputs": [
        {
          "indexed": true,
          "internalType": "address",
          "name": "owner",
          "type": "address"
        },
        {
          "indexed": true,
          "internalType": "address",
          "name": "operator",
          "type": "address"
        },
        {
          "indexed": false,
          "internalType": "bool",
          "name": "approved",
          "type": "bool"
        }
      ],
      "name": "ApprovalForAll",
      "type": "event"
    },
    {
      "anonymous": false,
      "inputs": [
        {
          "indexed": true,
          "internalType": "uint256",
          "name": "fromTokenId",
          "type": "uint256"
        },
        {
          "indexed": false,
          "internalType": "uint256",
          "name": "toTokenId",
          "type": "uint256"
        },
        {
          "indexed": true,
          "internalType": "address",
          "name": "from",
          "type": "address"
        },
        {
          "indexed": true,
          "internalType": "address",
          "name": "to",
          "type": "address"
        }
      ],
      "name": "ConsecutiveTransfer",
      "type": "event"
    },
    {
      "anonymous": false,
      "inputs": [
        {
          "indexed": true,
          "internalType": "address",
          "name": "from",
          "type": "address"
        },
        {
          "indexed": true,
          "internalType": "address",
          "name": "to",
          "type": "address"
        },
        {
          "indexed": true,
          "internalType": "uint256",
          "name": "tokenId",
          "type": "uint256"
        }
      ],
      "name": "Transfer",
      "type": "event"
    },
    {
      "inputs": [
        {
          "internalType": "address",
          "name": "to",
          "type": "address"
        },
        {
          "internalType": "uint256",
          "name": "tokenId",
          "type": "uint256"
        }
      ],
      "name": "approve",
      "outputs": [],
      "stateMutability": "payable",
      "type": "function"
    },
    {
      "inputs": [
        {
          "internalType": "address",
          "name": "owner",
          "type": "address"
        }
      ],
      "name": "balanceOf",
      "outputs": [
        {
          "internalType": "uint256",
          "name": "",
          "type": "uint256"
        }
      ],
      "stateMutability": "view",
      "type": "function"
    },
    {
      "inputs": [
        {
          "internalType": "uint256",
          "name": "tokenId",
          "type": "uint256"
        }
      ],
      "name": "burn",
      "outputs": [],
      "stateMutability": "nonpayable",
      "type": "function"
    },
    {
      "inputs": [
        {
          "internalType": "uint256",
          "name": "tokenId",
          "type": "uint256"
        }
      ],
      "name": "exists",
      "outputs": [
        {
          "internalType": "bool",
          "name": "",
          "type": "bool"
        }
      ],
      "stateMutability": "view",
      "type": "function"
    },
    {
      "inputs": [
        {
          "internalType": "uint256",
          "name": "tokenId",
          "type": "uint256"
        }
      ],
      "name": "getApproved",
      "outputs": [
        {
          "internalType": "address",
          "name": "",
          "type": "address"
        }
      ],
      "stateMutability": "view",
      "type": "function"
    },
    {
      "inputs": [
        {
          "internalType": "uint256",
          "name": "index",
          "type": "uint256"
        }
      ],
      "name": "getOwnershipAt",
      "outputs": [
        {
          "components": [
            {
              "internalType": "address",
              "name": "addr",
              "type": "address"
            },
            {
              "internalType": "uint64",
              "name": "startTimestamp",
              "type": "uint64"
            },
            {
              "internalType": "bool",
              "name": "burned",
              "type": "bool"
            },
            {
              "internalType": "uint24",
              "name": "extraData",
              "type": "uint24"
            }
          ],
          "internalType": "struct IERC721AUpgradeable.TokenOwnership",
          "name": "",
          "type": "tuple"
        }
      ],
      "stateMutability": "view",
      "type": "function"
    },
    {
      "inputs": [
        {
          "internalType": "address",
          "name": "owner",
          "type": "address"
        },
        {
          "internalType": "address",
          "name": "operator",
          "type": "address"
        }
      ],
      "name": "isApprovedForAll",
      "outputs": [
        {
          "internalType": "bool",
          "name": "",
          "type": "bool"
        }
      ],
      "stateMutability": "view",
      "type": "function"
    },
    {
      "inputs": [],
      "name": "name",
      "outputs": [
        {
          "internalType": "string",
          "name": "",
          "type": "string"
        }
      ],
      "stateMutability": "view",
      "type": "function"
    },
    {
      "inputs": [
        {
          "internalType": "address",
          "name": "owner",
          "type": "address"
        }
      ],
      "name": "numberBurned",
      "outputs": [
        {
          "internalType": "uint256",
          "name": "",
          "type": "uint256"
        }
      ],
      "stateMutability": "view",
      "type": "function"
    },
    {
      "inputs": [
        {
          "internalType": "uint256",
          "name": "tokenId",
          "type": "uint256"
        }
      ],
      "name": "ownerOf",
      "outputs": [
        {
          "internalType": "address",
          "name": "",
          "type": "address"
        }
      ],
      "stateMutability": "view",
      "type": "function"
    },
    {
      "inputs": [
        {
          "internalType": "address",
          "name": "to",
          "type": "address"
        },
        {
          "internalType": "uint256",
          "name": "quantity",
          "type": "uint256"
        }
      ],
      "name": "safeMint",
      "outputs": [],
      "stateMutability": "nonpayable",
      "type": "function"
    },
    {
      "inputs": [
        {
          "internalType": "address",
          "name": "from",
          "type": "address"
        },
        {
          "internalType": "address",
          "name": "to",
          "type": "address"
        },
        {
          "internalType": "uint256",
          "name": "tokenId",
          "type": "uint256"
        }
      ],
      "name": "safeTransferFrom",
      "outputs": [],
      "stateMutability": "payable",
      "type": "function"
    },
    {
      "inputs": [
        {
          "internalType": "address",
          "name": "from",
          "type": "address"
        },
        {
          "internalType": "address",
          "name": "to",
          "type": "address"
        },
        {
          "internalType": "uint256",
          "name": "tokenId",
          "type": "uint256"
        },
        {
          "internalType": "bytes",
          "name": "_data",
          "type": "bytes"
        }
      ],
      "name": "safeTransferFrom",
      "outputs": [],
      "stateMutability": "payable",
      "type": "function"
    },
    {
      "inputs": [
        {
          "internalType": "address",
          "name": "operator",
          "type": "address"
        },
        {
          "internalType": "bool",
          "name": "approved",
          "type": "bool"
        }
      ],
      "name": "setApprovalForAll",
      "outputs": [],
      "stateMutability": "nonpayable",
      "type": "function"
    },
    {
      "inputs": [
        {
          "internalType": "bytes4",
          "name": "interfaceId",
          "type": "bytes4"
        }
      ],
      "name": "supportsInterface",
      "outputs": [
        {
          "internalType": "bool",
          "name": "",
          "type": "bool"
        }
      ],
      "stateMutability": "view",
      "type": "function"
    },
    {
      "inputs": [],
      "name": "symbol",
      "outputs": [
        {
          "internalType": "string",
          "name": "",
          "type": "string"
        }
      ],
      "stateMutability": "view",
      "type": "function"
    },
    {
      "inputs": [
        {
          "internalType": "uint256",
          "name": "tokenId",
          "type": "uint256"
        }
      ],
      "name": "tokenURI",
      "outputs": [
        {
          "internalType": "string",
          "name": "",
          "type": "string"
        }
      ],
      "stateMutability": "view",
      "type": "function"
    },
    {
      "inputs": [],
      "name": "totalBurned",
      "outputs": [
        {
          "internalType": "uint256",
          "name": "",
          "type": "uint256"
        }
      ],
      "stateMutability": "view",
      "type": "function"
    },
    {
      "inputs": [],
      "name": "totalMinted",
      "outputs": [
        {
          "internalType": "uint256",
          "name": "",
          "type": "uint256"
        }
      ],
      "stateMutability": "view",
      "type": "function"
    },
    {
      "inputs": [],
      "name": "totalSupply",
      "outputs": [
        {
          "internalType": "uint256",
          "name": "result",
          "type": "uint256"
        }
      ],
      "stateMutability": "view",
      "type": "function"
    },
    {
      "inputs": [
        {
          "internalType": "address",
          "name": "from",
          "type": "address"
        },
        {
          "internalType": "address",
          "name": "to",
          "type": "address"
        },
        {
          "internalType": "uint256",
          "name": "tokenId",
          "type": "uint256"
        }
      ],
      "name": "transferFrom",
      "outputs": [],
      "stateMutability": "payable",
      "type": "function"
    }
  ],
  "bytecode": "0x608060405260405162002fbb38038062002fbb833981810160405281019062000029919062000655565b620000396200019f60201b60201c565b60000160019054906101000a900460ff1662000077576200005f6200019f60201b60201c565b60000160009054906101000a900460ff161562000088565b62000087620001cc60201b60201c565b5b620000ca576040517f08c379a0000000000000000000000000000000000000000000000000000000008152600401620000c19062000761565b60405180910390fd5b6000620000dc6200019f60201b60201c565b60000160019054906101000a900460ff16159050801562000150576001620001096200019f60201b60201c565b60000160016101000a81548160ff0219169083151502179055506001620001356200019f60201b60201c565b60000160006101000a81548160ff0219169083151502179055505b620001628383620001e360201b60201c565b8015620001965760006200017b6200019f60201b60201c565b60000160016101000a81548160ff0219169083151502179055505b50505062000b4d565b6000807fee151c8401928dc223602bb187aff91b9a56c7cae5476ef1b3287b085a16c85f90508091505090565b6000803090506000813b9050600081149250505090565b620001f36200019f60201b60201c565b60000160019054906101000a900460ff1662000246576040517f08c379a00000000000000000000000000000000000000000000000000000000081526004016200023d90620007f9565b60405180910390fd5b6200025882826200027e60201b60201c565b620002686200039260201b60201c565b6200027a8282620003f760201b60201c565b5050565b6200028e6200019f60201b60201c565b60000160019054906101000a900460ff16620002e1576040517f08c379a0000000000000000000000000000000000000000000000000000000008152600401620002d890620007f9565b60405180910390fd5b81620002f26200045e60201b60201c565b600201908162000303919062000a66565b5080620003156200045e60201b60201c565b600301908162000326919062000a66565b50620003376200048b60201b60201c565b620003476200045e60201b60201c565b600001819055506200035e6200048b60201b60201c565b6200036e6200049060201b60201c565b10156200038e576200038d63fed8210f60e01b620004b860201b60201c565b5b5050565b620003a26200019f60201b60201c565b60000160019054906101000a900460ff16620003f5576040517f08c379a0000000000000000000000000000000000000000000000000000000008152600401620003ec90620007f9565b60405180910390fd5b565b620004076200019f60201b60201c565b60000160019054906101000a900460ff166200045a576040517f08c379a00000000000000000000000000000000000000000000000000000000081526004016200045190620007f9565b60405180910390fd5b5050565b6000807f2569078dfb4b0305704d3008e7403993ae9601b85f7ae5e742de3de8f8011c4090508091505090565b600090565b60007fffffffffffffffffffffffffffffffffffffffffffffffffffffffffffffffff905090565b8060005260046000fd5b6000604051905090565b600080fd5b600080fd5b600080fd5b600080fd5b6000601f19601f8301169050919050565b7f4e487b7100000000000000000000000000000000000000000000000000000000600052604160045260246000fd5b6200052b82620004e0565b810181811067ffffffffffffffff821117156200054d576200054c620004f1565b5b80604052505050565b600062000562620004c2565b905062000570828262000520565b919050565b600067ffffffffffffffff821115620005935762000592620004f1565b5b6200059e82620004e0565b9050602081019050919050565b60005b83811015620005cb578082015181840152602081019050620005ae565b60008484015250505050565b6000620005ee620005e88462000575565b62000556565b9050828152602081018484840111156200060d576200060c620004db565b5b6200061a848285620005ab565b509392505050565b600082601f8301126200063a5762000639620004d6565b5b81516200064c848260208601620005d7565b91505092915050565b600080604083850312156200066f576200066e620004cc565b5b600083015167ffffffffffffffff81111562000690576200068f620004d1565b5b6200069e8582860162000622565b925050602083015167ffffffffffffffff811115620006c257620006c1620004d1565b5b620006d08582860162000622565b9150509250929050565b600082825260208201905092915050565b7f455243373231415f5f496e697469616c697a61626c653a20636f6e747261637460008201527f20697320616c726561647920696e697469616c697a6564000000000000000000602082015250565b600062000749603783620006da565b91506200075682620006eb565b604082019050919050565b600060208201905081810360008301526200077c816200073a565b9050919050565b7f455243373231415f5f496e697469616c697a61626c653a20636f6e747261637460008201527f206973206e6f7420696e697469616c697a696e67000000000000000000000000602082015250565b6000620007e1603483620006da565b9150620007ee8262000783565b604082019050919050565b600060208201905081810360008301526200081481620007d2565b9050919050565b600081519050919050565b7f4e487b7100000000000000000000000000000000000000000000000000000000600052602260045260246000fd5b600060028204905060018216806200086e57607f821691505b60208210810362000884576200088362000826565b5b50919050565b60008190508160005260206000209050919050565b60006020601f8301049050919050565b600082821b905092915050565b600060088302620008ee7fffffffffffffffffffffffffffffffffffffffffffffffffffffffffffffffff82620008af565b620008fa8683620008af565b95508019841693508086168417925050509392505050565b6000819050919050565b6000819050919050565b600062000947620009416200093b8462000912565b6200091c565b62000912565b9050919050565b6000819050919050565b620009638362000926565b6200097b62000972826200094e565b848454620008bc565b825550505050565b600090565b6200099262000983565b6200099f81848462000958565b505050565b5b81811015620009c757620009bb60008262000988565b600181019050620009a5565b5050565b601f82111562000a1657620009e0816200088a565b620009eb846200089f565b81016020851015620009fb578190505b62000a1362000a0a856200089f565b830182620009a4565b50505b505050565b600082821c905092915050565b600062000a3b6000198460080262000a1b565b1980831691505092915050565b600062000a56838362000a28565b9150826002028217905092915050565b62000a71826200081b565b67ffffffffffffffff81111562000a8d5762000a8c620004f1565b5b62000a99825462000855565b62000aa6828285620009cb565b600060209050601f83116001811462000ade576000841562000ac9578287015190505b62000ad5858262000a48565b86555062000b45565b601f19841662000aee866200088a565b60005b8281101562000b185784890151825560018201915060208501945060208101905062000af1565b8683101562000b38578489015162000b34601f89168262000a28565b8355505b6001600288020188555050505b505050505050565b61245e8062000b5d6000396000f3fe60806040526004361061012a5760003560e01c80636352211e116100ab578063a2309ff81161006f578063a2309ff8146103ed578063b88d4fde14610418578063c87b56dd14610434578063d89135cd14610471578063e985e9c51461049c578063f2523633146104d95761012a565b80636352211e146102f657806370a082311461033357806395d89b4114610370578063a14481941461039b578063a22cb465146103c45761012a565b806323b872dd116100f257806323b872dd1461021b5780632478d6391461023757806342842e0e1461027457806342966c68146102905780634f558e79146102b95761012a565b806301ffc9a71461012f57806306fdde031461016c578063081812fc14610197578063095ea7b3146101d457806318160ddd146101f0575b600080fd5b34801561013b57600080fd5b5061015660048036038101906101519190611c10565b610516565b6040516101639190611c58565b60405180910390f35b34801561017857600080fd5b506101816105a8565b60405161018e9190611d03565b60405180910390f35b3480156101a357600080fd5b506101be60048036038101906101b99190611d5b565b610643565b6040516101cb9190611dc9565b60405180910390f35b6101ee60048036038101906101e99190611e10565b6106aa565b005b3480156101fc57600080fd5b506102056106ba565b6040516102129190611e5f565b60405180910390f35b61023560048036038101906102309190611e7a565b610722565b005b34801561024357600080fd5b5061025e60048036038101906102599190611ecd565b610a19565b60405161026b9190611e5f565b60405180910390f35b61028e60048036038101906102899190611e7a565b610a2b565b005b34801561029c57600080fd5b506102b760048036038101906102b29190611d5b565b610a4b565b005b3480156102c557600080fd5b506102e060048036038101906102db9190611d5b565b610a59565b6040516102ed9190611c58565b60405180910390f35b34801561030257600080fd5b5061031d60048036038101906103189190611d5b565b610a6b565b60405161032a9190611dc9565b60405180910390f35b34801561033f57600080fd5b5061035a60048036038101906103559190611ecd565b610a7d565b6040516103679190611e5f565b60405180910390f35b34801561037c57600080fd5b50610385610b1d565b6040516103929190611d03565b60405180910390f35b3480156103a757600080fd5b506103c260048036038101906103bd9190611e10565b610bb8565b005b3480156103d057600080fd5b506103eb60048036038101906103e69190611f26565b610bc6565b005b3480156103f957600080fd5b50610402610cda565b60405161040f9190611e5f565b60405180910390f35b610432600480360381019061042d919061209b565b610ce9565b005b34801561044057600080fd5b5061045b60048036038101906104569190611d5b565b610d3b565b6040516104689190611d03565b60405180910390f35b34801561047d57600080fd5b50610486610db8565b6040516104939190611e5f565b60405180910390f35b3480156104a857600080fd5b506104c360048036038101906104be919061211e565b610dc7565b6040516104d09190611c58565b60405180910390f35b3480156104e557600080fd5b5061050060048036038101906104fb9190611d5b565b610e64565b60405161050d9190612212565b60405180910390f35b60006301ffc9a760e01b827bffffffffffffffffffffffffffffffffffffffffffffffffffffffff1916148061057157506380ac58cd60e01b827bffffffffffffffffffffffffffffffffffffffffffffffffffffffff1916145b806105a15750635b5e139f60e01b827bffffffffffffffffffffffffffffffffffffffffffffffffffffffff1916145b9050919050565b60606105b2610e7c565b60020180546105c09061225c565b80601f01602080910402602001604051908101604052809291908181526020018280546105ec9061225c565b80156106395780601f1061060e57610100808354040283529160200191610639565b820191906000526020600020905b81548152906001019060200180831161061c57829003601f168201915b5050505050905090565b600061064e82610ea9565b6106635761066263cf4700e460e01b610f70565b5b61066b610e7c565b600601600083815260200190815260200160002060000160009054906101000a900473ffffffffffffffffffffffffffffffffffffffff169050919050565b6106b682826001610f7a565b5050565b60006106c46110b2565b6106cc610e7c565b600101546106d8610e7c565b60000154030390507fffffffffffffffffffffffffffffffffffffffffffffffffffffffffffffffff6107096110b7565b1461071f57610716610e7c565b60080154810190505b90565b600061072d826110df565b905073ffffffffffffffffffffffffffffffffffffffff8473ffffffffffffffffffffffffffffffffffffffff161693508373ffffffffffffffffffffffffffffffffffffffff168173ffffffffffffffffffffffffffffffffffffffff16146107a2576107a163a114810060e01b610f70565b5b6000806107ae84611213565b915091506107c481876107bf611243565b61124b565b6107ef576107d9866107d4611243565b610dc7565b6107ee576107ed6359c896be60e01b610f70565b5b5b6107fc868686600161128f565b801561080757600082555b61080f610e7c565b60050160008773ffffffffffffffffffffffffffffffffffffffff1673ffffffffffffffffffffffffffffffffffffffff168152602001908152602001600020600081546001900391905081905550610866610e7c565b60050160008673ffffffffffffffffffffffffffffffffffffffff1673ffffffffffffffffffffffffffffffffffffffff16815260200190815260200160002060008154600101919050819055506108e7856108c3888887611295565b7c0200000000000000000000000000000000000000000000000000000000176112bd565b6108ef610e7c565b60040160008681526020019081526020016000208190555060007c02000000000000000000000000000000000000000000000000000000008416036109915760006001850190506000610940610e7c565b6004016000838152602001908152602001600020540361098f57610962610e7c565b60000154811461098e5783610975610e7c565b6004016000838152602001908152602001600020819055505b5b505b600073ffffffffffffffffffffffffffffffffffffffff8673ffffffffffffffffffffffffffffffffffffffff161690508481887fddf252ad1be2c89b69c2b068fc378daa952ba7f163c4a11628f55a4df523b3ef600080a460008103610a0357610a0263ea553b3460e01b610f70565b5b610a1087878760016112e8565b50505050505050565b6000610a24826112ee565b9050919050565b610a4683838360405180602001604052806000815250610ce9565b505050565b610a5681600161134e565b50565b6000610a6482610ea9565b9050919050565b6000610a76826110df565b9050919050565b60008073ffffffffffffffffffffffffffffffffffffffff168273ffffffffffffffffffffffffffffffffffffffff1603610ac357610ac2638f4eb60460e01b610f70565b5b67ffffffffffffffff610ad4610e7c565b60050160008473ffffffffffffffffffffffffffffffffffffffff1673ffffffffffffffffffffffffffffffffffffffff16815260200190815260200160002054169050919050565b6060610b27610e7c565b6003018054610b359061225c565b80601f0160208091040260200160405190810160405280929190818152602001828054610b619061225c565b8015610bae5780601f10610b8357610100808354040283529160200191610bae565b820191906000526020600020905b815481529060010190602001808311610b9157829003601f168201915b5050505050905090565b610bc282826115b5565b5050565b80610bcf610e7c565b6007016000610bdc611243565b73ffffffffffffffffffffffffffffffffffffffff1673ffffffffffffffffffffffffffffffffffffffff16815260200190815260200160002060008473ffffffffffffffffffffffffffffffffffffffff1673ffffffffffffffffffffffffffffffffffffffff16815260200190815260200160002060006101000a81548160ff0219169083151502179055508173ffffffffffffffffffffffffffffffffffffffff16610c89611243565b73ffffffffffffffffffffffffffffffffffffffff167f17307eab39ab6107e8899845ad3d59bd9653f200f220920489ca2b5937696c3183604051610cce9190611c58565b60405180910390a35050565b6000610ce46115d3565b905090565b610cf4848484610722565b60008373ffffffffffffffffffffffffffffffffffffffff163b14610d3557610d1f8484848461162e565b610d3457610d3363d1a57ed660e01b610f70565b5b5b50505050565b6060610d4682610ea9565b610d5b57610d5a63a14c4b5060e01b610f70565b5b6000610d6561175d565b90506000815103610d855760405180602001604052806000815250610db0565b80610d8f84611774565b604051602001610da09291906122c9565b6040516020818303038152906040525b915050919050565b6000610dc26117c4565b905090565b6000610dd1610e7c565b60070160008473ffffffffffffffffffffffffffffffffffffffff1673ffffffffffffffffffffffffffffffffffffffff16815260200190815260200160002060008373ffffffffffffffffffffffffffffffffffffffff1673ffffffffffffffffffffffffffffffffffffffff16815260200190815260200160002060009054906101000a900460ff16905092915050565b610e6c611b55565b610e75826117d7565b9050919050565b6000807f2569078dfb4b0305704d3008e7403993ae9601b85f7ae5e742de3de8f8011c4090508091505090565b600081610eb46110b2565b11610f6a57610ec16110b7565b821115610ef457610eed610ed3610e7c565b60040160008481526020019081526020016000205461180b565b9050610f6b565b610efc610e7c565b60000154821015610f695760005b6000610f14610e7c565b60040160008581526020019081526020016000205491508103610f425782610f3b9061231c565b9250610f0a565b60007c01000000000000000000000000000000000000000000000000000000008216149150505b5b5b919050565b8060005260046000fd5b6000610f8583610a6b565b9050818015610fc757508073ffffffffffffffffffffffffffffffffffffffff16610fae611243565b73ffffffffffffffffffffffffffffffffffffffff1614155b15610ff357610fdd81610fd8611243565b610dc7565b610ff257610ff163cfb3b94260e01b610f70565b5b5b83610ffc610e7c565b600601600085815260200190815260200160002060000160006101000a81548173ffffffffffffffffffffffffffffffffffffffff021916908373ffffffffffffffffffffffffffffffffffffffff160217905550828473ffffffffffffffffffffffffffffffffffffffff168273ffffffffffffffffffffffffffffffffffffffff167f8c5be1e5ebec7d5bd14f71427d1e84f3dd0314c0f7b2291e5b200ac8c7c3b92560405160405180910390a450505050565b600090565b60007fffffffffffffffffffffffffffffffffffffffffffffffffffffffffffffffff905090565b6000816110ea6110b2565b116111fd576110f7610e7c565b60040160008381526020019081526020016000205490506111166110b7565b82111561113b576111268161180b565b61120e5761113a63df2d9b4260e01b610f70565b5b600081036111d45761114b610e7c565b6000015482106111665761116563df2d9b4260e01b610f70565b5b5b61116f610e7c565b60040160008360019003935083815260200190815260200160002054905060008103156111cf5760007c01000000000000000000000000000000000000000000000000000000008216031561120e576111ce63df2d9b4260e01b610f70565b5b611167565b60007c01000000000000000000000000000000000000000000000000000000008216031561120e575b61120d63df2d9b4260e01b610f70565b5b919050565b6000806000611220610e7c565b600601600085815260200190815260200160002090508092508254915050915091565b600033905090565b600073ffffffffffffffffffffffffffffffffffffffff8316925073ffffffffffffffffffffffffffffffffffffffff821691508382148383141790509392505050565b50505050565b60008060e883901c905060e86112ac86868461184c565b62ffffff16901b9150509392505050565b600073ffffffffffffffffffffffffffffffffffffffff83169250814260a01b178317905092915050565b50505050565b600067ffffffffffffffff6080611303610e7c565b60050160008573ffffffffffffffffffffffffffffffffffffffff1673ffffffffffffffffffffffffffffffffffffffff16815260200190815260200160002054901c169050919050565b6000611359836110df565b9050600081905060008061136c86611213565b9150915084156113b4576113888184611383611243565b61124b565b6113b35761139d83611398611243565b610dc7565b6113b2576113b16359c896be60e01b610f70565b5b5b5b6113c283600088600161128f565b80156113cd57600082555b600160806001901b036113de610e7c565b60050160008573ffffffffffffffffffffffffffffffffffffffff1673ffffffffffffffffffffffffffffffffffffffff1681526020019081526020016000206000828254019250508190555061147e8361143b85600088611295565b7c02000000000000000000000000000000000000000000000000000000007c010000000000000000000000000000000000000000000000000000000017176112bd565b611486610e7c565b60040160008881526020019081526020016000208190555060007c020000000000000000000000000000000000000000000000000000000085160361152857600060018701905060006114d7610e7c565b60040160008381526020019081526020016000205403611526576114f9610e7c565b600001548114611525578461150c610e7c565b6004016000838152602001908152602001600020819055505b5b505b85600073ffffffffffffffffffffffffffffffffffffffff168473ffffffffffffffffffffffffffffffffffffffff167fddf252ad1be2c89b69c2b068fc378daa952ba7f163c4a11628f55a4df523b3ef60405160405180910390a46115928360008860016112e8565b61159a610e7c565b60010160008154809291906001019190505550505050505050565b6115cf828260405180602001604052806000815250611855565b5050565b60006115dd6110b2565b6115e5610e7c565b600001540390507fffffffffffffffffffffffffffffffffffffffffffffffffffffffffffffffff6116156110b7565b1461162b57611622610e7c565b60080154810190505b90565b60008373ffffffffffffffffffffffffffffffffffffffff1663150b7a02611654611243565b8786866040518563ffffffff1660e01b8152600401611676949392919061239a565b6020604051808303816000875af19250505080156116b257506040513d601f19601f820116820180604052508101906116af91906123fb565b60015b61170a573d80600081146116e2576040519150601f19603f3d011682016040523d82523d6000602084013e6116e7565b606091505b5060008151036117025761170163d1a57ed660e01b610f70565b5b805181602001fd5b63150b7a0260e01b7bffffffffffffffffffffffffffffffffffffffffffffffffffffffff1916817bffffffffffffffffffffffffffffffffffffffffffffffffffffffff191614915050949350505050565b606060405180602001604052806000815250905090565b606060a060405101806040526020810391506000825281835b6001156117af57600184039350600a81066030018453600a810490508061178d575b50828103602084039350808452505050919050565b60006117ce610e7c565b60010154905090565b6117df611b55565b6118046117ea610e7c565b6004016000848152602001908152602001600020546118e4565b9050919050565b60007c0100000000000000000000000000000000000000000000000000000000821673ffffffffffffffffffffffffffffffffffffffff8316119050919050565b60009392505050565b61185f838361199a565b60008373ffffffffffffffffffffffffffffffffffffffff163b146118df576000611888610e7c565b600001549050600083820390505b6118a9600086838060010194508661162e565b6118be576118bd63d1a57ed660e01b610f70565b5b81811061189657816118ce610e7c565b60000154146118dc57600080fd5b50505b505050565b6118ec611b55565b81816000019073ffffffffffffffffffffffffffffffffffffffff16908173ffffffffffffffffffffffffffffffffffffffff168152505060a082901c816020019067ffffffffffffffff16908167ffffffffffffffff168152505060007c01000000000000000000000000000000000000000000000000000000008316141581604001901515908115158152505060e882901c816060019062ffffff16908162ffffff1681525050919050565b60006119a4610e7c565b600001549050600082036119c3576119c263b562e8dd60e01b610f70565b5b6119d0600084838561128f565b6119f0836119e16000866000611295565b6119ea85611b45565b176112bd565b6119f8610e7c565b600401600083815260200190815260200160002081905550600160406001901b178202611a23610e7c565b60050160008573ffffffffffffffffffffffffffffffffffffffff1673ffffffffffffffffffffffffffffffffffffffff16815260200190815260200160002060008282540192505081905550600073ffffffffffffffffffffffffffffffffffffffff8473ffffffffffffffffffffffffffffffffffffffff1616905060008103611aba57611ab9632e07630060e01b610f70565b5b600083830190506000839050611ace6110b7565b600183031115611ae957611ae86381647e3a60e01b610f70565b5b5b808360007fddf252ad1be2c89b69c2b068fc378daa952ba7f163c4a11628f55a4df523b3ef600080a4818160010191508103611aea5781611b29610e7c565b60000181905550505050611b4060008483856112e8565b505050565b60006001821460e11b9050919050565b6040518060800160405280600073ffffffffffffffffffffffffffffffffffffffff168152602001600067ffffffffffffffff168152602001600015158152602001600062ffffff1681525090565b6000604051905090565b600080fd5b600080fd5b60007fffffffff0000000000000000000000000000000000000000000000000000000082169050919050565b611bed81611bb8565b8114611bf857600080fd5b50565b600081359050611c0a81611be4565b92915050565b600060208284031215611c2657611c25611bae565b5b6000611c3484828501611bfb565b91505092915050565b60008115159050919050565b611c5281611c3d565b82525050565b6000602082019050611c6d6000830184611c49565b92915050565b600081519050919050565b600082825260208201905092915050565b60005b83811015611cad578082015181840152602081019050611c92565b60008484015250505050565b6000601f19601f8301169050919050565b6000611cd582611c73565b611cdf8185611c7e565b9350611cef818560208601611c8f565b611cf881611cb9565b840191505092915050565b60006020820190508181036000830152611d1d8184611cca565b905092915050565b6000819050919050565b611d3881611d25565b8114611d4357600080fd5b50565b600081359050611d5581611d2f565b92915050565b600060208284031215611d7157611d70611bae565b5b6000611d7f84828501611d46565b91505092915050565b600073ffffffffffffffffffffffffffffffffffffffff82169050919050565b6000611db382611d88565b9050919050565b611dc381611da8565b82525050565b6000602082019050611dde6000830184611dba565b92915050565b611ded81611da8565b8114611df857600080fd5b50565b600081359050611e0a81611de4565b92915050565b60008060408385031215611e2757611e26611bae565b5b6000611e3585828601611dfb565b9250506020611e4685828601611d46565b9150509250929050565b611e5981611d25565b82525050565b6000602082019050611e746000830184611e50565b92915050565b600080600060608486031215611e9357611e92611bae565b5b6000611ea186828701611dfb565b9350506020611eb286828701611dfb565b9250506040611ec386828701611d46565b9150509250925092565b600060208284031215611ee357611ee2611bae565b5b6000611ef184828501611dfb565b91505092915050565b611f0381611c3d565b8114611f0e57600080fd5b50565b600081359050611f2081611efa565b92915050565b60008060408385031215611f3d57611f3c611bae565b5b6000611f4b85828601611dfb565b9250506020611f5c85828601611f11565b9150509250929050565b600080fd5b600080fd5b7f4e487b7100000000000000000000000000000000000000000000000000000000600052604160045260246000fd5b611fa882611cb9565b810181811067ffffffffffffffff82111715611fc757611fc6611f70565b5b80604052505050565b6000611fda611ba4565b9050611fe68282611f9f565b919050565b600067ffffffffffffffff82111561200657612005611f70565b5b61200f82611cb9565b9050602081019050919050565b82818337600083830152505050565b600061203e61203984611feb565b611fd0565b90508281526020810184848401111561205a57612059611f6b565b5b61206584828561201c565b509392505050565b600082601f83011261208257612081611f66565b5b813561209284826020860161202b565b91505092915050565b600080600080608085870312156120b5576120b4611bae565b5b60006120c387828801611dfb565b94505060206120d487828801611dfb565b93505060406120e587828801611d46565b925050606085013567ffffffffffffffff81111561210657612105611bb3565b5b6121128782880161206d565b91505092959194509250565b6000806040838503121561213557612134611bae565b5b600061214385828601611dfb565b925050602061215485828601611dfb565b9150509250929050565b61216781611da8565b82525050565b600067ffffffffffffffff82169050919050565b61218a8161216d565b82525050565b61219981611c3d565b82525050565b600062ffffff82169050919050565b6121b78161219f565b82525050565b6080820160008201516121d3600085018261215e565b5060208201516121e66020850182612181565b5060408201516121f96040850182612190565b50606082015161220c60608501826121ae565b50505050565b600060808201905061222760008301846121bd565b92915050565b7f4e487b7100000000000000000000000000000000000000000000000000000000600052602260045260246000fd5b6000600282049050600182168061227457607f821691505b6020821081036122875761228661222d565b5b50919050565b600081905092915050565b60006122a382611c73565b6122ad818561228d565b93506122bd818560208601611c8f565b80840191505092915050565b60006122d58285612298565b91506122e18284612298565b91508190509392505050565b7f4e487b7100000000000000000000000000000000000000000000000000000000600052601160045260246000fd5b600061232782611d25565b91506000820361233a576123396122ed565b5b600182039050919050565b600081519050919050565b600082825260208201905092915050565b600061236c82612345565b6123768185612350565b9350612386818560208601611c8f565b61238f81611cb9565b840191505092915050565b60006080820190506123af6000830187611dba565b6123bc6020830186611dba565b6123c96040830185611e50565b81810360608301526123db8184612361565b905095945050505050565b6000815190506123f581611be4565b92915050565b60006020828403121561241157612410611bae565b5b600061241f848285016123e6565b9150509291505056fea2646970667358221220348b6d934f9d2e402c0ecd518094d875528ee910c0fc21b8b80dca1a23a8c8d364736f6c63430008180033",
  "linkReferences": {},
  "deployedLinkReferences": {}
}