{
  "_format": "hh-sol-artifact-1",
  "contractName": "ERC721AGasReporterMockUpgradeableWithInit",
  "sourceName": "contracts/ERC721A-Upgradeable/contracts/mocks/WithInit.sol",
  "abi": [
    {
      "inputs": [
        {
          "internalType": "string",
          "name": "name_",
          "type": "string"
        },
        {
          "internalType": "string",
          "name": "symbol_",
          "type": "string"
        }
      ],
      "stateMutability": "payable",
      "type": "constructor"
    },
    {
      "inputs": [],
      "name": "ApprovalCallerNotOwnerNorApproved",
      "type": "error"
    },
    {
      "inputs": [],
      "name": "ApprovalQueryForNonexistentToken",
      "type": "error"
    },
    {
      "inputs": [],
      "name": "BalanceQueryForZeroAddress",
      "type": "error"
    },
    {
      "inputs": [],
      "name": "MintERC2309QuantityExceedsLimit",
      "type": "error"
    },
    {
      "inputs": [],
      "name": "MintToZeroAddress",
      "type": "error"
    },
    {
      "inputs": [],
      "name": "MintZeroQuantity",
      "type": "error"
    },
    {
      "inputs": [],
      "name": "NotCompatibleWithSpotMints",
      "type": "error"
    },
    {
      "inputs": [],
      "name": "OwnerQueryForNonexistentToken",
      "type": "error"
    },
    {
      "inputs": [],
      "name": "OwnershipNotInitializedForExtraData",
      "type": "error"
    },
    {
      "inputs": [],
      "name": "SequentialMintExceedsLimit",
      "type": "error"
    },
    {
      "inputs": [],
      "name": "SequentialUpToTooSmall",
      "type": "error"
    },
    {
      "inputs": [],
      "name": "SpotMintTokenIdTooSmall",
      "type": "error"
    },
    {
      "inputs": [],
      "name": "TokenAlreadyExists",
      "type": "error"
    },
    {
      "inputs": [],
      "name": "TransferCallerNotOwnerNorApproved",
      "type": "error"
    },
    {
      "inputs": [],
      "name": "TransferFromIncorrectOwner",
      "type": "error"
    },
    {
      "inputs": [],
      "name": "TransferToNonERC721ReceiverImplementer",
      "type": "error"
    },
    {
      "inputs": [],
      "name": "TransferToZeroAddress",
      "type": "error"
    },
    {
      "inputs": [],
      "name": "URIQueryForNonexistentToken",
      "type": "error"
    },
    {
      "anonymous": false,
      "inputs": [
        {
          "indexed": true,
          "internalType": "address",
          "name": "owner",
          "type": "address"
        },
        {
          "indexed": true,
          "internalType": "address",
          "name": "approved",
          "type": "address"
        },
        {
          "indexed": true,
          "internalType": "uint256",
          "name": "tokenId",
          "type": "uint256"
        }
      ],
      "name": "Approval",
      "type": "event"
    },
    {
      "anonymous": false,
      "inputs": [
        {
          "indexed": true,
          "internalType": "address",
          "name": "owner",
          "type": "address"
        },
        {
          "indexed": true,
          "internalType": "address",
          "name": "operator",
          "type": "address"
        },
        {
          "indexed": false,
          "internalType": "bool",
          "name": "approved",
          "type": "bool"
        }
      ],
      "name": "ApprovalForAll",
      "type": "event"
    },
    {
      "anonymous": false,
      "inputs": [
        {
          "indexed": true,
          "internalType": "uint256",
          "name": "fromTokenId",
          "type": "uint256"
        },
        {
          "indexed": false,
          "internalType": "uint256",
          "name": "toTokenId",
          "type": "uint256"
        },
        {
          "indexed": true,
          "internalType": "address",
          "name": "from",
          "type": "address"
        },
        {
          "indexed": true,
          "internalType": "address",
          "name": "to",
          "type": "address"
        }
      ],
      "name": "ConsecutiveTransfer",
      "type": "event"
    },
    {
      "anonymous": false,
      "inputs": [
        {
          "indexed": true,
          "internalType": "address",
          "name": "from",
          "type": "address"
        },
        {
          "indexed": true,
          "internalType": "address",
          "name": "to",
          "type": "address"
        },
        {
          "indexed": true,
          "internalType": "uint256",
          "name": "tokenId",
          "type": "uint256"
        }
      ],
      "name": "Transfer",
      "type": "event"
    },
    {
      "inputs": [
        {
          "internalType": "address",
          "name": "to",
          "type": "address"
        },
        {
          "internalType": "uint256",
          "name": "tokenId",
          "type": "uint256"
        }
      ],
      "name": "approve",
      "outputs": [],
      "stateMutability": "payable",
      "type": "function"
    },
    {
      "inputs": [
        {
          "internalType": "address",
          "name": "owner",
          "type": "address"
        }
      ],
      "name": "balanceOf",
      "outputs": [
        {
          "internalType": "uint256",
          "name": "",
          "type": "uint256"
        }
      ],
      "stateMutability": "view",
      "type": "function"
    },
    {
      "inputs": [
        {
          "internalType": "uint256",
          "name": "tokenId",
          "type": "uint256"
        }
      ],
      "name": "getApproved",
      "outputs": [
        {
          "internalType": "address",
          "name": "",
          "type": "address"
        }
      ],
      "stateMutability": "view",
      "type": "function"
    },
    {
      "inputs": [
        {
          "internalType": "address",
          "name": "owner",
          "type": "address"
        },
        {
          "internalType": "address",
          "name": "operator",
          "type": "address"
        }
      ],
      "name": "isApprovedForAll",
      "outputs": [
        {
          "internalType": "bool",
          "name": "",
          "type": "bool"
        }
      ],
      "stateMutability": "view",
      "type": "function"
    },
    {
      "inputs": [
        {
          "internalType": "address",
          "name": "to",
          "type": "address"
        }
      ],
      "name": "mintOne",
      "outputs": [],
      "stateMutability": "nonpayable",
      "type": "function"
    },
    {
      "inputs": [
        {
          "internalType": "address",
          "name": "to",
          "type": "address"
        }
      ],
      "name": "mintTen",
      "outputs": [],
      "stateMutability": "nonpayable",
      "type": "function"
    },
    {
      "inputs": [],
      "name": "name",
      "outputs": [
        {
          "internalType": "string",
          "name": "",
          "type": "string"
        }
      ],
      "stateMutability": "view",
      "type": "function"
    },
    {
      "inputs": [
        {
          "internalType": "uint256",
          "name": "tokenId",
          "type": "uint256"
        }
      ],
      "name": "ownerOf",
      "outputs": [
        {
          "internalType": "address",
          "name": "",
          "type": "address"
        }
      ],
      "stateMutability": "view",
      "type": "function"
    },
    {
      "inputs": [
        {
          "internalType": "address",
          "name": "to",
          "type": "address"
        }
      ],
      "name": "safeMintOne",
      "outputs": [],
      "stateMutability": "nonpayable",
      "type": "function"
    },
    {
      "inputs": [
        {
          "internalType": "address",
          "name": "to",
          "type": "address"
        }
      ],
      "name": "safeMintTen",
      "outputs": [],
      "stateMutability": "nonpayable",
      "type": "function"
    },
    {
      "inputs": [
        {
          "internalType": "address",
          "name": "from",
          "type": "address"
        },
        {
          "internalType": "address",
          "name": "to",
          "type": "address"
        },
        {
          "internalType": "uint256",
          "name": "tokenId",
          "type": "uint256"
        }
      ],
      "name": "safeTransferFrom",
      "outputs": [],
      "stateMutability": "payable",
      "type": "function"
    },
    {
      "inputs": [
        {
          "internalType": "address",
          "name": "from",
          "type": "address"
        },
        {
          "internalType": "address",
          "name": "to",
          "type": "address"
        },
        {
          "internalType": "uint256",
          "name": "tokenId",
          "type": "uint256"
        },
        {
          "internalType": "bytes",
          "name": "_data",
          "type": "bytes"
        }
      ],
      "name": "safeTransferFrom",
      "outputs": [],
      "stateMutability": "payable",
      "type": "function"
    },
    {
      "inputs": [
        {
          "internalType": "address",
          "name": "operator",
          "type": "address"
        },
        {
          "internalType": "bool",
          "name": "approved",
          "type": "bool"
        }
      ],
      "name": "setApprovalForAll",
      "outputs": [],
      "stateMutability": "nonpayable",
      "type": "function"
    },
    {
      "inputs": [
        {
          "internalType": "bytes4",
          "name": "interfaceId",
          "type": "bytes4"
        }
      ],
      "name": "supportsInterface",
      "outputs": [
        {
          "internalType": "bool",
          "name": "",
          "type": "bool"
        }
      ],
      "stateMutability": "view",
      "type": "function"
    },
    {
      "inputs": [],
      "name": "symbol",
      "outputs": [
        {
          "internalType": "string",
          "name": "",
          "type": "string"
        }
      ],
      "stateMutability": "view",
      "type": "function"
    },
    {
      "inputs": [
        {
          "internalType": "uint256",
          "name": "tokenId",
          "type": "uint256"
        }
      ],
      "name": "tokenURI",
      "outputs": [
        {
          "internalType": "string",
          "name": "",
          "type": "string"
        }
      ],
      "stateMutability": "view",
      "type": "function"
    },
    {
      "inputs": [],
      "name": "totalSupply",
      "outputs": [
        {
          "internalType": "uint256",
          "name": "result",
          "type": "uint256"
        }
      ],
      "stateMutability": "view",
      "type": "function"
    },
    {
      "inputs": [
        {
          "internalType": "address",
          "name": "from",
          "type": "address"
        },
        {
          "internalType": "address",
          "name": "to",
          "type": "address"
        },
        {
          "internalType": "uint256",
          "name": "tokenId",
          "type": "uint256"
        }
      ],
      "name": "transferFrom",
      "outputs": [],
      "stateMutability": "payable",
      "type": "function"
    },
    {
      "inputs": [
        {
          "internalType": "address",
          "name": "to",
          "type": "address"
        }
      ],
      "name": "transferTenAsc",
      "outputs": [],
      "stateMutability": "nonpayable",
      "type": "function"
    },
    {
      "inputs": [
        {
          "internalType": "address",
          "name": "to",
          "type": "address"
        }
      ],
      "name": "transferTenAvg",
      "outputs": [],
      "stateMutability": "nonpayable",
      "type": "function"
    },
    {
      "inputs": [
        {
          "internalType": "address",
          "name": "to",
          "type": "address"
        }
      ],
      "name": "transferTenDesc",
      "outputs": [],
      "stateMutability": "nonpayable",
      "type": "function"
    }
  ],
  "bytecode": "0x608060405260405162001a1238038062001a1283398101604081905262000026916200041b565b600080516020620019f283398151915254610100900460ff166200005f57600080516020620019f28339815191525460ff161562000063565b303b155b620000ca5760405162461bcd60e51b81526020600482015260376024820152600080516020620019d283398151915260448201527f20697320616c726561647920696e697469616c697a656400000000000000000060648201526084015b60405180910390fd5b600080516020620019f283398151915254610100900460ff161580156200010957600080516020620019f2833981519152805461ffff19166101011790555b6200011583836200013f565b80156200013657600080516020620019f2833981519152805461ff00191690555b505050620005e2565b600080516020620019f283398151915254610100900460ff16620001bb5760405162461bcd60e51b81526020600482015260346024820152600080516020620019d283398151915260448201527f206973206e6f7420696e697469616c697a696e670000000000000000000000006064820152608401620000c1565b620001c78282620001d7565b620001d38282620002d7565b5050565b600080516020620019f283398151915254610100900460ff16620002535760405162461bcd60e51b81526020600482015260346024820152600080516020620019d283398151915260448201527f206973206e6f7420696e697469616c697a696e670000000000000000000000006064820152608401620000c1565b7f2569078dfb4b0305704d3008e7403993ae9601b85f7ae5e742de3de8f8011c4262000280838262000516565b507f2569078dfb4b0305704d3008e7403993ae9601b85f7ae5e742de3de8f8011c43620002ae828262000516565b5060007f2569078dfb4b0305704d3008e7403993ae9601b85f7ae5e742de3de8f8011c40555050565b600080516020620019f283398151915254610100900460ff16620001d35760405162461bcd60e51b81526020600482015260346024820152600080516020620019d283398151915260448201527f206973206e6f7420696e697469616c697a696e670000000000000000000000006064820152608401620000c1565b634e487b7160e01b600052604160045260246000fd5b600082601f8301126200037b57600080fd5b81516001600160401b038082111562000398576200039862000353565b604051601f8301601f19908116603f01168101908282118183101715620003c357620003c362000353565b8160405283815260209250866020858801011115620003e157600080fd5b600091505b83821015620004055785820183015181830184015290820190620003e6565b6000602085830101528094505050505092915050565b600080604083850312156200042f57600080fd5b82516001600160401b03808211156200044757600080fd5b620004558683870162000369565b935060208501519150808211156200046c57600080fd5b506200047b8582860162000369565b9150509250929050565b600181811c908216806200049a57607f821691505b602082108103620004bb57634e487b7160e01b600052602260045260246000fd5b50919050565b601f82111562000511576000816000526020600020601f850160051c81016020861015620004ec5750805b601f850160051c820191505b818110156200050d57828155600101620004f8565b5050505b505050565b81516001600160401b0381111562000532576200053262000353565b6200054a8162000543845462000485565b84620004c1565b602080601f831160018114620005825760008415620005695750858301515b600019600386901b1c1916600185901b1785556200050d565b600085815260208120601f198616915b82811015620005b35788860151825594840194600190910190840162000592565b5085821015620005d25787850151600019600388901b60f8161c191681555b5050505050600190811b01905550565b6113e080620005f26000396000f3fe60806040526004361061012a5760003560e01c806370a08231116100ab578063bcd9bbbc1161006f578063bcd9bbbc14610304578063c87b56dd14610324578063db6745f814610344578063e985e9c514610364578063ef9c0bec14610384578063fa695a97146103a457600080fd5b806370a082311461027c57806381861f841461029c57806395d89b41146102bc578063a22cb465146102d1578063b88d4fde146102f157600080fd5b806318160ddd116100f257806318160ddd146101f357806323b872dd1461021657806342842e0e146102295780634da42e581461023c5780636352211e1461025c57600080fd5b806301ffc9a71461012f57806306fdde0314610164578063081812fc14610186578063095ea7b3146101be5780630ff4ba63146101d3575b600080fd5b34801561013b57600080fd5b5061014f61014a366004611030565b6103c4565b60405190151581526020015b60405180910390f35b34801561017057600080fd5b50610179610416565b60405161015b919061109d565b34801561019257600080fd5b506101a66101a13660046110b0565b6104b1565b6040516001600160a01b03909116815260200161015b565b6101d16101cc3660046110e0565b6104f5565b005b3480156101df57600080fd5b506101d16101ee36600461110a565b610505565b3480156101ff57600080fd5b50610208610580565b60405190815260200161015b565b6101d1610224366004611125565b6105bd565b6101d1610237366004611125565b610780565b34801561024857600080fd5b506101d161025736600461110a565b6107a0565b34801561026857600080fd5b506101a66102773660046110b0565b610818565b34801561028857600080fd5b5061020861029736600461110a565b610823565b3480156102a857600080fd5b506101d16102b736600461110a565b610883565b3480156102c857600080fd5b5061017961088e565b3480156102dd57600080fd5b506101d16102ec366004611161565b6108a6565b6101d16102ff3660046111b3565b610923565b34801561031057600080fd5b506101d161031f36600461110a565b610964565b34801561033057600080fd5b5061017961033f3660046110b0565b6109d0565b34801561035057600080fd5b506101d161035f36600461110a565b610a58565b34801561037057600080fd5b5061014f61037f36600461128f565b610a63565b34801561039057600080fd5b506101d161039f36600461110a565b610aa0565b3480156103b057600080fd5b506101d16103bf36600461110a565b610aab565b60006301ffc9a760e01b6001600160e01b0319831614806103f557506380ac58cd60e01b6001600160e01b03198316145b806104105750635b5e139f60e01b6001600160e01b03198316145b92915050565b6060610420610ab6565b600201805461042e906112c2565b80601f016020809104026020016040519081016040528092919081815260200182805461045a906112c2565b80156104a75780601f1061047c576101008083540402835291602001916104a7565b820191906000526020600020905b81548152906001019060200180831161048a57829003601f168201915b5050505050905090565b60006104bc82610ada565b6104d0576104d06333d1c03960e21b610b64565b6104d8610ab6565b60009283526006016020525060409020546001600160a01b031690565b61050182826001610b6e565b5050565b610511338260006105bd565b61051d338260016105bd565b610529338260026105bd565b610535338260036105bd565b610541338260046105bd565b61054d338260056105bd565b610559338260066105bd565b610565338260076105bd565b610571338260086105bd565b61057d338260096105bd565b50565b60008061058b610ab6565b60010154610597610ab6565b54030390506000196105a7610c1f565b146105ba576105b4610ab6565b60080154015b90565b60006105c882610c25565b6001600160a01b0394851694909150811684146105ee576105ee62a1148160e81b610b64565b6000806105fa84610d12565b9150915061061f818761060a3390565b6001600160a01b039081169116811491141790565b6106415761062d8633610a63565b61064157610641632ce44b5f60e11b610b64565b801561064c57600082555b610654610ab6565b6001600160a01b0387166000908152600591909101602052604090208054600019019055610680610ab6565b6001600160a01b03861660008181526005929092016020526040909120805460010190554260a01b17600160e11b176106b7610ab6565b60008681526004919091016020526040812091909155600160e11b8416900361072d57600184016106e6610ab6565b60008281526004919091016020526040812054900361072b57610707610ab6565b54811461072b5783610717610ab6565b600083815260049190910160205260409020555b505b6001600160a01b0385168481887fddf252ad1be2c89b69c2b068fc378daa952ba7f163c4a11628f55a4df523b3ef600080a48060000361077757610777633a954ecd60e21b610b64565b50505050505050565b61079b83838360405180602001604052806000815250610923565b505050565b6107ac338260096105bd565b6107b8338260086105bd565b6107c4338260076105bd565b6107d0338260066105bd565b6107dc338260056105bd565b6107e8338260046105bd565b6107f4338260036105bd565b610800338260026105bd565b61080c338260016105bd565b61057d338260006105bd565b600061041082610c25565b60006001600160a01b038216610843576108436323d3ad8160e21b610b64565b67ffffffffffffffff610854610ab6565b6005016000846001600160a01b03166001600160a01b0316815260200190815260200160002054169050919050565b61057d81600a610d3a565b6060610898610ab6565b600301805461042e906112c2565b806108af610ab6565b336000818152600792909201602090815260408084206001600160a01b03881680865290835293819020805460ff19169515159590951790945592518415158152919290917f17307eab39ab6107e8899845ad3d59bd9653f200f220920489ca2b5937696c31910160405180910390a35050565b61092e8484846105bd565b6001600160a01b0383163b1561095e5761094a84848484610d54565b61095e5761095e6368d2bf6b60e11b610b64565b50505050565b610970338260046105bd565b61097c338260056105bd565b610988338260036105bd565b610994338260066105bd565b6109a0338260026105bd565b6109ac338260076105bd565b6109b8338260016105bd565b6109c4338260086105bd565b610571338260006105bd565b60606109db82610ada565b6109ef576109ef630a14c4b560e41b610b64565b6000610a0660408051602081019091526000815290565b90508051600003610a265760405180602001604052806000815250610a51565b80610a3084610e36565b604051602001610a419291906112fc565b6040516020818303038152906040525b9392505050565b61057d816001610d3a565b6000610a6d610ab6565b6001600160a01b039384166000908152600791909101602090815260408083209490951682529290925250205460ff1690565b61057d81600a610e7a565b61057d816001610e7a565b7f2569078dfb4b0305704d3008e7403993ae9601b85f7ae5e742de3de8f8011c4090565b6000610ae4610c1f565b821115610b0e57610410610af6610ab6565b60008481526004919091016020526040902054610f90565b610b16610ab6565b54821015610b5f5760005b610b29610ab6565b600084815260049190910160205260408120549150819003610b5557610b4e8361132b565b9250610b21565b600160e01b161590505b919050565b8060005260046000fd5b6000610b7983610818565b9050818015610b915750336001600160a01b03821614155b15610bb457610ba08133610a63565b610bb457610bb46367d9dca160e11b610b64565b83610bbd610ab6565b6000858152600691909101602052604080822080546001600160a01b0319166001600160a01b0394851617905551859287811692908516917f8c5be1e5ebec7d5bd14f71427d1e84f3dd0314c0f7b2291e5b200ac8c7c3b9259190a450505050565b60001990565b6000610c2f610ab6565b600083815260049190910160205260409020549050610c4c610c1f565b821115610c7657610c5c81610f90565b15610c6657919050565b610c76636f96cda160e11b610b64565b80600003610cef57610c86610ab6565b548210610c9d57610c9d636f96cda160e11b610b64565b610ca5610ab6565b600019909201600081815260049390930160205260409092205490508015610c9d57600160e01b8116600003610cda57919050565b610cea636f96cda160e11b610b64565b610c9d565b600160e01b8116600003610d0257919050565b610b5f636f96cda160e11b610b64565b6000806000610d1f610ab6565b60009485526006016020525050604090912080549092909150565b610501828260405180602001604052806000815250610fa6565b604051630a85bd0160e11b81526000906001600160a01b0385169063150b7a0290610d89903390899088908890600401611350565b6020604051808303816000875af1925050508015610dc4575060408051601f3d908101601f19168201909252610dc19181019061138d565b60015b610e19573d808015610df2576040519150601f19603f3d011682016040523d82523d6000602084013e610df7565b606091505b508051600003610e1157610e116368d2bf6b60e11b610b64565b805181602001fd5b6001600160e01b031916630a85bd0160e11b149050949350505050565b606060a06040510180604052602081039150506000815280825b600183039250600a81066030018353600a900480610e505750819003601f19909101908152919050565b6000610e84610ab6565b5490506000829003610ea057610ea063b562e8dd60e01b610b64565b6001600160a01b0383164260a01b6001841460e11b1717610ebf610ab6565b60008381526004919091016020526040902055680100000000000000018202610ee6610ab6565b6001600160a01b0385166000818152600592909201602052604082208054909301909255819003610f2057610f20622e076360e81b610b64565b81830182610f2c610c1f565b600183031115610f4657610f466340b23f1d60e11b610b64565b5b808360007fddf252ad1be2c89b69c2b068fc378daa952ba7f163c4a11628f55a4df523b3ef600080a4818160010191508103610f475781610f86610ab6565b555061079b915050565b600160e01b81166001600160a01b039091161190565b610fb08383610e7a565b6001600160a01b0383163b1561079b576000610fca610ab6565b5490508281035b610fe46000868380600101945086610d54565b610ff857610ff86368d2bf6b60e11b610b64565b818110610fd15781611008610ab6565b541461101357600080fd5b5050505050565b6001600160e01b03198116811461057d57600080fd5b60006020828403121561104257600080fd5b8135610a518161101a565b60005b83811015611068578181015183820152602001611050565b50506000910152565b6000815180845261108981602086016020860161104d565b601f01601f19169290920160200192915050565b602081526000610a516020830184611071565b6000602082840312156110c257600080fd5b5035919050565b80356001600160a01b0381168114610b5f57600080fd5b600080604083850312156110f357600080fd5b6110fc836110c9565b946020939093013593505050565b60006020828403121561111c57600080fd5b610a51826110c9565b60008060006060848603121561113a57600080fd5b611143846110c9565b9250611151602085016110c9565b9150604084013590509250925092565b6000806040838503121561117457600080fd5b61117d836110c9565b91506020830135801515811461119257600080fd5b809150509250929050565b634e487b7160e01b600052604160045260246000fd5b600080600080608085870312156111c957600080fd5b6111d2856110c9565b93506111e0602086016110c9565b925060408501359150606085013567ffffffffffffffff8082111561120457600080fd5b818701915087601f83011261121857600080fd5b81358181111561122a5761122a61119d565b604051601f8201601f19908116603f011681019083821181831017156112525761125261119d565b816040528281528a602084870101111561126b57600080fd5b82602086016020830137600060208483010152809550505050505092959194509250565b600080604083850312156112a257600080fd5b6112ab836110c9565b91506112b9602084016110c9565b90509250929050565b600181811c908216806112d657607f821691505b6020821081036112f657634e487b7160e01b600052602260045260246000fd5b50919050565b6000835161130e81846020880161104d565b83519083019061132281836020880161104d565b01949350505050565b60008161134857634e487b7160e01b600052601160045260246000fd5b506000190190565b6001600160a01b038581168252841660208201526040810183905260806060820181905260009061138390830184611071565b9695505050505050565b60006020828403121561139f57600080fd5b8151610a518161101a56fea264697066735822122022bf081d788e9e1e663489a7727daa3b89be5cfc246a4baab49b2cb1b805d8a864736f6c63430008180033455243373231415f5f496e697469616c697a61626c653a20636f6e7472616374ee151c8401928dc223602bb187aff91b9a56c7cae5476ef1b3287b085a16c85f",
  "linkReferences": {},
  "deployedLinkReferences": {}
}