{
  "_format": "hh-sol-artifact-1",
  "contractName": "ERC721AQueryableMockUpgradeableWithInit",
  "sourceName": "contracts/ERC721A-Upgradeable/contracts/mocks/WithInit.sol",
  "abi": [
    {
      "inputs": [
        {
          "internalType": "string",
          "name": "name_",
          "type": "string"
        },
        {
          "internalType": "string",
          "name": "symbol_",
          "type": "string"
        }
      ],
      "stateMutability": "payable",
      "type": "constructor"
    },
    {
      "inputs": [],
      "name": "ApprovalCallerNotOwnerNorApproved",
      "type": "error"
    },
    {
      "inputs": [],
      "name": "ApprovalQueryForNonexistentToken",
      "type": "error"
    },
    {
      "inputs": [],
      "name": "BalanceQueryForZeroAddress",
      "type": "error"
    },
    {
      "inputs": [],
      "name": "InvalidQueryRange",
      "type": "error"
    },
    {
      "inputs": [],
      "name": "MintERC2309QuantityExceedsLimit",
      "type": "error"
    },
    {
      "inputs": [],
      "name": "MintToZeroAddress",
      "type": "error"
    },
    {
      "inputs": [],
      "name": "MintZeroQuantity",
      "type": "error"
    },
    {
      "inputs": [],
      "name": "NotCompatibleWithSpotMints",
      "type": "error"
    },
    {
      "inputs": [],
      "name": "OwnerQueryForNonexistentToken",
      "type": "error"
    },
    {
      "inputs": [],
      "name": "OwnershipNotInitializedForExtraData",
      "type": "error"
    },
    {
      "inputs": [],
      "name": "SequentialMintExceedsLimit",
      "type": "error"
    },
    {
      "inputs": [],
      "name": "SequentialUpToTooSmall",
      "type": "error"
    },
    {
      "inputs": [],
      "name": "SpotMintTokenIdTooSmall",
      "type": "error"
    },
    {
      "inputs": [],
      "name": "TokenAlreadyExists",
      "type": "error"
    },
    {
      "inputs": [],
      "name": "TransferCallerNotOwnerNorApproved",
      "type": "error"
    },
    {
      "inputs": [],
      "name": "TransferFromIncorrectOwner",
      "type": "error"
    },
    {
      "inputs": [],
      "name": "TransferToNonERC721ReceiverImplementer",
      "type": "error"
    },
    {
      "inputs": [],
      "name": "TransferToZeroAddress",
      "type": "error"
    },
    {
      "inputs": [],
      "name": "URIQueryForNonexistentToken",
      "type": "error"
    },
    {
      "anonymous": false,
      "inputs": [
        {
          "indexed": true,
          "internalType": "address",
          "name": "owner",
          "type": "address"
        },
        {
          "indexed": true,
          "internalType": "address",
          "name": "approved",
          "type": "address"
        },
        {
          "indexed": true,
          "internalType": "uint256",
          "name": "tokenId",
          "type": "uint256"
        }
      ],
      "name": "Approval",
      "type": "event"
    },
    {
      "anonymous": false,
      "inputs": [
        {
          "indexed": true,
          "internalType": "address",
          "name": "owner",
          "type": "address"
        },
        {
          "indexed": true,
          "internalType": "address",
          "name": "operator",
          "type": "address"
        },
        {
          "indexed": false,
          "internalType": "bool",
          "name": "approved",
          "type": "bool"
        }
      ],
      "name": "ApprovalForAll",
      "type": "event"
    },
    {
      "anonymous": false,
      "inputs": [
        {
          "indexed": true,
          "internalType": "uint256",
          "name": "fromTokenId",
          "type": "uint256"
        },
        {
          "indexed": false,
          "internalType": "uint256",
          "name": "toTokenId",
          "type": "uint256"
        },
        {
          "indexed": true,
          "internalType": "address",
          "name": "from",
          "type": "address"
        },
        {
          "indexed": true,
          "internalType": "address",
          "name": "to",
          "type": "address"
        }
      ],
      "name": "ConsecutiveTransfer",
      "type": "event"
    },
    {
      "anonymous": false,
      "inputs": [
        {
          "indexed": true,
          "internalType": "address",
          "name": "from",
          "type": "address"
        },
        {
          "indexed": true,
          "internalType": "address",
          "name": "to",
          "type": "address"
        },
        {
          "indexed": true,
          "internalType": "uint256",
          "name": "tokenId",
          "type": "uint256"
        }
      ],
      "name": "Transfer",
      "type": "event"
    },
    {
      "inputs": [
        {
          "internalType": "address",
          "name": "to",
          "type": "address"
        },
        {
          "internalType": "uint256",
          "name": "tokenId",
          "type": "uint256"
        }
      ],
      "name": "approve",
      "outputs": [],
      "stateMutability": "payable",
      "type": "function"
    },
    {
      "inputs": [
        {
          "internalType": "address",
          "name": "owner",
          "type": "address"
        }
      ],
      "name": "balanceOf",
      "outputs": [
        {
          "internalType": "uint256",
          "name": "",
          "type": "uint256"
        }
      ],
      "stateMutability": "view",
      "type": "function"
    },
    {
      "inputs": [
        {
          "internalType": "uint256",
          "name": "tokenId",
          "type": "uint256"
        }
      ],
      "name": "burn",
      "outputs": [],
      "stateMutability": "nonpayable",
      "type": "function"
    },
    {
      "inputs": [
        {
          "internalType": "uint256",
          "name": "index",
          "type": "uint256"
        }
      ],
      "name": "directSetBurnBit",
      "outputs": [],
      "stateMutability": "nonpayable",
      "type": "function"
    },
    {
      "inputs": [
        {
          "internalType": "uint256",
          "name": "tokenId",
          "type": "uint256"
        }
      ],
      "name": "explicitOwnershipOf",
      "outputs": [
        {
          "components": [
            {
              "internalType": "address",
              "name": "addr",
              "type": "address"
            },
            {
              "internalType": "uint64",
              "name": "startTimestamp",
              "type": "uint64"
            },
            {
              "internalType": "bool",
              "name": "burned",
              "type": "bool"
            },
            {
              "internalType": "uint24",
              "name": "extraData",
              "type": "uint24"
            }
          ],
          "internalType": "struct IERC721AUpgradeable.TokenOwnership",
          "name": "ownership",
          "type": "tuple"
        }
      ],
      "stateMutability": "view",
      "type": "function"
    },
    {
      "inputs": [
        {
          "internalType": "uint256[]",
          "name": "tokenIds",
          "type": "uint256[]"
        }
      ],
      "name": "explicitOwnershipsOf",
      "outputs": [
        {
          "components": [
            {
              "internalType": "address",
              "name": "addr",
              "type": "address"
            },
            {
              "internalType": "uint64",
              "name": "startTimestamp",
              "type": "uint64"
            },
            {
              "internalType": "bool",
              "name": "burned",
              "type": "bool"
            },
            {
              "internalType": "uint24",
              "name": "extraData",
              "type": "uint24"
            }
          ],
          "internalType": "struct IERC721AUpgradeable.TokenOwnership[]",
          "name": "",
          "type": "tuple[]"
        }
      ],
      "stateMutability": "view",
      "type": "function"
    },
    {
      "inputs": [
        {
          "internalType": "uint256",
          "name": "tokenId",
          "type": "uint256"
        }
      ],
      "name": "getApproved",
      "outputs": [
        {
          "internalType": "address",
          "name": "",
          "type": "address"
        }
      ],
      "stateMutability": "view",
      "type": "function"
    },
    {
      "inputs": [
        {
          "internalType": "address",
          "name": "owner",
          "type": "address"
        },
        {
          "internalType": "address",
          "name": "operator",
          "type": "address"
        }
      ],
      "name": "isApprovedForAll",
      "outputs": [
        {
          "internalType": "bool",
          "name": "",
          "type": "bool"
        }
      ],
      "stateMutability": "view",
      "type": "function"
    },
    {
      "inputs": [],
      "name": "name",
      "outputs": [
        {
          "internalType": "string",
          "name": "",
          "type": "string"
        }
      ],
      "stateMutability": "view",
      "type": "function"
    },
    {
      "inputs": [
        {
          "internalType": "uint256",
          "name": "tokenId",
          "type": "uint256"
        }
      ],
      "name": "ownerOf",
      "outputs": [
        {
          "internalType": "address",
          "name": "",
          "type": "address"
        }
      ],
      "stateMutability": "view",
      "type": "function"
    },
    {
      "inputs": [
        {
          "internalType": "address",
          "name": "to",
          "type": "address"
        },
        {
          "internalType": "uint256",
          "name": "quantity",
          "type": "uint256"
        }
      ],
      "name": "safeMint",
      "outputs": [],
      "stateMutability": "nonpayable",
      "type": "function"
    },
    {
      "inputs": [
        {
          "internalType": "address",
          "name": "from",
          "type": "address"
        },
        {
          "internalType": "address",
          "name": "to",
          "type": "address"
        },
        {
          "internalType": "uint256",
          "name": "tokenId",
          "type": "uint256"
        }
      ],
      "name": "safeTransferFrom",
      "outputs": [],
      "stateMutability": "payable",
      "type": "function"
    },
    {
      "inputs": [
        {
          "internalType": "address",
          "name": "from",
          "type": "address"
        },
        {
          "internalType": "address",
          "name": "to",
          "type": "address"
        },
        {
          "internalType": "uint256",
          "name": "tokenId",
          "type": "uint256"
        },
        {
          "internalType": "bytes",
          "name": "_data",
          "type": "bytes"
        }
      ],
      "name": "safeTransferFrom",
      "outputs": [],
      "stateMutability": "payable",
      "type": "function"
    },
    {
      "inputs": [
        {
          "internalType": "address",
          "name": "operator",
          "type": "address"
        },
        {
          "internalType": "bool",
          "name": "approved",
          "type": "bool"
        }
      ],
      "name": "setApprovalForAll",
      "outputs": [],
      "stateMutability": "nonpayable",
      "type": "function"
    },
    {
      "inputs": [
        {
          "internalType": "bytes4",
          "name": "interfaceId",
          "type": "bytes4"
        }
      ],
      "name": "supportsInterface",
      "outputs": [
        {
          "internalType": "bool",
          "name": "",
          "type": "bool"
        }
      ],
      "stateMutability": "view",
      "type": "function"
    },
    {
      "inputs": [],
      "name": "symbol",
      "outputs": [
        {
          "internalType": "string",
          "name": "",
          "type": "string"
        }
      ],
      "stateMutability": "view",
      "type": "function"
    },
    {
      "inputs": [
        {
          "internalType": "uint256",
          "name": "tokenId",
          "type": "uint256"
        }
      ],
      "name": "tokenURI",
      "outputs": [
        {
          "internalType": "string",
          "name": "",
          "type": "string"
        }
      ],
      "stateMutability": "view",
      "type": "function"
    },
    {
      "inputs": [
        {
          "internalType": "address",
          "name": "owner",
          "type": "address"
        }
      ],
      "name": "tokensOfOwner",
      "outputs": [
        {
          "internalType": "uint256[]",
          "name": "",
          "type": "uint256[]"
        }
      ],
      "stateMutability": "view",
      "type": "function"
    },
    {
      "inputs": [
        {
          "internalType": "address",
          "name": "owner",
          "type": "address"
        },
        {
          "internalType": "uint256",
          "name": "start",
          "type": "uint256"
        },
        {
          "internalType": "uint256",
          "name": "stop",
          "type": "uint256"
        }
      ],
      "name": "tokensOfOwnerIn",
      "outputs": [
        {
          "internalType": "uint256[]",
          "name": "",
          "type": "uint256[]"
        }
      ],
      "stateMutability": "view",
      "type": "function"
    },
    {
      "inputs": [],
      "name": "totalSupply",
      "outputs": [
        {
          "internalType": "uint256",
          "name": "result",
          "type": "uint256"
        }
      ],
      "stateMutability": "view",
      "type": "function"
    },
    {
      "inputs": [
        {
          "internalType": "address",
          "name": "from",
          "type": "address"
        },
        {
          "internalType": "address",
          "name": "to",
          "type": "address"
        },
        {
          "internalType": "uint256",
          "name": "tokenId",
          "type": "uint256"
        }
      ],
      "name": "transferFrom",
      "outputs": [],
      "stateMutability": "payable",
      "type": "function"
    }
  ],
  "bytecode": "0x60806040526040516200366a3803806200366a83398181016040528101906200002991906200073f565b620000396200019f60201b60201c565b60000160019054906101000a900460ff1662000077576200005f6200019f60201b60201c565b60000160009054906101000a900460ff161562000088565b62000087620001cc60201b60201c565b5b620000ca576040517f08c379a0000000000000000000000000000000000000000000000000000000008152600401620000c1906200084b565b60405180910390fd5b6000620000dc6200019f60201b60201c565b60000160019054906101000a900460ff16159050801562000150576001620001096200019f60201b60201c565b60000160016101000a81548160ff0219169083151502179055506001620001356200019f60201b60201c565b60000160006101000a81548160ff0219169083151502179055505b620001628383620001e360201b60201c565b8015620001965760006200017b6200019f60201b60201c565b60000160016101000a81548160ff0219169083151502179055505b50505062000c37565b6000807fee151c8401928dc223602bb187aff91b9a56c7cae5476ef1b3287b085a16c85f90508091505090565b6000803090506000813b9050600081149250505090565b620001f36200019f60201b60201c565b60000160019054906101000a900460ff1662000246576040517f08c379a00000000000000000000000000000000000000000000000000000000081526004016200023d90620008e3565b60405180910390fd5b6200025882826200029e60201b60201c565b62000268620003b260201b60201c565b620002786200041760201b60201c565b620002886200047c60201b60201c565b6200029a8282620004e160201b60201c565b5050565b620002ae6200019f60201b60201c565b60000160019054906101000a900460ff1662000301576040517f08c379a0000000000000000000000000000000000000000000000000000000008152600401620002f890620008e3565b60405180910390fd5b81620003126200054860201b60201c565b600201908162000323919062000b50565b5080620003356200054860201b60201c565b600301908162000346919062000b50565b50620003576200057560201b60201c565b620003676200054860201b60201c565b600001819055506200037e6200057560201b60201c565b6200038e6200057a60201b60201c565b1015620003ae57620003ad63fed8210f60e01b620005a260201b60201c565b5b5050565b620003c26200019f60201b60201c565b60000160019054906101000a900460ff1662000415576040517f08c379a00000000000000000000000000000000000000000000000000000000081526004016200040c90620008e3565b60405180910390fd5b565b620004276200019f60201b60201c565b60000160019054906101000a900460ff166200047a576040517f08c379a00000000000000000000000000000000000000000000000000000000081526004016200047190620008e3565b60405180910390fd5b565b6200048c6200019f60201b60201c565b60000160019054906101000a900460ff16620004df576040517f08c379a0000000000000000000000000000000000000000000000000000000008152600401620004d690620008e3565b60405180910390fd5b565b620004f16200019f60201b60201c565b60000160019054906101000a900460ff1662000544576040517f08c379a00000000000000000000000000000000000000000000000000000000081526004016200053b90620008e3565b60405180910390fd5b5050565b6000807f2569078dfb4b0305704d3008e7403993ae9601b85f7ae5e742de3de8f8011c4090508091505090565b600090565b60007fffffffffffffffffffffffffffffffffffffffffffffffffffffffffffffffff905090565b8060005260046000fd5b6000604051905090565b600080fd5b600080fd5b600080fd5b600080fd5b6000601f19601f8301169050919050565b7f4e487b7100000000000000000000000000000000000000000000000000000000600052604160045260246000fd5b6200061582620005ca565b810181811067ffffffffffffffff82111715620006375762000636620005db565b5b80604052505050565b60006200064c620005ac565b90506200065a82826200060a565b919050565b600067ffffffffffffffff8211156200067d576200067c620005db565b5b6200068882620005ca565b9050602081019050919050565b60005b83811015620006b557808201518184015260208101905062000698565b60008484015250505050565b6000620006d8620006d2846200065f565b62000640565b905082815260208101848484011115620006f757620006f6620005c5565b5b6200070484828562000695565b509392505050565b600082601f830112620007245762000723620005c0565b5b815162000736848260208601620006c1565b91505092915050565b60008060408385031215620007595762000758620005b6565b5b600083015167ffffffffffffffff8111156200077a5762000779620005bb565b5b62000788858286016200070c565b925050602083015167ffffffffffffffff811115620007ac57620007ab620005bb565b5b620007ba858286016200070c565b9150509250929050565b600082825260208201905092915050565b7f455243373231415f5f496e697469616c697a61626c653a20636f6e747261637460008201527f20697320616c726561647920696e697469616c697a6564000000000000000000602082015250565b600062000833603783620007c4565b91506200084082620007d5565b604082019050919050565b60006020820190508181036000830152620008668162000824565b9050919050565b7f455243373231415f5f496e697469616c697a61626c653a20636f6e747261637460008201527f206973206e6f7420696e697469616c697a696e67000000000000000000000000602082015250565b6000620008cb603483620007c4565b9150620008d8826200086d565b604082019050919050565b60006020820190508181036000830152620008fe81620008bc565b9050919050565b600081519050919050565b7f4e487b7100000000000000000000000000000000000000000000000000000000600052602260045260246000fd5b600060028204905060018216806200095857607f821691505b6020821081036200096e576200096d62000910565b5b50919050565b60008190508160005260206000209050919050565b60006020601f8301049050919050565b600082821b905092915050565b600060088302620009d87fffffffffffffffffffffffffffffffffffffffffffffffffffffffffffffffff8262000999565b620009e4868362000999565b95508019841693508086168417925050509392505050565b6000819050919050565b6000819050919050565b600062000a3162000a2b62000a2584620009fc565b62000a06565b620009fc565b9050919050565b6000819050919050565b62000a4d8362000a10565b62000a6562000a5c8262000a38565b848454620009a6565b825550505050565b600090565b62000a7c62000a6d565b62000a8981848462000a42565b505050565b5b8181101562000ab15762000aa560008262000a72565b60018101905062000a8f565b5050565b601f82111562000b005762000aca8162000974565b62000ad58462000989565b8101602085101562000ae5578190505b62000afd62000af48562000989565b83018262000a8e565b50505b505050565b600082821c905092915050565b600062000b256000198460080262000b05565b1980831691505092915050565b600062000b40838362000b12565b9150826002028217905092915050565b62000b5b8262000905565b67ffffffffffffffff81111562000b775762000b76620005db565b5b62000b8382546200093f565b62000b9082828562000ab5565b600060209050601f83116001811462000bc8576000841562000bb3578287015190505b62000bbf858262000b32565b86555062000c2f565b601f19841662000bd88662000974565b60005b8281101562000c025784890151825560018201915060208501945060208101905062000bdb565b8683101562000c22578489015162000c1e601f89168262000b12565b8355505b6001600288020188555050505b505050505050565b612a238062000c476000396000f3fe60806040526004361061012a5760003560e01c80636352211e116100ab578063a14481941161006f578063a144819414610401578063a22cb4651461042a578063b88d4fde14610453578063c23dc68f1461046f578063c87b56dd146104ac578063e985e9c5146104e95761012a565b80636352211e146102e257806370a082311461031f5780638462151c1461035c57806395d89b411461039957806399a2557a146103c45761012a565b806323b872dd116100f257806323b872dd1461021b57806342842e0e1461023757806342966c68146102535780634b6c5d8c1461027c5780635bbb2177146102a55761012a565b806301ffc9a71461012f57806306fdde031461016c578063081812fc14610197578063095ea7b3146101d457806318160ddd146101f0575b600080fd5b34801561013b57600080fd5b5061015660048036038101906101519190611ecf565b610526565b6040516101639190611f17565b60405180910390f35b34801561017857600080fd5b506101816105b8565b60405161018e9190611fc2565b60405180910390f35b3480156101a357600080fd5b506101be60048036038101906101b9919061201a565b610653565b6040516101cb9190612088565b60405180910390f35b6101ee60048036038101906101e991906120cf565b6106ba565b005b3480156101fc57600080fd5b506102056106ca565b604051610212919061211e565b60405180910390f35b61023560048036038101906102309190612139565b610732565b005b610251600480360381019061024c9190612139565b610a29565b005b34801561025f57600080fd5b5061027a6004803603810190610275919061201a565b610a49565b005b34801561028857600080fd5b506102a3600480360381019061029e919061201a565b610a57565b005b3480156102b157600080fd5b506102cc60048036038101906102c791906121f1565b610ad0565b6040516102d991906123a1565b60405180910390f35b3480156102ee57600080fd5b506103096004803603810190610304919061201a565b610b30565b6040516103169190612088565b60405180910390f35b34801561032b57600080fd5b50610346600480360381019061034191906123c3565b610b42565b604051610353919061211e565b60405180910390f35b34801561036857600080fd5b50610383600480360381019061037e91906123c3565b610be2565b60405161039091906124ae565b60405180910390f35b3480156103a557600080fd5b506103ae610c5d565b6040516103bb9190611fc2565b60405180910390f35b3480156103d057600080fd5b506103eb60048036038101906103e691906124d0565b610cf8565b6040516103f891906124ae565b60405180910390f35b34801561040d57600080fd5b50610428600480360381019061042391906120cf565b610d0e565b005b34801561043657600080fd5b50610451600480360381019061044c919061254f565b610d1c565b005b61046d600480360381019061046891906126bf565b610e30565b005b34801561047b57600080fd5b506104966004803603810190610491919061201a565b610e82565b6040516104a39190612797565b60405180910390f35b3480156104b857600080fd5b506104d360048036038101906104ce919061201a565b610ef7565b6040516104e09190611fc2565b60405180910390f35b3480156104f557600080fd5b50610510600480360381019061050b91906127b2565b610f74565b60405161051d9190611f17565b60405180910390f35b60006301ffc9a760e01b827bffffffffffffffffffffffffffffffffffffffffffffffffffffffff1916148061058157506380ac58cd60e01b827bffffffffffffffffffffffffffffffffffffffffffffffffffffffff1916145b806105b15750635b5e139f60e01b827bffffffffffffffffffffffffffffffffffffffffffffffffffffffff1916145b9050919050565b60606105c2611011565b60020180546105d090612821565b80601f01602080910402602001604051908101604052809291908181526020018280546105fc90612821565b80156106495780601f1061061e57610100808354040283529160200191610649565b820191906000526020600020905b81548152906001019060200180831161062c57829003601f168201915b5050505050905090565b600061065e8261103e565b6106735761067263cf4700e460e01b611105565b5b61067b611011565b600601600083815260200190815260200160002060000160009054906101000a900473ffffffffffffffffffffffffffffffffffffffff169050919050565b6106c68282600161110f565b5050565b60006106d4611247565b6106dc611011565b600101546106e8611011565b60000154030390507fffffffffffffffffffffffffffffffffffffffffffffffffffffffffffffffff61071961124c565b1461072f57610726611011565b60080154810190505b90565b600061073d82611274565b905073ffffffffffffffffffffffffffffffffffffffff8473ffffffffffffffffffffffffffffffffffffffff161693508373ffffffffffffffffffffffffffffffffffffffff168173ffffffffffffffffffffffffffffffffffffffff16146107b2576107b163a114810060e01b611105565b5b6000806107be846113a8565b915091506107d481876107cf6113d8565b6113e0565b6107ff576107e9866107e46113d8565b610f74565b6107fe576107fd6359c896be60e01b611105565b5b5b61080c8686866001611424565b801561081757600082555b61081f611011565b60050160008773ffffffffffffffffffffffffffffffffffffffff1673ffffffffffffffffffffffffffffffffffffffff168152602001908152602001600020600081546001900391905081905550610876611011565b60050160008673ffffffffffffffffffffffffffffffffffffffff1673ffffffffffffffffffffffffffffffffffffffff16815260200190815260200160002060008154600101919050819055506108f7856108d388888761142a565b7c020000000000000000000000000000000000000000000000000000000017611452565b6108ff611011565b60040160008681526020019081526020016000208190555060007c02000000000000000000000000000000000000000000000000000000008416036109a15760006001850190506000610950611011565b6004016000838152602001908152602001600020540361099f57610972611011565b60000154811461099e5783610985611011565b6004016000838152602001908152602001600020819055505b5b505b600073ffffffffffffffffffffffffffffffffffffffff8673ffffffffffffffffffffffffffffffffffffffff161690508481887fddf252ad1be2c89b69c2b068fc378daa952ba7f163c4a11628f55a4df523b3ef600080a460008103610a1357610a1263ea553b3460e01b611105565b5b610a20878787600161147d565b50505050505050565b610a4483838360405180602001604052806000815250610e30565b505050565b610a54816001611483565b50565b60007f2569078dfb4b0305704d3008e7403993ae9601b85f7ae5e742de3de8f8011c40905060007c01000000000000000000000000000000000000000000000000000000009050600460205282600052604060002081815417815560048301602052836000526040600020905081815417815550505050565b606080600084849050905060405191508082528060051b90508060208301016040525b60008114610b255760006020820391508186013590506000610b1482610e82565b905080836020860101525050610af3565b819250505092915050565b6000610b3b82611274565b9050919050565b60008073ffffffffffffffffffffffffffffffffffffffff168273ffffffffffffffffffffffffffffffffffffffff1603610b8857610b87638f4eb60460e01b611105565b5b67ffffffffffffffff610b99611011565b60050160008473ffffffffffffffffffffffffffffffffffffffff1673ffffffffffffffffffffffffffffffffffffffff16815260200190815260200160002054169050919050565b60607fffffffffffffffffffffffffffffffffffffffffffffffffffffffffffffffff610c0d61124c565b14610c2357610c2263bdba09d760e01b611105565b5b6000610c2d611247565b90506000610c396116ea565b90506060818314610c5257610c4f8584846116fd565b90505b809350505050919050565b6060610c67611011565b6003018054610c7590612821565b80601f0160208091040260200160405190810160405280929190818152602001828054610ca190612821565b8015610cee5780601f10610cc357610100808354040283529160200191610cee565b820191906000526020600020905b815481529060010190602001808311610cd157829003601f168201915b5050505050905090565b6060610d058484846116fd565b90509392505050565b610d1882826118b9565b5050565b80610d25611011565b6007016000610d326113d8565b73ffffffffffffffffffffffffffffffffffffffff1673ffffffffffffffffffffffffffffffffffffffff16815260200190815260200160002060008473ffffffffffffffffffffffffffffffffffffffff1673ffffffffffffffffffffffffffffffffffffffff16815260200190815260200160002060006101000a81548160ff0219169083151502179055508173ffffffffffffffffffffffffffffffffffffffff16610ddf6113d8565b73ffffffffffffffffffffffffffffffffffffffff167f17307eab39ab6107e8899845ad3d59bd9653f200f220920489ca2b5937696c3183604051610e249190611f17565b60405180910390a35050565b610e3b848484610732565b60008373ffffffffffffffffffffffffffffffffffffffff163b14610e7c57610e66848484846118d7565b610e7b57610e7a63d1a57ed660e01b611105565b5b5b50505050565b610e8a611e14565b610e92611247565b8210610ef157610ea061124c565b821115610eb757610eb082611a06565b9050610ef2565b610ebf6116ea565b821015610ef0575b610ed082611a3a565b610ee05781600190039150610ec7565b610ee982611a06565b9050610ef2565b5b5b919050565b6060610f028261103e565b610f1757610f1663a14c4b5060e01b611105565b5b6000610f21611a63565b90506000815103610f415760405180602001604052806000815250610f6c565b80610f4b84611a7a565b604051602001610f5c92919061288e565b6040516020818303038152906040525b915050919050565b6000610f7e611011565b60070160008473ffffffffffffffffffffffffffffffffffffffff1673ffffffffffffffffffffffffffffffffffffffff16815260200190815260200160002060008373ffffffffffffffffffffffffffffffffffffffff1673ffffffffffffffffffffffffffffffffffffffff16815260200190815260200160002060009054906101000a900460ff16905092915050565b6000807f2569078dfb4b0305704d3008e7403993ae9601b85f7ae5e742de3de8f8011c4090508091505090565b600081611049611247565b116110ff5761105661124c565b82111561108957611082611068611011565b600401600084815260200190815260200160002054611aca565b9050611100565b611091611011565b600001548210156110fe5760005b60006110a9611011565b600401600085815260200190815260200160002054915081036110d757826110d0906128e1565b925061109f565b60007c01000000000000000000000000000000000000000000000000000000008216149150505b5b5b919050565b8060005260046000fd5b600061111a83610b30565b905081801561115c57508073ffffffffffffffffffffffffffffffffffffffff166111436113d8565b73ffffffffffffffffffffffffffffffffffffffff1614155b15611188576111728161116d6113d8565b610f74565b6111875761118663cfb3b94260e01b611105565b5b5b83611191611011565b600601600085815260200190815260200160002060000160006101000a81548173ffffffffffffffffffffffffffffffffffffffff021916908373ffffffffffffffffffffffffffffffffffffffff160217905550828473ffffffffffffffffffffffffffffffffffffffff168273ffffffffffffffffffffffffffffffffffffffff167f8c5be1e5ebec7d5bd14f71427d1e84f3dd0314c0f7b2291e5b200ac8c7c3b92560405160405180910390a450505050565b600090565b60007fffffffffffffffffffffffffffffffffffffffffffffffffffffffffffffffff905090565b60008161127f611247565b116113925761128c611011565b60040160008381526020019081526020016000205490506112ab61124c565b8211156112d0576112bb81611aca565b6113a3576112cf63df2d9b4260e01b611105565b5b60008103611369576112e0611011565b6000015482106112fb576112fa63df2d9b4260e01b611105565b5b5b611304611011565b60040160008360019003935083815260200190815260200160002054905060008103156113645760007c0100000000000000000000000000000000000000000000000000000000821603156113a35761136363df2d9b4260e01b611105565b5b6112fc565b60007c0100000000000000000000000000000000000000000000000000000000821603156113a3575b6113a263df2d9b4260e01b611105565b5b919050565b60008060006113b5611011565b600601600085815260200190815260200160002090508092508254915050915091565b600033905090565b600073ffffffffffffffffffffffffffffffffffffffff8316925073ffffffffffffffffffffffffffffffffffffffff821691508382148383141790509392505050565b50505050565b60008060e883901c905060e8611441868684611b0b565b62ffffff16901b9150509392505050565b600073ffffffffffffffffffffffffffffffffffffffff83169250814260a01b178317905092915050565b50505050565b600061148e83611274565b905060008190506000806114a1866113a8565b9150915084156114e9576114bd81846114b86113d8565b6113e0565b6114e8576114d2836114cd6113d8565b610f74565b6114e7576114e66359c896be60e01b611105565b5b5b5b6114f7836000886001611424565b801561150257600082555b600160806001901b03611513611011565b60050160008573ffffffffffffffffffffffffffffffffffffffff1673ffffffffffffffffffffffffffffffffffffffff168152602001908152602001600020600082825401925050819055506115b3836115708560008861142a565b7c02000000000000000000000000000000000000000000000000000000007c01000000000000000000000000000000000000000000000000000000001717611452565b6115bb611011565b60040160008881526020019081526020016000208190555060007c020000000000000000000000000000000000000000000000000000000085160361165d576000600187019050600061160c611011565b6004016000838152602001908152602001600020540361165b5761162e611011565b60000154811461165a5784611641611011565b6004016000838152602001908152602001600020819055505b5b505b85600073ffffffffffffffffffffffffffffffffffffffff168473ffffffffffffffffffffffffffffffffffffffff167fddf252ad1be2c89b69c2b068fc378daa952ba7f163c4a11628f55a4df523b3ef60405160405180910390a46116c783600088600161147d565b6116cf611011565b60010160008154809291906001019190505550505050505050565b60006116f4611011565b60000154905090565b6060818310611717576117166332c1995a60e01b611105565b5b61171f611247565b8310156117315761172e611247565b92505b600061173b6116ea565b905060007fffffffffffffffffffffffffffffffffffffffffffffffffffffffffffffffff61176861124c565b036117735781611775565b835b9050808410611782578093505b600061178d87610b42565b905084861061179b57600090505b600081146118af5780868603116117b25785850390505b600060405194506001820160051b850190508060405260006117d388610e82565b9050600081604001516117e857816000015190505b60005b7fffffffffffffffffffffffffffffffffffffffffffffffffffffffffffffffff61181461124c565b1461184357868a0361182e57600161182a61124c565b0199505b61183661124c565b8a111561184257600091505b5b61184c8a611a06565b9250604083015160008114611864576000925061188a565b83511561187057835192505b8b831860601b611889576001820191508a8260051b8a01525b5b5060018a01995083604052888a14806118a257508481145b156117eb57808852505050505b5050509392505050565b6118d3828260405180602001604052806000815250611b14565b5050565b60008373ffffffffffffffffffffffffffffffffffffffff1663150b7a026118fd6113d8565b8786866040518563ffffffff1660e01b815260040161191f949392919061295f565b6020604051808303816000875af192505050801561195b57506040513d601f19601f8201168201806040525081019061195891906129c0565b60015b6119b3573d806000811461198b576040519150601f19603f3d011682016040523d82523d6000602084013e611990565b606091505b5060008151036119ab576119aa63d1a57ed660e01b611105565b5b805181602001fd5b63150b7a0260e01b7bffffffffffffffffffffffffffffffffffffffffffffffffffffffff1916817bffffffffffffffffffffffffffffffffffffffffffffffffffffffff191614915050949350505050565b611a0e611e14565b611a33611a19611011565b600401600084815260200190815260200160002054611ba3565b9050919050565b600080611a45611011565b60040160008481526020019081526020016000205414159050919050565b606060405180602001604052806000815250905090565b606060a060405101806040526020810391506000825281835b600115611ab557600184039350600a81066030018453600a8104905080611a93575b50828103602084039350808452505050919050565b60007c0100000000000000000000000000000000000000000000000000000000821673ffffffffffffffffffffffffffffffffffffffff8316119050919050565b60009392505050565b611b1e8383611c59565b60008373ffffffffffffffffffffffffffffffffffffffff163b14611b9e576000611b47611011565b600001549050600083820390505b611b6860008683806001019450866118d7565b611b7d57611b7c63d1a57ed660e01b611105565b5b818110611b555781611b8d611011565b6000015414611b9b57600080fd5b50505b505050565b611bab611e14565b81816000019073ffffffffffffffffffffffffffffffffffffffff16908173ffffffffffffffffffffffffffffffffffffffff168152505060a082901c816020019067ffffffffffffffff16908167ffffffffffffffff168152505060007c01000000000000000000000000000000000000000000000000000000008316141581604001901515908115158152505060e882901c816060019062ffffff16908162ffffff1681525050919050565b6000611c63611011565b60000154905060008203611c8257611c8163b562e8dd60e01b611105565b5b611c8f6000848385611424565b611caf83611ca0600086600061142a565b611ca985611e04565b17611452565b611cb7611011565b600401600083815260200190815260200160002081905550600160406001901b178202611ce2611011565b60050160008573ffffffffffffffffffffffffffffffffffffffff1673ffffffffffffffffffffffffffffffffffffffff16815260200190815260200160002060008282540192505081905550600073ffffffffffffffffffffffffffffffffffffffff8473ffffffffffffffffffffffffffffffffffffffff1616905060008103611d7957611d78632e07630060e01b611105565b5b600083830190506000839050611d8d61124c565b600183031115611da857611da76381647e3a60e01b611105565b5b5b808360007fddf252ad1be2c89b69c2b068fc378daa952ba7f163c4a11628f55a4df523b3ef600080a4818160010191508103611da95781611de8611011565b60000181905550505050611dff600084838561147d565b505050565b60006001821460e11b9050919050565b6040518060800160405280600073ffffffffffffffffffffffffffffffffffffffff168152602001600067ffffffffffffffff168152602001600015158152602001600062ffffff1681525090565b6000604051905090565b600080fd5b600080fd5b60007fffffffff0000000000000000000000000000000000000000000000000000000082169050919050565b611eac81611e77565b8114611eb757600080fd5b50565b600081359050611ec981611ea3565b92915050565b600060208284031215611ee557611ee4611e6d565b5b6000611ef384828501611eba565b91505092915050565b60008115159050919050565b611f1181611efc565b82525050565b6000602082019050611f2c6000830184611f08565b92915050565b600081519050919050565b600082825260208201905092915050565b60005b83811015611f6c578082015181840152602081019050611f51565b60008484015250505050565b6000601f19601f8301169050919050565b6000611f9482611f32565b611f9e8185611f3d565b9350611fae818560208601611f4e565b611fb781611f78565b840191505092915050565b60006020820190508181036000830152611fdc8184611f89565b905092915050565b6000819050919050565b611ff781611fe4565b811461200257600080fd5b50565b60008135905061201481611fee565b92915050565b6000602082840312156120305761202f611e6d565b5b600061203e84828501612005565b91505092915050565b600073ffffffffffffffffffffffffffffffffffffffff82169050919050565b600061207282612047565b9050919050565b61208281612067565b82525050565b600060208201905061209d6000830184612079565b92915050565b6120ac81612067565b81146120b757600080fd5b50565b6000813590506120c9816120a3565b92915050565b600080604083850312156120e6576120e5611e6d565b5b60006120f4858286016120ba565b925050602061210585828601612005565b9150509250929050565b61211881611fe4565b82525050565b6000602082019050612133600083018461210f565b92915050565b60008060006060848603121561215257612151611e6d565b5b6000612160868287016120ba565b9350506020612171868287016120ba565b925050604061218286828701612005565b9150509250925092565b600080fd5b600080fd5b600080fd5b60008083601f8401126121b1576121b061218c565b5b8235905067ffffffffffffffff8111156121ce576121cd612191565b5b6020830191508360208202830111156121ea576121e9612196565b5b9250929050565b6000806020838503121561220857612207611e6d565b5b600083013567ffffffffffffffff81111561222657612225611e72565b5b6122328582860161219b565b92509250509250929050565b600081519050919050565b600082825260208201905092915050565b6000819050602082019050919050565b61227381612067565b82525050565b600067ffffffffffffffff82169050919050565b61229681612279565b82525050565b6122a581611efc565b82525050565b600062ffffff82169050919050565b6122c3816122ab565b82525050565b6080820160008201516122df600085018261226a565b5060208201516122f2602085018261228d565b506040820151612305604085018261229c565b50606082015161231860608501826122ba565b50505050565b600061232a83836122c9565b60808301905092915050565b6000602082019050919050565b600061234e8261223e565b6123588185612249565b93506123638361225a565b8060005b8381101561239457815161237b888261231e565b975061238683612336565b925050600181019050612367565b5085935050505092915050565b600060208201905081810360008301526123bb8184612343565b905092915050565b6000602082840312156123d9576123d8611e6d565b5b60006123e7848285016120ba565b91505092915050565b600081519050919050565b600082825260208201905092915050565b6000819050602082019050919050565b61242581611fe4565b82525050565b6000612437838361241c565b60208301905092915050565b6000602082019050919050565b600061245b826123f0565b61246581856123fb565b93506124708361240c565b8060005b838110156124a1578151612488888261242b565b975061249383612443565b925050600181019050612474565b5085935050505092915050565b600060208201905081810360008301526124c88184612450565b905092915050565b6000806000606084860312156124e9576124e8611e6d565b5b60006124f7868287016120ba565b935050602061250886828701612005565b925050604061251986828701612005565b9150509250925092565b61252c81611efc565b811461253757600080fd5b50565b60008135905061254981612523565b92915050565b6000806040838503121561256657612565611e6d565b5b6000612574858286016120ba565b92505060206125858582860161253a565b9150509250929050565b600080fd5b7f4e487b7100000000000000000000000000000000000000000000000000000000600052604160045260246000fd5b6125cc82611f78565b810181811067ffffffffffffffff821117156125eb576125ea612594565b5b80604052505050565b60006125fe611e63565b905061260a82826125c3565b919050565b600067ffffffffffffffff82111561262a57612629612594565b5b61263382611f78565b9050602081019050919050565b82818337600083830152505050565b600061266261265d8461260f565b6125f4565b90508281526020810184848401111561267e5761267d61258f565b5b612689848285612640565b509392505050565b600082601f8301126126a6576126a561218c565b5b81356126b684826020860161264f565b91505092915050565b600080600080608085870312156126d9576126d8611e6d565b5b60006126e7878288016120ba565b94505060206126f8878288016120ba565b935050604061270987828801612005565b925050606085013567ffffffffffffffff81111561272a57612729611e72565b5b61273687828801612691565b91505092959194509250565b608082016000820151612758600085018261226a565b50602082015161276b602085018261228d565b50604082015161277e604085018261229c565b50606082015161279160608501826122ba565b50505050565b60006080820190506127ac6000830184612742565b92915050565b600080604083850312156127c9576127c8611e6d565b5b60006127d7858286016120ba565b92505060206127e8858286016120ba565b9150509250929050565b7f4e487b7100000000000000000000000000000000000000000000000000000000600052602260045260246000fd5b6000600282049050600182168061283957607f821691505b60208210810361284c5761284b6127f2565b5b50919050565b600081905092915050565b600061286882611f32565b6128728185612852565b9350612882818560208601611f4e565b80840191505092915050565b600061289a828561285d565b91506128a6828461285d565b91508190509392505050565b7f4e487b7100000000000000000000000000000000000000000000000000000000600052601160045260246000fd5b60006128ec82611fe4565b9150600082036128ff576128fe6128b2565b5b600182039050919050565b600081519050919050565b600082825260208201905092915050565b60006129318261290a565b61293b8185612915565b935061294b818560208601611f4e565b61295481611f78565b840191505092915050565b60006080820190506129746000830187612079565b6129816020830186612079565b61298e604083018561210f565b81810360608301526129a08184612926565b905095945050505050565b6000815190506129ba81611ea3565b92915050565b6000602082840312156129d6576129d5611e6d565b5b60006129e4848285016129ab565b9150509291505056fea264697066735822122045ac6d56b08d7659584e55bcfa41b70409665c7fa6de67fb352dbc921483350064736f6c63430008180033",
  "linkReferences": {},
  "deployedLinkReferences": {}
}