{
  "_format": "hh-sol-artifact-1",
  "contractName": "ERC721AStartTokenIdMockUpgradeableWithInit",
  "sourceName": "contracts/ERC721A-Upgradeable/contracts/mocks/WithInit.sol",
  "abi": [
    {
      "inputs": [
        {
          "internalType": "string",
          "name": "name_",
          "type": "string"
        },
        {
          "internalType": "string",
          "name": "symbol_",
          "type": "string"
        },
        {
          "internalType": "uint256",
          "name": "startTokenId_",
          "type": "uint256"
        }
      ],
      "stateMutability": "payable",
      "type": "constructor"
    },
    {
      "inputs": [],
      "name": "ApprovalCallerNotOwnerNorApproved",
      "type": "error"
    },
    {
      "inputs": [],
      "name": "ApprovalQueryForNonexistentToken",
      "type": "error"
    },
    {
      "inputs": [],
      "name": "BalanceQueryForZeroAddress",
      "type": "error"
    },
    {
      "inputs": [],
      "name": "MintERC2309QuantityExceedsLimit",
      "type": "error"
    },
    {
      "inputs": [],
      "name": "MintToZeroAddress",
      "type": "error"
    },
    {
      "inputs": [],
      "name": "MintZeroQuantity",
      "type": "error"
    },
    {
      "inputs": [],
      "name": "NotCompatibleWithSpotMints",
      "type": "error"
    },
    {
      "inputs": [],
      "name": "OwnerQueryForNonexistentToken",
      "type": "error"
    },
    {
      "inputs": [],
      "name": "OwnershipNotInitializedForExtraData",
      "type": "error"
    },
    {
      "inputs": [],
      "name": "SequentialMintExceedsLimit",
      "type": "error"
    },
    {
      "inputs": [],
      "name": "SequentialUpToTooSmall",
      "type": "error"
    },
    {
      "inputs": [],
      "name": "SpotMintTokenIdTooSmall",
      "type": "error"
    },
    {
      "inputs": [],
      "name": "TokenAlreadyExists",
      "type": "error"
    },
    {
      "inputs": [],
      "name": "TransferCallerNotOwnerNorApproved",
      "type": "error"
    },
    {
      "inputs": [],
      "name": "TransferFromIncorrectOwner",
      "type": "error"
    },
    {
      "inputs": [],
      "name": "TransferToNonERC721ReceiverImplementer",
      "type": "error"
    },
    {
      "inputs": [],
      "name": "TransferToZeroAddress",
      "type": "error"
    },
    {
      "inputs": [],
      "name": "URIQueryForNonexistentToken",
      "type": "error"
    },
    {
      "anonymous": false,
      "inputs": [
        {
          "indexed": true,
          "internalType": "address",
          "name": "owner",
          "type": "address"
        },
        {
          "indexed": true,
          "internalType": "address",
          "name": "approved",
          "type": "address"
        },
        {
          "indexed": true,
          "internalType": "uint256",
          "name": "tokenId",
          "type": "uint256"
        }
      ],
      "name": "Approval",
      "type": "event"
    },
    {
      "anonymous": false,
      "inputs": [
        {
          "indexed": true,
          "internalType": "address",
          "name": "owner",
          "type": "address"
        },
        {
          "indexed": true,
          "internalType": "address",
          "name": "operator",
          "type": "address"
        },
        {
          "indexed": false,
          "internalType": "bool",
          "name": "approved",
          "type": "bool"
        }
      ],
      "name": "ApprovalForAll",
      "type": "event"
    },
    {
      "anonymous": false,
      "inputs": [
        {
          "indexed": true,
          "internalType": "uint256",
          "name": "fromTokenId",
          "type": "uint256"
        },
        {
          "indexed": false,
          "internalType": "uint256",
          "name": "toTokenId",
          "type": "uint256"
        },
        {
          "indexed": true,
          "internalType": "address",
          "name": "from",
          "type": "address"
        },
        {
          "indexed": true,
          "internalType": "address",
          "name": "to",
          "type": "address"
        }
      ],
      "name": "ConsecutiveTransfer",
      "type": "event"
    },
    {
      "anonymous": false,
      "inputs": [
        {
          "indexed": true,
          "internalType": "address",
          "name": "from",
          "type": "address"
        },
        {
          "indexed": true,
          "internalType": "address",
          "name": "to",
          "type": "address"
        },
        {
          "indexed": true,
          "internalType": "uint256",
          "name": "tokenId",
          "type": "uint256"
        }
      ],
      "name": "Transfer",
      "type": "event"
    },
    {
      "inputs": [
        {
          "internalType": "address",
          "name": "to",
          "type": "address"
        },
        {
          "internalType": "uint256",
          "name": "tokenId",
          "type": "uint256"
        }
      ],
      "name": "approve",
      "outputs": [],
      "stateMutability": "payable",
      "type": "function"
    },
    {
      "inputs": [
        {
          "internalType": "address",
          "name": "owner",
          "type": "address"
        }
      ],
      "name": "balanceOf",
      "outputs": [
        {
          "internalType": "uint256",
          "name": "",
          "type": "uint256"
        }
      ],
      "stateMutability": "view",
      "type": "function"
    },
    {
      "inputs": [],
      "name": "baseURI",
      "outputs": [
        {
          "internalType": "string",
          "name": "",
          "type": "string"
        }
      ],
      "stateMutability": "view",
      "type": "function"
    },
    {
      "inputs": [
        {
          "internalType": "uint256",
          "name": "tokenId",
          "type": "uint256"
        }
      ],
      "name": "burn",
      "outputs": [],
      "stateMutability": "nonpayable",
      "type": "function"
    },
    {
      "inputs": [
        {
          "internalType": "uint256",
          "name": "tokenId",
          "type": "uint256"
        },
        {
          "internalType": "bool",
          "name": "approvalCheck",
          "type": "bool"
        }
      ],
      "name": "burn",
      "outputs": [],
      "stateMutability": "nonpayable",
      "type": "function"
    },
    {
      "inputs": [
        {
          "internalType": "address",
          "name": "to",
          "type": "address"
        },
        {
          "internalType": "uint256",
          "name": "tokenId",
          "type": "uint256"
        }
      ],
      "name": "directApprove",
      "outputs": [],
      "stateMutability": "nonpayable",
      "type": "function"
    },
    {
      "inputs": [
        {
          "internalType": "uint256",
          "name": "index",
          "type": "uint256"
        }
      ],
      "name": "directSetBurnBit",
      "outputs": [],
      "stateMutability": "nonpayable",
      "type": "function"
    },
    {
      "inputs": [
        {
          "internalType": "uint256",
          "name": "tokenId",
          "type": "uint256"
        }
      ],
      "name": "exists",
      "outputs": [
        {
          "internalType": "bool",
          "name": "",
          "type": "bool"
        }
      ],
      "stateMutability": "view",
      "type": "function"
    },
    {
      "inputs": [
        {
          "internalType": "uint256",
          "name": "tokenId",
          "type": "uint256"
        }
      ],
      "name": "getApproved",
      "outputs": [
        {
          "internalType": "address",
          "name": "",
          "type": "address"
        }
      ],
      "stateMutability": "view",
      "type": "function"
    },
    {
      "inputs": [
        {
          "internalType": "address",
          "name": "owner",
          "type": "address"
        }
      ],
      "name": "getAux",
      "outputs": [
        {
          "internalType": "uint64",
          "name": "",
          "type": "uint64"
        }
      ],
      "stateMutability": "view",
      "type": "function"
    },
    {
      "inputs": [
        {
          "internalType": "uint256",
          "name": "index",
          "type": "uint256"
        }
      ],
      "name": "getOwnershipAt",
      "outputs": [
        {
          "components": [
            {
              "internalType": "address",
              "name": "addr",
              "type": "address"
            },
            {
              "internalType": "uint64",
              "name": "startTimestamp",
              "type": "uint64"
            },
            {
              "internalType": "bool",
              "name": "burned",
              "type": "bool"
            },
            {
              "internalType": "uint24",
              "name": "extraData",
              "type": "uint24"
            }
          ],
          "internalType": "struct IERC721AUpgradeable.TokenOwnership",
          "name": "",
          "type": "tuple"
        }
      ],
      "stateMutability": "view",
      "type": "function"
    },
    {
      "inputs": [
        {
          "internalType": "uint256",
          "name": "index",
          "type": "uint256"
        }
      ],
      "name": "getOwnershipOf",
      "outputs": [
        {
          "components": [
            {
              "internalType": "address",
              "name": "addr",
              "type": "address"
            },
            {
              "internalType": "uint64",
              "name": "startTimestamp",
              "type": "uint64"
            },
            {
              "internalType": "bool",
              "name": "burned",
              "type": "bool"
            },
            {
              "internalType": "uint24",
              "name": "extraData",
              "type": "uint24"
            }
          ],
          "internalType": "struct IERC721AUpgradeable.TokenOwnership",
          "name": "",
          "type": "tuple"
        }
      ],
      "stateMutability": "view",
      "type": "function"
    },
    {
      "inputs": [
        {
          "internalType": "uint256",
          "name": "index",
          "type": "uint256"
        }
      ],
      "name": "initializeOwnershipAt",
      "outputs": [],
      "stateMutability": "nonpayable",
      "type": "function"
    },
    {
      "inputs": [
        {
          "internalType": "address",
          "name": "owner",
          "type": "address"
        },
        {
          "internalType": "address",
          "name": "operator",
          "type": "address"
        }
      ],
      "name": "isApprovedForAll",
      "outputs": [
        {
          "internalType": "bool",
          "name": "",
          "type": "bool"
        }
      ],
      "stateMutability": "view",
      "type": "function"
    },
    {
      "inputs": [
        {
          "internalType": "address",
          "name": "to",
          "type": "address"
        },
        {
          "internalType": "uint256",
          "name": "quantity",
          "type": "uint256"
        }
      ],
      "name": "mint",
      "outputs": [],
      "stateMutability": "nonpayable",
      "type": "function"
    },
    {
      "inputs": [],
      "name": "name",
      "outputs": [
        {
          "internalType": "string",
          "name": "",
          "type": "string"
        }
      ],
      "stateMutability": "view",
      "type": "function"
    },
    {
      "inputs": [],
      "name": "nextTokenId",
      "outputs": [
        {
          "internalType": "uint256",
          "name": "",
          "type": "uint256"
        }
      ],
      "stateMutability": "view",
      "type": "function"
    },
    {
      "inputs": [
        {
          "internalType": "address",
          "name": "owner",
          "type": "address"
        }
      ],
      "name": "numberMinted",
      "outputs": [
        {
          "internalType": "uint256",
          "name": "",
          "type": "uint256"
        }
      ],
      "stateMutability": "view",
      "type": "function"
    },
    {
      "inputs": [
        {
          "internalType": "uint256",
          "name": "tokenId",
          "type": "uint256"
        }
      ],
      "name": "ownerOf",
      "outputs": [
        {
          "internalType": "address",
          "name": "",
          "type": "address"
        }
      ],
      "stateMutability": "view",
      "type": "function"
    },
    {
      "inputs": [
        {
          "internalType": "address",
          "name": "to",
          "type": "address"
        },
        {
          "internalType": "uint256",
          "name": "quantity",
          "type": "uint256"
        },
        {
          "internalType": "bytes",
          "name": "_data",
          "type": "bytes"
        }
      ],
      "name": "safeMint",
      "outputs": [],
      "stateMutability": "nonpayable",
      "type": "function"
    },
    {
      "inputs": [
        {
          "internalType": "address",
          "name": "to",
          "type": "address"
        },
        {
          "internalType": "uint256",
          "name": "quantity",
          "type": "uint256"
        }
      ],
      "name": "safeMint",
      "outputs": [],
      "stateMutability": "nonpayable",
      "type": "function"
    },
    {
      "inputs": [
        {
          "internalType": "address",
          "name": "from",
          "type": "address"
        },
        {
          "internalType": "address",
          "name": "to",
          "type": "address"
        },
        {
          "internalType": "uint256",
          "name": "tokenId",
          "type": "uint256"
        }
      ],
      "name": "safeTransferFrom",
      "outputs": [],
      "stateMutability": "payable",
      "type": "function"
    },
    {
      "inputs": [
        {
          "internalType": "address",
          "name": "from",
          "type": "address"
        },
        {
          "internalType": "address",
          "name": "to",
          "type": "address"
        },
        {
          "internalType": "uint256",
          "name": "tokenId",
          "type": "uint256"
        },
        {
          "internalType": "bytes",
          "name": "_data",
          "type": "bytes"
        }
      ],
      "name": "safeTransferFrom",
      "outputs": [],
      "stateMutability": "payable",
      "type": "function"
    },
    {
      "inputs": [
        {
          "internalType": "address",
          "name": "operator",
          "type": "address"
        },
        {
          "internalType": "bool",
          "name": "approved",
          "type": "bool"
        }
      ],
      "name": "setApprovalForAll",
      "outputs": [],
      "stateMutability": "nonpayable",
      "type": "function"
    },
    {
      "inputs": [
        {
          "internalType": "address",
          "name": "owner",
          "type": "address"
        },
        {
          "internalType": "uint64",
          "name": "aux",
          "type": "uint64"
        }
      ],
      "name": "setAux",
      "outputs": [],
      "stateMutability": "nonpayable",
      "type": "function"
    },
    {
      "inputs": [],
      "name": "startTokenId",
      "outputs": [
        {
          "internalType": "uint256",
          "name": "result",
          "type": "uint256"
        }
      ],
      "stateMutability": "view",
      "type": "function"
    },
    {
      "inputs": [
        {
          "internalType": "bytes4",
          "name": "interfaceId",
          "type": "bytes4"
        }
      ],
      "name": "supportsInterface",
      "outputs": [
        {
          "internalType": "bool",
          "name": "",
          "type": "bool"
        }
      ],
      "stateMutability": "view",
      "type": "function"
    },
    {
      "inputs": [],
      "name": "symbol",
      "outputs": [
        {
          "internalType": "string",
          "name": "",
          "type": "string"
        }
      ],
      "stateMutability": "view",
      "type": "function"
    },
    {
      "inputs": [
        {
          "internalType": "uint256",
          "name": "x",
          "type": "uint256"
        }
      ],
      "name": "toString",
      "outputs": [
        {
          "internalType": "string",
          "name": "",
          "type": "string"
        }
      ],
      "stateMutability": "pure",
      "type": "function"
    },
    {
      "inputs": [
        {
          "internalType": "uint256",
          "name": "tokenId",
          "type": "uint256"
        }
      ],
      "name": "tokenURI",
      "outputs": [
        {
          "internalType": "string",
          "name": "",
          "type": "string"
        }
      ],
      "stateMutability": "view",
      "type": "function"
    },
    {
      "inputs": [],
      "name": "totalBurned",
      "outputs": [
        {
          "internalType": "uint256",
          "name": "",
          "type": "uint256"
        }
      ],
      "stateMutability": "view",
      "type": "function"
    },
    {
      "inputs": [],
      "name": "totalMinted",
      "outputs": [
        {
          "internalType": "uint256",
          "name": "",
          "type": "uint256"
        }
      ],
      "stateMutability": "view",
      "type": "function"
    },
    {
      "inputs": [],
      "name": "totalSupply",
      "outputs": [
        {
          "internalType": "uint256",
          "name": "result",
          "type": "uint256"
        }
      ],
      "stateMutability": "view",
      "type": "function"
    },
    {
      "inputs": [
        {
          "internalType": "address",
          "name": "from",
          "type": "address"
        },
        {
          "internalType": "address",
          "name": "to",
          "type": "address"
        },
        {
          "internalType": "uint256",
          "name": "tokenId",
          "type": "uint256"
        }
      ],
      "name": "transferFrom",
      "outputs": [],
      "stateMutability": "payable",
      "type": "function"
    }
  ],
  "bytecode": "0x608060405260405162003897380380620038978339818101604052810190620000299190620007bf565b62000039620001a160201b60201c565b60000160019054906101000a900460ff1662000077576200005f620001a160201b60201c565b60000160009054906101000a900460ff161562000088565b62000087620001ce60201b60201c565b5b620000ca576040517f08c379a0000000000000000000000000000000000000000000000000000000008152600401620000c190620008e0565b60405180910390fd5b6000620000dc620001a160201b60201c565b60000160019054906101000a900460ff1615905080156200015057600162000109620001a160201b60201c565b60000160016101000a81548160ff021916908315150217905550600162000135620001a160201b60201c565b60000160006101000a81548160ff0219169083151502179055505b62000163848484620001e560201b60201c565b8015620001975760006200017c620001a160201b60201c565b60000160016101000a81548160ff0219169083151502179055505b5050505062000cc2565b6000807fee151c8401928dc223602bb187aff91b9a56c7cae5476ef1b3287b085a16c85f90508091505090565b6000803090506000813b9050600081149250505090565b620001f5620001a160201b60201c565b60000160019054906101000a900460ff1662000248576040517f08c379a00000000000000000000000000000000000000000000000000000000081526004016200023f9062000978565b60405180910390fd5b6200025981620002a560201b60201c565b6200026b83836200031c60201b60201c565b6200027b6200043060201b60201c565b6200028d83836200049560201b60201c565b620002a0838383620004fc60201b60201c565b505050565b620002b5620001a160201b60201c565b60000160019054906101000a900460ff1662000308576040517f08c379a0000000000000000000000000000000000000000000000000000000008152600401620002ff9062000978565b60405180910390fd5b62000319816200056460201b60201c565b50565b6200032c620001a160201b60201c565b60000160019054906101000a900460ff166200037f576040517f08c379a0000000000000000000000000000000000000000000000000000000008152600401620003769062000978565b60405180910390fd5b81620003906200056e60201b60201c565b6002019081620003a1919062000bdb565b5080620003b36200056e60201b60201c565b6003019081620003c4919062000bdb565b50620003d56200059b60201b60201c565b620003e56200056e60201b60201c565b60000181905550620003fc6200059b60201b60201c565b6200040c620005b260201b60201c565b10156200042c576200042b63fed8210f60e01b620005da60201b60201c565b5b5050565b62000440620001a160201b60201c565b60000160019054906101000a900460ff1662000493576040517f08c379a00000000000000000000000000000000000000000000000000000000081526004016200048a9062000978565b60405180910390fd5b565b620004a5620001a160201b60201c565b60000160019054906101000a900460ff16620004f8576040517f08c379a0000000000000000000000000000000000000000000000000000000008152600401620004ef9062000978565b60405180910390fd5b5050565b6200050c620001a160201b60201c565b60000160019054906101000a900460ff166200055f576040517f08c379a0000000000000000000000000000000000000000000000000000000008152600401620005569062000978565b60405180910390fd5b505050565b806328f750325550565b6000807f2569078dfb4b0305704d3008e7403993ae9601b85f7ae5e742de3de8f8011c4090508091505090565b6000620005ad620005e460201b60201c565b905090565b60007fffffffffffffffffffffffffffffffffffffffffffffffffffffffffffffffff905090565b8060005260046000fd5b60006328f7503254905090565b6000604051905090565b600080fd5b600080fd5b600080fd5b600080fd5b6000601f19601f8301169050919050565b7f4e487b7100000000000000000000000000000000000000000000000000000000600052604160045260246000fd5b6200065a826200060f565b810181811067ffffffffffffffff821117156200067c576200067b62000620565b5b80604052505050565b600062000691620005f1565b90506200069f82826200064f565b919050565b600067ffffffffffffffff821115620006c257620006c162000620565b5b620006cd826200060f565b9050602081019050919050565b60005b83811015620006fa578082015181840152602081019050620006dd565b60008484015250505050565b60006200071d6200071784620006a4565b62000685565b9050828152602081018484840111156200073c576200073b6200060a565b5b62000749848285620006da565b509392505050565b600082601f83011262000769576200076862000605565b5b81516200077b84826020860162000706565b91505092915050565b6000819050919050565b620007998162000784565b8114620007a557600080fd5b50565b600081519050620007b9816200078e565b92915050565b600080600060608486031215620007db57620007da620005fb565b5b600084015167ffffffffffffffff811115620007fc57620007fb62000600565b5b6200080a8682870162000751565b935050602084015167ffffffffffffffff8111156200082e576200082d62000600565b5b6200083c8682870162000751565b92505060406200084f86828701620007a8565b9150509250925092565b600082825260208201905092915050565b7f455243373231415f5f496e697469616c697a61626c653a20636f6e747261637460008201527f20697320616c726561647920696e697469616c697a6564000000000000000000602082015250565b6000620008c860378362000859565b9150620008d5826200086a565b604082019050919050565b60006020820190508181036000830152620008fb81620008b9565b9050919050565b7f455243373231415f5f496e697469616c697a61626c653a20636f6e747261637460008201527f206973206e6f7420696e697469616c697a696e67000000000000000000000000602082015250565b60006200096060348362000859565b91506200096d8262000902565b604082019050919050565b60006020820190508181036000830152620009938162000951565b9050919050565b600081519050919050565b7f4e487b7100000000000000000000000000000000000000000000000000000000600052602260045260246000fd5b60006002820490506001821680620009ed57607f821691505b60208210810362000a035762000a02620009a5565b5b50919050565b60008190508160005260206000209050919050565b60006020601f8301049050919050565b600082821b905092915050565b60006008830262000a6d7fffffffffffffffffffffffffffffffffffffffffffffffffffffffffffffffff8262000a2e565b62000a79868362000a2e565b95508019841693508086168417925050509392505050565b6000819050919050565b600062000abc62000ab662000ab08462000784565b62000a91565b62000784565b9050919050565b6000819050919050565b62000ad88362000a9b565b62000af062000ae78262000ac3565b84845462000a3b565b825550505050565b600090565b62000b0762000af8565b62000b1481848462000acd565b505050565b5b8181101562000b3c5762000b3060008262000afd565b60018101905062000b1a565b5050565b601f82111562000b8b5762000b558162000a09565b62000b608462000a1e565b8101602085101562000b70578190505b62000b8862000b7f8562000a1e565b83018262000b19565b50505b505050565b600082821c905092915050565b600062000bb06000198460080262000b90565b1980831691505092915050565b600062000bcb838362000b9d565b9150826002028217905092915050565b62000be6826200099a565b67ffffffffffffffff81111562000c025762000c0162000620565b5b62000c0e8254620009d4565b62000c1b82828562000b40565b600060209050601f83116001811462000c53576000841562000c3e578287015190505b62000c4a858262000bbd565b86555062000cba565b601f19841662000c638662000a09565b60005b8281101562000c8d5784890151825560018201915060208501945060208101905062000c66565b8683101562000cad578489015162000ca9601f89168262000b9d565b8355505b6001600288020188555050505b505050505050565b612bc58062000cd26000396000f3fe6080604052600436106101f95760003560e01c806370a082311161010d578063a2309ff8116100a0578063d89135cd1161006f578063d89135cd1461072f578063dc33e6811461075a578063e6798baa14610797578063e985e9c5146107c2578063f2523633146107ff576101f9565b8063a2309ff81461066e578063b88d4fde14610699578063bf0b175e146106b5578063c87b56dd146106f2576101f9565b806395d89b41116100dc57806395d89b41146105c85780639fac68cb146105f3578063a14481941461061c578063a22cb46514610645576101f9565b806370a082311461050e57806375794a3c1461054b5780638529eea6146105765780638832e6e31461059f576101f9565b806342966c681161019057806352d8a4d11161015f57806352d8a4d11461040357806353b1233d146104405780636352211e146104695780636900a3ae146104a65780636c0360eb146104e3576101f9565b806342966c681461034b578063453ab141146103745780634b6c5d8c1461039d5780634f558e79146103c6576101f9565b806318160ddd116101cc57806318160ddd146102bf57806323b872dd146102ea57806340c10f191461030657806342842e0e1461032f576101f9565b806301ffc9a7146101fe57806306fdde031461023b578063081812fc14610266578063095ea7b3146102a3575b600080fd5b34801561020a57600080fd5b5061022560048036038101906102209190612232565b61083c565b604051610232919061227a565b60405180910390f35b34801561024757600080fd5b506102506108ce565b60405161025d9190612325565b60405180910390f35b34801561027257600080fd5b5061028d6004803603810190610288919061237d565b610969565b60405161029a91906123eb565b60405180910390f35b6102bd60048036038101906102b89190612432565b6109d0565b005b3480156102cb57600080fd5b506102d46109e0565b6040516102e19190612481565b60405180910390f35b61030460048036038101906102ff919061249c565b610a48565b005b34801561031257600080fd5b5061032d60048036038101906103289190612432565b610d3f565b005b6103496004803603810190610344919061249c565b610d4d565b005b34801561035757600080fd5b50610372600480360381019061036d919061237d565b610d6d565b005b34801561038057600080fd5b5061039b6004803603810190610396919061252f565b610d79565b005b3480156103a957600080fd5b506103c460048036038101906103bf919061237d565b610d87565b005b3480156103d257600080fd5b506103ed60048036038101906103e8919061237d565b610e00565b6040516103fa919061227a565b60405180910390f35b34801561040f57600080fd5b5061042a6004803603810190610425919061237d565b610e12565b604051610437919061260f565b60405180910390f35b34801561044c57600080fd5b506104676004803603810190610462919061237d565b610e2a565b005b34801561047557600080fd5b50610490600480360381019061048b919061237d565b610e36565b60405161049d91906123eb565b60405180910390f35b3480156104b257600080fd5b506104cd60048036038101906104c8919061237d565b610e48565b6040516104da9190612325565b60405180910390f35b3480156104ef57600080fd5b506104f8610e5a565b6040516105059190612325565b60405180910390f35b34801561051a57600080fd5b506105356004803603810190610530919061262a565b610e69565b6040516105429190612481565b60405180910390f35b34801561055757600080fd5b50610560610f09565b60405161056d9190612481565b60405180910390f35b34801561058257600080fd5b5061059d60048036038101906105989190612432565b610f18565b005b3480156105ab57600080fd5b506105c660048036038101906105c1919061278c565b610f26565b005b3480156105d457600080fd5b506105dd610f36565b6040516105ea9190612325565b60405180910390f35b3480156105ff57600080fd5b5061061a60048036038101906106159190612827565b610fd1565b005b34801561062857600080fd5b50610643600480360381019061063e9190612432565b610fdf565b005b34801561065157600080fd5b5061066c60048036038101906106679190612867565b610fed565b005b34801561067a57600080fd5b50610683611101565b6040516106909190612481565b60405180910390f35b6106b360048036038101906106ae91906128a7565b611110565b005b3480156106c157600080fd5b506106dc60048036038101906106d7919061262a565b611162565b6040516106e99190612939565b60405180910390f35b3480156106fe57600080fd5b506107196004803603810190610714919061237d565b611174565b6040516107269190612325565b60405180910390f35b34801561073b57600080fd5b506107446111f1565b6040516107519190612481565b60405180910390f35b34801561076657600080fd5b50610781600480360381019061077c919061262a565b611200565b60405161078e9190612481565b60405180910390f35b3480156107a357600080fd5b506107ac611212565b6040516107b99190612481565b60405180910390f35b3480156107ce57600080fd5b506107e960048036038101906107e49190612954565b61121f565b6040516107f6919061227a565b60405180910390f35b34801561080b57600080fd5b506108266004803603810190610821919061237d565b6112bc565b604051610833919061260f565b60405180910390f35b60006301ffc9a760e01b827bffffffffffffffffffffffffffffffffffffffffffffffffffffffff1916148061089757506380ac58cd60e01b827bffffffffffffffffffffffffffffffffffffffffffffffffffffffff1916145b806108c75750635b5e139f60e01b827bffffffffffffffffffffffffffffffffffffffffffffffffffffffff1916145b9050919050565b60606108d86112d4565b60020180546108e6906129c3565b80601f0160208091040260200160405190810160405280929190818152602001828054610912906129c3565b801561095f5780601f106109345761010080835404028352916020019161095f565b820191906000526020600020905b81548152906001019060200180831161094257829003601f168201915b5050505050905090565b600061097482611301565b6109895761098863cf4700e460e01b6113c8565b5b6109916112d4565b600601600083815260200190815260200160002060000160009054906101000a900473ffffffffffffffffffffffffffffffffffffffff169050919050565b6109dc828260016113d2565b5050565b60006109ea61150a565b6109f26112d4565b600101546109fe6112d4565b60000154030390507fffffffffffffffffffffffffffffffffffffffffffffffffffffffffffffffff610a2f611519565b14610a4557610a3c6112d4565b60080154810190505b90565b6000610a5382611541565b905073ffffffffffffffffffffffffffffffffffffffff8473ffffffffffffffffffffffffffffffffffffffff161693508373ffffffffffffffffffffffffffffffffffffffff168173ffffffffffffffffffffffffffffffffffffffff1614610ac857610ac763a114810060e01b6113c8565b5b600080610ad484611675565b91509150610aea8187610ae56116a5565b6116ad565b610b1557610aff86610afa6116a5565b61121f565b610b1457610b136359c896be60e01b6113c8565b5b5b610b2286868660016116f1565b8015610b2d57600082555b610b356112d4565b60050160008773ffffffffffffffffffffffffffffffffffffffff1673ffffffffffffffffffffffffffffffffffffffff168152602001908152602001600020600081546001900391905081905550610b8c6112d4565b60050160008673ffffffffffffffffffffffffffffffffffffffff1673ffffffffffffffffffffffffffffffffffffffff1681526020019081526020016000206000815460010191905081905550610c0d85610be98888876116f7565b7c02000000000000000000000000000000000000000000000000000000001761171f565b610c156112d4565b60040160008681526020019081526020016000208190555060007c0200000000000000000000000000000000000000000000000000000000841603610cb75760006001850190506000610c666112d4565b60040160008381526020019081526020016000205403610cb557610c886112d4565b600001548114610cb45783610c9b6112d4565b6004016000838152602001908152602001600020819055505b5b505b600073ffffffffffffffffffffffffffffffffffffffff8673ffffffffffffffffffffffffffffffffffffffff161690508481887fddf252ad1be2c89b69c2b068fc378daa952ba7f163c4a11628f55a4df523b3ef600080a460008103610d2957610d2863ea553b3460e01b6113c8565b5b610d36878787600161174a565b50505050505050565b610d498282611750565b5050565b610d6883838360405180602001604052806000815250611110565b505050565b610d76816118fb565b50565b610d838282611909565b5050565b60007f2569078dfb4b0305704d3008e7403993ae9601b85f7ae5e742de3de8f8011c40905060007c01000000000000000000000000000000000000000000000000000000009050600460205282600052604060002081815417815560048301602052836000526040600020905081815417815550505050565b6000610e0b82611301565b9050919050565b610e1a612177565b610e23826119d1565b9050919050565b610e33816119f1565b50565b6000610e4182611541565b9050919050565b6060610e5382611a42565b9050919050565b6060610e64611a92565b905090565b60008073ffffffffffffffffffffffffffffffffffffffff168273ffffffffffffffffffffffffffffffffffffffff1603610eaf57610eae638f4eb60460e01b6113c8565b5b67ffffffffffffffff610ec06112d4565b60050160008473ffffffffffffffffffffffffffffffffffffffff1673ffffffffffffffffffffffffffffffffffffffff16815260200190815260200160002054169050919050565b6000610f13611aa9565b905090565b610f228282611abc565b5050565b610f31838383611acc565b505050565b6060610f406112d4565b6003018054610f4e906129c3565b80601f0160208091040260200160405190810160405280929190818152602001828054610f7a906129c3565b8015610fc75780601f10610f9c57610100808354040283529160200191610fc7565b820191906000526020600020905b815481529060010190602001808311610faa57829003601f168201915b5050505050905090565b610fdb8282611b5b565b5050565b610fe98282611dc2565b5050565b80610ff66112d4565b60070160006110036116a5565b73ffffffffffffffffffffffffffffffffffffffff1673ffffffffffffffffffffffffffffffffffffffff16815260200190815260200160002060008473ffffffffffffffffffffffffffffffffffffffff1673ffffffffffffffffffffffffffffffffffffffff16815260200190815260200160002060006101000a81548160ff0219169083151502179055508173ffffffffffffffffffffffffffffffffffffffff166110b06116a5565b73ffffffffffffffffffffffffffffffffffffffff167f17307eab39ab6107e8899845ad3d59bd9653f200f220920489ca2b5937696c31836040516110f5919061227a565b60405180910390a35050565b600061110b611de0565b905090565b61111b848484610a48565b60008373ffffffffffffffffffffffffffffffffffffffff163b1461115c5761114684848484611e3b565b61115b5761115a63d1a57ed660e01b6113c8565b5b5b50505050565b600061116d82611f6a565b9050919050565b606061117f82611301565b6111945761119363a14c4b5060e01b6113c8565b5b600061119e611a92565b905060008151036111be57604051806020016040528060008152506111e9565b806111c884611a42565b6040516020016111d9929190612a30565b6040516020818303038152906040525b915050919050565b60006111fb611fc0565b905090565b600061120b82611fd3565b9050919050565b60006328f7503254905090565b60006112296112d4565b60070160008473ffffffffffffffffffffffffffffffffffffffff1673ffffffffffffffffffffffffffffffffffffffff16815260200190815260200160002060008373ffffffffffffffffffffffffffffffffffffffff1673ffffffffffffffffffffffffffffffffffffffff16815260200190815260200160002060009054906101000a900460ff16905092915050565b6112c4612177565b6112cd82612033565b9050919050565b6000807f2569078dfb4b0305704d3008e7403993ae9601b85f7ae5e742de3de8f8011c4090508091505090565b60008161130c61150a565b116113c257611319611519565b82111561134c5761134561132b6112d4565b600401600084815260200190815260200160002054612067565b90506113c3565b6113546112d4565b600001548210156113c15760005b600061136c6112d4565b6004016000858152602001908152602001600020549150810361139a578261139390612a83565b9250611362565b60007c01000000000000000000000000000000000000000000000000000000008216149150505b5b5b919050565b8060005260046000fd5b60006113dd83610e36565b905081801561141f57508073ffffffffffffffffffffffffffffffffffffffff166114066116a5565b73ffffffffffffffffffffffffffffffffffffffff1614155b1561144b57611435816114306116a5565b61121f565b61144a5761144963cfb3b94260e01b6113c8565b5b5b836114546112d4565b600601600085815260200190815260200160002060000160006101000a81548173ffffffffffffffffffffffffffffffffffffffff021916908373ffffffffffffffffffffffffffffffffffffffff160217905550828473ffffffffffffffffffffffffffffffffffffffff168273ffffffffffffffffffffffffffffffffffffffff167f8c5be1e5ebec7d5bd14f71427d1e84f3dd0314c0f7b2291e5b200ac8c7c3b92560405160405180910390a450505050565b6000611514611212565b905090565b60007fffffffffffffffffffffffffffffffffffffffffffffffffffffffffffffffff905090565b60008161154c61150a565b1161165f576115596112d4565b6004016000838152602001908152602001600020549050611578611519565b82111561159d5761158881612067565b6116705761159c63df2d9b4260e01b6113c8565b5b60008103611636576115ad6112d4565b6000015482106115c8576115c763df2d9b4260e01b6113c8565b5b5b6115d16112d4565b60040160008360019003935083815260200190815260200160002054905060008103156116315760007c0100000000000000000000000000000000000000000000000000000000821603156116705761163063df2d9b4260e01b6113c8565b5b6115c9565b60007c010000000000000000000000000000000000000000000000000000000082160315611670575b61166f63df2d9b4260e01b6113c8565b5b919050565b60008060006116826112d4565b600601600085815260200190815260200160002090508092508254915050915091565b600033905090565b600073ffffffffffffffffffffffffffffffffffffffff8316925073ffffffffffffffffffffffffffffffffffffffff821691508382148383141790509392505050565b50505050565b60008060e883901c905060e861170e8686846120a8565b62ffffff16901b9150509392505050565b600073ffffffffffffffffffffffffffffffffffffffff83169250814260a01b178317905092915050565b50505050565b600061175a6112d4565b600001549050600082036117795761177863b562e8dd60e01b6113c8565b5b61178660008483856116f1565b6117a68361179760008660006116f7565b6117a0856120b1565b1761171f565b6117ae6112d4565b600401600083815260200190815260200160002081905550600160406001901b1782026117d96112d4565b60050160008573ffffffffffffffffffffffffffffffffffffffff1673ffffffffffffffffffffffffffffffffffffffff16815260200190815260200160002060008282540192505081905550600073ffffffffffffffffffffffffffffffffffffffff8473ffffffffffffffffffffffffffffffffffffffff16169050600081036118705761186f632e07630060e01b6113c8565b5b600083830190506000839050611884611519565b60018303111561189f5761189e6381647e3a60e01b6113c8565b5b5b808360007fddf252ad1be2c89b69c2b068fc378daa952ba7f163c4a11628f55a4df523b3ef600080a48181600101915081036118a057816118df6112d4565b600001819055505050506118f6600084838561174a565b505050565b611906816000611b5b565b50565b60006119136112d4565b60050160008473ffffffffffffffffffffffffffffffffffffffff1673ffffffffffffffffffffffffffffffffffffffff168152602001908152602001600020549050600082905060c081901b77ffffffffffffffffffffffffffffffffffffffffffffffff8316179150816119876112d4565b60050160008673ffffffffffffffffffffffffffffffffffffffff1673ffffffffffffffffffffffffffffffffffffffff1681526020019081526020016000208190555050505050565b6119d9612177565b6119ea6119e583611541565b6120c1565b9050919050565b60006119fb6112d4565b60040160008381526020019081526020016000205403611a3f57611a1e81611541565b611a266112d4565b6004016000838152602001908152602001600020819055505b50565b606060a060405101806040526020810391506000825281835b600115611a7d57600184039350600a81066030018453600a8104905080611a5b575b50828103602084039350808452505050919050565b606060405180602001604052806000815250905090565b6000611ab36112d4565b60000154905090565b611ac8828260006113d2565b5050565b611ad68383611750565b60008373ffffffffffffffffffffffffffffffffffffffff163b14611b56576000611aff6112d4565b600001549050600083820390505b611b206000868380600101945086611e3b565b611b3557611b3463d1a57ed660e01b6113c8565b5b818110611b0d5781611b456112d4565b6000015414611b5357600080fd5b50505b505050565b6000611b6683611541565b90506000819050600080611b7986611675565b915091508415611bc157611b958184611b906116a5565b6116ad565b611bc057611baa83611ba56116a5565b61121f565b611bbf57611bbe6359c896be60e01b6113c8565b5b5b5b611bcf8360008860016116f1565b8015611bda57600082555b600160806001901b03611beb6112d4565b60050160008573ffffffffffffffffffffffffffffffffffffffff1673ffffffffffffffffffffffffffffffffffffffff16815260200190815260200160002060008282540192505081905550611c8b83611c48856000886116f7565b7c02000000000000000000000000000000000000000000000000000000007c0100000000000000000000000000000000000000000000000000000000171761171f565b611c936112d4565b60040160008881526020019081526020016000208190555060007c0200000000000000000000000000000000000000000000000000000000851603611d355760006001870190506000611ce46112d4565b60040160008381526020019081526020016000205403611d3357611d066112d4565b600001548114611d325784611d196112d4565b6004016000838152602001908152602001600020819055505b5b505b85600073ffffffffffffffffffffffffffffffffffffffff168473ffffffffffffffffffffffffffffffffffffffff167fddf252ad1be2c89b69c2b068fc378daa952ba7f163c4a11628f55a4df523b3ef60405160405180910390a4611d9f83600088600161174a565b611da76112d4565b60010160008154809291906001019190505550505050505050565b611ddc828260405180602001604052806000815250611acc565b5050565b6000611dea61150a565b611df26112d4565b600001540390507fffffffffffffffffffffffffffffffffffffffffffffffffffffffffffffffff611e22611519565b14611e3857611e2f6112d4565b60080154810190505b90565b60008373ffffffffffffffffffffffffffffffffffffffff1663150b7a02611e616116a5565b8786866040518563ffffffff1660e01b8152600401611e839493929190612b01565b6020604051808303816000875af1925050508015611ebf57506040513d601f19601f82011682018060405250810190611ebc9190612b62565b60015b611f17573d8060008114611eef576040519150601f19603f3d011682016040523d82523d6000602084013e611ef4565b606091505b506000815103611f0f57611f0e63d1a57ed660e01b6113c8565b5b805181602001fd5b63150b7a0260e01b7bffffffffffffffffffffffffffffffffffffffffffffffffffffffff1916817bffffffffffffffffffffffffffffffffffffffffffffffffffffffff191614915050949350505050565b600060c0611f766112d4565b60050160008473ffffffffffffffffffffffffffffffffffffffff1673ffffffffffffffffffffffffffffffffffffffff16815260200190815260200160002054901c9050919050565b6000611fca6112d4565b60010154905090565b600067ffffffffffffffff6040611fe86112d4565b60050160008573ffffffffffffffffffffffffffffffffffffffff1673ffffffffffffffffffffffffffffffffffffffff16815260200190815260200160002054901c169050919050565b61203b612177565b6120606120466112d4565b6004016000848152602001908152602001600020546120c1565b9050919050565b60007c0100000000000000000000000000000000000000000000000000000000821673ffffffffffffffffffffffffffffffffffffffff8316119050919050565b60009392505050565b60006001821460e11b9050919050565b6120c9612177565b81816000019073ffffffffffffffffffffffffffffffffffffffff16908173ffffffffffffffffffffffffffffffffffffffff168152505060a082901c816020019067ffffffffffffffff16908167ffffffffffffffff168152505060007c01000000000000000000000000000000000000000000000000000000008316141581604001901515908115158152505060e882901c816060019062ffffff16908162ffffff1681525050919050565b6040518060800160405280600073ffffffffffffffffffffffffffffffffffffffff168152602001600067ffffffffffffffff168152602001600015158152602001600062ffffff1681525090565b6000604051905090565b600080fd5b600080fd5b60007fffffffff0000000000000000000000000000000000000000000000000000000082169050919050565b61220f816121da565b811461221a57600080fd5b50565b60008135905061222c81612206565b92915050565b600060208284031215612248576122476121d0565b5b60006122568482850161221d565b91505092915050565b60008115159050919050565b6122748161225f565b82525050565b600060208201905061228f600083018461226b565b92915050565b600081519050919050565b600082825260208201905092915050565b60005b838110156122cf5780820151818401526020810190506122b4565b60008484015250505050565b6000601f19601f8301169050919050565b60006122f782612295565b61230181856122a0565b93506123118185602086016122b1565b61231a816122db565b840191505092915050565b6000602082019050818103600083015261233f81846122ec565b905092915050565b6000819050919050565b61235a81612347565b811461236557600080fd5b50565b60008135905061237781612351565b92915050565b600060208284031215612393576123926121d0565b5b60006123a184828501612368565b91505092915050565b600073ffffffffffffffffffffffffffffffffffffffff82169050919050565b60006123d5826123aa565b9050919050565b6123e5816123ca565b82525050565b600060208201905061240060008301846123dc565b92915050565b61240f816123ca565b811461241a57600080fd5b50565b60008135905061242c81612406565b92915050565b60008060408385031215612449576124486121d0565b5b60006124578582860161241d565b925050602061246885828601612368565b9150509250929050565b61247b81612347565b82525050565b60006020820190506124966000830184612472565b92915050565b6000806000606084860312156124b5576124b46121d0565b5b60006124c38682870161241d565b93505060206124d48682870161241d565b92505060406124e586828701612368565b9150509250925092565b600067ffffffffffffffff82169050919050565b61250c816124ef565b811461251757600080fd5b50565b60008135905061252981612503565b92915050565b60008060408385031215612546576125456121d0565b5b60006125548582860161241d565b92505060206125658582860161251a565b9150509250929050565b612578816123ca565b82525050565b612587816124ef565b82525050565b6125968161225f565b82525050565b600062ffffff82169050919050565b6125b48161259c565b82525050565b6080820160008201516125d0600085018261256f565b5060208201516125e3602085018261257e565b5060408201516125f6604085018261258d565b50606082015161260960608501826125ab565b50505050565b600060808201905061262460008301846125ba565b92915050565b6000602082840312156126405761263f6121d0565b5b600061264e8482850161241d565b91505092915050565b600080fd5b600080fd5b7f4e487b7100000000000000000000000000000000000000000000000000000000600052604160045260246000fd5b612699826122db565b810181811067ffffffffffffffff821117156126b8576126b7612661565b5b80604052505050565b60006126cb6121c6565b90506126d78282612690565b919050565b600067ffffffffffffffff8211156126f7576126f6612661565b5b612700826122db565b9050602081019050919050565b82818337600083830152505050565b600061272f61272a846126dc565b6126c1565b90508281526020810184848401111561274b5761274a61265c565b5b61275684828561270d565b509392505050565b600082601f83011261277357612772612657565b5b813561278384826020860161271c565b91505092915050565b6000806000606084860312156127a5576127a46121d0565b5b60006127b38682870161241d565b93505060206127c486828701612368565b925050604084013567ffffffffffffffff8111156127e5576127e46121d5565b5b6127f18682870161275e565b9150509250925092565b6128048161225f565b811461280f57600080fd5b50565b600081359050612821816127fb565b92915050565b6000806040838503121561283e5761283d6121d0565b5b600061284c85828601612368565b925050602061285d85828601612812565b9150509250929050565b6000806040838503121561287e5761287d6121d0565b5b600061288c8582860161241d565b925050602061289d85828601612812565b9150509250929050565b600080600080608085870312156128c1576128c06121d0565b5b60006128cf8782880161241d565b94505060206128e08782880161241d565b93505060406128f187828801612368565b925050606085013567ffffffffffffffff811115612912576129116121d5565b5b61291e8782880161275e565b91505092959194509250565b612933816124ef565b82525050565b600060208201905061294e600083018461292a565b92915050565b6000806040838503121561296b5761296a6121d0565b5b60006129798582860161241d565b925050602061298a8582860161241d565b9150509250929050565b7f4e487b7100000000000000000000000000000000000000000000000000000000600052602260045260246000fd5b600060028204905060018216806129db57607f821691505b6020821081036129ee576129ed612994565b5b50919050565b600081905092915050565b6000612a0a82612295565b612a1481856129f4565b9350612a248185602086016122b1565b80840191505092915050565b6000612a3c82856129ff565b9150612a4882846129ff565b91508190509392505050565b7f4e487b7100000000000000000000000000000000000000000000000000000000600052601160045260246000fd5b6000612a8e82612347565b915060008203612aa157612aa0612a54565b5b600182039050919050565b600081519050919050565b600082825260208201905092915050565b6000612ad382612aac565b612add8185612ab7565b9350612aed8185602086016122b1565b612af6816122db565b840191505092915050565b6000608082019050612b1660008301876123dc565b612b2360208301866123dc565b612b306040830185612472565b8181036060830152612b428184612ac8565b905095945050505050565b600081519050612b5c81612206565b92915050565b600060208284031215612b7857612b776121d0565b5b6000612b8684828501612b4d565b9150509291505056fea26469706673582212207aea66be99637e95a949cace14e1976f567feb037f09416a97729176d118f82464736f6c63430008180033",
  "linkReferences": {},
  "deployedLinkReferences": {}
}