{
  "_format": "hh-sol-artifact-1",
  "contractName": "SequentialUpToHelperUpgradeableWithInit",
  "sourceName": "contracts/ERC721A-Upgradeable/contracts/mocks/WithInit.sol",
  "abi": [
    {
      "inputs": [
        {
          "internalType": "uint256",
          "name": "sequentialUpTo_",
          "type": "uint256"
        }
      ],
      "stateMutability": "payable",
      "type": "constructor"
    },
    {
      "inputs": [],
      "name": "sequentialUpTo",
      "outputs": [
        {
          "internalType": "uint256",
          "name": "result",
          "type": "uint256"
        }
      ],
      "stateMutability": "view",
      "type": "function"
    }
  ],
  "bytecode": "0x6080604052604051610514380380610514833981810160405281019061002591906102ea565b61003361018160201b60201c565b60000160019054906101000a900460ff1661006d5761005661018160201b60201c565b60000160009054906101000a900460ff161561007c565b61007b6101ae60201b60201c565b5b6100bb576040517f08c379a00000000000000000000000000000000000000000000000000000000081526004016100b29061039a565b60405180910390fd5b60006100cb61018160201b60201c565b60000160019054906101000a900460ff16159050801561013a5760016100f561018160201b60201c565b60000160016101000a81548160ff021916908315150217905550600161011f61018160201b60201c565b60000160006101000a81548160ff0219169083151502179055505b610149826101c560201b60201c565b801561017a57600061015f61018160201b60201c565b60000160016101000a81548160ff0219169083151502179055505b505061044c565b6000807fee151c8401928dc223602bb187aff91b9a56c7cae5476ef1b3287b085a16c85f90508091505090565b6000803090506000813b9050600081149250505090565b6101d361018160201b60201c565b60000160019054906101000a900460ff16610223576040517f08c379a000000000000000000000000000000000000000000000000000000000815260040161021a9061042c565b60405180910390fd5b6102328161023560201b60201c565b50565b61024361018160201b60201c565b60000160019054906101000a900460ff16610293576040517f08c379a000000000000000000000000000000000000000000000000000000000815260040161028a9061042c565b60405180910390fd5b6102a2816102a560201b60201c565b50565b80639638c59e5550565b600080fd5b6000819050919050565b6102c7816102b4565b81146102d257600080fd5b50565b6000815190506102e4816102be565b92915050565b600060208284031215610300576102ff6102af565b5b600061030e848285016102d5565b91505092915050565b600082825260208201905092915050565b7f455243373231415f5f496e697469616c697a61626c653a20636f6e747261637460008201527f20697320616c726561647920696e697469616c697a6564000000000000000000602082015250565b6000610384603783610317565b915061038f82610328565b604082019050919050565b600060208201905081810360008301526103b381610377565b9050919050565b7f455243373231415f5f496e697469616c697a61626c653a20636f6e747261637460008201527f206973206e6f7420696e697469616c697a696e67000000000000000000000000602082015250565b6000610416603483610317565b9150610421826103ba565b604082019050919050565b6000602082019050818103600083015261044581610409565b9050919050565b60ba8061045a6000396000f3fe6080604052348015600f57600080fd5b506004361060285760003560e01c806369cb03e414602d575b600080fd5b60336047565b604051603e9190606b565b60405180910390f35b6000639638c59e54905090565b6000819050919050565b6065816054565b82525050565b6000602082019050607e6000830184605e565b9291505056fea26469706673582212207b444993db623321fb9b7a50db24e905bc3a64fbeb6b2d62a264e2c1dc7a01cc64736f6c63430008180033",
  "linkReferences": {},
  "deployedLinkReferences": {}
}