{
  "_format": "hh-sol-artifact-1",
  "contractName": "StartTokenIdHelperUpgradeableWithInit",
  "sourceName": "contracts/ERC721A-Upgradeable/contracts/mocks/WithInit.sol",
  "abi": [
    {
      "inputs": [
        {
          "internalType": "uint256",
          "name": "startTokenId_",
          "type": "uint256"
        }
      ],
      "stateMutability": "payable",
      "type": "constructor"
    },
    {
      "inputs": [],
      "name": "startTokenId",
      "outputs": [
        {
          "internalType": "uint256",
          "name": "result",
          "type": "uint256"
        }
      ],
      "stateMutability": "view",
      "type": "function"
    }
  ],
  "bytecode": "0x608060405260405161031538038061031583398101604081905261002291610233565b6000805160206102f583398151915254610100900460ff16610057576000805160206102f58339815191525460ff161561005b565b303b155b6100c05760405162461bcd60e51b815260206004820152603760248201526000805160206102d583398151915260448201527f20697320616c726561647920696e697469616c697a656400000000000000000060648201526084015b60405180910390fd5b6000805160206102f583398151915254610100900460ff161580156100fc576000805160206102f5833981519152805461ffff19166101011790555b6101058261012b565b8015610124576000805160206102f5833981519152805461ff00191690555b505061024c565b6000805160206102f583398151915254610100900460ff166101a35760405162461bcd60e51b815260206004820152603460248201526000805160206102d583398151915260448201527f206973206e6f7420696e697469616c697a696e6700000000000000000000000060648201526084016100b7565b6101ac816101af565b50565b6000805160206102f583398151915254610100900460ff166102275760405162461bcd60e51b815260206004820152603460248201526000805160206102d583398151915260448201527f206973206e6f7420696e697469616c697a696e6700000000000000000000000060648201526084016100b7565b6101ac816328f7503255565b60006020828403121561024557600080fd5b5051919050565b607b8061025a6000396000f3fe6080604052348015600f57600080fd5b506004361060285760003560e01c8063e6798baa14602d575b600080fd5b6328f750325460405190815260200160405180910390f3fea2646970667358221220398126186cc6e9b8711707bb4c97a4d837ed2a8e7a1a31805fc4e64f6d75c3ff64736f6c63430008180033455243373231415f5f496e697469616c697a61626c653a20636f6e7472616374ee151c8401928dc223602bb187aff91b9a56c7cae5476ef1b3287b085a16c85f",
  "linkReferences": {},
  "deployedLinkReferences": {}
}