{
  "_format": "hh-sol-artifact-1",
  "contractName": "StartTokenIdHelperUpgradeable",
  "sourceName": "contracts/ERC721A-Upgradeable/contracts/mocks/StartTokenIdHelperUpgradeable.sol",
  "abi": [
    {
      "inputs": [],
      "name": "startTokenId",
      "outputs": [
        {
          "internalType": "uint256",
          "name": "result",
          "type": "uint256"
        }
      ],
      "stateMutability": "view",
      "type": "function"
    }
  ],
  "bytecode": "0x608060405234801561001057600080fd5b5060ba8061001f6000396000f3fe6080604052348015600f57600080fd5b506004361060285760003560e01c8063e6798baa14602d575b600080fd5b60336047565b604051603e9190606b565b60405180910390f35b60006328f7503254905090565b6000819050919050565b6065816054565b82525050565b6000602082019050607e6000830184605e565b9291505056fea2646970667358221220fcefb5945c5c2ab4e6053e1c45e610e64e62fe006bb4b0f21d9505a07f02a0f764736f6c63430008180033",
  "linkReferences": {},
  "deployedLinkReferences": {}
}