{
  "_format": "hh-sol-artifact-1",
  "contractName": "StartTokenIdHelperUpgradeable",
  "sourceName": "contracts/ERC721A-Upgradeable/contracts/mocks/StartTokenIdHelperUpgradeable.sol",
  "abi": [
    {
      "inputs": [],
      "name": "startTokenId",
      "outputs": [
        {
          "internalType": "uint256",
          "name": "result",
          "type": "uint256"
        }
      ],
      "stateMutability": "view",
      "type": "function"
    }
  ],
  "bytecode": "0x6080604052348015600f57600080fd5b50607b80601d6000396000f3fe6080604052348015600f57600080fd5b506004361060285760003560e01c8063e6798baa14602d575b600080fd5b6328f750325460405190815260200160405180910390f3fea2646970667358221220e8cd89c7480a4768549fa82b264a5e8b74801c033061405a7a89b9f90fe6c46d64736f6c63430008180033",
  "linkReferences": {},
  "deployedLinkReferences": {}
}