{
  "_format": "hh-sol-artifact-1",
  "contractName": "ERC721AGasReporterMockUpgradeable",
  "sourceName": "contracts/ERC721A-Upgradeable/contracts/mocks/ERC721AGasReporterMockUpgradeable.sol",
  "abi": [
    {
      "inputs": [],
      "name": "ApprovalCallerNotOwnerNorApproved",
      "type": "error"
    },
    {
      "inputs": [],
      "name": "ApprovalQueryForNonexistentToken",
      "type": "error"
    },
    {
      "inputs": [],
      "name": "BalanceQueryForZeroAddress",
      "type": "error"
    },
    {
      "inputs": [],
      "name": "MintERC2309QuantityExceedsLimit",
      "type": "error"
    },
    {
      "inputs": [],
      "name": "MintToZeroAddress",
      "type": "error"
    },
    {
      "inputs": [],
      "name": "MintZeroQuantity",
      "type": "error"
    },
    {
      "inputs": [],
      "name": "NotCompatibleWithSpotMints",
      "type": "error"
    },
    {
      "inputs": [],
      "name": "OwnerQueryForNonexistentToken",
      "type": "error"
    },
    {
      "inputs": [],
      "name": "OwnershipNotInitializedForExtraData",
      "type": "error"
    },
    {
      "inputs": [],
      "name": "SequentialMintExceedsLimit",
      "type": "error"
    },
    {
      "inputs": [],
      "name": "SequentialUpToTooSmall",
      "type": "error"
    },
    {
      "inputs": [],
      "name": "SpotMintTokenIdTooSmall",
      "type": "error"
    },
    {
      "inputs": [],
      "name": "TokenAlreadyExists",
      "type": "error"
    },
    {
      "inputs": [],
      "name": "TransferCallerNotOwnerNorApproved",
      "type": "error"
    },
    {
      "inputs": [],
      "name": "TransferFromIncorrectOwner",
      "type": "error"
    },
    {
      "inputs": [],
      "name": "TransferToNonERC721ReceiverImplementer",
      "type": "error"
    },
    {
      "inputs": [],
      "name": "TransferToZeroAddress",
      "type": "error"
    },
    {
      "inputs": [],
      "name": "URIQueryForNonexistentToken",
      "type": "error"
    },
    {
      "anonymous": false,
      "inputs": [
        {
          "indexed": true,
          "internalType": "address",
          "name": "owner",
          "type": "address"
        },
        {
          "indexed": true,
          "internalType": "address",
          "name": "approved",
          "type": "address"
        },
        {
          "indexed": true,
          "internalType": "uint256",
          "name": "tokenId",
          "type": "uint256"
        }
      ],
      "name": "Approval",
      "type": "event"
    },
    {
      "anonymous": false,
      "inputs": [
        {
          "indexed": true,
          "internalType": "address",
          "name": "owner",
          "type": "address"
        },
        {
          "indexed": true,
          "internalType": "address",
          "name": "operator",
          "type": "address"
        },
        {
          "indexed": false,
          "internalType": "bool",
          "name": "approved",
          "type": "bool"
        }
      ],
      "name": "ApprovalForAll",
      "type": "event"
    },
    {
      "anonymous": false,
      "inputs": [
        {
          "indexed": true,
          "internalType": "uint256",
          "name": "fromTokenId",
          "type": "uint256"
        },
        {
          "indexed": false,
          "internalType": "uint256",
          "name": "toTokenId",
          "type": "uint256"
        },
        {
          "indexed": true,
          "internalType": "address",
          "name": "from",
          "type": "address"
        },
        {
          "indexed": true,
          "internalType": "address",
          "name": "to",
          "type": "address"
        }
      ],
      "name": "ConsecutiveTransfer",
      "type": "event"
    },
    {
      "anonymous": false,
      "inputs": [
        {
          "indexed": true,
          "internalType": "address",
          "name": "from",
          "type": "address"
        },
        {
          "indexed": true,
          "internalType": "address",
          "name": "to",
          "type": "address"
        },
        {
          "indexed": true,
          "internalType": "uint256",
          "name": "tokenId",
          "type": "uint256"
        }
      ],
      "name": "Transfer",
      "type": "event"
    },
    {
      "inputs": [
        {
          "internalType": "address",
          "name": "to",
          "type": "address"
        },
        {
          "internalType": "uint256",
          "name": "tokenId",
          "type": "uint256"
        }
      ],
      "name": "approve",
      "outputs": [],
      "stateMutability": "payable",
      "type": "function"
    },
    {
      "inputs": [
        {
          "internalType": "address",
          "name": "owner",
          "type": "address"
        }
      ],
      "name": "balanceOf",
      "outputs": [
        {
          "internalType": "uint256",
          "name": "",
          "type": "uint256"
        }
      ],
      "stateMutability": "view",
      "type": "function"
    },
    {
      "inputs": [
        {
          "internalType": "uint256",
          "name": "tokenId",
          "type": "uint256"
        }
      ],
      "name": "getApproved",
      "outputs": [
        {
          "internalType": "address",
          "name": "",
          "type": "address"
        }
      ],
      "stateMutability": "view",
      "type": "function"
    },
    {
      "inputs": [
        {
          "internalType": "address",
          "name": "owner",
          "type": "address"
        },
        {
          "internalType": "address",
          "name": "operator",
          "type": "address"
        }
      ],
      "name": "isApprovedForAll",
      "outputs": [
        {
          "internalType": "bool",
          "name": "",
          "type": "bool"
        }
      ],
      "stateMutability": "view",
      "type": "function"
    },
    {
      "inputs": [
        {
          "internalType": "address",
          "name": "to",
          "type": "address"
        }
      ],
      "name": "mintOne",
      "outputs": [],
      "stateMutability": "nonpayable",
      "type": "function"
    },
    {
      "inputs": [
        {
          "internalType": "address",
          "name": "to",
          "type": "address"
        }
      ],
      "name": "mintTen",
      "outputs": [],
      "stateMutability": "nonpayable",
      "type": "function"
    },
    {
      "inputs": [],
      "name": "name",
      "outputs": [
        {
          "internalType": "string",
          "name": "",
          "type": "string"
        }
      ],
      "stateMutability": "view",
      "type": "function"
    },
    {
      "inputs": [
        {
          "internalType": "uint256",
          "name": "tokenId",
          "type": "uint256"
        }
      ],
      "name": "ownerOf",
      "outputs": [
        {
          "internalType": "address",
          "name": "",
          "type": "address"
        }
      ],
      "stateMutability": "view",
      "type": "function"
    },
    {
      "inputs": [
        {
          "internalType": "address",
          "name": "to",
          "type": "address"
        }
      ],
      "name": "safeMintOne",
      "outputs": [],
      "stateMutability": "nonpayable",
      "type": "function"
    },
    {
      "inputs": [
        {
          "internalType": "address",
          "name": "to",
          "type": "address"
        }
      ],
      "name": "safeMintTen",
      "outputs": [],
      "stateMutability": "nonpayable",
      "type": "function"
    },
    {
      "inputs": [
        {
          "internalType": "address",
          "name": "from",
          "type": "address"
        },
        {
          "internalType": "address",
          "name": "to",
          "type": "address"
        },
        {
          "internalType": "uint256",
          "name": "tokenId",
          "type": "uint256"
        }
      ],
      "name": "safeTransferFrom",
      "outputs": [],
      "stateMutability": "payable",
      "type": "function"
    },
    {
      "inputs": [
        {
          "internalType": "address",
          "name": "from",
          "type": "address"
        },
        {
          "internalType": "address",
          "name": "to",
          "type": "address"
        },
        {
          "internalType": "uint256",
          "name": "tokenId",
          "type": "uint256"
        },
        {
          "internalType": "bytes",
          "name": "_data",
          "type": "bytes"
        }
      ],
      "name": "safeTransferFrom",
      "outputs": [],
      "stateMutability": "payable",
      "type": "function"
    },
    {
      "inputs": [
        {
          "internalType": "address",
          "name": "operator",
          "type": "address"
        },
        {
          "internalType": "bool",
          "name": "approved",
          "type": "bool"
        }
      ],
      "name": "setApprovalForAll",
      "outputs": [],
      "stateMutability": "nonpayable",
      "type": "function"
    },
    {
      "inputs": [
        {
          "internalType": "bytes4",
          "name": "interfaceId",
          "type": "bytes4"
        }
      ],
      "name": "supportsInterface",
      "outputs": [
        {
          "internalType": "bool",
          "name": "",
          "type": "bool"
        }
      ],
      "stateMutability": "view",
      "type": "function"
    },
    {
      "inputs": [],
      "name": "symbol",
      "outputs": [
        {
          "internalType": "string",
          "name": "",
          "type": "string"
        }
      ],
      "stateMutability": "view",
      "type": "function"
    },
    {
      "inputs": [
        {
          "internalType": "uint256",
          "name": "tokenId",
          "type": "uint256"
        }
      ],
      "name": "tokenURI",
      "outputs": [
        {
          "internalType": "string",
          "name": "",
          "type": "string"
        }
      ],
      "stateMutability": "view",
      "type": "function"
    },
    {
      "inputs": [],
      "name": "totalSupply",
      "outputs": [
        {
          "internalType": "uint256",
          "name": "result",
          "type": "uint256"
        }
      ],
      "stateMutability": "view",
      "type": "function"
    },
    {
      "inputs": [
        {
          "internalType": "address",
          "name": "from",
          "type": "address"
        },
        {
          "internalType": "address",
          "name": "to",
          "type": "address"
        },
        {
          "internalType": "uint256",
          "name": "tokenId",
          "type": "uint256"
        }
      ],
      "name": "transferFrom",
      "outputs": [],
      "stateMutability": "payable",
      "type": "function"
    },
    {
      "inputs": [
        {
          "internalType": "address",
          "name": "to",
          "type": "address"
        }
      ],
      "name": "transferTenAsc",
      "outputs": [],
      "stateMutability": "nonpayable",
      "type": "function"
    },
    {
      "inputs": [
        {
          "internalType": "address",
          "name": "to",
          "type": "address"
        }
      ],
      "name": "transferTenAvg",
      "outputs": [],
      "stateMutability": "nonpayable",
      "type": "function"
    },
    {
      "inputs": [
        {
          "internalType": "address",
          "name": "to",
          "type": "address"
        }
      ],
      "name": "transferTenDesc",
      "outputs": [],
      "stateMutability": "nonpayable",
      "type": "function"
    }
  ],
  "bytecode": "0x608060405234801561001057600080fd5b50612014806100206000396000f3fe60806040526004361061012a5760003560e01c806370a08231116100ab578063bcd9bbbc1161006f578063bcd9bbbc146103b8578063c87b56dd146103e1578063db6745f81461041e578063e985e9c514610447578063ef9c0bec14610484578063fa695a97146104ad5761012a565b806370a08231146102e257806381861f841461031f57806395d89b4114610348578063a22cb46514610373578063b88d4fde1461039c5761012a565b806318160ddd116100f257806318160ddd1461021957806323b872dd1461024457806342842e0e146102605780634da42e581461027c5780636352211e146102a55761012a565b806301ffc9a71461012f57806306fdde031461016c578063081812fc14610197578063095ea7b3146101d45780630ff4ba63146101f0575b600080fd5b34801561013b57600080fd5b5061015660048036038101906101519190611895565b6104d6565b60405161016391906118dd565b60405180910390f35b34801561017857600080fd5b50610181610568565b60405161018e9190611988565b60405180910390f35b3480156101a357600080fd5b506101be60048036038101906101b991906119e0565b610603565b6040516101cb9190611a4e565b60405180910390f35b6101ee60048036038101906101e99190611a95565b61066a565b005b3480156101fc57600080fd5b5061021760048036038101906102129190611ad5565b61067a565b005b34801561022557600080fd5b5061022e6106f5565b60405161023b9190611b11565b60405180910390f35b61025e60048036038101906102599190611b2c565b61075d565b005b61027a60048036038101906102759190611b2c565b610a54565b005b34801561028857600080fd5b506102a3600480360381019061029e9190611ad5565b610a74565b005b3480156102b157600080fd5b506102cc60048036038101906102c791906119e0565b610aef565b6040516102d99190611a4e565b60405180910390f35b3480156102ee57600080fd5b5061030960048036038101906103049190611ad5565b610b01565b6040516103169190611b11565b60405180910390f35b34801561032b57600080fd5b5061034660048036038101906103419190611ad5565b610ba1565b005b34801561035457600080fd5b5061035d610baf565b60405161036a9190611988565b60405180910390f35b34801561037f57600080fd5b5061039a60048036038101906103959190611bab565b610c4a565b005b6103b660048036038101906103b19190611d20565b610d5e565b005b3480156103c457600080fd5b506103df60048036038101906103da9190611ad5565b610db0565b005b3480156103ed57600080fd5b50610408600480360381019061040391906119e0565b610e2b565b6040516104159190611988565b60405180910390f35b34801561042a57600080fd5b5061044560048036038101906104409190611ad5565b610ea8565b005b34801561045357600080fd5b5061046e60048036038101906104699190611da3565b610eb6565b60405161047b91906118dd565b60405180910390f35b34801561049057600080fd5b506104ab60048036038101906104a69190611ad5565b610f53565b005b3480156104b957600080fd5b506104d460048036038101906104cf9190611ad5565b610f61565b005b60006301ffc9a760e01b827bffffffffffffffffffffffffffffffffffffffffffffffffffffffff1916148061053157506380ac58cd60e01b827bffffffffffffffffffffffffffffffffffffffffffffffffffffffff1916145b806105615750635b5e139f60e01b827bffffffffffffffffffffffffffffffffffffffffffffffffffffffff1916145b9050919050565b6060610572610f6f565b600201805461058090611e12565b80601f01602080910402602001604051908101604052809291908181526020018280546105ac90611e12565b80156105f95780601f106105ce576101008083540402835291602001916105f9565b820191906000526020600020905b8154815290600101906020018083116105dc57829003601f168201915b5050505050905090565b600061060e82610f9c565b6106235761062263cf4700e460e01b611063565b5b61062b610f6f565b600601600083815260200190815260200160002060000160009054906101000a900473ffffffffffffffffffffffffffffffffffffffff169050919050565b6106768282600161106d565b5050565b6106863382600061075d565b6106923382600161075d565b61069e3382600261075d565b6106aa3382600361075d565b6106b63382600461075d565b6106c23382600561075d565b6106ce3382600661075d565b6106da3382600761075d565b6106e63382600861075d565b6106f23382600961075d565b50565b60006106ff6111a5565b610707610f6f565b60010154610713610f6f565b60000154030390507fffffffffffffffffffffffffffffffffffffffffffffffffffffffffffffffff6107446111aa565b1461075a57610751610f6f565b60080154810190505b90565b6000610768826111d2565b905073ffffffffffffffffffffffffffffffffffffffff8473ffffffffffffffffffffffffffffffffffffffff161693508373ffffffffffffffffffffffffffffffffffffffff168173ffffffffffffffffffffffffffffffffffffffff16146107dd576107dc63a114810060e01b611063565b5b6000806107e984611306565b915091506107ff81876107fa611336565b61133e565b61082a576108148661080f611336565b610eb6565b610829576108286359c896be60e01b611063565b5b5b6108378686866001611382565b801561084257600082555b61084a610f6f565b60050160008773ffffffffffffffffffffffffffffffffffffffff1673ffffffffffffffffffffffffffffffffffffffff1681526020019081526020016000206000815460019003919050819055506108a1610f6f565b60050160008673ffffffffffffffffffffffffffffffffffffffff1673ffffffffffffffffffffffffffffffffffffffff1681526020019081526020016000206000815460010191905081905550610922856108fe888887611388565b7c0200000000000000000000000000000000000000000000000000000000176113b0565b61092a610f6f565b60040160008681526020019081526020016000208190555060007c02000000000000000000000000000000000000000000000000000000008416036109cc576000600185019050600061097b610f6f565b600401600083815260200190815260200160002054036109ca5761099d610f6f565b6000015481146109c957836109b0610f6f565b6004016000838152602001908152602001600020819055505b5b505b600073ffffffffffffffffffffffffffffffffffffffff8673ffffffffffffffffffffffffffffffffffffffff161690508481887fddf252ad1be2c89b69c2b068fc378daa952ba7f163c4a11628f55a4df523b3ef600080a460008103610a3e57610a3d63ea553b3460e01b611063565b5b610a4b87878760016113db565b50505050505050565b610a6f83838360405180602001604052806000815250610d5e565b505050565b610a803382600961075d565b610a8c3382600861075d565b610a983382600761075d565b610aa43382600661075d565b610ab03382600561075d565b610abc3382600461075d565b610ac83382600361075d565b610ad43382600261075d565b610ae03382600161075d565b610aec3382600061075d565b50565b6000610afa826111d2565b9050919050565b60008073ffffffffffffffffffffffffffffffffffffffff168273ffffffffffffffffffffffffffffffffffffffff1603610b4757610b46638f4eb60460e01b611063565b5b67ffffffffffffffff610b58610f6f565b60050160008473ffffffffffffffffffffffffffffffffffffffff1673ffffffffffffffffffffffffffffffffffffffff16815260200190815260200160002054169050919050565b610bac81600a6113e1565b50565b6060610bb9610f6f565b6003018054610bc790611e12565b80601f0160208091040260200160405190810160405280929190818152602001828054610bf390611e12565b8015610c405780601f10610c1557610100808354040283529160200191610c40565b820191906000526020600020905b815481529060010190602001808311610c2357829003601f168201915b5050505050905090565b80610c53610f6f565b6007016000610c60611336565b73ffffffffffffffffffffffffffffffffffffffff1673ffffffffffffffffffffffffffffffffffffffff16815260200190815260200160002060008473ffffffffffffffffffffffffffffffffffffffff1673ffffffffffffffffffffffffffffffffffffffff16815260200190815260200160002060006101000a81548160ff0219169083151502179055508173ffffffffffffffffffffffffffffffffffffffff16610d0d611336565b73ffffffffffffffffffffffffffffffffffffffff167f17307eab39ab6107e8899845ad3d59bd9653f200f220920489ca2b5937696c3183604051610d5291906118dd565b60405180910390a35050565b610d6984848461075d565b60008373ffffffffffffffffffffffffffffffffffffffff163b14610daa57610d94848484846113ff565b610da957610da863d1a57ed660e01b611063565b5b5b50505050565b610dbc3382600461075d565b610dc83382600561075d565b610dd43382600361075d565b610de03382600661075d565b610dec3382600261075d565b610df83382600761075d565b610e043382600161075d565b610e103382600861075d565b610e1c3382600061075d565b610e283382600961075d565b50565b6060610e3682610f9c565b610e4b57610e4a63a14c4b5060e01b611063565b5b6000610e5561152e565b90506000815103610e755760405180602001604052806000815250610ea0565b80610e7f84611545565b604051602001610e90929190611e7f565b6040516020818303038152906040525b915050919050565b610eb38160016113e1565b50565b6000610ec0610f6f565b60070160008473ffffffffffffffffffffffffffffffffffffffff1673ffffffffffffffffffffffffffffffffffffffff16815260200190815260200160002060008373ffffffffffffffffffffffffffffffffffffffff1673ffffffffffffffffffffffffffffffffffffffff16815260200190815260200160002060009054906101000a900460ff16905092915050565b610f5e81600a611595565b50565b610f6c816001611595565b50565b6000807f2569078dfb4b0305704d3008e7403993ae9601b85f7ae5e742de3de8f8011c4090508091505090565b600081610fa76111a5565b1161105d57610fb46111aa565b821115610fe757610fe0610fc6610f6f565b600401600084815260200190815260200160002054611740565b905061105e565b610fef610f6f565b6000015482101561105c5760005b6000611007610f6f565b60040160008581526020019081526020016000205491508103611035578261102e90611ed2565b9250610ffd565b60007c01000000000000000000000000000000000000000000000000000000008216149150505b5b5b919050565b8060005260046000fd5b600061107883610aef565b90508180156110ba57508073ffffffffffffffffffffffffffffffffffffffff166110a1611336565b73ffffffffffffffffffffffffffffffffffffffff1614155b156110e6576110d0816110cb611336565b610eb6565b6110e5576110e463cfb3b94260e01b611063565b5b5b836110ef610f6f565b600601600085815260200190815260200160002060000160006101000a81548173ffffffffffffffffffffffffffffffffffffffff021916908373ffffffffffffffffffffffffffffffffffffffff160217905550828473ffffffffffffffffffffffffffffffffffffffff168273ffffffffffffffffffffffffffffffffffffffff167f8c5be1e5ebec7d5bd14f71427d1e84f3dd0314c0f7b2291e5b200ac8c7c3b92560405160405180910390a450505050565b600090565b60007fffffffffffffffffffffffffffffffffffffffffffffffffffffffffffffffff905090565b6000816111dd6111a5565b116112f0576111ea610f6f565b60040160008381526020019081526020016000205490506112096111aa565b82111561122e5761121981611740565b6113015761122d63df2d9b4260e01b611063565b5b600081036112c75761123e610f6f565b6000015482106112595761125863df2d9b4260e01b611063565b5b5b611262610f6f565b60040160008360019003935083815260200190815260200160002054905060008103156112c25760007c010000000000000000000000000000000000000000000000000000000082160315611301576112c163df2d9b4260e01b611063565b5b61125a565b60007c010000000000000000000000000000000000000000000000000000000082160315611301575b61130063df2d9b4260e01b611063565b5b919050565b6000806000611313610f6f565b600601600085815260200190815260200160002090508092508254915050915091565b600033905090565b600073ffffffffffffffffffffffffffffffffffffffff8316925073ffffffffffffffffffffffffffffffffffffffff821691508382148383141790509392505050565b50505050565b60008060e883901c905060e861139f868684611781565b62ffffff16901b9150509392505050565b600073ffffffffffffffffffffffffffffffffffffffff83169250814260a01b178317905092915050565b50505050565b6113fb82826040518060200160405280600081525061178a565b5050565b60008373ffffffffffffffffffffffffffffffffffffffff1663150b7a02611425611336565b8786866040518563ffffffff1660e01b81526004016114479493929190611f50565b6020604051808303816000875af192505050801561148357506040513d601f19601f820116820180604052508101906114809190611fb1565b60015b6114db573d80600081146114b3576040519150601f19603f3d011682016040523d82523d6000602084013e6114b8565b606091505b5060008151036114d3576114d263d1a57ed660e01b611063565b5b805181602001fd5b63150b7a0260e01b7bffffffffffffffffffffffffffffffffffffffffffffffffffffffff1916817bffffffffffffffffffffffffffffffffffffffffffffffffffffffff191614915050949350505050565b606060405180602001604052806000815250905090565b606060a060405101806040526020810391506000825281835b60011561158057600184039350600a81066030018453600a810490508061155e575b50828103602084039350808452505050919050565b600061159f610f6f565b600001549050600082036115be576115bd63b562e8dd60e01b611063565b5b6115cb6000848385611382565b6115eb836115dc6000866000611388565b6115e585611819565b176113b0565b6115f3610f6f565b600401600083815260200190815260200160002081905550600160406001901b17820261161e610f6f565b60050160008573ffffffffffffffffffffffffffffffffffffffff1673ffffffffffffffffffffffffffffffffffffffff16815260200190815260200160002060008282540192505081905550600073ffffffffffffffffffffffffffffffffffffffff8473ffffffffffffffffffffffffffffffffffffffff16169050600081036116b5576116b4632e07630060e01b611063565b5b6000838301905060008390506116c96111aa565b6001830311156116e4576116e36381647e3a60e01b611063565b5b5b808360007fddf252ad1be2c89b69c2b068fc378daa952ba7f163c4a11628f55a4df523b3ef600080a48181600101915081036116e55781611724610f6f565b6000018190555050505061173b60008483856113db565b505050565b60007c0100000000000000000000000000000000000000000000000000000000821673ffffffffffffffffffffffffffffffffffffffff8316119050919050565b60009392505050565b6117948383611595565b60008373ffffffffffffffffffffffffffffffffffffffff163b146118145760006117bd610f6f565b600001549050600083820390505b6117de60008683806001019450866113ff565b6117f3576117f263d1a57ed660e01b611063565b5b8181106117cb5781611803610f6f565b600001541461181157600080fd5b50505b505050565b60006001821460e11b9050919050565b6000604051905090565b600080fd5b600080fd5b60007fffffffff0000000000000000000000000000000000000000000000000000000082169050919050565b6118728161183d565b811461187d57600080fd5b50565b60008135905061188f81611869565b92915050565b6000602082840312156118ab576118aa611833565b5b60006118b984828501611880565b91505092915050565b60008115159050919050565b6118d7816118c2565b82525050565b60006020820190506118f260008301846118ce565b92915050565b600081519050919050565b600082825260208201905092915050565b60005b83811015611932578082015181840152602081019050611917565b60008484015250505050565b6000601f19601f8301169050919050565b600061195a826118f8565b6119648185611903565b9350611974818560208601611914565b61197d8161193e565b840191505092915050565b600060208201905081810360008301526119a2818461194f565b905092915050565b6000819050919050565b6119bd816119aa565b81146119c857600080fd5b50565b6000813590506119da816119b4565b92915050565b6000602082840312156119f6576119f5611833565b5b6000611a04848285016119cb565b91505092915050565b600073ffffffffffffffffffffffffffffffffffffffff82169050919050565b6000611a3882611a0d565b9050919050565b611a4881611a2d565b82525050565b6000602082019050611a636000830184611a3f565b92915050565b611a7281611a2d565b8114611a7d57600080fd5b50565b600081359050611a8f81611a69565b92915050565b60008060408385031215611aac57611aab611833565b5b6000611aba85828601611a80565b9250506020611acb858286016119cb565b9150509250929050565b600060208284031215611aeb57611aea611833565b5b6000611af984828501611a80565b91505092915050565b611b0b816119aa565b82525050565b6000602082019050611b266000830184611b02565b92915050565b600080600060608486031215611b4557611b44611833565b5b6000611b5386828701611a80565b9350506020611b6486828701611a80565b9250506040611b75868287016119cb565b9150509250925092565b611b88816118c2565b8114611b9357600080fd5b50565b600081359050611ba581611b7f565b92915050565b60008060408385031215611bc257611bc1611833565b5b6000611bd085828601611a80565b9250506020611be185828601611b96565b9150509250929050565b600080fd5b600080fd5b7f4e487b7100000000000000000000000000000000000000000000000000000000600052604160045260246000fd5b611c2d8261193e565b810181811067ffffffffffffffff82111715611c4c57611c4b611bf5565b5b80604052505050565b6000611c5f611829565b9050611c6b8282611c24565b919050565b600067ffffffffffffffff821115611c8b57611c8a611bf5565b5b611c948261193e565b9050602081019050919050565b82818337600083830152505050565b6000611cc3611cbe84611c70565b611c55565b905082815260208101848484011115611cdf57611cde611bf0565b5b611cea848285611ca1565b509392505050565b600082601f830112611d0757611d06611beb565b5b8135611d17848260208601611cb0565b91505092915050565b60008060008060808587031215611d3a57611d39611833565b5b6000611d4887828801611a80565b9450506020611d5987828801611a80565b9350506040611d6a878288016119cb565b925050606085013567ffffffffffffffff811115611d8b57611d8a611838565b5b611d9787828801611cf2565b91505092959194509250565b60008060408385031215611dba57611db9611833565b5b6000611dc885828601611a80565b9250506020611dd985828601611a80565b9150509250929050565b7f4e487b7100000000000000000000000000000000000000000000000000000000600052602260045260246000fd5b60006002820490506001821680611e2a57607f821691505b602082108103611e3d57611e3c611de3565b5b50919050565b600081905092915050565b6000611e59826118f8565b611e638185611e43565b9350611e73818560208601611914565b80840191505092915050565b6000611e8b8285611e4e565b9150611e978284611e4e565b91508190509392505050565b7f4e487b7100000000000000000000000000000000000000000000000000000000600052601160045260246000fd5b6000611edd826119aa565b915060008203611ef057611eef611ea3565b5b600182039050919050565b600081519050919050565b600082825260208201905092915050565b6000611f2282611efb565b611f2c8185611f06565b9350611f3c818560208601611914565b611f458161193e565b840191505092915050565b6000608082019050611f656000830187611a3f565b611f726020830186611a3f565b611f7f6040830185611b02565b8181036060830152611f918184611f17565b905095945050505050565b600081519050611fab81611869565b92915050565b600060208284031215611fc757611fc6611833565b5b6000611fd584828501611f9c565b9150509291505056fea2646970667358221220e3ba4bd47c81359c1d1ef575af5d76d9782ef30ba8fdc834c1e4f70e024b2aaa64736f6c63430008180033",
  "linkReferences": {},
  "deployedLinkReferences": {}
}