{
  "_format": "hh-sol-artifact-1",
  "contractName": "ERC721ABurnableStartTokenIdMockUpgradeable",
  "sourceName": "contracts/ERC721A-Upgradeable/contracts/mocks/ERC721ABurnableStartTokenIdMockUpgradeable.sol",
  "abi": [
    {
      "inputs": [],
      "name": "ApprovalCallerNotOwnerNorApproved",
      "type": "error"
    },
    {
      "inputs": [],
      "name": "ApprovalQueryForNonexistentToken",
      "type": "error"
    },
    {
      "inputs": [],
      "name": "BalanceQueryForZeroAddress",
      "type": "error"
    },
    {
      "inputs": [],
      "name": "MintERC2309QuantityExceedsLimit",
      "type": "error"
    },
    {
      "inputs": [],
      "name": "MintToZeroAddress",
      "type": "error"
    },
    {
      "inputs": [],
      "name": "MintZeroQuantity",
      "type": "error"
    },
    {
      "inputs": [],
      "name": "NotCompatibleWithSpotMints",
      "type": "error"
    },
    {
      "inputs": [],
      "name": "OwnerQueryForNonexistentToken",
      "type": "error"
    },
    {
      "inputs": [],
      "name": "OwnershipNotInitializedForExtraData",
      "type": "error"
    },
    {
      "inputs": [],
      "name": "SequentialMintExceedsLimit",
      "type": "error"
    },
    {
      "inputs": [],
      "name": "SequentialUpToTooSmall",
      "type": "error"
    },
    {
      "inputs": [],
      "name": "SpotMintTokenIdTooSmall",
      "type": "error"
    },
    {
      "inputs": [],
      "name": "TokenAlreadyExists",
      "type": "error"
    },
    {
      "inputs": [],
      "name": "TransferCallerNotOwnerNorApproved",
      "type": "error"
    },
    {
      "inputs": [],
      "name": "TransferFromIncorrectOwner",
      "type": "error"
    },
    {
      "inputs": [],
      "name": "TransferToNonERC721ReceiverImplementer",
      "type": "error"
    },
    {
      "inputs": [],
      "name": "TransferToZeroAddress",
      "type": "error"
    },
    {
      "inputs": [],
      "name": "URIQueryForNonexistentToken",
      "type": "error"
    },
    {
      "anonymous": false,
      "inputs": [
        {
          "indexed": true,
          "internalType": "address",
          "name": "owner",
          "type": "address"
        },
        {
          "indexed": true,
          "internalType": "address",
          "name": "approved",
          "type": "address"
        },
        {
          "indexed": true,
          "internalType": "uint256",
          "name": "tokenId",
          "type": "uint256"
        }
      ],
      "name": "Approval",
      "type": "event"
    },
    {
      "anonymous": false,
      "inputs": [
        {
          "indexed": true,
          "internalType": "address",
          "name": "owner",
          "type": "address"
        },
        {
          "indexed": true,
          "internalType": "address",
          "name": "operator",
          "type": "address"
        },
        {
          "indexed": false,
          "internalType": "bool",
          "name": "approved",
          "type": "bool"
        }
      ],
      "name": "ApprovalForAll",
      "type": "event"
    },
    {
      "anonymous": false,
      "inputs": [
        {
          "indexed": true,
          "internalType": "uint256",
          "name": "fromTokenId",
          "type": "uint256"
        },
        {
          "indexed": false,
          "internalType": "uint256",
          "name": "toTokenId",
          "type": "uint256"
        },
        {
          "indexed": true,
          "internalType": "address",
          "name": "from",
          "type": "address"
        },
        {
          "indexed": true,
          "internalType": "address",
          "name": "to",
          "type": "address"
        }
      ],
      "name": "ConsecutiveTransfer",
      "type": "event"
    },
    {
      "anonymous": false,
      "inputs": [
        {
          "indexed": true,
          "internalType": "address",
          "name": "from",
          "type": "address"
        },
        {
          "indexed": true,
          "internalType": "address",
          "name": "to",
          "type": "address"
        },
        {
          "indexed": true,
          "internalType": "uint256",
          "name": "tokenId",
          "type": "uint256"
        }
      ],
      "name": "Transfer",
      "type": "event"
    },
    {
      "inputs": [
        {
          "internalType": "address",
          "name": "to",
          "type": "address"
        },
        {
          "internalType": "uint256",
          "name": "tokenId",
          "type": "uint256"
        }
      ],
      "name": "approve",
      "outputs": [],
      "stateMutability": "payable",
      "type": "function"
    },
    {
      "inputs": [
        {
          "internalType": "address",
          "name": "owner",
          "type": "address"
        }
      ],
      "name": "balanceOf",
      "outputs": [
        {
          "internalType": "uint256",
          "name": "",
          "type": "uint256"
        }
      ],
      "stateMutability": "view",
      "type": "function"
    },
    {
      "inputs": [
        {
          "internalType": "uint256",
          "name": "tokenId",
          "type": "uint256"
        }
      ],
      "name": "burn",
      "outputs": [],
      "stateMutability": "nonpayable",
      "type": "function"
    },
    {
      "inputs": [
        {
          "internalType": "uint256",
          "name": "tokenId",
          "type": "uint256"
        }
      ],
      "name": "exists",
      "outputs": [
        {
          "internalType": "bool",
          "name": "",
          "type": "bool"
        }
      ],
      "stateMutability": "view",
      "type": "function"
    },
    {
      "inputs": [
        {
          "internalType": "uint256",
          "name": "tokenId",
          "type": "uint256"
        }
      ],
      "name": "getApproved",
      "outputs": [
        {
          "internalType": "address",
          "name": "",
          "type": "address"
        }
      ],
      "stateMutability": "view",
      "type": "function"
    },
    {
      "inputs": [
        {
          "internalType": "uint256",
          "name": "index",
          "type": "uint256"
        }
      ],
      "name": "getOwnershipAt",
      "outputs": [
        {
          "components": [
            {
              "internalType": "address",
              "name": "addr",
              "type": "address"
            },
            {
              "internalType": "uint64",
              "name": "startTimestamp",
              "type": "uint64"
            },
            {
              "internalType": "bool",
              "name": "burned",
              "type": "bool"
            },
            {
              "internalType": "uint24",
              "name": "extraData",
              "type": "uint24"
            }
          ],
          "internalType": "struct IERC721AUpgradeable.TokenOwnership",
          "name": "",
          "type": "tuple"
        }
      ],
      "stateMutability": "view",
      "type": "function"
    },
    {
      "inputs": [
        {
          "internalType": "address",
          "name": "owner",
          "type": "address"
        },
        {
          "internalType": "address",
          "name": "operator",
          "type": "address"
        }
      ],
      "name": "isApprovedForAll",
      "outputs": [
        {
          "internalType": "bool",
          "name": "",
          "type": "bool"
        }
      ],
      "stateMutability": "view",
      "type": "function"
    },
    {
      "inputs": [],
      "name": "name",
      "outputs": [
        {
          "internalType": "string",
          "name": "",
          "type": "string"
        }
      ],
      "stateMutability": "view",
      "type": "function"
    },
    {
      "inputs": [
        {
          "internalType": "address",
          "name": "owner",
          "type": "address"
        }
      ],
      "name": "numberBurned",
      "outputs": [
        {
          "internalType": "uint256",
          "name": "",
          "type": "uint256"
        }
      ],
      "stateMutability": "view",
      "type": "function"
    },
    {
      "inputs": [
        {
          "internalType": "uint256",
          "name": "tokenId",
          "type": "uint256"
        }
      ],
      "name": "ownerOf",
      "outputs": [
        {
          "internalType": "address",
          "name": "",
          "type": "address"
        }
      ],
      "stateMutability": "view",
      "type": "function"
    },
    {
      "inputs": [
        {
          "internalType": "address",
          "name": "to",
          "type": "address"
        },
        {
          "internalType": "uint256",
          "name": "quantity",
          "type": "uint256"
        }
      ],
      "name": "safeMint",
      "outputs": [],
      "stateMutability": "nonpayable",
      "type": "function"
    },
    {
      "inputs": [
        {
          "internalType": "address",
          "name": "from",
          "type": "address"
        },
        {
          "internalType": "address",
          "name": "to",
          "type": "address"
        },
        {
          "internalType": "uint256",
          "name": "tokenId",
          "type": "uint256"
        }
      ],
      "name": "safeTransferFrom",
      "outputs": [],
      "stateMutability": "payable",
      "type": "function"
    },
    {
      "inputs": [
        {
          "internalType": "address",
          "name": "from",
          "type": "address"
        },
        {
          "internalType": "address",
          "name": "to",
          "type": "address"
        },
        {
          "internalType": "uint256",
          "name": "tokenId",
          "type": "uint256"
        },
        {
          "internalType": "bytes",
          "name": "_data",
          "type": "bytes"
        }
      ],
      "name": "safeTransferFrom",
      "outputs": [],
      "stateMutability": "payable",
      "type": "function"
    },
    {
      "inputs": [
        {
          "internalType": "address",
          "name": "operator",
          "type": "address"
        },
        {
          "internalType": "bool",
          "name": "approved",
          "type": "bool"
        }
      ],
      "name": "setApprovalForAll",
      "outputs": [],
      "stateMutability": "nonpayable",
      "type": "function"
    },
    {
      "inputs": [],
      "name": "startTokenId",
      "outputs": [
        {
          "internalType": "uint256",
          "name": "result",
          "type": "uint256"
        }
      ],
      "stateMutability": "view",
      "type": "function"
    },
    {
      "inputs": [
        {
          "internalType": "bytes4",
          "name": "interfaceId",
          "type": "bytes4"
        }
      ],
      "name": "supportsInterface",
      "outputs": [
        {
          "internalType": "bool",
          "name": "",
          "type": "bool"
        }
      ],
      "stateMutability": "view",
      "type": "function"
    },
    {
      "inputs": [],
      "name": "symbol",
      "outputs": [
        {
          "internalType": "string",
          "name": "",
          "type": "string"
        }
      ],
      "stateMutability": "view",
      "type": "function"
    },
    {
      "inputs": [
        {
          "internalType": "uint256",
          "name": "tokenId",
          "type": "uint256"
        }
      ],
      "name": "tokenURI",
      "outputs": [
        {
          "internalType": "string",
          "name": "",
          "type": "string"
        }
      ],
      "stateMutability": "view",
      "type": "function"
    },
    {
      "inputs": [],
      "name": "totalBurned",
      "outputs": [
        {
          "internalType": "uint256",
          "name": "",
          "type": "uint256"
        }
      ],
      "stateMutability": "view",
      "type": "function"
    },
    {
      "inputs": [],
      "name": "totalMinted",
      "outputs": [
        {
          "internalType": "uint256",
          "name": "",
          "type": "uint256"
        }
      ],
      "stateMutability": "view",
      "type": "function"
    },
    {
      "inputs": [],
      "name": "totalSupply",
      "outputs": [
        {
          "internalType": "uint256",
          "name": "result",
          "type": "uint256"
        }
      ],
      "stateMutability": "view",
      "type": "function"
    },
    {
      "inputs": [
        {
          "internalType": "address",
          "name": "from",
          "type": "address"
        },
        {
          "internalType": "address",
          "name": "to",
          "type": "address"
        },
        {
          "internalType": "uint256",
          "name": "tokenId",
          "type": "uint256"
        }
      ],
      "name": "transferFrom",
      "outputs": [],
      "stateMutability": "payable",
      "type": "function"
    }
  ],
  "bytecode": "0x608060405234801561001057600080fd5b506124ab806100206000396000f3fe6080604052600436106101355760003560e01c806370a08231116100ab578063b88d4fde1161006f578063b88d4fde14610423578063c87b56dd1461043f578063d89135cd1461047c578063e6798baa146104a7578063e985e9c5146104d2578063f25236331461050f57610135565b806370a082311461033e57806395d89b411461037b578063a1448194146103a6578063a22cb465146103cf578063a2309ff8146103f857610135565b806323b872dd116100fd57806323b872dd146102265780632478d6391461024257806342842e0e1461027f57806342966c681461029b5780634f558e79146102c45780636352211e1461030157610135565b806301ffc9a71461013a57806306fdde0314610177578063081812fc146101a2578063095ea7b3146101df57806318160ddd146101fb575b600080fd5b34801561014657600080fd5b50610161600480360381019061015c9190611c5d565b61054c565b60405161016e9190611ca5565b60405180910390f35b34801561018357600080fd5b5061018c6105de565b6040516101999190611d50565b60405180910390f35b3480156101ae57600080fd5b506101c960048036038101906101c49190611da8565b610679565b6040516101d69190611e16565b60405180910390f35b6101f960048036038101906101f49190611e5d565b6106e0565b005b34801561020757600080fd5b506102106106f0565b60405161021d9190611eac565b60405180910390f35b610240600480360381019061023b9190611ec7565b610758565b005b34801561024e57600080fd5b5061026960048036038101906102649190611f1a565b610a4f565b6040516102769190611eac565b60405180910390f35b61029960048036038101906102949190611ec7565b610a61565b005b3480156102a757600080fd5b506102c260048036038101906102bd9190611da8565b610a81565b005b3480156102d057600080fd5b506102eb60048036038101906102e69190611da8565b610a8f565b6040516102f89190611ca5565b60405180910390f35b34801561030d57600080fd5b5061032860048036038101906103239190611da8565b610aa1565b6040516103359190611e16565b60405180910390f35b34801561034a57600080fd5b5061036560048036038101906103609190611f1a565b610ab3565b6040516103729190611eac565b60405180910390f35b34801561038757600080fd5b50610390610b53565b60405161039d9190611d50565b60405180910390f35b3480156103b257600080fd5b506103cd60048036038101906103c89190611e5d565b610bee565b005b3480156103db57600080fd5b506103f660048036038101906103f19190611f73565b610bfc565b005b34801561040457600080fd5b5061040d610d10565b60405161041a9190611eac565b60405180910390f35b61043d600480360381019061043891906120e8565b610d1f565b005b34801561044b57600080fd5b5061046660048036038101906104619190611da8565b610d71565b6040516104739190611d50565b60405180910390f35b34801561048857600080fd5b50610491610dee565b60405161049e9190611eac565b60405180910390f35b3480156104b357600080fd5b506104bc610dfd565b6040516104c99190611eac565b60405180910390f35b3480156104de57600080fd5b506104f960048036038101906104f4919061216b565b610e0a565b6040516105069190611ca5565b60405180910390f35b34801561051b57600080fd5b5061053660048036038101906105319190611da8565b610ea7565b604051610543919061225f565b60405180910390f35b60006301ffc9a760e01b827bffffffffffffffffffffffffffffffffffffffffffffffffffffffff191614806105a757506380ac58cd60e01b827bffffffffffffffffffffffffffffffffffffffffffffffffffffffff1916145b806105d75750635b5e139f60e01b827bffffffffffffffffffffffffffffffffffffffffffffffffffffffff1916145b9050919050565b60606105e8610ebf565b60020180546105f6906122a9565b80601f0160208091040260200160405190810160405280929190818152602001828054610622906122a9565b801561066f5780601f106106445761010080835404028352916020019161066f565b820191906000526020600020905b81548152906001019060200180831161065257829003601f168201915b5050505050905090565b600061068482610eec565b6106995761069863cf4700e460e01b610fb3565b5b6106a1610ebf565b600601600083815260200190815260200160002060000160009054906101000a900473ffffffffffffffffffffffffffffffffffffffff169050919050565b6106ec82826001610fbd565b5050565b60006106fa6110f5565b610702610ebf565b6001015461070e610ebf565b60000154030390507fffffffffffffffffffffffffffffffffffffffffffffffffffffffffffffffff61073f611104565b146107555761074c610ebf565b60080154810190505b90565b60006107638261112c565b905073ffffffffffffffffffffffffffffffffffffffff8473ffffffffffffffffffffffffffffffffffffffff161693508373ffffffffffffffffffffffffffffffffffffffff168173ffffffffffffffffffffffffffffffffffffffff16146107d8576107d763a114810060e01b610fb3565b5b6000806107e484611260565b915091506107fa81876107f5611290565b611298565b6108255761080f8661080a611290565b610e0a565b610824576108236359c896be60e01b610fb3565b5b5b61083286868660016112dc565b801561083d57600082555b610845610ebf565b60050160008773ffffffffffffffffffffffffffffffffffffffff1673ffffffffffffffffffffffffffffffffffffffff16815260200190815260200160002060008154600190039190508190555061089c610ebf565b60050160008673ffffffffffffffffffffffffffffffffffffffff1673ffffffffffffffffffffffffffffffffffffffff168152602001908152602001600020600081546001019190508190555061091d856108f98888876112e2565b7c02000000000000000000000000000000000000000000000000000000001761130a565b610925610ebf565b60040160008681526020019081526020016000208190555060007c02000000000000000000000000000000000000000000000000000000008416036109c75760006001850190506000610976610ebf565b600401600083815260200190815260200160002054036109c557610998610ebf565b6000015481146109c457836109ab610ebf565b6004016000838152602001908152602001600020819055505b5b505b600073ffffffffffffffffffffffffffffffffffffffff8673ffffffffffffffffffffffffffffffffffffffff161690508481887fddf252ad1be2c89b69c2b068fc378daa952ba7f163c4a11628f55a4df523b3ef600080a460008103610a3957610a3863ea553b3460e01b610fb3565b5b610a468787876001611335565b50505050505050565b6000610a5a8261133b565b9050919050565b610a7c83838360405180602001604052806000815250610d1f565b505050565b610a8c81600161139b565b50565b6000610a9a82610eec565b9050919050565b6000610aac8261112c565b9050919050565b60008073ffffffffffffffffffffffffffffffffffffffff168273ffffffffffffffffffffffffffffffffffffffff1603610af957610af8638f4eb60460e01b610fb3565b5b67ffffffffffffffff610b0a610ebf565b60050160008473ffffffffffffffffffffffffffffffffffffffff1673ffffffffffffffffffffffffffffffffffffffff16815260200190815260200160002054169050919050565b6060610b5d610ebf565b6003018054610b6b906122a9565b80601f0160208091040260200160405190810160405280929190818152602001828054610b97906122a9565b8015610be45780601f10610bb957610100808354040283529160200191610be4565b820191906000526020600020905b815481529060010190602001808311610bc757829003601f168201915b5050505050905090565b610bf88282611602565b5050565b80610c05610ebf565b6007016000610c12611290565b73ffffffffffffffffffffffffffffffffffffffff1673ffffffffffffffffffffffffffffffffffffffff16815260200190815260200160002060008473ffffffffffffffffffffffffffffffffffffffff1673ffffffffffffffffffffffffffffffffffffffff16815260200190815260200160002060006101000a81548160ff0219169083151502179055508173ffffffffffffffffffffffffffffffffffffffff16610cbf611290565b73ffffffffffffffffffffffffffffffffffffffff167f17307eab39ab6107e8899845ad3d59bd9653f200f220920489ca2b5937696c3183604051610d049190611ca5565b60405180910390a35050565b6000610d1a611620565b905090565b610d2a848484610758565b60008373ffffffffffffffffffffffffffffffffffffffff163b14610d6b57610d558484848461167b565b610d6a57610d6963d1a57ed660e01b610fb3565b5b5b50505050565b6060610d7c82610eec565b610d9157610d9063a14c4b5060e01b610fb3565b5b6000610d9b6117aa565b90506000815103610dbb5760405180602001604052806000815250610de6565b80610dc5846117c1565b604051602001610dd6929190612316565b6040516020818303038152906040525b915050919050565b6000610df8611811565b905090565b60006328f7503254905090565b6000610e14610ebf565b60070160008473ffffffffffffffffffffffffffffffffffffffff1673ffffffffffffffffffffffffffffffffffffffff16815260200190815260200160002060008373ffffffffffffffffffffffffffffffffffffffff1673ffffffffffffffffffffffffffffffffffffffff16815260200190815260200160002060009054906101000a900460ff16905092915050565b610eaf611ba2565b610eb882611824565b9050919050565b6000807f2569078dfb4b0305704d3008e7403993ae9601b85f7ae5e742de3de8f8011c4090508091505090565b600081610ef76110f5565b11610fad57610f04611104565b821115610f3757610f30610f16610ebf565b600401600084815260200190815260200160002054611858565b9050610fae565b610f3f610ebf565b60000154821015610fac5760005b6000610f57610ebf565b60040160008581526020019081526020016000205491508103610f855782610f7e90612369565b9250610f4d565b60007c01000000000000000000000000000000000000000000000000000000008216149150505b5b5b919050565b8060005260046000fd5b6000610fc883610aa1565b905081801561100a57508073ffffffffffffffffffffffffffffffffffffffff16610ff1611290565b73ffffffffffffffffffffffffffffffffffffffff1614155b15611036576110208161101b611290565b610e0a565b6110355761103463cfb3b94260e01b610fb3565b5b5b8361103f610ebf565b600601600085815260200190815260200160002060000160006101000a81548173ffffffffffffffffffffffffffffffffffffffff021916908373ffffffffffffffffffffffffffffffffffffffff160217905550828473ffffffffffffffffffffffffffffffffffffffff168273ffffffffffffffffffffffffffffffffffffffff167f8c5be1e5ebec7d5bd14f71427d1e84f3dd0314c0f7b2291e5b200ac8c7c3b92560405160405180910390a450505050565b60006110ff610dfd565b905090565b60007fffffffffffffffffffffffffffffffffffffffffffffffffffffffffffffffff905090565b6000816111376110f5565b1161124a57611144610ebf565b6004016000838152602001908152602001600020549050611163611104565b8211156111885761117381611858565b61125b5761118763df2d9b4260e01b610fb3565b5b6000810361122157611198610ebf565b6000015482106111b3576111b263df2d9b4260e01b610fb3565b5b5b6111bc610ebf565b600401600083600190039350838152602001908152602001600020549050600081031561121c5760007c01000000000000000000000000000000000000000000000000000000008216031561125b5761121b63df2d9b4260e01b610fb3565b5b6111b4565b60007c01000000000000000000000000000000000000000000000000000000008216031561125b575b61125a63df2d9b4260e01b610fb3565b5b919050565b600080600061126d610ebf565b600601600085815260200190815260200160002090508092508254915050915091565b600033905090565b600073ffffffffffffffffffffffffffffffffffffffff8316925073ffffffffffffffffffffffffffffffffffffffff821691508382148383141790509392505050565b50505050565b60008060e883901c905060e86112f9868684611899565b62ffffff16901b9150509392505050565b600073ffffffffffffffffffffffffffffffffffffffff83169250814260a01b178317905092915050565b50505050565b600067ffffffffffffffff6080611350610ebf565b60050160008573ffffffffffffffffffffffffffffffffffffffff1673ffffffffffffffffffffffffffffffffffffffff16815260200190815260200160002054901c169050919050565b60006113a68361112c565b905060008190506000806113b986611260565b915091508415611401576113d581846113d0611290565b611298565b611400576113ea836113e5611290565b610e0a565b6113ff576113fe6359c896be60e01b610fb3565b5b5b5b61140f8360008860016112dc565b801561141a57600082555b600160806001901b0361142b610ebf565b60050160008573ffffffffffffffffffffffffffffffffffffffff1673ffffffffffffffffffffffffffffffffffffffff168152602001908152602001600020600082825401925050819055506114cb83611488856000886112e2565b7c02000000000000000000000000000000000000000000000000000000007c0100000000000000000000000000000000000000000000000000000000171761130a565b6114d3610ebf565b60040160008881526020019081526020016000208190555060007c02000000000000000000000000000000000000000000000000000000008516036115755760006001870190506000611524610ebf565b6004016000838152602001908152602001600020540361157357611546610ebf565b6000015481146115725784611559610ebf565b6004016000838152602001908152602001600020819055505b5b505b85600073ffffffffffffffffffffffffffffffffffffffff168473ffffffffffffffffffffffffffffffffffffffff167fddf252ad1be2c89b69c2b068fc378daa952ba7f163c4a11628f55a4df523b3ef60405160405180910390a46115df836000886001611335565b6115e7610ebf565b60010160008154809291906001019190505550505050505050565b61161c8282604051806020016040528060008152506118a2565b5050565b600061162a6110f5565b611632610ebf565b600001540390507fffffffffffffffffffffffffffffffffffffffffffffffffffffffffffffffff611662611104565b146116785761166f610ebf565b60080154810190505b90565b60008373ffffffffffffffffffffffffffffffffffffffff1663150b7a026116a1611290565b8786866040518563ffffffff1660e01b81526004016116c394939291906123e7565b6020604051808303816000875af19250505080156116ff57506040513d601f19601f820116820180604052508101906116fc9190612448565b60015b611757573d806000811461172f576040519150601f19603f3d011682016040523d82523d6000602084013e611734565b606091505b50600081510361174f5761174e63d1a57ed660e01b610fb3565b5b805181602001fd5b63150b7a0260e01b7bffffffffffffffffffffffffffffffffffffffffffffffffffffffff1916817bffffffffffffffffffffffffffffffffffffffffffffffffffffffff191614915050949350505050565b606060405180602001604052806000815250905090565b606060a060405101806040526020810391506000825281835b6001156117fc57600184039350600a81066030018453600a81049050806117da575b50828103602084039350808452505050919050565b600061181b610ebf565b60010154905090565b61182c611ba2565b611851611837610ebf565b600401600084815260200190815260200160002054611931565b9050919050565b60007c0100000000000000000000000000000000000000000000000000000000821673ffffffffffffffffffffffffffffffffffffffff8316119050919050565b60009392505050565b6118ac83836119e7565b60008373ffffffffffffffffffffffffffffffffffffffff163b1461192c5760006118d5610ebf565b600001549050600083820390505b6118f6600086838060010194508661167b565b61190b5761190a63d1a57ed660e01b610fb3565b5b8181106118e3578161191b610ebf565b600001541461192957600080fd5b50505b505050565b611939611ba2565b81816000019073ffffffffffffffffffffffffffffffffffffffff16908173ffffffffffffffffffffffffffffffffffffffff168152505060a082901c816020019067ffffffffffffffff16908167ffffffffffffffff168152505060007c01000000000000000000000000000000000000000000000000000000008316141581604001901515908115158152505060e882901c816060019062ffffff16908162ffffff1681525050919050565b60006119f1610ebf565b60000154905060008203611a1057611a0f63b562e8dd60e01b610fb3565b5b611a1d60008483856112dc565b611a3d83611a2e60008660006112e2565b611a3785611b92565b1761130a565b611a45610ebf565b600401600083815260200190815260200160002081905550600160406001901b178202611a70610ebf565b60050160008573ffffffffffffffffffffffffffffffffffffffff1673ffffffffffffffffffffffffffffffffffffffff16815260200190815260200160002060008282540192505081905550600073ffffffffffffffffffffffffffffffffffffffff8473ffffffffffffffffffffffffffffffffffffffff1616905060008103611b0757611b06632e07630060e01b610fb3565b5b600083830190506000839050611b1b611104565b600183031115611b3657611b356381647e3a60e01b610fb3565b5b5b808360007fddf252ad1be2c89b69c2b068fc378daa952ba7f163c4a11628f55a4df523b3ef600080a4818160010191508103611b375781611b76610ebf565b60000181905550505050611b8d6000848385611335565b505050565b60006001821460e11b9050919050565b6040518060800160405280600073ffffffffffffffffffffffffffffffffffffffff168152602001600067ffffffffffffffff168152602001600015158152602001600062ffffff1681525090565b6000604051905090565b600080fd5b600080fd5b60007fffffffff0000000000000000000000000000000000000000000000000000000082169050919050565b611c3a81611c05565b8114611c4557600080fd5b50565b600081359050611c5781611c31565b92915050565b600060208284031215611c7357611c72611bfb565b5b6000611c8184828501611c48565b91505092915050565b60008115159050919050565b611c9f81611c8a565b82525050565b6000602082019050611cba6000830184611c96565b92915050565b600081519050919050565b600082825260208201905092915050565b60005b83811015611cfa578082015181840152602081019050611cdf565b60008484015250505050565b6000601f19601f8301169050919050565b6000611d2282611cc0565b611d2c8185611ccb565b9350611d3c818560208601611cdc565b611d4581611d06565b840191505092915050565b60006020820190508181036000830152611d6a8184611d17565b905092915050565b6000819050919050565b611d8581611d72565b8114611d9057600080fd5b50565b600081359050611da281611d7c565b92915050565b600060208284031215611dbe57611dbd611bfb565b5b6000611dcc84828501611d93565b91505092915050565b600073ffffffffffffffffffffffffffffffffffffffff82169050919050565b6000611e0082611dd5565b9050919050565b611e1081611df5565b82525050565b6000602082019050611e2b6000830184611e07565b92915050565b611e3a81611df5565b8114611e4557600080fd5b50565b600081359050611e5781611e31565b92915050565b60008060408385031215611e7457611e73611bfb565b5b6000611e8285828601611e48565b9250506020611e9385828601611d93565b9150509250929050565b611ea681611d72565b82525050565b6000602082019050611ec16000830184611e9d565b92915050565b600080600060608486031215611ee057611edf611bfb565b5b6000611eee86828701611e48565b9350506020611eff86828701611e48565b9250506040611f1086828701611d93565b9150509250925092565b600060208284031215611f3057611f2f611bfb565b5b6000611f3e84828501611e48565b91505092915050565b611f5081611c8a565b8114611f5b57600080fd5b50565b600081359050611f6d81611f47565b92915050565b60008060408385031215611f8a57611f89611bfb565b5b6000611f9885828601611e48565b9250506020611fa985828601611f5e565b9150509250929050565b600080fd5b600080fd5b7f4e487b7100000000000000000000000000000000000000000000000000000000600052604160045260246000fd5b611ff582611d06565b810181811067ffffffffffffffff8211171561201457612013611fbd565b5b80604052505050565b6000612027611bf1565b90506120338282611fec565b919050565b600067ffffffffffffffff82111561205357612052611fbd565b5b61205c82611d06565b9050602081019050919050565b82818337600083830152505050565b600061208b61208684612038565b61201d565b9050828152602081018484840111156120a7576120a6611fb8565b5b6120b2848285612069565b509392505050565b600082601f8301126120cf576120ce611fb3565b5b81356120df848260208601612078565b91505092915050565b6000806000806080858703121561210257612101611bfb565b5b600061211087828801611e48565b945050602061212187828801611e48565b935050604061213287828801611d93565b925050606085013567ffffffffffffffff81111561215357612152611c00565b5b61215f878288016120ba565b91505092959194509250565b6000806040838503121561218257612181611bfb565b5b600061219085828601611e48565b92505060206121a185828601611e48565b9150509250929050565b6121b481611df5565b82525050565b600067ffffffffffffffff82169050919050565b6121d7816121ba565b82525050565b6121e681611c8a565b82525050565b600062ffffff82169050919050565b612204816121ec565b82525050565b60808201600082015161222060008501826121ab565b50602082015161223360208501826121ce565b50604082015161224660408501826121dd565b50606082015161225960608501826121fb565b50505050565b6000608082019050612274600083018461220a565b92915050565b7f4e487b7100000000000000000000000000000000000000000000000000000000600052602260045260246000fd5b600060028204905060018216806122c157607f821691505b6020821081036122d4576122d361227a565b5b50919050565b600081905092915050565b60006122f082611cc0565b6122fa81856122da565b935061230a818560208601611cdc565b80840191505092915050565b600061232282856122e5565b915061232e82846122e5565b91508190509392505050565b7f4e487b7100000000000000000000000000000000000000000000000000000000600052601160045260246000fd5b600061237482611d72565b9150600082036123875761238661233a565b5b600182039050919050565b600081519050919050565b600082825260208201905092915050565b60006123b982612392565b6123c3818561239d565b93506123d3818560208601611cdc565b6123dc81611d06565b840191505092915050565b60006080820190506123fc6000830187611e07565b6124096020830186611e07565b6124166040830185611e9d565b818103606083015261242881846123ae565b905095945050505050565b60008151905061244281611c31565b92915050565b60006020828403121561245e5761245d611bfb565b5b600061246c84828501612433565b9150509291505056fea26469706673582212203244b5737dd33c5cbf248ee882cd3fb74a90b680c4aaf3f01fbc9fafc9f402b364736f6c63430008180033",
  "linkReferences": {},
  "deployedLinkReferences": {}
}