{
  "_format": "hh-sol-artifact-1",
  "contractName": "ERC721ABurnableStartTokenIdMockUpgradeable",
  "sourceName": "contracts/ERC721A-Upgradeable/contracts/mocks/ERC721ABurnableStartTokenIdMockUpgradeable.sol",
  "abi": [
    {
      "inputs": [],
      "name": "ApprovalCallerNotOwnerNorApproved",
      "type": "error"
    },
    {
      "inputs": [],
      "name": "ApprovalQueryForNonexistentToken",
      "type": "error"
    },
    {
      "inputs": [],
      "name": "BalanceQueryForZeroAddress",
      "type": "error"
    },
    {
      "inputs": [],
      "name": "MintERC2309QuantityExceedsLimit",
      "type": "error"
    },
    {
      "inputs": [],
      "name": "MintToZeroAddress",
      "type": "error"
    },
    {
      "inputs": [],
      "name": "MintZeroQuantity",
      "type": "error"
    },
    {
      "inputs": [],
      "name": "NotCompatibleWithSpotMints",
      "type": "error"
    },
    {
      "inputs": [],
      "name": "OwnerQueryForNonexistentToken",
      "type": "error"
    },
    {
      "inputs": [],
      "name": "OwnershipNotInitializedForExtraData",
      "type": "error"
    },
    {
      "inputs": [],
      "name": "SequentialMintExceedsLimit",
      "type": "error"
    },
    {
      "inputs": [],
      "name": "SequentialUpToTooSmall",
      "type": "error"
    },
    {
      "inputs": [],
      "name": "SpotMintTokenIdTooSmall",
      "type": "error"
    },
    {
      "inputs": [],
      "name": "TokenAlreadyExists",
      "type": "error"
    },
    {
      "inputs": [],
      "name": "TransferCallerNotOwnerNorApproved",
      "type": "error"
    },
    {
      "inputs": [],
      "name": "TransferFromIncorrectOwner",
      "type": "error"
    },
    {
      "inputs": [],
      "name": "TransferToNonERC721ReceiverImplementer",
      "type": "error"
    },
    {
      "inputs": [],
      "name": "TransferToZeroAddress",
      "type": "error"
    },
    {
      "inputs": [],
      "name": "URIQueryForNonexistentToken",
      "type": "error"
    },
    {
      "anonymous": false,
      "inputs": [
        {
          "indexed": true,
          "internalType": "address",
          "name": "owner",
          "type": "address"
        },
        {
          "indexed": true,
          "internalType": "address",
          "name": "approved",
          "type": "address"
        },
        {
          "indexed": true,
          "internalType": "uint256",
          "name": "tokenId",
          "type": "uint256"
        }
      ],
      "name": "Approval",
      "type": "event"
    },
    {
      "anonymous": false,
      "inputs": [
        {
          "indexed": true,
          "internalType": "address",
          "name": "owner",
          "type": "address"
        },
        {
          "indexed": true,
          "internalType": "address",
          "name": "operator",
          "type": "address"
        },
        {
          "indexed": false,
          "internalType": "bool",
          "name": "approved",
          "type": "bool"
        }
      ],
      "name": "ApprovalForAll",
      "type": "event"
    },
    {
      "anonymous": false,
      "inputs": [
        {
          "indexed": true,
          "internalType": "uint256",
          "name": "fromTokenId",
          "type": "uint256"
        },
        {
          "indexed": false,
          "internalType": "uint256",
          "name": "toTokenId",
          "type": "uint256"
        },
        {
          "indexed": true,
          "internalType": "address",
          "name": "from",
          "type": "address"
        },
        {
          "indexed": true,
          "internalType": "address",
          "name": "to",
          "type": "address"
        }
      ],
      "name": "ConsecutiveTransfer",
      "type": "event"
    },
    {
      "anonymous": false,
      "inputs": [
        {
          "indexed": true,
          "internalType": "address",
          "name": "from",
          "type": "address"
        },
        {
          "indexed": true,
          "internalType": "address",
          "name": "to",
          "type": "address"
        },
        {
          "indexed": true,
          "internalType": "uint256",
          "name": "tokenId",
          "type": "uint256"
        }
      ],
      "name": "Transfer",
      "type": "event"
    },
    {
      "inputs": [
        {
          "internalType": "address",
          "name": "to",
          "type": "address"
        },
        {
          "internalType": "uint256",
          "name": "tokenId",
          "type": "uint256"
        }
      ],
      "name": "approve",
      "outputs": [],
      "stateMutability": "payable",
      "type": "function"
    },
    {
      "inputs": [
        {
          "internalType": "address",
          "name": "owner",
          "type": "address"
        }
      ],
      "name": "balanceOf",
      "outputs": [
        {
          "internalType": "uint256",
          "name": "",
          "type": "uint256"
        }
      ],
      "stateMutability": "view",
      "type": "function"
    },
    {
      "inputs": [
        {
          "internalType": "uint256",
          "name": "tokenId",
          "type": "uint256"
        }
      ],
      "name": "burn",
      "outputs": [],
      "stateMutability": "nonpayable",
      "type": "function"
    },
    {
      "inputs": [
        {
          "internalType": "uint256",
          "name": "tokenId",
          "type": "uint256"
        }
      ],
      "name": "exists",
      "outputs": [
        {
          "internalType": "bool",
          "name": "",
          "type": "bool"
        }
      ],
      "stateMutability": "view",
      "type": "function"
    },
    {
      "inputs": [
        {
          "internalType": "uint256",
          "name": "tokenId",
          "type": "uint256"
        }
      ],
      "name": "getApproved",
      "outputs": [
        {
          "internalType": "address",
          "name": "",
          "type": "address"
        }
      ],
      "stateMutability": "view",
      "type": "function"
    },
    {
      "inputs": [
        {
          "internalType": "uint256",
          "name": "index",
          "type": "uint256"
        }
      ],
      "name": "getOwnershipAt",
      "outputs": [
        {
          "components": [
            {
              "internalType": "address",
              "name": "addr",
              "type": "address"
            },
            {
              "internalType": "uint64",
              "name": "startTimestamp",
              "type": "uint64"
            },
            {
              "internalType": "bool",
              "name": "burned",
              "type": "bool"
            },
            {
              "internalType": "uint24",
              "name": "extraData",
              "type": "uint24"
            }
          ],
          "internalType": "struct IERC721AUpgradeable.TokenOwnership",
          "name": "",
          "type": "tuple"
        }
      ],
      "stateMutability": "view",
      "type": "function"
    },
    {
      "inputs": [
        {
          "internalType": "address",
          "name": "owner",
          "type": "address"
        },
        {
          "internalType": "address",
          "name": "operator",
          "type": "address"
        }
      ],
      "name": "isApprovedForAll",
      "outputs": [
        {
          "internalType": "bool",
          "name": "",
          "type": "bool"
        }
      ],
      "stateMutability": "view",
      "type": "function"
    },
    {
      "inputs": [],
      "name": "name",
      "outputs": [
        {
          "internalType": "string",
          "name": "",
          "type": "string"
        }
      ],
      "stateMutability": "view",
      "type": "function"
    },
    {
      "inputs": [
        {
          "internalType": "address",
          "name": "owner",
          "type": "address"
        }
      ],
      "name": "numberBurned",
      "outputs": [
        {
          "internalType": "uint256",
          "name": "",
          "type": "uint256"
        }
      ],
      "stateMutability": "view",
      "type": "function"
    },
    {
      "inputs": [
        {
          "internalType": "uint256",
          "name": "tokenId",
          "type": "uint256"
        }
      ],
      "name": "ownerOf",
      "outputs": [
        {
          "internalType": "address",
          "name": "",
          "type": "address"
        }
      ],
      "stateMutability": "view",
      "type": "function"
    },
    {
      "inputs": [
        {
          "internalType": "address",
          "name": "to",
          "type": "address"
        },
        {
          "internalType": "uint256",
          "name": "quantity",
          "type": "uint256"
        }
      ],
      "name": "safeMint",
      "outputs": [],
      "stateMutability": "nonpayable",
      "type": "function"
    },
    {
      "inputs": [
        {
          "internalType": "address",
          "name": "from",
          "type": "address"
        },
        {
          "internalType": "address",
          "name": "to",
          "type": "address"
        },
        {
          "internalType": "uint256",
          "name": "tokenId",
          "type": "uint256"
        }
      ],
      "name": "safeTransferFrom",
      "outputs": [],
      "stateMutability": "payable",
      "type": "function"
    },
    {
      "inputs": [
        {
          "internalType": "address",
          "name": "from",
          "type": "address"
        },
        {
          "internalType": "address",
          "name": "to",
          "type": "address"
        },
        {
          "internalType": "uint256",
          "name": "tokenId",
          "type": "uint256"
        },
        {
          "internalType": "bytes",
          "name": "_data",
          "type": "bytes"
        }
      ],
      "name": "safeTransferFrom",
      "outputs": [],
      "stateMutability": "payable",
      "type": "function"
    },
    {
      "inputs": [
        {
          "internalType": "address",
          "name": "operator",
          "type": "address"
        },
        {
          "internalType": "bool",
          "name": "approved",
          "type": "bool"
        }
      ],
      "name": "setApprovalForAll",
      "outputs": [],
      "stateMutability": "nonpayable",
      "type": "function"
    },
    {
      "inputs": [],
      "name": "startTokenId",
      "outputs": [
        {
          "internalType": "uint256",
          "name": "result",
          "type": "uint256"
        }
      ],
      "stateMutability": "view",
      "type": "function"
    },
    {
      "inputs": [
        {
          "internalType": "bytes4",
          "name": "interfaceId",
          "type": "bytes4"
        }
      ],
      "name": "supportsInterface",
      "outputs": [
        {
          "internalType": "bool",
          "name": "",
          "type": "bool"
        }
      ],
      "stateMutability": "view",
      "type": "function"
    },
    {
      "inputs": [],
      "name": "symbol",
      "outputs": [
        {
          "internalType": "string",
          "name": "",
          "type": "string"
        }
      ],
      "stateMutability": "view",
      "type": "function"
    },
    {
      "inputs": [
        {
          "internalType": "uint256",
          "name": "tokenId",
          "type": "uint256"
        }
      ],
      "name": "tokenURI",
      "outputs": [
        {
          "internalType": "string",
          "name": "",
          "type": "string"
        }
      ],
      "stateMutability": "view",
      "type": "function"
    },
    {
      "inputs": [],
      "name": "totalBurned",
      "outputs": [
        {
          "internalType": "uint256",
          "name": "",
          "type": "uint256"
        }
      ],
      "stateMutability": "view",
      "type": "function"
    },
    {
      "inputs": [],
      "name": "totalMinted",
      "outputs": [
        {
          "internalType": "uint256",
          "name": "",
          "type": "uint256"
        }
      ],
      "stateMutability": "view",
      "type": "function"
    },
    {
      "inputs": [],
      "name": "totalSupply",
      "outputs": [
        {
          "internalType": "uint256",
          "name": "result",
          "type": "uint256"
        }
      ],
      "stateMutability": "view",
      "type": "function"
    },
    {
      "inputs": [
        {
          "internalType": "address",
          "name": "from",
          "type": "address"
        },
        {
          "internalType": "address",
          "name": "to",
          "type": "address"
        },
        {
          "internalType": "uint256",
          "name": "tokenId",
          "type": "uint256"
        }
      ],
      "name": "transferFrom",
      "outputs": [],
      "stateMutability": "payable",
      "type": "function"
    }
  ],
  "bytecode": "0x608060405234801561001057600080fd5b506115b2806100206000396000f3fe6080604052600436106101355760003560e01c806370a08231116100ab578063b88d4fde1161006f578063b88d4fde14610331578063c87b56dd14610344578063d89135cd14610364578063e6798baa14610379578063e985e9c514610391578063f2523633146103b157600080fd5b806370a08231146102a757806395d89b41146102c7578063a1448194146102dc578063a22cb465146102fc578063a2309ff81461031c57600080fd5b806323b872dd116100fd57806323b872dd146102015780632478d6391461021457806342842e0e1461023457806342966c68146102475780634f558e79146102675780636352211e1461028757600080fd5b806301ffc9a71461013a57806306fdde031461016f578063081812fc14610191578063095ea7b3146101c957806318160ddd146101de575b600080fd5b34801561014657600080fd5b5061015a6101553660046111e2565b61041e565b60405190151581526020015b60405180910390f35b34801561017b57600080fd5b50610184610470565b604051610166919061124f565b34801561019d57600080fd5b506101b16101ac366004611262565b61050b565b6040516001600160a01b039091168152602001610166565b6101dc6101d7366004611292565b61054f565b005b3480156101ea57600080fd5b506101f361055f565b604051908152602001610166565b6101dc61020f3660046112bc565b6105a3565b34801561022057600080fd5b506101f361022f3660046112f8565b610756565b6101dc6102423660046112bc565b610761565b34801561025357600080fd5b506101dc610262366004611262565b610781565b34801561027357600080fd5b5061015a610282366004611262565b61078f565b34801561029357600080fd5b506101b16102a2366004611262565b61079a565b3480156102b357600080fd5b506101f36102c23660046112f8565b6107a5565b3480156102d357600080fd5b50610184610805565b3480156102e857600080fd5b506101dc6102f7366004611292565b61081d565b34801561030857600080fd5b506101dc610317366004611313565b610827565b34801561032857600080fd5b506101f36108a4565b6101dc61033f366004611365565b6108b3565b34801561035057600080fd5b5061018461035f366004611262565b6108f4565b34801561037057600080fd5b506101f361097c565b34801561038557600080fd5b506328f75032546101f3565b34801561039d57600080fd5b5061015a6103ac366004611441565b610986565b3480156103bd57600080fd5b506103d16103cc366004611262565b6109c3565b604051610166919081516001600160a01b0316815260208083015167ffffffffffffffff169082015260408083015115159082015260609182015162ffffff169181019190915260800190565b60006301ffc9a760e01b6001600160e01b03198316148061044f57506380ac58cd60e01b6001600160e01b03198316145b8061046a5750635b5e139f60e01b6001600160e01b03198316145b92915050565b606061047a6109d4565b600201805461048890611474565b80601f01602080910402602001604051908101604052809291908181526020018280546104b490611474565b80156105015780601f106104d657610100808354040283529160200191610501565b820191906000526020600020905b8154815290600101906020018083116104e457829003601f168201915b5050505050905090565b6000610516826109f8565b61052a5761052a6333d1c03960e21b610a90565b6105326109d4565b60009283526006016020525060409020546001600160a01b031690565b61055b82826001610a9a565b5050565b6000610569610b4b565b6105716109d4565b6001015461057d6109d4565b540303905060001961058d610b59565b146105a05761059a6109d4565b60080154015b90565b60006105ae82610b5f565b6001600160a01b0394851694909150811684146105d4576105d462a1148160e81b610a90565b6000806105e084610c5a565b9150915061060581876105f03390565b6001600160a01b039081169116811491141790565b610627576106138633610986565b61062757610627632ce44b5f60e11b610a90565b801561063257600082555b61063a6109d4565b6001600160a01b03871660009081526005919091016020526040902080546000190190556106666109d4565b6001600160a01b0386166000908152600591909101602052604090208054600101905561069785600160e11b610c82565b61069f6109d4565b60008681526004919091016020526040812091909155600160e11b8416900361071557600184016106ce6109d4565b600082815260049190910160205260408120549003610713576106ef6109d4565b54811461071357836106ff6109d4565b600083815260049190910160205260409020555b505b6001600160a01b03851684818860008051602061155d833981519152600080a48060000361074d5761074d633a954ecd60e21b610a90565b50505050505050565b600061046a82610c97565b61077c838383604051806020016040528060008152506108b3565b505050565b61078c816001610cdd565b50565b600061046a826109f8565b600061046a82610b5f565b60006001600160a01b0382166107c5576107c56323d3ad8160e21b610a90565b67ffffffffffffffff6107d66109d4565b6005016000846001600160a01b03166001600160a01b0316815260200190815260200160002054169050919050565b606061080f6109d4565b600301805461048890611474565b61055b8282610e3b565b806108306109d4565b336000818152600792909201602090815260408084206001600160a01b03881680865290835293819020805460ff19169515159590951790945592518415158152919290917f17307eab39ab6107e8899845ad3d59bd9653f200f220920489ca2b5937696c31910160405180910390a35050565b60006108ae610e55565b905090565b6108be8484846105a3565b6001600160a01b0383163b156108ee576108da84848484610e76565b6108ee576108ee6368d2bf6b60e11b610a90565b50505050565b60606108ff826109f8565b61091357610913630a14c4b560e41b610a90565b600061092a60408051602081019091526000815290565b9050805160000361094a5760405180602001604052806000815250610975565b8061095484610f58565b6040516020016109659291906114ae565b6040516020818303038152906040525b9392505050565b60006108ae610f9c565b60006109906109d4565b6001600160a01b039384166000908152600791909101602090815260408083209490951682529290925250205460ff1690565b6109cb6111a5565b61046a82610faf565b7f2569078dfb4b0305704d3008e7403993ae9601b85f7ae5e742de3de8f8011c4090565b600081610a03610b4b565b11610a8b57610a10610b59565b821115610a3a5761046a610a226109d4565b60008481526004919091016020526040902054610fda565b610a426109d4565b54821015610a8b5760005b610a556109d4565b600084815260049190910160205260408120549150819003610a8157610a7a836114dd565b9250610a4d565b600160e01b161590505b919050565b8060005260046000fd5b6000610aa58361079a565b9050818015610abd5750336001600160a01b03821614155b15610ae057610acc8133610986565b610ae057610ae06367d9dca160e11b610a90565b83610ae96109d4565b6000858152600691909101602052604080822080546001600160a01b0319166001600160a01b0394851617905551859287811692908516917f8c5be1e5ebec7d5bd14f71427d1e84f3dd0314c0f7b2291e5b200ac8c7c3b9259190a450505050565b60006108ae6328f750325490565b60001990565b600081610b6a610b4b565b11610c4a57610b776109d4565b600083815260049190910160205260409020549050610b94610b59565b821115610bbe57610ba481610fda565b15610bae57919050565b610bbe636f96cda160e11b610a90565b80600003610c3757610bce6109d4565b548210610be557610be5636f96cda160e11b610a90565b610bed6109d4565b600019909201600081815260049390930160205260409092205490508015610be557600160e01b8116600003610c2257919050565b610c32636f96cda160e11b610a90565b610be5565b600160e01b8116600003610c4a57919050565b610a8b636f96cda160e11b610a90565b6000806000610c676109d4565b60009485526006016020525050604090912080549092909150565b4260a01b176001600160a01b03919091161790565b600067ffffffffffffffff6080610cac6109d4565b6005016000856001600160a01b03166001600160a01b0316815260200190815260200160002054901c169050919050565b6000610ce883610b5f565b905080600080610cf786610c5a565b915091508415610d2e57610d0c8184336105f0565b610d2e57610d1a8333610986565b610d2e57610d2e632ce44b5f60e11b610a90565b8015610d3957600082555b6001600160801b03610d496109d4565b6001600160a01b0385166000908152600591909101602052604090208054919091019055610d7b83600360e01b610c82565b610d836109d4565b60008881526004919091016020526040812091909155600160e11b85169003610df95760018601610db26109d4565b600082815260049190910160205260408120549003610df757610dd36109d4565b548114610df75784610de36109d4565b600083815260049190910160205260409020555b505b60405186906000906001600160a01b0386169060008051602061155d833981519152908390a4610e276109d4565b600190810180549091019055505050505050565b61055b828260405180602001604052806000815250610ff0565b6000610e5f610b4b565b610e676109d4565b5403905060001961058d610b59565b604051630a85bd0160e11b81526000906001600160a01b0385169063150b7a0290610eab903390899088908890600401611502565b6020604051808303816000875af1925050508015610ee6575060408051601f3d908101601f19168201909252610ee39181019061153f565b60015b610f3b573d808015610f14576040519150601f19603f3d011682016040523d82523d6000602084013e610f19565b606091505b508051600003610f3357610f336368d2bf6b60e11b610a90565b805181602001fd5b6001600160e01b031916630a85bd0160e11b149050949350505050565b606060a06040510180604052602081039150506000815280825b600183039250600a81066030018353600a900480610f725750819003601f19909101908152919050565b6000610fa66109d4565b60010154905090565b610fb76111a5565b61046a610fc26109d4565b60008481526004919091016020526040902054611064565b600160e01b81166001600160a01b039091161190565b610ffa83836110a8565b6001600160a01b0383163b1561077c5760006110146109d4565b5490508281035b61102e6000868380600101945086610e76565b611042576110426368d2bf6b60e11b610a90565b81811061101b57816110526109d4565b541461105d57600080fd5b5050505050565b61106c6111a5565b6001600160a01b038216815267ffffffffffffffff60a083901c166020820152600160e01b82161515604082015260e89190911c606082015290565b60006110b26109d4565b54905060008290036110ce576110ce63b562e8dd60e01b610a90565b6110de836001841460e11b610c82565b6110e66109d4565b6000838152600491909101602052604090205568010000000000000001820261110d6109d4565b6001600160a01b038516600081815260059290920160205260408220805490930190925581900361114757611147622e076360e81b610a90565b81830182611153610b59565b60018303111561116d5761116d6340b23f1d60e11b610a90565b5b8083600060008051602061155d833981519152600080a481816001019150810361116e578161119b6109d4565b555061077c915050565b60408051608081018252600080825260208201819052918101829052606081019190915290565b6001600160e01b03198116811461078c57600080fd5b6000602082840312156111f457600080fd5b8135610975816111cc565b60005b8381101561121a578181015183820152602001611202565b50506000910152565b6000815180845261123b8160208601602086016111ff565b601f01601f19169290920160200192915050565b6020815260006109756020830184611223565b60006020828403121561127457600080fd5b5035919050565b80356001600160a01b0381168114610a8b57600080fd5b600080604083850312156112a557600080fd5b6112ae8361127b565b946020939093013593505050565b6000806000606084860312156112d157600080fd5b6112da8461127b565b92506112e86020850161127b565b9150604084013590509250925092565b60006020828403121561130a57600080fd5b6109758261127b565b6000806040838503121561132657600080fd5b61132f8361127b565b91506020830135801515811461134457600080fd5b809150509250929050565b634e487b7160e01b600052604160045260246000fd5b6000806000806080858703121561137b57600080fd5b6113848561127b565b93506113926020860161127b565b925060408501359150606085013567ffffffffffffffff808211156113b657600080fd5b818701915087601f8301126113ca57600080fd5b8135818111156113dc576113dc61134f565b604051601f8201601f19908116603f011681019083821181831017156114045761140461134f565b816040528281528a602084870101111561141d57600080fd5b82602086016020830137600060208483010152809550505050505092959194509250565b6000806040838503121561145457600080fd5b61145d8361127b565b915061146b6020840161127b565b90509250929050565b600181811c9082168061148857607f821691505b6020821081036114a857634e487b7160e01b600052602260045260246000fd5b50919050565b600083516114c08184602088016111ff565b8351908301906114d48183602088016111ff565b01949350505050565b6000816114fa57634e487b7160e01b600052601160045260246000fd5b506000190190565b6001600160a01b038581168252841660208201526040810183905260806060820181905260009061153590830184611223565b9695505050505050565b60006020828403121561155157600080fd5b8151610975816111cc56feddf252ad1be2c89b69c2b068fc378daa952ba7f163c4a11628f55a4df523b3efa2646970667358221220055444e3b97eb107856f299ed1ef98df4371bf953e6742f4c651e73db0371e1064736f6c63430008180033",
  "linkReferences": {},
  "deployedLinkReferences": {}
}