{
  "_format": "hh-sol-artifact-1",
  "contractName": "MadeForRats",
  "sourceName": "contracts/MadeForRats.sol",
  "abi": [
    {
      "inputs": [],
      "name": "AccessControlBadConfirmation",
      "type": "error"
    },
    {
      "inputs": [
        {
          "internalType": "address",
          "name": "account",
          "type": "address"
        },
        {
          "internalType": "bytes32",
          "name": "neededRole",
          "type": "bytes32"
        }
      ],
      "name": "AccessControlUnauthorizedAccount",
      "type": "error"
    },
    {
      "inputs": [
        {
          "internalType": "address",
          "name": "target",
          "type": "address"
        }
      ],
      "name": "AddressEmptyCode",
      "type": "error"
    },
    {
      "inputs": [],
      "name": "ApprovalCallerNotOwnerNorApproved",
      "type": "error"
    },
    {
      "inputs": [],
      "name": "ApprovalQueryForNonexistentToken",
      "type": "error"
    },
    {
      "inputs": [],
      "name": "BalanceQueryForZeroAddress",
      "type": "error"
    },
    {
      "inputs": [
        {
          "internalType": "address",
          "name": "implementation",
          "type": "address"
        }
      ],
      "name": "ERC1967InvalidImplementation",
      "type": "error"
    },
    {
      "inputs": [],
      "name": "ERC1967NonPayable",
      "type": "error"
    },
    {
      "inputs": [
        {
          "internalType": "uint256",
          "name": "numerator",
          "type": "uint256"
        },
        {
          "internalType": "uint256",
          "name": "denominator",
          "type": "uint256"
        }
      ],
      "name": "ERC2981InvalidDefaultRoyalty",
      "type": "error"
    },
    {
      "inputs": [
        {
          "internalType": "address",
          "name": "receiver",
          "type": "address"
        }
      ],
      "name": "ERC2981InvalidDefaultRoyaltyReceiver",
      "type": "error"
    },
    {
      "inputs": [
        {
          "internalType": "uint256",
          "name": "tokenId",
          "type": "uint256"
        },
        {
          "internalType": "uint256",
          "name": "numerator",
          "type": "uint256"
        },
        {
          "internalType": "uint256",
          "name": "denominator",
          "type": "uint256"
        }
      ],
      "name": "ERC2981InvalidTokenRoyalty",
      "type": "error"
    },
    {
      "inputs": [
        {
          "internalType": "uint256",
          "name": "tokenId",
          "type": "uint256"
        },
        {
          "internalType": "address",
          "name": "receiver",
          "type": "address"
        }
      ],
      "name": "ERC2981InvalidTokenRoyaltyReceiver",
      "type": "error"
    },
    {
      "inputs": [],
      "name": "EnforcedPause",
      "type": "error"
    },
    {
      "inputs": [],
      "name": "ExpectedPause",
      "type": "error"
    },
    {
      "inputs": [],
      "name": "FailedCall",
      "type": "error"
    },
    {
      "inputs": [],
      "name": "FallbackNotAllowed",
      "type": "error"
    },
    {
      "inputs": [
        {
          "internalType": "uint256",
          "name": "balance",
          "type": "uint256"
        },
        {
          "internalType": "uint256",
          "name": "needed",
          "type": "uint256"
        }
      ],
      "name": "InsufficientBalance",
      "type": "error"
    },
    {
      "inputs": [],
      "name": "InsufficientPayment",
      "type": "error"
    },
    {
      "inputs": [],
      "name": "InvalidInitialization",
      "type": "error"
    },
    {
      "inputs": [],
      "name": "InvalidQueryRange",
      "type": "error"
    },
    {
      "inputs": [],
      "name": "InvalidToken",
      "type": "error"
    },
    {
      "inputs": [],
      "name": "MaxSupplyReached",
      "type": "error"
    },
    {
      "inputs": [],
      "name": "MaxWalletLimit",
      "type": "error"
    },
    {
      "inputs": [],
      "name": "MetadataIsFrozen",
      "type": "error"
    },
    {
      "inputs": [],
      "name": "MintERC2309QuantityExceedsLimit",
      "type": "error"
    },
    {
      "inputs": [],
      "name": "MintToZeroAddress",
      "type": "error"
    },
    {
      "inputs": [],
      "name": "MintZeroQuantity",
      "type": "error"
    },
    {
      "inputs": [],
      "name": "NotAuthorized",
      "type": "error"
    },
    {
      "inputs": [],
      "name": "NotCompatibleWithSpotMints",
      "type": "error"
    },
    {
      "inputs": [],
      "name": "NotInitializing",
      "type": "error"
    },
    {
      "inputs": [
        {
          "internalType": "address",
          "name": "owner",
          "type": "address"
        }
      ],
      "name": "OwnableInvalidOwner",
      "type": "error"
    },
    {
      "inputs": [
        {
          "internalType": "address",
          "name": "account",
          "type": "address"
        }
      ],
      "name": "OwnableUnauthorizedAccount",
      "type": "error"
    },
    {
      "inputs": [],
      "name": "OwnerQueryForNonexistentToken",
      "type": "error"
    },
    {
      "inputs": [],
      "name": "OwnershipNotInitializedForExtraData",
      "type": "error"
    },
    {
      "inputs": [],
      "name": "ReentrancyGuardReentrantCall",
      "type": "error"
    },
    {
      "inputs": [],
      "name": "SequentialMintExceedsLimit",
      "type": "error"
    },
    {
      "inputs": [],
      "name": "SequentialUpToTooSmall",
      "type": "error"
    },
    {
      "inputs": [],
      "name": "SpotMintTokenIdTooSmall",
      "type": "error"
    },
    {
      "inputs": [],
      "name": "TokenAlreadyExists",
      "type": "error"
    },
    {
      "inputs": [],
      "name": "TransferCallerNotOwnerNorApproved",
      "type": "error"
    },
    {
      "inputs": [],
      "name": "TransferFromIncorrectOwner",
      "type": "error"
    },
    {
      "inputs": [],
      "name": "TransferToNonERC721ReceiverImplementer",
      "type": "error"
    },
    {
      "inputs": [],
      "name": "TransferToZeroAddress",
      "type": "error"
    },
    {
      "inputs": [],
      "name": "URIQueryForNonexistentToken",
      "type": "error"
    },
    {
      "inputs": [],
      "name": "UUPSUnauthorizedCallContext",
      "type": "error"
    },
    {
      "inputs": [
        {
          "internalType": "bytes32",
          "name": "slot",
          "type": "bytes32"
        }
      ],
      "name": "UUPSUnsupportedProxiableUUID",
      "type": "error"
    },
    {
      "inputs": [],
      "name": "ZeroAddress",
      "type": "error"
    },
    {
      "anonymous": false,
      "inputs": [
        {
          "indexed": true,
          "internalType": "address",
          "name": "owner",
          "type": "address"
        },
        {
          "indexed": true,
          "internalType": "address",
          "name": "approved",
          "type": "address"
        },
        {
          "indexed": true,
          "internalType": "uint256",
          "name": "tokenId",
          "type": "uint256"
        }
      ],
      "name": "Approval",
      "type": "event"
    },
    {
      "anonymous": false,
      "inputs": [
        {
          "indexed": true,
          "internalType": "address",
          "name": "owner",
          "type": "address"
        },
        {
          "indexed": true,
          "internalType": "address",
          "name": "operator",
          "type": "address"
        },
        {
          "indexed": false,
          "internalType": "bool",
          "name": "approved",
          "type": "bool"
        }
      ],
      "name": "ApprovalForAll",
      "type": "event"
    },
    {
      "anonymous": false,
      "inputs": [
        {
          "indexed": false,
          "internalType": "string",
          "name": "baseURI",
          "type": "string"
        }
      ],
      "name": "BaseURISet",
      "type": "event"
    },
    {
      "anonymous": false,
      "inputs": [
        {
          "indexed": false,
          "internalType": "string",
          "name": "newName",
          "type": "string"
        },
        {
          "indexed": false,
          "internalType": "string",
          "name": "newSymbol",
          "type": "string"
        }
      ],
      "name": "CollectionDetailsUpdated",
      "type": "event"
    },
    {
      "anonymous": false,
      "inputs": [
        {
          "indexed": true,
          "internalType": "uint256",
          "name": "fromTokenId",
          "type": "uint256"
        },
        {
          "indexed": false,
          "internalType": "uint256",
          "name": "toTokenId",
          "type": "uint256"
        },
        {
          "indexed": true,
          "internalType": "address",
          "name": "from",
          "type": "address"
        },
        {
          "indexed": true,
          "internalType": "address",
          "name": "to",
          "type": "address"
        }
      ],
      "name": "ConsecutiveTransfer",
      "type": "event"
    },
    {
      "anonymous": false,
      "inputs": [],
      "name": "CraftingInitialized",
      "type": "event"
    },
    {
      "anonymous": false,
      "inputs": [
        {
          "indexed": false,
          "internalType": "uint64",
          "name": "version",
          "type": "uint64"
        }
      ],
      "name": "Initialized",
      "type": "event"
    },
    {
      "anonymous": false,
      "inputs": [
        {
          "indexed": false,
          "internalType": "uint256",
          "name": "newLimit",
          "type": "uint256"
        }
      ],
      "name": "MaxWalletHoldingsUpdated",
      "type": "event"
    },
    {
      "anonymous": false,
      "inputs": [
        {
          "indexed": true,
          "internalType": "uint256",
          "name": "tokenId",
          "type": "uint256"
        }
      ],
      "name": "MetadataFrozen",
      "type": "event"
    },
    {
      "anonymous": false,
      "inputs": [
        {
          "indexed": true,
          "internalType": "uint256",
          "name": "tokenId",
          "type": "uint256"
        },
        {
          "indexed": false,
          "internalType": "string",
          "name": "metadataURI",
          "type": "string"
        }
      ],
      "name": "MetadataUpdated",
      "type": "event"
    },
    {
      "anonymous": false,
      "inputs": [
        {
          "indexed": false,
          "internalType": "uint256",
          "name": "newPrice",
          "type": "uint256"
        }
      ],
      "name": "MintPriceUpdated",
      "type": "event"
    },
    {
      "anonymous": false,
      "inputs": [
        {
          "indexed": true,
          "internalType": "address",
          "name": "to",
          "type": "address"
        },
        {
          "indexed": false,
          "internalType": "uint256",
          "name": "quantity",
          "type": "uint256"
        }
      ],
      "name": "Minted",
      "type": "event"
    },
    {
      "anonymous": false,
      "inputs": [
        {
          "indexed": true,
          "internalType": "address",
          "name": "previousOwner",
          "type": "address"
        },
        {
          "indexed": true,
          "internalType": "address",
          "name": "newOwner",
          "type": "address"
        }
      ],
      "name": "OwnershipTransferred",
      "type": "event"
    },
    {
      "anonymous": false,
      "inputs": [
        {
          "indexed": false,
          "internalType": "address",
          "name": "account",
          "type": "address"
        }
      ],
      "name": "Paused",
      "type": "event"
    },
    {
      "anonymous": false,
      "inputs": [
        {
          "indexed": true,
          "internalType": "address",
          "name": "sender",
          "type": "address"
        },
        {
          "indexed": false,
          "internalType": "uint256",
          "name": "amount",
          "type": "uint256"
        }
      ],
      "name": "Received",
      "type": "event"
    },
    {
      "anonymous": false,
      "inputs": [
        {
          "indexed": true,
          "internalType": "bytes32",
          "name": "role",
          "type": "bytes32"
        },
        {
          "indexed": true,
          "internalType": "bytes32",
          "name": "previousAdminRole",
          "type": "bytes32"
        },
        {
          "indexed": true,
          "internalType": "bytes32",
          "name": "newAdminRole",
          "type": "bytes32"
        }
      ],
      "name": "RoleAdminChanged",
      "type": "event"
    },
    {
      "anonymous": false,
      "inputs": [
        {
          "indexed": true,
          "internalType": "bytes32",
          "name": "role",
          "type": "bytes32"
        },
        {
          "indexed": true,
          "internalType": "address",
          "name": "account",
          "type": "address"
        },
        {
          "indexed": true,
          "internalType": "address",
          "name": "sender",
          "type": "address"
        }
      ],
      "name": "RoleGranted",
      "type": "event"
    },
    {
      "anonymous": false,
      "inputs": [
        {
          "indexed": true,
          "internalType": "bytes32",
          "name": "role",
          "type": "bytes32"
        },
        {
          "indexed": true,
          "internalType": "address",
          "name": "account",
          "type": "address"
        },
        {
          "indexed": true,
          "internalType": "address",
          "name": "sender",
          "type": "address"
        }
      ],
      "name": "RoleRevoked",
      "type": "event"
    },
    {
      "anonymous": false,
      "inputs": [
        {
          "indexed": true,
          "internalType": "uint256",
          "name": "tokenId",
          "type": "uint256"
        },
        {
          "components": [
            {
              "internalType": "string",
              "name": "code",
              "type": "string"
            },
            {
              "internalType": "string",
              "name": "artVersion",
              "type": "string"
            },
            {
              "internalType": "string",
              "name": "metadataURI",
              "type": "string"
            },
            {
              "internalType": "uint256",
              "name": "level",
              "type": "uint256"
            },
            {
              "internalType": "uint256",
              "name": "power",
              "type": "uint256"
            },
            {
              "internalType": "uint256",
              "name": "rarity",
              "type": "uint256"
            }
          ],
          "indexed": false,
          "internalType": "struct MadeForRats.Traits",
          "name": "traits",
          "type": "tuple"
        }
      ],
      "name": "TraitsUpdated",
      "type": "event"
    },
    {
      "anonymous": false,
      "inputs": [
        {
          "indexed": true,
          "internalType": "address",
          "name": "from",
          "type": "address"
        },
        {
          "indexed": true,
          "internalType": "address",
          "name": "to",
          "type": "address"
        },
        {
          "indexed": true,
          "internalType": "uint256",
          "name": "tokenId",
          "type": "uint256"
        }
      ],
      "name": "Transfer",
      "type": "event"
    },
    {
      "anonymous": false,
      "inputs": [
        {
          "indexed": false,
          "internalType": "address",
          "name": "account",
          "type": "address"
        }
      ],
      "name": "Unpaused",
      "type": "event"
    },
    {
      "anonymous": false,
      "inputs": [
        {
          "indexed": true,
          "internalType": "address",
          "name": "implementation",
          "type": "address"
        }
      ],
      "name": "Upgraded",
      "type": "event"
    },
    {
      "anonymous": false,
      "inputs": [
        {
          "indexed": true,
          "internalType": "address",
          "name": "recipient",
          "type": "address"
        },
        {
          "indexed": false,
          "internalType": "uint256",
          "name": "amount",
          "type": "uint256"
        }
      ],
      "name": "Withdraw",
      "type": "event"
    },
    {
      "stateMutability": "payable",
      "type": "fallback"
    },
    {
      "inputs": [],
      "name": "ADMIN_ROLE",
      "outputs": [
        {
          "internalType": "bytes32",
          "name": "",
          "type": "bytes32"
        }
      ],
      "stateMutability": "view",
      "type": "function"
    },
    {
      "inputs": [],
      "name": "CRAFTER_ROLE",
      "outputs": [
        {
          "internalType": "bytes32",
          "name": "",
          "type": "bytes32"
        }
      ],
      "stateMutability": "view",
      "type": "function"
    },
    {
      "inputs": [],
      "name": "DEFAULT_ADMIN_ROLE",
      "outputs": [
        {
          "internalType": "bytes32",
          "name": "",
          "type": "bytes32"
        }
      ],
      "stateMutability": "view",
      "type": "function"
    },
    {
      "inputs": [],
      "name": "MAX_SUPPLY",
      "outputs": [
        {
          "internalType": "uint256",
          "name": "",
          "type": "uint256"
        }
      ],
      "stateMutability": "view",
      "type": "function"
    },
    {
      "inputs": [],
      "name": "UPGRADE_INTERFACE_VERSION",
      "outputs": [
        {
          "internalType": "string",
          "name": "",
          "type": "string"
        }
      ],
      "stateMutability": "view",
      "type": "function"
    },
    {
      "inputs": [
        {
          "internalType": "address",
          "name": "to",
          "type": "address"
        },
        {
          "internalType": "uint256",
          "name": "quantity",
          "type": "uint256"
        }
      ],
      "name": "adminMint",
      "outputs": [],
      "stateMutability": "nonpayable",
      "type": "function"
    },
    {
      "inputs": [
        {
          "internalType": "address",
          "name": "to",
          "type": "address"
        },
        {
          "internalType": "uint256",
          "name": "tokenId",
          "type": "uint256"
        }
      ],
      "name": "approve",
      "outputs": [],
      "stateMutability": "payable",
      "type": "function"
    },
    {
      "inputs": [
        {
          "internalType": "address",
          "name": "owner",
          "type": "address"
        }
      ],
      "name": "balanceOf",
      "outputs": [
        {
          "internalType": "uint256",
          "name": "",
          "type": "uint256"
        }
      ],
      "stateMutability": "view",
      "type": "function"
    },
    {
      "inputs": [
        {
          "internalType": "uint256",
          "name": "tokenId",
          "type": "uint256"
        }
      ],
      "name": "explicitOwnershipOf",
      "outputs": [
        {
          "components": [
            {
              "internalType": "address",
              "name": "addr",
              "type": "address"
            },
            {
              "internalType": "uint64",
              "name": "startTimestamp",
              "type": "uint64"
            },
            {
              "internalType": "bool",
              "name": "burned",
              "type": "bool"
            },
            {
              "internalType": "uint24",
              "name": "extraData",
              "type": "uint24"
            }
          ],
          "internalType": "struct IERC721AUpgradeable.TokenOwnership",
          "name": "ownership",
          "type": "tuple"
        }
      ],
      "stateMutability": "view",
      "type": "function"
    },
    {
      "inputs": [
        {
          "internalType": "uint256[]",
          "name": "tokenIds",
          "type": "uint256[]"
        }
      ],
      "name": "explicitOwnershipsOf",
      "outputs": [
        {
          "components": [
            {
              "internalType": "address",
              "name": "addr",
              "type": "address"
            },
            {
              "internalType": "uint64",
              "name": "startTimestamp",
              "type": "uint64"
            },
            {
              "internalType": "bool",
              "name": "burned",
              "type": "bool"
            },
            {
              "internalType": "uint24",
              "name": "extraData",
              "type": "uint24"
            }
          ],
          "internalType": "struct IERC721AUpgradeable.TokenOwnership[]",
          "name": "",
          "type": "tuple[]"
        }
      ],
      "stateMutability": "view",
      "type": "function"
    },
    {
      "inputs": [
        {
          "internalType": "uint256",
          "name": "tokenId",
          "type": "uint256"
        }
      ],
      "name": "freezeMetadata",
      "outputs": [],
      "stateMutability": "nonpayable",
      "type": "function"
    },
    {
      "inputs": [
        {
          "internalType": "uint256",
          "name": "tokenId",
          "type": "uint256"
        }
      ],
      "name": "getApproved",
      "outputs": [
        {
          "internalType": "address",
          "name": "",
          "type": "address"
        }
      ],
      "stateMutability": "view",
      "type": "function"
    },
    {
      "inputs": [
        {
          "internalType": "bytes32",
          "name": "role",
          "type": "bytes32"
        }
      ],
      "name": "getRoleAdmin",
      "outputs": [
        {
          "internalType": "bytes32",
          "name": "",
          "type": "bytes32"
        }
      ],
      "stateMutability": "view",
      "type": "function"
    },
    {
      "inputs": [
        {
          "internalType": "uint256",
          "name": "tokenId",
          "type": "uint256"
        }
      ],
      "name": "getTraits",
      "outputs": [
        {
          "components": [
            {
              "internalType": "string",
              "name": "code",
              "type": "string"
            },
            {
              "internalType": "string",
              "name": "artVersion",
              "type": "string"
            },
            {
              "internalType": "string",
              "name": "metadataURI",
              "type": "string"
            },
            {
              "internalType": "uint256",
              "name": "level",
              "type": "uint256"
            },
            {
              "internalType": "uint256",
              "name": "power",
              "type": "uint256"
            },
            {
              "internalType": "uint256",
              "name": "rarity",
              "type": "uint256"
            }
          ],
          "internalType": "struct MadeForRats.Traits",
          "name": "",
          "type": "tuple"
        }
      ],
      "stateMutability": "view",
      "type": "function"
    },
    {
      "inputs": [
        {
          "internalType": "bytes32",
          "name": "role",
          "type": "bytes32"
        },
        {
          "internalType": "address",
          "name": "account",
          "type": "address"
        }
      ],
      "name": "grantRole",
      "outputs": [],
      "stateMutability": "nonpayable",
      "type": "function"
    },
    {
      "inputs": [
        {
          "internalType": "bytes32",
          "name": "role",
          "type": "bytes32"
        },
        {
          "internalType": "address",
          "name": "account",
          "type": "address"
        }
      ],
      "name": "hasRole",
      "outputs": [
        {
          "internalType": "bool",
          "name": "",
          "type": "bool"
        }
      ],
      "stateMutability": "view",
      "type": "function"
    },
    {
      "inputs": [
        {
          "internalType": "string",
          "name": "name_",
          "type": "string"
        },
        {
          "internalType": "string",
          "name": "symbol_",
          "type": "string"
        }
      ],
      "name": "initialize",
      "outputs": [],
      "stateMutability": "nonpayable",
      "type": "function"
    },
    {
      "inputs": [
        {
          "internalType": "address",
          "name": "owner",
          "type": "address"
        },
        {
          "internalType": "address",
          "name": "operator",
          "type": "address"
        }
      ],
      "name": "isApprovedForAll",
      "outputs": [
        {
          "internalType": "bool",
          "name": "",
          "type": "bool"
        }
      ],
      "stateMutability": "view",
      "type": "function"
    },
    {
      "inputs": [],
      "name": "maxWalletHoldings",
      "outputs": [
        {
          "internalType": "uint256",
          "name": "",
          "type": "uint256"
        }
      ],
      "stateMutability": "view",
      "type": "function"
    },
    {
      "inputs": [],
      "name": "mintPrice",
      "outputs": [
        {
          "internalType": "uint256",
          "name": "",
          "type": "uint256"
        }
      ],
      "stateMutability": "view",
      "type": "function"
    },
    {
      "inputs": [],
      "name": "name",
      "outputs": [
        {
          "internalType": "string",
          "name": "",
          "type": "string"
        }
      ],
      "stateMutability": "view",
      "type": "function"
    },
    {
      "inputs": [],
      "name": "owner",
      "outputs": [
        {
          "internalType": "address",
          "name": "",
          "type": "address"
        }
      ],
      "stateMutability": "view",
      "type": "function"
    },
    {
      "inputs": [
        {
          "internalType": "uint256",
          "name": "tokenId",
          "type": "uint256"
        }
      ],
      "name": "ownerOf",
      "outputs": [
        {
          "internalType": "address",
          "name": "",
          "type": "address"
        }
      ],
      "stateMutability": "view",
      "type": "function"
    },
    {
      "inputs": [],
      "name": "pause",
      "outputs": [],
      "stateMutability": "nonpayable",
      "type": "function"
    },
    {
      "inputs": [],
      "name": "paused",
      "outputs": [
        {
          "internalType": "bool",
          "name": "",
          "type": "bool"
        }
      ],
      "stateMutability": "view",
      "type": "function"
    },
    {
      "inputs": [],
      "name": "proxiableUUID",
      "outputs": [
        {
          "internalType": "bytes32",
          "name": "",
          "type": "bytes32"
        }
      ],
      "stateMutability": "view",
      "type": "function"
    },
    {
      "inputs": [
        {
          "internalType": "uint256",
          "name": "quantity",
          "type": "uint256"
        }
      ],
      "name": "publicMint",
      "outputs": [],
      "stateMutability": "payable",
      "type": "function"
    },
    {
      "inputs": [],
      "name": "renounceOwnership",
      "outputs": [],
      "stateMutability": "nonpayable",
      "type": "function"
    },
    {
      "inputs": [
        {
          "internalType": "bytes32",
          "name": "role",
          "type": "bytes32"
        },
        {
          "internalType": "address",
          "name": "callerConfirmation",
          "type": "address"
        }
      ],
      "name": "renounceRole",
      "outputs": [],
      "stateMutability": "nonpayable",
      "type": "function"
    },
    {
      "inputs": [
        {
          "internalType": "bytes32",
          "name": "role",
          "type": "bytes32"
        },
        {
          "internalType": "address",
          "name": "account",
          "type": "address"
        }
      ],
      "name": "revokeRole",
      "outputs": [],
      "stateMutability": "nonpayable",
      "type": "function"
    },
    {
      "inputs": [
        {
          "internalType": "uint256",
          "name": "tokenId",
          "type": "uint256"
        },
        {
          "internalType": "uint256",
          "name": "salePrice",
          "type": "uint256"
        }
      ],
      "name": "royaltyInfo",
      "outputs": [
        {
          "internalType": "address",
          "name": "receiver",
          "type": "address"
        },
        {
          "internalType": "uint256",
          "name": "amount",
          "type": "uint256"
        }
      ],
      "stateMutability": "view",
      "type": "function"
    },
    {
      "inputs": [
        {
          "internalType": "address",
          "name": "from",
          "type": "address"
        },
        {
          "internalType": "address",
          "name": "to",
          "type": "address"
        },
        {
          "internalType": "uint256",
          "name": "tokenId",
          "type": "uint256"
        }
      ],
      "name": "safeTransferFrom",
      "outputs": [],
      "stateMutability": "payable",
      "type": "function"
    },
    {
      "inputs": [
        {
          "internalType": "address",
          "name": "from",
          "type": "address"
        },
        {
          "internalType": "address",
          "name": "to",
          "type": "address"
        },
        {
          "internalType": "uint256",
          "name": "tokenId",
          "type": "uint256"
        },
        {
          "internalType": "bytes",
          "name": "_data",
          "type": "bytes"
        }
      ],
      "name": "safeTransferFrom",
      "outputs": [],
      "stateMutability": "payable",
      "type": "function"
    },
    {
      "inputs": [
        {
          "internalType": "address",
          "name": "operator",
          "type": "address"
        },
        {
          "internalType": "bool",
          "name": "approved",
          "type": "bool"
        }
      ],
      "name": "setApprovalForAll",
      "outputs": [],
      "stateMutability": "nonpayable",
      "type": "function"
    },
    {
      "inputs": [
        {
          "internalType": "string",
          "name": "baseURI",
          "type": "string"
        }
      ],
      "name": "setBaseURI",
      "outputs": [],
      "stateMutability": "nonpayable",
      "type": "function"
    },
    {
      "inputs": [
        {
          "internalType": "string",
          "name": "newName",
          "type": "string"
        },
        {
          "internalType": "string",
          "name": "newSymbol",
          "type": "string"
        }
      ],
      "name": "setCollectionDetails",
      "outputs": [],
      "stateMutability": "nonpayable",
      "type": "function"
    },
    {
      "inputs": [
        {
          "internalType": "uint256",
          "name": "newLimit",
          "type": "uint256"
        }
      ],
      "name": "setMaxWalletHoldings",
      "outputs": [],
      "stateMutability": "nonpayable",
      "type": "function"
    },
    {
      "inputs": [
        {
          "internalType": "uint256",
          "name": "newPrice",
          "type": "uint256"
        }
      ],
      "name": "setMintPrice",
      "outputs": [],
      "stateMutability": "nonpayable",
      "type": "function"
    },
    {
      "inputs": [
        {
          "internalType": "address",
          "name": "receiver",
          "type": "address"
        },
        {
          "internalType": "uint96",
          "name": "feeNumerator",
          "type": "uint96"
        }
      ],
      "name": "setRoyaltyInfo",
      "outputs": [],
      "stateMutability": "nonpayable",
      "type": "function"
    },
    {
      "inputs": [
        {
          "internalType": "bytes4",
          "name": "interfaceId",
          "type": "bytes4"
        }
      ],
      "name": "supportsInterface",
      "outputs": [
        {
          "internalType": "bool",
          "name": "",
          "type": "bool"
        }
      ],
      "stateMutability": "view",
      "type": "function"
    },
    {
      "inputs": [],
      "name": "symbol",
      "outputs": [
        {
          "internalType": "string",
          "name": "",
          "type": "string"
        }
      ],
      "stateMutability": "view",
      "type": "function"
    },
    {
      "inputs": [
        {
          "internalType": "uint256",
          "name": "tokenId",
          "type": "uint256"
        }
      ],
      "name": "tokenURI",
      "outputs": [
        {
          "internalType": "string",
          "name": "",
          "type": "string"
        }
      ],
      "stateMutability": "view",
      "type": "function"
    },
    {
      "inputs": [
        {
          "internalType": "address",
          "name": "owner",
          "type": "address"
        }
      ],
      "name": "tokensOfOwner",
      "outputs": [
        {
          "internalType": "uint256[]",
          "name": "",
          "type": "uint256[]"
        }
      ],
      "stateMutability": "view",
      "type": "function"
    },
    {
      "inputs": [
        {
          "internalType": "address",
          "name": "owner",
          "type": "address"
        },
        {
          "internalType": "uint256",
          "name": "start",
          "type": "uint256"
        },
        {
          "internalType": "uint256",
          "name": "stop",
          "type": "uint256"
        }
      ],
      "name": "tokensOfOwnerIn",
      "outputs": [
        {
          "internalType": "uint256[]",
          "name": "",
          "type": "uint256[]"
        }
      ],
      "stateMutability": "view",
      "type": "function"
    },
    {
      "inputs": [],
      "name": "totalSupply",
      "outputs": [
        {
          "internalType": "uint256",
          "name": "result",
          "type": "uint256"
        }
      ],
      "stateMutability": "view",
      "type": "function"
    },
    {
      "inputs": [
        {
          "internalType": "address",
          "name": "from",
          "type": "address"
        },
        {
          "internalType": "address",
          "name": "to",
          "type": "address"
        },
        {
          "internalType": "uint256",
          "name": "tokenId",
          "type": "uint256"
        }
      ],
      "name": "transferFrom",
      "outputs": [],
      "stateMutability": "payable",
      "type": "function"
    },
    {
      "inputs": [
        {
          "internalType": "address",
          "name": "newOwner",
          "type": "address"
        }
      ],
      "name": "transferOwnership",
      "outputs": [],
      "stateMutability": "nonpayable",
      "type": "function"
    },
    {
      "inputs": [],
      "name": "unpause",
      "outputs": [],
      "stateMutability": "nonpayable",
      "type": "function"
    },
    {
      "inputs": [
        {
          "internalType": "uint256",
          "name": "tokenId",
          "type": "uint256"
        },
        {
          "internalType": "string",
          "name": "newURI",
          "type": "string"
        }
      ],
      "name": "updateMetadata",
      "outputs": [],
      "stateMutability": "nonpayable",
      "type": "function"
    },
    {
      "inputs": [
        {
          "internalType": "uint256",
          "name": "tokenId",
          "type": "uint256"
        },
        {
          "components": [
            {
              "internalType": "string",
              "name": "code",
              "type": "string"
            },
            {
              "internalType": "string",
              "name": "artVersion",
              "type": "string"
            },
            {
              "internalType": "string",
              "name": "metadataURI",
              "type": "string"
            },
            {
              "internalType": "uint256",
              "name": "level",
              "type": "uint256"
            },
            {
              "internalType": "uint256",
              "name": "power",
              "type": "uint256"
            },
            {
              "internalType": "uint256",
              "name": "rarity",
              "type": "uint256"
            }
          ],
          "internalType": "struct MadeForRats.Traits",
          "name": "newTraits",
          "type": "tuple"
        }
      ],
      "name": "updateTraits",
      "outputs": [],
      "stateMutability": "nonpayable",
      "type": "function"
    },
    {
      "inputs": [
        {
          "internalType": "address",
          "name": "newImplementation",
          "type": "address"
        },
        {
          "internalType": "bytes",
          "name": "data",
          "type": "bytes"
        }
      ],
      "name": "upgradeToAndCall",
      "outputs": [],
      "stateMutability": "payable",
      "type": "function"
    },
    {
      "inputs": [
        {
          "internalType": "address payable",
          "name": "recipient",
          "type": "address"
        }
      ],
      "name": "withdraw",
      "outputs": [],
      "stateMutability": "nonpayable",
      "type": "function"
    },
    {
      "stateMutability": "payable",
      "type": "receive"
    }
  ],
  "bytecode": "0x60a06040523060805234801561001457600080fd5b50608051613fcc61003e600039600081816124710152818161249a01526126720152613fcc6000f3fe6080604052600436106102c35760003560e01c80636352211e11610170578063a22cb465116100cc578063c87b56dd11610085578063c87b56dd14610878578063d547741f14610898578063e1dc0761146108b8578063e58306f9146108e5578063e985e9c514610905578063f2fde38b14610925578063f4a0a52814610945576102ff565b8063a22cb465146107b1578063ad3cb1cc146107d1578063b7ea78b514610802578063b88d4fde14610818578063c1380e291461082b578063c23dc68f1461084b576102ff565b80638462151c116101295780638462151c146106e55780638da5cb5b1461071257806391d148541461072757806395d89b411461074757806399061beb1461075c57806399a2557a1461077c578063a217fddf1461079c576102ff565b80636352211e146106435780636817c76c1461066357806370a0823114610679578063715018a61461069957806375b238fc146106ae5780638456cb59146106d0576102ff565b806336568abe1161021f5780635008d928116101d85780635008d9281461056c57806351cff8d91461058c57806352d1902d146105ac57806353c8388e146105c157806355f804b3146105e15780635bbb2177146106015780635c975abb1461062e576102ff565b806336568abe146104d15780633f4ba83a146104f157806342842e0e146105065780634cd88b76146105195780634dcf6ad6146105395780634f1ef28614610559576102ff565b806323b872dd1161027c57806323b872dd146103f4578063248a9ca3146104075780632a55205a146104275780632db11544146104665780632f2ff15d1461047957806332cb6b0c14610499578063338cab93146104af576102ff565b806301ffc9a71461031857806302fa7c471461034d57806306fdde031461036f578063081812fc14610391578063095ea7b3146103be57806318160ddd146103d1576102ff565b366102ff5760405134815233907f88a5966d370b9919b20f3e2c13ff65706f196a4e32cc2c12bf57088f885258749060200160405180910390a2005b604051630deab4c360e41b815260040160405180910390fd5b34801561032457600080fd5b50610338610333366004613115565b610965565b60405190151581526020015b60405180910390f35b34801561035957600080fd5b5061036d610368366004613147565b610976565b005b34801561037b57600080fd5b506103846109c4565b60405161034491906131dc565b34801561039d57600080fd5b506103b16103ac3660046131ef565b610a56565b6040516103449190613208565b61036d6103cc36600461321c565b610a9a565b3480156103dd57600080fd5b506103e6610aaa565b604051908152602001610344565b61036d610402366004613248565b610ae7565b34801561041357600080fd5b506103e66104223660046131ef565b610cb7565b34801561043357600080fd5b50610447610442366004613289565b610cd7565b604080516001600160a01b039093168352602083019190915201610344565b61036d6104743660046131ef565b610d9e565b34801561048557600080fd5b5061036d6104943660046132ab565b610eb2565b3480156104a557600080fd5b506103e661037881565b3480156104bb57600080fd5b506103e6600080516020613f3783398151915281565b3480156104dd57600080fd5b5061036d6104ec3660046132ab565b610ed4565b3480156104fd57600080fd5b5061036d610f07565b61036d610514366004613248565b610f27565b34801561052557600080fd5b5061036d610534366004613372565b610f42565b34801561054557600080fd5b5061036d6105543660046131ef565b611225565b61036d6105673660046133d5565b6112a7565b34801561057857600080fd5b5061036d61058736600461345b565b6112c2565b34801561059857600080fd5b5061036d6105a73660046134c6565b61133a565b3480156105b857600080fd5b506103e66113e1565b3480156105cd57600080fd5b5061036d6105dc3660046134e3565b6113fe565b3480156105ed57600080fd5b5061036d6105fc36600461352e565b6114c9565b34801561060d57600080fd5b5061062161061c36600461356f565b61152d565b604051610344919061361f565b34801561063a57600080fd5b50610338611579565b34801561064f57600080fd5b506103b161065e3660046131ef565b61158e565b34801561066f57600080fd5b506103e660005481565b34801561068557600080fd5b506103e66106943660046134c6565b611599565b3480156106a557600080fd5b5061036d6115f8565b3480156106ba57600080fd5b506103e6600080516020613f7783398151915281565b3480156106dc57600080fd5b5061036d61160c565b3480156106f157600080fd5b506107056107003660046134c6565b61162c565b604051610344919061366d565b34801561071e57600080fd5b506103b161167a565b34801561073357600080fd5b506103386107423660046132ab565b6116a8565b34801561075357600080fd5b506103846116de565b34801561076857600080fd5b5061036d6107773660046131ef565b6116ed565b34801561078857600080fd5b506107056107973660046136a5565b611742565b3480156107a857600080fd5b506103e6600081565b3480156107bd57600080fd5b5061036d6107cc3660046136da565b611759565b3480156107dd57600080fd5b50610384604051806040016040528060058152602001640352e302e360dc1b81525081565b34801561080e57600080fd5b506103e660015481565b61036d61082636600461370d565b6117d6565b34801561083757600080fd5b5061036d610846366004613778565b611811565b34801561085757600080fd5b5061086b6108663660046131ef565b6118d9565b60405161034491906137ba565b34801561088457600080fd5b506103846108933660046131ef565b611930565b3480156108a457600080fd5b5061036d6108b33660046132ab565b61198a565b3480156108c457600080fd5b506108d86108d33660046131ef565b6119a6565b60405161034491906137c8565b3480156108f157600080fd5b5061036d61090036600461321c565b611bf8565b34801561091157600080fd5b5061033861092036600461384b565b611cd2565b34801561093157600080fd5b5061036d6109403660046134c6565b611d0f565b34801561095157600080fd5b5061036d6109603660046131ef565b611d4a565b600061097082611d97565b92915050565b600080516020613f7783398151915261098e81611dbc565b6001600160a01b0383166109b55760405163d92e233d60e01b815260040160405180910390fd5b6109bf8383611dc6565b505050565b6060600380546109d390613879565b80601f01602080910402602001604051908101604052809291908181526020018280546109ff90613879565b8015610a4c5780601f10610a2157610100808354040283529160200191610a4c565b820191906000526020600020905b815481529060010190602001808311610a2f57829003601f168201915b5050505050905090565b6000610a6182611e89565b610a7557610a756333d1c03960e21b611f11565b610a7d611f1b565b60009283526006016020525060409020546001600160a01b031690565b610aa682826001611f3f565b5050565b600080610ab5611f1b565b60010154610ac1611f1b565b5403039050600019610ad1611ff0565b14610ae457610ade611f1b565b60080154015b90565b6000610af282611ff6565b6001600160a01b039485169490915081168414610b1857610b1862a1148160e81b611f11565b600080610b24846120e3565b91509150610b498187610b343390565b6001600160a01b039081169116811491141790565b610b6b57610b578633611cd2565b610b6b57610b6b632ce44b5f60e11b611f11565b610b78868686600161210b565b8015610b8357600082555b610b8b611f1b565b6001600160a01b0387166000908152600591909101602052604090208054600019019055610bb7611f1b565b6001600160a01b03861660008181526005929092016020526040909120805460010190554260a01b17600160e11b17610bee611f1b565b60008681526004919091016020526040812091909155600160e11b84169003610c645760018401610c1d611f1b565b600082815260049190910160205260408120549003610c6257610c3e611f1b565b548114610c625783610c4e611f1b565b600083815260049190910160205260409020555b505b6001600160a01b0385168481887fddf252ad1be2c89b69c2b068fc378daa952ba7f163c4a11628f55a4df523b3ef600080a480600003610cae57610cae633a954ecd60e21b611f11565b50505050505050565b600080610cc2612175565b60009384526020525050604090206001015490565b60008281527fdaedc9ab023613a7caf35e703657e986ccfad7e3eb0af93a2853f8d65dd86b0160205260408120805482917fdaedc9ab023613a7caf35e703657e986ccfad7e3eb0af93a2853f8d65dd86b00916001600160a01b03811690600160a01b90046001600160601b031681610d6a57505081546001600160a01b03811690600160a01b90046001600160601b03165b6000612710610d826001600160601b0384168a6138c9565b610d8c91906138e0565b929650919450505050505b9250929050565b610da6612199565b610dae6121bf565b80600003610dcf5760405163c1ab6dc160e01b815260040160405180910390fd5b61037881610ddb610aaa565b610de59190613902565b1115610e045760405163d05cb60960e01b815260040160405180910390fd5b80600054610e1291906138c9565b341015610e325760405163cd1c886760e01b815260040160405180910390fd5b60015481610e3f33611599565b610e499190613902565b1115610e6857604051633349019160e01b815260040160405180910390fd5b610e723382612209565b60405181815233907f30385c845b448a36257a6a1716e6ad2e1bc2cbe333cde1e69fe849ad6511adfe9060200160405180910390a2610eaf612223565b50565b610ebb82610cb7565b610ec481611dbc565b610ece8383612249565b50505050565b6001600160a01b0381163314610efd5760405163334bd91960e11b815260040160405180910390fd5b6109bf82826122ea565b600080516020613f77833981519152610f1f81611dbc565b610eaf612362565b6109bf838383604051806020016040528060008152506117d6565b610f4a6123b9565b54610100900460ff16610f6957610f5f6123b9565b5460ff1615610f6d565b303b155b610fde5760405162461bcd60e51b815260206004820152603760248201527f455243373231415f5f496e697469616c697a61626c653a20636f6e7472616374604482015276081a5cc8185b1c9958591e481a5b9a5d1a585b1a5e9959604a1b60648201526084015b60405180910390fd5b6000610fe86123b9565b54610100900460ff1615905080156110345760016110046123b9565b80549115156101000261ff001990921691909117905560016110246123b9565b805460ff19169115159190911790555b600061103e6123dd565b805490915060ff600160401b82041615906001600160401b03166000811580156110655750825b90506000826001600160401b031660011480156110815750303b155b90508115801561108f575080155b156110ad5760405163f92ee8a960e01b815260040160405180910390fd5b845467ffffffffffffffff1916600117855583156110d757845460ff60401b1916600160401b1785555b6110e18888612406565b6110e961243d565b6110f161243d565b6110f9612445565b61110161243d565b61110961243d565b61111233612455565b600361111e898261397a565b50600461112b888261397a565b50611137600033612249565b50611150600080516020613f7783398151915233612249565b50611169600080516020613f3783398151915233612249565b50666a94d74f4300006000556003600155611186336101f4611dc6565b6040517fe3d77c0c81a47993ce8e388adc64fe0dc88bd28fbf57cbdf333006b59ad82a0a90600090a183156111f557845460ff60401b19168555604051600181527fc7f505b2f371ae2175ee4913f4499e1f2633a7b5936321eed1cdaeb6115181d29060200160405180910390a15b505050505080156109bf57600061120a6123b9565b80549115156101000261ff0019909216919091179055505050565b600080516020613f7783398151915261123d81611dbc565b61124682611e89565b6112635760405163c1ab6dc160e01b815260040160405180910390fd5b600082815260066020526040808220805460ff191660011790555183917f7c9bd91d0ccee585f666998e287e929bf935cedec1348f7afc4591eca690b90a91a25050565b6112af612466565b6112b88261250b565b610aa68282612523565b600080516020613f778339815191526112da81611dbc565b60036112e7858783613a33565b5060046112f5838583613a33565b507f34f654c72931b372326f31362be64bc58e08a0e8cd6b08e17ab5c260e0dceb1a8585858560405161132b9493929190613b15565b60405180910390a15050505050565b600080516020613f7783398151915261135281611dbc565b61135a6121bf565b6001600160a01b0382166113815760405163d92e233d60e01b815260040160405180910390fd5b476113956001600160a01b038416826125d7565b826001600160a01b03167f884edad9ce6fa2440d8a54cc123490eb96d2768479d49ff9c7366125a9424364826040516113d091815260200190565b60405180910390a250610aa6612223565b60006113eb612667565b50600080516020613f5783398151915290565b600080516020613f3783398151915261141681611dbc565b61141f84611e89565b61143c5760405163c1ab6dc160e01b815260040160405180910390fd5b60008481526006602052604090205460ff161561146c5760405163b087bbf360e01b815260040160405180910390fd5b6000848152600560205260409020600201611488838583613a33565b50837f459157ba24c7ab9878b165ef465fa6ae2ab42bcd8445f576be378768b0c4730984846040516114bb929190613b47565b60405180910390a250505050565b600080516020613f778339815191526114e181611dbc565b60026114ee838583613a33565b507ff9c7803e94e0d3c02900d8a90893a6d5e90dd04d32a4cfe825520f82bf9f32f68383604051611520929190613b47565b60405180910390a1505050565b60408051828152600583901b8082016020019092526060915b801561157157601f1980820191860101356000611562826118d9565b84840160200152506115469050565b509392505050565b6000806115846126b0565b5460ff1692915050565b600061097082611ff6565b60006001600160a01b0382166115b9576115b96323d3ad8160e21b611f11565b6001600160401b036115c9611f1b565b6005016000846001600160a01b03166001600160a01b0316815260200190815260200160002054169050919050565b6116006126d4565b61160a6000612706565b565b600080516020613f7783398151915261162481611dbc565b610eaf612777565b6060600019611639611ff0565b1461164e5761164e63bdba09d760e01b611f11565b6000806116596127be565b905060608183146116725761166f8584846127ce565b90505b949350505050565b7f9016d09d72d40fdae2fd8ceac6b6234c7706214fd39c1cd1e609a0528c199300546001600160a01b031690565b6000806116b3612175565b6000948552602090815260408086206001600160a01b03959095168652939052505090205460ff1690565b6060600480546109d390613879565b600080516020613f7783398151915261170581611dbc565b60018290556040518281527f5a608a926cbc5e51dd142232855af48a512e7b6c9b23bf9ba9475f58fe108b7e906020015b60405180910390a15050565b606061174f8484846127ce565b90505b9392505050565b80611762611f1b565b336000818152600792909201602090815260408084206001600160a01b03881680865290835293819020805460ff19169515159590951790945592518415158152919290917f17307eab39ab6107e8899845ad3d59bd9653f200f220920489ca2b5937696c31910160405180910390a35050565b6117e1848484610ae7565b6001600160a01b0383163b15610ece576117fd84848484612924565b610ece57610ece6368d2bf6b60e11b611f11565b600080516020613f3783398151915261182981611dbc565b61183283611e89565b61184f5760405163c1ab6dc160e01b815260040160405180910390fd5b60008381526006602052604090205460ff161561187f5760405163b087bbf360e01b815260040160405180910390fd5b600083815260056020526040902082906118998282613ba1565b905050827fcb51969318cee471d3abc5ee4d81ea83e4748e5063261189cbf68810b17066cf836040516118cc9190613d03565b60405180910390a2505050565b6118e16130d8565b6118e9611ff0565b8211156118f95761097082612a06565b6119016127be565b82101561192b575b61191282612a31565b6119225760001990910190611909565b61097082612a06565b919050565b606061193b82611e89565b6119585760405163c1ab6dc160e01b815260040160405180910390fd5b600261196383612a51565b604051602001611974929190613da5565b6040516020818303038152906040529050919050565b61199382610cb7565b61199c81611dbc565b610ece83836122ea565b6119df6040518060c001604052806060815260200160608152602001606081526020016000815260200160008152602001600081525090565b6119e882611e89565b611a055760405163c1ab6dc160e01b815260040160405180910390fd5b60008281526005602052604090819020815160c08101909252805482908290611a2d90613879565b80601f0160208091040260200160405190810160405280929190818152602001828054611a5990613879565b8015611aa65780601f10611a7b57610100808354040283529160200191611aa6565b820191906000526020600020905b815481529060010190602001808311611a8957829003601f168201915b50505050508152602001600182018054611abf90613879565b80601f0160208091040260200160405190810160405280929190818152602001828054611aeb90613879565b8015611b385780601f10611b0d57610100808354040283529160200191611b38565b820191906000526020600020905b815481529060010190602001808311611b1b57829003601f168201915b50505050508152602001600282018054611b5190613879565b80601f0160208091040260200160405190810160405280929190818152602001828054611b7d90613879565b8015611bca5780601f10611b9f57610100808354040283529160200191611bca565b820191906000526020600020905b815481529060010190602001808311611bad57829003601f168201915b5050505050815260200160038201548152602001600482015481526020016005820154815250509050919050565b600080516020613f77833981519152611c1081611dbc565b6001600160a01b038316611c375760405163d92e233d60e01b815260040160405180910390fd5b81600003611c585760405163c1ab6dc160e01b815260040160405180910390fd5b61037882611c64610aaa565b611c6e9190613902565b1115611c8d5760405163d05cb60960e01b815260040160405180910390fd5b611c978383612209565b826001600160a01b03167f30385c845b448a36257a6a1716e6ad2e1bc2cbe333cde1e69fe849ad6511adfe836040516118cc91815260200190565b6000611cdc611f1b565b6001600160a01b039384166000908152600791909101602090815260408083209490951682529290925250205460ff1690565b611d176126d4565b6001600160a01b038116611d41576000604051631e4fbdf760e01b8152600401610fd59190613208565b610eaf81612706565b600080516020613f77833981519152611d6281611dbc565b60008290556040518281527f525b762709cc2a983aec5ccdfd807a061f993c91090b5bcd7da92ca254976aaa90602001611736565b60006001600160e01b0319821663152a902d60e11b1480610970575061097082612ae3565b610eaf8133612b18565b7fdaedc9ab023613a7caf35e703657e986ccfad7e3eb0af93a2853f8d65dd86b006127106001600160601b038316811015611e2657604051636f483d0960e01b81526001600160601b038416600482015260248101829052604401610fd5565b6001600160a01b038416611e50576000604051635b6cc80560e11b8152600401610fd59190613208565b50604080518082019091526001600160a01b039093168084526001600160601b039092166020909301839052600160a01b909202179055565b6000611e93611ff0565b821115611ebd57610970611ea5611f1b565b60008481526004919091016020526040902054612b51565b611ec5611f1b565b5482101561192b5760005b611ed8611f1b565b600084815260049190910160205260408120549150819003611f0457611efd83613e3c565b9250611ed0565b600160e01b161592915050565b8060005260046000fd5b7f2569078dfb4b0305704d3008e7403993ae9601b85f7ae5e742de3de8f8011c4090565b6000611f4a8361158e565b9050818015611f625750336001600160a01b03821614155b15611f8557611f718133611cd2565b611f8557611f856367d9dca160e11b611f11565b83611f8e611f1b565b6000858152600691909101602052604080822080546001600160a01b0319166001600160a01b0394851617905551859287811692908516917f8c5be1e5ebec7d5bd14f71427d1e84f3dd0314c0f7b2291e5b200ac8c7c3b9259190a450505050565b60001990565b6000612000611f1b565b60008381526004919091016020526040902054905061201d611ff0565b8211156120475761202d81612b51565b1561203757919050565b612047636f96cda160e11b611f11565b806000036120c057612057611f1b565b54821061206e5761206e636f96cda160e11b611f11565b612076611f1b565b60001990920160008181526004939093016020526040909220549050801561206e57600160e01b81166000036120ab57919050565b6120bb636f96cda160e11b611f11565b61206e565b600160e01b81166000036120d357919050565b61192b636f96cda160e11b611f11565b60008060006120f0611f1b565b60009485526006016020525050604090912080549092909150565b6001600160a01b038316158015906121355750836001600160a01b0316836001600160a01b031614155b15612170576001548161214785611599565b6121519190613902565b111561217057604051633349019160e01b815260040160405180910390fd5b610ece565b7f02dd7bc7dec4dceedda775e58dd541e08a116c6c53815c0bd028192f7b62680090565b6121a1611579565b1561160a5760405163d93c066560e01b815260040160405180910390fd5b7f9b779b17422d0df92223018b32b4d1fa46e071723d6817e2486d003becc55f0080546001190161220357604051633ee5aeb560e01b815260040160405180910390fd5b60029055565b610aa6828260405180602001604052806000815250612b67565b60017f9b779b17422d0df92223018b32b4d1fa46e071723d6817e2486d003becc55f0055565b600080612254612175565b905061226084846116a8565b6122e0576000848152602082815260408083206001600160a01b03871684529091529020805460ff191660011790556122963390565b6001600160a01b0316836001600160a01b0316857f2f8788117e7eff1d82e926ec794901d17c78024a50270940304540a733656f0d60405160405180910390a46001915050610970565b6000915050610970565b6000806122f5612175565b905061230184846116a8565b156122e0576000848152602082815260408083206001600160a01b0387168085529252808320805460ff1916905551339287917ff6391f5c32d9c69d2a47ea670b442974b53935d1edc7fd64eb21e047a839171b9190a46001915050610970565b61236a612bdb565b60006123746126b0565b805460ff1916815590507f5db9ee0a495bf2e6ff9c91a7834c1ba4fdd244a5e8aa4e537bd38aeae4b073aa335b6040516123ae9190613208565b60405180910390a150565b7fee151c8401928dc223602bb187aff91b9a56c7cae5476ef1b3287b085a16c85f90565b6000807ff0c57e16840df040f15088dc2f81fe391c3923bec73e23a9662efc9c229c6a00610970565b61240e6123b9565b54610100900460ff166124335760405162461bcd60e51b8152600401610fd590613e53565b610aa68282612c00565b61160a612c88565b61244d612c88565b61160a612cad565b61245d612c88565b610eaf81612cb5565b306001600160a01b037f00000000000000000000000000000000000000000000000000000000000000001614806124ed57507f00000000000000000000000000000000000000000000000000000000000000006001600160a01b03166124e1600080516020613f57833981519152546001600160a01b031690565b6001600160a01b031614155b1561160a5760405163703e46dd60e11b815260040160405180910390fd5b600080516020613f77833981519152610aa681611dbc565b816001600160a01b03166352d1902d6040518163ffffffff1660e01b8152600401602060405180830381865afa92505050801561257d575060408051601f3d908101601f1916820190925261257a91810190613ea7565b60015b61259c5781604051634c9c8ce360e01b8152600401610fd59190613208565b600080516020613f5783398151915281146125cd57604051632a87526960e21b815260048101829052602401610fd5565b6109bf8383612cbd565b804710156126015760405163cf47918160e01b815247600482015260248101829052604401610fd5565b600080836001600160a01b03168360405160006040518083038185875af1925050503d806000811461264f576040519150601f19603f3d011682016040523d82523d6000602084013e612654565b606091505b509150915081610ece57610ece81612d13565b306001600160a01b037f0000000000000000000000000000000000000000000000000000000000000000161461160a5760405163703e46dd60e11b815260040160405180910390fd5b7fcd5ed15c6e187e77e9aee88184c21f4f2182ab5827cb3b7e07fbedcd63f0330090565b336126dd61167a565b6001600160a01b03161461160a573360405163118cdaa760e01b8152600401610fd59190613208565b7f9016d09d72d40fdae2fd8ceac6b6234c7706214fd39c1cd1e609a0528c19930080546001600160a01b031981166001600160a01b03848116918217845560405192169182907f8be0079c531659141344cd1fd0a4f28419497f9722a3daafe3b4186f6b6457e090600090a3505050565b61277f612199565b60006127896126b0565b805460ff1916600117815590507f62e78cea01bee320cd4e420270b5ea74000d11b0c9f74754ebdbfc544b05a2586123a13390565b60006127c8611f1b565b54919050565b60608183106127e7576127e7631960ccad60e11b611f11565b60006127f16127be565b90506000600019612800611ff0565b0361280b578161280d565b835b905080841061281a578093505b600061282587611599565b9050848610612832575060005b801561291a57808686031161284657508484035b604080516001830160051b81019182905294506000612864886118d9565b905060008160400151612875575080515b60005b600019612883611ff0565b146128b157868a0361289d57612897611ff0565b60010199505b6128a5611ff0565b8a11156128b157600091505b6128ba8a612a06565b92506040830151600081146128d257600092506128f7565b8351156128de57835192505b8b831860601b6128f7576001820191508a8260051b8a01525b5060018a01995083604052888a148061290f57508481145b156128785787525050505b5050509392505050565b604051630a85bd0160e11b81526000906001600160a01b0385169063150b7a0290612959903390899088908890600401613ec0565b6020604051808303816000875af1925050508015612994575060408051601f3d908101601f1916820190925261299191810190613efd565b60015b6129e9573d8080156129c2576040519150601f19603f3d011682016040523d82523d6000602084013e6129c7565b606091505b5080516000036129e1576129e16368d2bf6b60e11b611f11565b805181602001fd5b6001600160e01b031916630a85bd0160e11b149050949350505050565b612a0e6130d8565b610970612a19611f1b565b60008481526004919091016020526040902054612d3c565b6000612a3b611f1b565b6000928352600401602052506040902054151590565b60606000612a5e83612d7f565b60010190506000816001600160401b03811115612a7d57612a7d6132d0565b6040519080825280601f01601f191660200182016040528015612aa7576020820181803683370190505b5090508181016020015b600019016f181899199a1a9b1b9c1cb0b131b232b360811b600a86061a8153600a8504945084612ab157509392505050565b60006001600160e01b03198216637965db0b60e01b148061097057506301ffc9a760e01b6001600160e01b0319831614610970565b612b2282826116a8565b610aa65760405163e2517d3f60e01b81526001600160a01b038216600482015260248101839052604401610fd5565b600160e01b81166001600160a01b039091161190565b612b718383612e57565b6001600160a01b0383163b156109bf576000612b8b611f1b565b5490508281035b612ba56000868380600101945086612924565b612bb957612bb96368d2bf6b60e11b611f11565b818110612b925781612bc9611f1b565b5414612bd457600080fd5b5050505050565b612be3611579565b61160a57604051638dfc202b60e01b815260040160405180910390fd5b612c086123b9565b54610100900460ff16612c2d5760405162461bcd60e51b8152600401610fd590613e53565b81612c36611f1b565b60020190612c44908261397a565b5080612c4e611f1b565b60030190612c5c908261397a565b506000612c67611f1b565b556000612c72611ff0565b1015610aa657610aa663fed8210f60e01b611f11565b612c90612f7a565b61160a57604051631afcd79f60e31b815260040160405180910390fd5b612223612c88565b611d17612c88565b612cc682612f94565b6040516001600160a01b038316907fbc7cd75a20ee27fd9adebab32041f755214dbc6bffa90cc0225b39da2e5c2d3b90600090a2805115612d0b576109bf8282612ff0565b610aa6613066565b805115612d235780518082602001fd5b60405163d6bda27560e01b815260040160405180910390fd5b612d446130d8565b6001600160a01b03821681526001600160401b0360a083901c166020820152600160e01b82161515604082015260e89190911c606082015290565b60008072184f03e93ff9f4daa797ed6e38ed64bf6a1f0160401b8310612dbe5772184f03e93ff9f4daa797ed6e38ed64bf6a1f0160401b830492506040015b6d04ee2d6d415b85acef81000000008310612dea576d04ee2d6d415b85acef8100000000830492506020015b662386f26fc100008310612e0857662386f26fc10000830492506010015b6305f5e1008310612e20576305f5e100830492506008015b6127108310612e3457612710830492506004015b60648310612e46576064830492506002015b600a83106109705760010192915050565b6000612e61611f1b565b5490506000829003612e7d57612e7d63b562e8dd60e01b611f11565b612e8a600084838561210b565b6001600160a01b0383164260a01b6001841460e11b1717612ea9611f1b565b60008381526004919091016020526040902055680100000000000000018202612ed0611f1b565b6001600160a01b0385166000818152600592909201602052604082208054909301909255819003612f0a57612f0a622e076360e81b611f11565b81830182612f16611ff0565b600183031115612f3057612f306340b23f1d60e11b611f11565b5b808360007fddf252ad1be2c89b69c2b068fc378daa952ba7f163c4a11628f55a4df523b3ef600080a4818160010191508103612f315781612f70611f1b565b55506109bf915050565b6000612f846123dd565b54600160401b900460ff16919050565b806001600160a01b03163b600003612fc15780604051634c9c8ce360e01b8152600401610fd59190613208565b600080516020613f5783398151915280546001600160a01b0319166001600160a01b0392909216919091179055565b6060600080846001600160a01b03168460405161300d9190613f1a565b600060405180830381855af49150503d8060008114613048576040519150601f19603f3d011682016040523d82523d6000602084013e61304d565b606091505b509150915061305d858383613085565b95945050505050565b341561160a5760405163b398979f60e01b815260040160405180910390fd5b60608261309a5761309582612d13565b611752565b81511580156130b157506001600160a01b0384163b155b156130d15783604051639996b31560e01b8152600401610fd59190613208565b5080611752565b60408051608081018252600080825260208201819052918101829052606081019190915290565b6001600160e01b031981168114610eaf57600080fd5b60006020828403121561312757600080fd5b8135611752816130ff565b6001600160a01b0381168114610eaf57600080fd5b6000806040838503121561315a57600080fd5b823561316581613132565b915060208301356001600160601b038116811461318157600080fd5b809150509250929050565b60005b838110156131a757818101518382015260200161318f565b50506000910152565b600081518084526131c881602086016020860161318c565b601f01601f19169290920160200192915050565b60208152600061175260208301846131b0565b60006020828403121561320157600080fd5b5035919050565b6001600160a01b0391909116815260200190565b6000806040838503121561322f57600080fd5b823561323a81613132565b946020939093013593505050565b60008060006060848603121561325d57600080fd5b833561326881613132565b9250602084013561327881613132565b929592945050506040919091013590565b6000806040838503121561329c57600080fd5b50508035926020909101359150565b600080604083850312156132be57600080fd5b82359150602083013561318181613132565b634e487b7160e01b600052604160045260246000fd5b600082601f8301126132f757600080fd5b81356001600160401b0380821115613311576133116132d0565b604051601f8301601f19908116603f01168101908282118183101715613339576133396132d0565b8160405283815286602085880101111561335257600080fd5b836020870160208301376000602085830101528094505050505092915050565b6000806040838503121561338557600080fd5b82356001600160401b038082111561339c57600080fd5b6133a8868387016132e6565b935060208501359150808211156133be57600080fd5b506133cb858286016132e6565b9150509250929050565b600080604083850312156133e857600080fd5b82356133f381613132565b915060208301356001600160401b0381111561340e57600080fd5b6133cb858286016132e6565b60008083601f84011261342c57600080fd5b5081356001600160401b0381111561344357600080fd5b602083019150836020828501011115610d9757600080fd5b6000806000806040858703121561347157600080fd5b84356001600160401b038082111561348857600080fd5b6134948883890161341a565b909650945060208701359150808211156134ad57600080fd5b506134ba8782880161341a565b95989497509550505050565b6000602082840312156134d857600080fd5b813561175281613132565b6000806000604084860312156134f857600080fd5b8335925060208401356001600160401b0381111561351557600080fd5b6135218682870161341a565b9497909650939450505050565b6000806020838503121561354157600080fd5b82356001600160401b0381111561355757600080fd5b6135638582860161341a565b90969095509350505050565b6000806020838503121561358257600080fd5b82356001600160401b038082111561359957600080fd5b818501915085601f8301126135ad57600080fd5b8135818111156135bc57600080fd5b8660208260051b85010111156135d157600080fd5b60209290920196919550909350505050565b80516001600160a01b031682526020808201516001600160401b03169083015260408082015115159083015260609081015162ffffff16910152565b6020808252825182820181905260009190848201906040850190845b818110156136615761364e8385516135e3565b928401926080929092019160010161363b565b50909695505050505050565b6020808252825182820181905260009190848201906040850190845b8181101561366157835183529284019291840191600101613689565b6000806000606084860312156136ba57600080fd5b83356136c581613132565b95602085013595506040909401359392505050565b600080604083850312156136ed57600080fd5b82356136f881613132565b91506020830135801515811461318157600080fd5b6000806000806080858703121561372357600080fd5b843561372e81613132565b9350602085013561373e81613132565b92506040850135915060608501356001600160401b0381111561376057600080fd5b61376c878288016132e6565b91505092959194509250565b6000806040838503121561378b57600080fd5b8235915060208301356001600160401b038111156137a857600080fd5b830160c0818603121561318157600080fd5b6080810161097082846135e3565b602081526000825160c060208401526137e460e08401826131b0565b90506020840151601f198085840301604086015261380283836131b0565b925060408601519150808584030160608601525061382082826131b0565b91505060608401516080840152608084015160a084015260a084015160c08401528091505092915050565b6000806040838503121561385e57600080fd5b823561386981613132565b9150602083013561318181613132565b600181811c9082168061388d57607f821691505b6020821081036138ad57634e487b7160e01b600052602260045260246000fd5b50919050565b634e487b7160e01b600052601160045260246000fd5b8082028115828204841417610970576109706138b3565b6000826138fd57634e487b7160e01b600052601260045260246000fd5b500490565b80820180821115610970576109706138b3565b601f8211156109bf576000816000526020600020601f850160051c8101602086101561393e5750805b601f850160051c820191505b8181101561395d5782815560010161394a565b505050505050565b600019600383901b1c191660019190911b1790565b81516001600160401b03811115613993576139936132d0565b6139a7816139a18454613879565b84613915565b602080601f8311600181146139d657600084156139c45750858301515b6139ce8582613965565b86555061395d565b600085815260208120601f198616915b82811015613a05578886015182559484019460019091019084016139e6565b5085821015613a235787850151600019600388901b60f8161c191681555b5050505050600190811b01905550565b6001600160401b03831115613a4a57613a4a6132d0565b613a5e83613a588354613879565b83613915565b6000601f841160018114613a8c5760008515613a7a5750838201355b613a848682613965565b845550612bd4565b600083815260209020601f19861690835b82811015613abd5786850135825560209485019460019092019101613a9d565b5086821015613ada5760001960f88860031b161c19848701351681555b505060018560011b0183555050505050565b81835281816020850137506000828201602090810191909152601f909101601f19169091010190565b604081526000613b29604083018688613aec565b8281036020840152613b3c818587613aec565b979650505050505050565b60208152600061174f602083018486613aec565b6000808335601e19843603018112613b7257600080fd5b8301803591506001600160401b03821115613b8c57600080fd5b602001915036819003821315610d9757600080fd5b613bab8283613b5b565b6001600160401b03811115613bc257613bc26132d0565b613bd681613bd08554613879565b85613915565b6000601f821160018114613c045760008315613bf25750838201355b613bfc8482613965565b865550613c5e565b600085815260209020601f19841690835b82811015613c355786850135825560209485019460019092019101613c15565b5084821015613c525760001960f88660031b161c19848701351681555b505060018360011b0185555b50505050613c6f6020830183613b5b565b613c7d818360018601613a33565b5050613c8c6040830183613b5b565b613c9a818360028601613a33565b5050606082013560038201556080820135600482015560a082013560058201555050565b6000808335601e19843603018112613cd557600080fd5b83016020810192503590506001600160401b03811115613cf457600080fd5b803603821315610d9757600080fd5b602081526000613d138384613cbe565b60c06020850152613d2860e085018284613aec565b915050613d386020850185613cbe565b601f1980868503016040870152613d50848385613aec565b9350613d5f6040880188613cbe565b935091508086850301606087015250613d79838383613aec565b9250505060608401356080840152608084013560a084015260a084013560c08401528091505092915050565b6000808454613db381613879565b60018281168015613dcb5760018114613de057613e0f565b60ff1984168752821515830287019450613e0f565b8860005260208060002060005b85811015613e065781548a820152908401908201613ded565b50505082870194505b505050508351613e2381836020880161318c565b64173539b7b760d91b9101908152600501949350505050565b600081613e4b57613e4b6138b3565b506000190190565b60208082526034908201527f455243373231415f5f496e697469616c697a61626c653a20636f6e7472616374604082015273206973206e6f7420696e697469616c697a696e6760601b606082015260800190565b600060208284031215613eb957600080fd5b5051919050565b6001600160a01b0385811682528416602082015260408101839052608060608201819052600090613ef3908301846131b0565b9695505050505050565b600060208284031215613f0f57600080fd5b8151611752816130ff565b60008251613f2c81846020870161318c565b919091019291505056fe4ba68d394296e94ab6523d7aa99d008a89d73b64505b067e0770522ff96e2330360894a13ba1a3210667c828492db98dca3e2076cc3735a920a3ca505d382bbca49807205ce4d355092ef5a8a18f56e8913cf4a201fbe287825b095693c21775a26469706673582212209eaecc29a0d54079291a13ec3228d946fa8e81897c1df1fc92ce476eb5926c5564736f6c63430008180033",
  "linkReferences": {},
  "deployedLinkReferences": {}
}