{
  "_format": "hh-sol-artifact-1",
  "contractName": "SequentialUpToHelperUpgradeable",
  "sourceName": "contracts/ERC721A-Upgradeable/contracts/mocks/SequentialUpToHelperUpgradeable.sol",
  "abi": [
    {
      "inputs": [],
      "name": "sequentialUpTo",
      "outputs": [
        {
          "internalType": "uint256",
          "name": "result",
          "type": "uint256"
        }
      ],
      "stateMutability": "view",
      "type": "function"
    }
  ],
  "bytecode": "0x608060405234801561001057600080fd5b5060ba8061001f6000396000f3fe6080604052348015600f57600080fd5b506004361060285760003560e01c806369cb03e414602d575b600080fd5b60336047565b604051603e9190606b565b60405180910390f35b6000639638c59e54905090565b6000819050919050565b6065816054565b82525050565b6000602082019050607e6000830184605e565b9291505056fea2646970667358221220de83e01a7ba884a388d3bf4df55558728593d6f6ec44df1b424c6776a6e6a04164736f6c63430008180033",
  "linkReferences": {},
  "deployedLinkReferences": {}
}