{
  "_format": "hh-sol-artifact-1",
  "contractName": "SequentialUpToHelperUpgradeable",
  "sourceName": "contracts/ERC721A-Upgradeable/contracts/mocks/SequentialUpToHelperUpgradeable.sol",
  "abi": [
    {
      "inputs": [],
      "name": "sequentialUpTo",
      "outputs": [
        {
          "internalType": "uint256",
          "name": "result",
          "type": "uint256"
        }
      ],
      "stateMutability": "view",
      "type": "function"
    }
  ],
  "bytecode": "0x6080604052348015600f57600080fd5b50607b80601d6000396000f3fe6080604052348015600f57600080fd5b506004361060285760003560e01c806369cb03e414602d575b600080fd5b639638c59e5460405190815260200160405180910390f3fea264697066735822122084ea4abcda5f4e99ff8bc538f30c31d238d01a6ea3746eaf845778aed5e55af364736f6c63430008180033",
  "linkReferences": {},
  "deployedLinkReferences": {}
}