{
  "_format": "hh-sol-artifact-1",
  "contractName": "ERC4907AMockUpgradeable",
  "sourceName": "contracts/ERC721A-Upgradeable/contracts/mocks/ERC4907AMockUpgradeable.sol",
  "abi": [
    {
      "inputs": [],
      "name": "ApprovalCallerNotOwnerNorApproved",
      "type": "error"
    },
    {
      "inputs": [],
      "name": "ApprovalQueryForNonexistentToken",
      "type": "error"
    },
    {
      "inputs": [],
      "name": "BalanceQueryForZeroAddress",
      "type": "error"
    },
    {
      "inputs": [],
      "name": "MintERC2309QuantityExceedsLimit",
      "type": "error"
    },
    {
      "inputs": [],
      "name": "MintToZeroAddress",
      "type": "error"
    },
    {
      "inputs": [],
      "name": "MintZeroQuantity",
      "type": "error"
    },
    {
      "inputs": [],
      "name": "NotCompatibleWithSpotMints",
      "type": "error"
    },
    {
      "inputs": [],
      "name": "OwnerQueryForNonexistentToken",
      "type": "error"
    },
    {
      "inputs": [],
      "name": "OwnershipNotInitializedForExtraData",
      "type": "error"
    },
    {
      "inputs": [],
      "name": "SequentialMintExceedsLimit",
      "type": "error"
    },
    {
      "inputs": [],
      "name": "SequentialUpToTooSmall",
      "type": "error"
    },
    {
      "inputs": [],
      "name": "SetUserCallerNotOwnerNorApproved",
      "type": "error"
    },
    {
      "inputs": [],
      "name": "SpotMintTokenIdTooSmall",
      "type": "error"
    },
    {
      "inputs": [],
      "name": "TokenAlreadyExists",
      "type": "error"
    },
    {
      "inputs": [],
      "name": "TransferCallerNotOwnerNorApproved",
      "type": "error"
    },
    {
      "inputs": [],
      "name": "TransferFromIncorrectOwner",
      "type": "error"
    },
    {
      "inputs": [],
      "name": "TransferToNonERC721ReceiverImplementer",
      "type": "error"
    },
    {
      "inputs": [],
      "name": "TransferToZeroAddress",
      "type": "error"
    },
    {
      "inputs": [],
      "name": "URIQueryForNonexistentToken",
      "type": "error"
    },
    {
      "anonymous": false,
      "inputs": [
        {
          "indexed": true,
          "internalType": "address",
          "name": "owner",
          "type": "address"
        },
        {
          "indexed": true,
          "internalType": "address",
          "name": "approved",
          "type": "address"
        },
        {
          "indexed": true,
          "internalType": "uint256",
          "name": "tokenId",
          "type": "uint256"
        }
      ],
      "name": "Approval",
      "type": "event"
    },
    {
      "anonymous": false,
      "inputs": [
        {
          "indexed": true,
          "internalType": "address",
          "name": "owner",
          "type": "address"
        },
        {
          "indexed": true,
          "internalType": "address",
          "name": "operator",
          "type": "address"
        },
        {
          "indexed": false,
          "internalType": "bool",
          "name": "approved",
          "type": "bool"
        }
      ],
      "name": "ApprovalForAll",
      "type": "event"
    },
    {
      "anonymous": false,
      "inputs": [
        {
          "indexed": true,
          "internalType": "uint256",
          "name": "fromTokenId",
          "type": "uint256"
        },
        {
          "indexed": false,
          "internalType": "uint256",
          "name": "toTokenId",
          "type": "uint256"
        },
        {
          "indexed": true,
          "internalType": "address",
          "name": "from",
          "type": "address"
        },
        {
          "indexed": true,
          "internalType": "address",
          "name": "to",
          "type": "address"
        }
      ],
      "name": "ConsecutiveTransfer",
      "type": "event"
    },
    {
      "anonymous": false,
      "inputs": [
        {
          "indexed": true,
          "internalType": "address",
          "name": "from",
          "type": "address"
        },
        {
          "indexed": true,
          "internalType": "address",
          "name": "to",
          "type": "address"
        },
        {
          "indexed": true,
          "internalType": "uint256",
          "name": "tokenId",
          "type": "uint256"
        }
      ],
      "name": "Transfer",
      "type": "event"
    },
    {
      "anonymous": false,
      "inputs": [
        {
          "indexed": true,
          "internalType": "uint256",
          "name": "tokenId",
          "type": "uint256"
        },
        {
          "indexed": true,
          "internalType": "address",
          "name": "user",
          "type": "address"
        },
        {
          "indexed": false,
          "internalType": "uint64",
          "name": "expires",
          "type": "uint64"
        }
      ],
      "name": "UpdateUser",
      "type": "event"
    },
    {
      "inputs": [
        {
          "internalType": "address",
          "name": "to",
          "type": "address"
        },
        {
          "internalType": "uint256",
          "name": "tokenId",
          "type": "uint256"
        }
      ],
      "name": "approve",
      "outputs": [],
      "stateMutability": "payable",
      "type": "function"
    },
    {
      "inputs": [
        {
          "internalType": "address",
          "name": "owner",
          "type": "address"
        }
      ],
      "name": "balanceOf",
      "outputs": [
        {
          "internalType": "uint256",
          "name": "",
          "type": "uint256"
        }
      ],
      "stateMutability": "view",
      "type": "function"
    },
    {
      "inputs": [
        {
          "internalType": "uint256",
          "name": "tokenId",
          "type": "uint256"
        }
      ],
      "name": "explicitUserOf",
      "outputs": [
        {
          "internalType": "address",
          "name": "",
          "type": "address"
        }
      ],
      "stateMutability": "view",
      "type": "function"
    },
    {
      "inputs": [
        {
          "internalType": "uint256",
          "name": "tokenId",
          "type": "uint256"
        }
      ],
      "name": "getApproved",
      "outputs": [
        {
          "internalType": "address",
          "name": "",
          "type": "address"
        }
      ],
      "stateMutability": "view",
      "type": "function"
    },
    {
      "inputs": [
        {
          "internalType": "address",
          "name": "owner",
          "type": "address"
        },
        {
          "internalType": "address",
          "name": "operator",
          "type": "address"
        }
      ],
      "name": "isApprovedForAll",
      "outputs": [
        {
          "internalType": "bool",
          "name": "",
          "type": "bool"
        }
      ],
      "stateMutability": "view",
      "type": "function"
    },
    {
      "inputs": [
        {
          "internalType": "address",
          "name": "to",
          "type": "address"
        },
        {
          "internalType": "uint256",
          "name": "quantity",
          "type": "uint256"
        }
      ],
      "name": "mint",
      "outputs": [],
      "stateMutability": "nonpayable",
      "type": "function"
    },
    {
      "inputs": [],
      "name": "name",
      "outputs": [
        {
          "internalType": "string",
          "name": "",
          "type": "string"
        }
      ],
      "stateMutability": "view",
      "type": "function"
    },
    {
      "inputs": [
        {
          "internalType": "uint256",
          "name": "tokenId",
          "type": "uint256"
        }
      ],
      "name": "ownerOf",
      "outputs": [
        {
          "internalType": "address",
          "name": "",
          "type": "address"
        }
      ],
      "stateMutability": "view",
      "type": "function"
    },
    {
      "inputs": [
        {
          "internalType": "address",
          "name": "from",
          "type": "address"
        },
        {
          "internalType": "address",
          "name": "to",
          "type": "address"
        },
        {
          "internalType": "uint256",
          "name": "tokenId",
          "type": "uint256"
        }
      ],
      "name": "safeTransferFrom",
      "outputs": [],
      "stateMutability": "payable",
      "type": "function"
    },
    {
      "inputs": [
        {
          "internalType": "address",
          "name": "from",
          "type": "address"
        },
        {
          "internalType": "address",
          "name": "to",
          "type": "address"
        },
        {
          "internalType": "uint256",
          "name": "tokenId",
          "type": "uint256"
        },
        {
          "internalType": "bytes",
          "name": "_data",
          "type": "bytes"
        }
      ],
      "name": "safeTransferFrom",
      "outputs": [],
      "stateMutability": "payable",
      "type": "function"
    },
    {
      "inputs": [
        {
          "internalType": "address",
          "name": "operator",
          "type": "address"
        },
        {
          "internalType": "bool",
          "name": "approved",
          "type": "bool"
        }
      ],
      "name": "setApprovalForAll",
      "outputs": [],
      "stateMutability": "nonpayable",
      "type": "function"
    },
    {
      "inputs": [
        {
          "internalType": "uint256",
          "name": "tokenId",
          "type": "uint256"
        },
        {
          "internalType": "address",
          "name": "user",
          "type": "address"
        },
        {
          "internalType": "uint64",
          "name": "expires",
          "type": "uint64"
        }
      ],
      "name": "setUser",
      "outputs": [],
      "stateMutability": "nonpayable",
      "type": "function"
    },
    {
      "inputs": [
        {
          "internalType": "bytes4",
          "name": "interfaceId",
          "type": "bytes4"
        }
      ],
      "name": "supportsInterface",
      "outputs": [
        {
          "internalType": "bool",
          "name": "",
          "type": "bool"
        }
      ],
      "stateMutability": "view",
      "type": "function"
    },
    {
      "inputs": [],
      "name": "symbol",
      "outputs": [
        {
          "internalType": "string",
          "name": "",
          "type": "string"
        }
      ],
      "stateMutability": "view",
      "type": "function"
    },
    {
      "inputs": [
        {
          "internalType": "uint256",
          "name": "tokenId",
          "type": "uint256"
        }
      ],
      "name": "tokenURI",
      "outputs": [
        {
          "internalType": "string",
          "name": "",
          "type": "string"
        }
      ],
      "stateMutability": "view",
      "type": "function"
    },
    {
      "inputs": [],
      "name": "totalSupply",
      "outputs": [
        {
          "internalType": "uint256",
          "name": "result",
          "type": "uint256"
        }
      ],
      "stateMutability": "view",
      "type": "function"
    },
    {
      "inputs": [
        {
          "internalType": "address",
          "name": "from",
          "type": "address"
        },
        {
          "internalType": "address",
          "name": "to",
          "type": "address"
        },
        {
          "internalType": "uint256",
          "name": "tokenId",
          "type": "uint256"
        }
      ],
      "name": "transferFrom",
      "outputs": [],
      "stateMutability": "payable",
      "type": "function"
    },
    {
      "inputs": [
        {
          "internalType": "uint256",
          "name": "tokenId",
          "type": "uint256"
        }
      ],
      "name": "userExpires",
      "outputs": [
        {
          "internalType": "uint256",
          "name": "",
          "type": "uint256"
        }
      ],
      "stateMutability": "view",
      "type": "function"
    },
    {
      "inputs": [
        {
          "internalType": "uint256",
          "name": "tokenId",
          "type": "uint256"
        }
      ],
      "name": "userOf",
      "outputs": [
        {
          "internalType": "address",
          "name": "",
          "type": "address"
        }
      ],
      "stateMutability": "view",
      "type": "function"
    }
  ],
  "bytecode": "0x608060405234801561001057600080fd5b50611356806100206000396000f3fe6080604052600436106101045760003560e01c806370a08231116100a0578063c2f1f14a11610064578063c2f1f14a146102be578063c87b56dd146102de578063e030565e146102fe578063e985e9c51461031e578063ed1959681461033e57600080fd5b806370a08231146102365780638fc88c481461025657806395d89b4114610276578063a22cb4651461028b578063b88d4fde146102ab57600080fd5b806301ffc9a71461010957806306fdde031461013e578063081812fc14610160578063095ea7b31461019857806318160ddd146101ad57806323b872dd146101d057806340c10f19146101e357806342842e0e146102035780636352211e14610216575b600080fd5b34801561011557600080fd5b50610129610124366004610f59565b61035e565b60405190151581526020015b60405180910390f35b34801561014a57600080fd5b5061015361036f565b6040516101359190610fc6565b34801561016c57600080fd5b5061018061017b366004610fd9565b61040a565b6040516001600160a01b039091168152602001610135565b6101ab6101a6366004611009565b61044e565b005b3480156101b957600080fd5b506101c261045e565b604051908152602001610135565b6101ab6101de366004611033565b61049b565b3480156101ef57600080fd5b506101ab6101fe366004611009565b61065e565b6101ab610211366004611033565b610668565b34801561022257600080fd5b50610180610231366004610fd9565b610688565b34801561024257600080fd5b506101c261025136600461106f565b610693565b34801561026257600080fd5b506101c2610271366004610fd9565b6106f3565b34801561028257600080fd5b50610153610715565b34801561029757600080fd5b506101ab6102a636600461108a565b61072d565b6101ab6102b93660046110dc565b6107aa565b3480156102ca57600080fd5b506101806102d9366004610fd9565b6107eb565b3480156102ea57600080fd5b506101536102f9366004610fd9565b61080f565b34801561030a57600080fd5b506101ab6103193660046111b8565b610897565b34801561032a57600080fd5b50610129610339366004611205565b61096d565b34801561034a57600080fd5b50610180610359366004610fd9565b6109aa565b6000610369826109b5565b92915050565b60606103796109dd565b600201805461038790611238565b80601f01602080910402602001604051908101604052809291908181526020018280546103b390611238565b80156104005780601f106103d557610100808354040283529160200191610400565b820191906000526020600020905b8154815290600101906020018083116103e357829003601f168201915b5050505050905090565b600061041582610a01565b610429576104296333d1c03960e21b610a8b565b6104316109dd565b60009283526006016020525060409020546001600160a01b031690565b61045a82826001610a95565b5050565b6000806104696109dd565b600101546104756109dd565b5403039050600019610485610b46565b14610498576104926109dd565b60080154015b90565b60006104a682610b4c565b6001600160a01b0394851694909150811684146104cc576104cc62a1148160e81b610a8b565b6000806104d884610c39565b915091506104fd81876104e83390565b6001600160a01b039081169116811491141790565b61051f5761050b863361096d565b61051f5761051f632ce44b5f60e11b610a8b565b801561052a57600082555b6105326109dd565b6001600160a01b038716600090815260059190910160205260409020805460001901905561055e6109dd565b6001600160a01b03861660008181526005929092016020526040909120805460010190554260a01b17600160e11b176105956109dd565b60008681526004919091016020526040812091909155600160e11b8416900361060b57600184016105c46109dd565b600082815260049190910160205260408120549003610609576105e56109dd565b54811461060957836105f56109dd565b600083815260049190910160205260409020555b505b6001600160a01b0385168481887fddf252ad1be2c89b69c2b068fc378daa952ba7f163c4a11628f55a4df523b3ef600080a48060000361065557610655633a954ecd60e21b610a8b565b50505050505050565b61045a8282610c61565b610683838383604051806020016040528060008152506107aa565b505050565b600061036982610b4c565b60006001600160a01b0382166106b3576106b36323d3ad8160e21b610a8b565b67ffffffffffffffff6106c46109dd565b6005016000846001600160a01b03166001600160a01b0316815260200190815260200160002054169050919050565b600060a06106ff610d77565b600093845260205260409092205490911c919050565b606061071f6109dd565b600301805461038790611238565b806107366109dd565b336000818152600792909201602090815260408084206001600160a01b03881680865290835293819020805460ff19169515159590951790945592518415158152919290917f17307eab39ab6107e8899845ad3d59bd9653f200f220920489ca2b5937696c31910160405180910390a35050565b6107b584848461049b565b6001600160a01b0383163b156107e5576107d184848484610d9b565b6107e5576107e56368d2bf6b60e11b610a8b565b50505050565b6000806107f6610d77565b6000938452602052505060409020544260a01b81110290565b606061081a82610a01565b61082e5761082e630a14c4b560e41b610a8b565b600061084560408051602081019091526000815290565b905080516000036108655760405180602001604052806000815250610890565b8061086f84610e7d565b604051602001610880929190611272565b6040516020818303038152906040525b9392505050565b60006108a284610688565b9050336001600160a01b038216146108ea576108be813361096d565b6108ea57336108cc8561040a565b6001600160a01b0316146108ea576108ea6309e3bb1d60e31b610a8b565b826001600160a01b031660a08367ffffffffffffffff16901b1761090c610d77565b6000868152602091825260409081902092909255905167ffffffffffffffff841681526001600160a01b0385169186917f4e06b4e7000e659094299b3533b47b6aa8ad048e95e872d23d1f4ee55af89cfe910160405180910390a350505050565b60006109776109dd565b6001600160a01b039384166000908152600791909101602090815260408083209490951682529290925250205460ff1690565b600061036982610ec1565b60006109c082610edc565b806103695750506001600160e01b031916632b424ad760e21b1490565b7f2569078dfb4b0305704d3008e7403993ae9601b85f7ae5e742de3de8f8011c4090565b6000610a0b610b46565b821115610a3557610369610a1d6109dd565b60008481526004919091016020526040902054610f2a565b610a3d6109dd565b54821015610a865760005b610a506109dd565b600084815260049190910160205260408120549150819003610a7c57610a75836112a1565b9250610a48565b600160e01b161590505b919050565b8060005260046000fd5b6000610aa083610688565b9050818015610ab85750336001600160a01b03821614155b15610adb57610ac7813361096d565b610adb57610adb6367d9dca160e11b610a8b565b83610ae46109dd565b6000858152600691909101602052604080822080546001600160a01b0319166001600160a01b0394851617905551859287811692908516917f8c5be1e5ebec7d5bd14f71427d1e84f3dd0314c0f7b2291e5b200ac8c7c3b9259190a450505050565b60001990565b6000610b566109dd565b600083815260049190910160205260409020549050610b73610b46565b821115610b9d57610b8381610f2a565b15610b8d57919050565b610b9d636f96cda160e11b610a8b565b80600003610c1657610bad6109dd565b548210610bc457610bc4636f96cda160e11b610a8b565b610bcc6109dd565b600019909201600081815260049390930160205260409092205490508015610bc457600160e01b8116600003610c0157919050565b610c11636f96cda160e11b610a8b565b610bc4565b600160e01b8116600003610c2957919050565b610a86636f96cda160e11b610a8b565b6000806000610c466109dd565b60009485526006016020525050604090912080549092909150565b6000610c6b6109dd565b5490506000829003610c8757610c8763b562e8dd60e01b610a8b565b6001600160a01b0383164260a01b6001841460e11b1717610ca66109dd565b60008381526004919091016020526040902055680100000000000000018202610ccd6109dd565b6001600160a01b0385166000818152600592909201602052604082208054909301909255819003610d0757610d07622e076360e81b610a8b565b81830182610d13610b46565b600183031115610d2d57610d2d6340b23f1d60e11b610a8b565b5b808360007fddf252ad1be2c89b69c2b068fc378daa952ba7f163c4a11628f55a4df523b3ef600080a4818160010191508103610d2e5781610d6d6109dd565b5550610683915050565b7f3afe07c861b9a7bc7a9e79bc19e0c388d1919cadc55b9bca778f1b978d30832690565b604051630a85bd0160e11b81526000906001600160a01b0385169063150b7a0290610dd09033908990889088906004016112c6565b6020604051808303816000875af1925050508015610e0b575060408051601f3d908101601f19168201909252610e0891810190611303565b60015b610e60573d808015610e39576040519150601f19603f3d011682016040523d82523d6000602084013e610e3e565b606091505b508051600003610e5857610e586368d2bf6b60e11b610a8b565b805181602001fd5b6001600160e01b031916630a85bd0160e11b149050949350505050565b606060a06040510180604052602081039150506000815280825b600183039250600a81066030018353600a900480610e975750819003601f19909101908152919050565b6000610ecb610d77565b600092835260205250604090205490565b60006301ffc9a760e01b6001600160e01b031983161480610f0d57506380ac58cd60e01b6001600160e01b03198316145b806103695750506001600160e01b031916635b5e139f60e01b1490565b600160e01b81166001600160a01b039091161190565b6001600160e01b031981168114610f5657600080fd5b50565b600060208284031215610f6b57600080fd5b813561089081610f40565b60005b83811015610f91578181015183820152602001610f79565b50506000910152565b60008151808452610fb2816020860160208601610f76565b601f01601f19169290920160200192915050565b6020815260006108906020830184610f9a565b600060208284031215610feb57600080fd5b5035919050565b80356001600160a01b0381168114610a8657600080fd5b6000806040838503121561101c57600080fd5b61102583610ff2565b946020939093013593505050565b60008060006060848603121561104857600080fd5b61105184610ff2565b925061105f60208501610ff2565b9150604084013590509250925092565b60006020828403121561108157600080fd5b61089082610ff2565b6000806040838503121561109d57600080fd5b6110a683610ff2565b9150602083013580151581146110bb57600080fd5b809150509250929050565b634e487b7160e01b600052604160045260246000fd5b600080600080608085870312156110f257600080fd5b6110fb85610ff2565b935061110960208601610ff2565b925060408501359150606085013567ffffffffffffffff8082111561112d57600080fd5b818701915087601f83011261114157600080fd5b813581811115611153576111536110c6565b604051601f8201601f19908116603f0116810190838211818310171561117b5761117b6110c6565b816040528281528a602084870101111561119457600080fd5b82602086016020830137600060208483010152809550505050505092959194509250565b6000806000606084860312156111cd57600080fd5b833592506111dd60208501610ff2565b9150604084013567ffffffffffffffff811681146111fa57600080fd5b809150509250925092565b6000806040838503121561121857600080fd5b61122183610ff2565b915061122f60208401610ff2565b90509250929050565b600181811c9082168061124c57607f821691505b60208210810361126c57634e487b7160e01b600052602260045260246000fd5b50919050565b60008351611284818460208801610f76565b835190830190611298818360208801610f76565b01949350505050565b6000816112be57634e487b7160e01b600052601160045260246000fd5b506000190190565b6001600160a01b03858116825284166020820152604081018390526080606082018190526000906112f990830184610f9a565b9695505050505050565b60006020828403121561131557600080fd5b815161089081610f4056fea264697066735822122024622c1440eca614b21050df9075a62c29f9487af7b1a21234c4adafc9f339e664736f6c63430008180033",
  "linkReferences": {},
  "deployedLinkReferences": {}
}