{
  "_format": "hh-sol-artifact-1",
  "contractName": "ERC4907AMockUpgradeable",
  "sourceName": "contracts/ERC721A-Upgradeable/contracts/mocks/ERC4907AMockUpgradeable.sol",
  "abi": [
    {
      "inputs": [],
      "name": "ApprovalCallerNotOwnerNorApproved",
      "type": "error"
    },
    {
      "inputs": [],
      "name": "ApprovalQueryForNonexistentToken",
      "type": "error"
    },
    {
      "inputs": [],
      "name": "BalanceQueryForZeroAddress",
      "type": "error"
    },
    {
      "inputs": [],
      "name": "MintERC2309QuantityExceedsLimit",
      "type": "error"
    },
    {
      "inputs": [],
      "name": "MintToZeroAddress",
      "type": "error"
    },
    {
      "inputs": [],
      "name": "MintZeroQuantity",
      "type": "error"
    },
    {
      "inputs": [],
      "name": "NotCompatibleWithSpotMints",
      "type": "error"
    },
    {
      "inputs": [],
      "name": "OwnerQueryForNonexistentToken",
      "type": "error"
    },
    {
      "inputs": [],
      "name": "OwnershipNotInitializedForExtraData",
      "type": "error"
    },
    {
      "inputs": [],
      "name": "SequentialMintExceedsLimit",
      "type": "error"
    },
    {
      "inputs": [],
      "name": "SequentialUpToTooSmall",
      "type": "error"
    },
    {
      "inputs": [],
      "name": "SetUserCallerNotOwnerNorApproved",
      "type": "error"
    },
    {
      "inputs": [],
      "name": "SpotMintTokenIdTooSmall",
      "type": "error"
    },
    {
      "inputs": [],
      "name": "TokenAlreadyExists",
      "type": "error"
    },
    {
      "inputs": [],
      "name": "TransferCallerNotOwnerNorApproved",
      "type": "error"
    },
    {
      "inputs": [],
      "name": "TransferFromIncorrectOwner",
      "type": "error"
    },
    {
      "inputs": [],
      "name": "TransferToNonERC721ReceiverImplementer",
      "type": "error"
    },
    {
      "inputs": [],
      "name": "TransferToZeroAddress",
      "type": "error"
    },
    {
      "inputs": [],
      "name": "URIQueryForNonexistentToken",
      "type": "error"
    },
    {
      "anonymous": false,
      "inputs": [
        {
          "indexed": true,
          "internalType": "address",
          "name": "owner",
          "type": "address"
        },
        {
          "indexed": true,
          "internalType": "address",
          "name": "approved",
          "type": "address"
        },
        {
          "indexed": true,
          "internalType": "uint256",
          "name": "tokenId",
          "type": "uint256"
        }
      ],
      "name": "Approval",
      "type": "event"
    },
    {
      "anonymous": false,
      "inputs": [
        {
          "indexed": true,
          "internalType": "address",
          "name": "owner",
          "type": "address"
        },
        {
          "indexed": true,
          "internalType": "address",
          "name": "operator",
          "type": "address"
        },
        {
          "indexed": false,
          "internalType": "bool",
          "name": "approved",
          "type": "bool"
        }
      ],
      "name": "ApprovalForAll",
      "type": "event"
    },
    {
      "anonymous": false,
      "inputs": [
        {
          "indexed": true,
          "internalType": "uint256",
          "name": "fromTokenId",
          "type": "uint256"
        },
        {
          "indexed": false,
          "internalType": "uint256",
          "name": "toTokenId",
          "type": "uint256"
        },
        {
          "indexed": true,
          "internalType": "address",
          "name": "from",
          "type": "address"
        },
        {
          "indexed": true,
          "internalType": "address",
          "name": "to",
          "type": "address"
        }
      ],
      "name": "ConsecutiveTransfer",
      "type": "event"
    },
    {
      "anonymous": false,
      "inputs": [
        {
          "indexed": true,
          "internalType": "address",
          "name": "from",
          "type": "address"
        },
        {
          "indexed": true,
          "internalType": "address",
          "name": "to",
          "type": "address"
        },
        {
          "indexed": true,
          "internalType": "uint256",
          "name": "tokenId",
          "type": "uint256"
        }
      ],
      "name": "Transfer",
      "type": "event"
    },
    {
      "anonymous": false,
      "inputs": [
        {
          "indexed": true,
          "internalType": "uint256",
          "name": "tokenId",
          "type": "uint256"
        },
        {
          "indexed": true,
          "internalType": "address",
          "name": "user",
          "type": "address"
        },
        {
          "indexed": false,
          "internalType": "uint64",
          "name": "expires",
          "type": "uint64"
        }
      ],
      "name": "UpdateUser",
      "type": "event"
    },
    {
      "inputs": [
        {
          "internalType": "address",
          "name": "to",
          "type": "address"
        },
        {
          "internalType": "uint256",
          "name": "tokenId",
          "type": "uint256"
        }
      ],
      "name": "approve",
      "outputs": [],
      "stateMutability": "payable",
      "type": "function"
    },
    {
      "inputs": [
        {
          "internalType": "address",
          "name": "owner",
          "type": "address"
        }
      ],
      "name": "balanceOf",
      "outputs": [
        {
          "internalType": "uint256",
          "name": "",
          "type": "uint256"
        }
      ],
      "stateMutability": "view",
      "type": "function"
    },
    {
      "inputs": [
        {
          "internalType": "uint256",
          "name": "tokenId",
          "type": "uint256"
        }
      ],
      "name": "explicitUserOf",
      "outputs": [
        {
          "internalType": "address",
          "name": "",
          "type": "address"
        }
      ],
      "stateMutability": "view",
      "type": "function"
    },
    {
      "inputs": [
        {
          "internalType": "uint256",
          "name": "tokenId",
          "type": "uint256"
        }
      ],
      "name": "getApproved",
      "outputs": [
        {
          "internalType": "address",
          "name": "",
          "type": "address"
        }
      ],
      "stateMutability": "view",
      "type": "function"
    },
    {
      "inputs": [
        {
          "internalType": "address",
          "name": "owner",
          "type": "address"
        },
        {
          "internalType": "address",
          "name": "operator",
          "type": "address"
        }
      ],
      "name": "isApprovedForAll",
      "outputs": [
        {
          "internalType": "bool",
          "name": "",
          "type": "bool"
        }
      ],
      "stateMutability": "view",
      "type": "function"
    },
    {
      "inputs": [
        {
          "internalType": "address",
          "name": "to",
          "type": "address"
        },
        {
          "internalType": "uint256",
          "name": "quantity",
          "type": "uint256"
        }
      ],
      "name": "mint",
      "outputs": [],
      "stateMutability": "nonpayable",
      "type": "function"
    },
    {
      "inputs": [],
      "name": "name",
      "outputs": [
        {
          "internalType": "string",
          "name": "",
          "type": "string"
        }
      ],
      "stateMutability": "view",
      "type": "function"
    },
    {
      "inputs": [
        {
          "internalType": "uint256",
          "name": "tokenId",
          "type": "uint256"
        }
      ],
      "name": "ownerOf",
      "outputs": [
        {
          "internalType": "address",
          "name": "",
          "type": "address"
        }
      ],
      "stateMutability": "view",
      "type": "function"
    },
    {
      "inputs": [
        {
          "internalType": "address",
          "name": "from",
          "type": "address"
        },
        {
          "internalType": "address",
          "name": "to",
          "type": "address"
        },
        {
          "internalType": "uint256",
          "name": "tokenId",
          "type": "uint256"
        }
      ],
      "name": "safeTransferFrom",
      "outputs": [],
      "stateMutability": "payable",
      "type": "function"
    },
    {
      "inputs": [
        {
          "internalType": "address",
          "name": "from",
          "type": "address"
        },
        {
          "internalType": "address",
          "name": "to",
          "type": "address"
        },
        {
          "internalType": "uint256",
          "name": "tokenId",
          "type": "uint256"
        },
        {
          "internalType": "bytes",
          "name": "_data",
          "type": "bytes"
        }
      ],
      "name": "safeTransferFrom",
      "outputs": [],
      "stateMutability": "payable",
      "type": "function"
    },
    {
      "inputs": [
        {
          "internalType": "address",
          "name": "operator",
          "type": "address"
        },
        {
          "internalType": "bool",
          "name": "approved",
          "type": "bool"
        }
      ],
      "name": "setApprovalForAll",
      "outputs": [],
      "stateMutability": "nonpayable",
      "type": "function"
    },
    {
      "inputs": [
        {
          "internalType": "uint256",
          "name": "tokenId",
          "type": "uint256"
        },
        {
          "internalType": "address",
          "name": "user",
          "type": "address"
        },
        {
          "internalType": "uint64",
          "name": "expires",
          "type": "uint64"
        }
      ],
      "name": "setUser",
      "outputs": [],
      "stateMutability": "nonpayable",
      "type": "function"
    },
    {
      "inputs": [
        {
          "internalType": "bytes4",
          "name": "interfaceId",
          "type": "bytes4"
        }
      ],
      "name": "supportsInterface",
      "outputs": [
        {
          "internalType": "bool",
          "name": "",
          "type": "bool"
        }
      ],
      "stateMutability": "view",
      "type": "function"
    },
    {
      "inputs": [],
      "name": "symbol",
      "outputs": [
        {
          "internalType": "string",
          "name": "",
          "type": "string"
        }
      ],
      "stateMutability": "view",
      "type": "function"
    },
    {
      "inputs": [
        {
          "internalType": "uint256",
          "name": "tokenId",
          "type": "uint256"
        }
      ],
      "name": "tokenURI",
      "outputs": [
        {
          "internalType": "string",
          "name": "",
          "type": "string"
        }
      ],
      "stateMutability": "view",
      "type": "function"
    },
    {
      "inputs": [],
      "name": "totalSupply",
      "outputs": [
        {
          "internalType": "uint256",
          "name": "result",
          "type": "uint256"
        }
      ],
      "stateMutability": "view",
      "type": "function"
    },
    {
      "inputs": [
        {
          "internalType": "address",
          "name": "from",
          "type": "address"
        },
        {
          "internalType": "address",
          "name": "to",
          "type": "address"
        },
        {
          "internalType": "uint256",
          "name": "tokenId",
          "type": "uint256"
        }
      ],
      "name": "transferFrom",
      "outputs": [],
      "stateMutability": "payable",
      "type": "function"
    },
    {
      "inputs": [
        {
          "internalType": "uint256",
          "name": "tokenId",
          "type": "uint256"
        }
      ],
      "name": "userExpires",
      "outputs": [
        {
          "internalType": "uint256",
          "name": "",
          "type": "uint256"
        }
      ],
      "stateMutability": "view",
      "type": "function"
    },
    {
      "inputs": [
        {
          "internalType": "uint256",
          "name": "tokenId",
          "type": "uint256"
        }
      ],
      "name": "userOf",
      "outputs": [
        {
          "internalType": "address",
          "name": "",
          "type": "address"
        }
      ],
      "stateMutability": "view",
      "type": "function"
    }
  ],
  "bytecode": "0x608060405234801561001057600080fd5b506120c2806100206000396000f3fe6080604052600436106101145760003560e01c806370a08231116100a0578063c2f1f14a11610064578063c2f1f14a1461038d578063c87b56dd146103ca578063e030565e14610407578063e985e9c514610430578063ed1959681461046d57610114565b806370a08231146102a35780638fc88c48146102e057806395d89b411461031d578063a22cb46514610348578063b88d4fde1461037157610114565b806318160ddd116100e757806318160ddd146101da57806323b872dd1461020557806340c10f191461022157806342842e0e1461024a5780636352211e1461026657610114565b806301ffc9a71461011957806306fdde0314610156578063081812fc14610181578063095ea7b3146101be575b600080fd5b34801561012557600080fd5b50610140600480360381019061013b9190611886565b6104aa565b60405161014d91906118ce565b60405180910390f35b34801561016257600080fd5b5061016b6104bc565b6040516101789190611979565b60405180910390f35b34801561018d57600080fd5b506101a860048036038101906101a391906119d1565b610557565b6040516101b59190611a3f565b60405180910390f35b6101d860048036038101906101d39190611a86565b6105be565b005b3480156101e657600080fd5b506101ef6105ce565b6040516101fc9190611ad5565b60405180910390f35b61021f600480360381019061021a9190611af0565b610636565b005b34801561022d57600080fd5b5061024860048036038101906102439190611a86565b61092d565b005b610264600480360381019061025f9190611af0565b61093b565b005b34801561027257600080fd5b5061028d600480360381019061028891906119d1565b61095b565b60405161029a9190611a3f565b60405180910390f35b3480156102af57600080fd5b506102ca60048036038101906102c59190611b43565b61096d565b6040516102d79190611ad5565b60405180910390f35b3480156102ec57600080fd5b50610307600480360381019061030291906119d1565b610a0d565b6040516103149190611ad5565b60405180910390f35b34801561032957600080fd5b50610332610a37565b60405161033f9190611979565b60405180910390f35b34801561035457600080fd5b5061036f600480360381019061036a9190611b9c565b610ad2565b005b61038b60048036038101906103869190611d11565b610be6565b005b34801561039957600080fd5b506103b460048036038101906103af91906119d1565b610c38565b6040516103c19190611a3f565b60405180910390f35b3480156103d657600080fd5b506103f160048036038101906103ec91906119d1565b610c6d565b6040516103fe9190611979565b60405180910390f35b34801561041357600080fd5b5061042e60048036038101906104299190611dd4565b610cea565b005b34801561043c57600080fd5b5061045760048036038101906104529190611e27565b610e37565b60405161046491906118ce565b60405180910390f35b34801561047957600080fd5b50610494600480360381019061048f91906119d1565b610ed4565b6040516104a19190611a3f565b60405180910390f35b60006104b582610ee6565b9050919050565b60606104c6610f28565b60020180546104d490611e96565b80601f016020809104026020016040519081016040528092919081815260200182805461050090611e96565b801561054d5780601f106105225761010080835404028352916020019161054d565b820191906000526020600020905b81548152906001019060200180831161053057829003601f168201915b5050505050905090565b600061056282610f55565b6105775761057663cf4700e460e01b61101c565b5b61057f610f28565b600601600083815260200190815260200160002060000160009054906101000a900473ffffffffffffffffffffffffffffffffffffffff169050919050565b6105ca82826001611026565b5050565b60006105d861115e565b6105e0610f28565b600101546105ec610f28565b60000154030390507fffffffffffffffffffffffffffffffffffffffffffffffffffffffffffffffff61061d611163565b146106335761062a610f28565b60080154810190505b90565b60006106418261118b565b905073ffffffffffffffffffffffffffffffffffffffff8473ffffffffffffffffffffffffffffffffffffffff161693508373ffffffffffffffffffffffffffffffffffffffff168173ffffffffffffffffffffffffffffffffffffffff16146106b6576106b563a114810060e01b61101c565b5b6000806106c2846112bf565b915091506106d881876106d36112ef565b6112f7565b610703576106ed866106e86112ef565b610e37565b610702576107016359c896be60e01b61101c565b5b5b610710868686600161133b565b801561071b57600082555b610723610f28565b60050160008773ffffffffffffffffffffffffffffffffffffffff1673ffffffffffffffffffffffffffffffffffffffff16815260200190815260200160002060008154600190039190508190555061077a610f28565b60050160008673ffffffffffffffffffffffffffffffffffffffff1673ffffffffffffffffffffffffffffffffffffffff16815260200190815260200160002060008154600101919050819055506107fb856107d7888887611341565b7c020000000000000000000000000000000000000000000000000000000017611369565b610803610f28565b60040160008681526020019081526020016000208190555060007c02000000000000000000000000000000000000000000000000000000008416036108a55760006001850190506000610854610f28565b600401600083815260200190815260200160002054036108a357610876610f28565b6000015481146108a25783610889610f28565b6004016000838152602001908152602001600020819055505b5b505b600073ffffffffffffffffffffffffffffffffffffffff8673ffffffffffffffffffffffffffffffffffffffff161690508481887fddf252ad1be2c89b69c2b068fc378daa952ba7f163c4a11628f55a4df523b3ef600080a4600081036109175761091663ea553b3460e01b61101c565b5b6109248787876001611394565b50505050505050565b610937828261139a565b5050565b61095683838360405180602001604052806000815250610be6565b505050565b60006109668261118b565b9050919050565b60008073ffffffffffffffffffffffffffffffffffffffff168273ffffffffffffffffffffffffffffffffffffffff16036109b3576109b2638f4eb60460e01b61101c565b5b67ffffffffffffffff6109c4610f28565b60050160008473ffffffffffffffffffffffffffffffffffffffff1673ffffffffffffffffffffffffffffffffffffffff16815260200190815260200160002054169050919050565b600060a0610a19611545565b600001600084815260200190815260200160002054901c9050919050565b6060610a41610f28565b6003018054610a4f90611e96565b80601f0160208091040260200160405190810160405280929190818152602001828054610a7b90611e96565b8015610ac85780601f10610a9d57610100808354040283529160200191610ac8565b820191906000526020600020905b815481529060010190602001808311610aab57829003601f168201915b5050505050905090565b80610adb610f28565b6007016000610ae86112ef565b73ffffffffffffffffffffffffffffffffffffffff1673ffffffffffffffffffffffffffffffffffffffff16815260200190815260200160002060008473ffffffffffffffffffffffffffffffffffffffff1673ffffffffffffffffffffffffffffffffffffffff16815260200190815260200160002060006101000a81548160ff0219169083151502179055508173ffffffffffffffffffffffffffffffffffffffff16610b956112ef565b73ffffffffffffffffffffffffffffffffffffffff167f17307eab39ab6107e8899845ad3d59bd9653f200f220920489ca2b5937696c3183604051610bda91906118ce565b60405180910390a35050565b610bf1848484610636565b60008373ffffffffffffffffffffffffffffffffffffffff163b14610c3257610c1c84848484611572565b610c3157610c3063d1a57ed660e01b61101c565b5b5b50505050565b600080610c43611545565b6000016000848152602001908152602001600020549050804260a01b108102905080915050919050565b6060610c7882610f55565b610c8d57610c8c63a14c4b5060e01b61101c565b5b6000610c976116a1565b90506000815103610cb75760405180602001604052806000815250610ce2565b80610cc1846116b8565b604051602001610cd2929190611f03565b6040516020818303038152906040525b915050919050565b6000610cf58461095b565b90508073ffffffffffffffffffffffffffffffffffffffff16610d166112ef565b73ffffffffffffffffffffffffffffffffffffffff1614610d9b57610d4281610d3d6112ef565b610e37565b610d9a57610d4e6112ef565b73ffffffffffffffffffffffffffffffffffffffff16610d6d85610557565b73ffffffffffffffffffffffffffffffffffffffff1614610d9957610d98634f1dd8e860e01b61101c565b5b5b5b8273ffffffffffffffffffffffffffffffffffffffff1660a08367ffffffffffffffff16901b17610dca611545565b6000016000868152602001908152602001600020819055508273ffffffffffffffffffffffffffffffffffffffff16847f4e06b4e7000e659094299b3533b47b6aa8ad048e95e872d23d1f4ee55af89cfe84604051610e299190611f36565b60405180910390a350505050565b6000610e41610f28565b60070160008473ffffffffffffffffffffffffffffffffffffffff1673ffffffffffffffffffffffffffffffffffffffff16815260200190815260200160002060008373ffffffffffffffffffffffffffffffffffffffff1673ffffffffffffffffffffffffffffffffffffffff16815260200190815260200160002060009054906101000a900460ff16905092915050565b6000610edf82611708565b9050919050565b6000610ef18261172e565b80610f21575063ad092b5c60e01b827bffffffffffffffffffffffffffffffffffffffffffffffffffffffff1916145b9050919050565b6000807f2569078dfb4b0305704d3008e7403993ae9601b85f7ae5e742de3de8f8011c4090508091505090565b600081610f6061115e565b1161101657610f6d611163565b821115610fa057610f99610f7f610f28565b6004016000848152602001908152602001600020546117c0565b9050611017565b610fa8610f28565b600001548210156110155760005b6000610fc0610f28565b60040160008581526020019081526020016000205491508103610fee5782610fe790611f80565b9250610fb6565b60007c01000000000000000000000000000000000000000000000000000000008216149150505b5b5b919050565b8060005260046000fd5b60006110318361095b565b905081801561107357508073ffffffffffffffffffffffffffffffffffffffff1661105a6112ef565b73ffffffffffffffffffffffffffffffffffffffff1614155b1561109f57611089816110846112ef565b610e37565b61109e5761109d63cfb3b94260e01b61101c565b5b5b836110a8610f28565b600601600085815260200190815260200160002060000160006101000a81548173ffffffffffffffffffffffffffffffffffffffff021916908373ffffffffffffffffffffffffffffffffffffffff160217905550828473ffffffffffffffffffffffffffffffffffffffff168273ffffffffffffffffffffffffffffffffffffffff167f8c5be1e5ebec7d5bd14f71427d1e84f3dd0314c0f7b2291e5b200ac8c7c3b92560405160405180910390a450505050565b600090565b60007fffffffffffffffffffffffffffffffffffffffffffffffffffffffffffffffff905090565b60008161119661115e565b116112a9576111a3610f28565b60040160008381526020019081526020016000205490506111c2611163565b8211156111e7576111d2816117c0565b6112ba576111e663df2d9b4260e01b61101c565b5b60008103611280576111f7610f28565b6000015482106112125761121163df2d9b4260e01b61101c565b5b5b61121b610f28565b600401600083600190039350838152602001908152602001600020549050600081031561127b5760007c0100000000000000000000000000000000000000000000000000000000821603156112ba5761127a63df2d9b4260e01b61101c565b5b611213565b60007c0100000000000000000000000000000000000000000000000000000000821603156112ba575b6112b963df2d9b4260e01b61101c565b5b919050565b60008060006112cc610f28565b600601600085815260200190815260200160002090508092508254915050915091565b600033905090565b600073ffffffffffffffffffffffffffffffffffffffff8316925073ffffffffffffffffffffffffffffffffffffffff821691508382148383141790509392505050565b50505050565b60008060e883901c905060e8611358868684611801565b62ffffff16901b9150509392505050565b600073ffffffffffffffffffffffffffffffffffffffff83169250814260a01b178317905092915050565b50505050565b60006113a4610f28565b600001549050600082036113c3576113c263b562e8dd60e01b61101c565b5b6113d0600084838561133b565b6113f0836113e16000866000611341565b6113ea8561180a565b17611369565b6113f8610f28565b600401600083815260200190815260200160002081905550600160406001901b178202611423610f28565b60050160008573ffffffffffffffffffffffffffffffffffffffff1673ffffffffffffffffffffffffffffffffffffffff16815260200190815260200160002060008282540192505081905550600073ffffffffffffffffffffffffffffffffffffffff8473ffffffffffffffffffffffffffffffffffffffff16169050600081036114ba576114b9632e07630060e01b61101c565b5b6000838301905060008390506114ce611163565b6001830311156114e9576114e86381647e3a60e01b61101c565b5b5b808360007fddf252ad1be2c89b69c2b068fc378daa952ba7f163c4a11628f55a4df523b3ef600080a48181600101915081036114ea5781611529610f28565b600001819055505050506115406000848385611394565b505050565b6000807f3afe07c861b9a7bc7a9e79bc19e0c388d1919cadc55b9bca778f1b978d30832690508091505090565b60008373ffffffffffffffffffffffffffffffffffffffff1663150b7a026115986112ef565b8786866040518563ffffffff1660e01b81526004016115ba9493929190611ffe565b6020604051808303816000875af19250505080156115f657506040513d601f19601f820116820180604052508101906115f3919061205f565b60015b61164e573d8060008114611626576040519150601f19603f3d011682016040523d82523d6000602084013e61162b565b606091505b5060008151036116465761164563d1a57ed660e01b61101c565b5b805181602001fd5b63150b7a0260e01b7bffffffffffffffffffffffffffffffffffffffffffffffffffffffff1916817bffffffffffffffffffffffffffffffffffffffffffffffffffffffff191614915050949350505050565b606060405180602001604052806000815250905090565b606060a060405101806040526020810391506000825281835b6001156116f357600184039350600a81066030018453600a81049050806116d1575b50828103602084039350808452505050919050565b6000611712611545565b6000016000838152602001908152602001600020549050919050565b60006301ffc9a760e01b827bffffffffffffffffffffffffffffffffffffffffffffffffffffffff1916148061178957506380ac58cd60e01b827bffffffffffffffffffffffffffffffffffffffffffffffffffffffff1916145b806117b95750635b5e139f60e01b827bffffffffffffffffffffffffffffffffffffffffffffffffffffffff1916145b9050919050565b60007c0100000000000000000000000000000000000000000000000000000000821673ffffffffffffffffffffffffffffffffffffffff8316119050919050565b60009392505050565b60006001821460e11b9050919050565b6000604051905090565b600080fd5b600080fd5b60007fffffffff0000000000000000000000000000000000000000000000000000000082169050919050565b6118638161182e565b811461186e57600080fd5b50565b6000813590506118808161185a565b92915050565b60006020828403121561189c5761189b611824565b5b60006118aa84828501611871565b91505092915050565b60008115159050919050565b6118c8816118b3565b82525050565b60006020820190506118e360008301846118bf565b92915050565b600081519050919050565b600082825260208201905092915050565b60005b83811015611923578082015181840152602081019050611908565b60008484015250505050565b6000601f19601f8301169050919050565b600061194b826118e9565b61195581856118f4565b9350611965818560208601611905565b61196e8161192f565b840191505092915050565b600060208201905081810360008301526119938184611940565b905092915050565b6000819050919050565b6119ae8161199b565b81146119b957600080fd5b50565b6000813590506119cb816119a5565b92915050565b6000602082840312156119e7576119e6611824565b5b60006119f5848285016119bc565b91505092915050565b600073ffffffffffffffffffffffffffffffffffffffff82169050919050565b6000611a29826119fe565b9050919050565b611a3981611a1e565b82525050565b6000602082019050611a546000830184611a30565b92915050565b611a6381611a1e565b8114611a6e57600080fd5b50565b600081359050611a8081611a5a565b92915050565b60008060408385031215611a9d57611a9c611824565b5b6000611aab85828601611a71565b9250506020611abc858286016119bc565b9150509250929050565b611acf8161199b565b82525050565b6000602082019050611aea6000830184611ac6565b92915050565b600080600060608486031215611b0957611b08611824565b5b6000611b1786828701611a71565b9350506020611b2886828701611a71565b9250506040611b39868287016119bc565b9150509250925092565b600060208284031215611b5957611b58611824565b5b6000611b6784828501611a71565b91505092915050565b611b79816118b3565b8114611b8457600080fd5b50565b600081359050611b9681611b70565b92915050565b60008060408385031215611bb357611bb2611824565b5b6000611bc185828601611a71565b9250506020611bd285828601611b87565b9150509250929050565b600080fd5b600080fd5b7f4e487b7100000000000000000000000000000000000000000000000000000000600052604160045260246000fd5b611c1e8261192f565b810181811067ffffffffffffffff82111715611c3d57611c3c611be6565b5b80604052505050565b6000611c5061181a565b9050611c5c8282611c15565b919050565b600067ffffffffffffffff821115611c7c57611c7b611be6565b5b611c858261192f565b9050602081019050919050565b82818337600083830152505050565b6000611cb4611caf84611c61565b611c46565b905082815260208101848484011115611cd057611ccf611be1565b5b611cdb848285611c92565b509392505050565b600082601f830112611cf857611cf7611bdc565b5b8135611d08848260208601611ca1565b91505092915050565b60008060008060808587031215611d2b57611d2a611824565b5b6000611d3987828801611a71565b9450506020611d4a87828801611a71565b9350506040611d5b878288016119bc565b925050606085013567ffffffffffffffff811115611d7c57611d7b611829565b5b611d8887828801611ce3565b91505092959194509250565b600067ffffffffffffffff82169050919050565b611db181611d94565b8114611dbc57600080fd5b50565b600081359050611dce81611da8565b92915050565b600080600060608486031215611ded57611dec611824565b5b6000611dfb868287016119bc565b9350506020611e0c86828701611a71565b9250506040611e1d86828701611dbf565b9150509250925092565b60008060408385031215611e3e57611e3d611824565b5b6000611e4c85828601611a71565b9250506020611e5d85828601611a71565b9150509250929050565b7f4e487b7100000000000000000000000000000000000000000000000000000000600052602260045260246000fd5b60006002820490506001821680611eae57607f821691505b602082108103611ec157611ec0611e67565b5b50919050565b600081905092915050565b6000611edd826118e9565b611ee78185611ec7565b9350611ef7818560208601611905565b80840191505092915050565b6000611f0f8285611ed2565b9150611f1b8284611ed2565b91508190509392505050565b611f3081611d94565b82525050565b6000602082019050611f4b6000830184611f27565b92915050565b7f4e487b7100000000000000000000000000000000000000000000000000000000600052601160045260246000fd5b6000611f8b8261199b565b915060008203611f9e57611f9d611f51565b5b600182039050919050565b600081519050919050565b600082825260208201905092915050565b6000611fd082611fa9565b611fda8185611fb4565b9350611fea818560208601611905565b611ff38161192f565b840191505092915050565b60006080820190506120136000830187611a30565b6120206020830186611a30565b61202d6040830185611ac6565b818103606083015261203f8184611fc5565b905095945050505050565b6000815190506120598161185a565b92915050565b60006020828403121561207557612074611824565b5b60006120838482850161204a565b9150509291505056fea26469706673582212208511e72de48bdaf8a88a4c7e468c2956fcbcb83ab86d6d450e2e5548673287fe64736f6c63430008180033",
  "linkReferences": {},
  "deployedLinkReferences": {}
}