{
  "_format": "hh-sol-artifact-1",
  "contractName": "ERC721ASpotMockUpgradeable",
  "sourceName": "contracts/ERC721A-Upgradeable/contracts/mocks/ERC721ASpotMockUpgradeable.sol",
  "abi": [
    {
      "inputs": [],
      "name": "ApprovalCallerNotOwnerNorApproved",
      "type": "error"
    },
    {
      "inputs": [],
      "name": "ApprovalQueryForNonexistentToken",
      "type": "error"
    },
    {
      "inputs": [],
      "name": "BalanceQueryForZeroAddress",
      "type": "error"
    },
    {
      "inputs": [],
      "name": "InvalidQueryRange",
      "type": "error"
    },
    {
      "inputs": [],
      "name": "MintERC2309QuantityExceedsLimit",
      "type": "error"
    },
    {
      "inputs": [],
      "name": "MintToZeroAddress",
      "type": "error"
    },
    {
      "inputs": [],
      "name": "MintZeroQuantity",
      "type": "error"
    },
    {
      "inputs": [],
      "name": "NotCompatibleWithSpotMints",
      "type": "error"
    },
    {
      "inputs": [],
      "name": "OwnerQueryForNonexistentToken",
      "type": "error"
    },
    {
      "inputs": [],
      "name": "OwnershipNotInitializedForExtraData",
      "type": "error"
    },
    {
      "inputs": [],
      "name": "SequentialMintExceedsLimit",
      "type": "error"
    },
    {
      "inputs": [],
      "name": "SequentialUpToTooSmall",
      "type": "error"
    },
    {
      "inputs": [],
      "name": "SpotMintTokenIdTooSmall",
      "type": "error"
    },
    {
      "inputs": [],
      "name": "TokenAlreadyExists",
      "type": "error"
    },
    {
      "inputs": [],
      "name": "TransferCallerNotOwnerNorApproved",
      "type": "error"
    },
    {
      "inputs": [],
      "name": "TransferFromIncorrectOwner",
      "type": "error"
    },
    {
      "inputs": [],
      "name": "TransferToNonERC721ReceiverImplementer",
      "type": "error"
    },
    {
      "inputs": [],
      "name": "TransferToZeroAddress",
      "type": "error"
    },
    {
      "inputs": [],
      "name": "URIQueryForNonexistentToken",
      "type": "error"
    },
    {
      "anonymous": false,
      "inputs": [
        {
          "indexed": true,
          "internalType": "address",
          "name": "owner",
          "type": "address"
        },
        {
          "indexed": true,
          "internalType": "address",
          "name": "approved",
          "type": "address"
        },
        {
          "indexed": true,
          "internalType": "uint256",
          "name": "tokenId",
          "type": "uint256"
        }
      ],
      "name": "Approval",
      "type": "event"
    },
    {
      "anonymous": false,
      "inputs": [
        {
          "indexed": true,
          "internalType": "address",
          "name": "owner",
          "type": "address"
        },
        {
          "indexed": true,
          "internalType": "address",
          "name": "operator",
          "type": "address"
        },
        {
          "indexed": false,
          "internalType": "bool",
          "name": "approved",
          "type": "bool"
        }
      ],
      "name": "ApprovalForAll",
      "type": "event"
    },
    {
      "anonymous": false,
      "inputs": [
        {
          "indexed": true,
          "internalType": "uint256",
          "name": "fromTokenId",
          "type": "uint256"
        },
        {
          "indexed": false,
          "internalType": "uint256",
          "name": "toTokenId",
          "type": "uint256"
        },
        {
          "indexed": true,
          "internalType": "address",
          "name": "from",
          "type": "address"
        },
        {
          "indexed": true,
          "internalType": "address",
          "name": "to",
          "type": "address"
        }
      ],
      "name": "ConsecutiveTransfer",
      "type": "event"
    },
    {
      "anonymous": false,
      "inputs": [
        {
          "indexed": true,
          "internalType": "address",
          "name": "from",
          "type": "address"
        },
        {
          "indexed": true,
          "internalType": "address",
          "name": "to",
          "type": "address"
        },
        {
          "indexed": true,
          "internalType": "uint256",
          "name": "tokenId",
          "type": "uint256"
        }
      ],
      "name": "Transfer",
      "type": "event"
    },
    {
      "inputs": [
        {
          "internalType": "address",
          "name": "to",
          "type": "address"
        },
        {
          "internalType": "uint256",
          "name": "tokenId",
          "type": "uint256"
        }
      ],
      "name": "approve",
      "outputs": [],
      "stateMutability": "payable",
      "type": "function"
    },
    {
      "inputs": [
        {
          "internalType": "address",
          "name": "owner",
          "type": "address"
        }
      ],
      "name": "balanceOf",
      "outputs": [
        {
          "internalType": "uint256",
          "name": "",
          "type": "uint256"
        }
      ],
      "stateMutability": "view",
      "type": "function"
    },
    {
      "inputs": [
        {
          "internalType": "uint256",
          "name": "tokenId",
          "type": "uint256"
        }
      ],
      "name": "burn",
      "outputs": [],
      "stateMutability": "nonpayable",
      "type": "function"
    },
    {
      "inputs": [
        {
          "internalType": "uint256",
          "name": "index",
          "type": "uint256"
        }
      ],
      "name": "directSetBurnBit",
      "outputs": [],
      "stateMutability": "nonpayable",
      "type": "function"
    },
    {
      "inputs": [
        {
          "internalType": "uint256",
          "name": "tokenId",
          "type": "uint256"
        }
      ],
      "name": "exists",
      "outputs": [
        {
          "internalType": "bool",
          "name": "",
          "type": "bool"
        }
      ],
      "stateMutability": "view",
      "type": "function"
    },
    {
      "inputs": [
        {
          "internalType": "uint256",
          "name": "tokenId",
          "type": "uint256"
        }
      ],
      "name": "explicitOwnershipOf",
      "outputs": [
        {
          "components": [
            {
              "internalType": "address",
              "name": "addr",
              "type": "address"
            },
            {
              "internalType": "uint64",
              "name": "startTimestamp",
              "type": "uint64"
            },
            {
              "internalType": "bool",
              "name": "burned",
              "type": "bool"
            },
            {
              "internalType": "uint24",
              "name": "extraData",
              "type": "uint24"
            }
          ],
          "internalType": "struct IERC721AUpgradeable.TokenOwnership",
          "name": "ownership",
          "type": "tuple"
        }
      ],
      "stateMutability": "view",
      "type": "function"
    },
    {
      "inputs": [
        {
          "internalType": "uint256[]",
          "name": "tokenIds",
          "type": "uint256[]"
        }
      ],
      "name": "explicitOwnershipsOf",
      "outputs": [
        {
          "components": [
            {
              "internalType": "address",
              "name": "addr",
              "type": "address"
            },
            {
              "internalType": "uint64",
              "name": "startTimestamp",
              "type": "uint64"
            },
            {
              "internalType": "bool",
              "name": "burned",
              "type": "bool"
            },
            {
              "internalType": "uint24",
              "name": "extraData",
              "type": "uint24"
            }
          ],
          "internalType": "struct IERC721AUpgradeable.TokenOwnership[]",
          "name": "",
          "type": "tuple[]"
        }
      ],
      "stateMutability": "view",
      "type": "function"
    },
    {
      "inputs": [
        {
          "internalType": "uint256",
          "name": "tokenId",
          "type": "uint256"
        }
      ],
      "name": "getApproved",
      "outputs": [
        {
          "internalType": "address",
          "name": "",
          "type": "address"
        }
      ],
      "stateMutability": "view",
      "type": "function"
    },
    {
      "inputs": [
        {
          "internalType": "uint256",
          "name": "index",
          "type": "uint256"
        }
      ],
      "name": "getOwnershipOf",
      "outputs": [
        {
          "components": [
            {
              "internalType": "address",
              "name": "addr",
              "type": "address"
            },
            {
              "internalType": "uint64",
              "name": "startTimestamp",
              "type": "uint64"
            },
            {
              "internalType": "bool",
              "name": "burned",
              "type": "bool"
            },
            {
              "internalType": "uint24",
              "name": "extraData",
              "type": "uint24"
            }
          ],
          "internalType": "struct IERC721AUpgradeable.TokenOwnership",
          "name": "",
          "type": "tuple"
        }
      ],
      "stateMutability": "view",
      "type": "function"
    },
    {
      "inputs": [
        {
          "internalType": "address",
          "name": "owner",
          "type": "address"
        },
        {
          "internalType": "address",
          "name": "operator",
          "type": "address"
        }
      ],
      "name": "isApprovedForAll",
      "outputs": [
        {
          "internalType": "bool",
          "name": "",
          "type": "bool"
        }
      ],
      "stateMutability": "view",
      "type": "function"
    },
    {
      "inputs": [],
      "name": "name",
      "outputs": [
        {
          "internalType": "string",
          "name": "",
          "type": "string"
        }
      ],
      "stateMutability": "view",
      "type": "function"
    },
    {
      "inputs": [
        {
          "internalType": "address",
          "name": "owner",
          "type": "address"
        }
      ],
      "name": "numberBurned",
      "outputs": [
        {
          "internalType": "uint256",
          "name": "",
          "type": "uint256"
        }
      ],
      "stateMutability": "view",
      "type": "function"
    },
    {
      "inputs": [
        {
          "internalType": "uint256",
          "name": "tokenId",
          "type": "uint256"
        }
      ],
      "name": "ownerOf",
      "outputs": [
        {
          "internalType": "address",
          "name": "",
          "type": "address"
        }
      ],
      "stateMutability": "view",
      "type": "function"
    },
    {
      "inputs": [
        {
          "internalType": "address",
          "name": "to",
          "type": "address"
        },
        {
          "internalType": "uint256",
          "name": "quantity",
          "type": "uint256"
        }
      ],
      "name": "safeMint",
      "outputs": [],
      "stateMutability": "nonpayable",
      "type": "function"
    },
    {
      "inputs": [
        {
          "internalType": "address",
          "name": "to",
          "type": "address"
        },
        {
          "internalType": "uint256",
          "name": "tokenId",
          "type": "uint256"
        }
      ],
      "name": "safeMintSpot",
      "outputs": [],
      "stateMutability": "nonpayable",
      "type": "function"
    },
    {
      "inputs": [
        {
          "internalType": "address",
          "name": "from",
          "type": "address"
        },
        {
          "internalType": "address",
          "name": "to",
          "type": "address"
        },
        {
          "internalType": "uint256",
          "name": "tokenId",
          "type": "uint256"
        }
      ],
      "name": "safeTransferFrom",
      "outputs": [],
      "stateMutability": "payable",
      "type": "function"
    },
    {
      "inputs": [
        {
          "internalType": "address",
          "name": "from",
          "type": "address"
        },
        {
          "internalType": "address",
          "name": "to",
          "type": "address"
        },
        {
          "internalType": "uint256",
          "name": "tokenId",
          "type": "uint256"
        },
        {
          "internalType": "bytes",
          "name": "_data",
          "type": "bytes"
        }
      ],
      "name": "safeTransferFrom",
      "outputs": [],
      "stateMutability": "payable",
      "type": "function"
    },
    {
      "inputs": [],
      "name": "sequentialUpTo",
      "outputs": [
        {
          "internalType": "uint256",
          "name": "result",
          "type": "uint256"
        }
      ],
      "stateMutability": "view",
      "type": "function"
    },
    {
      "inputs": [
        {
          "internalType": "address",
          "name": "operator",
          "type": "address"
        },
        {
          "internalType": "bool",
          "name": "approved",
          "type": "bool"
        }
      ],
      "name": "setApprovalForAll",
      "outputs": [],
      "stateMutability": "nonpayable",
      "type": "function"
    },
    {
      "inputs": [
        {
          "internalType": "uint256",
          "name": "tokenId",
          "type": "uint256"
        },
        {
          "internalType": "uint24",
          "name": "value",
          "type": "uint24"
        }
      ],
      "name": "setExtraDataAt",
      "outputs": [],
      "stateMutability": "nonpayable",
      "type": "function"
    },
    {
      "inputs": [],
      "name": "startTokenId",
      "outputs": [
        {
          "internalType": "uint256",
          "name": "result",
          "type": "uint256"
        }
      ],
      "stateMutability": "view",
      "type": "function"
    },
    {
      "inputs": [
        {
          "internalType": "bytes4",
          "name": "interfaceId",
          "type": "bytes4"
        }
      ],
      "name": "supportsInterface",
      "outputs": [
        {
          "internalType": "bool",
          "name": "",
          "type": "bool"
        }
      ],
      "stateMutability": "view",
      "type": "function"
    },
    {
      "inputs": [],
      "name": "symbol",
      "outputs": [
        {
          "internalType": "string",
          "name": "",
          "type": "string"
        }
      ],
      "stateMutability": "view",
      "type": "function"
    },
    {
      "inputs": [
        {
          "internalType": "uint256",
          "name": "tokenId",
          "type": "uint256"
        }
      ],
      "name": "tokenURI",
      "outputs": [
        {
          "internalType": "string",
          "name": "",
          "type": "string"
        }
      ],
      "stateMutability": "view",
      "type": "function"
    },
    {
      "inputs": [
        {
          "internalType": "address",
          "name": "owner",
          "type": "address"
        }
      ],
      "name": "tokensOfOwner",
      "outputs": [
        {
          "internalType": "uint256[]",
          "name": "",
          "type": "uint256[]"
        }
      ],
      "stateMutability": "view",
      "type": "function"
    },
    {
      "inputs": [
        {
          "internalType": "address",
          "name": "owner",
          "type": "address"
        },
        {
          "internalType": "uint256",
          "name": "start",
          "type": "uint256"
        },
        {
          "internalType": "uint256",
          "name": "stop",
          "type": "uint256"
        }
      ],
      "name": "tokensOfOwnerIn",
      "outputs": [
        {
          "internalType": "uint256[]",
          "name": "",
          "type": "uint256[]"
        }
      ],
      "stateMutability": "view",
      "type": "function"
    },
    {
      "inputs": [],
      "name": "totalBurned",
      "outputs": [
        {
          "internalType": "uint256",
          "name": "",
          "type": "uint256"
        }
      ],
      "stateMutability": "view",
      "type": "function"
    },
    {
      "inputs": [],
      "name": "totalMinted",
      "outputs": [
        {
          "internalType": "uint256",
          "name": "",
          "type": "uint256"
        }
      ],
      "stateMutability": "view",
      "type": "function"
    },
    {
      "inputs": [],
      "name": "totalSpotMinted",
      "outputs": [
        {
          "internalType": "uint256",
          "name": "",
          "type": "uint256"
        }
      ],
      "stateMutability": "view",
      "type": "function"
    },
    {
      "inputs": [],
      "name": "totalSupply",
      "outputs": [
        {
          "internalType": "uint256",
          "name": "result",
          "type": "uint256"
        }
      ],
      "stateMutability": "view",
      "type": "function"
    },
    {
      "inputs": [
        {
          "internalType": "address",
          "name": "from",
          "type": "address"
        },
        {
          "internalType": "address",
          "name": "to",
          "type": "address"
        },
        {
          "internalType": "uint256",
          "name": "tokenId",
          "type": "uint256"
        }
      ],
      "name": "transferFrom",
      "outputs": [],
      "stateMutability": "payable",
      "type": "function"
    }
  ],
  "bytecode": "0x608060405234801561001057600080fd5b50611e14806100206000396000f3fe6080604052600436106101985760003560e01c806369cb03e4116100e2578063a2309ff811610085578063a2309ff8146104e7578063b88d4fde146104fc578063c23dc68f1461050f578063c87b56dd1461052f578063d721d5a11461054f578063d89135cd14610564578063e6798baa14610579578063e985e9c51461059157600080fd5b806369cb03e4146103ed57806370a08231146104055780637de9b104146104255780638462151c1461044557806395d89b411461047257806399a2557a14610487578063a1448194146104a7578063a22cb465146104c757600080fd5b80632478d6391161014a5780632478d6391461029757806342842e0e146102b757806342966c68146102ca5780634b6c5d8c146102ea5780634f558e791461035357806352d8a4d1146103735780635bbb2177146103a05780636352211e146103cd57600080fd5b806301ffc9a71461019d57806306fdde03146101d2578063081812fc146101f4578063095ea7b31461022c5780630a70b5661461024157806318160ddd1461026157806323b872dd14610284575b600080fd5b3480156101a957600080fd5b506101bd6101b836600461189e565b6105b1565b60405190151581526020015b60405180910390f35b3480156101de57600080fd5b506101e7610603565b6040516101c9919061190b565b34801561020057600080fd5b5061021461020f36600461191e565b61069e565b6040516001600160a01b0390911681526020016101c9565b61023f61023a36600461194e565b6106e2565b005b34801561024d57600080fd5b5061023f61025c366004611978565b6106f2565b34801561026d57600080fd5b506102766106fc565b6040519081526020016101c9565b61023f6102923660046119b0565b610740565b3480156102a357600080fd5b506102766102b23660046119ec565b6108ff565b61023f6102c53660046119b0565b61090a565b3480156102d657600080fd5b5061023f6102e536600461191e565b61092a565b3480156102f657600080fd5b5061023f61030536600461191e565b60046020908152600091825260408083208054600160e01b9081179091557f2569078dfb4b0305704d3008e7403993ae9601b85f7ae5e742de3de8f8011c4490925290912080549091179055565b34801561035f57600080fd5b506101bd61036e36600461191e565b610938565b34801561037f57600080fd5b5061039361038e36600461191e565b610943565b6040516101c99190611a44565b3480156103ac57600080fd5b506103c06103bb366004611a52565b610954565b6040516101c99190611ac7565b3480156103d957600080fd5b506102146103e836600461191e565b6109a0565b3480156103f957600080fd5b50639638c59e54610276565b34801561041157600080fd5b506102766104203660046119ec565b6109ab565b34801561043157600080fd5b5061023f61044036600461194e565b610a0b565b34801561045157600080fd5b506104656104603660046119ec565b610a15565b6040516101c99190611b15565b34801561047e57600080fd5b506101e7610a6e565b34801561049357600080fd5b506104656104a2366004611b4d565b610a86565b3480156104b357600080fd5b5061023f6104c236600461194e565b610a93565b3480156104d357600080fd5b5061023f6104e2366004611b80565b610a9d565b3480156104f357600080fd5b50610276610b1a565b61023f61050a366004611bc7565b610b29565b34801561051b57600080fd5b5061039361052a36600461191e565b610b6a565b34801561053b57600080fd5b506101e761054a36600461191e565b610bcf565b34801561055b57600080fd5b50610276610c57565b34801561057057600080fd5b50610276610c61565b34801561058557600080fd5b506328f7503254610276565b34801561059d57600080fd5b506101bd6105ac366004611ca3565b610c6b565b60006301ffc9a760e01b6001600160e01b0319831614806105e257506380ac58cd60e01b6001600160e01b03198316145b806105fd5750635b5e139f60e01b6001600160e01b03198316145b92915050565b606061060d610ca8565b600201805461061b90611cd6565b80601f016020809104026020016040519081016040528092919081815260200182805461064790611cd6565b80156106945780601f1061066957610100808354040283529160200191610694565b820191906000526020600020905b81548152906001019060200180831161067757829003601f168201915b5050505050905090565b60006106a982610ccc565b6106bd576106bd6333d1c03960e21b610d62565b6106c5610ca8565b60009283526006016020525060409020546001600160a01b031690565b6106ee82826001610d6c565b5050565b6106ee8282610e1d565b6000610706610e84565b61070e610ca8565b6001015461071a610ca8565b540303905060001961072a610e92565b1461073d57610737610ca8565b60080154015b90565b600061074b82610ea0565b6001600160a01b0394851694909150811684146107715761077162a1148160e81b610d62565b60008061077d84610f9b565b915091506107a2818761078d3390565b6001600160a01b039081169116811491141790565b6107c4576107b08633610c6b565b6107c4576107c4632ce44b5f60e11b610d62565b80156107cf57600082555b6107d7610ca8565b6001600160a01b0387166000908152600591909101602052604090208054600019019055610803610ca8565b6001600160a01b0386166000908152600591909101602052604090208054600101905561084085610835888287610fc3565b600160e11b17610fd3565b610848610ca8565b60008681526004919091016020526040812091909155600160e11b841690036108be5760018401610877610ca8565b6000828152600491909101602052604081205490036108bc57610898610ca8565b5481146108bc57836108a8610ca8565b600083815260049190910160205260409020555b505b6001600160a01b038516848188600080516020611dbf833981519152600080a4806000036108f6576108f6633a954ecd60e21b610d62565b50505050505050565b60006105fd82610fe8565b61092583838360405180602001604052806000815250610b29565b505050565b61093581600161102e565b50565b60006105fd82610ccc565b61094b611861565b6105fd8261119b565b60408051828152600583901b8082016020019092526060915b801561099857601f198082019186010135600061098982610b6a565b848401602001525061096d9050565b509392505050565b60006105fd82610ea0565b60006001600160a01b0382166109cb576109cb6323d3ad8160e21b610d62565b67ffffffffffffffff6109dc610ca8565b6005016000846001600160a01b03166001600160a01b0316815260200190815260200160002054169050919050565b6106ee82826111b4565b6060600019610a22610e92565b14610a3757610a3763bdba09d760e01b610d62565b6000610a41610e84565b90506000610a4d6111ce565b90506060818314610a6657610a638584846111de565b90505b949350505050565b6060610a78610ca8565b600301805461061b90611cd6565b6060610a668484846111de565b6106ee828261134e565b80610aa6610ca8565b336000818152600792909201602090815260408084206001600160a01b03881680865290835293819020805460ff19169515159590951790945592518415158152919290917f17307eab39ab6107e8899845ad3d59bd9653f200f220920489ca2b5937696c31910160405180910390a35050565b6000610b24611368565b905090565b610b34848484610740565b6001600160a01b0383163b15610b6457610b5084848484611389565b610b6457610b646368d2bf6b60e11b610d62565b50505050565b610b72611861565b610b7a610e84565b8210610bca57610b88610e92565b821115610b98576105fd8261146b565b610ba06111ce565b821015610bca575b610bb182611496565b610bc15760001990910190610ba8565b6105fd8261146b565b919050565b6060610bda82610ccc565b610bee57610bee630a14c4b560e41b610d62565b6000610c0560408051602081019091526000815290565b90508051600003610c255760405180602001604052806000815250610c50565b80610c2f846114b6565b604051602001610c40929190611d10565b6040516020818303038152906040525b9392505050565b6000610b246114fa565b6000610b2461150d565b6000610c75610ca8565b6001600160a01b039384166000908152600791909101602090815260408083209490951682529290925250205460ff1690565b7f2569078dfb4b0305704d3008e7403993ae9601b85f7ae5e742de3de8f8011c4090565b600081610cd7610e84565b11610bca57610ce4610e92565b821115610d0e576105fd610cf6610ca8565b60008481526004919091016020526040902054611520565b610d16610ca8565b54821015610bca5760005b610d29610ca8565b600084815260049190910160205260408120549150819003610d5557610d4e83611d3f565b9250610d21565b600160e01b161592915050565b8060005260046000fd5b6000610d77836109a0565b9050818015610d8f5750336001600160a01b03821614155b15610db257610d9e8133610c6b565b610db257610db26367d9dca160e11b610d62565b83610dbb610ca8565b6000858152600691909101602052604080822080546001600160a01b0319166001600160a01b0394851617905551859287811692908516917f8c5be1e5ebec7d5bd14f71427d1e84f3dd0314c0f7b2291e5b200ac8c7c3b9259190a450505050565b6000610e27610ca8565b600084815260049190910160205260408120549150819003610e5257610e5262d5815360e01b610d62565b6001600160e81b031660e882901b178181610e6b610ca8565b6000958652600401602052604090942093909355505050565b6000610b246328f750325490565b6000610b24639638c59e5490565b600081610eab610e84565b11610f8b57610eb8610ca8565b600083815260049190910160205260409020549050610ed5610e92565b821115610eff57610ee581611520565b15610eef57919050565b610eff636f96cda160e11b610d62565b80600003610f7857610f0f610ca8565b548210610f2657610f26636f96cda160e11b610d62565b610f2e610ca8565b600019909201600081815260049390930160205260409092205490508015610f2657600160e01b8116600003610f6357919050565b610f73636f96cda160e11b610d62565b610f26565b600160e01b8116600003610f8b57919050565b610bca636f96cda160e11b610d62565b6000806000610fa8610ca8565b60009485526006016020525050604090912080549092909150565b6001600160e81b03191692915050565b4260a01b176001600160a01b03919091161790565b600067ffffffffffffffff6080610ffd610ca8565b6005016000856001600160a01b03166001600160a01b0316815260200190815260200160002054901c169050919050565b600061103983610ea0565b90508060008061104886610f9b565b91509150841561107f5761105d81843361078d565b61107f5761106b8333610c6b565b61107f5761107f632ce44b5f60e11b610d62565b801561108a57600082555b6001600160801b0361109a610ca8565b6001600160a01b03851660009081526005919091016020526040812080549092019091556110db9084906110d090829088610fc3565b600360e01b17610fd3565b6110e3610ca8565b60008881526004919091016020526040812091909155600160e11b851690036111595760018601611112610ca8565b60008281526004919091016020526040812054900361115757611133610ca8565b5481146111575784611143610ca8565b600083815260049190910160205260409020555b505b60405186906000906001600160a01b03861690600080516020611dbf833981519152908390a4611187610ca8565b600190810180549091019055505050505050565b6111a3611861565b6105fd6111af83610ea0565b611536565b6106ee82826040518060200160405280600081525061157a565b60006111d8610ca8565b54919050565b60608183106111f7576111f7631960ccad60e11b610d62565b6111ff610e84565b8310156112115761120e610e84565b92505b600061121b6111ce565b9050600060001961122a610e92565b036112355781611237565b835b9050808410611244578093505b600061124f876109ab565b905084861061125c575060005b801561134457808686031161127057508484035b604080516001830160051b8101918290529450600061128e88610b6a565b90506000816040015161129f575080515b60005b6000196112ad610e92565b146112db57868a036112c7576112c1610e92565b60010199505b6112cf610e92565b8a11156112db57600091505b6112e48a61146b565b92506040830151600081146112fc5760009250611321565b83511561130857835192505b8b831860601b611321576001820191508a8260051b8a01525b5060018a01995083604052888a148061133957508481145b156112a25787525050505b5050509392505050565b6106ee8282604051806020016040528060008152506115dc565b6000611372610e84565b61137a610ca8565b5403905060001961072a610e92565b604051630a85bd0160e11b81526000906001600160a01b0385169063150b7a02906113be903390899088908890600401611d64565b6020604051808303816000875af19250505080156113f9575060408051601f3d908101601f191682019092526113f691810190611da1565b60015b61144e573d808015611427576040519150601f19603f3d011682016040523d82523d6000602084013e61142c565b606091505b508051600003611446576114466368d2bf6b60e11b610d62565b805181602001fd5b6001600160e01b031916630a85bd0160e11b149050949350505050565b611473611861565b6105fd61147e610ca8565b60008481526004919091016020526040902054611536565b60006114a0610ca8565b6000928352600401602052506040902054151590565b606060a06040510180604052602081039150506000815280825b600183039250600a81066030018353600a9004806114d05750819003601f19909101908152919050565b6000611504610ca8565b60080154905090565b6000611517610ca8565b60010154905090565b600160e01b81166001600160a01b039091161190565b61153e611861565b6001600160a01b038216815267ffffffffffffffff60a083901c166020820152600160e01b82161515604082015260e89190911c606082015290565b6115848383611650565b6001600160a01b0383163b1561092557600061159e610ca8565b6008015490506115b16000858585611389565b6115c5576115c56368d2bf6b60e11b610d62565b806115ce610ca8565b6008015414610b6457600080fd5b6115e68383611757565b6001600160a01b0383163b15610925576000611600610ca8565b5490508281035b61161a6000868380600101945086611389565b61162e5761162e6368d2bf6b60e11b610d62565b818110611607578161163e610ca8565b541461164957600080fd5b5050505050565b611658610e92565b811161166e5761166e63149284b360e21b610d62565b6000611678610ca8565b60008381526004919091016020526040902054905061169681611520565b156116ab576116ab63c991cbb160e01b610d62565b6116c18361083560008685610fc3565b17610fd3565b6116c9610ca8565b60008481526004919091016020526040902055680100000000000000016116ee610ca8565b6001600160a01b038516600081815260059290920160205260408220805490930190925581900361172857611728622e076360e81b610d62565b82816000600080516020611dbf833981519152600080a4611747610ca8565b6008018054600101905550505050565b6000611761610ca8565b549050600082900361177d5761177d63b562e8dd60e01b610d62565b61179a8361178e6000866000610fc3565b6001851460e11b6116bb565b6117a2610ca8565b600083815260049190910160205260409020556801000000000000000182026117c9610ca8565b6001600160a01b038516600081815260059290920160205260408220805490930190925581900361180357611803622e076360e81b610d62565b8183018261180f610e92565b600183031115611829576118296340b23f1d60e11b610d62565b5b80836000600080516020611dbf833981519152600080a481816001019150810361182a5781611857610ca8565b5550610925915050565b60408051608081018252600080825260208201819052918101829052606081019190915290565b6001600160e01b03198116811461093557600080fd5b6000602082840312156118b057600080fd5b8135610c5081611888565b60005b838110156118d65781810151838201526020016118be565b50506000910152565b600081518084526118f78160208601602086016118bb565b601f01601f19169290920160200192915050565b602081526000610c5060208301846118df565b60006020828403121561193057600080fd5b5035919050565b80356001600160a01b0381168114610bca57600080fd5b6000806040838503121561196157600080fd5b61196a83611937565b946020939093013593505050565b6000806040838503121561198b57600080fd5b82359150602083013562ffffff811681146119a557600080fd5b809150509250929050565b6000806000606084860312156119c557600080fd5b6119ce84611937565b92506119dc60208501611937565b9150604084013590509250925092565b6000602082840312156119fe57600080fd5b610c5082611937565b80516001600160a01b0316825260208082015167ffffffffffffffff169083015260408082015115159083015260609081015162ffffff16910152565b608081016105fd8284611a07565b60008060208385031215611a6557600080fd5b823567ffffffffffffffff80821115611a7d57600080fd5b818501915085601f830112611a9157600080fd5b813581811115611aa057600080fd5b8660208260051b8501011115611ab557600080fd5b60209290920196919550909350505050565b6020808252825182820181905260009190848201906040850190845b81811015611b0957611af6838551611a07565b9284019260809290920191600101611ae3565b50909695505050505050565b6020808252825182820181905260009190848201906040850190845b81811015611b0957835183529284019291840191600101611b31565b600080600060608486031215611b6257600080fd5b611b6b84611937565b95602085013595506040909401359392505050565b60008060408385031215611b9357600080fd5b611b9c83611937565b9150602083013580151581146119a557600080fd5b634e487b7160e01b600052604160045260246000fd5b60008060008060808587031215611bdd57600080fd5b611be685611937565b9350611bf460208601611937565b925060408501359150606085013567ffffffffffffffff80821115611c1857600080fd5b818701915087601f830112611c2c57600080fd5b813581811115611c3e57611c3e611bb1565b604051601f8201601f19908116603f01168101908382118183101715611c6657611c66611bb1565b816040528281528a6020848701011115611c7f57600080fd5b82602086016020830137600060208483010152809550505050505092959194509250565b60008060408385031215611cb657600080fd5b611cbf83611937565b9150611ccd60208401611937565b90509250929050565b600181811c90821680611cea57607f821691505b602082108103611d0a57634e487b7160e01b600052602260045260246000fd5b50919050565b60008351611d228184602088016118bb565b835190830190611d368183602088016118bb565b01949350505050565b600081611d5c57634e487b7160e01b600052601160045260246000fd5b506000190190565b6001600160a01b0385811682528416602082015260408101839052608060608201819052600090611d97908301846118df565b9695505050505050565b600060208284031215611db357600080fd5b8151610c508161188856feddf252ad1be2c89b69c2b068fc378daa952ba7f163c4a11628f55a4df523b3efa2646970667358221220c50364dce9c6d53272e2bc6548f6366a493601be5368d5289a4d8fe3eeb7a6e564736f6c63430008180033",
  "linkReferences": {},
  "deployedLinkReferences": {}
}