{
  "_format": "hh-sol-artifact-1",
  "contractName": "DirectBurnBitSetterHelperUpgradeable",
  "sourceName": "contracts/ERC721A-Upgradeable/contracts/mocks/DirectBurnBitSetterHelperUpgradeable.sol",
  "abi": [
    {
      "inputs": [
        {
          "internalType": "uint256",
          "name": "index",
          "type": "uint256"
        }
      ],
      "name": "directSetBurnBit",
      "outputs": [],
      "stateMutability": "nonpayable",
      "type": "function"
    }
  ],
  "bytecode": "0x608060405234801561001057600080fd5b50610163806100206000396000f3fe608060405234801561001057600080fd5b506004361061002b5760003560e01c80634b6c5d8c14610030575b600080fd5b61004a60048036038101906100459190610100565b61004c565b005b60007f2569078dfb4b0305704d3008e7403993ae9601b85f7ae5e742de3de8f8011c40905060007c01000000000000000000000000000000000000000000000000000000009050600460205282600052604060002081815417815560048301602052836000526040600020905081815417815550505050565b600080fd5b6000819050919050565b6100dd816100ca565b81146100e857600080fd5b50565b6000813590506100fa816100d4565b92915050565b600060208284031215610116576101156100c5565b5b6000610124848285016100eb565b9150509291505056fea2646970667358221220b2b2f84353a860c57e8398f7941801270df9d14604435046bd75989f000ef20e64736f6c63430008180033",
  "linkReferences": {},
  "deployedLinkReferences": {}
}