{
  "_format": "hh-sol-artifact-1",
  "contractName": "ERC721AWithERC2309MockUpgradeable",
  "sourceName": "contracts/ERC721A-Upgradeable/contracts/mocks/ERC721AWithERC2309MockUpgradeable.sol",
  "abi": [
    {
      "inputs": [],
      "name": "ApprovalCallerNotOwnerNorApproved",
      "type": "error"
    },
    {
      "inputs": [],
      "name": "ApprovalQueryForNonexistentToken",
      "type": "error"
    },
    {
      "inputs": [],
      "name": "BalanceQueryForZeroAddress",
      "type": "error"
    },
    {
      "inputs": [],
      "name": "MintERC2309QuantityExceedsLimit",
      "type": "error"
    },
    {
      "inputs": [],
      "name": "MintToZeroAddress",
      "type": "error"
    },
    {
      "inputs": [],
      "name": "MintZeroQuantity",
      "type": "error"
    },
    {
      "inputs": [],
      "name": "NotCompatibleWithSpotMints",
      "type": "error"
    },
    {
      "inputs": [],
      "name": "OwnerQueryForNonexistentToken",
      "type": "error"
    },
    {
      "inputs": [],
      "name": "OwnershipNotInitializedForExtraData",
      "type": "error"
    },
    {
      "inputs": [],
      "name": "SequentialMintExceedsLimit",
      "type": "error"
    },
    {
      "inputs": [],
      "name": "SequentialUpToTooSmall",
      "type": "error"
    },
    {
      "inputs": [],
      "name": "SpotMintTokenIdTooSmall",
      "type": "error"
    },
    {
      "inputs": [],
      "name": "TokenAlreadyExists",
      "type": "error"
    },
    {
      "inputs": [],
      "name": "TransferCallerNotOwnerNorApproved",
      "type": "error"
    },
    {
      "inputs": [],
      "name": "TransferFromIncorrectOwner",
      "type": "error"
    },
    {
      "inputs": [],
      "name": "TransferToNonERC721ReceiverImplementer",
      "type": "error"
    },
    {
      "inputs": [],
      "name": "TransferToZeroAddress",
      "type": "error"
    },
    {
      "inputs": [],
      "name": "URIQueryForNonexistentToken",
      "type": "error"
    },
    {
      "anonymous": false,
      "inputs": [
        {
          "indexed": true,
          "internalType": "address",
          "name": "owner",
          "type": "address"
        },
        {
          "indexed": true,
          "internalType": "address",
          "name": "approved",
          "type": "address"
        },
        {
          "indexed": true,
          "internalType": "uint256",
          "name": "tokenId",
          "type": "uint256"
        }
      ],
      "name": "Approval",
      "type": "event"
    },
    {
      "anonymous": false,
      "inputs": [
        {
          "indexed": true,
          "internalType": "address",
          "name": "owner",
          "type": "address"
        },
        {
          "indexed": true,
          "internalType": "address",
          "name": "operator",
          "type": "address"
        },
        {
          "indexed": false,
          "internalType": "bool",
          "name": "approved",
          "type": "bool"
        }
      ],
      "name": "ApprovalForAll",
      "type": "event"
    },
    {
      "anonymous": false,
      "inputs": [
        {
          "indexed": true,
          "internalType": "uint256",
          "name": "fromTokenId",
          "type": "uint256"
        },
        {
          "indexed": false,
          "internalType": "uint256",
          "name": "toTokenId",
          "type": "uint256"
        },
        {
          "indexed": true,
          "internalType": "address",
          "name": "from",
          "type": "address"
        },
        {
          "indexed": true,
          "internalType": "address",
          "name": "to",
          "type": "address"
        }
      ],
      "name": "ConsecutiveTransfer",
      "type": "event"
    },
    {
      "anonymous": false,
      "inputs": [
        {
          "indexed": true,
          "internalType": "address",
          "name": "from",
          "type": "address"
        },
        {
          "indexed": true,
          "internalType": "address",
          "name": "to",
          "type": "address"
        },
        {
          "indexed": true,
          "internalType": "uint256",
          "name": "tokenId",
          "type": "uint256"
        }
      ],
      "name": "Transfer",
      "type": "event"
    },
    {
      "inputs": [
        {
          "internalType": "address",
          "name": "to",
          "type": "address"
        },
        {
          "internalType": "uint256",
          "name": "tokenId",
          "type": "uint256"
        }
      ],
      "name": "approve",
      "outputs": [],
      "stateMutability": "payable",
      "type": "function"
    },
    {
      "inputs": [
        {
          "internalType": "address",
          "name": "owner",
          "type": "address"
        }
      ],
      "name": "balanceOf",
      "outputs": [
        {
          "internalType": "uint256",
          "name": "",
          "type": "uint256"
        }
      ],
      "stateMutability": "view",
      "type": "function"
    },
    {
      "inputs": [
        {
          "internalType": "uint256",
          "name": "tokenId",
          "type": "uint256"
        }
      ],
      "name": "getApproved",
      "outputs": [
        {
          "internalType": "address",
          "name": "",
          "type": "address"
        }
      ],
      "stateMutability": "view",
      "type": "function"
    },
    {
      "inputs": [
        {
          "internalType": "address",
          "name": "owner",
          "type": "address"
        },
        {
          "internalType": "address",
          "name": "operator",
          "type": "address"
        }
      ],
      "name": "isApprovedForAll",
      "outputs": [
        {
          "internalType": "bool",
          "name": "",
          "type": "bool"
        }
      ],
      "stateMutability": "view",
      "type": "function"
    },
    {
      "inputs": [
        {
          "internalType": "address",
          "name": "to",
          "type": "address"
        }
      ],
      "name": "mintOneERC2309",
      "outputs": [],
      "stateMutability": "nonpayable",
      "type": "function"
    },
    {
      "inputs": [
        {
          "internalType": "address",
          "name": "to",
          "type": "address"
        }
      ],
      "name": "mintTenERC2309",
      "outputs": [],
      "stateMutability": "nonpayable",
      "type": "function"
    },
    {
      "inputs": [],
      "name": "name",
      "outputs": [
        {
          "internalType": "string",
          "name": "",
          "type": "string"
        }
      ],
      "stateMutability": "view",
      "type": "function"
    },
    {
      "inputs": [
        {
          "internalType": "uint256",
          "name": "tokenId",
          "type": "uint256"
        }
      ],
      "name": "ownerOf",
      "outputs": [
        {
          "internalType": "address",
          "name": "",
          "type": "address"
        }
      ],
      "stateMutability": "view",
      "type": "function"
    },
    {
      "inputs": [
        {
          "internalType": "address",
          "name": "from",
          "type": "address"
        },
        {
          "internalType": "address",
          "name": "to",
          "type": "address"
        },
        {
          "internalType": "uint256",
          "name": "tokenId",
          "type": "uint256"
        }
      ],
      "name": "safeTransferFrom",
      "outputs": [],
      "stateMutability": "payable",
      "type": "function"
    },
    {
      "inputs": [
        {
          "internalType": "address",
          "name": "from",
          "type": "address"
        },
        {
          "internalType": "address",
          "name": "to",
          "type": "address"
        },
        {
          "internalType": "uint256",
          "name": "tokenId",
          "type": "uint256"
        },
        {
          "internalType": "bytes",
          "name": "_data",
          "type": "bytes"
        }
      ],
      "name": "safeTransferFrom",
      "outputs": [],
      "stateMutability": "payable",
      "type": "function"
    },
    {
      "inputs": [
        {
          "internalType": "address",
          "name": "operator",
          "type": "address"
        },
        {
          "internalType": "bool",
          "name": "approved",
          "type": "bool"
        }
      ],
      "name": "setApprovalForAll",
      "outputs": [],
      "stateMutability": "nonpayable",
      "type": "function"
    },
    {
      "inputs": [
        {
          "internalType": "bytes4",
          "name": "interfaceId",
          "type": "bytes4"
        }
      ],
      "name": "supportsInterface",
      "outputs": [
        {
          "internalType": "bool",
          "name": "",
          "type": "bool"
        }
      ],
      "stateMutability": "view",
      "type": "function"
    },
    {
      "inputs": [],
      "name": "symbol",
      "outputs": [
        {
          "internalType": "string",
          "name": "",
          "type": "string"
        }
      ],
      "stateMutability": "view",
      "type": "function"
    },
    {
      "inputs": [
        {
          "internalType": "uint256",
          "name": "tokenId",
          "type": "uint256"
        }
      ],
      "name": "tokenURI",
      "outputs": [
        {
          "internalType": "string",
          "name": "",
          "type": "string"
        }
      ],
      "stateMutability": "view",
      "type": "function"
    },
    {
      "inputs": [],
      "name": "totalSupply",
      "outputs": [
        {
          "internalType": "uint256",
          "name": "result",
          "type": "uint256"
        }
      ],
      "stateMutability": "view",
      "type": "function"
    },
    {
      "inputs": [
        {
          "internalType": "address",
          "name": "from",
          "type": "address"
        },
        {
          "internalType": "address",
          "name": "to",
          "type": "address"
        },
        {
          "internalType": "uint256",
          "name": "tokenId",
          "type": "uint256"
        }
      ],
      "name": "transferFrom",
      "outputs": [],
      "stateMutability": "payable",
      "type": "function"
    }
  ],
  "bytecode": "0x608060405234801561001057600080fd5b50611d16806100206000396000f3fe6080604052600436106100f35760003560e01c806370a082311161008a578063ad46468f11610059578063ad46468f14610313578063b88d4fde1461033c578063c87b56dd14610358578063e985e9c514610395576100f3565b806370a082311461025957806394cfadd71461029657806395d89b41146102bf578063a22cb465146102ea576100f3565b806318160ddd116100c657806318160ddd146101b957806323b872dd146101e457806342842e0e146102005780636352211e1461021c576100f3565b806301ffc9a7146100f857806306fdde0314610135578063081812fc14610160578063095ea7b31461019d575b600080fd5b34801561010457600080fd5b5061011f600480360381019061011a9190611597565b6103d2565b60405161012c91906115df565b60405180910390f35b34801561014157600080fd5b5061014a610464565b604051610157919061168a565b60405180910390f35b34801561016c57600080fd5b50610187600480360381019061018291906116e2565b6104ff565b6040516101949190611750565b60405180910390f35b6101b760048036038101906101b29190611797565b610566565b005b3480156101c557600080fd5b506101ce610576565b6040516101db91906117e6565b60405180910390f35b6101fe60048036038101906101f99190611801565b6105de565b005b61021a60048036038101906102159190611801565b6108d5565b005b34801561022857600080fd5b50610243600480360381019061023e91906116e2565b6108f5565b6040516102509190611750565b60405180910390f35b34801561026557600080fd5b50610280600480360381019061027b9190611854565b610907565b60405161028d91906117e6565b60405180910390f35b3480156102a257600080fd5b506102bd60048036038101906102b89190611854565b6109a7565b005b3480156102cb57600080fd5b506102d46109b5565b6040516102e1919061168a565b60405180910390f35b3480156102f657600080fd5b50610311600480360381019061030c91906118ad565b610a50565b005b34801561031f57600080fd5b5061033a60048036038101906103359190611854565b610b64565b005b61035660048036038101906103519190611a22565b610b72565b005b34801561036457600080fd5b5061037f600480360381019061037a91906116e2565b610bc4565b60405161038c919061168a565b60405180910390f35b3480156103a157600080fd5b506103bc60048036038101906103b79190611aa5565b610c41565b6040516103c991906115df565b60405180910390f35b60006301ffc9a760e01b827bffffffffffffffffffffffffffffffffffffffffffffffffffffffff1916148061042d57506380ac58cd60e01b827bffffffffffffffffffffffffffffffffffffffffffffffffffffffff1916145b8061045d5750635b5e139f60e01b827bffffffffffffffffffffffffffffffffffffffffffffffffffffffff1916145b9050919050565b606061046e610cde565b600201805461047c90611b14565b80601f01602080910402602001604051908101604052809291908181526020018280546104a890611b14565b80156104f55780601f106104ca576101008083540402835291602001916104f5565b820191906000526020600020905b8154815290600101906020018083116104d857829003601f168201915b5050505050905090565b600061050a82610d0b565b61051f5761051e63cf4700e460e01b610dd2565b5b610527610cde565b600601600083815260200190815260200160002060000160009054906101000a900473ffffffffffffffffffffffffffffffffffffffff169050919050565b61057282826001610ddc565b5050565b6000610580610f14565b610588610cde565b60010154610594610cde565b60000154030390507fffffffffffffffffffffffffffffffffffffffffffffffffffffffffffffffff6105c5610f19565b146105db576105d2610cde565b60080154810190505b90565b60006105e982610f41565b905073ffffffffffffffffffffffffffffffffffffffff8473ffffffffffffffffffffffffffffffffffffffff161693508373ffffffffffffffffffffffffffffffffffffffff168173ffffffffffffffffffffffffffffffffffffffff161461065e5761065d63a114810060e01b610dd2565b5b60008061066a84611075565b91509150610680818761067b6110a5565b6110ad565b6106ab57610695866106906110a5565b610c41565b6106aa576106a96359c896be60e01b610dd2565b5b5b6106b886868660016110f1565b80156106c357600082555b6106cb610cde565b60050160008773ffffffffffffffffffffffffffffffffffffffff1673ffffffffffffffffffffffffffffffffffffffff168152602001908152602001600020600081546001900391905081905550610722610cde565b60050160008673ffffffffffffffffffffffffffffffffffffffff1673ffffffffffffffffffffffffffffffffffffffff16815260200190815260200160002060008154600101919050819055506107a38561077f8888876110f7565b7c02000000000000000000000000000000000000000000000000000000001761111f565b6107ab610cde565b60040160008681526020019081526020016000208190555060007c020000000000000000000000000000000000000000000000000000000084160361084d57600060018501905060006107fc610cde565b6004016000838152602001908152602001600020540361084b5761081e610cde565b60000154811461084a5783610831610cde565b6004016000838152602001908152602001600020819055505b5b505b600073ffffffffffffffffffffffffffffffffffffffff8673ffffffffffffffffffffffffffffffffffffffff161690508481887fddf252ad1be2c89b69c2b068fc378daa952ba7f163c4a11628f55a4df523b3ef600080a4600081036108bf576108be63ea553b3460e01b610dd2565b5b6108cc878787600161114a565b50505050505050565b6108f083838360405180602001604052806000815250610b72565b505050565b600061090082610f41565b9050919050565b60008073ffffffffffffffffffffffffffffffffffffffff168273ffffffffffffffffffffffffffffffffffffffff160361094d5761094c638f4eb60460e01b610dd2565b5b67ffffffffffffffff61095e610cde565b60050160008473ffffffffffffffffffffffffffffffffffffffff1673ffffffffffffffffffffffffffffffffffffffff16815260200190815260200160002054169050919050565b6109b2816001611150565b50565b60606109bf610cde565b60030180546109cd90611b14565b80601f01602080910402602001604051908101604052809291908181526020018280546109f990611b14565b8015610a465780601f10610a1b57610100808354040283529160200191610a46565b820191906000526020600020905b815481529060010190602001808311610a2957829003601f168201915b5050505050905090565b80610a59610cde565b6007016000610a666110a5565b73ffffffffffffffffffffffffffffffffffffffff1673ffffffffffffffffffffffffffffffffffffffff16815260200190815260200160002060008473ffffffffffffffffffffffffffffffffffffffff1673ffffffffffffffffffffffffffffffffffffffff16815260200190815260200160002060006101000a81548160ff0219169083151502179055508173ffffffffffffffffffffffffffffffffffffffff16610b136110a5565b73ffffffffffffffffffffffffffffffffffffffff167f17307eab39ab6107e8899845ad3d59bd9653f200f220920489ca2b5937696c3183604051610b5891906115df565b60405180910390a35050565b610b6f81600a611150565b50565b610b7d8484846105de565b60008373ffffffffffffffffffffffffffffffffffffffff163b14610bbe57610ba88484848461133b565b610bbd57610bbc63d1a57ed660e01b610dd2565b5b5b50505050565b6060610bcf82610d0b565b610be457610be363a14c4b5060e01b610dd2565b5b6000610bee61146a565b90506000815103610c0e5760405180602001604052806000815250610c39565b80610c1884611481565b604051602001610c29929190611b81565b6040516020818303038152906040525b915050919050565b6000610c4b610cde565b60070160008473ffffffffffffffffffffffffffffffffffffffff1673ffffffffffffffffffffffffffffffffffffffff16815260200190815260200160002060008373ffffffffffffffffffffffffffffffffffffffff1673ffffffffffffffffffffffffffffffffffffffff16815260200190815260200160002060009054906101000a900460ff16905092915050565b6000807f2569078dfb4b0305704d3008e7403993ae9601b85f7ae5e742de3de8f8011c4090508091505090565b600081610d16610f14565b11610dcc57610d23610f19565b821115610d5657610d4f610d35610cde565b6004016000848152602001908152602001600020546114d1565b9050610dcd565b610d5e610cde565b60000154821015610dcb5760005b6000610d76610cde565b60040160008581526020019081526020016000205491508103610da45782610d9d90611bd4565b9250610d6c565b60007c01000000000000000000000000000000000000000000000000000000008216149150505b5b5b919050565b8060005260046000fd5b6000610de7836108f5565b9050818015610e2957508073ffffffffffffffffffffffffffffffffffffffff16610e106110a5565b73ffffffffffffffffffffffffffffffffffffffff1614155b15610e5557610e3f81610e3a6110a5565b610c41565b610e5457610e5363cfb3b94260e01b610dd2565b5b5b83610e5e610cde565b600601600085815260200190815260200160002060000160006101000a81548173ffffffffffffffffffffffffffffffffffffffff021916908373ffffffffffffffffffffffffffffffffffffffff160217905550828473ffffffffffffffffffffffffffffffffffffffff168273ffffffffffffffffffffffffffffffffffffffff167f8c5be1e5ebec7d5bd14f71427d1e84f3dd0314c0f7b2291e5b200ac8c7c3b92560405160405180910390a450505050565b600090565b60007fffffffffffffffffffffffffffffffffffffffffffffffffffffffffffffffff905090565b600081610f4c610f14565b1161105f57610f59610cde565b6004016000838152602001908152602001600020549050610f78610f19565b821115610f9d57610f88816114d1565b61107057610f9c63df2d9b4260e01b610dd2565b5b6000810361103657610fad610cde565b600001548210610fc857610fc763df2d9b4260e01b610dd2565b5b5b610fd1610cde565b60040160008360019003935083815260200190815260200160002054905060008103156110315760007c0100000000000000000000000000000000000000000000000000000000821603156110705761103063df2d9b4260e01b610dd2565b5b610fc9565b60007c010000000000000000000000000000000000000000000000000000000082160315611070575b61106f63df2d9b4260e01b610dd2565b5b919050565b6000806000611082610cde565b600601600085815260200190815260200160002090508092508254915050915091565b600033905090565b600073ffffffffffffffffffffffffffffffffffffffff8316925073ffffffffffffffffffffffffffffffffffffffff821691508382148383141790509392505050565b50505050565b60008060e883901c905060e861110e868684611512565b62ffffff16901b9150509392505050565b600073ffffffffffffffffffffffffffffffffffffffff83169250814260a01b178317905092915050565b50505050565b600061115a610cde565b600001549050600073ffffffffffffffffffffffffffffffffffffffff168373ffffffffffffffffffffffffffffffffffffffff16036111a5576111a4632e07630060e01b610dd2565b5b600082036111be576111bd63b562e8dd60e01b610dd2565b5b6113888211156111d9576111d8633db1f9af60e01b610dd2565b5b6111e660008483856110f1565b600160406001901b1782026111f9610cde565b60050160008573ffffffffffffffffffffffffffffffffffffffff1673ffffffffffffffffffffffffffffffffffffffff168152602001908152602001600020600082825401925050819055506112668361125760008660006110f7565b6112608561151b565b1761111f565b61126e610cde565b60040160008381526020019081526020016000208190555061128e610f19565b60018383010311156112ab576112aa6381647e3a60e01b610dd2565b5b8273ffffffffffffffffffffffffffffffffffffffff16600073ffffffffffffffffffffffffffffffffffffffff16827fdeaa91b6123d068f5821d0fb0678463d1a8a6079fe8af5de3ce5e896dcf9133d60018686010360405161130f91906117e6565b60405180910390a4818101611322610cde565b60000181905550611336600084838561114a565b505050565b60008373ffffffffffffffffffffffffffffffffffffffff1663150b7a026113616110a5565b8786866040518563ffffffff1660e01b81526004016113839493929190611c52565b6020604051808303816000875af19250505080156113bf57506040513d601f19601f820116820180604052508101906113bc9190611cb3565b60015b611417573d80600081146113ef576040519150601f19603f3d011682016040523d82523d6000602084013e6113f4565b606091505b50600081510361140f5761140e63d1a57ed660e01b610dd2565b5b805181602001fd5b63150b7a0260e01b7bffffffffffffffffffffffffffffffffffffffffffffffffffffffff1916817bffffffffffffffffffffffffffffffffffffffffffffffffffffffff191614915050949350505050565b606060405180602001604052806000815250905090565b606060a060405101806040526020810391506000825281835b6001156114bc57600184039350600a81066030018453600a810490508061149a575b50828103602084039350808452505050919050565b60007c0100000000000000000000000000000000000000000000000000000000821673ffffffffffffffffffffffffffffffffffffffff8316119050919050565b60009392505050565b60006001821460e11b9050919050565b6000604051905090565b600080fd5b600080fd5b60007fffffffff0000000000000000000000000000000000000000000000000000000082169050919050565b6115748161153f565b811461157f57600080fd5b50565b6000813590506115918161156b565b92915050565b6000602082840312156115ad576115ac611535565b5b60006115bb84828501611582565b91505092915050565b60008115159050919050565b6115d9816115c4565b82525050565b60006020820190506115f460008301846115d0565b92915050565b600081519050919050565b600082825260208201905092915050565b60005b83811015611634578082015181840152602081019050611619565b60008484015250505050565b6000601f19601f8301169050919050565b600061165c826115fa565b6116668185611605565b9350611676818560208601611616565b61167f81611640565b840191505092915050565b600060208201905081810360008301526116a48184611651565b905092915050565b6000819050919050565b6116bf816116ac565b81146116ca57600080fd5b50565b6000813590506116dc816116b6565b92915050565b6000602082840312156116f8576116f7611535565b5b6000611706848285016116cd565b91505092915050565b600073ffffffffffffffffffffffffffffffffffffffff82169050919050565b600061173a8261170f565b9050919050565b61174a8161172f565b82525050565b60006020820190506117656000830184611741565b92915050565b6117748161172f565b811461177f57600080fd5b50565b6000813590506117918161176b565b92915050565b600080604083850312156117ae576117ad611535565b5b60006117bc85828601611782565b92505060206117cd858286016116cd565b9150509250929050565b6117e0816116ac565b82525050565b60006020820190506117fb60008301846117d7565b92915050565b60008060006060848603121561181a57611819611535565b5b600061182886828701611782565b935050602061183986828701611782565b925050604061184a868287016116cd565b9150509250925092565b60006020828403121561186a57611869611535565b5b600061187884828501611782565b91505092915050565b61188a816115c4565b811461189557600080fd5b50565b6000813590506118a781611881565b92915050565b600080604083850312156118c4576118c3611535565b5b60006118d285828601611782565b92505060206118e385828601611898565b9150509250929050565b600080fd5b600080fd5b7f4e487b7100000000000000000000000000000000000000000000000000000000600052604160045260246000fd5b61192f82611640565b810181811067ffffffffffffffff8211171561194e5761194d6118f7565b5b80604052505050565b600061196161152b565b905061196d8282611926565b919050565b600067ffffffffffffffff82111561198d5761198c6118f7565b5b61199682611640565b9050602081019050919050565b82818337600083830152505050565b60006119c56119c084611972565b611957565b9050828152602081018484840111156119e1576119e06118f2565b5b6119ec8482856119a3565b509392505050565b600082601f830112611a0957611a086118ed565b5b8135611a198482602086016119b2565b91505092915050565b60008060008060808587031215611a3c57611a3b611535565b5b6000611a4a87828801611782565b9450506020611a5b87828801611782565b9350506040611a6c878288016116cd565b925050606085013567ffffffffffffffff811115611a8d57611a8c61153a565b5b611a99878288016119f4565b91505092959194509250565b60008060408385031215611abc57611abb611535565b5b6000611aca85828601611782565b9250506020611adb85828601611782565b9150509250929050565b7f4e487b7100000000000000000000000000000000000000000000000000000000600052602260045260246000fd5b60006002820490506001821680611b2c57607f821691505b602082108103611b3f57611b3e611ae5565b5b50919050565b600081905092915050565b6000611b5b826115fa565b611b658185611b45565b9350611b75818560208601611616565b80840191505092915050565b6000611b8d8285611b50565b9150611b998284611b50565b91508190509392505050565b7f4e487b7100000000000000000000000000000000000000000000000000000000600052601160045260246000fd5b6000611bdf826116ac565b915060008203611bf257611bf1611ba5565b5b600182039050919050565b600081519050919050565b600082825260208201905092915050565b6000611c2482611bfd565b611c2e8185611c08565b9350611c3e818560208601611616565b611c4781611640565b840191505092915050565b6000608082019050611c676000830187611741565b611c746020830186611741565b611c8160408301856117d7565b8181036060830152611c938184611c19565b905095945050505050565b600081519050611cad8161156b565b92915050565b600060208284031215611cc957611cc8611535565b5b6000611cd784828501611c9e565b9150509291505056fea2646970667358221220209569435de66fcc9482be5827bcd0204e54b124d585047a2ecfc6a9db6925c764736f6c63430008180033",
  "linkReferences": {},
  "deployedLinkReferences": {}
}