{
  "_format": "hh-sol-artifact-1",
  "contractName": "CraftedCollection",
  "sourceName": "contracts/CraftedCollection.sol",
  "abi": [
    {
      "inputs": [],
      "name": "AccessControlBadConfirmation",
      "type": "error"
    },
    {
      "inputs": [
        {
          "internalType": "address",
          "name": "account",
          "type": "address"
        },
        {
          "internalType": "bytes32",
          "name": "neededRole",
          "type": "bytes32"
        }
      ],
      "name": "AccessControlUnauthorizedAccount",
      "type": "error"
    },
    {
      "inputs": [
        {
          "internalType": "address",
          "name": "target",
          "type": "address"
        }
      ],
      "name": "AddressEmptyCode",
      "type": "error"
    },
    {
      "inputs": [],
      "name": "ApprovalCallerNotOwnerNorApproved",
      "type": "error"
    },
    {
      "inputs": [],
      "name": "ApprovalQueryForNonexistentToken",
      "type": "error"
    },
    {
      "inputs": [],
      "name": "BalanceQueryForZeroAddress",
      "type": "error"
    },
    {
      "inputs": [
        {
          "internalType": "address",
          "name": "implementation",
          "type": "address"
        }
      ],
      "name": "ERC1967InvalidImplementation",
      "type": "error"
    },
    {
      "inputs": [],
      "name": "ERC1967NonPayable",
      "type": "error"
    },
    {
      "inputs": [
        {
          "internalType": "uint256",
          "name": "numerator",
          "type": "uint256"
        },
        {
          "internalType": "uint256",
          "name": "denominator",
          "type": "uint256"
        }
      ],
      "name": "ERC2981InvalidDefaultRoyalty",
      "type": "error"
    },
    {
      "inputs": [
        {
          "internalType": "address",
          "name": "receiver",
          "type": "address"
        }
      ],
      "name": "ERC2981InvalidDefaultRoyaltyReceiver",
      "type": "error"
    },
    {
      "inputs": [
        {
          "internalType": "uint256",
          "name": "tokenId",
          "type": "uint256"
        },
        {
          "internalType": "uint256",
          "name": "numerator",
          "type": "uint256"
        },
        {
          "internalType": "uint256",
          "name": "denominator",
          "type": "uint256"
        }
      ],
      "name": "ERC2981InvalidTokenRoyalty",
      "type": "error"
    },
    {
      "inputs": [
        {
          "internalType": "uint256",
          "name": "tokenId",
          "type": "uint256"
        },
        {
          "internalType": "address",
          "name": "receiver",
          "type": "address"
        }
      ],
      "name": "ERC2981InvalidTokenRoyaltyReceiver",
      "type": "error"
    },
    {
      "inputs": [],
      "name": "EnforcedPause",
      "type": "error"
    },
    {
      "inputs": [],
      "name": "ExpectedPause",
      "type": "error"
    },
    {
      "inputs": [],
      "name": "FailedCall",
      "type": "error"
    },
    {
      "inputs": [],
      "name": "FallbackNotAllowed",
      "type": "error"
    },
    {
      "inputs": [
        {
          "internalType": "uint256",
          "name": "balance",
          "type": "uint256"
        },
        {
          "internalType": "uint256",
          "name": "needed",
          "type": "uint256"
        }
      ],
      "name": "InsufficientBalance",
      "type": "error"
    },
    {
      "inputs": [],
      "name": "InsufficientPayment",
      "type": "error"
    },
    {
      "inputs": [],
      "name": "InvalidInitialization",
      "type": "error"
    },
    {
      "inputs": [],
      "name": "InvalidQueryRange",
      "type": "error"
    },
    {
      "inputs": [],
      "name": "InvalidToken",
      "type": "error"
    },
    {
      "inputs": [],
      "name": "MaxSupplyReached",
      "type": "error"
    },
    {
      "inputs": [],
      "name": "MaxWalletLimit",
      "type": "error"
    },
    {
      "inputs": [],
      "name": "MetadataIsFrozen",
      "type": "error"
    },
    {
      "inputs": [],
      "name": "MintERC2309QuantityExceedsLimit",
      "type": "error"
    },
    {
      "inputs": [],
      "name": "MintToZeroAddress",
      "type": "error"
    },
    {
      "inputs": [],
      "name": "MintZeroQuantity",
      "type": "error"
    },
    {
      "inputs": [],
      "name": "NotAuthorized",
      "type": "error"
    },
    {
      "inputs": [],
      "name": "NotCompatibleWithSpotMints",
      "type": "error"
    },
    {
      "inputs": [],
      "name": "NotInitializing",
      "type": "error"
    },
    {
      "inputs": [],
      "name": "OwnerQueryForNonexistentToken",
      "type": "error"
    },
    {
      "inputs": [],
      "name": "OwnershipNotInitializedForExtraData",
      "type": "error"
    },
    {
      "inputs": [],
      "name": "ReentrancyGuardReentrantCall",
      "type": "error"
    },
    {
      "inputs": [],
      "name": "SequentialMintExceedsLimit",
      "type": "error"
    },
    {
      "inputs": [],
      "name": "SequentialUpToTooSmall",
      "type": "error"
    },
    {
      "inputs": [],
      "name": "SpotMintTokenIdTooSmall",
      "type": "error"
    },
    {
      "inputs": [],
      "name": "TokenAlreadyExists",
      "type": "error"
    },
    {
      "inputs": [],
      "name": "TransferCallerNotOwnerNorApproved",
      "type": "error"
    },
    {
      "inputs": [],
      "name": "TransferFromIncorrectOwner",
      "type": "error"
    },
    {
      "inputs": [],
      "name": "TransferToNonERC721ReceiverImplementer",
      "type": "error"
    },
    {
      "inputs": [],
      "name": "TransferToZeroAddress",
      "type": "error"
    },
    {
      "inputs": [],
      "name": "URIQueryForNonexistentToken",
      "type": "error"
    },
    {
      "inputs": [],
      "name": "UUPSUnauthorizedCallContext",
      "type": "error"
    },
    {
      "inputs": [
        {
          "internalType": "bytes32",
          "name": "slot",
          "type": "bytes32"
        }
      ],
      "name": "UUPSUnsupportedProxiableUUID",
      "type": "error"
    },
    {
      "inputs": [],
      "name": "ZeroAddress",
      "type": "error"
    },
    {
      "anonymous": false,
      "inputs": [
        {
          "indexed": true,
          "internalType": "address",
          "name": "owner",
          "type": "address"
        },
        {
          "indexed": true,
          "internalType": "address",
          "name": "approved",
          "type": "address"
        },
        {
          "indexed": true,
          "internalType": "uint256",
          "name": "tokenId",
          "type": "uint256"
        }
      ],
      "name": "Approval",
      "type": "event"
    },
    {
      "anonymous": false,
      "inputs": [
        {
          "indexed": true,
          "internalType": "address",
          "name": "owner",
          "type": "address"
        },
        {
          "indexed": true,
          "internalType": "address",
          "name": "operator",
          "type": "address"
        },
        {
          "indexed": false,
          "internalType": "bool",
          "name": "approved",
          "type": "bool"
        }
      ],
      "name": "ApprovalForAll",
      "type": "event"
    },
    {
      "anonymous": false,
      "inputs": [
        {
          "indexed": false,
          "internalType": "string",
          "name": "baseURI",
          "type": "string"
        }
      ],
      "name": "BaseURISet",
      "type": "event"
    },
    {
      "anonymous": false,
      "inputs": [
        {
          "indexed": true,
          "internalType": "uint256",
          "name": "fromTokenId",
          "type": "uint256"
        },
        {
          "indexed": false,
          "internalType": "uint256",
          "name": "toTokenId",
          "type": "uint256"
        },
        {
          "indexed": true,
          "internalType": "address",
          "name": "from",
          "type": "address"
        },
        {
          "indexed": true,
          "internalType": "address",
          "name": "to",
          "type": "address"
        }
      ],
      "name": "ConsecutiveTransfer",
      "type": "event"
    },
    {
      "anonymous": false,
      "inputs": [],
      "name": "CraftingInitialized",
      "type": "event"
    },
    {
      "anonymous": false,
      "inputs": [
        {
          "indexed": false,
          "internalType": "uint64",
          "name": "version",
          "type": "uint64"
        }
      ],
      "name": "Initialized",
      "type": "event"
    },
    {
      "anonymous": false,
      "inputs": [
        {
          "indexed": false,
          "internalType": "uint256",
          "name": "newLimit",
          "type": "uint256"
        }
      ],
      "name": "MaxWalletHoldingsUpdated",
      "type": "event"
    },
    {
      "anonymous": false,
      "inputs": [
        {
          "indexed": true,
          "internalType": "uint256",
          "name": "tokenId",
          "type": "uint256"
        }
      ],
      "name": "MetadataFrozen",
      "type": "event"
    },
    {
      "anonymous": false,
      "inputs": [
        {
          "indexed": true,
          "internalType": "uint256",
          "name": "tokenId",
          "type": "uint256"
        },
        {
          "indexed": false,
          "internalType": "string",
          "name": "metadataURI",
          "type": "string"
        }
      ],
      "name": "MetadataUpdated",
      "type": "event"
    },
    {
      "anonymous": false,
      "inputs": [
        {
          "indexed": false,
          "internalType": "uint256",
          "name": "newPrice",
          "type": "uint256"
        }
      ],
      "name": "MintPriceUpdated",
      "type": "event"
    },
    {
      "anonymous": false,
      "inputs": [
        {
          "indexed": true,
          "internalType": "address",
          "name": "to",
          "type": "address"
        },
        {
          "indexed": false,
          "internalType": "uint256",
          "name": "quantity",
          "type": "uint256"
        }
      ],
      "name": "Minted",
      "type": "event"
    },
    {
      "anonymous": false,
      "inputs": [
        {
          "indexed": false,
          "internalType": "address",
          "name": "account",
          "type": "address"
        }
      ],
      "name": "Paused",
      "type": "event"
    },
    {
      "anonymous": false,
      "inputs": [
        {
          "indexed": true,
          "internalType": "address",
          "name": "sender",
          "type": "address"
        },
        {
          "indexed": false,
          "internalType": "uint256",
          "name": "amount",
          "type": "uint256"
        }
      ],
      "name": "Received",
      "type": "event"
    },
    {
      "anonymous": false,
      "inputs": [
        {
          "indexed": true,
          "internalType": "bytes32",
          "name": "role",
          "type": "bytes32"
        },
        {
          "indexed": true,
          "internalType": "bytes32",
          "name": "previousAdminRole",
          "type": "bytes32"
        },
        {
          "indexed": true,
          "internalType": "bytes32",
          "name": "newAdminRole",
          "type": "bytes32"
        }
      ],
      "name": "RoleAdminChanged",
      "type": "event"
    },
    {
      "anonymous": false,
      "inputs": [
        {
          "indexed": true,
          "internalType": "bytes32",
          "name": "role",
          "type": "bytes32"
        },
        {
          "indexed": true,
          "internalType": "address",
          "name": "account",
          "type": "address"
        },
        {
          "indexed": true,
          "internalType": "address",
          "name": "sender",
          "type": "address"
        }
      ],
      "name": "RoleGranted",
      "type": "event"
    },
    {
      "anonymous": false,
      "inputs": [
        {
          "indexed": true,
          "internalType": "bytes32",
          "name": "role",
          "type": "bytes32"
        },
        {
          "indexed": true,
          "internalType": "address",
          "name": "account",
          "type": "address"
        },
        {
          "indexed": true,
          "internalType": "address",
          "name": "sender",
          "type": "address"
        }
      ],
      "name": "RoleRevoked",
      "type": "event"
    },
    {
      "anonymous": false,
      "inputs": [
        {
          "indexed": true,
          "internalType": "uint256",
          "name": "tokenId",
          "type": "uint256"
        },
        {
          "components": [
            {
              "internalType": "string",
              "name": "code",
              "type": "string"
            },
            {
              "internalType": "string",
              "name": "artVersion",
              "type": "string"
            },
            {
              "internalType": "string",
              "name": "metadataURI",
              "type": "string"
            },
            {
              "internalType": "uint256",
              "name": "level",
              "type": "uint256"
            },
            {
              "internalType": "uint256",
              "name": "power",
              "type": "uint256"
            },
            {
              "internalType": "uint256",
              "name": "rarity",
              "type": "uint256"
            }
          ],
          "indexed": false,
          "internalType": "struct CraftedCollection.Traits",
          "name": "traits",
          "type": "tuple"
        }
      ],
      "name": "TraitsUpdated",
      "type": "event"
    },
    {
      "anonymous": false,
      "inputs": [
        {
          "indexed": true,
          "internalType": "address",
          "name": "from",
          "type": "address"
        },
        {
          "indexed": true,
          "internalType": "address",
          "name": "to",
          "type": "address"
        },
        {
          "indexed": true,
          "internalType": "uint256",
          "name": "tokenId",
          "type": "uint256"
        }
      ],
      "name": "Transfer",
      "type": "event"
    },
    {
      "anonymous": false,
      "inputs": [
        {
          "indexed": false,
          "internalType": "address",
          "name": "account",
          "type": "address"
        }
      ],
      "name": "Unpaused",
      "type": "event"
    },
    {
      "anonymous": false,
      "inputs": [
        {
          "indexed": true,
          "internalType": "address",
          "name": "implementation",
          "type": "address"
        }
      ],
      "name": "Upgraded",
      "type": "event"
    },
    {
      "anonymous": false,
      "inputs": [
        {
          "indexed": true,
          "internalType": "address",
          "name": "recipient",
          "type": "address"
        },
        {
          "indexed": false,
          "internalType": "uint256",
          "name": "amount",
          "type": "uint256"
        }
      ],
      "name": "Withdraw",
      "type": "event"
    },
    {
      "stateMutability": "payable",
      "type": "fallback"
    },
    {
      "inputs": [],
      "name": "ADMIN_ROLE",
      "outputs": [
        {
          "internalType": "bytes32",
          "name": "",
          "type": "bytes32"
        }
      ],
      "stateMutability": "view",
      "type": "function"
    },
    {
      "inputs": [],
      "name": "CRAFTER_ROLE",
      "outputs": [
        {
          "internalType": "bytes32",
          "name": "",
          "type": "bytes32"
        }
      ],
      "stateMutability": "view",
      "type": "function"
    },
    {
      "inputs": [],
      "name": "DEFAULT_ADMIN_ROLE",
      "outputs": [
        {
          "internalType": "bytes32",
          "name": "",
          "type": "bytes32"
        }
      ],
      "stateMutability": "view",
      "type": "function"
    },
    {
      "inputs": [],
      "name": "MAX_SUPPLY",
      "outputs": [
        {
          "internalType": "uint256",
          "name": "",
          "type": "uint256"
        }
      ],
      "stateMutability": "view",
      "type": "function"
    },
    {
      "inputs": [],
      "name": "UPGRADE_INTERFACE_VERSION",
      "outputs": [
        {
          "internalType": "string",
          "name": "",
          "type": "string"
        }
      ],
      "stateMutability": "view",
      "type": "function"
    },
    {
      "inputs": [
        {
          "internalType": "address",
          "name": "to",
          "type": "address"
        },
        {
          "internalType": "uint256",
          "name": "tokenId",
          "type": "uint256"
        }
      ],
      "name": "approve",
      "outputs": [],
      "stateMutability": "payable",
      "type": "function"
    },
    {
      "inputs": [
        {
          "internalType": "address",
          "name": "owner",
          "type": "address"
        }
      ],
      "name": "balanceOf",
      "outputs": [
        {
          "internalType": "uint256",
          "name": "",
          "type": "uint256"
        }
      ],
      "stateMutability": "view",
      "type": "function"
    },
    {
      "inputs": [
        {
          "internalType": "uint256",
          "name": "tokenId",
          "type": "uint256"
        }
      ],
      "name": "explicitOwnershipOf",
      "outputs": [
        {
          "components": [
            {
              "internalType": "address",
              "name": "addr",
              "type": "address"
            },
            {
              "internalType": "uint64",
              "name": "startTimestamp",
              "type": "uint64"
            },
            {
              "internalType": "bool",
              "name": "burned",
              "type": "bool"
            },
            {
              "internalType": "uint24",
              "name": "extraData",
              "type": "uint24"
            }
          ],
          "internalType": "struct IERC721AUpgradeable.TokenOwnership",
          "name": "ownership",
          "type": "tuple"
        }
      ],
      "stateMutability": "view",
      "type": "function"
    },
    {
      "inputs": [
        {
          "internalType": "uint256[]",
          "name": "tokenIds",
          "type": "uint256[]"
        }
      ],
      "name": "explicitOwnershipsOf",
      "outputs": [
        {
          "components": [
            {
              "internalType": "address",
              "name": "addr",
              "type": "address"
            },
            {
              "internalType": "uint64",
              "name": "startTimestamp",
              "type": "uint64"
            },
            {
              "internalType": "bool",
              "name": "burned",
              "type": "bool"
            },
            {
              "internalType": "uint24",
              "name": "extraData",
              "type": "uint24"
            }
          ],
          "internalType": "struct IERC721AUpgradeable.TokenOwnership[]",
          "name": "",
          "type": "tuple[]"
        }
      ],
      "stateMutability": "view",
      "type": "function"
    },
    {
      "inputs": [
        {
          "internalType": "uint256",
          "name": "tokenId",
          "type": "uint256"
        }
      ],
      "name": "freezeMetadata",
      "outputs": [],
      "stateMutability": "nonpayable",
      "type": "function"
    },
    {
      "inputs": [
        {
          "internalType": "uint256",
          "name": "tokenId",
          "type": "uint256"
        }
      ],
      "name": "getApproved",
      "outputs": [
        {
          "internalType": "address",
          "name": "",
          "type": "address"
        }
      ],
      "stateMutability": "view",
      "type": "function"
    },
    {
      "inputs": [
        {
          "internalType": "bytes32",
          "name": "role",
          "type": "bytes32"
        }
      ],
      "name": "getRoleAdmin",
      "outputs": [
        {
          "internalType": "bytes32",
          "name": "",
          "type": "bytes32"
        }
      ],
      "stateMutability": "view",
      "type": "function"
    },
    {
      "inputs": [
        {
          "internalType": "uint256",
          "name": "tokenId",
          "type": "uint256"
        }
      ],
      "name": "getTraits",
      "outputs": [
        {
          "components": [
            {
              "internalType": "string",
              "name": "code",
              "type": "string"
            },
            {
              "internalType": "string",
              "name": "artVersion",
              "type": "string"
            },
            {
              "internalType": "string",
              "name": "metadataURI",
              "type": "string"
            },
            {
              "internalType": "uint256",
              "name": "level",
              "type": "uint256"
            },
            {
              "internalType": "uint256",
              "name": "power",
              "type": "uint256"
            },
            {
              "internalType": "uint256",
              "name": "rarity",
              "type": "uint256"
            }
          ],
          "internalType": "struct CraftedCollection.Traits",
          "name": "",
          "type": "tuple"
        }
      ],
      "stateMutability": "view",
      "type": "function"
    },
    {
      "inputs": [
        {
          "internalType": "bytes32",
          "name": "role",
          "type": "bytes32"
        },
        {
          "internalType": "address",
          "name": "account",
          "type": "address"
        }
      ],
      "name": "grantRole",
      "outputs": [],
      "stateMutability": "nonpayable",
      "type": "function"
    },
    {
      "inputs": [
        {
          "internalType": "bytes32",
          "name": "role",
          "type": "bytes32"
        },
        {
          "internalType": "address",
          "name": "account",
          "type": "address"
        }
      ],
      "name": "hasRole",
      "outputs": [
        {
          "internalType": "bool",
          "name": "",
          "type": "bool"
        }
      ],
      "stateMutability": "view",
      "type": "function"
    },
    {
      "inputs": [
        {
          "internalType": "string",
          "name": "name_",
          "type": "string"
        },
        {
          "internalType": "string",
          "name": "symbol_",
          "type": "string"
        }
      ],
      "name": "initialize",
      "outputs": [],
      "stateMutability": "nonpayable",
      "type": "function"
    },
    {
      "inputs": [
        {
          "internalType": "address",
          "name": "owner",
          "type": "address"
        },
        {
          "internalType": "address",
          "name": "operator",
          "type": "address"
        }
      ],
      "name": "isApprovedForAll",
      "outputs": [
        {
          "internalType": "bool",
          "name": "",
          "type": "bool"
        }
      ],
      "stateMutability": "view",
      "type": "function"
    },
    {
      "inputs": [],
      "name": "maxWalletHoldings",
      "outputs": [
        {
          "internalType": "uint256",
          "name": "",
          "type": "uint256"
        }
      ],
      "stateMutability": "view",
      "type": "function"
    },
    {
      "inputs": [],
      "name": "mintPrice",
      "outputs": [
        {
          "internalType": "uint256",
          "name": "",
          "type": "uint256"
        }
      ],
      "stateMutability": "view",
      "type": "function"
    },
    {
      "inputs": [],
      "name": "name",
      "outputs": [
        {
          "internalType": "string",
          "name": "",
          "type": "string"
        }
      ],
      "stateMutability": "view",
      "type": "function"
    },
    {
      "inputs": [
        {
          "internalType": "uint256",
          "name": "tokenId",
          "type": "uint256"
        }
      ],
      "name": "ownerOf",
      "outputs": [
        {
          "internalType": "address",
          "name": "",
          "type": "address"
        }
      ],
      "stateMutability": "view",
      "type": "function"
    },
    {
      "inputs": [],
      "name": "pause",
      "outputs": [],
      "stateMutability": "nonpayable",
      "type": "function"
    },
    {
      "inputs": [],
      "name": "paused",
      "outputs": [
        {
          "internalType": "bool",
          "name": "",
          "type": "bool"
        }
      ],
      "stateMutability": "view",
      "type": "function"
    },
    {
      "inputs": [],
      "name": "proxiableUUID",
      "outputs": [
        {
          "internalType": "bytes32",
          "name": "",
          "type": "bytes32"
        }
      ],
      "stateMutability": "view",
      "type": "function"
    },
    {
      "inputs": [
        {
          "internalType": "uint256",
          "name": "quantity",
          "type": "uint256"
        }
      ],
      "name": "publicMint",
      "outputs": [],
      "stateMutability": "payable",
      "type": "function"
    },
    {
      "inputs": [
        {
          "internalType": "bytes32",
          "name": "role",
          "type": "bytes32"
        },
        {
          "internalType": "address",
          "name": "callerConfirmation",
          "type": "address"
        }
      ],
      "name": "renounceRole",
      "outputs": [],
      "stateMutability": "nonpayable",
      "type": "function"
    },
    {
      "inputs": [
        {
          "internalType": "bytes32",
          "name": "role",
          "type": "bytes32"
        },
        {
          "internalType": "address",
          "name": "account",
          "type": "address"
        }
      ],
      "name": "revokeRole",
      "outputs": [],
      "stateMutability": "nonpayable",
      "type": "function"
    },
    {
      "inputs": [
        {
          "internalType": "uint256",
          "name": "tokenId",
          "type": "uint256"
        },
        {
          "internalType": "uint256",
          "name": "salePrice",
          "type": "uint256"
        }
      ],
      "name": "royaltyInfo",
      "outputs": [
        {
          "internalType": "address",
          "name": "receiver",
          "type": "address"
        },
        {
          "internalType": "uint256",
          "name": "amount",
          "type": "uint256"
        }
      ],
      "stateMutability": "view",
      "type": "function"
    },
    {
      "inputs": [
        {
          "internalType": "address",
          "name": "from",
          "type": "address"
        },
        {
          "internalType": "address",
          "name": "to",
          "type": "address"
        },
        {
          "internalType": "uint256",
          "name": "tokenId",
          "type": "uint256"
        }
      ],
      "name": "safeTransferFrom",
      "outputs": [],
      "stateMutability": "payable",
      "type": "function"
    },
    {
      "inputs": [
        {
          "internalType": "address",
          "name": "from",
          "type": "address"
        },
        {
          "internalType": "address",
          "name": "to",
          "type": "address"
        },
        {
          "internalType": "uint256",
          "name": "tokenId",
          "type": "uint256"
        },
        {
          "internalType": "bytes",
          "name": "_data",
          "type": "bytes"
        }
      ],
      "name": "safeTransferFrom",
      "outputs": [],
      "stateMutability": "payable",
      "type": "function"
    },
    {
      "inputs": [
        {
          "internalType": "address",
          "name": "operator",
          "type": "address"
        },
        {
          "internalType": "bool",
          "name": "approved",
          "type": "bool"
        }
      ],
      "name": "setApprovalForAll",
      "outputs": [],
      "stateMutability": "nonpayable",
      "type": "function"
    },
    {
      "inputs": [
        {
          "internalType": "string",
          "name": "baseURI",
          "type": "string"
        }
      ],
      "name": "setBaseURI",
      "outputs": [],
      "stateMutability": "nonpayable",
      "type": "function"
    },
    {
      "inputs": [
        {
          "internalType": "uint256",
          "name": "newLimit",
          "type": "uint256"
        }
      ],
      "name": "setMaxWalletHoldings",
      "outputs": [],
      "stateMutability": "nonpayable",
      "type": "function"
    },
    {
      "inputs": [
        {
          "internalType": "uint256",
          "name": "newPrice",
          "type": "uint256"
        }
      ],
      "name": "setMintPrice",
      "outputs": [],
      "stateMutability": "nonpayable",
      "type": "function"
    },
    {
      "inputs": [
        {
          "internalType": "address",
          "name": "receiver",
          "type": "address"
        },
        {
          "internalType": "uint96",
          "name": "feeNumerator",
          "type": "uint96"
        }
      ],
      "name": "setRoyaltyInfo",
      "outputs": [],
      "stateMutability": "nonpayable",
      "type": "function"
    },
    {
      "inputs": [
        {
          "internalType": "bytes4",
          "name": "interfaceId",
          "type": "bytes4"
        }
      ],
      "name": "supportsInterface",
      "outputs": [
        {
          "internalType": "bool",
          "name": "",
          "type": "bool"
        }
      ],
      "stateMutability": "view",
      "type": "function"
    },
    {
      "inputs": [],
      "name": "symbol",
      "outputs": [
        {
          "internalType": "string",
          "name": "",
          "type": "string"
        }
      ],
      "stateMutability": "view",
      "type": "function"
    },
    {
      "inputs": [
        {
          "internalType": "uint256",
          "name": "tokenId",
          "type": "uint256"
        }
      ],
      "name": "tokenURI",
      "outputs": [
        {
          "internalType": "string",
          "name": "",
          "type": "string"
        }
      ],
      "stateMutability": "view",
      "type": "function"
    },
    {
      "inputs": [
        {
          "internalType": "address",
          "name": "owner",
          "type": "address"
        }
      ],
      "name": "tokensOfOwner",
      "outputs": [
        {
          "internalType": "uint256[]",
          "name": "",
          "type": "uint256[]"
        }
      ],
      "stateMutability": "view",
      "type": "function"
    },
    {
      "inputs": [
        {
          "internalType": "address",
          "name": "owner",
          "type": "address"
        },
        {
          "internalType": "uint256",
          "name": "start",
          "type": "uint256"
        },
        {
          "internalType": "uint256",
          "name": "stop",
          "type": "uint256"
        }
      ],
      "name": "tokensOfOwnerIn",
      "outputs": [
        {
          "internalType": "uint256[]",
          "name": "",
          "type": "uint256[]"
        }
      ],
      "stateMutability": "view",
      "type": "function"
    },
    {
      "inputs": [],
      "name": "totalSupply",
      "outputs": [
        {
          "internalType": "uint256",
          "name": "result",
          "type": "uint256"
        }
      ],
      "stateMutability": "view",
      "type": "function"
    },
    {
      "inputs": [
        {
          "internalType": "address",
          "name": "from",
          "type": "address"
        },
        {
          "internalType": "address",
          "name": "to",
          "type": "address"
        },
        {
          "internalType": "uint256",
          "name": "tokenId",
          "type": "uint256"
        }
      ],
      "name": "transferFrom",
      "outputs": [],
      "stateMutability": "payable",
      "type": "function"
    },
    {
      "inputs": [],
      "name": "unpause",
      "outputs": [],
      "stateMutability": "nonpayable",
      "type": "function"
    },
    {
      "inputs": [
        {
          "internalType": "uint256",
          "name": "tokenId",
          "type": "uint256"
        },
        {
          "internalType": "string",
          "name": "newURI",
          "type": "string"
        }
      ],
      "name": "updateMetadata",
      "outputs": [],
      "stateMutability": "nonpayable",
      "type": "function"
    },
    {
      "inputs": [
        {
          "internalType": "uint256",
          "name": "tokenId",
          "type": "uint256"
        },
        {
          "components": [
            {
              "internalType": "string",
              "name": "code",
              "type": "string"
            },
            {
              "internalType": "string",
              "name": "artVersion",
              "type": "string"
            },
            {
              "internalType": "string",
              "name": "metadataURI",
              "type": "string"
            },
            {
              "internalType": "uint256",
              "name": "level",
              "type": "uint256"
            },
            {
              "internalType": "uint256",
              "name": "power",
              "type": "uint256"
            },
            {
              "internalType": "uint256",
              "name": "rarity",
              "type": "uint256"
            }
          ],
          "internalType": "struct CraftedCollection.Traits",
          "name": "newTraits",
          "type": "tuple"
        }
      ],
      "name": "updateTraits",
      "outputs": [],
      "stateMutability": "nonpayable",
      "type": "function"
    },
    {
      "inputs": [
        {
          "internalType": "address",
          "name": "newImplementation",
          "type": "address"
        },
        {
          "internalType": "bytes",
          "name": "data",
          "type": "bytes"
        }
      ],
      "name": "upgradeToAndCall",
      "outputs": [],
      "stateMutability": "payable",
      "type": "function"
    },
    {
      "inputs": [
        {
          "internalType": "address payable",
          "name": "recipient",
          "type": "address"
        }
      ],
      "name": "withdraw",
      "outputs": [],
      "stateMutability": "nonpayable",
      "type": "function"
    },
    {
      "stateMutability": "payable",
      "type": "receive"
    }
  ],
  "bytecode": "0x60a06040523060805234801561001457600080fd5b50608051613bd461003e600039600081816121c1015281816121ea01526123c20152613bd46000f3fe60806040526004361061028c5760003560e01c80635bbb21771161015a578063a217fddf116100c1578063c23dc68f1161007a578063c23dc68f146107ca578063c87b56dd146107f7578063d547741f14610817578063e1dc076114610837578063e985e9c514610864578063f4a0a52814610884576102c8565b8063a217fddf1461071b578063a22cb46514610730578063ad3cb1cc14610750578063b7ea78b514610781578063b88d4fde14610797578063c1380e29146107aa576102c8565b80638456cb59116101135780638456cb59146106645780638462151c1461067957806391d14854146106a657806395d89b41146106c657806399061beb146106db57806399a2557a146106fb576102c8565b80635bbb2177146105aa5780635c975abb146105d75780636352211e146105ec5780636817c76c1461060c57806370a082311461062257806375b238fc14610642576102c8565b806332cb6b0c116101fe5780634dcf6ad6116101b75780634dcf6ad6146105025780634f1ef2861461052257806351cff8d91461053557806352d1902d1461055557806353c8388e1461056a57806355f804b31461058a576102c8565b806332cb6b0c14610462578063338cab931461047857806336568abe1461049a5780633f4ba83a146104ba57806342842e0e146104cf5780634cd88b76146104e2576102c8565b806318160ddd1161025057806318160ddd1461039a57806323b872dd146103bd578063248a9ca3146103d05780632a55205a146103f05780632db115441461042f5780632f2ff15d14610442576102c8565b806301ffc9a7146102e157806302fa7c471461031657806306fdde0314610338578063081812fc1461035a578063095ea7b314610387576102c8565b366102c85760405134815233907f88a5966d370b9919b20f3e2c13ff65706f196a4e32cc2c12bf57088f885258749060200160405180910390a2005b604051630deab4c360e41b815260040160405180910390fd5b3480156102ed57600080fd5b506103016102fc366004612dba565b6108a4565b60405190151581526020015b60405180910390f35b34801561032257600080fd5b50610336610331366004612dec565b6108b5565b005b34801561034457600080fd5b5061034d610903565b60405161030d9190612e81565b34801561036657600080fd5b5061037a610375366004612e94565b61099e565b60405161030d9190612ead565b610336610395366004612ec1565b6109e2565b3480156103a657600080fd5b506103af6109f2565b60405190815260200161030d565b6103366103cb366004612eed565b610a2f565b3480156103dc57600080fd5b506103af6103eb366004612e94565b610bff565b3480156103fc57600080fd5b5061041061040b366004612f2e565b610c1f565b604080516001600160a01b03909316835260208301919091520161030d565b61033661043d366004612e94565b610ce6565b34801561044e57600080fd5b5061033661045d366004612f50565b610dfa565b34801561046e57600080fd5b506103af61037881565b34801561048457600080fd5b506103af600080516020613b3f83398151915281565b3480156104a657600080fd5b506103366104b5366004612f50565b610e1c565b3480156104c657600080fd5b50610336610e4f565b6103366104dd366004612eed565b610e6f565b3480156104ee57600080fd5b506103366104fd366004613017565b610e8a565b34801561050e57600080fd5b5061033661051d366004612e94565b61114a565b61033661053036600461307a565b6111cc565b34801561054157600080fd5b506103366105503660046130bf565b6111e7565b34801561056157600080fd5b506103af61128e565b34801561057657600080fd5b5061033661058536600461311d565b6112ab565b34801561059657600080fd5b506103366105a5366004613168565b611376565b3480156105b657600080fd5b506105ca6105c53660046131a9565b6113da565b60405161030d9190613259565b3480156105e357600080fd5b50610301611426565b3480156105f857600080fd5b5061037a610607366004612e94565b61143b565b34801561061857600080fd5b506103af60005481565b34801561062e57600080fd5b506103af61063d3660046130bf565b611446565b34801561064e57600080fd5b506103af600080516020613b7f83398151915281565b34801561067057600080fd5b506103366114a5565b34801561068557600080fd5b506106996106943660046130bf565b6114c5565b60405161030d91906132a7565b3480156106b257600080fd5b506103016106c1366004612f50565b611513565b3480156106d257600080fd5b5061034d611549565b3480156106e757600080fd5b506103366106f6366004612e94565b611561565b34801561070757600080fd5b506106996107163660046132df565b6115b6565b34801561072757600080fd5b506103af600081565b34801561073c57600080fd5b5061033661074b366004613314565b6115cd565b34801561075c57600080fd5b5061034d604051806040016040528060058152602001640352e302e360dc1b81525081565b34801561078d57600080fd5b506103af60015481565b6103366107a5366004613347565b61164a565b3480156107b657600080fd5b506103366107c53660046133b2565b611685565b3480156107d657600080fd5b506107ea6107e5366004612e94565b61174d565b60405161030d91906133f4565b34801561080357600080fd5b5061034d610812366004612e94565b6117a4565b34801561082357600080fd5b50610336610832366004612f50565b6117fe565b34801561084357600080fd5b50610857610852366004612e94565b61181a565b60405161030d9190613402565b34801561087057600080fd5b5061030161087f366004613485565b611a6c565b34801561089057600080fd5b5061033661089f366004612e94565b611aa9565b60006108af82611af6565b92915050565b600080516020613b7f8339815191526108cd81611b1b565b6001600160a01b0383166108f45760405163d92e233d60e01b815260040160405180910390fd5b6108fe8383611b25565b505050565b606061090d611be8565b600201805461091b906134b3565b80601f0160208091040260200160405190810160405280929190818152602001828054610947906134b3565b80156109945780601f1061096957610100808354040283529160200191610994565b820191906000526020600020905b81548152906001019060200180831161097757829003601f168201915b5050505050905090565b60006109a982611c0c565b6109bd576109bd6333d1c03960e21b611c94565b6109c5611be8565b60009283526006016020525060409020546001600160a01b031690565b6109ee82826001611c9e565b5050565b6000806109fd611be8565b60010154610a09611be8565b5403039050600019610a19611d4f565b14610a2c57610a26611be8565b60080154015b90565b6000610a3a82611d55565b6001600160a01b039485169490915081168414610a6057610a6062a1148160e81b611c94565b600080610a6c84611e42565b91509150610a918187610a7c3390565b6001600160a01b039081169116811491141790565b610ab357610a9f8633611a6c565b610ab357610ab3632ce44b5f60e11b611c94565b610ac08686866001611e6a565b8015610acb57600082555b610ad3611be8565b6001600160a01b0387166000908152600591909101602052604090208054600019019055610aff611be8565b6001600160a01b03861660008181526005929092016020526040909120805460010190554260a01b17600160e11b17610b36611be8565b60008681526004919091016020526040812091909155600160e11b84169003610bac5760018401610b65611be8565b600082815260049190910160205260408120549003610baa57610b86611be8565b548114610baa5783610b96611be8565b600083815260049190910160205260409020555b505b6001600160a01b0385168481887fddf252ad1be2c89b69c2b068fc378daa952ba7f163c4a11628f55a4df523b3ef600080a480600003610bf657610bf6633a954ecd60e21b611c94565b50505050505050565b600080610c0a611ed4565b60009384526020525050604090206001015490565b60008281527fdaedc9ab023613a7caf35e703657e986ccfad7e3eb0af93a2853f8d65dd86b0160205260408120805482917fdaedc9ab023613a7caf35e703657e986ccfad7e3eb0af93a2853f8d65dd86b00916001600160a01b03811690600160a01b90046001600160601b031681610cb257505081546001600160a01b03811690600160a01b90046001600160601b03165b6000612710610cca6001600160601b0384168a613503565b610cd4919061351a565b929650919450505050505b9250929050565b610cee611ef8565b610cf6611f20565b80600003610d175760405163c1ab6dc160e01b815260040160405180910390fd5b61037881610d236109f2565b610d2d919061353c565b1115610d4c5760405163d05cb60960e01b815260040160405180910390fd5b80600054610d5a9190613503565b341015610d7a5760405163cd1c886760e01b815260040160405180910390fd5b60015481610d8733611446565b610d91919061353c565b1115610db057604051633349019160e01b815260040160405180910390fd5b610dba3382611f6a565b60405181815233907f30385c845b448a36257a6a1716e6ad2e1bc2cbe333cde1e69fe849ad6511adfe9060200160405180910390a2610df7611f84565b50565b610e0382610bff565b610e0c81611b1b565b610e168383611faa565b50505050565b6001600160a01b0381163314610e455760405163334bd91960e11b815260040160405180910390fd5b6108fe828261204b565b600080516020613b7f833981519152610e6781611b1b565b610df76120c3565b6108fe8383836040518060200160405280600081525061164a565b610e9261211a565b54610100900460ff16610eb157610ea761211a565b5460ff1615610eb5565b303b155b610f265760405162461bcd60e51b815260206004820152603760248201527f455243373231415f5f496e697469616c697a61626c653a20636f6e7472616374604482015276081a5cc8185b1c9958591e481a5b9a5d1a585b1a5e9959604a1b60648201526084015b60405180910390fd5b6000610f3061211a565b54610100900460ff161590508015610f7c576001610f4c61211a565b80549115156101000261ff00199092169190911790556001610f6c61211a565b805460ff19169115159190911790555b6000610f8661213e565b805490915060ff600160401b82041615906001600160401b0316600081158015610fad5750825b90506000826001600160401b03166001148015610fc95750303b155b905081158015610fd7575080155b15610ff55760405163f92ee8a960e01b815260040160405180910390fd5b845467ffffffffffffffff19166001178555831561101f57845460ff60401b1916600160401b1785555b6110298888612167565b61103161219e565b61103961219e565b6110416121a6565b61104961219e565b61105161219e565b61105c600033611faa565b50611075600080516020613b7f83398151915233611faa565b5061108e600080516020613b3f83398151915233611faa565b50666a94d74f43000060005560036001556110ab336101f4611b25565b6040517fe3d77c0c81a47993ce8e388adc64fe0dc88bd28fbf57cbdf333006b59ad82a0a90600090a1831561111a57845460ff60401b19168555604051600181527fc7f505b2f371ae2175ee4913f4499e1f2633a7b5936321eed1cdaeb6115181d29060200160405180910390a15b505050505080156108fe57600061112f61211a565b80549115156101000261ff0019909216919091179055505050565b600080516020613b7f83398151915261116281611b1b565b61116b82611c0c565b6111885760405163c1ab6dc160e01b815260040160405180910390fd5b600082815260046020526040808220805460ff191660011790555183917f7c9bd91d0ccee585f666998e287e929bf935cedec1348f7afc4591eca690b90a91a25050565b6111d46121b6565b6111dd8261225b565b6109ee8282612273565b600080516020613b7f8339815191526111ff81611b1b565b611207611f20565b6001600160a01b03821661122e5760405163d92e233d60e01b815260040160405180910390fd5b476112426001600160a01b03841682612327565b826001600160a01b03167f884edad9ce6fa2440d8a54cc123490eb96d2768479d49ff9c7366125a94243648260405161127d91815260200190565b60405180910390a2506109ee611f84565b60006112986123b7565b50600080516020613b5f83398151915290565b600080516020613b3f8339815191526112c381611b1b565b6112cc84611c0c565b6112e95760405163c1ab6dc160e01b815260040160405180910390fd5b60008481526004602052604090205460ff16156113195760405163b087bbf360e01b815260040160405180910390fd5b60008481526003602052604090206002016113358385836135b4565b50837f459157ba24c7ab9878b165ef465fa6ae2ab42bcd8445f576be378768b0c473098484604051611368929190613696565b60405180910390a250505050565b600080516020613b7f83398151915261138e81611b1b565b600261139b8385836135b4565b507ff9c7803e94e0d3c02900d8a90893a6d5e90dd04d32a4cfe825520f82bf9f32f683836040516113cd929190613696565b60405180910390a1505050565b60408051828152600583901b8082016020019092526060915b801561141e57601f198082019186010135600061140f8261174d565b84840160200152506113f39050565b509392505050565b600080611431612400565b5460ff1692915050565b60006108af82611d55565b60006001600160a01b038216611466576114666323d3ad8160e21b611c94565b6001600160401b03611476611be8565b6005016000846001600160a01b03166001600160a01b0316815260200190815260200160002054169050919050565b600080516020613b7f8339815191526114bd81611b1b565b610df7612424565b60606000196114d2611d4f565b146114e7576114e763bdba09d760e01b611c94565b6000806114f261246b565b9050606081831461150b5761150885848461247b565b90505b949350505050565b60008061151e611ed4565b6000948552602090815260408086206001600160a01b03959095168652939052505090205460ff1690565b6060611553611be8565b600301805461091b906134b3565b600080516020613b7f83398151915261157981611b1b565b60018290556040518281527f5a608a926cbc5e51dd142232855af48a512e7b6c9b23bf9ba9475f58fe108b7e906020015b60405180910390a15050565b60606115c384848461247b565b90505b9392505050565b806115d6611be8565b336000818152600792909201602090815260408084206001600160a01b03881680865290835293819020805460ff19169515159590951790945592518415158152919290917f17307eab39ab6107e8899845ad3d59bd9653f200f220920489ca2b5937696c31910160405180910390a35050565b611655848484610a2f565b6001600160a01b0383163b15610e1657611671848484846125d1565b610e1657610e166368d2bf6b60e11b611c94565b600080516020613b3f83398151915261169d81611b1b565b6116a683611c0c565b6116c35760405163c1ab6dc160e01b815260040160405180910390fd5b60008381526004602052604090205460ff16156116f35760405163b087bbf360e01b815260040160405180910390fd5b6000838152600360205260409020829061170d82826136f0565b905050827fcb51969318cee471d3abc5ee4d81ea83e4748e5063261189cbf68810b17066cf836040516117409190613852565b60405180910390a2505050565b611755612d7d565b61175d611d4f565b82111561176d576108af826126b3565b61177561246b565b82101561179f575b611786826126de565b611796576000199091019061177d565b6108af826126b3565b919050565b60606117af82611c0c565b6117cc5760405163c1ab6dc160e01b815260040160405180910390fd5b60026117d7836126fe565b6040516020016117e89291906138f4565b6040516020818303038152906040529050919050565b61180782610bff565b61181081611b1b565b610e16838361204b565b6118536040518060c001604052806060815260200160608152602001606081526020016000815260200160008152602001600081525090565b61185c82611c0c565b6118795760405163c1ab6dc160e01b815260040160405180910390fd5b60008281526003602052604090819020815160c081019092528054829082906118a1906134b3565b80601f01602080910402602001604051908101604052809291908181526020018280546118cd906134b3565b801561191a5780601f106118ef5761010080835404028352916020019161191a565b820191906000526020600020905b8154815290600101906020018083116118fd57829003601f168201915b50505050508152602001600182018054611933906134b3565b80601f016020809104026020016040519081016040528092919081815260200182805461195f906134b3565b80156119ac5780601f10611981576101008083540402835291602001916119ac565b820191906000526020600020905b81548152906001019060200180831161198f57829003601f168201915b505050505081526020016002820180546119c5906134b3565b80601f01602080910402602001604051908101604052809291908181526020018280546119f1906134b3565b8015611a3e5780601f10611a1357610100808354040283529160200191611a3e565b820191906000526020600020905b815481529060010190602001808311611a2157829003601f168201915b5050505050815260200160038201548152602001600482015481526020016005820154815250509050919050565b6000611a76611be8565b6001600160a01b039384166000908152600791909101602090815260408083209490951682529290925250205460ff1690565b600080516020613b7f833981519152611ac181611b1b565b60008290556040518281527f525b762709cc2a983aec5ccdfd807a061f993c91090b5bcd7da92ca254976aaa906020016115aa565b60006001600160e01b0319821663152a902d60e11b14806108af57506108af82612790565b610df781336127c5565b7fdaedc9ab023613a7caf35e703657e986ccfad7e3eb0af93a2853f8d65dd86b006127106001600160601b038316811015611b8557604051636f483d0960e01b81526001600160601b038416600482015260248101829052604401610f1d565b6001600160a01b038416611baf576000604051635b6cc80560e11b8152600401610f1d9190612ead565b50604080518082019091526001600160a01b039093168084526001600160601b039092166020909301839052600160a01b909202179055565b7f2569078dfb4b0305704d3008e7403993ae9601b85f7ae5e742de3de8f8011c4090565b6000611c16611d4f565b821115611c40576108af611c28611be8565b600084815260049190910160205260409020546127fe565b611c48611be8565b5482101561179f5760005b611c5b611be8565b600084815260049190910160205260408120549150819003611c8757611c808361398b565b9250611c53565b600160e01b161592915050565b8060005260046000fd5b6000611ca98361143b565b9050818015611cc15750336001600160a01b03821614155b15611ce457611cd08133611a6c565b611ce457611ce46367d9dca160e11b611c94565b83611ced611be8565b6000858152600691909101602052604080822080546001600160a01b0319166001600160a01b0394851617905551859287811692908516917f8c5be1e5ebec7d5bd14f71427d1e84f3dd0314c0f7b2291e5b200ac8c7c3b9259190a450505050565b60001990565b6000611d5f611be8565b600083815260049190910160205260409020549050611d7c611d4f565b821115611da657611d8c816127fe565b15611d9657919050565b611da6636f96cda160e11b611c94565b80600003611e1f57611db6611be8565b548210611dcd57611dcd636f96cda160e11b611c94565b611dd5611be8565b600019909201600081815260049390930160205260409092205490508015611dcd57600160e01b8116600003611e0a57919050565b611e1a636f96cda160e11b611c94565b611dcd565b600160e01b8116600003611e3257919050565b61179f636f96cda160e11b611c94565b6000806000611e4f611be8565b60009485526006016020525050604090912080549092909150565b6001600160a01b03831615801590611e945750836001600160a01b0316836001600160a01b031614155b15611ecf5760015481611ea685611446565b611eb0919061353c565b1115611ecf57604051633349019160e01b815260040160405180910390fd5b610e16565b7f02dd7bc7dec4dceedda775e58dd541e08a116c6c53815c0bd028192f7b62680090565b611f00611426565b15611f1e5760405163d93c066560e01b815260040160405180910390fd5b565b7f9b779b17422d0df92223018b32b4d1fa46e071723d6817e2486d003becc55f00805460011901611f6457604051633ee5aeb560e01b815260040160405180910390fd5b60029055565b6109ee828260405180602001604052806000815250612814565b60017f9b779b17422d0df92223018b32b4d1fa46e071723d6817e2486d003becc55f0055565b600080611fb5611ed4565b9050611fc18484611513565b612041576000848152602082815260408083206001600160a01b03871684529091529020805460ff19166001179055611ff73390565b6001600160a01b0316836001600160a01b0316857f2f8788117e7eff1d82e926ec794901d17c78024a50270940304540a733656f0d60405160405180910390a460019150506108af565b60009150506108af565b600080612056611ed4565b90506120628484611513565b15612041576000848152602082815260408083206001600160a01b0387168085529252808320805460ff1916905551339287917ff6391f5c32d9c69d2a47ea670b442974b53935d1edc7fd64eb21e047a839171b9190a460019150506108af565b6120cb612888565b60006120d5612400565b805460ff1916815590507f5db9ee0a495bf2e6ff9c91a7834c1ba4fdd244a5e8aa4e537bd38aeae4b073aa335b60405161210f9190612ead565b60405180910390a150565b7fee151c8401928dc223602bb187aff91b9a56c7cae5476ef1b3287b085a16c85f90565b6000807ff0c57e16840df040f15088dc2f81fe391c3923bec73e23a9662efc9c229c6a006108af565b61216f61211a565b54610100900460ff166121945760405162461bcd60e51b8152600401610f1d906139a2565b6109ee82826128ad565b611f1e612935565b6121ae612935565b611f1e61295a565b306001600160a01b037f000000000000000000000000000000000000000000000000000000000000000016148061223d57507f00000000000000000000000000000000000000000000000000000000000000006001600160a01b0316612231600080516020613b5f833981519152546001600160a01b031690565b6001600160a01b031614155b15611f1e5760405163703e46dd60e11b815260040160405180910390fd5b600080516020613b7f8339815191526109ee81611b1b565b816001600160a01b03166352d1902d6040518163ffffffff1660e01b8152600401602060405180830381865afa9250505080156122cd575060408051601f3d908101601f191682019092526122ca918101906139f6565b60015b6122ec5781604051634c9c8ce360e01b8152600401610f1d9190612ead565b600080516020613b5f833981519152811461231d57604051632a87526960e21b815260048101829052602401610f1d565b6108fe8383612962565b804710156123515760405163cf47918160e01b815247600482015260248101829052604401610f1d565b600080836001600160a01b03168360405160006040518083038185875af1925050503d806000811461239f576040519150601f19603f3d011682016040523d82523d6000602084013e6123a4565b606091505b509150915081610e1657610e16816129b8565b306001600160a01b037f00000000000000000000000000000000000000000000000000000000000000001614611f1e5760405163703e46dd60e11b815260040160405180910390fd5b7fcd5ed15c6e187e77e9aee88184c21f4f2182ab5827cb3b7e07fbedcd63f0330090565b61242c611ef8565b6000612436612400565b805460ff1916600117815590507f62e78cea01bee320cd4e420270b5ea74000d11b0c9f74754ebdbfc544b05a2586121023390565b6000612475611be8565b54919050565b606081831061249457612494631960ccad60e11b611c94565b600061249e61246b565b905060006000196124ad611d4f565b036124b857816124ba565b835b90508084106124c7578093505b60006124d287611446565b90508486106124df575060005b80156125c75780868603116124f357508484035b604080516001830160051b810191829052945060006125118861174d565b905060008160400151612522575080515b60005b600019612530611d4f565b1461255e57868a0361254a57612544611d4f565b60010199505b612552611d4f565b8a111561255e57600091505b6125678a6126b3565b925060408301516000811461257f57600092506125a4565b83511561258b57835192505b8b831860601b6125a4576001820191508a8260051b8a01525b5060018a01995083604052888a14806125bc57508481145b156125255787525050505b5050509392505050565b604051630a85bd0160e11b81526000906001600160a01b0385169063150b7a0290612606903390899088908890600401613a0f565b6020604051808303816000875af1925050508015612641575060408051601f3d908101601f1916820190925261263e91810190613a4c565b60015b612696573d80801561266f576040519150601f19603f3d011682016040523d82523d6000602084013e612674565b606091505b50805160000361268e5761268e6368d2bf6b60e11b611c94565b805181602001fd5b6001600160e01b031916630a85bd0160e11b149050949350505050565b6126bb612d7d565b6108af6126c6611be8565b600084815260049190910160205260409020546129e1565b60006126e8611be8565b6000928352600401602052506040902054151590565b6060600061270b83612a24565b60010190506000816001600160401b0381111561272a5761272a612f75565b6040519080825280601f01601f191660200182016040528015612754576020820181803683370190505b5090508181016020015b600019016f181899199a1a9b1b9c1cb0b131b232b360811b600a86061a8153600a850494508461275e57509392505050565b60006001600160e01b03198216637965db0b60e01b14806108af57506301ffc9a760e01b6001600160e01b03198316146108af565b6127cf8282611513565b6109ee5760405163e2517d3f60e01b81526001600160a01b038216600482015260248101839052604401610f1d565b600160e01b81166001600160a01b039091161190565b61281e8383612afc565b6001600160a01b0383163b156108fe576000612838611be8565b5490508281035b61285260008683806001019450866125d1565b612866576128666368d2bf6b60e11b611c94565b81811061283f5781612876611be8565b541461288157600080fd5b5050505050565b612890611426565b611f1e57604051638dfc202b60e01b815260040160405180910390fd5b6128b561211a565b54610100900460ff166128da5760405162461bcd60e51b8152600401610f1d906139a2565b816128e3611be8565b600201906128f19082613a69565b50806128fb611be8565b600301906129099082613a69565b506000612914611be8565b55600061291f611d4f565b10156109ee576109ee63fed8210f60e01b611c94565b61293d612c1f565b611f1e57604051631afcd79f60e31b815260040160405180910390fd5b611f84612935565b61296b82612c39565b6040516001600160a01b038316907fbc7cd75a20ee27fd9adebab32041f755214dbc6bffa90cc0225b39da2e5c2d3b90600090a28051156129b0576108fe8282612c95565b6109ee612d0b565b8051156129c85780518082602001fd5b60405163d6bda27560e01b815260040160405180910390fd5b6129e9612d7d565b6001600160a01b03821681526001600160401b0360a083901c166020820152600160e01b82161515604082015260e89190911c606082015290565b60008072184f03e93ff9f4daa797ed6e38ed64bf6a1f0160401b8310612a635772184f03e93ff9f4daa797ed6e38ed64bf6a1f0160401b830492506040015b6d04ee2d6d415b85acef81000000008310612a8f576d04ee2d6d415b85acef8100000000830492506020015b662386f26fc100008310612aad57662386f26fc10000830492506010015b6305f5e1008310612ac5576305f5e100830492506008015b6127108310612ad957612710830492506004015b60648310612aeb576064830492506002015b600a83106108af5760010192915050565b6000612b06611be8565b5490506000829003612b2257612b2263b562e8dd60e01b611c94565b612b2f6000848385611e6a565b6001600160a01b0383164260a01b6001841460e11b1717612b4e611be8565b60008381526004919091016020526040902055680100000000000000018202612b75611be8565b6001600160a01b0385166000818152600592909201602052604082208054909301909255819003612baf57612baf622e076360e81b611c94565b81830182612bbb611d4f565b600183031115612bd557612bd56340b23f1d60e11b611c94565b5b808360007fddf252ad1be2c89b69c2b068fc378daa952ba7f163c4a11628f55a4df523b3ef600080a4818160010191508103612bd65781612c15611be8565b55506108fe915050565b6000612c2961213e565b54600160401b900460ff16919050565b806001600160a01b03163b600003612c665780604051634c9c8ce360e01b8152600401610f1d9190612ead565b600080516020613b5f83398151915280546001600160a01b0319166001600160a01b0392909216919091179055565b6060600080846001600160a01b031684604051612cb29190613b22565b600060405180830381855af49150503d8060008114612ced576040519150601f19603f3d011682016040523d82523d6000602084013e612cf2565b606091505b5091509150612d02858383612d2a565b95945050505050565b3415611f1e5760405163b398979f60e01b815260040160405180910390fd5b606082612d3f57612d3a826129b8565b6115c6565b8151158015612d5657506001600160a01b0384163b155b15612d765783604051639996b31560e01b8152600401610f1d9190612ead565b50806115c6565b60408051608081018252600080825260208201819052918101829052606081019190915290565b6001600160e01b031981168114610df757600080fd5b600060208284031215612dcc57600080fd5b81356115c681612da4565b6001600160a01b0381168114610df757600080fd5b60008060408385031215612dff57600080fd5b8235612e0a81612dd7565b915060208301356001600160601b0381168114612e2657600080fd5b809150509250929050565b60005b83811015612e4c578181015183820152602001612e34565b50506000910152565b60008151808452612e6d816020860160208601612e31565b601f01601f19169290920160200192915050565b6020815260006115c66020830184612e55565b600060208284031215612ea657600080fd5b5035919050565b6001600160a01b0391909116815260200190565b60008060408385031215612ed457600080fd5b8235612edf81612dd7565b946020939093013593505050565b600080600060608486031215612f0257600080fd5b8335612f0d81612dd7565b92506020840135612f1d81612dd7565b929592945050506040919091013590565b60008060408385031215612f4157600080fd5b50508035926020909101359150565b60008060408385031215612f6357600080fd5b823591506020830135612e2681612dd7565b634e487b7160e01b600052604160045260246000fd5b600082601f830112612f9c57600080fd5b81356001600160401b0380821115612fb657612fb6612f75565b604051601f8301601f19908116603f01168101908282118183101715612fde57612fde612f75565b81604052838152866020858801011115612ff757600080fd5b836020870160208301376000602085830101528094505050505092915050565b6000806040838503121561302a57600080fd5b82356001600160401b038082111561304157600080fd5b61304d86838701612f8b565b9350602085013591508082111561306357600080fd5b5061307085828601612f8b565b9150509250929050565b6000806040838503121561308d57600080fd5b823561309881612dd7565b915060208301356001600160401b038111156130b357600080fd5b61307085828601612f8b565b6000602082840312156130d157600080fd5b81356115c681612dd7565b60008083601f8401126130ee57600080fd5b5081356001600160401b0381111561310557600080fd5b602083019150836020828501011115610cdf57600080fd5b60008060006040848603121561313257600080fd5b8335925060208401356001600160401b0381111561314f57600080fd5b61315b868287016130dc565b9497909650939450505050565b6000806020838503121561317b57600080fd5b82356001600160401b0381111561319157600080fd5b61319d858286016130dc565b90969095509350505050565b600080602083850312156131bc57600080fd5b82356001600160401b03808211156131d357600080fd5b818501915085601f8301126131e757600080fd5b8135818111156131f657600080fd5b8660208260051b850101111561320b57600080fd5b60209290920196919550909350505050565b80516001600160a01b031682526020808201516001600160401b03169083015260408082015115159083015260609081015162ffffff16910152565b6020808252825182820181905260009190848201906040850190845b8181101561329b5761328883855161321d565b9284019260809290920191600101613275565b50909695505050505050565b6020808252825182820181905260009190848201906040850190845b8181101561329b578351835292840192918401916001016132c3565b6000806000606084860312156132f457600080fd5b83356132ff81612dd7565b95602085013595506040909401359392505050565b6000806040838503121561332757600080fd5b823561333281612dd7565b915060208301358015158114612e2657600080fd5b6000806000806080858703121561335d57600080fd5b843561336881612dd7565b9350602085013561337881612dd7565b92506040850135915060608501356001600160401b0381111561339a57600080fd5b6133a687828801612f8b565b91505092959194509250565b600080604083850312156133c557600080fd5b8235915060208301356001600160401b038111156133e257600080fd5b830160c08186031215612e2657600080fd5b608081016108af828461321d565b602081526000825160c0602084015261341e60e0840182612e55565b90506020840151601f198085840301604086015261343c8383612e55565b925060408601519150808584030160608601525061345a8282612e55565b91505060608401516080840152608084015160a084015260a084015160c08401528091505092915050565b6000806040838503121561349857600080fd5b82356134a381612dd7565b91506020830135612e2681612dd7565b600181811c908216806134c757607f821691505b6020821081036134e757634e487b7160e01b600052602260045260246000fd5b50919050565b634e487b7160e01b600052601160045260246000fd5b80820281158282048414176108af576108af6134ed565b60008261353757634e487b7160e01b600052601260045260246000fd5b500490565b808201808211156108af576108af6134ed565b601f8211156108fe576000816000526020600020601f850160051c810160208610156135785750805b601f850160051c820191505b8181101561359757828155600101613584565b505050505050565b600019600383901b1c191660019190911b1790565b6001600160401b038311156135cb576135cb612f75565b6135df836135d983546134b3565b8361354f565b6000601f84116001811461360d57600085156135fb5750838201355b613605868261359f565b845550612881565b600083815260209020601f19861690835b8281101561363e578685013582556020948501946001909201910161361e565b508682101561365b5760001960f88860031b161c19848701351681555b505060018560011b0183555050505050565b81835281816020850137506000828201602090810191909152601f909101601f19169091010190565b6020815260006115c360208301848661366d565b6000808335601e198436030181126136c157600080fd5b8301803591506001600160401b038211156136db57600080fd5b602001915036819003821315610cdf57600080fd5b6136fa82836136aa565b6001600160401b0381111561371157613711612f75565b6137258161371f85546134b3565b8561354f565b6000601f82116001811461375357600083156137415750838201355b61374b848261359f565b8655506137ad565b600085815260209020601f19841690835b828110156137845786850135825560209485019460019092019101613764565b50848210156137a15760001960f88660031b161c19848701351681555b505060018360011b0185555b505050506137be60208301836136aa565b6137cc8183600186016135b4565b50506137db60408301836136aa565b6137e98183600286016135b4565b5050606082013560038201556080820135600482015560a082013560058201555050565b6000808335601e1984360301811261382457600080fd5b83016020810192503590506001600160401b0381111561384357600080fd5b803603821315610cdf57600080fd5b602081526000613862838461380d565b60c0602085015261387760e08501828461366d565b915050613887602085018561380d565b601f198086850301604087015261389f84838561366d565b93506138ae604088018861380d565b9350915080868503016060870152506138c883838361366d565b9250505060608401356080840152608084013560a084015260a084013560c08401528091505092915050565b6000808454613902816134b3565b6001828116801561391a576001811461392f5761395e565b60ff198416875282151583028701945061395e565b8860005260208060002060005b858110156139555781548a82015290840190820161393c565b50505082870194505b505050508351613972818360208801612e31565b64173539b7b760d91b9101908152600501949350505050565b60008161399a5761399a6134ed565b506000190190565b60208082526034908201527f455243373231415f5f496e697469616c697a61626c653a20636f6e7472616374604082015273206973206e6f7420696e697469616c697a696e6760601b606082015260800190565b600060208284031215613a0857600080fd5b5051919050565b6001600160a01b0385811682528416602082015260408101839052608060608201819052600090613a4290830184612e55565b9695505050505050565b600060208284031215613a5e57600080fd5b81516115c681612da4565b81516001600160401b03811115613a8257613a82612f75565b613a9681613a9084546134b3565b8461354f565b602080601f831160018114613ac55760008415613ab35750858301515b613abd858261359f565b865550613597565b600085815260208120601f198616915b82811015613af457888601518255948401946001909101908401613ad5565b5085821015613b125787850151600019600388901b60f8161c191681555b5050505050600190811b01905550565b60008251613b34818460208701612e31565b919091019291505056fe4ba68d394296e94ab6523d7aa99d008a89d73b64505b067e0770522ff96e2330360894a13ba1a3210667c828492db98dca3e2076cc3735a920a3ca505d382bbca49807205ce4d355092ef5a8a18f56e8913cf4a201fbe287825b095693c21775a2646970667358221220ef4498a96c5c3aadd4282d0a0905594b94d34e3a442aa3a377f955d5fa6397b064736f6c63430008180033",
  "linkReferences": {},
  "deployedLinkReferences": {}
}