{
  "_format": "hh-sol-artifact-1",
  "contractName": "CraftedCollection",
  "sourceName": "contracts/CraftedCollection.sol",
  "abi": [
    {
      "inputs": [],
      "name": "AccessControlBadConfirmation",
      "type": "error"
    },
    {
      "inputs": [
        {
          "internalType": "address",
          "name": "account",
          "type": "address"
        },
        {
          "internalType": "bytes32",
          "name": "neededRole",
          "type": "bytes32"
        }
      ],
      "name": "AccessControlUnauthorizedAccount",
      "type": "error"
    },
    {
      "inputs": [
        {
          "internalType": "address",
          "name": "target",
          "type": "address"
        }
      ],
      "name": "AddressEmptyCode",
      "type": "error"
    },
    {
      "inputs": [],
      "name": "ApprovalCallerNotOwnerNorApproved",
      "type": "error"
    },
    {
      "inputs": [],
      "name": "ApprovalQueryForNonexistentToken",
      "type": "error"
    },
    {
      "inputs": [],
      "name": "BalanceQueryForZeroAddress",
      "type": "error"
    },
    {
      "inputs": [
        {
          "internalType": "address",
          "name": "implementation",
          "type": "address"
        }
      ],
      "name": "ERC1967InvalidImplementation",
      "type": "error"
    },
    {
      "inputs": [],
      "name": "ERC1967NonPayable",
      "type": "error"
    },
    {
      "inputs": [
        {
          "internalType": "uint256",
          "name": "numerator",
          "type": "uint256"
        },
        {
          "internalType": "uint256",
          "name": "denominator",
          "type": "uint256"
        }
      ],
      "name": "ERC2981InvalidDefaultRoyalty",
      "type": "error"
    },
    {
      "inputs": [
        {
          "internalType": "address",
          "name": "receiver",
          "type": "address"
        }
      ],
      "name": "ERC2981InvalidDefaultRoyaltyReceiver",
      "type": "error"
    },
    {
      "inputs": [
        {
          "internalType": "uint256",
          "name": "tokenId",
          "type": "uint256"
        },
        {
          "internalType": "uint256",
          "name": "numerator",
          "type": "uint256"
        },
        {
          "internalType": "uint256",
          "name": "denominator",
          "type": "uint256"
        }
      ],
      "name": "ERC2981InvalidTokenRoyalty",
      "type": "error"
    },
    {
      "inputs": [
        {
          "internalType": "uint256",
          "name": "tokenId",
          "type": "uint256"
        },
        {
          "internalType": "address",
          "name": "receiver",
          "type": "address"
        }
      ],
      "name": "ERC2981InvalidTokenRoyaltyReceiver",
      "type": "error"
    },
    {
      "inputs": [],
      "name": "EnforcedPause",
      "type": "error"
    },
    {
      "inputs": [],
      "name": "ExpectedPause",
      "type": "error"
    },
    {
      "inputs": [],
      "name": "FailedCall",
      "type": "error"
    },
    {
      "inputs": [],
      "name": "FallbackNotAllowed",
      "type": "error"
    },
    {
      "inputs": [
        {
          "internalType": "uint256",
          "name": "balance",
          "type": "uint256"
        },
        {
          "internalType": "uint256",
          "name": "needed",
          "type": "uint256"
        }
      ],
      "name": "InsufficientBalance",
      "type": "error"
    },
    {
      "inputs": [],
      "name": "InsufficientPayment",
      "type": "error"
    },
    {
      "inputs": [],
      "name": "InvalidInitialization",
      "type": "error"
    },
    {
      "inputs": [],
      "name": "InvalidQueryRange",
      "type": "error"
    },
    {
      "inputs": [],
      "name": "InvalidToken",
      "type": "error"
    },
    {
      "inputs": [],
      "name": "MaxSupplyReached",
      "type": "error"
    },
    {
      "inputs": [],
      "name": "MaxWalletLimit",
      "type": "error"
    },
    {
      "inputs": [],
      "name": "MetadataIsFrozen",
      "type": "error"
    },
    {
      "inputs": [],
      "name": "MintERC2309QuantityExceedsLimit",
      "type": "error"
    },
    {
      "inputs": [],
      "name": "MintToZeroAddress",
      "type": "error"
    },
    {
      "inputs": [],
      "name": "MintZeroQuantity",
      "type": "error"
    },
    {
      "inputs": [],
      "name": "NotAuthorized",
      "type": "error"
    },
    {
      "inputs": [],
      "name": "NotCompatibleWithSpotMints",
      "type": "error"
    },
    {
      "inputs": [],
      "name": "NotInitializing",
      "type": "error"
    },
    {
      "inputs": [],
      "name": "OwnerQueryForNonexistentToken",
      "type": "error"
    },
    {
      "inputs": [],
      "name": "OwnershipNotInitializedForExtraData",
      "type": "error"
    },
    {
      "inputs": [],
      "name": "ReentrancyGuardReentrantCall",
      "type": "error"
    },
    {
      "inputs": [],
      "name": "SequentialMintExceedsLimit",
      "type": "error"
    },
    {
      "inputs": [],
      "name": "SequentialUpToTooSmall",
      "type": "error"
    },
    {
      "inputs": [],
      "name": "SpotMintTokenIdTooSmall",
      "type": "error"
    },
    {
      "inputs": [],
      "name": "TokenAlreadyExists",
      "type": "error"
    },
    {
      "inputs": [],
      "name": "TransferCallerNotOwnerNorApproved",
      "type": "error"
    },
    {
      "inputs": [],
      "name": "TransferFromIncorrectOwner",
      "type": "error"
    },
    {
      "inputs": [],
      "name": "TransferToNonERC721ReceiverImplementer",
      "type": "error"
    },
    {
      "inputs": [],
      "name": "TransferToZeroAddress",
      "type": "error"
    },
    {
      "inputs": [],
      "name": "URIQueryForNonexistentToken",
      "type": "error"
    },
    {
      "inputs": [],
      "name": "UUPSUnauthorizedCallContext",
      "type": "error"
    },
    {
      "inputs": [
        {
          "internalType": "bytes32",
          "name": "slot",
          "type": "bytes32"
        }
      ],
      "name": "UUPSUnsupportedProxiableUUID",
      "type": "error"
    },
    {
      "inputs": [],
      "name": "ZeroAddress",
      "type": "error"
    },
    {
      "anonymous": false,
      "inputs": [
        {
          "indexed": true,
          "internalType": "address",
          "name": "owner",
          "type": "address"
        },
        {
          "indexed": true,
          "internalType": "address",
          "name": "approved",
          "type": "address"
        },
        {
          "indexed": true,
          "internalType": "uint256",
          "name": "tokenId",
          "type": "uint256"
        }
      ],
      "name": "Approval",
      "type": "event"
    },
    {
      "anonymous": false,
      "inputs": [
        {
          "indexed": true,
          "internalType": "address",
          "name": "owner",
          "type": "address"
        },
        {
          "indexed": true,
          "internalType": "address",
          "name": "operator",
          "type": "address"
        },
        {
          "indexed": false,
          "internalType": "bool",
          "name": "approved",
          "type": "bool"
        }
      ],
      "name": "ApprovalForAll",
      "type": "event"
    },
    {
      "anonymous": false,
      "inputs": [
        {
          "indexed": false,
          "internalType": "string",
          "name": "baseURI",
          "type": "string"
        }
      ],
      "name": "BaseURISet",
      "type": "event"
    },
    {
      "anonymous": false,
      "inputs": [
        {
          "indexed": true,
          "internalType": "uint256",
          "name": "fromTokenId",
          "type": "uint256"
        },
        {
          "indexed": false,
          "internalType": "uint256",
          "name": "toTokenId",
          "type": "uint256"
        },
        {
          "indexed": true,
          "internalType": "address",
          "name": "from",
          "type": "address"
        },
        {
          "indexed": true,
          "internalType": "address",
          "name": "to",
          "type": "address"
        }
      ],
      "name": "ConsecutiveTransfer",
      "type": "event"
    },
    {
      "anonymous": false,
      "inputs": [],
      "name": "CraftingInitialized",
      "type": "event"
    },
    {
      "anonymous": false,
      "inputs": [
        {
          "indexed": false,
          "internalType": "uint64",
          "name": "version",
          "type": "uint64"
        }
      ],
      "name": "Initialized",
      "type": "event"
    },
    {
      "anonymous": false,
      "inputs": [
        {
          "indexed": false,
          "internalType": "uint256",
          "name": "newLimit",
          "type": "uint256"
        }
      ],
      "name": "MaxWalletHoldingsUpdated",
      "type": "event"
    },
    {
      "anonymous": false,
      "inputs": [
        {
          "indexed": true,
          "internalType": "uint256",
          "name": "tokenId",
          "type": "uint256"
        }
      ],
      "name": "MetadataFrozen",
      "type": "event"
    },
    {
      "anonymous": false,
      "inputs": [
        {
          "indexed": true,
          "internalType": "uint256",
          "name": "tokenId",
          "type": "uint256"
        },
        {
          "indexed": false,
          "internalType": "string",
          "name": "metadataURI",
          "type": "string"
        }
      ],
      "name": "MetadataUpdated",
      "type": "event"
    },
    {
      "anonymous": false,
      "inputs": [
        {
          "indexed": false,
          "internalType": "uint256",
          "name": "newPrice",
          "type": "uint256"
        }
      ],
      "name": "MintPriceUpdated",
      "type": "event"
    },
    {
      "anonymous": false,
      "inputs": [
        {
          "indexed": true,
          "internalType": "address",
          "name": "to",
          "type": "address"
        },
        {
          "indexed": false,
          "internalType": "uint256",
          "name": "quantity",
          "type": "uint256"
        }
      ],
      "name": "Minted",
      "type": "event"
    },
    {
      "anonymous": false,
      "inputs": [
        {
          "indexed": false,
          "internalType": "address",
          "name": "account",
          "type": "address"
        }
      ],
      "name": "Paused",
      "type": "event"
    },
    {
      "anonymous": false,
      "inputs": [
        {
          "indexed": true,
          "internalType": "address",
          "name": "sender",
          "type": "address"
        },
        {
          "indexed": false,
          "internalType": "uint256",
          "name": "amount",
          "type": "uint256"
        }
      ],
      "name": "Received",
      "type": "event"
    },
    {
      "anonymous": false,
      "inputs": [
        {
          "indexed": true,
          "internalType": "bytes32",
          "name": "role",
          "type": "bytes32"
        },
        {
          "indexed": true,
          "internalType": "bytes32",
          "name": "previousAdminRole",
          "type": "bytes32"
        },
        {
          "indexed": true,
          "internalType": "bytes32",
          "name": "newAdminRole",
          "type": "bytes32"
        }
      ],
      "name": "RoleAdminChanged",
      "type": "event"
    },
    {
      "anonymous": false,
      "inputs": [
        {
          "indexed": true,
          "internalType": "bytes32",
          "name": "role",
          "type": "bytes32"
        },
        {
          "indexed": true,
          "internalType": "address",
          "name": "account",
          "type": "address"
        },
        {
          "indexed": true,
          "internalType": "address",
          "name": "sender",
          "type": "address"
        }
      ],
      "name": "RoleGranted",
      "type": "event"
    },
    {
      "anonymous": false,
      "inputs": [
        {
          "indexed": true,
          "internalType": "bytes32",
          "name": "role",
          "type": "bytes32"
        },
        {
          "indexed": true,
          "internalType": "address",
          "name": "account",
          "type": "address"
        },
        {
          "indexed": true,
          "internalType": "address",
          "name": "sender",
          "type": "address"
        }
      ],
      "name": "RoleRevoked",
      "type": "event"
    },
    {
      "anonymous": false,
      "inputs": [
        {
          "indexed": true,
          "internalType": "uint256",
          "name": "tokenId",
          "type": "uint256"
        },
        {
          "components": [
            {
              "internalType": "string",
              "name": "code",
              "type": "string"
            },
            {
              "internalType": "string",
              "name": "artVersion",
              "type": "string"
            },
            {
              "internalType": "string",
              "name": "metadataURI",
              "type": "string"
            },
            {
              "internalType": "uint256",
              "name": "level",
              "type": "uint256"
            },
            {
              "internalType": "uint256",
              "name": "power",
              "type": "uint256"
            },
            {
              "internalType": "uint256",
              "name": "rarity",
              "type": "uint256"
            }
          ],
          "indexed": false,
          "internalType": "struct CraftedCollection.Traits",
          "name": "traits",
          "type": "tuple"
        }
      ],
      "name": "TraitsUpdated",
      "type": "event"
    },
    {
      "anonymous": false,
      "inputs": [
        {
          "indexed": true,
          "internalType": "address",
          "name": "from",
          "type": "address"
        },
        {
          "indexed": true,
          "internalType": "address",
          "name": "to",
          "type": "address"
        },
        {
          "indexed": true,
          "internalType": "uint256",
          "name": "tokenId",
          "type": "uint256"
        }
      ],
      "name": "Transfer",
      "type": "event"
    },
    {
      "anonymous": false,
      "inputs": [
        {
          "indexed": false,
          "internalType": "address",
          "name": "account",
          "type": "address"
        }
      ],
      "name": "Unpaused",
      "type": "event"
    },
    {
      "anonymous": false,
      "inputs": [
        {
          "indexed": true,
          "internalType": "address",
          "name": "implementation",
          "type": "address"
        }
      ],
      "name": "Upgraded",
      "type": "event"
    },
    {
      "anonymous": false,
      "inputs": [
        {
          "indexed": true,
          "internalType": "address",
          "name": "recipient",
          "type": "address"
        },
        {
          "indexed": false,
          "internalType": "uint256",
          "name": "amount",
          "type": "uint256"
        }
      ],
      "name": "Withdraw",
      "type": "event"
    },
    {
      "stateMutability": "payable",
      "type": "fallback"
    },
    {
      "inputs": [],
      "name": "ADMIN_ROLE",
      "outputs": [
        {
          "internalType": "bytes32",
          "name": "",
          "type": "bytes32"
        }
      ],
      "stateMutability": "view",
      "type": "function"
    },
    {
      "inputs": [],
      "name": "CRAFTER_ROLE",
      "outputs": [
        {
          "internalType": "bytes32",
          "name": "",
          "type": "bytes32"
        }
      ],
      "stateMutability": "view",
      "type": "function"
    },
    {
      "inputs": [],
      "name": "DEFAULT_ADMIN_ROLE",
      "outputs": [
        {
          "internalType": "bytes32",
          "name": "",
          "type": "bytes32"
        }
      ],
      "stateMutability": "view",
      "type": "function"
    },
    {
      "inputs": [],
      "name": "MAX_SUPPLY",
      "outputs": [
        {
          "internalType": "uint256",
          "name": "",
          "type": "uint256"
        }
      ],
      "stateMutability": "view",
      "type": "function"
    },
    {
      "inputs": [],
      "name": "UPGRADE_INTERFACE_VERSION",
      "outputs": [
        {
          "internalType": "string",
          "name": "",
          "type": "string"
        }
      ],
      "stateMutability": "view",
      "type": "function"
    },
    {
      "inputs": [
        {
          "internalType": "address",
          "name": "to",
          "type": "address"
        },
        {
          "internalType": "uint256",
          "name": "quantity",
          "type": "uint256"
        }
      ],
      "name": "adminMint",
      "outputs": [],
      "stateMutability": "nonpayable",
      "type": "function"
    },
    {
      "inputs": [
        {
          "internalType": "address",
          "name": "to",
          "type": "address"
        },
        {
          "internalType": "uint256",
          "name": "tokenId",
          "type": "uint256"
        }
      ],
      "name": "approve",
      "outputs": [],
      "stateMutability": "payable",
      "type": "function"
    },
    {
      "inputs": [
        {
          "internalType": "address",
          "name": "owner",
          "type": "address"
        }
      ],
      "name": "balanceOf",
      "outputs": [
        {
          "internalType": "uint256",
          "name": "",
          "type": "uint256"
        }
      ],
      "stateMutability": "view",
      "type": "function"
    },
    {
      "inputs": [
        {
          "internalType": "uint256",
          "name": "tokenId",
          "type": "uint256"
        }
      ],
      "name": "explicitOwnershipOf",
      "outputs": [
        {
          "components": [
            {
              "internalType": "address",
              "name": "addr",
              "type": "address"
            },
            {
              "internalType": "uint64",
              "name": "startTimestamp",
              "type": "uint64"
            },
            {
              "internalType": "bool",
              "name": "burned",
              "type": "bool"
            },
            {
              "internalType": "uint24",
              "name": "extraData",
              "type": "uint24"
            }
          ],
          "internalType": "struct IERC721AUpgradeable.TokenOwnership",
          "name": "ownership",
          "type": "tuple"
        }
      ],
      "stateMutability": "view",
      "type": "function"
    },
    {
      "inputs": [
        {
          "internalType": "uint256[]",
          "name": "tokenIds",
          "type": "uint256[]"
        }
      ],
      "name": "explicitOwnershipsOf",
      "outputs": [
        {
          "components": [
            {
              "internalType": "address",
              "name": "addr",
              "type": "address"
            },
            {
              "internalType": "uint64",
              "name": "startTimestamp",
              "type": "uint64"
            },
            {
              "internalType": "bool",
              "name": "burned",
              "type": "bool"
            },
            {
              "internalType": "uint24",
              "name": "extraData",
              "type": "uint24"
            }
          ],
          "internalType": "struct IERC721AUpgradeable.TokenOwnership[]",
          "name": "",
          "type": "tuple[]"
        }
      ],
      "stateMutability": "view",
      "type": "function"
    },
    {
      "inputs": [
        {
          "internalType": "uint256",
          "name": "tokenId",
          "type": "uint256"
        }
      ],
      "name": "freezeMetadata",
      "outputs": [],
      "stateMutability": "nonpayable",
      "type": "function"
    },
    {
      "inputs": [
        {
          "internalType": "uint256",
          "name": "tokenId",
          "type": "uint256"
        }
      ],
      "name": "getApproved",
      "outputs": [
        {
          "internalType": "address",
          "name": "",
          "type": "address"
        }
      ],
      "stateMutability": "view",
      "type": "function"
    },
    {
      "inputs": [
        {
          "internalType": "bytes32",
          "name": "role",
          "type": "bytes32"
        }
      ],
      "name": "getRoleAdmin",
      "outputs": [
        {
          "internalType": "bytes32",
          "name": "",
          "type": "bytes32"
        }
      ],
      "stateMutability": "view",
      "type": "function"
    },
    {
      "inputs": [
        {
          "internalType": "uint256",
          "name": "tokenId",
          "type": "uint256"
        }
      ],
      "name": "getTraits",
      "outputs": [
        {
          "components": [
            {
              "internalType": "string",
              "name": "code",
              "type": "string"
            },
            {
              "internalType": "string",
              "name": "artVersion",
              "type": "string"
            },
            {
              "internalType": "string",
              "name": "metadataURI",
              "type": "string"
            },
            {
              "internalType": "uint256",
              "name": "level",
              "type": "uint256"
            },
            {
              "internalType": "uint256",
              "name": "power",
              "type": "uint256"
            },
            {
              "internalType": "uint256",
              "name": "rarity",
              "type": "uint256"
            }
          ],
          "internalType": "struct CraftedCollection.Traits",
          "name": "",
          "type": "tuple"
        }
      ],
      "stateMutability": "view",
      "type": "function"
    },
    {
      "inputs": [
        {
          "internalType": "bytes32",
          "name": "role",
          "type": "bytes32"
        },
        {
          "internalType": "address",
          "name": "account",
          "type": "address"
        }
      ],
      "name": "grantRole",
      "outputs": [],
      "stateMutability": "nonpayable",
      "type": "function"
    },
    {
      "inputs": [
        {
          "internalType": "bytes32",
          "name": "role",
          "type": "bytes32"
        },
        {
          "internalType": "address",
          "name": "account",
          "type": "address"
        }
      ],
      "name": "hasRole",
      "outputs": [
        {
          "internalType": "bool",
          "name": "",
          "type": "bool"
        }
      ],
      "stateMutability": "view",
      "type": "function"
    },
    {
      "inputs": [
        {
          "internalType": "string",
          "name": "name_",
          "type": "string"
        },
        {
          "internalType": "string",
          "name": "symbol_",
          "type": "string"
        }
      ],
      "name": "initialize",
      "outputs": [],
      "stateMutability": "nonpayable",
      "type": "function"
    },
    {
      "inputs": [
        {
          "internalType": "address",
          "name": "owner",
          "type": "address"
        },
        {
          "internalType": "address",
          "name": "operator",
          "type": "address"
        }
      ],
      "name": "isApprovedForAll",
      "outputs": [
        {
          "internalType": "bool",
          "name": "",
          "type": "bool"
        }
      ],
      "stateMutability": "view",
      "type": "function"
    },
    {
      "inputs": [],
      "name": "maxWalletHoldings",
      "outputs": [
        {
          "internalType": "uint256",
          "name": "",
          "type": "uint256"
        }
      ],
      "stateMutability": "view",
      "type": "function"
    },
    {
      "inputs": [],
      "name": "mintPrice",
      "outputs": [
        {
          "internalType": "uint256",
          "name": "",
          "type": "uint256"
        }
      ],
      "stateMutability": "view",
      "type": "function"
    },
    {
      "inputs": [],
      "name": "name",
      "outputs": [
        {
          "internalType": "string",
          "name": "",
          "type": "string"
        }
      ],
      "stateMutability": "view",
      "type": "function"
    },
    {
      "inputs": [
        {
          "internalType": "uint256",
          "name": "tokenId",
          "type": "uint256"
        }
      ],
      "name": "ownerOf",
      "outputs": [
        {
          "internalType": "address",
          "name": "",
          "type": "address"
        }
      ],
      "stateMutability": "view",
      "type": "function"
    },
    {
      "inputs": [],
      "name": "pause",
      "outputs": [],
      "stateMutability": "nonpayable",
      "type": "function"
    },
    {
      "inputs": [],
      "name": "paused",
      "outputs": [
        {
          "internalType": "bool",
          "name": "",
          "type": "bool"
        }
      ],
      "stateMutability": "view",
      "type": "function"
    },
    {
      "inputs": [],
      "name": "proxiableUUID",
      "outputs": [
        {
          "internalType": "bytes32",
          "name": "",
          "type": "bytes32"
        }
      ],
      "stateMutability": "view",
      "type": "function"
    },
    {
      "inputs": [
        {
          "internalType": "uint256",
          "name": "quantity",
          "type": "uint256"
        }
      ],
      "name": "publicMint",
      "outputs": [],
      "stateMutability": "payable",
      "type": "function"
    },
    {
      "inputs": [
        {
          "internalType": "bytes32",
          "name": "role",
          "type": "bytes32"
        },
        {
          "internalType": "address",
          "name": "callerConfirmation",
          "type": "address"
        }
      ],
      "name": "renounceRole",
      "outputs": [],
      "stateMutability": "nonpayable",
      "type": "function"
    },
    {
      "inputs": [
        {
          "internalType": "bytes32",
          "name": "role",
          "type": "bytes32"
        },
        {
          "internalType": "address",
          "name": "account",
          "type": "address"
        }
      ],
      "name": "revokeRole",
      "outputs": [],
      "stateMutability": "nonpayable",
      "type": "function"
    },
    {
      "inputs": [
        {
          "internalType": "uint256",
          "name": "tokenId",
          "type": "uint256"
        },
        {
          "internalType": "uint256",
          "name": "salePrice",
          "type": "uint256"
        }
      ],
      "name": "royaltyInfo",
      "outputs": [
        {
          "internalType": "address",
          "name": "receiver",
          "type": "address"
        },
        {
          "internalType": "uint256",
          "name": "amount",
          "type": "uint256"
        }
      ],
      "stateMutability": "view",
      "type": "function"
    },
    {
      "inputs": [
        {
          "internalType": "address",
          "name": "from",
          "type": "address"
        },
        {
          "internalType": "address",
          "name": "to",
          "type": "address"
        },
        {
          "internalType": "uint256",
          "name": "tokenId",
          "type": "uint256"
        }
      ],
      "name": "safeTransferFrom",
      "outputs": [],
      "stateMutability": "payable",
      "type": "function"
    },
    {
      "inputs": [
        {
          "internalType": "address",
          "name": "from",
          "type": "address"
        },
        {
          "internalType": "address",
          "name": "to",
          "type": "address"
        },
        {
          "internalType": "uint256",
          "name": "tokenId",
          "type": "uint256"
        },
        {
          "internalType": "bytes",
          "name": "_data",
          "type": "bytes"
        }
      ],
      "name": "safeTransferFrom",
      "outputs": [],
      "stateMutability": "payable",
      "type": "function"
    },
    {
      "inputs": [
        {
          "internalType": "address",
          "name": "operator",
          "type": "address"
        },
        {
          "internalType": "bool",
          "name": "approved",
          "type": "bool"
        }
      ],
      "name": "setApprovalForAll",
      "outputs": [],
      "stateMutability": "nonpayable",
      "type": "function"
    },
    {
      "inputs": [
        {
          "internalType": "string",
          "name": "baseURI",
          "type": "string"
        }
      ],
      "name": "setBaseURI",
      "outputs": [],
      "stateMutability": "nonpayable",
      "type": "function"
    },
    {
      "inputs": [
        {
          "internalType": "uint256",
          "name": "newLimit",
          "type": "uint256"
        }
      ],
      "name": "setMaxWalletHoldings",
      "outputs": [],
      "stateMutability": "nonpayable",
      "type": "function"
    },
    {
      "inputs": [
        {
          "internalType": "uint256",
          "name": "newPrice",
          "type": "uint256"
        }
      ],
      "name": "setMintPrice",
      "outputs": [],
      "stateMutability": "nonpayable",
      "type": "function"
    },
    {
      "inputs": [
        {
          "internalType": "address",
          "name": "receiver",
          "type": "address"
        },
        {
          "internalType": "uint96",
          "name": "feeNumerator",
          "type": "uint96"
        }
      ],
      "name": "setRoyaltyInfo",
      "outputs": [],
      "stateMutability": "nonpayable",
      "type": "function"
    },
    {
      "inputs": [
        {
          "internalType": "bytes4",
          "name": "interfaceId",
          "type": "bytes4"
        }
      ],
      "name": "supportsInterface",
      "outputs": [
        {
          "internalType": "bool",
          "name": "",
          "type": "bool"
        }
      ],
      "stateMutability": "view",
      "type": "function"
    },
    {
      "inputs": [],
      "name": "symbol",
      "outputs": [
        {
          "internalType": "string",
          "name": "",
          "type": "string"
        }
      ],
      "stateMutability": "view",
      "type": "function"
    },
    {
      "inputs": [
        {
          "internalType": "uint256",
          "name": "tokenId",
          "type": "uint256"
        }
      ],
      "name": "tokenURI",
      "outputs": [
        {
          "internalType": "string",
          "name": "",
          "type": "string"
        }
      ],
      "stateMutability": "view",
      "type": "function"
    },
    {
      "inputs": [
        {
          "internalType": "address",
          "name": "owner",
          "type": "address"
        }
      ],
      "name": "tokensOfOwner",
      "outputs": [
        {
          "internalType": "uint256[]",
          "name": "",
          "type": "uint256[]"
        }
      ],
      "stateMutability": "view",
      "type": "function"
    },
    {
      "inputs": [
        {
          "internalType": "address",
          "name": "owner",
          "type": "address"
        },
        {
          "internalType": "uint256",
          "name": "start",
          "type": "uint256"
        },
        {
          "internalType": "uint256",
          "name": "stop",
          "type": "uint256"
        }
      ],
      "name": "tokensOfOwnerIn",
      "outputs": [
        {
          "internalType": "uint256[]",
          "name": "",
          "type": "uint256[]"
        }
      ],
      "stateMutability": "view",
      "type": "function"
    },
    {
      "inputs": [],
      "name": "totalSupply",
      "outputs": [
        {
          "internalType": "uint256",
          "name": "result",
          "type": "uint256"
        }
      ],
      "stateMutability": "view",
      "type": "function"
    },
    {
      "inputs": [
        {
          "internalType": "address",
          "name": "from",
          "type": "address"
        },
        {
          "internalType": "address",
          "name": "to",
          "type": "address"
        },
        {
          "internalType": "uint256",
          "name": "tokenId",
          "type": "uint256"
        }
      ],
      "name": "transferFrom",
      "outputs": [],
      "stateMutability": "payable",
      "type": "function"
    },
    {
      "inputs": [],
      "name": "unpause",
      "outputs": [],
      "stateMutability": "nonpayable",
      "type": "function"
    },
    {
      "inputs": [
        {
          "internalType": "uint256",
          "name": "tokenId",
          "type": "uint256"
        },
        {
          "internalType": "string",
          "name": "newURI",
          "type": "string"
        }
      ],
      "name": "updateMetadata",
      "outputs": [],
      "stateMutability": "nonpayable",
      "type": "function"
    },
    {
      "inputs": [
        {
          "internalType": "uint256",
          "name": "tokenId",
          "type": "uint256"
        },
        {
          "components": [
            {
              "internalType": "string",
              "name": "code",
              "type": "string"
            },
            {
              "internalType": "string",
              "name": "artVersion",
              "type": "string"
            },
            {
              "internalType": "string",
              "name": "metadataURI",
              "type": "string"
            },
            {
              "internalType": "uint256",
              "name": "level",
              "type": "uint256"
            },
            {
              "internalType": "uint256",
              "name": "power",
              "type": "uint256"
            },
            {
              "internalType": "uint256",
              "name": "rarity",
              "type": "uint256"
            }
          ],
          "internalType": "struct CraftedCollection.Traits",
          "name": "newTraits",
          "type": "tuple"
        }
      ],
      "name": "updateTraits",
      "outputs": [],
      "stateMutability": "nonpayable",
      "type": "function"
    },
    {
      "inputs": [
        {
          "internalType": "address",
          "name": "newImplementation",
          "type": "address"
        },
        {
          "internalType": "bytes",
          "name": "data",
          "type": "bytes"
        }
      ],
      "name": "upgradeToAndCall",
      "outputs": [],
      "stateMutability": "payable",
      "type": "function"
    },
    {
      "inputs": [
        {
          "internalType": "address payable",
          "name": "recipient",
          "type": "address"
        }
      ],
      "name": "withdraw",
      "outputs": [],
      "stateMutability": "nonpayable",
      "type": "function"
    },
    {
      "stateMutability": "payable",
      "type": "receive"
    }
  ],
  "bytecode": "0x60a06040523060805234801561001457600080fd5b50608051613cd961003e600039600081816122c6015281816122ef01526124c70152613cd96000f3fe6080604052600436106102975760003560e01c80635c975abb1161015a578063a22cb465116100c1578063c87b56dd1161007a578063c87b56dd14610802578063d547741f14610822578063e1dc076114610842578063e58306f91461086f578063e985e9c51461088f578063f4a0a528146108af576102d3565b8063a22cb4651461073b578063ad3cb1cc1461075b578063b7ea78b51461078c578063b88d4fde146107a2578063c1380e29146107b5578063c23dc68f146107d5576102d3565b80638462151c116101135780638462151c1461068457806391d14854146106b157806395d89b41146106d157806399061beb146106e657806399a2557a14610706578063a217fddf14610726576102d3565b80635c975abb146105e25780636352211e146105f75780636817c76c1461061757806370a082311461062d57806375b238fc1461064d5780638456cb591461066f576102d3565b8063338cab93116101fe5780634f1ef286116101b75780634f1ef2861461052d57806351cff8d91461054057806352d1902d1461056057806353c8388e1461057557806355f804b3146105955780635bbb2177146105b5576102d3565b8063338cab931461048357806336568abe146104a55780633f4ba83a146104c557806342842e0e146104da5780634cd88b76146104ed5780634dcf6ad61461050d576102d3565b806323b872dd1161025057806323b872dd146103c8578063248a9ca3146103db5780632a55205a146103fb5780632db115441461043a5780632f2ff15d1461044d57806332cb6b0c1461046d576102d3565b806301ffc9a7146102ec57806302fa7c471461032157806306fdde0314610343578063081812fc14610365578063095ea7b31461039257806318160ddd146103a5576102d3565b366102d35760405134815233907f88a5966d370b9919b20f3e2c13ff65706f196a4e32cc2c12bf57088f885258749060200160405180910390a2005b604051630deab4c360e41b815260040160405180910390fd5b3480156102f857600080fd5b5061030c610307366004612ebf565b6108cf565b60405190151581526020015b60405180910390f35b34801561032d57600080fd5b5061034161033c366004612ef1565b6108e0565b005b34801561034f57600080fd5b5061035861092e565b6040516103189190612f86565b34801561037157600080fd5b50610385610380366004612f99565b6109c9565b6040516103189190612fb2565b6103416103a0366004612fc6565b610a0d565b3480156103b157600080fd5b506103ba610a1d565b604051908152602001610318565b6103416103d6366004612ff2565b610a5a565b3480156103e757600080fd5b506103ba6103f6366004612f99565b610c2a565b34801561040757600080fd5b5061041b610416366004613033565b610c4a565b604080516001600160a01b039093168352602083019190915201610318565b610341610448366004612f99565b610d11565b34801561045957600080fd5b50610341610468366004613055565b610e25565b34801561047957600080fd5b506103ba61037881565b34801561048f57600080fd5b506103ba600080516020613c4483398151915281565b3480156104b157600080fd5b506103416104c0366004613055565b610e47565b3480156104d157600080fd5b50610341610e7a565b6103416104e8366004612ff2565b610e9a565b3480156104f957600080fd5b5061034161050836600461311c565b610eb5565b34801561051957600080fd5b50610341610528366004612f99565b611175565b61034161053b36600461317f565b6111f7565b34801561054c57600080fd5b5061034161055b3660046131c4565b611212565b34801561056c57600080fd5b506103ba6112b9565b34801561058157600080fd5b50610341610590366004613222565b6112d6565b3480156105a157600080fd5b506103416105b036600461326d565b6113a1565b3480156105c157600080fd5b506105d56105d03660046132ae565b611405565b604051610318919061335e565b3480156105ee57600080fd5b5061030c611451565b34801561060357600080fd5b50610385610612366004612f99565b611466565b34801561062357600080fd5b506103ba60005481565b34801561063957600080fd5b506103ba6106483660046131c4565b611471565b34801561065957600080fd5b506103ba600080516020613c8483398151915281565b34801561067b57600080fd5b506103416114d0565b34801561069057600080fd5b506106a461069f3660046131c4565b6114f0565b60405161031891906133ac565b3480156106bd57600080fd5b5061030c6106cc366004613055565b61153e565b3480156106dd57600080fd5b50610358611574565b3480156106f257600080fd5b50610341610701366004612f99565b61158c565b34801561071257600080fd5b506106a46107213660046133e4565b6115e1565b34801561073257600080fd5b506103ba600081565b34801561074757600080fd5b50610341610756366004613419565b6115f8565b34801561076757600080fd5b50610358604051806040016040528060058152602001640352e302e360dc1b81525081565b34801561079857600080fd5b506103ba60015481565b6103416107b036600461344c565b611675565b3480156107c157600080fd5b506103416107d03660046134b7565b6116b0565b3480156107e157600080fd5b506107f56107f0366004612f99565b611778565b60405161031891906134f9565b34801561080e57600080fd5b5061035861081d366004612f99565b6117cf565b34801561082e57600080fd5b5061034161083d366004613055565b611829565b34801561084e57600080fd5b5061086261085d366004612f99565b611845565b6040516103189190613507565b34801561087b57600080fd5b5061034161088a366004612fc6565b611a97565b34801561089b57600080fd5b5061030c6108aa36600461358a565b611b71565b3480156108bb57600080fd5b506103416108ca366004612f99565b611bae565b60006108da82611bfb565b92915050565b600080516020613c848339815191526108f881611c20565b6001600160a01b03831661091f5760405163d92e233d60e01b815260040160405180910390fd5b6109298383611c2a565b505050565b6060610938611ced565b6002018054610946906135b8565b80601f0160208091040260200160405190810160405280929190818152602001828054610972906135b8565b80156109bf5780601f10610994576101008083540402835291602001916109bf565b820191906000526020600020905b8154815290600101906020018083116109a257829003601f168201915b5050505050905090565b60006109d482611d11565b6109e8576109e86333d1c03960e21b611d99565b6109f0611ced565b60009283526006016020525060409020546001600160a01b031690565b610a1982826001611da3565b5050565b600080610a28611ced565b60010154610a34611ced565b5403039050600019610a44611e54565b14610a5757610a51611ced565b60080154015b90565b6000610a6582611e5a565b6001600160a01b039485169490915081168414610a8b57610a8b62a1148160e81b611d99565b600080610a9784611f47565b91509150610abc8187610aa73390565b6001600160a01b039081169116811491141790565b610ade57610aca8633611b71565b610ade57610ade632ce44b5f60e11b611d99565b610aeb8686866001611f6f565b8015610af657600082555b610afe611ced565b6001600160a01b0387166000908152600591909101602052604090208054600019019055610b2a611ced565b6001600160a01b03861660008181526005929092016020526040909120805460010190554260a01b17600160e11b17610b61611ced565b60008681526004919091016020526040812091909155600160e11b84169003610bd75760018401610b90611ced565b600082815260049190910160205260408120549003610bd557610bb1611ced565b548114610bd55783610bc1611ced565b600083815260049190910160205260409020555b505b6001600160a01b0385168481887fddf252ad1be2c89b69c2b068fc378daa952ba7f163c4a11628f55a4df523b3ef600080a480600003610c2157610c21633a954ecd60e21b611d99565b50505050505050565b600080610c35611fd9565b60009384526020525050604090206001015490565b60008281527fdaedc9ab023613a7caf35e703657e986ccfad7e3eb0af93a2853f8d65dd86b0160205260408120805482917fdaedc9ab023613a7caf35e703657e986ccfad7e3eb0af93a2853f8d65dd86b00916001600160a01b03811690600160a01b90046001600160601b031681610cdd57505081546001600160a01b03811690600160a01b90046001600160601b03165b6000612710610cf56001600160601b0384168a613608565b610cff919061361f565b929650919450505050505b9250929050565b610d19611ffd565b610d21612025565b80600003610d425760405163c1ab6dc160e01b815260040160405180910390fd5b61037881610d4e610a1d565b610d589190613641565b1115610d775760405163d05cb60960e01b815260040160405180910390fd5b80600054610d859190613608565b341015610da55760405163cd1c886760e01b815260040160405180910390fd5b60015481610db233611471565b610dbc9190613641565b1115610ddb57604051633349019160e01b815260040160405180910390fd5b610de5338261206f565b60405181815233907f30385c845b448a36257a6a1716e6ad2e1bc2cbe333cde1e69fe849ad6511adfe9060200160405180910390a2610e22612089565b50565b610e2e82610c2a565b610e3781611c20565b610e4183836120af565b50505050565b6001600160a01b0381163314610e705760405163334bd91960e11b815260040160405180910390fd5b6109298282612150565b600080516020613c84833981519152610e9281611c20565b610e226121c8565b61092983838360405180602001604052806000815250611675565b610ebd61221f565b54610100900460ff16610edc57610ed261221f565b5460ff1615610ee0565b303b155b610f515760405162461bcd60e51b815260206004820152603760248201527f455243373231415f5f496e697469616c697a61626c653a20636f6e7472616374604482015276081a5cc8185b1c9958591e481a5b9a5d1a585b1a5e9959604a1b60648201526084015b60405180910390fd5b6000610f5b61221f565b54610100900460ff161590508015610fa7576001610f7761221f565b80549115156101000261ff00199092169190911790556001610f9761221f565b805460ff19169115159190911790555b6000610fb1612243565b805490915060ff600160401b82041615906001600160401b0316600081158015610fd85750825b90506000826001600160401b03166001148015610ff45750303b155b905081158015611002575080155b156110205760405163f92ee8a960e01b815260040160405180910390fd5b845467ffffffffffffffff19166001178555831561104a57845460ff60401b1916600160401b1785555b611054888861226c565b61105c6122a3565b6110646122a3565b61106c6122ab565b6110746122a3565b61107c6122a3565b6110876000336120af565b506110a0600080516020613c84833981519152336120af565b506110b9600080516020613c44833981519152336120af565b50666a94d74f43000060005560036001556110d6336101f4611c2a565b6040517fe3d77c0c81a47993ce8e388adc64fe0dc88bd28fbf57cbdf333006b59ad82a0a90600090a1831561114557845460ff60401b19168555604051600181527fc7f505b2f371ae2175ee4913f4499e1f2633a7b5936321eed1cdaeb6115181d29060200160405180910390a15b5050505050801561092957600061115a61221f565b80549115156101000261ff0019909216919091179055505050565b600080516020613c8483398151915261118d81611c20565b61119682611d11565b6111b35760405163c1ab6dc160e01b815260040160405180910390fd5b600082815260046020526040808220805460ff191660011790555183917f7c9bd91d0ccee585f666998e287e929bf935cedec1348f7afc4591eca690b90a91a25050565b6111ff6122bb565b61120882612360565b610a198282612378565b600080516020613c8483398151915261122a81611c20565b611232612025565b6001600160a01b0382166112595760405163d92e233d60e01b815260040160405180910390fd5b4761126d6001600160a01b0384168261242c565b826001600160a01b03167f884edad9ce6fa2440d8a54cc123490eb96d2768479d49ff9c7366125a9424364826040516112a891815260200190565b60405180910390a250610a19612089565b60006112c36124bc565b50600080516020613c6483398151915290565b600080516020613c448339815191526112ee81611c20565b6112f784611d11565b6113145760405163c1ab6dc160e01b815260040160405180910390fd5b60008481526004602052604090205460ff16156113445760405163b087bbf360e01b815260040160405180910390fd5b60008481526003602052604090206002016113608385836136b9565b50837f459157ba24c7ab9878b165ef465fa6ae2ab42bcd8445f576be378768b0c47309848460405161139392919061379b565b60405180910390a250505050565b600080516020613c848339815191526113b981611c20565b60026113c68385836136b9565b507ff9c7803e94e0d3c02900d8a90893a6d5e90dd04d32a4cfe825520f82bf9f32f683836040516113f892919061379b565b60405180910390a1505050565b60408051828152600583901b8082016020019092526060915b801561144957601f198082019186010135600061143a82611778565b848401602001525061141e9050565b509392505050565b60008061145c612505565b5460ff1692915050565b60006108da82611e5a565b60006001600160a01b038216611491576114916323d3ad8160e21b611d99565b6001600160401b036114a1611ced565b6005016000846001600160a01b03166001600160a01b0316815260200190815260200160002054169050919050565b600080516020613c848339815191526114e881611c20565b610e22612529565b60606000196114fd611e54565b146115125761151263bdba09d760e01b611d99565b60008061151d612570565b9050606081831461153657611533858484612580565b90505b949350505050565b600080611549611fd9565b6000948552602090815260408086206001600160a01b03959095168652939052505090205460ff1690565b606061157e611ced565b6003018054610946906135b8565b600080516020613c848339815191526115a481611c20565b60018290556040518281527f5a608a926cbc5e51dd142232855af48a512e7b6c9b23bf9ba9475f58fe108b7e906020015b60405180910390a15050565b60606115ee848484612580565b90505b9392505050565b80611601611ced565b336000818152600792909201602090815260408084206001600160a01b03881680865290835293819020805460ff19169515159590951790945592518415158152919290917f17307eab39ab6107e8899845ad3d59bd9653f200f220920489ca2b5937696c31910160405180910390a35050565b611680848484610a5a565b6001600160a01b0383163b15610e415761169c848484846126d6565b610e4157610e416368d2bf6b60e11b611d99565b600080516020613c448339815191526116c881611c20565b6116d183611d11565b6116ee5760405163c1ab6dc160e01b815260040160405180910390fd5b60008381526004602052604090205460ff161561171e5760405163b087bbf360e01b815260040160405180910390fd5b6000838152600360205260409020829061173882826137f5565b905050827fcb51969318cee471d3abc5ee4d81ea83e4748e5063261189cbf68810b17066cf8360405161176b9190613957565b60405180910390a2505050565b611780612e82565b611788611e54565b821115611798576108da826127b8565b6117a0612570565b8210156117ca575b6117b1826127e3565b6117c157600019909101906117a8565b6108da826127b8565b919050565b60606117da82611d11565b6117f75760405163c1ab6dc160e01b815260040160405180910390fd5b600261180283612803565b6040516020016118139291906139f9565b6040516020818303038152906040529050919050565b61183282610c2a565b61183b81611c20565b610e418383612150565b61187e6040518060c001604052806060815260200160608152602001606081526020016000815260200160008152602001600081525090565b61188782611d11565b6118a45760405163c1ab6dc160e01b815260040160405180910390fd5b60008281526003602052604090819020815160c081019092528054829082906118cc906135b8565b80601f01602080910402602001604051908101604052809291908181526020018280546118f8906135b8565b80156119455780601f1061191a57610100808354040283529160200191611945565b820191906000526020600020905b81548152906001019060200180831161192857829003601f168201915b5050505050815260200160018201805461195e906135b8565b80601f016020809104026020016040519081016040528092919081815260200182805461198a906135b8565b80156119d75780601f106119ac576101008083540402835291602001916119d7565b820191906000526020600020905b8154815290600101906020018083116119ba57829003601f168201915b505050505081526020016002820180546119f0906135b8565b80601f0160208091040260200160405190810160405280929190818152602001828054611a1c906135b8565b8015611a695780601f10611a3e57610100808354040283529160200191611a69565b820191906000526020600020905b815481529060010190602001808311611a4c57829003601f168201915b5050505050815260200160038201548152602001600482015481526020016005820154815250509050919050565b600080516020613c84833981519152611aaf81611c20565b6001600160a01b038316611ad65760405163d92e233d60e01b815260040160405180910390fd5b81600003611af75760405163c1ab6dc160e01b815260040160405180910390fd5b61037882611b03610a1d565b611b0d9190613641565b1115611b2c5760405163d05cb60960e01b815260040160405180910390fd5b611b36838361206f565b826001600160a01b03167f30385c845b448a36257a6a1716e6ad2e1bc2cbe333cde1e69fe849ad6511adfe8360405161176b91815260200190565b6000611b7b611ced565b6001600160a01b039384166000908152600791909101602090815260408083209490951682529290925250205460ff1690565b600080516020613c84833981519152611bc681611c20565b60008290556040518281527f525b762709cc2a983aec5ccdfd807a061f993c91090b5bcd7da92ca254976aaa906020016115d5565b60006001600160e01b0319821663152a902d60e11b14806108da57506108da82612895565b610e2281336128ca565b7fdaedc9ab023613a7caf35e703657e986ccfad7e3eb0af93a2853f8d65dd86b006127106001600160601b038316811015611c8a57604051636f483d0960e01b81526001600160601b038416600482015260248101829052604401610f48565b6001600160a01b038416611cb4576000604051635b6cc80560e11b8152600401610f489190612fb2565b50604080518082019091526001600160a01b039093168084526001600160601b039092166020909301839052600160a01b909202179055565b7f2569078dfb4b0305704d3008e7403993ae9601b85f7ae5e742de3de8f8011c4090565b6000611d1b611e54565b821115611d45576108da611d2d611ced565b60008481526004919091016020526040902054612903565b611d4d611ced565b548210156117ca5760005b611d60611ced565b600084815260049190910160205260408120549150819003611d8c57611d8583613a90565b9250611d58565b600160e01b161592915050565b8060005260046000fd5b6000611dae83611466565b9050818015611dc65750336001600160a01b03821614155b15611de957611dd58133611b71565b611de957611de96367d9dca160e11b611d99565b83611df2611ced565b6000858152600691909101602052604080822080546001600160a01b0319166001600160a01b0394851617905551859287811692908516917f8c5be1e5ebec7d5bd14f71427d1e84f3dd0314c0f7b2291e5b200ac8c7c3b9259190a450505050565b60001990565b6000611e64611ced565b600083815260049190910160205260409020549050611e81611e54565b821115611eab57611e9181612903565b15611e9b57919050565b611eab636f96cda160e11b611d99565b80600003611f2457611ebb611ced565b548210611ed257611ed2636f96cda160e11b611d99565b611eda611ced565b600019909201600081815260049390930160205260409092205490508015611ed257600160e01b8116600003611f0f57919050565b611f1f636f96cda160e11b611d99565b611ed2565b600160e01b8116600003611f3757919050565b6117ca636f96cda160e11b611d99565b6000806000611f54611ced565b60009485526006016020525050604090912080549092909150565b6001600160a01b03831615801590611f995750836001600160a01b0316836001600160a01b031614155b15611fd45760015481611fab85611471565b611fb59190613641565b1115611fd457604051633349019160e01b815260040160405180910390fd5b610e41565b7f02dd7bc7dec4dceedda775e58dd541e08a116c6c53815c0bd028192f7b62680090565b612005611451565b156120235760405163d93c066560e01b815260040160405180910390fd5b565b7f9b779b17422d0df92223018b32b4d1fa46e071723d6817e2486d003becc55f0080546001190161206957604051633ee5aeb560e01b815260040160405180910390fd5b60029055565b610a19828260405180602001604052806000815250612919565b60017f9b779b17422d0df92223018b32b4d1fa46e071723d6817e2486d003becc55f0055565b6000806120ba611fd9565b90506120c6848461153e565b612146576000848152602082815260408083206001600160a01b03871684529091529020805460ff191660011790556120fc3390565b6001600160a01b0316836001600160a01b0316857f2f8788117e7eff1d82e926ec794901d17c78024a50270940304540a733656f0d60405160405180910390a460019150506108da565b60009150506108da565b60008061215b611fd9565b9050612167848461153e565b15612146576000848152602082815260408083206001600160a01b0387168085529252808320805460ff1916905551339287917ff6391f5c32d9c69d2a47ea670b442974b53935d1edc7fd64eb21e047a839171b9190a460019150506108da565b6121d061298d565b60006121da612505565b805460ff1916815590507f5db9ee0a495bf2e6ff9c91a7834c1ba4fdd244a5e8aa4e537bd38aeae4b073aa335b6040516122149190612fb2565b60405180910390a150565b7fee151c8401928dc223602bb187aff91b9a56c7cae5476ef1b3287b085a16c85f90565b6000807ff0c57e16840df040f15088dc2f81fe391c3923bec73e23a9662efc9c229c6a006108da565b61227461221f565b54610100900460ff166122995760405162461bcd60e51b8152600401610f4890613aa7565b610a1982826129b2565b612023612a3a565b6122b3612a3a565b612023612a5f565b306001600160a01b037f000000000000000000000000000000000000000000000000000000000000000016148061234257507f00000000000000000000000000000000000000000000000000000000000000006001600160a01b0316612336600080516020613c64833981519152546001600160a01b031690565b6001600160a01b031614155b156120235760405163703e46dd60e11b815260040160405180910390fd5b600080516020613c84833981519152610a1981611c20565b816001600160a01b03166352d1902d6040518163ffffffff1660e01b8152600401602060405180830381865afa9250505080156123d2575060408051601f3d908101601f191682019092526123cf91810190613afb565b60015b6123f15781604051634c9c8ce360e01b8152600401610f489190612fb2565b600080516020613c64833981519152811461242257604051632a87526960e21b815260048101829052602401610f48565b6109298383612a67565b804710156124565760405163cf47918160e01b815247600482015260248101829052604401610f48565b600080836001600160a01b03168360405160006040518083038185875af1925050503d80600081146124a4576040519150601f19603f3d011682016040523d82523d6000602084013e6124a9565b606091505b509150915081610e4157610e4181612abd565b306001600160a01b037f000000000000000000000000000000000000000000000000000000000000000016146120235760405163703e46dd60e11b815260040160405180910390fd5b7fcd5ed15c6e187e77e9aee88184c21f4f2182ab5827cb3b7e07fbedcd63f0330090565b612531611ffd565b600061253b612505565b805460ff1916600117815590507f62e78cea01bee320cd4e420270b5ea74000d11b0c9f74754ebdbfc544b05a2586122073390565b600061257a611ced565b54919050565b606081831061259957612599631960ccad60e11b611d99565b60006125a3612570565b905060006000196125b2611e54565b036125bd57816125bf565b835b90508084106125cc578093505b60006125d787611471565b90508486106125e4575060005b80156126cc5780868603116125f857508484035b604080516001830160051b8101918290529450600061261688611778565b905060008160400151612627575080515b60005b600019612635611e54565b1461266357868a0361264f57612649611e54565b60010199505b612657611e54565b8a111561266357600091505b61266c8a6127b8565b925060408301516000811461268457600092506126a9565b83511561269057835192505b8b831860601b6126a9576001820191508a8260051b8a01525b5060018a01995083604052888a14806126c157508481145b1561262a5787525050505b5050509392505050565b604051630a85bd0160e11b81526000906001600160a01b0385169063150b7a029061270b903390899088908890600401613b14565b6020604051808303816000875af1925050508015612746575060408051601f3d908101601f1916820190925261274391810190613b51565b60015b61279b573d808015612774576040519150601f19603f3d011682016040523d82523d6000602084013e612779565b606091505b508051600003612793576127936368d2bf6b60e11b611d99565b805181602001fd5b6001600160e01b031916630a85bd0160e11b149050949350505050565b6127c0612e82565b6108da6127cb611ced565b60008481526004919091016020526040902054612ae6565b60006127ed611ced565b6000928352600401602052506040902054151590565b6060600061281083612b29565b60010190506000816001600160401b0381111561282f5761282f61307a565b6040519080825280601f01601f191660200182016040528015612859576020820181803683370190505b5090508181016020015b600019016f181899199a1a9b1b9c1cb0b131b232b360811b600a86061a8153600a850494508461286357509392505050565b60006001600160e01b03198216637965db0b60e01b14806108da57506301ffc9a760e01b6001600160e01b03198316146108da565b6128d4828261153e565b610a195760405163e2517d3f60e01b81526001600160a01b038216600482015260248101839052604401610f48565b600160e01b81166001600160a01b039091161190565b6129238383612c01565b6001600160a01b0383163b1561092957600061293d611ced565b5490508281035b61295760008683806001019450866126d6565b61296b5761296b6368d2bf6b60e11b611d99565b818110612944578161297b611ced565b541461298657600080fd5b5050505050565b612995611451565b61202357604051638dfc202b60e01b815260040160405180910390fd5b6129ba61221f565b54610100900460ff166129df5760405162461bcd60e51b8152600401610f4890613aa7565b816129e8611ced565b600201906129f69082613b6e565b5080612a00611ced565b60030190612a0e9082613b6e565b506000612a19611ced565b556000612a24611e54565b1015610a1957610a1963fed8210f60e01b611d99565b612a42612d24565b61202357604051631afcd79f60e31b815260040160405180910390fd5b612089612a3a565b612a7082612d3e565b6040516001600160a01b038316907fbc7cd75a20ee27fd9adebab32041f755214dbc6bffa90cc0225b39da2e5c2d3b90600090a2805115612ab5576109298282612d9a565b610a19612e10565b805115612acd5780518082602001fd5b60405163d6bda27560e01b815260040160405180910390fd5b612aee612e82565b6001600160a01b03821681526001600160401b0360a083901c166020820152600160e01b82161515604082015260e89190911c606082015290565b60008072184f03e93ff9f4daa797ed6e38ed64bf6a1f0160401b8310612b685772184f03e93ff9f4daa797ed6e38ed64bf6a1f0160401b830492506040015b6d04ee2d6d415b85acef81000000008310612b94576d04ee2d6d415b85acef8100000000830492506020015b662386f26fc100008310612bb257662386f26fc10000830492506010015b6305f5e1008310612bca576305f5e100830492506008015b6127108310612bde57612710830492506004015b60648310612bf0576064830492506002015b600a83106108da5760010192915050565b6000612c0b611ced565b5490506000829003612c2757612c2763b562e8dd60e01b611d99565b612c346000848385611f6f565b6001600160a01b0383164260a01b6001841460e11b1717612c53611ced565b60008381526004919091016020526040902055680100000000000000018202612c7a611ced565b6001600160a01b0385166000818152600592909201602052604082208054909301909255819003612cb457612cb4622e076360e81b611d99565b81830182612cc0611e54565b600183031115612cda57612cda6340b23f1d60e11b611d99565b5b808360007fddf252ad1be2c89b69c2b068fc378daa952ba7f163c4a11628f55a4df523b3ef600080a4818160010191508103612cdb5781612d1a611ced565b5550610929915050565b6000612d2e612243565b54600160401b900460ff16919050565b806001600160a01b03163b600003612d6b5780604051634c9c8ce360e01b8152600401610f489190612fb2565b600080516020613c6483398151915280546001600160a01b0319166001600160a01b0392909216919091179055565b6060600080846001600160a01b031684604051612db79190613c27565b600060405180830381855af49150503d8060008114612df2576040519150601f19603f3d011682016040523d82523d6000602084013e612df7565b606091505b5091509150612e07858383612e2f565b95945050505050565b34156120235760405163b398979f60e01b815260040160405180910390fd5b606082612e4457612e3f82612abd565b6115f1565b8151158015612e5b57506001600160a01b0384163b155b15612e7b5783604051639996b31560e01b8152600401610f489190612fb2565b50806115f1565b60408051608081018252600080825260208201819052918101829052606081019190915290565b6001600160e01b031981168114610e2257600080fd5b600060208284031215612ed157600080fd5b81356115f181612ea9565b6001600160a01b0381168114610e2257600080fd5b60008060408385031215612f0457600080fd5b8235612f0f81612edc565b915060208301356001600160601b0381168114612f2b57600080fd5b809150509250929050565b60005b83811015612f51578181015183820152602001612f39565b50506000910152565b60008151808452612f72816020860160208601612f36565b601f01601f19169290920160200192915050565b6020815260006115f16020830184612f5a565b600060208284031215612fab57600080fd5b5035919050565b6001600160a01b0391909116815260200190565b60008060408385031215612fd957600080fd5b8235612fe481612edc565b946020939093013593505050565b60008060006060848603121561300757600080fd5b833561301281612edc565b9250602084013561302281612edc565b929592945050506040919091013590565b6000806040838503121561304657600080fd5b50508035926020909101359150565b6000806040838503121561306857600080fd5b823591506020830135612f2b81612edc565b634e487b7160e01b600052604160045260246000fd5b600082601f8301126130a157600080fd5b81356001600160401b03808211156130bb576130bb61307a565b604051601f8301601f19908116603f011681019082821181831017156130e3576130e361307a565b816040528381528660208588010111156130fc57600080fd5b836020870160208301376000602085830101528094505050505092915050565b6000806040838503121561312f57600080fd5b82356001600160401b038082111561314657600080fd5b61315286838701613090565b9350602085013591508082111561316857600080fd5b5061317585828601613090565b9150509250929050565b6000806040838503121561319257600080fd5b823561319d81612edc565b915060208301356001600160401b038111156131b857600080fd5b61317585828601613090565b6000602082840312156131d657600080fd5b81356115f181612edc565b60008083601f8401126131f357600080fd5b5081356001600160401b0381111561320a57600080fd5b602083019150836020828501011115610d0a57600080fd5b60008060006040848603121561323757600080fd5b8335925060208401356001600160401b0381111561325457600080fd5b613260868287016131e1565b9497909650939450505050565b6000806020838503121561328057600080fd5b82356001600160401b0381111561329657600080fd5b6132a2858286016131e1565b90969095509350505050565b600080602083850312156132c157600080fd5b82356001600160401b03808211156132d857600080fd5b818501915085601f8301126132ec57600080fd5b8135818111156132fb57600080fd5b8660208260051b850101111561331057600080fd5b60209290920196919550909350505050565b80516001600160a01b031682526020808201516001600160401b03169083015260408082015115159083015260609081015162ffffff16910152565b6020808252825182820181905260009190848201906040850190845b818110156133a05761338d838551613322565b928401926080929092019160010161337a565b50909695505050505050565b6020808252825182820181905260009190848201906040850190845b818110156133a0578351835292840192918401916001016133c8565b6000806000606084860312156133f957600080fd5b833561340481612edc565b95602085013595506040909401359392505050565b6000806040838503121561342c57600080fd5b823561343781612edc565b915060208301358015158114612f2b57600080fd5b6000806000806080858703121561346257600080fd5b843561346d81612edc565b9350602085013561347d81612edc565b92506040850135915060608501356001600160401b0381111561349f57600080fd5b6134ab87828801613090565b91505092959194509250565b600080604083850312156134ca57600080fd5b8235915060208301356001600160401b038111156134e757600080fd5b830160c08186031215612f2b57600080fd5b608081016108da8284613322565b602081526000825160c0602084015261352360e0840182612f5a565b90506020840151601f19808584030160408601526135418383612f5a565b925060408601519150808584030160608601525061355f8282612f5a565b91505060608401516080840152608084015160a084015260a084015160c08401528091505092915050565b6000806040838503121561359d57600080fd5b82356135a881612edc565b91506020830135612f2b81612edc565b600181811c908216806135cc57607f821691505b6020821081036135ec57634e487b7160e01b600052602260045260246000fd5b50919050565b634e487b7160e01b600052601160045260246000fd5b80820281158282048414176108da576108da6135f2565b60008261363c57634e487b7160e01b600052601260045260246000fd5b500490565b808201808211156108da576108da6135f2565b601f821115610929576000816000526020600020601f850160051c8101602086101561367d5750805b601f850160051c820191505b8181101561369c57828155600101613689565b505050505050565b600019600383901b1c191660019190911b1790565b6001600160401b038311156136d0576136d061307a565b6136e4836136de83546135b8565b83613654565b6000601f84116001811461371257600085156137005750838201355b61370a86826136a4565b845550612986565b600083815260209020601f19861690835b828110156137435786850135825560209485019460019092019101613723565b50868210156137605760001960f88860031b161c19848701351681555b505060018560011b0183555050505050565b81835281816020850137506000828201602090810191909152601f909101601f19169091010190565b6020815260006115ee602083018486613772565b6000808335601e198436030181126137c657600080fd5b8301803591506001600160401b038211156137e057600080fd5b602001915036819003821315610d0a57600080fd5b6137ff82836137af565b6001600160401b038111156138165761381661307a565b61382a8161382485546135b8565b85613654565b6000601f82116001811461385857600083156138465750838201355b61385084826136a4565b8655506138b2565b600085815260209020601f19841690835b828110156138895786850135825560209485019460019092019101613869565b50848210156138a65760001960f88660031b161c19848701351681555b505060018360011b0185555b505050506138c360208301836137af565b6138d18183600186016136b9565b50506138e060408301836137af565b6138ee8183600286016136b9565b5050606082013560038201556080820135600482015560a082013560058201555050565b6000808335601e1984360301811261392957600080fd5b83016020810192503590506001600160401b0381111561394857600080fd5b803603821315610d0a57600080fd5b6020815260006139678384613912565b60c0602085015261397c60e085018284613772565b91505061398c6020850185613912565b601f19808685030160408701526139a4848385613772565b93506139b36040880188613912565b9350915080868503016060870152506139cd838383613772565b9250505060608401356080840152608084013560a084015260a084013560c08401528091505092915050565b6000808454613a07816135b8565b60018281168015613a1f5760018114613a3457613a63565b60ff1984168752821515830287019450613a63565b8860005260208060002060005b85811015613a5a5781548a820152908401908201613a41565b50505082870194505b505050508351613a77818360208801612f36565b64173539b7b760d91b9101908152600501949350505050565b600081613a9f57613a9f6135f2565b506000190190565b60208082526034908201527f455243373231415f5f496e697469616c697a61626c653a20636f6e7472616374604082015273206973206e6f7420696e697469616c697a696e6760601b606082015260800190565b600060208284031215613b0d57600080fd5b5051919050565b6001600160a01b0385811682528416602082015260408101839052608060608201819052600090613b4790830184612f5a565b9695505050505050565b600060208284031215613b6357600080fd5b81516115f181612ea9565b81516001600160401b03811115613b8757613b8761307a565b613b9b81613b9584546135b8565b84613654565b602080601f831160018114613bca5760008415613bb85750858301515b613bc285826136a4565b86555061369c565b600085815260208120601f198616915b82811015613bf957888601518255948401946001909101908401613bda565b5085821015613c175787850151600019600388901b60f8161c191681555b5050505050600190811b01905550565b60008251613c39818460208701612f36565b919091019291505056fe4ba68d394296e94ab6523d7aa99d008a89d73b64505b067e0770522ff96e2330360894a13ba1a3210667c828492db98dca3e2076cc3735a920a3ca505d382bbca49807205ce4d355092ef5a8a18f56e8913cf4a201fbe287825b095693c21775a26469706673582212209d682fc6de6befdf7892697817afa1f22858d544aaeb8f317e8fe24544d050ce64736f6c63430008180033",
  "linkReferences": {},
  "deployedLinkReferences": {}
}