{
  "_format": "hh-sol-artifact-1",
  "contractName": "CraftedCollection",
  "sourceName": "contracts/CraftedCollection.sol",
  "abi": [
    {
      "inputs": [],
      "name": "AccessControlBadConfirmation",
      "type": "error"
    },
    {
      "inputs": [
        {
          "internalType": "address",
          "name": "account",
          "type": "address"
        },
        {
          "internalType": "bytes32",
          "name": "neededRole",
          "type": "bytes32"
        }
      ],
      "name": "AccessControlUnauthorizedAccount",
      "type": "error"
    },
    {
      "inputs": [
        {
          "internalType": "address",
          "name": "target",
          "type": "address"
        }
      ],
      "name": "AddressEmptyCode",
      "type": "error"
    },
    {
      "inputs": [],
      "name": "ApprovalCallerNotOwnerNorApproved",
      "type": "error"
    },
    {
      "inputs": [],
      "name": "ApprovalQueryForNonexistentToken",
      "type": "error"
    },
    {
      "inputs": [],
      "name": "BalanceQueryForZeroAddress",
      "type": "error"
    },
    {
      "inputs": [
        {
          "internalType": "address",
          "name": "implementation",
          "type": "address"
        }
      ],
      "name": "ERC1967InvalidImplementation",
      "type": "error"
    },
    {
      "inputs": [],
      "name": "ERC1967NonPayable",
      "type": "error"
    },
    {
      "inputs": [
        {
          "internalType": "uint256",
          "name": "numerator",
          "type": "uint256"
        },
        {
          "internalType": "uint256",
          "name": "denominator",
          "type": "uint256"
        }
      ],
      "name": "ERC2981InvalidDefaultRoyalty",
      "type": "error"
    },
    {
      "inputs": [
        {
          "internalType": "address",
          "name": "receiver",
          "type": "address"
        }
      ],
      "name": "ERC2981InvalidDefaultRoyaltyReceiver",
      "type": "error"
    },
    {
      "inputs": [
        {
          "internalType": "uint256",
          "name": "tokenId",
          "type": "uint256"
        },
        {
          "internalType": "uint256",
          "name": "numerator",
          "type": "uint256"
        },
        {
          "internalType": "uint256",
          "name": "denominator",
          "type": "uint256"
        }
      ],
      "name": "ERC2981InvalidTokenRoyalty",
      "type": "error"
    },
    {
      "inputs": [
        {
          "internalType": "uint256",
          "name": "tokenId",
          "type": "uint256"
        },
        {
          "internalType": "address",
          "name": "receiver",
          "type": "address"
        }
      ],
      "name": "ERC2981InvalidTokenRoyaltyReceiver",
      "type": "error"
    },
    {
      "inputs": [],
      "name": "EnforcedPause",
      "type": "error"
    },
    {
      "inputs": [],
      "name": "ExpectedPause",
      "type": "error"
    },
    {
      "inputs": [],
      "name": "FailedCall",
      "type": "error"
    },
    {
      "inputs": [],
      "name": "FallbackNotAllowed",
      "type": "error"
    },
    {
      "inputs": [
        {
          "internalType": "uint256",
          "name": "balance",
          "type": "uint256"
        },
        {
          "internalType": "uint256",
          "name": "needed",
          "type": "uint256"
        }
      ],
      "name": "InsufficientBalance",
      "type": "error"
    },
    {
      "inputs": [],
      "name": "InsufficientPayment",
      "type": "error"
    },
    {
      "inputs": [],
      "name": "InvalidInitialization",
      "type": "error"
    },
    {
      "inputs": [],
      "name": "InvalidQueryRange",
      "type": "error"
    },
    {
      "inputs": [],
      "name": "InvalidToken",
      "type": "error"
    },
    {
      "inputs": [],
      "name": "MaxSupplyReached",
      "type": "error"
    },
    {
      "inputs": [],
      "name": "MaxWalletLimit",
      "type": "error"
    },
    {
      "inputs": [],
      "name": "MetadataIsFrozen",
      "type": "error"
    },
    {
      "inputs": [],
      "name": "MintERC2309QuantityExceedsLimit",
      "type": "error"
    },
    {
      "inputs": [],
      "name": "MintToZeroAddress",
      "type": "error"
    },
    {
      "inputs": [],
      "name": "MintZeroQuantity",
      "type": "error"
    },
    {
      "inputs": [],
      "name": "NotAuthorized",
      "type": "error"
    },
    {
      "inputs": [],
      "name": "NotCompatibleWithSpotMints",
      "type": "error"
    },
    {
      "inputs": [],
      "name": "NotInitializing",
      "type": "error"
    },
    {
      "inputs": [],
      "name": "OwnerQueryForNonexistentToken",
      "type": "error"
    },
    {
      "inputs": [],
      "name": "OwnershipNotInitializedForExtraData",
      "type": "error"
    },
    {
      "inputs": [],
      "name": "ReentrancyGuardReentrantCall",
      "type": "error"
    },
    {
      "inputs": [],
      "name": "SequentialMintExceedsLimit",
      "type": "error"
    },
    {
      "inputs": [],
      "name": "SequentialUpToTooSmall",
      "type": "error"
    },
    {
      "inputs": [],
      "name": "SpotMintTokenIdTooSmall",
      "type": "error"
    },
    {
      "inputs": [],
      "name": "TokenAlreadyExists",
      "type": "error"
    },
    {
      "inputs": [],
      "name": "TransferCallerNotOwnerNorApproved",
      "type": "error"
    },
    {
      "inputs": [],
      "name": "TransferFromIncorrectOwner",
      "type": "error"
    },
    {
      "inputs": [],
      "name": "TransferToNonERC721ReceiverImplementer",
      "type": "error"
    },
    {
      "inputs": [],
      "name": "TransferToZeroAddress",
      "type": "error"
    },
    {
      "inputs": [],
      "name": "URIQueryForNonexistentToken",
      "type": "error"
    },
    {
      "inputs": [],
      "name": "UUPSUnauthorizedCallContext",
      "type": "error"
    },
    {
      "inputs": [
        {
          "internalType": "bytes32",
          "name": "slot",
          "type": "bytes32"
        }
      ],
      "name": "UUPSUnsupportedProxiableUUID",
      "type": "error"
    },
    {
      "inputs": [],
      "name": "ZeroAddress",
      "type": "error"
    },
    {
      "anonymous": false,
      "inputs": [
        {
          "indexed": true,
          "internalType": "address",
          "name": "owner",
          "type": "address"
        },
        {
          "indexed": true,
          "internalType": "address",
          "name": "approved",
          "type": "address"
        },
        {
          "indexed": true,
          "internalType": "uint256",
          "name": "tokenId",
          "type": "uint256"
        }
      ],
      "name": "Approval",
      "type": "event"
    },
    {
      "anonymous": false,
      "inputs": [
        {
          "indexed": true,
          "internalType": "address",
          "name": "owner",
          "type": "address"
        },
        {
          "indexed": true,
          "internalType": "address",
          "name": "operator",
          "type": "address"
        },
        {
          "indexed": false,
          "internalType": "bool",
          "name": "approved",
          "type": "bool"
        }
      ],
      "name": "ApprovalForAll",
      "type": "event"
    },
    {
      "anonymous": false,
      "inputs": [
        {
          "indexed": false,
          "internalType": "string",
          "name": "baseURI",
          "type": "string"
        }
      ],
      "name": "BaseURISet",
      "type": "event"
    },
    {
      "anonymous": false,
      "inputs": [
        {
          "indexed": true,
          "internalType": "uint256",
          "name": "fromTokenId",
          "type": "uint256"
        },
        {
          "indexed": false,
          "internalType": "uint256",
          "name": "toTokenId",
          "type": "uint256"
        },
        {
          "indexed": true,
          "internalType": "address",
          "name": "from",
          "type": "address"
        },
        {
          "indexed": true,
          "internalType": "address",
          "name": "to",
          "type": "address"
        }
      ],
      "name": "ConsecutiveTransfer",
      "type": "event"
    },
    {
      "anonymous": false,
      "inputs": [],
      "name": "CraftingInitialized",
      "type": "event"
    },
    {
      "anonymous": false,
      "inputs": [
        {
          "indexed": false,
          "internalType": "uint64",
          "name": "version",
          "type": "uint64"
        }
      ],
      "name": "Initialized",
      "type": "event"
    },
    {
      "anonymous": false,
      "inputs": [
        {
          "indexed": false,
          "internalType": "uint256",
          "name": "newLimit",
          "type": "uint256"
        }
      ],
      "name": "MaxWalletHoldingsUpdated",
      "type": "event"
    },
    {
      "anonymous": false,
      "inputs": [
        {
          "indexed": true,
          "internalType": "uint256",
          "name": "tokenId",
          "type": "uint256"
        }
      ],
      "name": "MetadataFrozen",
      "type": "event"
    },
    {
      "anonymous": false,
      "inputs": [
        {
          "indexed": true,
          "internalType": "uint256",
          "name": "tokenId",
          "type": "uint256"
        },
        {
          "indexed": false,
          "internalType": "string",
          "name": "metadataURI",
          "type": "string"
        }
      ],
      "name": "MetadataUpdated",
      "type": "event"
    },
    {
      "anonymous": false,
      "inputs": [
        {
          "indexed": false,
          "internalType": "uint256",
          "name": "newPrice",
          "type": "uint256"
        }
      ],
      "name": "MintPriceUpdated",
      "type": "event"
    },
    {
      "anonymous": false,
      "inputs": [
        {
          "indexed": true,
          "internalType": "address",
          "name": "to",
          "type": "address"
        },
        {
          "indexed": false,
          "internalType": "uint256",
          "name": "quantity",
          "type": "uint256"
        }
      ],
      "name": "Minted",
      "type": "event"
    },
    {
      "anonymous": false,
      "inputs": [
        {
          "indexed": false,
          "internalType": "address",
          "name": "account",
          "type": "address"
        }
      ],
      "name": "Paused",
      "type": "event"
    },
    {
      "anonymous": false,
      "inputs": [
        {
          "indexed": true,
          "internalType": "address",
          "name": "sender",
          "type": "address"
        },
        {
          "indexed": false,
          "internalType": "uint256",
          "name": "amount",
          "type": "uint256"
        }
      ],
      "name": "Received",
      "type": "event"
    },
    {
      "anonymous": false,
      "inputs": [
        {
          "indexed": true,
          "internalType": "bytes32",
          "name": "role",
          "type": "bytes32"
        },
        {
          "indexed": true,
          "internalType": "bytes32",
          "name": "previousAdminRole",
          "type": "bytes32"
        },
        {
          "indexed": true,
          "internalType": "bytes32",
          "name": "newAdminRole",
          "type": "bytes32"
        }
      ],
      "name": "RoleAdminChanged",
      "type": "event"
    },
    {
      "anonymous": false,
      "inputs": [
        {
          "indexed": true,
          "internalType": "bytes32",
          "name": "role",
          "type": "bytes32"
        },
        {
          "indexed": true,
          "internalType": "address",
          "name": "account",
          "type": "address"
        },
        {
          "indexed": true,
          "internalType": "address",
          "name": "sender",
          "type": "address"
        }
      ],
      "name": "RoleGranted",
      "type": "event"
    },
    {
      "anonymous": false,
      "inputs": [
        {
          "indexed": true,
          "internalType": "bytes32",
          "name": "role",
          "type": "bytes32"
        },
        {
          "indexed": true,
          "internalType": "address",
          "name": "account",
          "type": "address"
        },
        {
          "indexed": true,
          "internalType": "address",
          "name": "sender",
          "type": "address"
        }
      ],
      "name": "RoleRevoked",
      "type": "event"
    },
    {
      "anonymous": false,
      "inputs": [
        {
          "indexed": true,
          "internalType": "uint256",
          "name": "tokenId",
          "type": "uint256"
        },
        {
          "components": [
            {
              "internalType": "string",
              "name": "code",
              "type": "string"
            },
            {
              "internalType": "string",
              "name": "artVersion",
              "type": "string"
            },
            {
              "internalType": "string",
              "name": "metadataURI",
              "type": "string"
            },
            {
              "internalType": "uint256",
              "name": "level",
              "type": "uint256"
            },
            {
              "internalType": "uint256",
              "name": "power",
              "type": "uint256"
            },
            {
              "internalType": "uint256",
              "name": "rarity",
              "type": "uint256"
            }
          ],
          "indexed": false,
          "internalType": "struct CraftedCollection.Traits",
          "name": "traits",
          "type": "tuple"
        }
      ],
      "name": "TraitsUpdated",
      "type": "event"
    },
    {
      "anonymous": false,
      "inputs": [
        {
          "indexed": true,
          "internalType": "address",
          "name": "from",
          "type": "address"
        },
        {
          "indexed": true,
          "internalType": "address",
          "name": "to",
          "type": "address"
        },
        {
          "indexed": true,
          "internalType": "uint256",
          "name": "tokenId",
          "type": "uint256"
        }
      ],
      "name": "Transfer",
      "type": "event"
    },
    {
      "anonymous": false,
      "inputs": [
        {
          "indexed": false,
          "internalType": "address",
          "name": "account",
          "type": "address"
        }
      ],
      "name": "Unpaused",
      "type": "event"
    },
    {
      "anonymous": false,
      "inputs": [
        {
          "indexed": true,
          "internalType": "address",
          "name": "implementation",
          "type": "address"
        }
      ],
      "name": "Upgraded",
      "type": "event"
    },
    {
      "anonymous": false,
      "inputs": [
        {
          "indexed": true,
          "internalType": "address",
          "name": "recipient",
          "type": "address"
        },
        {
          "indexed": false,
          "internalType": "uint256",
          "name": "amount",
          "type": "uint256"
        }
      ],
      "name": "Withdraw",
      "type": "event"
    },
    {
      "stateMutability": "payable",
      "type": "fallback"
    },
    {
      "inputs": [],
      "name": "ADMIN_ROLE",
      "outputs": [
        {
          "internalType": "bytes32",
          "name": "",
          "type": "bytes32"
        }
      ],
      "stateMutability": "view",
      "type": "function"
    },
    {
      "inputs": [],
      "name": "CRAFTER_ROLE",
      "outputs": [
        {
          "internalType": "bytes32",
          "name": "",
          "type": "bytes32"
        }
      ],
      "stateMutability": "view",
      "type": "function"
    },
    {
      "inputs": [],
      "name": "DEFAULT_ADMIN_ROLE",
      "outputs": [
        {
          "internalType": "bytes32",
          "name": "",
          "type": "bytes32"
        }
      ],
      "stateMutability": "view",
      "type": "function"
    },
    {
      "inputs": [],
      "name": "MAX_SUPPLY",
      "outputs": [
        {
          "internalType": "uint256",
          "name": "",
          "type": "uint256"
        }
      ],
      "stateMutability": "view",
      "type": "function"
    },
    {
      "inputs": [],
      "name": "UPGRADE_INTERFACE_VERSION",
      "outputs": [
        {
          "internalType": "string",
          "name": "",
          "type": "string"
        }
      ],
      "stateMutability": "view",
      "type": "function"
    },
    {
      "inputs": [
        {
          "internalType": "address",
          "name": "to",
          "type": "address"
        },
        {
          "internalType": "uint256",
          "name": "tokenId",
          "type": "uint256"
        }
      ],
      "name": "approve",
      "outputs": [],
      "stateMutability": "payable",
      "type": "function"
    },
    {
      "inputs": [
        {
          "internalType": "address",
          "name": "owner",
          "type": "address"
        }
      ],
      "name": "balanceOf",
      "outputs": [
        {
          "internalType": "uint256",
          "name": "",
          "type": "uint256"
        }
      ],
      "stateMutability": "view",
      "type": "function"
    },
    {
      "inputs": [
        {
          "internalType": "uint256",
          "name": "tokenId",
          "type": "uint256"
        }
      ],
      "name": "explicitOwnershipOf",
      "outputs": [
        {
          "components": [
            {
              "internalType": "address",
              "name": "addr",
              "type": "address"
            },
            {
              "internalType": "uint64",
              "name": "startTimestamp",
              "type": "uint64"
            },
            {
              "internalType": "bool",
              "name": "burned",
              "type": "bool"
            },
            {
              "internalType": "uint24",
              "name": "extraData",
              "type": "uint24"
            }
          ],
          "internalType": "struct IERC721AUpgradeable.TokenOwnership",
          "name": "ownership",
          "type": "tuple"
        }
      ],
      "stateMutability": "view",
      "type": "function"
    },
    {
      "inputs": [
        {
          "internalType": "uint256[]",
          "name": "tokenIds",
          "type": "uint256[]"
        }
      ],
      "name": "explicitOwnershipsOf",
      "outputs": [
        {
          "components": [
            {
              "internalType": "address",
              "name": "addr",
              "type": "address"
            },
            {
              "internalType": "uint64",
              "name": "startTimestamp",
              "type": "uint64"
            },
            {
              "internalType": "bool",
              "name": "burned",
              "type": "bool"
            },
            {
              "internalType": "uint24",
              "name": "extraData",
              "type": "uint24"
            }
          ],
          "internalType": "struct IERC721AUpgradeable.TokenOwnership[]",
          "name": "",
          "type": "tuple[]"
        }
      ],
      "stateMutability": "view",
      "type": "function"
    },
    {
      "inputs": [
        {
          "internalType": "uint256",
          "name": "tokenId",
          "type": "uint256"
        }
      ],
      "name": "freezeMetadata",
      "outputs": [],
      "stateMutability": "nonpayable",
      "type": "function"
    },
    {
      "inputs": [
        {
          "internalType": "uint256",
          "name": "tokenId",
          "type": "uint256"
        }
      ],
      "name": "getApproved",
      "outputs": [
        {
          "internalType": "address",
          "name": "",
          "type": "address"
        }
      ],
      "stateMutability": "view",
      "type": "function"
    },
    {
      "inputs": [
        {
          "internalType": "bytes32",
          "name": "role",
          "type": "bytes32"
        }
      ],
      "name": "getRoleAdmin",
      "outputs": [
        {
          "internalType": "bytes32",
          "name": "",
          "type": "bytes32"
        }
      ],
      "stateMutability": "view",
      "type": "function"
    },
    {
      "inputs": [
        {
          "internalType": "uint256",
          "name": "tokenId",
          "type": "uint256"
        }
      ],
      "name": "getTraits",
      "outputs": [
        {
          "components": [
            {
              "internalType": "string",
              "name": "code",
              "type": "string"
            },
            {
              "internalType": "string",
              "name": "artVersion",
              "type": "string"
            },
            {
              "internalType": "string",
              "name": "metadataURI",
              "type": "string"
            },
            {
              "internalType": "uint256",
              "name": "level",
              "type": "uint256"
            },
            {
              "internalType": "uint256",
              "name": "power",
              "type": "uint256"
            },
            {
              "internalType": "uint256",
              "name": "rarity",
              "type": "uint256"
            }
          ],
          "internalType": "struct CraftedCollection.Traits",
          "name": "",
          "type": "tuple"
        }
      ],
      "stateMutability": "view",
      "type": "function"
    },
    {
      "inputs": [
        {
          "internalType": "bytes32",
          "name": "role",
          "type": "bytes32"
        },
        {
          "internalType": "address",
          "name": "account",
          "type": "address"
        }
      ],
      "name": "grantRole",
      "outputs": [],
      "stateMutability": "nonpayable",
      "type": "function"
    },
    {
      "inputs": [
        {
          "internalType": "bytes32",
          "name": "role",
          "type": "bytes32"
        },
        {
          "internalType": "address",
          "name": "account",
          "type": "address"
        }
      ],
      "name": "hasRole",
      "outputs": [
        {
          "internalType": "bool",
          "name": "",
          "type": "bool"
        }
      ],
      "stateMutability": "view",
      "type": "function"
    },
    {
      "inputs": [
        {
          "internalType": "string",
          "name": "name_",
          "type": "string"
        },
        {
          "internalType": "string",
          "name": "symbol_",
          "type": "string"
        }
      ],
      "name": "initialize",
      "outputs": [],
      "stateMutability": "nonpayable",
      "type": "function"
    },
    {
      "inputs": [
        {
          "internalType": "address",
          "name": "owner",
          "type": "address"
        },
        {
          "internalType": "address",
          "name": "operator",
          "type": "address"
        }
      ],
      "name": "isApprovedForAll",
      "outputs": [
        {
          "internalType": "bool",
          "name": "",
          "type": "bool"
        }
      ],
      "stateMutability": "view",
      "type": "function"
    },
    {
      "inputs": [],
      "name": "maxWalletHoldings",
      "outputs": [
        {
          "internalType": "uint256",
          "name": "",
          "type": "uint256"
        }
      ],
      "stateMutability": "view",
      "type": "function"
    },
    {
      "inputs": [],
      "name": "mintPrice",
      "outputs": [
        {
          "internalType": "uint256",
          "name": "",
          "type": "uint256"
        }
      ],
      "stateMutability": "view",
      "type": "function"
    },
    {
      "inputs": [],
      "name": "name",
      "outputs": [
        {
          "internalType": "string",
          "name": "",
          "type": "string"
        }
      ],
      "stateMutability": "view",
      "type": "function"
    },
    {
      "inputs": [
        {
          "internalType": "uint256",
          "name": "tokenId",
          "type": "uint256"
        }
      ],
      "name": "ownerOf",
      "outputs": [
        {
          "internalType": "address",
          "name": "",
          "type": "address"
        }
      ],
      "stateMutability": "view",
      "type": "function"
    },
    {
      "inputs": [],
      "name": "pause",
      "outputs": [],
      "stateMutability": "nonpayable",
      "type": "function"
    },
    {
      "inputs": [],
      "name": "paused",
      "outputs": [
        {
          "internalType": "bool",
          "name": "",
          "type": "bool"
        }
      ],
      "stateMutability": "view",
      "type": "function"
    },
    {
      "inputs": [],
      "name": "proxiableUUID",
      "outputs": [
        {
          "internalType": "bytes32",
          "name": "",
          "type": "bytes32"
        }
      ],
      "stateMutability": "view",
      "type": "function"
    },
    {
      "inputs": [
        {
          "internalType": "uint256",
          "name": "quantity",
          "type": "uint256"
        }
      ],
      "name": "publicMint",
      "outputs": [],
      "stateMutability": "payable",
      "type": "function"
    },
    {
      "inputs": [
        {
          "internalType": "bytes32",
          "name": "role",
          "type": "bytes32"
        },
        {
          "internalType": "address",
          "name": "callerConfirmation",
          "type": "address"
        }
      ],
      "name": "renounceRole",
      "outputs": [],
      "stateMutability": "nonpayable",
      "type": "function"
    },
    {
      "inputs": [
        {
          "internalType": "bytes32",
          "name": "role",
          "type": "bytes32"
        },
        {
          "internalType": "address",
          "name": "account",
          "type": "address"
        }
      ],
      "name": "revokeRole",
      "outputs": [],
      "stateMutability": "nonpayable",
      "type": "function"
    },
    {
      "inputs": [
        {
          "internalType": "uint256",
          "name": "tokenId",
          "type": "uint256"
        },
        {
          "internalType": "uint256",
          "name": "salePrice",
          "type": "uint256"
        }
      ],
      "name": "royaltyInfo",
      "outputs": [
        {
          "internalType": "address",
          "name": "receiver",
          "type": "address"
        },
        {
          "internalType": "uint256",
          "name": "amount",
          "type": "uint256"
        }
      ],
      "stateMutability": "view",
      "type": "function"
    },
    {
      "inputs": [
        {
          "internalType": "address",
          "name": "from",
          "type": "address"
        },
        {
          "internalType": "address",
          "name": "to",
          "type": "address"
        },
        {
          "internalType": "uint256",
          "name": "tokenId",
          "type": "uint256"
        }
      ],
      "name": "safeTransferFrom",
      "outputs": [],
      "stateMutability": "payable",
      "type": "function"
    },
    {
      "inputs": [
        {
          "internalType": "address",
          "name": "from",
          "type": "address"
        },
        {
          "internalType": "address",
          "name": "to",
          "type": "address"
        },
        {
          "internalType": "uint256",
          "name": "tokenId",
          "type": "uint256"
        },
        {
          "internalType": "bytes",
          "name": "_data",
          "type": "bytes"
        }
      ],
      "name": "safeTransferFrom",
      "outputs": [],
      "stateMutability": "payable",
      "type": "function"
    },
    {
      "inputs": [
        {
          "internalType": "address",
          "name": "operator",
          "type": "address"
        },
        {
          "internalType": "bool",
          "name": "approved",
          "type": "bool"
        }
      ],
      "name": "setApprovalForAll",
      "outputs": [],
      "stateMutability": "nonpayable",
      "type": "function"
    },
    {
      "inputs": [
        {
          "internalType": "string",
          "name": "baseURI",
          "type": "string"
        }
      ],
      "name": "setBaseURI",
      "outputs": [],
      "stateMutability": "nonpayable",
      "type": "function"
    },
    {
      "inputs": [
        {
          "internalType": "uint256",
          "name": "newLimit",
          "type": "uint256"
        }
      ],
      "name": "setMaxWalletHoldings",
      "outputs": [],
      "stateMutability": "nonpayable",
      "type": "function"
    },
    {
      "inputs": [
        {
          "internalType": "uint256",
          "name": "newPrice",
          "type": "uint256"
        }
      ],
      "name": "setMintPrice",
      "outputs": [],
      "stateMutability": "nonpayable",
      "type": "function"
    },
    {
      "inputs": [
        {
          "internalType": "address",
          "name": "receiver",
          "type": "address"
        },
        {
          "internalType": "uint96",
          "name": "feeNumerator",
          "type": "uint96"
        }
      ],
      "name": "setRoyaltyInfo",
      "outputs": [],
      "stateMutability": "nonpayable",
      "type": "function"
    },
    {
      "inputs": [
        {
          "internalType": "bytes4",
          "name": "interfaceId",
          "type": "bytes4"
        }
      ],
      "name": "supportsInterface",
      "outputs": [
        {
          "internalType": "bool",
          "name": "",
          "type": "bool"
        }
      ],
      "stateMutability": "view",
      "type": "function"
    },
    {
      "inputs": [],
      "name": "symbol",
      "outputs": [
        {
          "internalType": "string",
          "name": "",
          "type": "string"
        }
      ],
      "stateMutability": "view",
      "type": "function"
    },
    {
      "inputs": [
        {
          "internalType": "uint256",
          "name": "tokenId",
          "type": "uint256"
        }
      ],
      "name": "tokenURI",
      "outputs": [
        {
          "internalType": "string",
          "name": "",
          "type": "string"
        }
      ],
      "stateMutability": "view",
      "type": "function"
    },
    {
      "inputs": [
        {
          "internalType": "address",
          "name": "owner",
          "type": "address"
        }
      ],
      "name": "tokensOfOwner",
      "outputs": [
        {
          "internalType": "uint256[]",
          "name": "",
          "type": "uint256[]"
        }
      ],
      "stateMutability": "view",
      "type": "function"
    },
    {
      "inputs": [
        {
          "internalType": "address",
          "name": "owner",
          "type": "address"
        },
        {
          "internalType": "uint256",
          "name": "start",
          "type": "uint256"
        },
        {
          "internalType": "uint256",
          "name": "stop",
          "type": "uint256"
        }
      ],
      "name": "tokensOfOwnerIn",
      "outputs": [
        {
          "internalType": "uint256[]",
          "name": "",
          "type": "uint256[]"
        }
      ],
      "stateMutability": "view",
      "type": "function"
    },
    {
      "inputs": [],
      "name": "totalSupply",
      "outputs": [
        {
          "internalType": "uint256",
          "name": "result",
          "type": "uint256"
        }
      ],
      "stateMutability": "view",
      "type": "function"
    },
    {
      "inputs": [
        {
          "internalType": "address",
          "name": "from",
          "type": "address"
        },
        {
          "internalType": "address",
          "name": "to",
          "type": "address"
        },
        {
          "internalType": "uint256",
          "name": "tokenId",
          "type": "uint256"
        }
      ],
      "name": "transferFrom",
      "outputs": [],
      "stateMutability": "payable",
      "type": "function"
    },
    {
      "inputs": [],
      "name": "unpause",
      "outputs": [],
      "stateMutability": "nonpayable",
      "type": "function"
    },
    {
      "inputs": [
        {
          "internalType": "uint256",
          "name": "tokenId",
          "type": "uint256"
        },
        {
          "internalType": "string",
          "name": "newURI",
          "type": "string"
        }
      ],
      "name": "updateMetadata",
      "outputs": [],
      "stateMutability": "nonpayable",
      "type": "function"
    },
    {
      "inputs": [
        {
          "internalType": "uint256",
          "name": "tokenId",
          "type": "uint256"
        },
        {
          "components": [
            {
              "internalType": "string",
              "name": "code",
              "type": "string"
            },
            {
              "internalType": "string",
              "name": "artVersion",
              "type": "string"
            },
            {
              "internalType": "string",
              "name": "metadataURI",
              "type": "string"
            },
            {
              "internalType": "uint256",
              "name": "level",
              "type": "uint256"
            },
            {
              "internalType": "uint256",
              "name": "power",
              "type": "uint256"
            },
            {
              "internalType": "uint256",
              "name": "rarity",
              "type": "uint256"
            }
          ],
          "internalType": "struct CraftedCollection.Traits",
          "name": "newTraits",
          "type": "tuple"
        }
      ],
      "name": "updateTraits",
      "outputs": [],
      "stateMutability": "nonpayable",
      "type": "function"
    },
    {
      "inputs": [
        {
          "internalType": "address",
          "name": "newImplementation",
          "type": "address"
        },
        {
          "internalType": "bytes",
          "name": "data",
          "type": "bytes"
        }
      ],
      "name": "upgradeToAndCall",
      "outputs": [],
      "stateMutability": "payable",
      "type": "function"
    },
    {
      "inputs": [
        {
          "internalType": "address payable",
          "name": "recipient",
          "type": "address"
        }
      ],
      "name": "withdraw",
      "outputs": [],
      "stateMutability": "nonpayable",
      "type": "function"
    },
    {
      "stateMutability": "payable",
      "type": "receive"
    }
  ],
  "bytecode": "0x60a06040523073ffffffffffffffffffffffffffffffffffffffff1660809073ffffffffffffffffffffffffffffffffffffffff1681525034801561004357600080fd5b5060805161644c6200006e600039600081816132dd0152818161333201526135da015261644c6000f3fe60806040526004361061028c5760003560e01c80635bbb21771161015a578063a217fddf116100c1578063c23dc68f1161007a578063c23dc68f14610a13578063c87b56dd14610a50578063d547741f14610a8d578063e1dc076114610ab6578063e985e9c514610af3578063f4a0a52814610b30576102e1565b8063a217fddf14610924578063a22cb4651461094f578063ad3cb1cc14610978578063b7ea78b5146109a3578063b88d4fde146109ce578063c1380e29146109ea576102e1565b80638456cb59116101135780638456cb59146108025780638462151c1461081957806391d148541461085657806395d89b411461089357806399061beb146108be57806399a2557a146108e7576102e1565b80635bbb2177146106ca5780635c975abb146107075780636352211e146107325780636817c76c1461076f57806370a082311461079a57806375b238fc146107d7576102e1565b806332cb6b0c116101fe5780634dcf6ad6116101b75780634dcf6ad6146105df5780634f1ef2861461060857806351cff8d91461062457806352d1902d1461064d57806353c8388e1461067857806355f804b3146106a1576102e1565b806332cb6b0c14610504578063338cab931461052f57806336568abe1461055a5780633f4ba83a1461058357806342842e0e1461059a5780634cd88b76146105b6576102e1565b806318160ddd1161025057806318160ddd146103fd57806323b872dd14610428578063248a9ca3146104445780632a55205a146104815780632db11544146104bf5780632f2ff15d146104db576102e1565b806301ffc9a71461031357806302fa7c471461035057806306fdde0314610379578063081812fc146103a4578063095ea7b3146103e1576102e1565b366102e1573373ffffffffffffffffffffffffffffffffffffffff167f88a5966d370b9919b20f3e2c13ff65706f196a4e32cc2c12bf57088f88525874346040516102d791906146ae565b60405180910390a2005b6040517fdeab4c3000000000000000000000000000000000000000000000000000000000815260040160405180910390fd5b34801561031f57600080fd5b5061033a60048036038101906103359190614735565b610b59565b604051610347919061477d565b60405180910390f35b34801561035c57600080fd5b506103776004803603810190610372919061483a565b610b6b565b005b34801561038557600080fd5b5061038e610c0a565b60405161039b919061490a565b60405180910390f35b3480156103b057600080fd5b506103cb60048036038101906103c69190614958565b610ca5565b6040516103d89190614994565b60405180910390f35b6103fb60048036038101906103f691906149af565b610d0c565b005b34801561040957600080fd5b50610412610d1c565b60405161041f91906146ae565b60405180910390f35b610442600480360381019061043d91906149ef565b610d84565b005b34801561045057600080fd5b5061046b60048036038101906104669190614a78565b61107b565b6040516104789190614ab4565b60405180910390f35b34801561048d57600080fd5b506104a860048036038101906104a39190614acf565b6110a9565b6040516104b6929190614b0f565b60405180910390f35b6104d960048036038101906104d49190614958565b6111ec565b005b3480156104e757600080fd5b5061050260048036038101906104fd9190614b38565b61137d565b005b34801561051057600080fd5b5061051961139f565b60405161052691906146ae565b60405180910390f35b34801561053b57600080fd5b506105446113a5565b6040516105519190614ab4565b60405180910390f35b34801561056657600080fd5b50610581600480360381019061057c9190614b38565b6113c9565b005b34801561058f57600080fd5b50610598611444565b005b6105b460048036038101906105af91906149ef565b611479565b005b3480156105c257600080fd5b506105dd60048036038101906105d89190614cad565b611499565b005b3480156105eb57600080fd5b5061060660048036038101906106019190614958565b611821565b005b610622600480360381019061061d9190614dc6565b6118e7565b005b34801561063057600080fd5b5061064b60048036038101906106469190614e60565b611906565b005b34801561065957600080fd5b50610662611a27565b60405161066f9190614ab4565b60405180910390f35b34801561068457600080fd5b5061069f600480360381019061069a9190614eed565b611a5a565b005b3480156106ad57600080fd5b506106c860048036038101906106c39190614f4d565b611b81565b005b3480156106d657600080fd5b506106f160048036038101906106ec9190614ff0565b611bfb565b6040516106fe91906151a0565b60405180910390f35b34801561071357600080fd5b5061071c611c5b565b604051610729919061477d565b60405180910390f35b34801561073e57600080fd5b5061075960048036038101906107549190614958565b611c80565b6040516107669190614994565b60405180910390f35b34801561077b57600080fd5b50610784611c92565b60405161079191906146ae565b60405180910390f35b3480156107a657600080fd5b506107c160048036038101906107bc91906151c2565b611c98565b6040516107ce91906146ae565b60405180910390f35b3480156107e357600080fd5b506107ec611d38565b6040516107f99190614ab4565b60405180910390f35b34801561080e57600080fd5b50610817611d5c565b005b34801561082557600080fd5b50610840600480360381019061083b91906151c2565b611d91565b60405161084d91906152ad565b60405180910390f35b34801561086257600080fd5b5061087d60048036038101906108789190614b38565b611e0c565b60405161088a919061477d565b60405180910390f35b34801561089f57600080fd5b506108a8611e85565b6040516108b5919061490a565b60405180910390f35b3480156108ca57600080fd5b506108e560048036038101906108e09190614958565b611f20565b005b3480156108f357600080fd5b5061090e600480360381019061090991906152cf565b611f8c565b60405161091b91906152ad565b60405180910390f35b34801561093057600080fd5b50610939611fa2565b6040516109469190614ab4565b60405180910390f35b34801561095b57600080fd5b506109766004803603810190610971919061534e565b611fa9565b005b34801561098457600080fd5b5061098d6120bd565b60405161099a919061490a565b60405180910390f35b3480156109af57600080fd5b506109b86120f6565b6040516109c591906146ae565b60405180910390f35b6109e860048036038101906109e3919061538e565b6120fc565b005b3480156109f657600080fd5b50610a116004803603810190610a0c9190615435565b61214e565b005b348015610a1f57600080fd5b50610a3a6004803603810190610a359190614958565b61226f565b604051610a4791906154e6565b60405180910390f35b348015610a5c57600080fd5b50610a776004803603810190610a729190614958565b6122e4565b604051610a84919061490a565b60405180910390f35b348015610a9957600080fd5b50610ab46004803603810190610aaf9190614b38565b612357565b005b348015610ac257600080fd5b50610add6004803603810190610ad89190614958565b612379565b604051610aea91906155e2565b60405180910390f35b348015610aff57600080fd5b50610b1a6004803603810190610b159190615604565b6125b9565b604051610b27919061477d565b60405180910390f35b348015610b3c57600080fd5b50610b576004803603810190610b529190614958565b612656565b005b6000610b64826126c2565b9050919050565b7fa49807205ce4d355092ef5a8a18f56e8913cf4a201fbe287825b095693c21775610b958161273c565b600073ffffffffffffffffffffffffffffffffffffffff168373ffffffffffffffffffffffffffffffffffffffff1603610bfb576040517fd92e233d00000000000000000000000000000000000000000000000000000000815260040160405180910390fd5b610c058383612750565b505050565b6060610c14612901565b6002018054610c2290615673565b80601f0160208091040260200160405190810160405280929190818152602001828054610c4e90615673565b8015610c9b5780601f10610c7057610100808354040283529160200191610c9b565b820191906000526020600020905b815481529060010190602001808311610c7e57829003601f168201915b5050505050905090565b6000610cb08261292e565b610cc557610cc463cf4700e460e01b6129f5565b5b610ccd612901565b600601600083815260200190815260200160002060000160009054906101000a900473ffffffffffffffffffffffffffffffffffffffff169050919050565b610d18828260016129ff565b5050565b6000610d26612b37565b610d2e612901565b60010154610d3a612901565b60000154030390507fffffffffffffffffffffffffffffffffffffffffffffffffffffffffffffffff610d6b612b3c565b14610d8157610d78612901565b60080154810190505b90565b6000610d8f82612b64565b905073ffffffffffffffffffffffffffffffffffffffff8473ffffffffffffffffffffffffffffffffffffffff161693508373ffffffffffffffffffffffffffffffffffffffff168173ffffffffffffffffffffffffffffffffffffffff1614610e0457610e0363a114810060e01b6129f5565b5b600080610e1084612c98565b91509150610e268187610e21612cc8565b612cd0565b610e5157610e3b86610e36612cc8565b6125b9565b610e5057610e4f6359c896be60e01b6129f5565b5b5b610e5e8686866001612d14565b8015610e6957600082555b610e71612901565b60050160008773ffffffffffffffffffffffffffffffffffffffff1673ffffffffffffffffffffffffffffffffffffffff168152602001908152602001600020600081546001900391905081905550610ec8612901565b60050160008673ffffffffffffffffffffffffffffffffffffffff1673ffffffffffffffffffffffffffffffffffffffff1681526020019081526020016000206000815460010191905081905550610f4985610f25888887612de4565b7c020000000000000000000000000000000000000000000000000000000017612e0c565b610f51612901565b60040160008681526020019081526020016000208190555060007c0200000000000000000000000000000000000000000000000000000000841603610ff35760006001850190506000610fa2612901565b60040160008381526020019081526020016000205403610ff157610fc4612901565b600001548114610ff05783610fd7612901565b6004016000838152602001908152602001600020819055505b5b505b600073ffffffffffffffffffffffffffffffffffffffff8673ffffffffffffffffffffffffffffffffffffffff161690508481887fddf252ad1be2c89b69c2b068fc378daa952ba7f163c4a11628f55a4df523b3ef600080a4600081036110655761106463ea553b3460e01b6129f5565b5b6110728787876001612e37565b50505050505050565b600080611086612e3d565b905080600001600084815260200190815260200160002060010154915050919050565b60008060006110b6612e65565b90506000816001016000878152602001908152602001600020905060008160000160009054906101000a900473ffffffffffffffffffffffffffffffffffffffff16905060008260000160149054906101000a90046bffffffffffffffffffffffff169050600073ffffffffffffffffffffffffffffffffffffffff168273ffffffffffffffffffffffffffffffffffffffff160361119c578360000160000160009054906101000a900473ffffffffffffffffffffffffffffffffffffffff1691508360000160000160149054906101000a90046bffffffffffffffffffffffff1690505b60006111a6612e8d565b6bffffffffffffffffffffffff16826bffffffffffffffffffffffff16896111ce91906156d3565b6111d89190615744565b905082819650965050505050509250929050565b6111f4612e97565b6111fc612ed8565b60008103611236576040517fc1ab6dc100000000000000000000000000000000000000000000000000000000815260040160405180910390fd5b61037881611242610d1c565b61124c9190615775565b1115611284576040517fd05cb60900000000000000000000000000000000000000000000000000000000815260040160405180910390fd5b8060005461129291906156d3565b3410156112cb576040517fcd1c886700000000000000000000000000000000000000000000000000000000815260040160405180910390fd5b600154816112d833611c98565b6112e29190615775565b111561131a576040517f3349019100000000000000000000000000000000000000000000000000000000815260040160405180910390fd5b6113243382612f2f565b3373ffffffffffffffffffffffffffffffffffffffff167f30385c845b448a36257a6a1716e6ad2e1bc2cbe333cde1e69fe849ad6511adfe8260405161136a91906146ae565b60405180910390a261137a612f4d565b50565b6113868261107b565b61138f8161273c565b6113998383612f66565b50505050565b61037881565b7f4ba68d394296e94ab6523d7aa99d008a89d73b64505b067e0770522ff96e233081565b6113d1613067565b73ffffffffffffffffffffffffffffffffffffffff168173ffffffffffffffffffffffffffffffffffffffff1614611435576040517f6697b23200000000000000000000000000000000000000000000000000000000815260040160405180910390fd5b61143f828261306f565b505050565b7fa49807205ce4d355092ef5a8a18f56e8913cf4a201fbe287825b095693c2177561146e8161273c565b611476613171565b50565b611494838383604051806020016040528060008152506120fc565b505050565b6114a16131e3565b60000160019054906101000a900460ff166114d5576114be6131e3565b60000160009054906101000a900460ff16156114de565b6114dd613210565b5b61151d576040517f08c379a00000000000000000000000000000000000000000000000000000000081526004016115149061581b565b60405180910390fd5b60006115276131e3565b60000160019054906101000a900460ff16159050801561158a57600161154b6131e3565b60000160016101000a81548160ff021916908315150217905550600161156f6131e3565b60000160006101000a81548160ff0219169083151502179055505b6000611594613227565b905060008160000160089054906101000a900460ff1615905060008260000160009054906101000a900467ffffffffffffffff1690506000808267ffffffffffffffff161480156115e25750825b9050600060018367ffffffffffffffff16148015611617575060003073ffffffffffffffffffffffffffffffffffffffff163b145b905081158015611625575080155b1561165c576040517ff92ee8a900000000000000000000000000000000000000000000000000000000815260040160405180910390fd5b60018560000160006101000a81548167ffffffffffffffff021916908367ffffffffffffffff16021790555083156116ac5760018560000160086101000a81548160ff0219169083151502179055505b6116b6888861323b565b6116be6132a1565b6116c66132ab565b6116ce6132b5565b6116d66132c7565b6116de6132d1565b6116eb6000801b33612f66565b506117167fa49807205ce4d355092ef5a8a18f56e8913cf4a201fbe287825b095693c2177533612f66565b506117417f4ba68d394296e94ab6523d7aa99d008a89d73b64505b067e0770522ff96e233033612f66565b50666a94d74f4300006000819055506003600181905550611764336101f4612750565b7fe3d77c0c81a47993ce8e388adc64fe0dc88bd28fbf57cbdf333006b59ad82a0a60405160405180910390a183156117ec5760008560000160086101000a81548160ff0219169083151502179055507fc7f505b2f371ae2175ee4913f4499e1f2633a7b5936321eed1cdaeb6115181d260016040516117e39190615880565b60405180910390a15b5050505050801561181c5760006118016131e3565b60000160016101000a81548160ff0219169083151502179055505b505050565b7fa49807205ce4d355092ef5a8a18f56e8913cf4a201fbe287825b095693c2177561184b8161273c565b6118548261292e565b61188a576040517fc1ab6dc100000000000000000000000000000000000000000000000000000000815260040160405180910390fd5b60016004600084815260200190815260200160002060006101000a81548160ff021916908315150217905550817f7c9bd91d0ccee585f666998e287e929bf935cedec1348f7afc4591eca690b90a60405160405180910390a25050565b6118ef6132db565b6118f8826133c1565b61190282826133ef565b5050565b7fa49807205ce4d355092ef5a8a18f56e8913cf4a201fbe287825b095693c217756119308161273c565b611938612ed8565b600073ffffffffffffffffffffffffffffffffffffffff168273ffffffffffffffffffffffffffffffffffffffff160361199e576040517fd92e233d00000000000000000000000000000000000000000000000000000000815260040160405180910390fd5b60004790506119cc818473ffffffffffffffffffffffffffffffffffffffff1661350e90919063ffffffff16565b8273ffffffffffffffffffffffffffffffffffffffff167f884edad9ce6fa2440d8a54cc123490eb96d2768479d49ff9c7366125a942436482604051611a1291906146ae565b60405180910390a250611a23612f4d565b5050565b6000611a316135d8565b7f360894a13ba1a3210667c828492db98dca3e2076cc3735a920a3ca505d382bbc60001b905090565b7f4ba68d394296e94ab6523d7aa99d008a89d73b64505b067e0770522ff96e2330611a848161273c565b611a8d8461292e565b611ac3576040517fc1ab6dc100000000000000000000000000000000000000000000000000000000815260040160405180910390fd5b6004600085815260200190815260200160002060009054906101000a900460ff1615611b1b576040517fb087bbf300000000000000000000000000000000000000000000000000000000815260040160405180910390fd5b8282600360008781526020019081526020016000206002019182611b40929190615a48565b50837f459157ba24c7ab9878b165ef465fa6ae2ab42bcd8445f576be378768b0c473098484604051611b73929190615b45565b60405180910390a250505050565b7fa49807205ce4d355092ef5a8a18f56e8913cf4a201fbe287825b095693c21775611bab8161273c565b828260029182611bbc929190615a48565b507ff9c7803e94e0d3c02900d8a90893a6d5e90dd04d32a4cfe825520f82bf9f32f68383604051611bee929190615b45565b60405180910390a1505050565b606080600084849050905060405191508082528060051b90508060208301016040525b60008114611c505760006020820391508186013590506000611c3f8261226f565b905080836020860101525050611c1e565b819250505092915050565b600080611c6661365f565b90508060000160009054906101000a900460ff1691505090565b6000611c8b82612b64565b9050919050565b60005481565b60008073ffffffffffffffffffffffffffffffffffffffff168273ffffffffffffffffffffffffffffffffffffffff1603611cde57611cdd638f4eb60460e01b6129f5565b5b67ffffffffffffffff611cef612901565b60050160008473ffffffffffffffffffffffffffffffffffffffff1673ffffffffffffffffffffffffffffffffffffffff16815260200190815260200160002054169050919050565b7fa49807205ce4d355092ef5a8a18f56e8913cf4a201fbe287825b095693c2177581565b7fa49807205ce4d355092ef5a8a18f56e8913cf4a201fbe287825b095693c21775611d868161273c565b611d8e613687565b50565b60607fffffffffffffffffffffffffffffffffffffffffffffffffffffffffffffffff611dbc612b3c565b14611dd257611dd163bdba09d760e01b6129f5565b5b6000611ddc612b37565b90506000611de86136f9565b90506060818314611e0157611dfe85848461370c565b90505b809350505050919050565b600080611e17612e3d565b905080600001600085815260200190815260200160002060000160008473ffffffffffffffffffffffffffffffffffffffff1673ffffffffffffffffffffffffffffffffffffffff16815260200190815260200160002060009054906101000a900460ff1691505092915050565b6060611e8f612901565b6003018054611e9d90615673565b80601f0160208091040260200160405190810160405280929190818152602001828054611ec990615673565b8015611f165780601f10611eeb57610100808354040283529160200191611f16565b820191906000526020600020905b815481529060010190602001808311611ef957829003601f168201915b5050505050905090565b7fa49807205ce4d355092ef5a8a18f56e8913cf4a201fbe287825b095693c21775611f4a8161273c565b816001819055507f5a608a926cbc5e51dd142232855af48a512e7b6c9b23bf9ba9475f58fe108b7e82604051611f8091906146ae565b60405180910390a15050565b6060611f9984848461370c565b90509392505050565b6000801b81565b80611fb2612901565b6007016000611fbf612cc8565b73ffffffffffffffffffffffffffffffffffffffff1673ffffffffffffffffffffffffffffffffffffffff16815260200190815260200160002060008473ffffffffffffffffffffffffffffffffffffffff1673ffffffffffffffffffffffffffffffffffffffff16815260200190815260200160002060006101000a81548160ff0219169083151502179055508173ffffffffffffffffffffffffffffffffffffffff1661206c612cc8565b73ffffffffffffffffffffffffffffffffffffffff167f17307eab39ab6107e8899845ad3d59bd9653f200f220920489ca2b5937696c31836040516120b1919061477d565b60405180910390a35050565b6040518060400160405280600581526020017f352e302e3000000000000000000000000000000000000000000000000000000081525081565b60015481565b612107848484610d84565b60008373ffffffffffffffffffffffffffffffffffffffff163b1461214857612132848484846138c8565b6121475761214663d1a57ed660e01b6129f5565b5b5b50505050565b7f4ba68d394296e94ab6523d7aa99d008a89d73b64505b067e0770522ff96e23306121788161273c565b6121818361292e565b6121b7576040517fc1ab6dc100000000000000000000000000000000000000000000000000000000815260040160405180910390fd5b6004600084815260200190815260200160002060009054906101000a900460ff161561220f576040517fb087bbf300000000000000000000000000000000000000000000000000000000815260040160405180910390fd5b8160036000858152602001908152602001600020818161222f9190615d3d565b905050827fcb51969318cee471d3abc5ee4d81ea83e4748e5063261189cbf68810b17066cf836040516122629190615ece565b60405180910390a2505050565b612277614610565b61227f612b37565b82106122de5761228d612b3c565b8211156122a45761229d826139f7565b90506122df565b6122ac6136f9565b8210156122dd575b6122bd82613a2b565b6122cd57816001900391506122b4565b6122d6826139f7565b90506122df565b5b5b919050565b60606122ef8261292e565b612325576040517fc1ab6dc100000000000000000000000000000000000000000000000000000000815260040160405180910390fd5b600261233083613a54565b604051602001612341929190615ffb565b6040516020818303038152906040529050919050565b6123608261107b565b6123698161273c565b612373838361306f565b50505050565b61238161465f565b61238a8261292e565b6123c0576040517fc1ab6dc100000000000000000000000000000000000000000000000000000000815260040160405180910390fd5b600360008381526020019081526020016000206040518060c00160405290816000820180546123ee90615673565b80601f016020809104026020016040519081016040528092919081815260200182805461241a90615673565b80156124675780601f1061243c57610100808354040283529160200191612467565b820191906000526020600020905b81548152906001019060200180831161244a57829003601f168201915b5050505050815260200160018201805461248090615673565b80601f01602080910402602001604051908101604052809291908181526020018280546124ac90615673565b80156124f95780601f106124ce576101008083540402835291602001916124f9565b820191906000526020600020905b8154815290600101906020018083116124dc57829003601f168201915b5050505050815260200160028201805461251290615673565b80601f016020809104026020016040519081016040528092919081815260200182805461253e90615673565b801561258b5780601f106125605761010080835404028352916020019161258b565b820191906000526020600020905b81548152906001019060200180831161256e57829003601f168201915b5050505050815260200160038201548152602001600482015481526020016005820154815250509050919050565b60006125c3612901565b60070160008473ffffffffffffffffffffffffffffffffffffffff1673ffffffffffffffffffffffffffffffffffffffff16815260200190815260200160002060008373ffffffffffffffffffffffffffffffffffffffff1673ffffffffffffffffffffffffffffffffffffffff16815260200190815260200160002060009054906101000a900460ff16905092915050565b7fa49807205ce4d355092ef5a8a18f56e8913cf4a201fbe287825b095693c217756126808161273c565b816000819055507f525b762709cc2a983aec5ccdfd807a061f993c91090b5bcd7da92ca254976aaa826040516126b691906146ae565b60405180910390a15050565b60007f2a55205a000000000000000000000000000000000000000000000000000000007bffffffffffffffffffffffffffffffffffffffffffffffffffffffff1916827bffffffffffffffffffffffffffffffffffffffffffffffffffffffff19161480612735575061273482613b22565b5b9050919050565b61274d81612748613067565b613b9c565b50565b600061275a612e65565b90506000612766612e8d565b6bffffffffffffffffffffffff16905080836bffffffffffffffffffffffff1611156127cb5782816040517f6f483d090000000000000000000000000000000000000000000000000000000081526004016127c292919061605b565b60405180910390fd5b600073ffffffffffffffffffffffffffffffffffffffff168473ffffffffffffffffffffffffffffffffffffffff160361283d5760006040517fb6d9900a0000000000000000000000000000000000000000000000000000000081526004016128349190614994565b60405180910390fd5b60405180604001604052808573ffffffffffffffffffffffffffffffffffffffff168152602001846bffffffffffffffffffffffff168152508260000160008201518160000160006101000a81548173ffffffffffffffffffffffffffffffffffffffff021916908373ffffffffffffffffffffffffffffffffffffffff16021790555060208201518160000160146101000a8154816bffffffffffffffffffffffff02191690836bffffffffffffffffffffffff16021790555090505050505050565b6000807f2569078dfb4b0305704d3008e7403993ae9601b85f7ae5e742de3de8f8011c4090508091505090565b600081612939612b37565b116129ef57612946612b3c565b82111561297957612972612958612901565b600401600084815260200190815260200160002054613bed565b90506129f0565b612981612901565b600001548210156129ee5760005b6000612999612901565b600401600085815260200190815260200160002054915081036129c757826129c090616084565b925061298f565b60007c01000000000000000000000000000000000000000000000000000000008216149150505b5b5b919050565b8060005260046000fd5b6000612a0a83611c80565b9050818015612a4c57508073ffffffffffffffffffffffffffffffffffffffff16612a33612cc8565b73ffffffffffffffffffffffffffffffffffffffff1614155b15612a7857612a6281612a5d612cc8565b6125b9565b612a7757612a7663cfb3b94260e01b6129f5565b5b5b83612a81612901565b600601600085815260200190815260200160002060000160006101000a81548173ffffffffffffffffffffffffffffffffffffffff021916908373ffffffffffffffffffffffffffffffffffffffff160217905550828473ffffffffffffffffffffffffffffffffffffffff168273ffffffffffffffffffffffffffffffffffffffff167f8c5be1e5ebec7d5bd14f71427d1e84f3dd0314c0f7b2291e5b200ac8c7c3b92560405160405180910390a450505050565b600090565b60007fffffffffffffffffffffffffffffffffffffffffffffffffffffffffffffffff905090565b600081612b6f612b37565b11612c8257612b7c612901565b6004016000838152602001908152602001600020549050612b9b612b3c565b821115612bc057612bab81613bed565b612c9357612bbf63df2d9b4260e01b6129f5565b5b60008103612c5957612bd0612901565b600001548210612beb57612bea63df2d9b4260e01b6129f5565b5b5b612bf4612901565b6004016000836001900393508381526020019081526020016000205490506000810315612c545760007c010000000000000000000000000000000000000000000000000000000082160315612c9357612c5363df2d9b4260e01b6129f5565b5b612bec565b60007c010000000000000000000000000000000000000000000000000000000082160315612c93575b612c9263df2d9b4260e01b6129f5565b5b919050565b6000806000612ca5612901565b600601600085815260200190815260200160002090508092508254915050915091565b600033905090565b600073ffffffffffffffffffffffffffffffffffffffff8316925073ffffffffffffffffffffffffffffffffffffffff821691508382148383141790509392505050565b600073ffffffffffffffffffffffffffffffffffffffff168373ffffffffffffffffffffffffffffffffffffffff1614158015612d7d57508373ffffffffffffffffffffffffffffffffffffffff168373ffffffffffffffffffffffffffffffffffffffff1614155b15612dd25760015481612d8f85611c98565b612d999190615775565b1115612dd1576040517f3349019100000000000000000000000000000000000000000000000000000000815260040160405180910390fd5b5b612dde84848484613c2e565b50505050565b60008060e883901c905060e8612dfb868684613c34565b62ffffff16901b9150509392505050565b600073ffffffffffffffffffffffffffffffffffffffff83169250814260a01b178317905092915050565b50505050565b60007f02dd7bc7dec4dceedda775e58dd541e08a116c6c53815c0bd028192f7b626800905090565b60007fdaedc9ab023613a7caf35e703657e986ccfad7e3eb0af93a2853f8d65dd86b00905090565b6000612710905090565b612e9f611c5b565b15612ed6576040517fd93c066500000000000000000000000000000000000000000000000000000000815260040160405180910390fd5b565b6000612ee2613c3d565b90506002816000015403612f22576040517f3ee5aeb500000000000000000000000000000000000000000000000000000000815260040160405180910390fd5b6002816000018190555050565b612f49828260405180602001604052806000815250613c65565b5050565b6000612f57613c3d565b90506001816000018190555050565b600080612f71612e3d565b9050612f7d8484611e0c565b61305b57600181600001600086815260200190815260200160002060000160008573ffffffffffffffffffffffffffffffffffffffff1673ffffffffffffffffffffffffffffffffffffffff16815260200190815260200160002060006101000a81548160ff021916908315150217905550612ff7613067565b73ffffffffffffffffffffffffffffffffffffffff168373ffffffffffffffffffffffffffffffffffffffff16857f2f8788117e7eff1d82e926ec794901d17c78024a50270940304540a733656f0d60405160405180910390a46001915050613061565b60009150505b92915050565b600033905090565b60008061307a612e3d565b90506130868484611e0c565b1561316557600081600001600086815260200190815260200160002060000160008573ffffffffffffffffffffffffffffffffffffffff1673ffffffffffffffffffffffffffffffffffffffff16815260200190815260200160002060006101000a81548160ff021916908315150217905550613101613067565b73ffffffffffffffffffffffffffffffffffffffff168373ffffffffffffffffffffffffffffffffffffffff16857ff6391f5c32d9c69d2a47ea670b442974b53935d1edc7fd64eb21e047a839171b60405160405180910390a4600191505061316b565b60009150505b92915050565b613179613cf4565b600061318361365f565b905060008160000160006101000a81548160ff0219169083151502179055507f5db9ee0a495bf2e6ff9c91a7834c1ba4fdd244a5e8aa4e537bd38aeae4b073aa6131cb613067565b6040516131d89190614994565b60405180910390a150565b6000807fee151c8401928dc223602bb187aff91b9a56c7cae5476ef1b3287b085a16c85f90508091505090565b6000803090506000813b9050600081149250505090565b600080613232613d34565b90508091505090565b6132436131e3565b60000160019054906101000a900460ff16613293576040517f08c379a000000000000000000000000000000000000000000000000000000000815260040161328a9061611f565b60405180910390fd5b61329d8282613d5f565b5050565b6132a9613e2b565b565b6132b3613e2b565b565b6132bd613e2b565b6132c5613e6b565b565b6132cf613e2b565b565b6132d9613e2b565b565b7f000000000000000000000000000000000000000000000000000000000000000073ffffffffffffffffffffffffffffffffffffffff163073ffffffffffffffffffffffffffffffffffffffff16148061338857507f000000000000000000000000000000000000000000000000000000000000000073ffffffffffffffffffffffffffffffffffffffff1661336f613e8c565b73ffffffffffffffffffffffffffffffffffffffff1614155b156133bf576040517fe07c8dba00000000000000000000000000000000000000000000000000000000815260040160405180910390fd5b565b7fa49807205ce4d355092ef5a8a18f56e8913cf4a201fbe287825b095693c217756133eb8161273c565b5050565b8173ffffffffffffffffffffffffffffffffffffffff166352d1902d6040518163ffffffff1660e01b8152600401602060405180830381865afa92505050801561345757506040513d601f19601f820116820180604052508101906134549190616154565b60015b61349857816040517f4c9c8ce300000000000000000000000000000000000000000000000000000000815260040161348f9190614994565b60405180910390fd5b7f360894a13ba1a3210667c828492db98dca3e2076cc3735a920a3ca505d382bbc60001b81146134ff57806040517faa1d49a40000000000000000000000000000000000000000000000000000000081526004016134f69190614ab4565b60405180910390fd5b6135098383613ee3565b505050565b804710156135555747816040517fcf47918100000000000000000000000000000000000000000000000000000000815260040161354c929190616181565b60405180910390fd5b6000808373ffffffffffffffffffffffffffffffffffffffff168360405161357c906161db565b60006040518083038185875af1925050503d80600081146135b9576040519150601f19603f3d011682016040523d82523d6000602084013e6135be565b606091505b5091509150816135d2576135d181613f56565b5b50505050565b7f000000000000000000000000000000000000000000000000000000000000000073ffffffffffffffffffffffffffffffffffffffff163073ffffffffffffffffffffffffffffffffffffffff161461365d576040517fe07c8dba00000000000000000000000000000000000000000000000000000000815260040160405180910390fd5b565b60007fcd5ed15c6e187e77e9aee88184c21f4f2182ab5827cb3b7e07fbedcd63f03300905090565b61368f612e97565b600061369961365f565b905060018160000160006101000a81548160ff0219169083151502179055507f62e78cea01bee320cd4e420270b5ea74000d11b0c9f74754ebdbfc544b05a2586136e1613067565b6040516136ee9190614994565b60405180910390a150565b6000613703612901565b60000154905090565b6060818310613726576137256332c1995a60e01b6129f5565b5b61372e612b37565b8310156137405761373d612b37565b92505b600061374a6136f9565b905060007fffffffffffffffffffffffffffffffffffffffffffffffffffffffffffffffff613777612b3c565b036137825781613784565b835b9050808410613791578093505b600061379c87611c98565b90508486106137aa57600090505b600081146138be5780868603116137c15785850390505b600060405194506001820160051b850190508060405260006137e28861226f565b9050600081604001516137f757816000015190505b60005b7fffffffffffffffffffffffffffffffffffffffffffffffffffffffffffffffff613823612b3c565b1461385257868a0361383d576001613839612b3c565b0199505b613845612b3c565b8a111561385157600091505b5b61385b8a6139f7565b92506040830151600081146138735760009250613899565b83511561387f57835192505b8b831860601b613898576001820191508a8260051b8a01525b5b5060018a01995083604052888a14806138b157508481145b156137fa57808852505050505b5050509392505050565b60008373ffffffffffffffffffffffffffffffffffffffff1663150b7a026138ee612cc8565b8786866040518563ffffffff1660e01b81526004016139109493929190616245565b6020604051808303816000875af192505050801561394c57506040513d601f19601f8201168201806040525081019061394991906162a6565b60015b6139a4573d806000811461397c576040519150601f19603f3d011682016040523d82523d6000602084013e613981565b606091505b50600081510361399c5761399b63d1a57ed660e01b6129f5565b5b805181602001fd5b63150b7a0260e01b7bffffffffffffffffffffffffffffffffffffffffffffffffffffffff1916817bffffffffffffffffffffffffffffffffffffffffffffffffffffffff191614915050949350505050565b6139ff614610565b613a24613a0a612901565b600401600084815260200190815260200160002054613f9b565b9050919050565b600080613a36612901565b60040160008481526020019081526020016000205414159050919050565b606060006001613a6384614051565b01905060008167ffffffffffffffff811115613a8257613a81614b82565b5b6040519080825280601f01601f191660200182016040528015613ab45781602001600182028036833780820191505090505b509050600082602001820190505b600115613b17578080600190039150507f3031323334353637383961626364656600000000000000000000000000000000600a86061a8153600a8581613b0b57613b0a615715565b5b04945060008503613ac2575b819350505050919050565b60007f7965db0b000000000000000000000000000000000000000000000000000000007bffffffffffffffffffffffffffffffffffffffffffffffffffffffff1916827bffffffffffffffffffffffffffffffffffffffffffffffffffffffff19161480613b955750613b94826141a4565b5b9050919050565b613ba68282611e0c565b613be95780826040517fe2517d3f000000000000000000000000000000000000000000000000000000008152600401613be09291906162d3565b60405180910390fd5b5050565b60007c0100000000000000000000000000000000000000000000000000000000821673ffffffffffffffffffffffffffffffffffffffff8316119050919050565b50505050565b60009392505050565b60007f9b779b17422d0df92223018b32b4d1fa46e071723d6817e2486d003becc55f00905090565b613c6f838361420e565b60008373ffffffffffffffffffffffffffffffffffffffff163b14613cef576000613c98612901565b600001549050600083820390505b613cb960008683806001019450866138c8565b613cce57613ccd63d1a57ed660e01b6129f5565b5b818110613ca65781613cde612901565b6000015414613cec57600080fd5b50505b505050565b613cfc611c5b565b613d32576040517f8dfc202b00000000000000000000000000000000000000000000000000000000815260040160405180910390fd5b565b60007ff0c57e16840df040f15088dc2f81fe391c3923bec73e23a9662efc9c229c6a0060001b905090565b613d676131e3565b60000160019054906101000a900460ff16613db7576040517f08c379a0000000000000000000000000000000000000000000000000000000008152600401613dae9061611f565b60405180910390fd5b81613dc0612901565b6002019081613dcf91906162fc565b5080613dd9612901565b6003019081613de891906162fc565b50613df1612b37565b613df9612901565b60000181905550613e08612b37565b613e10612b3c565b1015613e2757613e2663fed8210f60e01b6129f5565b5b5050565b613e336143b9565b613e69576040517fd7e6bcf800000000000000000000000000000000000000000000000000000000815260040160405180910390fd5b565b613e73613e2b565b6000613e7d613c3d565b90506001816000018190555050565b6000613eba7f360894a13ba1a3210667c828492db98dca3e2076cc3735a920a3ca505d382bbc60001b6143d9565b60000160009054906101000a900473ffffffffffffffffffffffffffffffffffffffff16905090565b613eec826143e3565b8173ffffffffffffffffffffffffffffffffffffffff167fbc7cd75a20ee27fd9adebab32041f755214dbc6bffa90cc0225b39da2e5c2d3b60405160405180910390a2600081511115613f4957613f4382826144b0565b50613f52565b613f51614534565b5b5050565b600081511115613f695780518082602001fd5b6040517fd6bda27500000000000000000000000000000000000000000000000000000000815260040160405180910390fd5b613fa3614610565b81816000019073ffffffffffffffffffffffffffffffffffffffff16908173ffffffffffffffffffffffffffffffffffffffff168152505060a082901c816020019067ffffffffffffffff16908167ffffffffffffffff168152505060007c01000000000000000000000000000000000000000000000000000000008316141581604001901515908115158152505060e882901c816060019062ffffff16908162ffffff1681525050919050565b600080600090507a184f03e93ff9f4daa797ed6e38ed64bf6a1f01000000000000000083106140af577a184f03e93ff9f4daa797ed6e38ed64bf6a1f01000000000000000083816140a5576140a4615715565b5b0492506040810190505b6d04ee2d6d415b85acef810000000083106140ec576d04ee2d6d415b85acef810000000083816140e2576140e1615715565b5b0492506020810190505b662386f26fc10000831061411b57662386f26fc10000838161411157614110615715565b5b0492506010810190505b6305f5e1008310614144576305f5e100838161413a57614139615715565b5b0492506008810190505b612710831061416957612710838161415f5761415e615715565b5b0492506004810190505b6064831061418c576064838161418257614181615715565b5b0492506002810190505b600a831061419b576001810190505b80915050919050565b60007f01ffc9a7000000000000000000000000000000000000000000000000000000007bffffffffffffffffffffffffffffffffffffffffffffffffffffffff1916827bffffffffffffffffffffffffffffffffffffffffffffffffffffffff1916149050919050565b6000614218612901565b600001549050600082036142375761423663b562e8dd60e01b6129f5565b5b6142446000848385612d14565b614264836142556000866000612de4565b61425e85614571565b17612e0c565b61426c612901565b600401600083815260200190815260200160002081905550600160406001901b178202614297612901565b60050160008573ffffffffffffffffffffffffffffffffffffffff1673ffffffffffffffffffffffffffffffffffffffff16815260200190815260200160002060008282540192505081905550600073ffffffffffffffffffffffffffffffffffffffff8473ffffffffffffffffffffffffffffffffffffffff161690506000810361432e5761432d632e07630060e01b6129f5565b5b600083830190506000839050614342612b3c565b60018303111561435d5761435c6381647e3a60e01b6129f5565b5b5b808360007fddf252ad1be2c89b69c2b068fc378daa952ba7f163c4a11628f55a4df523b3ef600080a481816001019150810361435e578161439d612901565b600001819055505050506143b46000848385612e37565b505050565b60006143c3613227565b60000160089054906101000a900460ff16905090565b6000819050919050565b60008173ffffffffffffffffffffffffffffffffffffffff163b0361443f57806040517f4c9c8ce30000000000000000000000000000000000000000000000000000000081526004016144369190614994565b60405180910390fd5b8061446c7f360894a13ba1a3210667c828492db98dca3e2076cc3735a920a3ca505d382bbc60001b6143d9565b60000160006101000a81548173ffffffffffffffffffffffffffffffffffffffff021916908373ffffffffffffffffffffffffffffffffffffffff16021790555050565b60606000808473ffffffffffffffffffffffffffffffffffffffff16846040516144da91906163ff565b600060405180830381855af49150503d8060008114614515576040519150601f19603f3d011682016040523d82523d6000602084013e61451a565b606091505b509150915061452a858383614581565b9250505092915050565b600034111561456f576040517fb398979f00000000000000000000000000000000000000000000000000000000815260040160405180910390fd5b565b60006001821460e11b9050919050565b6060826145965761459182613f56565b614608565b600082511480156145be575060008473ffffffffffffffffffffffffffffffffffffffff163b145b1561460057836040517f9996b3150000000000000000000000000000000000000000000000000000000081526004016145f79190614994565b60405180910390fd5b819050614609565b5b9392505050565b6040518060800160405280600073ffffffffffffffffffffffffffffffffffffffff168152602001600067ffffffffffffffff168152602001600015158152602001600062ffffff1681525090565b6040518060c001604052806060815260200160608152602001606081526020016000815260200160008152602001600081525090565b6000819050919050565b6146a881614695565b82525050565b60006020820190506146c3600083018461469f565b92915050565b6000604051905090565b600080fd5b600080fd5b60007fffffffff0000000000000000000000000000000000000000000000000000000082169050919050565b614712816146dd565b811461471d57600080fd5b50565b60008135905061472f81614709565b92915050565b60006020828403121561474b5761474a6146d3565b5b600061475984828501614720565b91505092915050565b60008115159050919050565b61477781614762565b82525050565b6000602082019050614792600083018461476e565b92915050565b600073ffffffffffffffffffffffffffffffffffffffff82169050919050565b60006147c382614798565b9050919050565b6147d3816147b8565b81146147de57600080fd5b50565b6000813590506147f0816147ca565b92915050565b60006bffffffffffffffffffffffff82169050919050565b614817816147f6565b811461482257600080fd5b50565b6000813590506148348161480e565b92915050565b60008060408385031215614851576148506146d3565b5b600061485f858286016147e1565b925050602061487085828601614825565b9150509250929050565b600081519050919050565b600082825260208201905092915050565b60005b838110156148b4578082015181840152602081019050614899565b60008484015250505050565b6000601f19601f8301169050919050565b60006148dc8261487a565b6148e68185614885565b93506148f6818560208601614896565b6148ff816148c0565b840191505092915050565b6000602082019050818103600083015261492481846148d1565b905092915050565b61493581614695565b811461494057600080fd5b50565b6000813590506149528161492c565b92915050565b60006020828403121561496e5761496d6146d3565b5b600061497c84828501614943565b91505092915050565b61498e816147b8565b82525050565b60006020820190506149a96000830184614985565b92915050565b600080604083850312156149c6576149c56146d3565b5b60006149d4858286016147e1565b92505060206149e585828601614943565b9150509250929050565b600080600060608486031215614a0857614a076146d3565b5b6000614a16868287016147e1565b9350506020614a27868287016147e1565b9250506040614a3886828701614943565b9150509250925092565b6000819050919050565b614a5581614a42565b8114614a6057600080fd5b50565b600081359050614a7281614a4c565b92915050565b600060208284031215614a8e57614a8d6146d3565b5b6000614a9c84828501614a63565b91505092915050565b614aae81614a42565b82525050565b6000602082019050614ac96000830184614aa5565b92915050565b60008060408385031215614ae657614ae56146d3565b5b6000614af485828601614943565b9250506020614b0585828601614943565b9150509250929050565b6000604082019050614b246000830185614985565b614b31602083018461469f565b9392505050565b60008060408385031215614b4f57614b4e6146d3565b5b6000614b5d85828601614a63565b9250506020614b6e858286016147e1565b9150509250929050565b600080fd5b600080fd5b7f4e487b7100000000000000000000000000000000000000000000000000000000600052604160045260246000fd5b614bba826148c0565b810181811067ffffffffffffffff82111715614bd957614bd8614b82565b5b80604052505050565b6000614bec6146c9565b9050614bf88282614bb1565b919050565b600067ffffffffffffffff821115614c1857614c17614b82565b5b614c21826148c0565b9050602081019050919050565b82818337600083830152505050565b6000614c50614c4b84614bfd565b614be2565b905082815260208101848484011115614c6c57614c6b614b7d565b5b614c77848285614c2e565b509392505050565b600082601f830112614c9457614c93614b78565b5b8135614ca4848260208601614c3d565b91505092915050565b60008060408385031215614cc457614cc36146d3565b5b600083013567ffffffffffffffff811115614ce257614ce16146d8565b5b614cee85828601614c7f565b925050602083013567ffffffffffffffff811115614d0f57614d0e6146d8565b5b614d1b85828601614c7f565b9150509250929050565b600067ffffffffffffffff821115614d4057614d3f614b82565b5b614d49826148c0565b9050602081019050919050565b6000614d69614d6484614d25565b614be2565b905082815260208101848484011115614d8557614d84614b7d565b5b614d90848285614c2e565b509392505050565b600082601f830112614dad57614dac614b78565b5b8135614dbd848260208601614d56565b91505092915050565b60008060408385031215614ddd57614ddc6146d3565b5b6000614deb858286016147e1565b925050602083013567ffffffffffffffff811115614e0c57614e0b6146d8565b5b614e1885828601614d98565b9150509250929050565b6000614e2d82614798565b9050919050565b614e3d81614e22565b8114614e4857600080fd5b50565b600081359050614e5a81614e34565b92915050565b600060208284031215614e7657614e756146d3565b5b6000614e8484828501614e4b565b91505092915050565b600080fd5b600080fd5b60008083601f840112614ead57614eac614b78565b5b8235905067ffffffffffffffff811115614eca57614ec9614e8d565b5b602083019150836001820283011115614ee657614ee5614e92565b5b9250929050565b600080600060408486031215614f0657614f056146d3565b5b6000614f1486828701614943565b935050602084013567ffffffffffffffff811115614f3557614f346146d8565b5b614f4186828701614e97565b92509250509250925092565b60008060208385031215614f6457614f636146d3565b5b600083013567ffffffffffffffff811115614f8257614f816146d8565b5b614f8e85828601614e97565b92509250509250929050565b60008083601f840112614fb057614faf614b78565b5b8235905067ffffffffffffffff811115614fcd57614fcc614e8d565b5b602083019150836020820283011115614fe957614fe8614e92565b5b9250929050565b60008060208385031215615007576150066146d3565b5b600083013567ffffffffffffffff811115615025576150246146d8565b5b61503185828601614f9a565b92509250509250929050565b600081519050919050565b600082825260208201905092915050565b6000819050602082019050919050565b615072816147b8565b82525050565b600067ffffffffffffffff82169050919050565b61509581615078565b82525050565b6150a481614762565b82525050565b600062ffffff82169050919050565b6150c2816150aa565b82525050565b6080820160008201516150de6000850182615069565b5060208201516150f1602085018261508c565b506040820151615104604085018261509b565b50606082015161511760608501826150b9565b50505050565b600061512983836150c8565b60808301905092915050565b6000602082019050919050565b600061514d8261503d565b6151578185615048565b935061516283615059565b8060005b8381101561519357815161517a888261511d565b975061518583615135565b925050600181019050615166565b5085935050505092915050565b600060208201905081810360008301526151ba8184615142565b905092915050565b6000602082840312156151d8576151d76146d3565b5b60006151e6848285016147e1565b91505092915050565b600081519050919050565b600082825260208201905092915050565b6000819050602082019050919050565b61522481614695565b82525050565b6000615236838361521b565b60208301905092915050565b6000602082019050919050565b600061525a826151ef565b61526481856151fa565b935061526f8361520b565b8060005b838110156152a0578151615287888261522a565b975061529283615242565b925050600181019050615273565b5085935050505092915050565b600060208201905081810360008301526152c7818461524f565b905092915050565b6000806000606084860312156152e8576152e76146d3565b5b60006152f6868287016147e1565b935050602061530786828701614943565b925050604061531886828701614943565b9150509250925092565b61532b81614762565b811461533657600080fd5b50565b60008135905061534881615322565b92915050565b60008060408385031215615365576153646146d3565b5b6000615373858286016147e1565b925050602061538485828601615339565b9150509250929050565b600080600080608085870312156153a8576153a76146d3565b5b60006153b6878288016147e1565b94505060206153c7878288016147e1565b93505060406153d887828801614943565b925050606085013567ffffffffffffffff8111156153f9576153f86146d8565b5b61540587828801614d98565b91505092959194509250565b600080fd5b600060c0828403121561542c5761542b615411565b5b81905092915050565b6000806040838503121561544c5761544b6146d3565b5b600061545a85828601614943565b925050602083013567ffffffffffffffff81111561547b5761547a6146d8565b5b61548785828601615416565b9150509250929050565b6080820160008201516154a76000850182615069565b5060208201516154ba602085018261508c565b5060408201516154cd604085018261509b565b5060608201516154e060608501826150b9565b50505050565b60006080820190506154fb6000830184615491565b92915050565b600082825260208201905092915050565b600061551d8261487a565b6155278185615501565b9350615537818560208601614896565b615540816148c0565b840191505092915050565b600060c08301600083015184820360008601526155688282615512565b915050602083015184820360208601526155828282615512565b9150506040830151848203604086015261559c8282615512565b91505060608301516155b1606086018261521b565b5060808301516155c4608086018261521b565b5060a08301516155d760a086018261521b565b508091505092915050565b600060208201905081810360008301526155fc818461554b565b905092915050565b6000806040838503121561561b5761561a6146d3565b5b6000615629858286016147e1565b925050602061563a858286016147e1565b9150509250929050565b7f4e487b7100000000000000000000000000000000000000000000000000000000600052602260045260246000fd5b6000600282049050600182168061568b57607f821691505b60208210810361569e5761569d615644565b5b50919050565b7f4e487b7100000000000000000000000000000000000000000000000000000000600052601160045260246000fd5b60006156de82614695565b91506156e983614695565b92508282026156f781614695565b9150828204841483151761570e5761570d6156a4565b5b5092915050565b7f4e487b7100000000000000000000000000000000000000000000000000000000600052601260045260246000fd5b600061574f82614695565b915061575a83614695565b92508261576a57615769615715565b5b828204905092915050565b600061578082614695565b915061578b83614695565b92508282019050808211156157a3576157a26156a4565b5b92915050565b7f455243373231415f5f496e697469616c697a61626c653a20636f6e747261637460008201527f20697320616c726561647920696e697469616c697a6564000000000000000000602082015250565b6000615805603783614885565b9150615810826157a9565b604082019050919050565b60006020820190508181036000830152615834816157f8565b9050919050565b6000819050919050565b6000819050919050565b600061586a6158656158608461583b565b615845565b615078565b9050919050565b61587a8161584f565b82525050565b60006020820190506158956000830184615871565b92915050565b600082905092915050565b60008190508160005260206000209050919050565b60006020601f8301049050919050565b600082821b905092915050565b6000600883026159087fffffffffffffffffffffffffffffffffffffffffffffffffffffffffffffffff826158cb565b61591286836158cb565b95508019841693508086168417925050509392505050565b600061594561594061593b84614695565b615845565b614695565b9050919050565b6000819050919050565b61595f8361592a565b61597361596b8261594c565b8484546158d8565b825550505050565b600090565b61598861597b565b615993818484615956565b505050565b5b818110156159b7576159ac600082615980565b600181019050615999565b5050565b601f8211156159fc576159cd816158a6565b6159d6846158bb565b810160208510156159e5578190505b6159f96159f1856158bb565b830182615998565b50505b505050565b600082821c905092915050565b6000615a1f60001984600802615a01565b1980831691505092915050565b6000615a388383615a0e565b9150826002028217905092915050565b615a52838361589b565b67ffffffffffffffff811115615a6b57615a6a614b82565b5b615a758254615673565b615a808282856159bb565b6000601f831160018114615aaf5760008415615a9d578287013590505b615aa78582615a2c565b865550615b0f565b601f198416615abd866158a6565b60005b82811015615ae557848901358255600182019150602085019450602081019050615ac0565b86831015615b025784890135615afe601f891682615a0e565b8355505b6001600288020188555050505b50505050505050565b6000615b248385614885565b9350615b31838584614c2e565b615b3a836148c0565b840190509392505050565b60006020820190508181036000830152615b60818486615b18565b90509392505050565b600080fd5b600080fd5b600080fd5b60008083356001602003843603038112615b9557615b94615b69565b5b80840192508235915067ffffffffffffffff821115615bb757615bb6615b6e565b5b602083019250600182023603831315615bd357615bd2615b73565b5b509250929050565b615be6838383615a48565b505050565b60008135615bf88161492c565b80915050919050565b60008160001b9050919050565b60007fffffffffffffffffffffffffffffffffffffffffffffffffffffffffffffffff615c3a84615c01565b9350801983169250808416831791505092915050565b615c598261592a565b615c6c615c658261594c565b8354615c0e565b8255505050565b6000810160008301615c858185615b78565b615c90818386615bdb565b505050506001810160208301615ca68185615b78565b615cb1818386615bdb565b505050506002810160408301615cc78185615b78565b615cd2818386615bdb565b50505050600381016060830180615ce881615beb565b9050615cf48184615c50565b505050600481016080830180615d0981615beb565b9050615d158184615c50565b5050506005810160a0830180615d2a81615beb565b9050615d368184615c50565b5050505050565b615d478282615c73565b5050565b600080fd5b600080fd5b600080fd5b60008083356001602003843603038112615d7757615d76615d55565b5b83810192508235915060208301925067ffffffffffffffff821115615d9f57615d9e615d4b565b5b600182023603831315615db557615db4615d50565b5b509250929050565b6000615dc98385615501565b9350615dd6838584614c2e565b615ddf836148c0565b840190509392505050565b6000615df96020840184614943565b905092915050565b600060c08301615e146000840184615d5a565b8583036000870152615e27838284615dbd565b92505050615e386020840184615d5a565b8583036020870152615e4b838284615dbd565b92505050615e5c6040840184615d5a565b8583036040870152615e6f838284615dbd565b92505050615e806060840184615dea565b615e8d606086018261521b565b50615e9b6080840184615dea565b615ea8608086018261521b565b50615eb660a0840184615dea565b615ec360a086018261521b565b508091505092915050565b60006020820190508181036000830152615ee88184615e01565b905092915050565b600081905092915050565b60008154615f0881615673565b615f128186615ef0565b94506001821660008114615f2d5760018114615f4257615f75565b60ff1983168652811515820286019350615f75565b615f4b856158a6565b60005b83811015615f6d57815481890152600182019150602081019050615f4e565b838801955050505b50505092915050565b6000615f898261487a565b615f938185615ef0565b9350615fa3818560208601614896565b80840191505092915050565b7f2e6a736f6e000000000000000000000000000000000000000000000000000000600082015250565b6000615fe5600583615ef0565b9150615ff082615faf565b600582019050919050565b60006160078285615efb565b91506160138284615f7e565b915061601e82615fd8565b91508190509392505050565b600061604561604061603b846147f6565b615845565b614695565b9050919050565b6160558161602a565b82525050565b6000604082019050616070600083018561604c565b61607d602083018461469f565b9392505050565b600061608f82614695565b9150600082036160a2576160a16156a4565b5b600182039050919050565b7f455243373231415f5f496e697469616c697a61626c653a20636f6e747261637460008201527f206973206e6f7420696e697469616c697a696e67000000000000000000000000602082015250565b6000616109603483614885565b9150616114826160ad565b604082019050919050565b60006020820190508181036000830152616138816160fc565b9050919050565b60008151905061614e81614a4c565b92915050565b60006020828403121561616a576161696146d3565b5b60006161788482850161613f565b91505092915050565b6000604082019050616196600083018561469f565b6161a3602083018461469f565b9392505050565b600081905092915050565b50565b60006161c56000836161aa565b91506161d0826161b5565b600082019050919050565b60006161e6826161b8565b9150819050919050565b600081519050919050565b600082825260208201905092915050565b6000616217826161f0565b61622181856161fb565b9350616231818560208601614896565b61623a816148c0565b840191505092915050565b600060808201905061625a6000830187614985565b6162676020830186614985565b616274604083018561469f565b8181036060830152616286818461620c565b905095945050505050565b6000815190506162a081614709565b92915050565b6000602082840312156162bc576162bb6146d3565b5b60006162ca84828501616291565b91505092915050565b60006040820190506162e86000830185614985565b6162f56020830184614aa5565b9392505050565b6163058261487a565b67ffffffffffffffff81111561631e5761631d614b82565b5b6163288254615673565b6163338282856159bb565b600060209050601f8311600181146163665760008415616354578287015190505b61635e8582615a2c565b8655506163c6565b601f198416616374866158a6565b60005b8281101561639c57848901518255600182019150602085019450602081019050616377565b868310156163b957848901516163b5601f891682615a0e565b8355505b6001600288020188555050505b505050505050565b60006163d9826161f0565b6163e381856161aa565b93506163f3818560208601614896565b80840191505092915050565b600061640b82846163ce565b91508190509291505056fea2646970667358221220571c54986708fded96ba7c7feb1632f95bee23f4471e12531cb6b5c53ef76d2f64736f6c63430008180033",
  "linkReferences": {},
  "deployedLinkReferences": {}
}