{
  "_format": "hh-sol-artifact-1",
  "contractName": "ERC721ATransferCounterMockUpgradeable",
  "sourceName": "contracts/ERC721A-Upgradeable/contracts/mocks/ERC721ATransferCounterMockUpgradeable.sol",
  "abi": [
    {
      "inputs": [],
      "name": "ApprovalCallerNotOwnerNorApproved",
      "type": "error"
    },
    {
      "inputs": [],
      "name": "ApprovalQueryForNonexistentToken",
      "type": "error"
    },
    {
      "inputs": [],
      "name": "BalanceQueryForZeroAddress",
      "type": "error"
    },
    {
      "inputs": [],
      "name": "MintERC2309QuantityExceedsLimit",
      "type": "error"
    },
    {
      "inputs": [],
      "name": "MintToZeroAddress",
      "type": "error"
    },
    {
      "inputs": [],
      "name": "MintZeroQuantity",
      "type": "error"
    },
    {
      "inputs": [],
      "name": "NotCompatibleWithSpotMints",
      "type": "error"
    },
    {
      "inputs": [],
      "name": "OwnerQueryForNonexistentToken",
      "type": "error"
    },
    {
      "inputs": [],
      "name": "OwnershipNotInitializedForExtraData",
      "type": "error"
    },
    {
      "inputs": [],
      "name": "SequentialMintExceedsLimit",
      "type": "error"
    },
    {
      "inputs": [],
      "name": "SequentialUpToTooSmall",
      "type": "error"
    },
    {
      "inputs": [],
      "name": "SpotMintTokenIdTooSmall",
      "type": "error"
    },
    {
      "inputs": [],
      "name": "TokenAlreadyExists",
      "type": "error"
    },
    {
      "inputs": [],
      "name": "TransferCallerNotOwnerNorApproved",
      "type": "error"
    },
    {
      "inputs": [],
      "name": "TransferFromIncorrectOwner",
      "type": "error"
    },
    {
      "inputs": [],
      "name": "TransferToNonERC721ReceiverImplementer",
      "type": "error"
    },
    {
      "inputs": [],
      "name": "TransferToZeroAddress",
      "type": "error"
    },
    {
      "inputs": [],
      "name": "URIQueryForNonexistentToken",
      "type": "error"
    },
    {
      "anonymous": false,
      "inputs": [
        {
          "indexed": true,
          "internalType": "address",
          "name": "owner",
          "type": "address"
        },
        {
          "indexed": true,
          "internalType": "address",
          "name": "approved",
          "type": "address"
        },
        {
          "indexed": true,
          "internalType": "uint256",
          "name": "tokenId",
          "type": "uint256"
        }
      ],
      "name": "Approval",
      "type": "event"
    },
    {
      "anonymous": false,
      "inputs": [
        {
          "indexed": true,
          "internalType": "address",
          "name": "owner",
          "type": "address"
        },
        {
          "indexed": true,
          "internalType": "address",
          "name": "operator",
          "type": "address"
        },
        {
          "indexed": false,
          "internalType": "bool",
          "name": "approved",
          "type": "bool"
        }
      ],
      "name": "ApprovalForAll",
      "type": "event"
    },
    {
      "anonymous": false,
      "inputs": [
        {
          "indexed": true,
          "internalType": "uint256",
          "name": "fromTokenId",
          "type": "uint256"
        },
        {
          "indexed": false,
          "internalType": "uint256",
          "name": "toTokenId",
          "type": "uint256"
        },
        {
          "indexed": true,
          "internalType": "address",
          "name": "from",
          "type": "address"
        },
        {
          "indexed": true,
          "internalType": "address",
          "name": "to",
          "type": "address"
        }
      ],
      "name": "ConsecutiveTransfer",
      "type": "event"
    },
    {
      "anonymous": false,
      "inputs": [
        {
          "indexed": true,
          "internalType": "address",
          "name": "from",
          "type": "address"
        },
        {
          "indexed": true,
          "internalType": "address",
          "name": "to",
          "type": "address"
        },
        {
          "indexed": true,
          "internalType": "uint256",
          "name": "tokenId",
          "type": "uint256"
        }
      ],
      "name": "Transfer",
      "type": "event"
    },
    {
      "inputs": [
        {
          "internalType": "address",
          "name": "to",
          "type": "address"
        },
        {
          "internalType": "uint256",
          "name": "tokenId",
          "type": "uint256"
        }
      ],
      "name": "approve",
      "outputs": [],
      "stateMutability": "payable",
      "type": "function"
    },
    {
      "inputs": [
        {
          "internalType": "address",
          "name": "owner",
          "type": "address"
        }
      ],
      "name": "balanceOf",
      "outputs": [
        {
          "internalType": "uint256",
          "name": "",
          "type": "uint256"
        }
      ],
      "stateMutability": "view",
      "type": "function"
    },
    {
      "inputs": [],
      "name": "baseURI",
      "outputs": [
        {
          "internalType": "string",
          "name": "",
          "type": "string"
        }
      ],
      "stateMutability": "view",
      "type": "function"
    },
    {
      "inputs": [
        {
          "internalType": "uint256",
          "name": "tokenId",
          "type": "uint256"
        }
      ],
      "name": "burn",
      "outputs": [],
      "stateMutability": "nonpayable",
      "type": "function"
    },
    {
      "inputs": [
        {
          "internalType": "uint256",
          "name": "tokenId",
          "type": "uint256"
        },
        {
          "internalType": "bool",
          "name": "approvalCheck",
          "type": "bool"
        }
      ],
      "name": "burn",
      "outputs": [],
      "stateMutability": "nonpayable",
      "type": "function"
    },
    {
      "inputs": [
        {
          "internalType": "address",
          "name": "to",
          "type": "address"
        },
        {
          "internalType": "uint256",
          "name": "tokenId",
          "type": "uint256"
        }
      ],
      "name": "directApprove",
      "outputs": [],
      "stateMutability": "nonpayable",
      "type": "function"
    },
    {
      "inputs": [
        {
          "internalType": "uint256",
          "name": "index",
          "type": "uint256"
        }
      ],
      "name": "directSetBurnBit",
      "outputs": [],
      "stateMutability": "nonpayable",
      "type": "function"
    },
    {
      "inputs": [
        {
          "internalType": "uint256",
          "name": "tokenId",
          "type": "uint256"
        }
      ],
      "name": "exists",
      "outputs": [
        {
          "internalType": "bool",
          "name": "",
          "type": "bool"
        }
      ],
      "stateMutability": "view",
      "type": "function"
    },
    {
      "inputs": [
        {
          "internalType": "uint256",
          "name": "tokenId",
          "type": "uint256"
        }
      ],
      "name": "getApproved",
      "outputs": [
        {
          "internalType": "address",
          "name": "",
          "type": "address"
        }
      ],
      "stateMutability": "view",
      "type": "function"
    },
    {
      "inputs": [
        {
          "internalType": "address",
          "name": "owner",
          "type": "address"
        }
      ],
      "name": "getAux",
      "outputs": [
        {
          "internalType": "uint64",
          "name": "",
          "type": "uint64"
        }
      ],
      "stateMutability": "view",
      "type": "function"
    },
    {
      "inputs": [
        {
          "internalType": "uint256",
          "name": "index",
          "type": "uint256"
        }
      ],
      "name": "getOwnershipAt",
      "outputs": [
        {
          "components": [
            {
              "internalType": "address",
              "name": "addr",
              "type": "address"
            },
            {
              "internalType": "uint64",
              "name": "startTimestamp",
              "type": "uint64"
            },
            {
              "internalType": "bool",
              "name": "burned",
              "type": "bool"
            },
            {
              "internalType": "uint24",
              "name": "extraData",
              "type": "uint24"
            }
          ],
          "internalType": "struct IERC721AUpgradeable.TokenOwnership",
          "name": "",
          "type": "tuple"
        }
      ],
      "stateMutability": "view",
      "type": "function"
    },
    {
      "inputs": [
        {
          "internalType": "uint256",
          "name": "index",
          "type": "uint256"
        }
      ],
      "name": "getOwnershipOf",
      "outputs": [
        {
          "components": [
            {
              "internalType": "address",
              "name": "addr",
              "type": "address"
            },
            {
              "internalType": "uint64",
              "name": "startTimestamp",
              "type": "uint64"
            },
            {
              "internalType": "bool",
              "name": "burned",
              "type": "bool"
            },
            {
              "internalType": "uint24",
              "name": "extraData",
              "type": "uint24"
            }
          ],
          "internalType": "struct IERC721AUpgradeable.TokenOwnership",
          "name": "",
          "type": "tuple"
        }
      ],
      "stateMutability": "view",
      "type": "function"
    },
    {
      "inputs": [
        {
          "internalType": "uint256",
          "name": "index",
          "type": "uint256"
        }
      ],
      "name": "initializeOwnershipAt",
      "outputs": [],
      "stateMutability": "nonpayable",
      "type": "function"
    },
    {
      "inputs": [
        {
          "internalType": "address",
          "name": "owner",
          "type": "address"
        },
        {
          "internalType": "address",
          "name": "operator",
          "type": "address"
        }
      ],
      "name": "isApprovedForAll",
      "outputs": [
        {
          "internalType": "bool",
          "name": "",
          "type": "bool"
        }
      ],
      "stateMutability": "view",
      "type": "function"
    },
    {
      "inputs": [
        {
          "internalType": "address",
          "name": "to",
          "type": "address"
        },
        {
          "internalType": "uint256",
          "name": "quantity",
          "type": "uint256"
        }
      ],
      "name": "mint",
      "outputs": [],
      "stateMutability": "nonpayable",
      "type": "function"
    },
    {
      "inputs": [],
      "name": "name",
      "outputs": [
        {
          "internalType": "string",
          "name": "",
          "type": "string"
        }
      ],
      "stateMutability": "view",
      "type": "function"
    },
    {
      "inputs": [],
      "name": "nextTokenId",
      "outputs": [
        {
          "internalType": "uint256",
          "name": "",
          "type": "uint256"
        }
      ],
      "stateMutability": "view",
      "type": "function"
    },
    {
      "inputs": [
        {
          "internalType": "address",
          "name": "owner",
          "type": "address"
        }
      ],
      "name": "numberMinted",
      "outputs": [
        {
          "internalType": "uint256",
          "name": "",
          "type": "uint256"
        }
      ],
      "stateMutability": "view",
      "type": "function"
    },
    {
      "inputs": [
        {
          "internalType": "uint256",
          "name": "tokenId",
          "type": "uint256"
        }
      ],
      "name": "ownerOf",
      "outputs": [
        {
          "internalType": "address",
          "name": "",
          "type": "address"
        }
      ],
      "stateMutability": "view",
      "type": "function"
    },
    {
      "inputs": [
        {
          "internalType": "address",
          "name": "to",
          "type": "address"
        },
        {
          "internalType": "uint256",
          "name": "quantity",
          "type": "uint256"
        },
        {
          "internalType": "bytes",
          "name": "_data",
          "type": "bytes"
        }
      ],
      "name": "safeMint",
      "outputs": [],
      "stateMutability": "nonpayable",
      "type": "function"
    },
    {
      "inputs": [
        {
          "internalType": "address",
          "name": "to",
          "type": "address"
        },
        {
          "internalType": "uint256",
          "name": "quantity",
          "type": "uint256"
        }
      ],
      "name": "safeMint",
      "outputs": [],
      "stateMutability": "nonpayable",
      "type": "function"
    },
    {
      "inputs": [
        {
          "internalType": "address",
          "name": "from",
          "type": "address"
        },
        {
          "internalType": "address",
          "name": "to",
          "type": "address"
        },
        {
          "internalType": "uint256",
          "name": "tokenId",
          "type": "uint256"
        }
      ],
      "name": "safeTransferFrom",
      "outputs": [],
      "stateMutability": "payable",
      "type": "function"
    },
    {
      "inputs": [
        {
          "internalType": "address",
          "name": "from",
          "type": "address"
        },
        {
          "internalType": "address",
          "name": "to",
          "type": "address"
        },
        {
          "internalType": "uint256",
          "name": "tokenId",
          "type": "uint256"
        },
        {
          "internalType": "bytes",
          "name": "_data",
          "type": "bytes"
        }
      ],
      "name": "safeTransferFrom",
      "outputs": [],
      "stateMutability": "payable",
      "type": "function"
    },
    {
      "inputs": [
        {
          "internalType": "address",
          "name": "operator",
          "type": "address"
        },
        {
          "internalType": "bool",
          "name": "approved",
          "type": "bool"
        }
      ],
      "name": "setApprovalForAll",
      "outputs": [],
      "stateMutability": "nonpayable",
      "type": "function"
    },
    {
      "inputs": [
        {
          "internalType": "address",
          "name": "owner",
          "type": "address"
        },
        {
          "internalType": "uint64",
          "name": "aux",
          "type": "uint64"
        }
      ],
      "name": "setAux",
      "outputs": [],
      "stateMutability": "nonpayable",
      "type": "function"
    },
    {
      "inputs": [
        {
          "internalType": "uint256",
          "name": "index",
          "type": "uint256"
        },
        {
          "internalType": "uint24",
          "name": "extraData",
          "type": "uint24"
        }
      ],
      "name": "setExtraDataAt",
      "outputs": [],
      "stateMutability": "nonpayable",
      "type": "function"
    },
    {
      "inputs": [
        {
          "internalType": "bytes4",
          "name": "interfaceId",
          "type": "bytes4"
        }
      ],
      "name": "supportsInterface",
      "outputs": [
        {
          "internalType": "bool",
          "name": "",
          "type": "bool"
        }
      ],
      "stateMutability": "view",
      "type": "function"
    },
    {
      "inputs": [],
      "name": "symbol",
      "outputs": [
        {
          "internalType": "string",
          "name": "",
          "type": "string"
        }
      ],
      "stateMutability": "view",
      "type": "function"
    },
    {
      "inputs": [
        {
          "internalType": "uint256",
          "name": "x",
          "type": "uint256"
        }
      ],
      "name": "toString",
      "outputs": [
        {
          "internalType": "string",
          "name": "",
          "type": "string"
        }
      ],
      "stateMutability": "pure",
      "type": "function"
    },
    {
      "inputs": [
        {
          "internalType": "uint256",
          "name": "tokenId",
          "type": "uint256"
        }
      ],
      "name": "tokenURI",
      "outputs": [
        {
          "internalType": "string",
          "name": "",
          "type": "string"
        }
      ],
      "stateMutability": "view",
      "type": "function"
    },
    {
      "inputs": [],
      "name": "totalBurned",
      "outputs": [
        {
          "internalType": "uint256",
          "name": "",
          "type": "uint256"
        }
      ],
      "stateMutability": "view",
      "type": "function"
    },
    {
      "inputs": [],
      "name": "totalMinted",
      "outputs": [
        {
          "internalType": "uint256",
          "name": "",
          "type": "uint256"
        }
      ],
      "stateMutability": "view",
      "type": "function"
    },
    {
      "inputs": [],
      "name": "totalSupply",
      "outputs": [
        {
          "internalType": "uint256",
          "name": "result",
          "type": "uint256"
        }
      ],
      "stateMutability": "view",
      "type": "function"
    },
    {
      "inputs": [
        {
          "internalType": "address",
          "name": "from",
          "type": "address"
        },
        {
          "internalType": "address",
          "name": "to",
          "type": "address"
        },
        {
          "internalType": "uint256",
          "name": "tokenId",
          "type": "uint256"
        }
      ],
      "name": "transferFrom",
      "outputs": [],
      "stateMutability": "payable",
      "type": "function"
    }
  ],
  "bytecode": "0x608060405234801561001057600080fd5b50612d74806100206000396000f3fe6080604052600436106101f95760003560e01c80636c0360eb1161010d578063a22cb465116100a0578063c87b56dd1161006f578063c87b56dd1461071b578063d89135cd14610758578063dc33e68114610783578063e985e9c5146107c0578063f2523633146107fd576101f9565b8063a22cb4651461066e578063a2309ff814610697578063b88d4fde146106c2578063bf0b175e146106de576101f9565b80638832e6e3116100dc5780638832e6e3146105c857806395d89b41146105f15780639fac68cb1461061c578063a144819414610645576101f9565b80636c0360eb1461050c57806370a082311461053757806375794a3c146105745780638529eea61461059f576101f9565b806342842e0e116101905780634f558e791161015f5780634f558e79146103ef57806352d8a4d11461042c57806353b1233d146104695780636352211e146104925780636900a3ae146104cf576101f9565b806342842e0e1461035857806342966c6814610374578063453ab1411461039d5780634b6c5d8c146103c6576101f9565b80630a70b566116101cc5780630a70b566146102bf57806318160ddd146102e857806323b872dd1461031357806340c10f191461032f576101f9565b806301ffc9a7146101fe57806306fdde031461023b578063081812fc14610266578063095ea7b3146102a3575b600080fd5b34801561020a57600080fd5b506102256004803603810190610220919061233e565b61083a565b6040516102329190612386565b60405180910390f35b34801561024757600080fd5b506102506108cc565b60405161025d9190612431565b60405180910390f35b34801561027257600080fd5b5061028d60048036038101906102889190612489565b610967565b60405161029a91906124f7565b60405180910390f35b6102bd60048036038101906102b8919061253e565b6109ce565b005b3480156102cb57600080fd5b506102e660048036038101906102e191906125b9565b6109de565b005b3480156102f457600080fd5b506102fd6109ec565b60405161030a9190612608565b60405180910390f35b61032d60048036038101906103289190612623565b610a54565b005b34801561033b57600080fd5b506103566004803603810190610351919061253e565b610d4b565b005b610372600480360381019061036d9190612623565b610d59565b005b34801561038057600080fd5b5061039b60048036038101906103969190612489565b610d79565b005b3480156103a957600080fd5b506103c460048036038101906103bf91906126b6565b610d85565b005b3480156103d257600080fd5b506103ed60048036038101906103e89190612489565b610d93565b005b3480156103fb57600080fd5b5061041660048036038101906104119190612489565b610e0c565b6040516104239190612386565b60405180910390f35b34801561043857600080fd5b50610453600480360381019061044e9190612489565b610e1e565b6040516104609190612787565b60405180910390f35b34801561047557600080fd5b50610490600480360381019061048b9190612489565b610e36565b005b34801561049e57600080fd5b506104b960048036038101906104b49190612489565b610e42565b6040516104c691906124f7565b60405180910390f35b3480156104db57600080fd5b506104f660048036038101906104f19190612489565b610e54565b6040516105039190612431565b60405180910390f35b34801561051857600080fd5b50610521610e66565b60405161052e9190612431565b60405180910390f35b34801561054357600080fd5b5061055e600480360381019061055991906127a2565b610e75565b60405161056b9190612608565b60405180910390f35b34801561058057600080fd5b50610589610f15565b6040516105969190612608565b60405180910390f35b3480156105ab57600080fd5b506105c660048036038101906105c1919061253e565b610f24565b005b3480156105d457600080fd5b506105ef60048036038101906105ea9190612904565b610f32565b005b3480156105fd57600080fd5b50610606610f42565b6040516106139190612431565b60405180910390f35b34801561062857600080fd5b50610643600480360381019061063e919061299f565b610fdd565b005b34801561065157600080fd5b5061066c6004803603810190610667919061253e565b610feb565b005b34801561067a57600080fd5b50610695600480360381019061069091906129df565b610ff9565b005b3480156106a357600080fd5b506106ac61110d565b6040516106b99190612608565b60405180910390f35b6106dc60048036038101906106d79190612a1f565b61111c565b005b3480156106ea57600080fd5b50610705600480360381019061070091906127a2565b61116e565b6040516107129190612ab1565b60405180910390f35b34801561072757600080fd5b50610742600480360381019061073d9190612489565b611180565b60405161074f9190612431565b60405180910390f35b34801561076457600080fd5b5061076d6111fd565b60405161077a9190612608565b60405180910390f35b34801561078f57600080fd5b506107aa60048036038101906107a591906127a2565b61120c565b6040516107b79190612608565b60405180910390f35b3480156107cc57600080fd5b506107e760048036038101906107e29190612acc565b61121e565b6040516107f49190612386565b60405180910390f35b34801561080957600080fd5b50610824600480360381019061081f9190612489565b6112bb565b6040516108319190612787565b60405180910390f35b60006301ffc9a760e01b827bffffffffffffffffffffffffffffffffffffffffffffffffffffffff1916148061089557506380ac58cd60e01b827bffffffffffffffffffffffffffffffffffffffffffffffffffffffff1916145b806108c55750635b5e139f60e01b827bffffffffffffffffffffffffffffffffffffffffffffffffffffffff1916145b9050919050565b60606108d66112d3565b60020180546108e490612b3b565b80601f016020809104026020016040519081016040528092919081815260200182805461091090612b3b565b801561095d5780601f106109325761010080835404028352916020019161095d565b820191906000526020600020905b81548152906001019060200180831161094057829003601f168201915b5050505050905090565b600061097282611300565b6109875761098663cf4700e460e01b6113c7565b5b61098f6112d3565b600601600083815260200190815260200160002060000160009054906101000a900473ffffffffffffffffffffffffffffffffffffffff169050919050565b6109da828260016113d1565b5050565b6109e88282611509565b5050565b60006109f6611596565b6109fe6112d3565b60010154610a0a6112d3565b60000154030390507fffffffffffffffffffffffffffffffffffffffffffffffffffffffffffffffff610a3b61159b565b14610a5157610a486112d3565b60080154810190505b90565b6000610a5f826115c3565b905073ffffffffffffffffffffffffffffffffffffffff8473ffffffffffffffffffffffffffffffffffffffff161693508373ffffffffffffffffffffffffffffffffffffffff168173ffffffffffffffffffffffffffffffffffffffff1614610ad457610ad363a114810060e01b6113c7565b5b600080610ae0846116f7565b91509150610af68187610af1611727565b61172f565b610b2157610b0b86610b06611727565b61121e565b610b2057610b1f6359c896be60e01b6113c7565b5b5b610b2e8686866001611773565b8015610b3957600082555b610b416112d3565b60050160008773ffffffffffffffffffffffffffffffffffffffff1673ffffffffffffffffffffffffffffffffffffffff168152602001908152602001600020600081546001900391905081905550610b986112d3565b60050160008673ffffffffffffffffffffffffffffffffffffffff1673ffffffffffffffffffffffffffffffffffffffff1681526020019081526020016000206000815460010191905081905550610c1985610bf5888887611779565b7c0200000000000000000000000000000000000000000000000000000000176117a1565b610c216112d3565b60040160008681526020019081526020016000208190555060007c0200000000000000000000000000000000000000000000000000000000841603610cc35760006001850190506000610c726112d3565b60040160008381526020019081526020016000205403610cc157610c946112d3565b600001548114610cc05783610ca76112d3565b6004016000838152602001908152602001600020819055505b5b505b600073ffffffffffffffffffffffffffffffffffffffff8673ffffffffffffffffffffffffffffffffffffffff161690508481887fddf252ad1be2c89b69c2b068fc378daa952ba7f163c4a11628f55a4df523b3ef600080a460008103610d3557610d3463ea553b3460e01b6113c7565b5b610d4287878760016117cc565b50505050505050565b610d5582826117d2565b5050565b610d748383836040518060200160405280600081525061111c565b505050565b610d828161197d565b50565b610d8f828261198b565b5050565b60007f2569078dfb4b0305704d3008e7403993ae9601b85f7ae5e742de3de8f8011c40905060007c01000000000000000000000000000000000000000000000000000000009050600460205282600052604060002081815417815560048301602052836000526040600020905081815417815550505050565b6000610e1782611300565b9050919050565b610e26612283565b610e2f82611a53565b9050919050565b610e3f81611a73565b50565b6000610e4d826115c3565b9050919050565b6060610e5f82611ac4565b9050919050565b6060610e70611b14565b905090565b60008073ffffffffffffffffffffffffffffffffffffffff168273ffffffffffffffffffffffffffffffffffffffff1603610ebb57610eba638f4eb60460e01b6113c7565b5b67ffffffffffffffff610ecc6112d3565b60050160008473ffffffffffffffffffffffffffffffffffffffff1673ffffffffffffffffffffffffffffffffffffffff16815260200190815260200160002054169050919050565b6000610f1f611b2b565b905090565b610f2e8282611b3e565b5050565b610f3d838383611b4e565b505050565b6060610f4c6112d3565b6003018054610f5a90612b3b565b80601f0160208091040260200160405190810160405280929190818152602001828054610f8690612b3b565b8015610fd35780601f10610fa857610100808354040283529160200191610fd3565b820191906000526020600020905b815481529060010190602001808311610fb657829003601f168201915b5050505050905090565b610fe78282611bdd565b5050565b610ff58282611e44565b5050565b806110026112d3565b600701600061100f611727565b73ffffffffffffffffffffffffffffffffffffffff1673ffffffffffffffffffffffffffffffffffffffff16815260200190815260200160002060008473ffffffffffffffffffffffffffffffffffffffff1673ffffffffffffffffffffffffffffffffffffffff16815260200190815260200160002060006101000a81548160ff0219169083151502179055508173ffffffffffffffffffffffffffffffffffffffff166110bc611727565b73ffffffffffffffffffffffffffffffffffffffff167f17307eab39ab6107e8899845ad3d59bd9653f200f220920489ca2b5937696c31836040516111019190612386565b60405180910390a35050565b6000611117611e62565b905090565b611127848484610a54565b60008373ffffffffffffffffffffffffffffffffffffffff163b146111685761115284848484611ebd565b6111675761116663d1a57ed660e01b6113c7565b5b5b50505050565b600061117982611fec565b9050919050565b606061118b82611300565b6111a05761119f63a14c4b5060e01b6113c7565b5b60006111aa611b14565b905060008151036111ca57604051806020016040528060008152506111f5565b806111d484611ac4565b6040516020016111e5929190612ba8565b6040516020818303038152906040525b915050919050565b6000611207612042565b905090565b600061121782612055565b9050919050565b60006112286112d3565b60070160008473ffffffffffffffffffffffffffffffffffffffff1673ffffffffffffffffffffffffffffffffffffffff16815260200190815260200160002060008373ffffffffffffffffffffffffffffffffffffffff1673ffffffffffffffffffffffffffffffffffffffff16815260200190815260200160002060009054906101000a900460ff16905092915050565b6112c3612283565b6112cc826120b5565b9050919050565b6000807f2569078dfb4b0305704d3008e7403993ae9601b85f7ae5e742de3de8f8011c4090508091505090565b60008161130b611596565b116113c15761131861159b565b82111561134b5761134461132a6112d3565b6004016000848152602001908152602001600020546120e9565b90506113c2565b6113536112d3565b600001548210156113c05760005b600061136b6112d3565b60040160008581526020019081526020016000205491508103611399578261139290612bfb565b9250611361565b60007c01000000000000000000000000000000000000000000000000000000008216149150505b5b5b919050565b8060005260046000fd5b60006113dc83610e42565b905081801561141e57508073ffffffffffffffffffffffffffffffffffffffff16611405611727565b73ffffffffffffffffffffffffffffffffffffffff1614155b1561144a576114348161142f611727565b61121e565b6114495761144863cfb3b94260e01b6113c7565b5b5b836114536112d3565b600601600085815260200190815260200160002060000160006101000a81548173ffffffffffffffffffffffffffffffffffffffff021916908373ffffffffffffffffffffffffffffffffffffffff160217905550828473ffffffffffffffffffffffffffffffffffffffff168273ffffffffffffffffffffffffffffffffffffffff167f8c5be1e5ebec7d5bd14f71427d1e84f3dd0314c0f7b2291e5b200ac8c7c3b92560405160405180910390a450505050565b60006115136112d3565b6004016000848152602001908152602001600020549050600081036115425761154162d5815360e01b6113c7565b5b600082905060e881901b7cffffffffffffffffffffffffffffffffffffffffffffffffffffffffff8316179150816115786112d3565b60040160008681526020019081526020016000208190555050505050565b600090565b60007fffffffffffffffffffffffffffffffffffffffffffffffffffffffffffffffff905090565b6000816115ce611596565b116116e1576115db6112d3565b60040160008381526020019081526020016000205490506115fa61159b565b82111561161f5761160a816120e9565b6116f25761161e63df2d9b4260e01b6113c7565b5b600081036116b85761162f6112d3565b60000154821061164a5761164963df2d9b4260e01b6113c7565b5b5b6116536112d3565b60040160008360019003935083815260200190815260200160002054905060008103156116b35760007c0100000000000000000000000000000000000000000000000000000000821603156116f2576116b263df2d9b4260e01b6113c7565b5b61164b565b60007c0100000000000000000000000000000000000000000000000000000000821603156116f2575b6116f163df2d9b4260e01b6113c7565b5b919050565b60008060006117046112d3565b600601600085815260200190815260200160002090508092508254915050915091565b600033905090565b600073ffffffffffffffffffffffffffffffffffffffff8316925073ffffffffffffffffffffffffffffffffffffffff821691508382148383141790509392505050565b50505050565b60008060e883901c905060e861179086868461212a565b62ffffff16901b9150509392505050565b600073ffffffffffffffffffffffffffffffffffffffff83169250814260a01b178317905092915050565b50505050565b60006117dc6112d3565b600001549050600082036117fb576117fa63b562e8dd60e01b6113c7565b5b6118086000848385611773565b611828836118196000866000611779565b611822856121bd565b176117a1565b6118306112d3565b600401600083815260200190815260200160002081905550600160406001901b17820261185b6112d3565b60050160008573ffffffffffffffffffffffffffffffffffffffff1673ffffffffffffffffffffffffffffffffffffffff16815260200190815260200160002060008282540192505081905550600073ffffffffffffffffffffffffffffffffffffffff8473ffffffffffffffffffffffffffffffffffffffff16169050600081036118f2576118f1632e07630060e01b6113c7565b5b60008383019050600083905061190661159b565b600183031115611921576119206381647e3a60e01b6113c7565b5b5b808360007fddf252ad1be2c89b69c2b068fc378daa952ba7f163c4a11628f55a4df523b3ef600080a481816001019150810361192257816119616112d3565b6000018190555050505061197860008483856117cc565b505050565b611988816000611bdd565b50565b60006119956112d3565b60050160008473ffffffffffffffffffffffffffffffffffffffff1673ffffffffffffffffffffffffffffffffffffffff168152602001908152602001600020549050600082905060c081901b77ffffffffffffffffffffffffffffffffffffffffffffffff831617915081611a096112d3565b60050160008673ffffffffffffffffffffffffffffffffffffffff1673ffffffffffffffffffffffffffffffffffffffff1681526020019081526020016000208190555050505050565b611a5b612283565b611a6c611a67836115c3565b6121cd565b9050919050565b6000611a7d6112d3565b60040160008381526020019081526020016000205403611ac157611aa0816115c3565b611aa86112d3565b6004016000838152602001908152602001600020819055505b50565b606060a060405101806040526020810391506000825281835b600115611aff57600184039350600a81066030018453600a8104905080611add575b50828103602084039350808452505050919050565b606060405180602001604052806000815250905090565b6000611b356112d3565b60000154905090565b611b4a828260006113d1565b5050565b611b5883836117d2565b60008373ffffffffffffffffffffffffffffffffffffffff163b14611bd8576000611b816112d3565b600001549050600083820390505b611ba26000868380600101945086611ebd565b611bb757611bb663d1a57ed660e01b6113c7565b5b818110611b8f5781611bc76112d3565b6000015414611bd557600080fd5b50505b505050565b6000611be8836115c3565b90506000819050600080611bfb866116f7565b915091508415611c4357611c178184611c12611727565b61172f565b611c4257611c2c83611c27611727565b61121e565b611c4157611c406359c896be60e01b6113c7565b5b5b5b611c51836000886001611773565b8015611c5c57600082555b600160806001901b03611c6d6112d3565b60050160008573ffffffffffffffffffffffffffffffffffffffff1673ffffffffffffffffffffffffffffffffffffffff16815260200190815260200160002060008282540192505081905550611d0d83611cca85600088611779565b7c02000000000000000000000000000000000000000000000000000000007c010000000000000000000000000000000000000000000000000000000017176117a1565b611d156112d3565b60040160008881526020019081526020016000208190555060007c0200000000000000000000000000000000000000000000000000000000851603611db75760006001870190506000611d666112d3565b60040160008381526020019081526020016000205403611db557611d886112d3565b600001548114611db45784611d9b6112d3565b6004016000838152602001908152602001600020819055505b5b505b85600073ffffffffffffffffffffffffffffffffffffffff168473ffffffffffffffffffffffffffffffffffffffff167fddf252ad1be2c89b69c2b068fc378daa952ba7f163c4a11628f55a4df523b3ef60405160405180910390a4611e218360008860016117cc565b611e296112d3565b60010160008154809291906001019190505550505050505050565b611e5e828260405180602001604052806000815250611b4e565b5050565b6000611e6c611596565b611e746112d3565b600001540390507fffffffffffffffffffffffffffffffffffffffffffffffffffffffffffffffff611ea461159b565b14611eba57611eb16112d3565b60080154810190505b90565b60008373ffffffffffffffffffffffffffffffffffffffff1663150b7a02611ee3611727565b8786866040518563ffffffff1660e01b8152600401611f059493929190612c79565b6020604051808303816000875af1925050508015611f4157506040513d601f19601f82011682018060405250810190611f3e9190612cda565b60015b611f99573d8060008114611f71576040519150601f19603f3d011682016040523d82523d6000602084013e611f76565b606091505b506000815103611f9157611f9063d1a57ed660e01b6113c7565b5b805181602001fd5b63150b7a0260e01b7bffffffffffffffffffffffffffffffffffffffffffffffffffffffff1916817bffffffffffffffffffffffffffffffffffffffffffffffffffffffff191614915050949350505050565b600060c0611ff86112d3565b60050160008473ffffffffffffffffffffffffffffffffffffffff1673ffffffffffffffffffffffffffffffffffffffff16815260200190815260200160002054901c9050919050565b600061204c6112d3565b60010154905090565b600067ffffffffffffffff604061206a6112d3565b60050160008573ffffffffffffffffffffffffffffffffffffffff1673ffffffffffffffffffffffffffffffffffffffff16815260200190815260200160002054901c169050919050565b6120bd612283565b6120e26120c86112d3565b6004016000848152602001908152602001600020546121cd565b9050919050565b60007c0100000000000000000000000000000000000000000000000000000000821673ffffffffffffffffffffffffffffffffffffffff8316119050919050565b60008073ffffffffffffffffffffffffffffffffffffffff168473ffffffffffffffffffffffffffffffffffffffff160361216857602a90506121b6565b600073ffffffffffffffffffffffffffffffffffffffff168373ffffffffffffffffffffffffffffffffffffffff16036121a65761053990506121b6565b6001826121b39190612d07565b90505b9392505050565b60006001821460e11b9050919050565b6121d5612283565b81816000019073ffffffffffffffffffffffffffffffffffffffff16908173ffffffffffffffffffffffffffffffffffffffff168152505060a082901c816020019067ffffffffffffffff16908167ffffffffffffffff168152505060007c01000000000000000000000000000000000000000000000000000000008316141581604001901515908115158152505060e882901c816060019062ffffff16908162ffffff1681525050919050565b6040518060800160405280600073ffffffffffffffffffffffffffffffffffffffff168152602001600067ffffffffffffffff168152602001600015158152602001600062ffffff1681525090565b6000604051905090565b600080fd5b600080fd5b60007fffffffff0000000000000000000000000000000000000000000000000000000082169050919050565b61231b816122e6565b811461232657600080fd5b50565b60008135905061233881612312565b92915050565b600060208284031215612354576123536122dc565b5b600061236284828501612329565b91505092915050565b60008115159050919050565b6123808161236b565b82525050565b600060208201905061239b6000830184612377565b92915050565b600081519050919050565b600082825260208201905092915050565b60005b838110156123db5780820151818401526020810190506123c0565b60008484015250505050565b6000601f19601f8301169050919050565b6000612403826123a1565b61240d81856123ac565b935061241d8185602086016123bd565b612426816123e7565b840191505092915050565b6000602082019050818103600083015261244b81846123f8565b905092915050565b6000819050919050565b61246681612453565b811461247157600080fd5b50565b6000813590506124838161245d565b92915050565b60006020828403121561249f5761249e6122dc565b5b60006124ad84828501612474565b91505092915050565b600073ffffffffffffffffffffffffffffffffffffffff82169050919050565b60006124e1826124b6565b9050919050565b6124f1816124d6565b82525050565b600060208201905061250c60008301846124e8565b92915050565b61251b816124d6565b811461252657600080fd5b50565b60008135905061253881612512565b92915050565b60008060408385031215612555576125546122dc565b5b600061256385828601612529565b925050602061257485828601612474565b9150509250929050565b600062ffffff82169050919050565b6125968161257e565b81146125a157600080fd5b50565b6000813590506125b38161258d565b92915050565b600080604083850312156125d0576125cf6122dc565b5b60006125de85828601612474565b92505060206125ef858286016125a4565b9150509250929050565b61260281612453565b82525050565b600060208201905061261d60008301846125f9565b92915050565b60008060006060848603121561263c5761263b6122dc565b5b600061264a86828701612529565b935050602061265b86828701612529565b925050604061266c86828701612474565b9150509250925092565b600067ffffffffffffffff82169050919050565b61269381612676565b811461269e57600080fd5b50565b6000813590506126b08161268a565b92915050565b600080604083850312156126cd576126cc6122dc565b5b60006126db85828601612529565b92505060206126ec858286016126a1565b9150509250929050565b6126ff816124d6565b82525050565b61270e81612676565b82525050565b61271d8161236b565b82525050565b61272c8161257e565b82525050565b60808201600082015161274860008501826126f6565b50602082015161275b6020850182612705565b50604082015161276e6040850182612714565b5060608201516127816060850182612723565b50505050565b600060808201905061279c6000830184612732565b92915050565b6000602082840312156127b8576127b76122dc565b5b60006127c684828501612529565b91505092915050565b600080fd5b600080fd5b7f4e487b7100000000000000000000000000000000000000000000000000000000600052604160045260246000fd5b612811826123e7565b810181811067ffffffffffffffff821117156128305761282f6127d9565b5b80604052505050565b60006128436122d2565b905061284f8282612808565b919050565b600067ffffffffffffffff82111561286f5761286e6127d9565b5b612878826123e7565b9050602081019050919050565b82818337600083830152505050565b60006128a76128a284612854565b612839565b9050828152602081018484840111156128c3576128c26127d4565b5b6128ce848285612885565b509392505050565b600082601f8301126128eb576128ea6127cf565b5b81356128fb848260208601612894565b91505092915050565b60008060006060848603121561291d5761291c6122dc565b5b600061292b86828701612529565b935050602061293c86828701612474565b925050604084013567ffffffffffffffff81111561295d5761295c6122e1565b5b612969868287016128d6565b9150509250925092565b61297c8161236b565b811461298757600080fd5b50565b60008135905061299981612973565b92915050565b600080604083850312156129b6576129b56122dc565b5b60006129c485828601612474565b92505060206129d58582860161298a565b9150509250929050565b600080604083850312156129f6576129f56122dc565b5b6000612a0485828601612529565b9250506020612a158582860161298a565b9150509250929050565b60008060008060808587031215612a3957612a386122dc565b5b6000612a4787828801612529565b9450506020612a5887828801612529565b9350506040612a6987828801612474565b925050606085013567ffffffffffffffff811115612a8a57612a896122e1565b5b612a96878288016128d6565b91505092959194509250565b612aab81612676565b82525050565b6000602082019050612ac66000830184612aa2565b92915050565b60008060408385031215612ae357612ae26122dc565b5b6000612af185828601612529565b9250506020612b0285828601612529565b9150509250929050565b7f4e487b7100000000000000000000000000000000000000000000000000000000600052602260045260246000fd5b60006002820490506001821680612b5357607f821691505b602082108103612b6657612b65612b0c565b5b50919050565b600081905092915050565b6000612b82826123a1565b612b8c8185612b6c565b9350612b9c8185602086016123bd565b80840191505092915050565b6000612bb48285612b77565b9150612bc08284612b77565b91508190509392505050565b7f4e487b7100000000000000000000000000000000000000000000000000000000600052601160045260246000fd5b6000612c0682612453565b915060008203612c1957612c18612bcc565b5b600182039050919050565b600081519050919050565b600082825260208201905092915050565b6000612c4b82612c24565b612c558185612c2f565b9350612c658185602086016123bd565b612c6e816123e7565b840191505092915050565b6000608082019050612c8e60008301876124e8565b612c9b60208301866124e8565b612ca860408301856125f9565b8181036060830152612cba8184612c40565b905095945050505050565b600081519050612cd481612312565b92915050565b600060208284031215612cf057612cef6122dc565b5b6000612cfe84828501612cc5565b91505092915050565b6000612d128261257e565b9150612d1d8361257e565b9250828201905062ffffff811115612d3857612d37612bcc565b5b9291505056fea26469706673582212203eedcff9271df1825d6b3493f0087531c189e902a15bec1caab3fec405cef57264736f6c63430008180033",
  "linkReferences": {},
  "deployedLinkReferences": {}
}