{
  "_format": "hh-sol-artifact-1",
  "contractName": "ERC721ATransferCounterMockUpgradeable",
  "sourceName": "contracts/ERC721A-Upgradeable/contracts/mocks/ERC721ATransferCounterMockUpgradeable.sol",
  "abi": [
    {
      "inputs": [],
      "name": "ApprovalCallerNotOwnerNorApproved",
      "type": "error"
    },
    {
      "inputs": [],
      "name": "ApprovalQueryForNonexistentToken",
      "type": "error"
    },
    {
      "inputs": [],
      "name": "BalanceQueryForZeroAddress",
      "type": "error"
    },
    {
      "inputs": [],
      "name": "MintERC2309QuantityExceedsLimit",
      "type": "error"
    },
    {
      "inputs": [],
      "name": "MintToZeroAddress",
      "type": "error"
    },
    {
      "inputs": [],
      "name": "MintZeroQuantity",
      "type": "error"
    },
    {
      "inputs": [],
      "name": "NotCompatibleWithSpotMints",
      "type": "error"
    },
    {
      "inputs": [],
      "name": "OwnerQueryForNonexistentToken",
      "type": "error"
    },
    {
      "inputs": [],
      "name": "OwnershipNotInitializedForExtraData",
      "type": "error"
    },
    {
      "inputs": [],
      "name": "SequentialMintExceedsLimit",
      "type": "error"
    },
    {
      "inputs": [],
      "name": "SequentialUpToTooSmall",
      "type": "error"
    },
    {
      "inputs": [],
      "name": "SpotMintTokenIdTooSmall",
      "type": "error"
    },
    {
      "inputs": [],
      "name": "TokenAlreadyExists",
      "type": "error"
    },
    {
      "inputs": [],
      "name": "TransferCallerNotOwnerNorApproved",
      "type": "error"
    },
    {
      "inputs": [],
      "name": "TransferFromIncorrectOwner",
      "type": "error"
    },
    {
      "inputs": [],
      "name": "TransferToNonERC721ReceiverImplementer",
      "type": "error"
    },
    {
      "inputs": [],
      "name": "TransferToZeroAddress",
      "type": "error"
    },
    {
      "inputs": [],
      "name": "URIQueryForNonexistentToken",
      "type": "error"
    },
    {
      "anonymous": false,
      "inputs": [
        {
          "indexed": true,
          "internalType": "address",
          "name": "owner",
          "type": "address"
        },
        {
          "indexed": true,
          "internalType": "address",
          "name": "approved",
          "type": "address"
        },
        {
          "indexed": true,
          "internalType": "uint256",
          "name": "tokenId",
          "type": "uint256"
        }
      ],
      "name": "Approval",
      "type": "event"
    },
    {
      "anonymous": false,
      "inputs": [
        {
          "indexed": true,
          "internalType": "address",
          "name": "owner",
          "type": "address"
        },
        {
          "indexed": true,
          "internalType": "address",
          "name": "operator",
          "type": "address"
        },
        {
          "indexed": false,
          "internalType": "bool",
          "name": "approved",
          "type": "bool"
        }
      ],
      "name": "ApprovalForAll",
      "type": "event"
    },
    {
      "anonymous": false,
      "inputs": [
        {
          "indexed": true,
          "internalType": "uint256",
          "name": "fromTokenId",
          "type": "uint256"
        },
        {
          "indexed": false,
          "internalType": "uint256",
          "name": "toTokenId",
          "type": "uint256"
        },
        {
          "indexed": true,
          "internalType": "address",
          "name": "from",
          "type": "address"
        },
        {
          "indexed": true,
          "internalType": "address",
          "name": "to",
          "type": "address"
        }
      ],
      "name": "ConsecutiveTransfer",
      "type": "event"
    },
    {
      "anonymous": false,
      "inputs": [
        {
          "indexed": true,
          "internalType": "address",
          "name": "from",
          "type": "address"
        },
        {
          "indexed": true,
          "internalType": "address",
          "name": "to",
          "type": "address"
        },
        {
          "indexed": true,
          "internalType": "uint256",
          "name": "tokenId",
          "type": "uint256"
        }
      ],
      "name": "Transfer",
      "type": "event"
    },
    {
      "inputs": [
        {
          "internalType": "address",
          "name": "to",
          "type": "address"
        },
        {
          "internalType": "uint256",
          "name": "tokenId",
          "type": "uint256"
        }
      ],
      "name": "approve",
      "outputs": [],
      "stateMutability": "payable",
      "type": "function"
    },
    {
      "inputs": [
        {
          "internalType": "address",
          "name": "owner",
          "type": "address"
        }
      ],
      "name": "balanceOf",
      "outputs": [
        {
          "internalType": "uint256",
          "name": "",
          "type": "uint256"
        }
      ],
      "stateMutability": "view",
      "type": "function"
    },
    {
      "inputs": [],
      "name": "baseURI",
      "outputs": [
        {
          "internalType": "string",
          "name": "",
          "type": "string"
        }
      ],
      "stateMutability": "view",
      "type": "function"
    },
    {
      "inputs": [
        {
          "internalType": "uint256",
          "name": "tokenId",
          "type": "uint256"
        }
      ],
      "name": "burn",
      "outputs": [],
      "stateMutability": "nonpayable",
      "type": "function"
    },
    {
      "inputs": [
        {
          "internalType": "uint256",
          "name": "tokenId",
          "type": "uint256"
        },
        {
          "internalType": "bool",
          "name": "approvalCheck",
          "type": "bool"
        }
      ],
      "name": "burn",
      "outputs": [],
      "stateMutability": "nonpayable",
      "type": "function"
    },
    {
      "inputs": [
        {
          "internalType": "address",
          "name": "to",
          "type": "address"
        },
        {
          "internalType": "uint256",
          "name": "tokenId",
          "type": "uint256"
        }
      ],
      "name": "directApprove",
      "outputs": [],
      "stateMutability": "nonpayable",
      "type": "function"
    },
    {
      "inputs": [
        {
          "internalType": "uint256",
          "name": "index",
          "type": "uint256"
        }
      ],
      "name": "directSetBurnBit",
      "outputs": [],
      "stateMutability": "nonpayable",
      "type": "function"
    },
    {
      "inputs": [
        {
          "internalType": "uint256",
          "name": "tokenId",
          "type": "uint256"
        }
      ],
      "name": "exists",
      "outputs": [
        {
          "internalType": "bool",
          "name": "",
          "type": "bool"
        }
      ],
      "stateMutability": "view",
      "type": "function"
    },
    {
      "inputs": [
        {
          "internalType": "uint256",
          "name": "tokenId",
          "type": "uint256"
        }
      ],
      "name": "getApproved",
      "outputs": [
        {
          "internalType": "address",
          "name": "",
          "type": "address"
        }
      ],
      "stateMutability": "view",
      "type": "function"
    },
    {
      "inputs": [
        {
          "internalType": "address",
          "name": "owner",
          "type": "address"
        }
      ],
      "name": "getAux",
      "outputs": [
        {
          "internalType": "uint64",
          "name": "",
          "type": "uint64"
        }
      ],
      "stateMutability": "view",
      "type": "function"
    },
    {
      "inputs": [
        {
          "internalType": "uint256",
          "name": "index",
          "type": "uint256"
        }
      ],
      "name": "getOwnershipAt",
      "outputs": [
        {
          "components": [
            {
              "internalType": "address",
              "name": "addr",
              "type": "address"
            },
            {
              "internalType": "uint64",
              "name": "startTimestamp",
              "type": "uint64"
            },
            {
              "internalType": "bool",
              "name": "burned",
              "type": "bool"
            },
            {
              "internalType": "uint24",
              "name": "extraData",
              "type": "uint24"
            }
          ],
          "internalType": "struct IERC721AUpgradeable.TokenOwnership",
          "name": "",
          "type": "tuple"
        }
      ],
      "stateMutability": "view",
      "type": "function"
    },
    {
      "inputs": [
        {
          "internalType": "uint256",
          "name": "index",
          "type": "uint256"
        }
      ],
      "name": "getOwnershipOf",
      "outputs": [
        {
          "components": [
            {
              "internalType": "address",
              "name": "addr",
              "type": "address"
            },
            {
              "internalType": "uint64",
              "name": "startTimestamp",
              "type": "uint64"
            },
            {
              "internalType": "bool",
              "name": "burned",
              "type": "bool"
            },
            {
              "internalType": "uint24",
              "name": "extraData",
              "type": "uint24"
            }
          ],
          "internalType": "struct IERC721AUpgradeable.TokenOwnership",
          "name": "",
          "type": "tuple"
        }
      ],
      "stateMutability": "view",
      "type": "function"
    },
    {
      "inputs": [
        {
          "internalType": "uint256",
          "name": "index",
          "type": "uint256"
        }
      ],
      "name": "initializeOwnershipAt",
      "outputs": [],
      "stateMutability": "nonpayable",
      "type": "function"
    },
    {
      "inputs": [
        {
          "internalType": "address",
          "name": "owner",
          "type": "address"
        },
        {
          "internalType": "address",
          "name": "operator",
          "type": "address"
        }
      ],
      "name": "isApprovedForAll",
      "outputs": [
        {
          "internalType": "bool",
          "name": "",
          "type": "bool"
        }
      ],
      "stateMutability": "view",
      "type": "function"
    },
    {
      "inputs": [
        {
          "internalType": "address",
          "name": "to",
          "type": "address"
        },
        {
          "internalType": "uint256",
          "name": "quantity",
          "type": "uint256"
        }
      ],
      "name": "mint",
      "outputs": [],
      "stateMutability": "nonpayable",
      "type": "function"
    },
    {
      "inputs": [],
      "name": "name",
      "outputs": [
        {
          "internalType": "string",
          "name": "",
          "type": "string"
        }
      ],
      "stateMutability": "view",
      "type": "function"
    },
    {
      "inputs": [],
      "name": "nextTokenId",
      "outputs": [
        {
          "internalType": "uint256",
          "name": "",
          "type": "uint256"
        }
      ],
      "stateMutability": "view",
      "type": "function"
    },
    {
      "inputs": [
        {
          "internalType": "address",
          "name": "owner",
          "type": "address"
        }
      ],
      "name": "numberMinted",
      "outputs": [
        {
          "internalType": "uint256",
          "name": "",
          "type": "uint256"
        }
      ],
      "stateMutability": "view",
      "type": "function"
    },
    {
      "inputs": [
        {
          "internalType": "uint256",
          "name": "tokenId",
          "type": "uint256"
        }
      ],
      "name": "ownerOf",
      "outputs": [
        {
          "internalType": "address",
          "name": "",
          "type": "address"
        }
      ],
      "stateMutability": "view",
      "type": "function"
    },
    {
      "inputs": [
        {
          "internalType": "address",
          "name": "to",
          "type": "address"
        },
        {
          "internalType": "uint256",
          "name": "quantity",
          "type": "uint256"
        },
        {
          "internalType": "bytes",
          "name": "_data",
          "type": "bytes"
        }
      ],
      "name": "safeMint",
      "outputs": [],
      "stateMutability": "nonpayable",
      "type": "function"
    },
    {
      "inputs": [
        {
          "internalType": "address",
          "name": "to",
          "type": "address"
        },
        {
          "internalType": "uint256",
          "name": "quantity",
          "type": "uint256"
        }
      ],
      "name": "safeMint",
      "outputs": [],
      "stateMutability": "nonpayable",
      "type": "function"
    },
    {
      "inputs": [
        {
          "internalType": "address",
          "name": "from",
          "type": "address"
        },
        {
          "internalType": "address",
          "name": "to",
          "type": "address"
        },
        {
          "internalType": "uint256",
          "name": "tokenId",
          "type": "uint256"
        }
      ],
      "name": "safeTransferFrom",
      "outputs": [],
      "stateMutability": "payable",
      "type": "function"
    },
    {
      "inputs": [
        {
          "internalType": "address",
          "name": "from",
          "type": "address"
        },
        {
          "internalType": "address",
          "name": "to",
          "type": "address"
        },
        {
          "internalType": "uint256",
          "name": "tokenId",
          "type": "uint256"
        },
        {
          "internalType": "bytes",
          "name": "_data",
          "type": "bytes"
        }
      ],
      "name": "safeTransferFrom",
      "outputs": [],
      "stateMutability": "payable",
      "type": "function"
    },
    {
      "inputs": [
        {
          "internalType": "address",
          "name": "operator",
          "type": "address"
        },
        {
          "internalType": "bool",
          "name": "approved",
          "type": "bool"
        }
      ],
      "name": "setApprovalForAll",
      "outputs": [],
      "stateMutability": "nonpayable",
      "type": "function"
    },
    {
      "inputs": [
        {
          "internalType": "address",
          "name": "owner",
          "type": "address"
        },
        {
          "internalType": "uint64",
          "name": "aux",
          "type": "uint64"
        }
      ],
      "name": "setAux",
      "outputs": [],
      "stateMutability": "nonpayable",
      "type": "function"
    },
    {
      "inputs": [
        {
          "internalType": "uint256",
          "name": "index",
          "type": "uint256"
        },
        {
          "internalType": "uint24",
          "name": "extraData",
          "type": "uint24"
        }
      ],
      "name": "setExtraDataAt",
      "outputs": [],
      "stateMutability": "nonpayable",
      "type": "function"
    },
    {
      "inputs": [
        {
          "internalType": "bytes4",
          "name": "interfaceId",
          "type": "bytes4"
        }
      ],
      "name": "supportsInterface",
      "outputs": [
        {
          "internalType": "bool",
          "name": "",
          "type": "bool"
        }
      ],
      "stateMutability": "view",
      "type": "function"
    },
    {
      "inputs": [],
      "name": "symbol",
      "outputs": [
        {
          "internalType": "string",
          "name": "",
          "type": "string"
        }
      ],
      "stateMutability": "view",
      "type": "function"
    },
    {
      "inputs": [
        {
          "internalType": "uint256",
          "name": "x",
          "type": "uint256"
        }
      ],
      "name": "toString",
      "outputs": [
        {
          "internalType": "string",
          "name": "",
          "type": "string"
        }
      ],
      "stateMutability": "pure",
      "type": "function"
    },
    {
      "inputs": [
        {
          "internalType": "uint256",
          "name": "tokenId",
          "type": "uint256"
        }
      ],
      "name": "tokenURI",
      "outputs": [
        {
          "internalType": "string",
          "name": "",
          "type": "string"
        }
      ],
      "stateMutability": "view",
      "type": "function"
    },
    {
      "inputs": [],
      "name": "totalBurned",
      "outputs": [
        {
          "internalType": "uint256",
          "name": "",
          "type": "uint256"
        }
      ],
      "stateMutability": "view",
      "type": "function"
    },
    {
      "inputs": [],
      "name": "totalMinted",
      "outputs": [
        {
          "internalType": "uint256",
          "name": "",
          "type": "uint256"
        }
      ],
      "stateMutability": "view",
      "type": "function"
    },
    {
      "inputs": [],
      "name": "totalSupply",
      "outputs": [
        {
          "internalType": "uint256",
          "name": "result",
          "type": "uint256"
        }
      ],
      "stateMutability": "view",
      "type": "function"
    },
    {
      "inputs": [
        {
          "internalType": "address",
          "name": "from",
          "type": "address"
        },
        {
          "internalType": "address",
          "name": "to",
          "type": "address"
        },
        {
          "internalType": "uint256",
          "name": "tokenId",
          "type": "uint256"
        }
      ],
      "name": "transferFrom",
      "outputs": [],
      "stateMutability": "payable",
      "type": "function"
    }
  ],
  "bytecode": "0x608060405234801561001057600080fd5b50611b98806100206000396000f3fe6080604052600436106101b95760003560e01c80636c0360eb116100ed578063a22cb46511610090578063a22cb4651461055f578063a2309ff81461057f578063b88d4fde14610594578063bf0b175e146105a7578063c87b56dd146105df578063d89135cd146105ff578063dc33e68114610614578063e985e9c514610634578063f25236331461065457600080fd5b80636c0360eb1461048057806370a082311461049557806375794a3c146104b55780638529eea6146104ca5780638832e6e3146104ea57806395d89b411461050a5780639fac68cb1461051f578063a14481941461053f57600080fd5b806342842e0e1161016057806342842e0e146102d857806342966c68146102eb578063453ab1411461030b5780634b6c5d8c1461032b5780634f558e791461039457806352d8a4d1146103b457806353b1233d146104205780636352211e146104405780636900a3ae1461046057600080fd5b806301ffc9a7146101be57806306fdde03146101f3578063081812fc14610215578063095ea7b31461024d5780630a70b5661461026257806318160ddd1461028257806323b872dd146102a557806340c10f19146102b8575b600080fd5b3480156101ca57600080fd5b506101de6101d936600461169f565b610674565b60405190151581526020015b60405180910390f35b3480156101ff57600080fd5b506102086106c6565b6040516101ea919061170c565b34801561022157600080fd5b5061023561023036600461171f565b610761565b6040516001600160a01b0390911681526020016101ea565b61026061025b36600461174f565b6107a5565b005b34801561026e57600080fd5b5061026061027d366004611779565b6107b5565b34801561028e57600080fd5b506102976107bf565b6040519081526020016101ea565b6102606102b33660046117b1565b6107fc565b3480156102c457600080fd5b506102606102d336600461174f565b6109bb565b6102606102e63660046117b1565b6109c5565b3480156102f757600080fd5b5061026061030636600461171f565b6109e5565b34801561031757600080fd5b506102606103263660046117ed565b6109f1565b34801561033757600080fd5b5061026061034636600461171f565b60046020908152600091825260408083208054600160e01b9081179091557f2569078dfb4b0305704d3008e7403993ae9601b85f7ae5e742de3de8f8011c4490925290912080549091179055565b3480156103a057600080fd5b506101de6103af36600461171f565b6109fb565b3480156103c057600080fd5b506103d46103cf36600461171f565b610a06565b6040516101ea919081516001600160a01b031681526020808301516001600160401b03169082015260408083015115159082015260609182015162ffffff169181019190915260800190565b34801561042c57600080fd5b5061026061043b36600461171f565b610a17565b34801561044c57600080fd5b5061023561045b36600461171f565b610a20565b34801561046c57600080fd5b5061020861047b36600461171f565b610a2b565b34801561048c57600080fd5b50610208610a36565b3480156104a157600080fd5b506102976104b0366004611825565b610a52565b3480156104c157600080fd5b50610297610ab1565b3480156104d657600080fd5b506102606104e536600461174f565b610abb565b3480156104f657600080fd5b506102606105053660046118e2565b610ac5565b34801561051657600080fd5b50610208610ad0565b34801561052b57600080fd5b5061026061053a366004611948565b610ae8565b34801561054b57600080fd5b5061026061055a36600461174f565b610af2565b34801561056b57600080fd5b5061026061057a366004611974565b610afc565b34801561058b57600080fd5b50610297610b79565b6102606105a236600461199e565b610b83565b3480156105b357600080fd5b506105c76105c2366004611825565b610bc4565b6040516001600160401b0390911681526020016101ea565b3480156105eb57600080fd5b506102086105fa36600461171f565b610bcf565b34801561060b57600080fd5b50610297610c57565b34801561062057600080fd5b5061029761062f366004611825565b610c61565b34801561064057600080fd5b506101de61064f366004611a05565b610c6c565b34801561066057600080fd5b506103d461066f36600461171f565b610ca9565b60006301ffc9a760e01b6001600160e01b0319831614806106a557506380ac58cd60e01b6001600160e01b03198316145b806106c05750635b5e139f60e01b6001600160e01b03198316145b92915050565b60606106d0610cba565b60020180546106de90611a2f565b80601f016020809104026020016040519081016040528092919081815260200182805461070a90611a2f565b80156107575780601f1061072c57610100808354040283529160200191610757565b820191906000526020600020905b81548152906001019060200180831161073a57829003601f168201915b5050505050905090565b600061076c82610cde565b610780576107806333d1c03960e21b610d68565b610788610cba565b60009283526006016020525060409020546001600160a01b031690565b6107b182826001610d72565b5050565b6107b18282610e23565b6000806107ca610cba565b600101546107d6610cba565b54030390506000196107e6610e8a565b146107f9576107f3610cba565b60080154015b90565b600061080782610e90565b6001600160a01b03948516949091508116841461082d5761082d62a1148160e81b610d68565b60008061083984610f7d565b9150915061085e81876108493390565b6001600160a01b039081169116811491141790565b6108805761086c8633610c6c565b61088057610880632ce44b5f60e11b610d68565b801561088b57600082555b610893610cba565b6001600160a01b03871660009081526005919091016020526040902080546000190190556108bf610cba565b6001600160a01b038616600090815260059190910160205260409020805460010190556108fc856108f1888287610fa5565b600160e11b17610fc8565b610904610cba565b60008681526004919091016020526040812091909155600160e11b8416900361097a5760018401610933610cba565b60008281526004919091016020526040812054900361097857610954610cba565b5481146109785783610964610cba565b600083815260049190910160205260409020555b505b6001600160a01b038516848188600080516020611b43833981519152600080a4806000036109b2576109b2633a954ecd60e21b610d68565b50505050505050565b6107b18282610fdd565b6109e083838360405180602001604052806000815250610b83565b505050565b6109ee816110e8565b50565b6107b182826110f3565b60006106c082610cde565b610a0e611662565b6106c08261115c565b6109ee81611175565b60006106c082610e90565b60606106c0826111ba565b6060610a4d60408051602081019091526000815290565b905090565b60006001600160a01b038216610a7257610a726323d3ad8160e21b610d68565b6001600160401b03610a82610cba565b6005016000846001600160a01b03166001600160a01b0316815260200190815260200160002054169050919050565b6000610a4d6111fe565b6107b1828261120e565b6109e083838361121a565b6060610ada610cba565b60030180546106de90611a2f565b6107b1828261128e565b6107b182826113fb565b80610b05610cba565b336000818152600792909201602090815260408084206001600160a01b03881680865290835293819020805460ff19169515159590951790945592518415158152919290917f17307eab39ab6107e8899845ad3d59bd9653f200f220920489ca2b5937696c31910160405180910390a35050565b6000610a4d611415565b610b8e8484846107fc565b6001600160a01b0383163b15610bbe57610baa8484848461142f565b610bbe57610bbe6368d2bf6b60e11b610d68565b50505050565b60006106c082611511565b6060610bda82610cde565b610bee57610bee630a14c4b560e41b610d68565b6000610c0560408051602081019091526000815290565b90508051600003610c255760405180602001604052806000815250610c50565b80610c2f846111ba565b604051602001610c40929190611a69565b6040516020818303038152906040525b9392505050565b6000610a4d611544565b60006106c082611557565b6000610c76610cba565b6001600160a01b039384166000908152600791909101602090815260408083209490951682529290925250205460ff1690565b610cb1611662565b6106c08261159c565b7f2569078dfb4b0305704d3008e7403993ae9601b85f7ae5e742de3de8f8011c4090565b6000610ce8610e8a565b821115610d12576106c0610cfa610cba565b600084815260049190910160205260409020546115c7565b610d1a610cba565b54821015610d635760005b610d2d610cba565b600084815260049190910160205260408120549150819003610d5957610d5283611aae565b9250610d25565b600160e01b161590505b919050565b8060005260046000fd5b6000610d7d83610a20565b9050818015610d955750336001600160a01b03821614155b15610db857610da48133610c6c565b610db857610db86367d9dca160e11b610d68565b83610dc1610cba565b6000858152600691909101602052604080822080546001600160a01b0319166001600160a01b0394851617905551859287811692908516917f8c5be1e5ebec7d5bd14f71427d1e84f3dd0314c0f7b2291e5b200ac8c7c3b9259190a450505050565b6000610e2d610cba565b600084815260049190910160205260408120549150819003610e5857610e5862d5815360e01b610d68565b6001600160e81b031660e882901b178181610e71610cba565b6000958652600401602052604090942093909355505050565b60001990565b6000610e9a610cba565b600083815260049190910160205260409020549050610eb7610e8a565b821115610ee157610ec7816115c7565b15610ed157919050565b610ee1636f96cda160e11b610d68565b80600003610f5a57610ef1610cba565b548210610f0857610f08636f96cda160e11b610d68565b610f10610cba565b600019909201600081815260049390930160205260409092205490508015610f0857600160e01b8116600003610f4557919050565b610f55636f96cda160e11b610d68565b610f08565b600160e01b8116600003610f6d57919050565b610d63636f96cda160e11b610d68565b6000806000610f8a610cba565b60009485526006016020525050604090912080549092909150565b600060e882811c90610fb88686846115dd565b62ffffff16901b95945050505050565b4260a01b176001600160a01b03919091161790565b6000610fe7610cba565b54905060008290036110035761100363b562e8dd60e01b610d68565b611021836110146000866000610fa5565b6001851460e11b17610fc8565b611029610cba565b60008381526004919091016020526040902055680100000000000000018202611050610cba565b6001600160a01b038516600081815260059290920160205260408220805490930190925581900361108a5761108a622e076360e81b610d68565b81830182611096610e8a565b6001830311156110b0576110b06340b23f1d60e11b610d68565b5b80836000600080516020611b43833981519152600080a48181600101915081036110b157816110de610cba565b55506109e0915050565b6109ee81600061128e565b60006110fd610cba565b6001600160a01b038416600090815260059190910160205260409020546001600160c01b031660c083901b1790508181611135610cba565b6001600160a01b039095166000908152600595909501602052604090942093909355505050565b611164611662565b6106c061117083610e90565b61161f565b61117d610cba565b6000828152600491909101602052604081205490036109ee5761119f81610e90565b6111a7610cba565b6000928352600401602052604090912055565b606060a06040510180604052602081039150506000815280825b600183039250600a81066030018353600a9004806111d45750819003601f19909101908152919050565b6000611208610cba565b54919050565b6107b182826000610d72565b6112248383610fdd565b6001600160a01b0383163b156109e057600061123e610cba565b5490508281035b611258600086838060010194508661142f565b61126c5761126c6368d2bf6b60e11b610d68565b818110611245578161127c610cba565b541461128757600080fd5b5050505050565b600061129983610e90565b9050806000806112a886610f7d565b9150915084156112df576112bd818433610849565b6112df576112cb8333610c6c565b6112df576112df632ce44b5f60e11b610d68565b80156112ea57600082555b6001600160801b036112fa610cba565b6001600160a01b038516600090815260059190910160205260408120805490920190915561133b90849061133090829088610fa5565b600360e01b17610fc8565b611343610cba565b60008881526004919091016020526040812091909155600160e11b851690036113b95760018601611372610cba565b6000828152600491909101602052604081205490036113b757611393610cba565b5481146113b757846113a3610cba565b600083815260049190910160205260409020555b505b60405186906000906001600160a01b03861690600080516020611b43833981519152908390a46113e7610cba565b600190810180549091019055505050505050565b6107b182826040518060200160405280600081525061121a565b600080611420610cba565b540390506000196107e6610e8a565b604051630a85bd0160e11b81526000906001600160a01b0385169063150b7a0290611464903390899088908890600401611ac5565b6020604051808303816000875af192505050801561149f575060408051601f3d908101601f1916820190925261149c91810190611b02565b60015b6114f4573d8080156114cd576040519150601f19603f3d011682016040523d82523d6000602084013e6114d2565b606091505b5080516000036114ec576114ec6368d2bf6b60e11b610d68565b805181602001fd5b6001600160e01b031916630a85bd0160e11b149050949350505050565b600060c061151d610cba565b6001600160a01b03909316600090815260059390930160205260409092205490911c919050565b600061154e610cba565b60010154905090565b60006001600160401b03604061156b610cba565b6005016000856001600160a01b03166001600160a01b0316815260200190815260200160002054901c169050919050565b6115a4611662565b6106c06115af610cba565b6000848152600491909101602052604090205461161f565b600160e01b81166001600160a01b039091161190565b60006001600160a01b0384166115f55750602a610c50565b6001600160a01b03831661160c5750610539610c50565b611617826001611b1f565b949350505050565b611627611662565b6001600160a01b03821681526001600160401b0360a083901c166020820152600160e01b82161515604082015260e89190911c606082015290565b60408051608081018252600080825260208201819052918101829052606081019190915290565b6001600160e01b0319811681146109ee57600080fd5b6000602082840312156116b157600080fd5b8135610c5081611689565b60005b838110156116d75781810151838201526020016116bf565b50506000910152565b600081518084526116f88160208601602086016116bc565b601f01601f19169290920160200192915050565b602081526000610c5060208301846116e0565b60006020828403121561173157600080fd5b5035919050565b80356001600160a01b0381168114610d6357600080fd5b6000806040838503121561176257600080fd5b61176b83611738565b946020939093013593505050565b6000806040838503121561178c57600080fd5b82359150602083013562ffffff811681146117a657600080fd5b809150509250929050565b6000806000606084860312156117c657600080fd5b6117cf84611738565b92506117dd60208501611738565b9150604084013590509250925092565b6000806040838503121561180057600080fd5b61180983611738565b915060208301356001600160401b03811681146117a657600080fd5b60006020828403121561183757600080fd5b610c5082611738565b634e487b7160e01b600052604160045260246000fd5b600082601f83011261186757600080fd5b81356001600160401b038082111561188157611881611840565b604051601f8301601f19908116603f011681019082821181831017156118a9576118a9611840565b816040528381528660208588010111156118c257600080fd5b836020870160208301376000602085830101528094505050505092915050565b6000806000606084860312156118f757600080fd5b61190084611738565b92506020840135915060408401356001600160401b0381111561192257600080fd5b61192e86828701611856565b9150509250925092565b80358015158114610d6357600080fd5b6000806040838503121561195b57600080fd5b8235915061196b60208401611938565b90509250929050565b6000806040838503121561198757600080fd5b61199083611738565b915061196b60208401611938565b600080600080608085870312156119b457600080fd5b6119bd85611738565b93506119cb60208601611738565b92506040850135915060608501356001600160401b038111156119ed57600080fd5b6119f987828801611856565b91505092959194509250565b60008060408385031215611a1857600080fd5b611a2183611738565b915061196b60208401611738565b600181811c90821680611a4357607f821691505b602082108103611a6357634e487b7160e01b600052602260045260246000fd5b50919050565b60008351611a7b8184602088016116bc565b835190830190611a8f8183602088016116bc565b01949350505050565b634e487b7160e01b600052601160045260246000fd5b600081611abd57611abd611a98565b506000190190565b6001600160a01b0385811682528416602082015260408101839052608060608201819052600090611af8908301846116e0565b9695505050505050565b600060208284031215611b1457600080fd5b8151610c5081611689565b62ffffff818116838216019080821115611b3b57611b3b611a98565b509291505056feddf252ad1be2c89b69c2b068fc378daa952ba7f163c4a11628f55a4df523b3efa2646970667358221220a56e10587669889979d0897927b5ed1bc8f2d22692a7423cb7106082366f83d464736f6c63430008180033",
  "linkReferences": {},
  "deployedLinkReferences": {}
}